:1000000000000320D101000051990000099900006F
:100010000999000009990000099900000999000058
:100020000999000009990000099900005199000000
:10003000519900000999000085A9000089A90000D4
:100040005199000051990000519900005199000008
:1000500051990000519900005199000051990000F8
:1000600051990000519900005199000051990000E8
:1000700051990000519900005199000051990000D8
:1000800051990000519900005199000051990000C8
:1000900051990000519900005199000051990000B8
:1000A00051990000519900005199000051990000A8
:1000B0005199000051990000519900005199000098
:1000C0005199000051990000519900005199000088
:1000D0005199000051990000519900005199000078
:1000E0005199000051990000519900005199000068
:1000F0005199000051990000519900005199000058
:1001000075AA000089AA00009DAA0000B1AA0000FB
:1001100051990000199F0000519900005199000069
:100120005199000051990000519900005199000027
:100130005199000051990000519900005199000017
:100140005199000051990000519900005199000007
:1001500051990000519900005199000051990000F7
:1001600051990000519900005199000051990000E7
:1001700051990000519900005199000051990000D7
:1001800051990000519900005199000051990000C7
:1001900051990000519900005199000051990000B7
:1001A00051990000519900005199000051990000A7
:1001B0005199000051990000519900005199000097
:1001C0005199000051990000519900005199000087
:1001D0005C4B4CF2205210B51A804DF628121A8052
:1001E00000BF00BF09F0B8FB574B4FF030621A60F8
:1001F000564A9A60564ADA60564B4FF470021A60BB
:10020000554B564A1A60564B1A78110703D51A787F
:1002100042F008021A70534B5349AA221A70534AEB
:10022000534B8B4204D252F8040F43F8040BF8E707
:10023000504B514900228B4202D243F8042BFAE77B
:100240004E494F4A002352F8230041F8230001335E
:10025000742BF8D14B4B4C4A802103F8011B93427D
:10026000FBD14A4B454A1A60494B8A221A70A3F5C2
:10027000805324225A70A0221A709A799207FCD5D2
:100280009A79D406FCD4434A937903F00C03082BE3
:10029000FAD1414B60221A7002331A78802AFCD1BD
:1002A0003C4B01221A715D225A719A799006FCD555
:1002B0009979384A4906FBD5384B394919600021EC
:1002C000596020231370937903F00C030C2BFAD19F
:1002D000344B354A1A60354A354C136813F4807331
:1002E00003D123604FF4A8531360324B324A1A6093
:1002F00000225A60072243F8042C304AC3F80C2D20
:1003000062B609F0CDFC2368DA0705D52C4809F060
:10031000EFFB2C4B2C4A1A602C4B1B785B0609D543
:10032000284C294B22689A4204D1254809F0E0FB69
:100330000023236009F016FB0BF024FB0AF004FCF9
:10034000FEE700BF0E20054030800440823F0400DD
:100350000100002B88ED00E0002008E0030000858C
:1003600002D0074000E00740B011FF1F8C2D0100B4
:100370003007FF1FB011FF1F2837FF1F0002FF1FAC
:100380000000000000E400E064E400E008ED00E0AC
:10039000005006400040064001E007404480044011
:1003A0000000060204800440C010070010D0034083
:1003B00014D0034014E000E01FBF02000000202022
:1003C0007A9F79611CE00340A5C3945A00F007406E
:1003D000FFFFFFFFFFFFFFFFFFFFFFFFFFFFFFFF2D
:1003E000FFFFFFFFFFFFFFFFFFFFFFFFFFFFFFFF1D
:1003F000FFFFFFFFFFFFFFFFFFFFFFFFFFFFFFFF0D
:10040000FFFFFFFFFFFFFFFFFFFFFFFFDEF9FFFF23
:1004100010B5054C237833B9044B13B10448AFF33E
:1004200000800123237010BDB011FF1F00000000E9
:10043000882D0100084B10B51BB108490848AFF3DF
:1004400000800848036803B910BD074B002BFBD0A0
:10045000BDE81040184700BF00000000B411FF1FA6
:10046000882D0100B011FF1F0000000038B50D46B7
:1004700004460221E8B209F097FB0A204FF47A7192
:100480000022012360602560A1602275236120465F
:1004900038BD00BF38B505460C46C8B2022109F088
:1004A00083FB2C6038BD00BF08B5007809F06EFBF7
:1004B00000280CBF0220002008BD00BF70B5184EF8
:1004C00082B03368009304460078009D09F05EFB1B
:1004D00090B92369012B16D0E2686368AD1A9D427A
:1004E00006D9237DB3B1A3689D428CBF03200220AF
:1004F0000023236102B070BD00200123E06020755D
:10050000236102B070BD33680193019BE360002357
:100510002361EFE70120002320752361EAE700BF94
:10052000A835FF1F806C7047406C7047ABB1B1F5C8
:10053000805F12DA2DE9F0411D460F46561EC1F5C7
:1005400080580024E01909F097F90134A54206F813
:10055000010F04D12846BDE8F081002070474445D2
:10056000F0D12046BDE8F081ABB1B1F5805F12DA81
:100570002DE9F0411D460F46561EC1F58058002456
:10058000E01916F8011F013409F090F9A54204D1D1
:100590002846BDE8F081002070474445F0D1204650
:1005A000BDE8F0810D2170B506460160002009F01C
:1005B0007DF935460124204615F8011F013409F064
:1005C00075F9042CF7D121464023321D3046FFF740
:1005D000CBFF012070BD00BF036B013B032B17D87D
:1005E000DFE803F013100D02142383644369013B19
:1005F000052B26D8DFE803F0211D1915120F0A2359
:100600008364F3E705238364F0E702238364EDE763
:1006100000238364EAE70D4B436470470C4B43644B
:1006200070474EF660234364704747F2305343648B
:10063000704743F698234364704742F21073436453
:10064000704741F288334364704700BFE093040071
:10065000C0D40100F8B50D46064617460FCD341D2F
:100660000FC40FCD0FC40FCD0FC495E80F0084E861
:100670000F002FB930460121FFF7AEFF0846F8BD45
:100680003046FFF78FFF01463046FFF7A5FF0846CB
:10069000F8BD00BF70B50646002009F0EDF83546FC
:1006A00030700124204609F0E7F80134042C05F8E5
:1006B000010FF7D133680D2B01D0002070BD21460A
:1006C0004023321D3046FFF731FF3046FFF784FFED
:1006D000012070BD03680D2B10B5044601D0FFF753
:1006E000D9FF201D10BD00BF002138B540220446AF
:1006F00040F8041B0BF032FD2046FFF7CBFFC8B9D2
:100700000A2305466060A060E06060612361092201
:10071000094904F1180008F001FE2046A562E562CF
:1007200025636563A563E5632564FFF755FF2046F0
:10073000FFF738FF204638BD5803010009F052B8D2
:10074000F0B442F20C0100F50057002242F2040618
:1007500042F20805034642504418386042F2140140
:1007600000F580578751585142F2180742F21C0693
:1007700042F220054250C821C25182514255217196
:10078000F0BC70472DE9F04F89B0144601919DF8F7
:10079000042002948346079210469DF808201D46C7
:1007A0000121144609F000FA03959DF80C200494E9
:1007B00020460121154609F0F7F99DF848200595D6
:1007C00028460121164609F0EFF99DF84CA006963F
:1007D0003046012109F0E8F99DF858905046012172
:1007E00009F0E2F99DF85C804846012109F0DCF946
:1007F0009DF860704046012109F0D6F99DF86460CB
:100800003846012109F0D0F99DF8685030460121A1
:1008100009F0CAF99DF86C402846012109F0C4F995
:100820002046012109F0C0F9079A0021104609F07D
:10083000A7F90498002109F0A3F90598002109F00F
:100840009FF90698002109F09BF95046002109F014
:1008500097F94846002109F093F94046002109F034
:100860008FF93846002109F08BF93046002109F054
:1008700087F92846002109F083F942F2280A204628
:10088000002109F07DF942F22C09019B4BF80A3056
:1008900042F23008029B4BF8093042F2340C039BC1
:1008A0004BF8083042F2380E129B4BF80C3042F2F3
:1008B0003C07139B4BF80E300BF50156149B4BF87D
:1008C000073042F24405159B336042F24804169B00
:1008D0004BF8053042F24C00179B4BF8043042F2C3
:1008E0005001189B4BF8003042F25402199B4BF810
:1008F00001301A9B4BF802301B9B42F258024BF816
:10090000023009B0BDE8F08F42F22403064AC15814
:10091000064B00F5005001290CBF114619460C305A
:100920003B220AF03BB800BFAD100000110D0000E3
:1009300010B5044600F500500C300AF079F842F288
:100940002802044BA25C53F83230012283F8802045
:1009500010BD00BF782801003F299BBF42F21C0256
:100960000123002381501846704700BF07299BBF11
:1009700042F220020123002381541846704700BF31
:1009800038B542F2040504464FF48052405908F04D
:10099000C5FC04F5005361591A681960625138BDED
:1009A00042F22403C15070472DE9F04F8BB0054649
:1009B00042F21801059042F2080242F220002C4651
:1009C000AA58285C6D58214601F5005942F21403DB
:1009D00001F5015E4946E658BA4C02EBC51CCA4611
:1009E0000A46013065460AF1300A3832012340F3E5
:1009F0000007C84640F3400003FA06F605F6020574
:100A0000CDF804A0039201F1340A01F12802049206
:100A1000FFB2C0B20CF1020CF6B209F11C090EF1E2
:100A2000180E08F12C08CDF808A000220095A9E0C6
:100A3000DEF800B000991CF802AC11F8021CA14DC0
:100A40005FFA8BFB06EA0A0A54F83BB08BF80031D8
:100A5000D8F800B05FFA8BFB1AEA070F55F83BB0E5
:100A6000019D14BF8BF880308BF80031D5F800B0B1
:100A7000029D5FFA8BFB314054F83BB0394214BF02
:100A80008BF880308BF80031D5F800B0039D5FFA09
:100A90008BFB10EA0A0F54F83BA014BF8AF8803091
:100AA0008AF80031D5F800A05FFA8AFA084254F8B3
:100AB0003A1014BF81F8803081F800319EF80010A0
:100AC00054F8311081F88030D9F8001002F1010A91
:100AD000514563D0DEF800B000991CF801AC11F864
:100AE000011C784D5FFA8BFB06EA0A0A54F83BB00A
:100AF0008BF80031D8F800B05FFA8BFB1AEA070FC9
:100B000055F83BB0019D14BF8BF880308BF8003155
:100B1000D5F800B0029D5FFA8BFB314054F83BB032
:100B2000394214BF8BF880308BF80031D5F800B013
:100B3000039D5FFA8BFB10EA0A0F54F83BA014BF29
:100B40008AF880308AF80031D5F800A0009D5FFA5D
:100B50008AFA084254F83A10DFF868A114BF81F805
:100B6000803081F800319EF80010023254F83110C4
:100B70000235802A81F880300CF1020C00954FF08C
:100B8000010113D0D9F8001091427FF451AF0499BC
:100B9000097854F8311081F8803049E70499494DBB
:100BA000097855F8311081F8803093E7059D059854
:100BB000059F42F2540242F21803AA5C5AF832200E
:100BC00082F88010EA5842F24403D607EB58DBB2B1
:100BD00042F218025AF833304CBF83F8801083F881
:100BE000001142F248038258C3580598DBB212F054
:100BF000020F54F833304FF0010214BF83F8802005
:100C000083F8002142F24C0342F21802C358825882
:100C10000598DBB212F0040F54F833304FF00102A4
:100C200014BF83F8802083F8002142F2500342F27F
:100C30001802C3588258DBB212F0080F54F8333050
:100C40004FF0010214BF83F8802083F8002142F2A4
:100C500054021D4BBA5C42F2280654F8322001259A
:100C600082F800510FCBBE5D54F8366086F8005113
:100C70000AAD05E90F0042F2140442F218013A5994
:100C80007B5805EB82000133DD0650F8100C14D5BB
:100C9000059D013200236B5051070AD5059E06F5CC
:100CA000005142F2080209683351B1500BB0BDE85F
:100CB000F08F2A510BB0BDE8F08F7B500BB0BDE830
:100CC000F08F00BF782801006403010038B500F5FB
:100CD00000540C340546204609F0AAFE2846FFF7CA
:100CE00063FE002803DB084B421E9A4200D938BD40
:100CF000C0EB00108200013A232AF8D920460349AC
:100D0000BDE8384009F04ABE47444404110D0000D4
:100D100008B572B60248FFF7D9FF62B608BD00BF3A
:100D20009012FF1F2DE9F04F8BB00746059042F25D
:100D3000080242F2180042F2140342F2200107F5C1
:100D40000059BA583858FD58795CC54C07F5015E12
:100D50004F4602EBC01CCA463A46013160460AF1D2
:100D6000300A3832012341F30006C84641F34001FE
:100D700003FA05F500F60200CDF80CA0029207F187
:100D8000340A07F128020492F6B2C9B20CF1020C3F
:100D9000EDB209F11C090EF1180E08F12C08CDF87E
:100DA00004A000220090BBE0DEF800B000981CF820
:100DB00002AC10F8027CAA485FFA8BFB15EA0A0F16
:100DC00054F83BB08BF80031D8F800B05FFA8BFBD9
:100DD00008BF4FF0010A50F83BB0039818BF4FF01E
:100DE000000A3D420CBF012700271AEA060F14BF74
:100DF0008BF880308BF80031D0F800B001985FFAA2
:100E00008BFB374254F83BB014BF8BF880308BF823
:100E10000031D0F800B002985FFA8BFB11EA0A0F9C
:100E200054F83BA014BF8AF880308AF80031D0F81B
:100E300000A05FFA8AFA394254F83A7014BF87F872
:100E4000803087F800319EF8007054F8377087F8CA
:100E50008030D9F8007002F1010A57456CD0DEF8F5
:100E600000B000981CF801AC10F8017C7C485FFAD7
:100E70008BFB15EA0A0F54F83BB08BF80031D8F819
:100E800000B05FFA8BFB08BF4FF0010A50F83BB08F
:100E9000039818BF4FF0000A3D420CBF01270027FE
:100EA0001AEA060F14BF8BF880308BF80031D0F8A7
:100EB00000B001985FFA8BFB374254F83BB014BF87
:100EC0008BF880308BF80031D0F800B002985FFAD0
:100ED0008BFB11EA0A0F54F83BA014BF8AF880304C
:100EE0008AF80031D0F800A000985FFA8AFA3942F7
:100EF00054F83A70DFF868A114BF87F8803087F89B
:100F000000319EF80070023254F837700230802AA7
:100F100087F880300CF1020C00904FF0010713D0DD
:100F2000D9F8007097427FF43FAF0498077854F8DF
:100F3000377087F8803037E704980778484850F8CA
:100F4000377087F880308AE7059842F2540242F2FF
:100F50001803825C5AF8322082F88070C25842F23C
:100F60004403D607C3580598DBB242F218025AF878
:100F700033304CBF83F8807083F8007142F248032D
:100F80008258C3580598059FDBB212F0020F54F83F
:100F900033304FF0010214BF83F8802083F8002122
:100FA00042F24C0342F21802C35882580598DBB251
:100FB00012F0040F54F833304FF0010214BF83F8DD
:100FC000802083F8002142F2500342F21802C358F5
:100FD0008258DBB212F0080F54F833304FF00102A0
:100FE00014BF83F8802083F8002142F254021D4B85
:100FF000BA5C42F2280654F83220012582F80051EA
:101000000FCBBE5D54F8366086F800510AAD05E995
:101010000F0042F2140442F218013A597B5805EBD2
:1010200082000133DD0650F8100C14D5059D013205
:1010300000236B5051070AD5059E06F5005142F278
:10104000080209683351B1500BB0BDE8F08F2A5146
:101050000BB0BDE8F08F7B500BB0BDE8F08F00BF48
:10106000782801006403010038B500F500540C3401
:101070000546204609F0DCFC2846FFF753FE002811
:1010800003DB084B421E9A4200D938BDC0EB00106A
:101090008200013A232AF8D920460349BDE83840A6
:1010A00009F07CBC47444404AD10000008B572B69A
:1010B0000248FFF7D9FF62B608BD00BF9012FF1FBC
:1010C00038B500F5805241F20403802520211560D7
:1010D0000446C1504FF4805200210BF03FF82046E7
:1010E00038BD00BF01F00F014FF480520BF036B84D
:1010F0002DE9F04F83B00C9C02EB04094A4530DA2D
:10110000154698460F9A0E9B03EBC21AC5EB0A03CD
:1011100001930D9B83460E4608EB030747451DDDF3
:10112000019BEB180BEB030A444606E001349AF8E6
:1011300000000AF8800BA74210D02246294630460C
:1011400001F0B0F90028F1D122462946304601F0DD
:1011500071F90134A7420AF8800BEED101354D45F3
:10116000DCD103B0BDE8F08F002070474FF0FF30B6
:10117000704700BF10B5044B044640F8103B05F023
:1011800033FF204610BD00BF7C030100836C13B108
:10119000184605F07BB8C06C08B104F069B8704718
:1011A000836C13B1184604F037BFC06C08B103F06C
:1011B00055BC4FF0FF307047826C62B1137803F07A
:1011C000080303F0FF0003B3D3695069181A48BF3E
:1011D0006FF000407047C16CC1B191F8313003F03D
:1011E000080303F0FF0083B1D1E90423D1E9000132
:1011F000101A30B463EB010100256FF000448D42FA
:1012000008BF844200D2204630BC70470846704771
:1012100000B5836C83B063B1184601220DF107015C
:1012200004F02AFE01280CD19DF8070003B05DF8F8
:1012300004FBC06C28B101220DF1070103F03AFB59
:10124000F0E74FF0FF30F1E700B5836C83B08DF825
:10125000071043B1184601220DF1070105F01CF8F3
:1012600003B05DF804FBC06C0028F9D001220DF139
:10127000070104F013F903B05DF804FB836C13B1AC
:10128000184605F009B8C06C08B104F007B97047FA
:10129000F0B5334E34688FB014B3D4F8805475B1C0
:1012A0000024294623462F4A8DF8004068468DF8D1
:1012B00001408DF8024004F0D1FD0FB0F0BDD4F82C
:1012C000841400293FD02B46264A8DF831506846B9
:1012D0008DF832508DF8335003F0BAFE0FB0F0BDE8
:1012E00040F2B44009F038FC054600F5926701234E
:1012F000DFF87CE01C481D49C5F880442922C5F868
:10130000844485F8984485F8994485F8B244C5F832
:101310009004C5F89C14C5F8A4E4194685F8AF24D8
:1013200085F8AD343846356007F038F83846C5F8EA
:101330008C7406F0DBFB044628B9D5F88C142846DB
:1013400005F008FF10B900200FB0F0BD3368D3F8E6
:101350008054002DA5D1D3F884140029B3D1F2E72D
:10136000B433FF1F9C0B0100C42701006C27010050
:101370000320003810B5064C206828B140F2B44173
:1013800009F0F0FB00232360BDE81040FFF780BFA9
:10139000B433FF1F2DE9F04F8F4D2B68ADF58D5DF8
:1013A00013F0010487B000F0D9818C4C2368D90771
:1013B00040F1C2818A4C2368DA0740F1B381DFF83B
:1013C00058920EAD6CA8FFF77BFE0CA800F0ECFF66
:1013D00010A800F0E9FFD9F8003045F8103C55F8A6
:1013E000108C03F07DF904467E48FFF773F97E4BBD
:1013F000026B1B88D0F804B0049223B17B4FBB6C06
:10140000002B00F0D9817A4BA3FB08239B0655BF24
:10141000784B794BDFF804A2DFF804A22022BBF15D
:10142000010F1A60204600F06681BBF1020F00F048
:10143000FB8007F021FE0746204607F03FFE14AC74
:1014400003463A4620466D490BF0AAFB664B1B88C3
:10145000002B00F00F81DFF8CCB16949DBF80020E8
:101460000968C2EB08028A42C0F00481654E326806
:10147000002A00F08C81644D2A68002A40F0938194
:10148000624801F033FE002840F017832A685E4F5F
:10149000002A40F00383C7F8008054495B4801F0FC
:1014A00035FE524FBA6C002A00F0AB82574801F06B
:1014B0008BFE012840F080820020224610A953466E
:1014C0006071534801F08EFA504801F07FFE0446E7
:1014D00010A801F009F800EBD0734C48A4EB6304AA
:1014E00001F076FE054610A801F000F800EBD07080
:1014F000A5EB6005454801F049FE01460CA801F046
:101500005FF8424801F052FE0646002840F02E8265
:1015100010A800F0E9FF804610A800F0E7FF33466E
:10152000324610A9019002946CA8CDF80080039572
:10153000FFF7DEFD0CA800F0D7FF04460CA800F072
:10154000D5FF0094019003960296334632460CA9CB
:101550006CA8FFF7CDFD049B002B00F0BD80BB6C99
:10156000224A002B00F0D8820DF1B00A504600F05C
:101570001BFF0023B86C8DF8603018AB1B4A049336
:10158000002800F082820D22194604F0CFFF2E21A0
:1015900004980BF02BFB08B100230370049A1D483C
:1015A0005146002301F01EFA504600F0B3FF5046AA
:1015B00000F09AFF0446504600F098FF0023019087
:1015C00000946CA8039302931A465146FFF790FDCE
:1015D000504600F0B7FF7FE08C12FF1F7C12FF1F08
:1015E0002812FF1F5033FF1F3633FF1F2C12FF1F1F
:1015F000D34D621084F00F4088F00F40DC0B0100E7
:101600008012FF1FE411FF1F8412FF1FE811FF1F4C
:10161000B833FF1F1C33FF1FA835FF1FA40B0100A9
:10162000AC0B01002412FF1F07F034FDB44AB54B88
:101630000928CCBF93469B46204607F02BFD074662
:10164000204607F03BFD044607F014FEAE4BAF4AC0
:101650000094002814BF1846104614AC3B46019075
:101660005A462046AA490BF09BFAAA4B1B88002B2E
:101670007FF4F1AEA84922465346086810A901F04C
:10168000B1F900216CA8FFF72DFD10A800F02CFF88
:10169000064610A800F02AFF054610A800F024FF17
:1016A000044610A800F022FFC4F17F03C0F11F0020
:1016B00003EBD37300EBD0705A104010002303905B
:1016C000029200961A46019510A96CA8FFF710FD2A
:1016D000049B002B40F0C9806CA99048FFF750F99B
:1016E00010A800F02FFF0CA800F02CFF0DF58D5D69
:1016F00007B0BDE8F08F07F0CDFC824F804B092882
:10170000C8BF1F46204607F0C5FC8346204607F0A9
:10171000D5FC14AC00903A465B46204680490BF05D
:101720003FFA93E6204608F035F9DFF83C920028AE
:1017300040F05A810EAD45E6204608F02BF900280E
:101740003FF438AE774801F031FB204608F028F925
:10175000754A7649734809F0E7FA2BE6284608F0FF
:1017600019F900283FF421AE714E724B34714FF4D9
:101770007A722846B2603473B464F464336008F05B
:101780000FF93046684A6C4909F0CEFA0DE6D9F8EF
:10179000002045F80C2C55F80C2C684D32602A6856
:1017A000002A3FF46DAE5F48C2EB080701F0F0FC81
:1017B00087423FF665AE74E6FB6C1E46002B7FF455
:1017C00022AE5F48FEF7AEFE82465D48FEF7ACFEF5
:1017D0005C4B18605C4B0593BAF1000F6CD15B4B0E
:1017E00006930DF1B00A049B002B74D1584B494A63
:1017F00010881A68079209F0A3F9079A554900EB77
:10180000400300EB8300024450460BF0C9F9069BED
:101810005246196818A8002305F000FD444B9DF8B6
:1018200064101A9A9DF86CE039710DF1700A5146F6
:1018300003F11000BA6087F80CE005F0E9FB464BB5
:101840001893504605F0D0FBBB6C002B00F02D81A7
:101850003749344801F0BCFA0746002800F03381CC
:10186000059A138801331380CDE518A800F09CFD7C
:101870003A4B3B491A682CA80BF092F92CAA18A9EC
:101880000023384801F0AEF818A800F043FE18A86D
:1018900000F02AFE044618A800F028FE002301905C
:1018A00000946CA818A9039302931A46FFF720FC32
:1018B00018A800F047FE0FE7188890FBFAF30AFB20
:1018C00013000028214B069340F30381049B0DF184
:1018D000B00A002B8AD0059B1A880E4B1B88B2FBDE
:1018E000F3F103FB11231A4A1A4912689BB203EB66
:1018F000430003EB80031A4450460BF051F986E78E
:10190000B0250100B40B0100B80B01009C260100BA
:10191000F40B01003633FF1F2012FF1F9012FF1F30
:10192000E80B0100E811FF1F3007FF1FC12D000069
:101930002C12FF1FA0030100751100008412FF1F6D
:101940005033FF1F8012FF1F1C12FF1FB433FF1FF5
:101950001812FF1FD00B01007C0301008812FF1F2B
:10196000000C01001C33FF1FA835FF1F0CA800F05E
:10197000BBFD80460CA800F0B9FD00263346324678
:101980000CA9CDF80080019003966CA80296FFF791
:10199000AFFB10A800F0A8FD804610A800F0A6FD3F
:1019A000CDF800800190039502943346324610A989
:1019B0006CA8FFF79DFBCEE56349224653460868B5
:1019C00010A901F00FF810A800F08EFDC0F17F0003
:1019D00000EBD07410A800F089FDC0F11F0000EBEF
:1019E000D0706410451085E50EADD9F80020574B36
:1019F00045F8142C55F8142C1A60204607F0D0FF37
:101A0000E0E4FB6C0593002B7FF450ADD9F8002087
:101A10002C9231682C9F4C4ADFF848E1059B1068F6
:101A20002B6022467C1A059FCEF80040534610A931
:101A30003760CBF8008000F0D5FF39466CA8FFF77F
:101A400051FB10A800F050FD064610A800F04EFD16
:101A5000054610A800F048FD044610A800F046FD19
:101A6000C4F17F03C0F11F0000EBD07003EBD37310
:101A700040105B1003900293009601953B463A4656
:101A800010A96CA8FFF734FB26E6D06C00283FF4C1
:101A90007EAD0D22049902F03FFE78E52C4801F05E
:101AA00077FB3A6810443860F7E42A4BDB6C002B74
:101AB0007FF4CEAE284A1380D2E6284805F094FA87
:101AC000FFF758FCEDE4254805F08EFA224B1F8005
:101AD000C6E61B68D3F880E4BEF1000F21D00DF1FB
:101AE000B00A7146334650461D4A8DF8B0608AF8F8
:101AF00001608AF8026004F0B1F900283FF473AE87
:101B0000DFF85CC0BCE80F00D646AEE80F00DCF89A
:101B10000030AEF800307AE6D36C002B7FF424ADB1
:101B2000DAE5D3F884140DF1B00A00293FF45BAE76
:101B3000734650460A4A8AF831E08AF832E08AF859
:101B400033E003F085FAD8E72012FF1F2412FF1FAD
:101B5000E811FF1F2C12FF1F3633FF1F3C12FF1F1F
:101B6000BC0B01008812FF1F2DE9F0434B4B4C4A80
:101B70001968AFB0002306A805F050FB494B189A2E
:101B80001A934FF47A7100238DF86C308DF874300D
:101B90002C932D931C91002A7AD0DFF81C81D8F861
:101BA000000030B109F01EFF3F4A00231380C8F83F
:101BB00000300AAE1EAD002231462846DFF8F8900C
:101BC000394F05F095FA002835D02C9800238DF870
:101BD0000830002844D002AC21460D2204F0A6FCB7
:101BE000F8B1324920460BF06FF8D0B1D8F8003088
:101BF000002B3ED03A88013292B202EB42011846E5
:101C000002EB81013A800AF0C1FD3B88C9F800006F
:101C100003EB430203EB82030D3B214618440BF018
:101C2000BDF9284605F0E0F900223146284605F0C6
:101C30005FFA0028C9D1D8F8000010B11A4B1988F2
:101C400009BB304605F0D0F9194C1A94284605F026
:101C5000CBF93046069405F0C7F92FB0BDE8F08304
:101C60002D980028DDD002AC21460D2202F054FD53
:101C7000B6E701220D2001933A8009F0ABFE019BEB
:101C8000C9F80000C9E70B4B0D220AF0B9FAD8E7F2
:101C9000199B002B81D10AAE1EADD5E7B433FF1FCF
:101CA0009C0B0100A00301003633FF1F040C010050
:101CB0007C030100C9CC00001812FF1FF0B54D4F86
:101CC0003B68D3F88044ADB03CB3002518AE214644
:101CD0002B463046484A8DF860508DF861508DF89B
:101CE000625004F0BBF898B1444D2C6844B12046D2
:101CF00000F054FD2046182108F034FF00232B602B
:101D00003F48FEF7E7FC3F4914300AF0DDFFA8B971
:101D10003D4B3E4A1A602DB0F0BDD3F88414002923
:101D2000F6D018AE23463046334A8DF891408DF8F0
:101D300092408DF8934003F08BF9D4E70023396883
:101D40002D4A04A805F06AFA169B002B44D0002304
:101D50004FF47A712E4A8DF864308DF86C302A93E6
:101D60002B931A91189208AC0DE0304600F070FFEA
:101D70002348FEF7AFFC694614300AF0A5FFE0B136
:101D80001CA805F031F9214600221CA805F0B0F985
:101D900069460028E9D12B683BB31B4A13602046F3
:101DA00005F022F91B4D18951CA805F01DF92046D9
:101DB000049505F019F92DB0F0BD182008F0CCFEFF
:101DC000074600F0E3FC384631462F6000F006FD80
:101DD0001CA805F009F9DEE7179B002BB7D10A4BC9
:101DE0000A4A1A6008AC0B4DE1E7074B074A1A6034
:101DF000D5E700BFB433FF1F100C01001412FF1F02
:101E00005033FF1F580301002012FF1FCC11FF1F8A
:101E1000A00301007C0301002DE9F04102F060FC09
:101E2000604C07466048FEF755FC2378C66B002BD4
:101E300069D15E4D2B68013B032B79D8DFE803F0B5
:101E40005844330202F04CFC07465748FEF742FC68
:101E5000C66B5748FEF732FB01286DD05548FEF798
:101E60002DFB012868D05448FEF728FB012863D0D9
:101E70005248FEF723FB01285ED02378EBB93846A1
:101E800007F0FAF80446304607F0F6F8844208D125
:101E9000384607F013F90446304607F00FF984423C
:101EA0000BD0BDE8F0814548FEF708FB0128F8D1CA
:101EB0004248FEF703FB0028FAD102232B6040487A
:101EC000BDE8F041FEF720BD3C48FEF7F7FA0328D5
:101ED000034651D03648FEF7F1FA012852D0324875
:101EE000FEF7F8FB237853B3BDE8F041FFF752BA91
:101EF000002001F0E5FE0028D3D102232B60BDE8CD
:101F0000F041FFF7DBBE384607F0B6F8054630462D
:101F100007F0B2F885428CD1384607F0CFF8054675
:101F2000304607F0CBF8854283D10023237080E749
:101F300002232B60BDE8F08101232370BDE7846B91
:101F4000304607F099F88046204607F095F880451E
:101F50001DD0384607F090F80646204607F08CF86A
:101F60008642C1D1384607F0A9F80646204607F058
:101F7000A5F88642B8D104232B601148BDE8F04192
:101F8000FEF7D6BC2860BDE8F04101F099BE3046AE
:101F900007F094F80646204607F090F88642D8D11C
:101FA000A2E700BF3433FF1F5033FF1F3407FF1F6A
:101FB0009C33FF1F3833FF1FEC32FF1F0433FF1F1A
:101FC0009012FF1F30B51B4891B0FEF783FB05460A
:101FD0000FCD6C460FC40FCD0FC40FCD0FC495E8C5
:101FE0000F0084E80F001448FEF75EFA022810D0B4
:101FF0001248FEF759FA022813D00F48FEF754FA98
:1020000002280E48F9D0FEF74FFA0228F5D011B099
:1020100030BD00236946012206480A93FEF71AFBE9
:10202000EBE7012369461A4602480A93FEF712FBC2
:10203000E3E700BF5033FF1F9C33FF1FEC32FF1F4D
:1020400000B5ADF5805D83B06846FFF739F81148FB
:10205000FEF72AFA022804D00DF5805D03B05DF882
:1020600004FB0F216846FFF73DF869460A48FEF772
:1020700087FC0848FEF718FA0228FAD00548FEF750
:102080001DFA0128E8D00348FEF718FA0128F5D117
:10209000E2E700BF0433FF1F9012FF1FF0B5ADF55C
:1020A000825D83B00BAB10A80593324DFFF708F8A3
:1020B00007A800F079F905982F4A30490AF070FD19
:1020C000059A07A90023284600F08CFC07A800F019
:1020D0000BFA074607A800F009FA064607A800F021
:1020E00003FA044607A800F001FAC4F1800303EBE9
:1020F000D3735A10C0F10F00002307A90292039076
:102100001A4610A800970196FEF7F2FF1C48FEF74A
:10211000E1FA1C49826A05980AF042FD059A07A96E
:102120000023284600F05EFC07A800F0DDF9054614
:1021300007A800F0DBF9044607A800F0D5F9C0F1C4
:10214000800000EBD070002340101122029007A9FC
:1021500010A8039200951A460194FEF7C9FF10A932
:102160000948FEF70DFC07A800F0ECF90DF5825DBB
:1021700003B0F0BD1C33FF1F180C0100200C010040
:102180005033FF1F2C0C01009012FF1F70B58EB052
:102190000AA800F009F96A4A6A4D137843F001036E
:1021A0001370202007F0A0FA08F0C4FC05F118060F
:1021B000022401E055F8044FE4B22046042107F060
:1021C000F3FC2046002107F0DBFCB542F2D10121EF
:1021D0000D2007F0E9FC5C48FEF77CFA406B00300C
:1021E00018BF012002F04EFAFFF7ECFE07224FF471
:1021F0000D710AA800F0ACF940F2B67253490AA872
:1022000000F0DAF840F2F11251490AA800F0E2F8C1
:102210000AAA5E214F4800F0CDFA4FF4EB724E4906
:102220004C4800F059FB0B224FF4B1710AA800F0A2
:102230008FF940F29B7249490AA800F0BDF840F2BC
:10224000EF1247490AA800F0C5F80AAA2D2145480F
:1022500000F0B0FAE1224449424800F03DFB15226B
:10226000CA210AA800F074F940F649023F490AA8B9
:1022700000F0A2F840F222223D490AA800F0AAF894
:102280000AAA0F213B4800F095FA4B223A493948F7
:1022900000F022FB2C48FEF71DFA816A3748FEF752
:1022A0007FFB0021012204231720099108921621A7
:1022B0001222079305261123062507240390029175
:1022C00001921321142200932C480696152305959C
:1022D0000494FEF757FA1C48FEF7FCF9C16827483A
:1022E000FEF73AFB1848FEF7F5F990F8241023485A
:1022F000FEF73CFB2148FEF707FBFFF7CFFE204827
:1023000006F0EEFF3C2006F0F9FF642007F076FCB3
:102310000D48FEF7DFF9806807F0FCFBFEF7B8FF19
:1023200008B1FFF721FCFFF7C9FC4FF4FA6007F092
:1023300065FCFFF785FE0AA800F004F90EB070BD39
:1023400000D00740D81401005033FF1F3C0C01009F
:10235000BC0301001C33FF1FA00701008C1D0100FE
:10236000B0050100B833FF1FF4130100F41401009D
:1023700078090100CC11FF1F401D01009012FF1FC2
:102380000147000010B5054C204600F0FFF920463B
:10239000034A0449BDE8104008F0C6BCCC11FF1F39
:1023A0003007FF1F9D27000000220260426002816B
:1023B00042818281C281704710B54389848903FBC1
:1023C00004F39A4201D0002010BD006806F0A6FF79
:1023D000002010BD10B54389C48903FB04F39A4261
:1023E00001D0002010BD406806F098FF002010BD0D
:1023F000002917DB002A15DB30B40489A14210DA6A
:102400004489A2420DDA84890568481002FB04025F
:10241000C907A85C07D500F00F0040EA0310C0B25E
:10242000A85430BC704703F00F0320F00F0018438E
:10243000A854F6E710B48489006801EBD17302FB5D
:1024400004025B105DF8044BD05CCB074CBF000965
:1024500000F00F00704700BF002918DB002A16DBD0
:1024600030B40489A14211DA4489A2420EDAC48947
:102470004568C81002FB0402A85C4BB101F00701DB
:10248000012303FA01F10843C0B2A85430BC7047DD
:1024900001F00701012303FA01F120EA0100A85429
:1024A000F4E700BF00291BDB002A19DB03899942EE
:1024B00016DA43899A4213DA10B4446894B1C38996
:1024C000C81002FB034201F00701125C012303FA6A
:1024D00001F10A4214BF184600205DF8044B704712
:1024E000012070470120F8E7008970474089704754
:1024F00083894289006861F31F1102FB03F209F02E
:102500002DBE00BF838942890068002102FB03F2CF
:1025100009F024BEC38942894068002102FB03F20E
:1025200009F01CBE10B50446006818B108F018FB8D
:1025300000232360606820B108F012FB0023636071
:1025400010BD10BD10B50446FFF7ECFF204610BDCE
:1025500070B50D4604461646FFF7E4FFAAB215F023
:10256000070102F0010318BF012105EBD570002D12
:10257000B8BF073503EB600001EBE50580B22281AF
:10258000A081E581668106FB00F008F0E7FAE389A7
:10259000206006FB03F008F0E1FAA389628960601D
:1025A00002FB03F20021206809F0D8FDE38962896B
:1025B000606802FB03F20021BDE8704009F0CEBD67
:1025C00038B50D464A8909890446FFF7C1FF2968D5
:1025D000D1B1A089638910FB03F292B203FB00F32F
:1025E0009A4222D06968C1B1E089638910FB03F285
:1025F00092B203FB00F39A4201D0204638BD6068D6
:1026000006F08CFE204638BD206808B108F0A8FA14
:102610006968002323600029E6D1606808B108F0EA
:102620009FFA00236360204638BD206806F076FEDE
:10263000D8E700BF70B50646886C82B00D4600280A
:1026400035D00222694603F017FCAB6CC443E40F9B
:10265000002B38D0022218460DEB020103F00CFCCF
:10266000AB6C0028B4BF002404F00104002B73D02D
:102670001846022201A903F0FFFBAB6C0028B4BF8F
:10268000002404F001043BB3184602220DF10601B8
:1026900003F0F2FB0028B4BF002004F00100BDF8F5
:1026A0000010802929D00024204602B070BDC86CDB
:1026B000002869D00222694602F0FCF8AB6CC443E2
:1026C000E40F002BC6D1E86C0028E8D002220DEB05
:1026D000020102F0EFF8C3E7E86C0028DFD00DF14B
:1026E0000601022202F0E6F8BDF800100028B4BF8F
:1026F000002004F001008029D5D1BDF80220202A55
:10270000D1D1BDF80430042BCDD1BDF80630012B5A
:10271000C9D80028C7D03046FFF71AFFB28973899D
:10272000A86C316803FB02F2E8B103F0A5FBBDF829
:102730000630C443E40F002BB6D0F2897389A86C2D
:10274000716803FB02F2A0B103F096FB0028B4BF4E
:10275000002404F00104A7E7E86CA8B1022201A953
:1027600002F0A8F889E7E86C00289CD002F0A2F8F3
:10277000DDE7E86C002896D002F09CF80028B4BF92
:10278000002404F001048FE7002088E710B5044618
:10279000FFF70AFE00232361204610BD10B5044652
:1027A000006908B108F0DCF92046FFF7CBFE2046AF
:1027B00010BD00BF70B5044600690D46164608B14D
:1027C00008F0CEF931462046FFF7FAFEA58205EB68
:1027D000850008F0C3F9206170BD00BF70B50546E3
:1027E000886CC2B00C4600286CD0002103F04AFC73
:1027F000A06C00285FD0022201A903F03DFBA06C71
:1028000000284ED00DF103063146012203F034FBBF
:102810004FF4807202A8002109F0A0FCA06C32786D
:1028200020B302A903F028FBA06C50B30DF10606FB
:102830003146022203F020FB286908B108F090F924
:10284000308800EB800008F089F928610146328861
:10285000A06C02EB8202F0B103F00EFB2146284689
:10286000FFF7E8FE3388AB8242B070BDE06C0DF13B
:1028700006060028E0D002A902F01CF8A06C00288F
:10288000D4D1E06C0DF106060028D5D031460222E5
:1028900002F010F8D0E7E06C0028DFD002F00AF870
:1028A000DCE7E06C0DF103060028B1D031460122CF
:1028B00002F000F8ACE7E06C58B1022201A901F087
:1028C000F9FF9CE7C86C20B10022002302F0DEF87B
:1028D0008EE70DF103069BE708B5838A03EB8303BC
:1028E0009A4201D0002008BD006906F017FD0120C2
:1028F00008BD00BF2DE9F04F83B0804608460C4666
:1029000001910AF0BDFBB8F814B000270BF1FF3CB1
:1029100001381FFA8CFC87420CEB8C0C04F1FF3A57
:10292000BE465E4625DA1AF8012F002E55D0D8F89B
:10293000105095F800B05A453AD02B4605EB0C01E3
:1029400002E01C78944234D0994203F10503994681
:10295000F7D12B4602E01C78944224D08B4203F13D
:1029600005031D46F7D1002301378742C3EB0E0E46
:10297000D9DB20EAE070019B185C86B3D8F8101010
:102980000B78834221D00B468C4402E01A788242B5
:102990001BD0634503F105031946F7D100207044AD
:1029A00003B0BDE8F08FEB782A7943EA0223DBE736
:1029B000A94699F8013099F802105A4543EA0123D3
:1029C0009E44F0D005EB0C01C3E74B78887843EACE
:1029D0000020704403B0BDE8F08F3346C4E73046B2
:1029E000F7E700BF2DE9F04F87B0884611469B46B8
:1029F00005920746FFF77EFF04463846FFF776FD4F
:102A0000214602464046FFF7A3FD00230093994666
:102A10000393059C20460AF033FB009A824280F221
:102A2000C880B7F814E0A15CBEF1000F00F0C880C8
:102A30003B6993F800C0614500F0B0800EF1FF34AF
:102A4000A5B205EB85051D441A4603E010788842BF
:102A500000F0A580954202F105021646F6D100224B
:102A60000492A4B204EB84041C44002203E013F893
:102A7000050F884207D058789D7840EA0520024427
:102A8000A34292B2F3D10292029B049A384603EB1E
:102A9000020AFFF72BFD0026864248DA029B9A4580
:102AA0003FDD039C029D14E0FFF7FCFC32460190E1
:102AB00021464046FFF7F6FC019B0340DBB232465D
:102AC00021464046FFF7C8FC0135554504F1010495
:102AD00027D0294632463846BBF1000F04D0009B70
:102AE0001BF803302D2B46D0FFF7A4FC32460346DB
:102AF00021464046FFF77CFCA14532462946384630
:102B0000D2DC294632463846FFF7CCFC0135034675
:102B1000214632464046FFF79FFC554504F101042B
:102B2000D7D13846FFF7E2FC01368642B6DB059A7C
:102B300000990498515C039ABB8A024491469BB168
:102B4000386902788A4224D0013B9AB202EB8202B1
:102B50000346024402E01C788C421AD0934203F1EF
:102B600005031846F7D10023C3EB09030393009B29
:102B7000013300934DE7002321464046FFF738FC20
:102B8000A145A1DC0123324621464046FFF764FC03
:102B90009AE7C378027943EA0223E5E71E46B07854
:102BA0007278614542EA0022049206D00EF1FF34A9
:102BB00057E7404607B0BDE8F08F0023029363E774
:102BC000CDF808E0CDF810E05EE700BF70B51C4B13
:102BD0001C4A1968A8B00023684604F01FFB129B2A
:102BE00043B300244FF47A72174B8DF854408DF89C
:102BF0005C40269427941692149304AD02E018A822
:102C000004F0F2F90022294618A804F071FAE6B29D
:102C100001340028F3D1284604F0E6F90B4C149453
:102C200018A804F0E1F92846009404F0DDF93046D4
:102C300028B070BD139E002ED3D104AD034CF2E733
:102C4000B433FF1F100C0100A00301007C0301003E
:102C500030B50446806C83B00D46002847D0002173
:102C600003F010FAA06C002837D002220DF1060103
:102C700003F002F9A06C28B301220DF1050103F065
:102C8000FBF8A06C9DF8052001320C2ACABF0D226A
:102C9000D3B213468DF8053058B1294603F0ECF84D
:102CA0009DF805301D440022184605F8012C03B09C
:102CB00030BDE06C0028F5D0294601F0FBFD9DF801
:102CC0000530EFE7E36C002BDCD0184601220DF154
:102CD000050101F0EFFDA06CD4E7E36C002BD1D02F
:102CE000184602220DF1060101F0E4FDC2E7E36C93
:102CF000002BC7D018460022002301F0C7FEB1E721
:102D000010B5044600F500500C3007F091FE204647
:102D100010BD00BF2DE9F041DFF88C80184C194F31
:102D2000194E1A4D4046FDF70BFD22461849404604
:102D300007F0FAFF1748FDF7D7FC1E211648FDF7EC
:102D400095FB1C211548FDF791FB1D211448FDF74B
:102D50008DFB1B211348FDF789FB3846FFF716FD55
:102D600022463146384607F0DFFF2846FFF70EFDC2
:102D7000224631462846BDE8F04107F0D5BF00BFE6
:102D80003007FF1F1C33FF1F9D270000B833FF1FB4
:102D9000012D00005033FF1F9C33FF1F3833FF1FEE
:102DA000EC32FF1F0433FF1F9012FF1F10B50446C3
:102DB0001C30FFF7F9FA002323826382204610BDFE
:102DC00010B504461C30FFF7BDFB204610BD00BF08
:102DD0002DE9F0430646886C89B00D46002800F0C6
:102DE000548102220DF1060103F046F8AB6CC44396
:102DF000E40F002B00F056811846022202A903F0CE
:102E00003BF8AB6C0028B4BF002404F00104002B95
:102E100000F04F81184602220DF10A0103F02CF850
:102E20000028B4BF002404F00104002C00F05081FD
:102E3000BDF80A30002B00F0CF80002706F1020910
:102E400006F10408A9E00222314603F015F8AB6C44
:102E50000028B4BF002404F00104002B00F00E8110
:102E600018460222494603F007F8AB6C0028B4BFAD
:102E7000002404F00104002B00F0F980184602221F
:102E8000414602F0F9FFAB6C0028B4BF002404F007
:102E90000104B11D002B00F0E3801846022202F06D
:102EA000EBFFAB6C0028B4BF002404F0010406F172
:102EB0000801002B00F0CD801846022202F0DCFF52
:102EC000AB6C0028B4BF002404F0010406F10A0131
:102ED000002B00F0B7801846022202F0CDFFAB6C49
:102EE0000028B4BF002404F0010406F10C01002BFB
:102EF00000F0A1801846022202F0BEFFAB6C002851
:102F0000B4BF002404F0010406F10E01002B00F010
:102F10008B801846022202F0AFFFAB6C0028B4BFD2
:102F2000002404F0010406F11401002B75D01846AA
:102F3000012202F0A1FFAB6C0028B4BF002404F012
:102F4000010406F11501002B60D01846012202F0A1
:102F500093FFAB6C0028B4BF002404F0010406F119
:102F60001601002B4BD01846012202F085FFAB6CF6
:102F70000028B4BF002404F00104DBB1184611227C
:102F800003A902F079FFBDF80A300028B4BF00247D
:102F900004F001040137BB421EDDA86C00287FF459
:102FA00052AFE86C002800F097800222314601F011
:102FB00081FC4CE7E86C002800F09480112203A902
:102FC00001F078FCBDF80A3001370028B4BF0024B6
:102FD00004F00104BB42E0DC32887389BDF80810BC
:102FE0003182003218BF0122003318BF01230021B3
:102FF000204632837383718209B0BDE8F083E86CA8
:1030000000286BD0012201F055FCB0E7E86C0028E5
:1030100060D0012201F04EFC9BE7E86C002859D0FB
:10302000012201F047FC86E7E86C002852D002221A
:1030300001F040FC71E7E86C00284BD0022201F05F
:1030400039FC5BE7E86C002844D0022201F032FC36
:1030500045E7E86C00283DD0022201F02BFC2FE769
:10306000E86C002836D0022201F024FC19E7E86C55
:1030700080B30222414601F01DFC04E7E86C48B32E
:103080000222494601F016FCEFE6C86C00B30222AA
:103090000DF1060101F00EFCAB6CC443E40F002BF4
:1030A0007FF4AAAEE86C98B1022202A901F002FCFA
:1030B000A7E6E86C60B102220DF10A0101F0FAFB0B
:1030C0000028B4BF002404F00104002C7FF4B0AE4B
:1030D000002481E7BDF80A3000245BE7BDF80A3020
:1030E000044657E70446BDF80A3053E7428A038A8C
:1030F0009A4201D000207047B0F91A00032803D08B
:10310000B0FA80F04009704701207047B0F91830DC
:1031100010B50446012B408A228A1BD00323824229
:1031200023831BD0904225D3B4F91A30022B05D04B
:10313000002010BD02229342628317D0E389012B45
:10314000F6D11C342046FFF7DDF92046FFF7E2F9FF
:10315000012010BD02239042238313D1B4F91A2019
:10316000012AE7D00322022B6283E1D1A388012B3D
:10317000DAD1E6E704F11C00FFF75CFA638A013359
:10318000638210BDA388012BCCD1DAE71C307047D5
:10319000B0F91830022B06D0B0F91A30022B0CBF50
:1031A0004089C08870470088704700BFB0F9183068
:1031B000022B07D0438B023B9BB2012B94BF80892B
:1031C0000089704740887047007D7047407D704798
:1031D000807D70474368002B10B5044603DD80688E
:1031E00008B107F0BDFC204610BD00BF4368002BAE
:1031F00010B5044603DD806808B107F0B1FC204635
:1032000010BD00BF4368002B10B5044603DD806885
:1032100008B107F0A5FC204610BD00BF4368002B95
:1032200010B5044603DD806808B107F099FC20461C
:1032300010BD00BF4368002B10B5044603DD806855
:1032400008B107F08DFC204610BD00BF4368002B7D
:1032500010B5044603DD806808B107F081FC204604
:1032600010BD00BF4368002B10B5044603DD806825
:1032700008B107F075FC204610BD00BF4368002B65
:1032800010B5044603DD806808B107F069FC2046EC
:1032900010BD00BFC1B20148FDF768BB9012FF1F0F
:1032A0002DE9F0438BB0054606A80E46FFF77CF8E3
:1032B00001F016FA09228046802106A8FFF748F996
:1032C000012106A8FFF714F906A8FFF70DF98146BA
:1032D00006A8FFF70BF900242A4FCDF800900190C3
:1032E00006A928462346224603940294FDF700FFD0
:1032F0003246234606A93846FFF774FB06A8FFF7B7
:10330000F3F8814606A8FFF7F1F801262346224686
:1033100006A9CDF800900190039628460296FDF785
:10332000E7FE404605F0A8FE8146404605F0C6FE91
:103330004A460346144904A809F032FC234604AA6D
:1033400006A93846FFF74EFB06A8FFF7CDF807465B
:1033500006A8FFF7CBF8804606A8FFF7C5F8C0F12E
:103360008000029023462846224606A903968DE84F
:103370008001FDF7BDFE06A8FFF7E4F80BB0BDE83D
:10338000F08300BF1C33FF1FDC0B01002DE9F0436D
:1033900089B0044604A80F46FFF706F8092204A8DE
:1033A0001C21FFF7D5F8012104A8FFF7A1F804A814
:1033B000FFF79AF8064604A8FFF798F817250023A8
:1033C000022204A9009601900395204602921A4613
:1033D000FDF78EFE04A8FFF787F8064604A8FFF75E
:1033E00085F80023222204A9009601900395204627
:1033F00002921A46FDF77CFE04A8FFF775F8064610
:1034000004A8FFF773F80023422204A90096019054
:103410000395204602921A46FDF76AFE04A8FFF7BC
:1034200063F8804604A8FFF761F84F4E0395002328
:1034300062220190CDF8008004A9204602921A462B
:10344000FDF756FE3A6804A900233046FFF7CAFA92
:1034500004A8FFF749F8814604A8FFF747F880461B
:1034600004A8FFF741F8C0F11C0000EBD070401039
:10347000182500230230CDF800900290CDF804808A
:1034800004A920461A460395FDF732FE7A6804A97E
:1034900000233046FFF7A6FA04A8FFF725F8814677
:1034A00004A8FFF723F8804604A8FFF71DF8C0F131
:1034B0001C0000EBD070401000232230CDF80090AB
:1034C0000290CDF8048004A920461A460395FDF722
:1034D0000FFEBA6804A900233046FFF783FA04A858
:1034E000FFF702F8814604A8FFF700F8804604A819
:1034F000FEF7FAFFC0F11C0000EBD0704010002373
:103500004230029004A920461A46CDF80090039557
:10351000CDF80480FDF7ECFDFA6804A900233046DD
:10352000FFF760FA04A8FEF7DFFF064604A8FEF7DF
:10353000DDFF074604A8FEF7D7FFC0F11C0000EB33
:10354000D070401000236230029004A920461A4631
:1035500003958DE8C000FDF7CBFD04A8FEF7F2FF50
:1035600009B0BDE8F08300BF1C33FF1F2DE9F04F09
:1035700089B0054604A80C4617469B46FEF714FF83
:103580006248FCF79BFF82466148FCF797FF814643
:103590006048FCF793FF80465F48FCF78FFF0646C4
:1035A000002F40F08B80B9F1010F5C4F00F08E804E
:1035B000B8F1010F00F09D80012E00F09680BAF165
:1035C000010F4FF0FF3618BF00262168DFF84C814D
:1035D0002846FFF765FE3B68002B1ADD0023504AA2
:1035E000504804A9FFF7FEF904A8FEF77DFF8146C5
:1035F00004A8FEF77BFF00230B22019003920293A5
:103600001A46CDF8009004A92846FDF771FDD8F8B8
:1036100000306268013A9A4220DD0023424A414864
:1036200004A9FFF7DFF904A8FEF75EFF814604A8AE
:10363000FEF75CFF804604A8FEF756FF00230B222E
:10364000C0F1800002900392CDF800901A46CDF8A8
:10365000048004A92846FDF74BFD3B68A268314869
:1036600052F8232004A90023FFF7BCF904A8FEF7B1
:103670003BFF804604A8FEF739FF074604A8FEF783
:1036800033FFC0F1800000EBD070002342100B210B
:10369000029203911A4604A92846CDF800800197AA
:1036A000FDF726FD04F10C012846FFF76FFE04A884
:1036B000FEF748FF304609B0BDE8F08F174FDBF842
:1036C00000303B60B9F1010F7FF472AF6368386876
:1036D000124A013B83427FF76BAF129B01301060AF
:1036E000002B3FF465AF984762E73B68CBF80030AA
:1036F0006BE73868094B00287FF75EAF0138186028
:10370000129B002B3FF458AF984755E79C33FF1F9F
:103710003833FF1FEC32FF1F0433FF1F0C34FF1F31
:10372000CC250100B833FF1F582501002DE9F047D3
:103730008CB0054604A88946FEF736FE684B0FCBD1
:1037400008AE86E80F006748FCF7B8FE07466648F3
:10375000FCF7B4FE80466548FCF7B0FE04466448BA
:10376000FCF7ACFE8246B9F1000F40F08580012FD6
:10377000DFF88C9100F0898028F00208B8F1010F81
:103780004FF0010700F08E8024F00204012C00F0BD
:103790009A80BAF1010F04D1564BD9F80020DA60B3
:1037A000002728465449FFF77BFD082204A844213E
:1037B000FEF7CEFE052104A8FEF79AFE04A8FEF748
:1037C00093FE044604A8FEF791FE00230C211E225E
:1037D000009401900391029204A91A462846FDF72D
:1037E00087FC062204A84221FEF7B2FE002104A8AD
:1037F000FEF77EFE04A8FEF777FE044604A8FEF757
:1038000075FE00230D211F22009401900391029266
:1038100004A91A462846FDF76BFC042204A840219F
:10382000FEF796FE0F2104A8FEF762FE04A8FEF73D
:103830005BFED9F800400028B8BF3F308311013447
:1038400004A803FB04F4FEF751FE00230E212022FE
:1038500001900391029204A91A4628460094FDF7AC
:1038600047FC31462846FFF791FD04A8FEF76AFEA3
:1038700038460CB0BDE8F0871E4BDFF88490DB685B
:10388000C9F80030012F7FF477AF1A4B1B48D96875
:1038900028F00208FDF760F8B8F1010F4FF00007BB
:1038A0007FF472AFD9F80010154A3E293FF76CAF8C
:1038B0004B1C19461148136024F00204FDF74CF824
:1038C000012C7FF466AFD9F800100D4A00297FF76C
:1038D00060AF4B1E194609481360FDF73DF858E7E5
:1038E000282501009C33FF1F3833FF1FEC32FF1FD8
:1038F0000433FF1F5034FF1F5C2501009012FF1F8F
:103900001034FF1F2DE9F04F93B007460AA88946EF
:1039100092461D46FEF748FD794B0FCB0EAC84E86E
:103920000F007848FCF7CAFD06467748FCF7C6FD4D
:1039300080467648FCF7C2FD83467548FCF7BEFD1D
:103940000346002D40F09B80012E4FF0FF3618BF3C
:103950000026B8F1010F6F4D6AD0B8F1030F67D0A0
:10396000BBF1010FDFF8C08155D0BBF1030F52D07E
:10397000012B00F0AE8049463846FFF791FCBAF1C2
:10398000000F44D1DFF8A491DFF8A4A198F801302A
:1039900098F80220604907A809F002F92B685F48EF
:1039A000002B0CBF4B46534607AA0AA9FFF71AF88B
:1039B0000AA8FEF799FD81460AA8FEF797FD804602
:1039C0000AA8FEF791FDC0F1800000EBD070002343
:1039D00040100B22029003920AA91A463846CDF8ED
:1039E0000090CDF80480FDF783FB4D4A2D684D4BC8
:1039F0002146002D08BF134638461193FFF7C6FC39
:103A00000AA8FEF79FFD304613B0BDE8F08FDFF83F
:103A10002491CA46BAE72A68EAB998F802204249CE
:103A2000013AD2B2172A50D88A70012BA3D153E0A1
:103A30002A68002A3AD0DFF8F08098F80120013295
:103A4000D2B23B2A4BD8BBF1010F88F8012002D03B
:103A5000BBF1030F8CD198F801203349013AD2B25F
:103A60003B2A42D84A70012B85D100232E4888F882
:103A7000003005F031FB1C9B012618607BE71C9B86
:103A8000059029491868234D05F012FA012E4FF0D0
:103A900000024FF0FF3618BF0026B8F1010F2A6070
:103AA000059B03D0B8F1030F7FF45AAFDFF878809D
:103AB00098F802200132D2B2172A1AD90022BBF19B
:103AC000010F88F802207FF450AF172288F80220F7
:103AD000ABE72B68002BC8D101232B604BE70022FA
:103AE000BBF1010F88F80120B2D13B2288F80120F8
:103AF000B9E7BBF1010F88F802207FF436AF8CE7FD
:103B0000382501009C33FF1F3833FF1FEC32FF1FA5
:103B10000433FF1F9034FF1F90250100B833FF1FAF
:103B20008025010088250100D034FF1F6825010091
:103B300070250100782501002DE9F04F91B006466F
:103B400008A815460F46FEF72FFC504A0FCA0CACCA
:103B500084E80F004E48FCF7B1FC83464D48FCF763
:103B6000ADFC80464C48FCF7A9FC82464B48FCF76C
:103B7000A5FC002D51D128F00208B8F1010FDFF8A3
:103B8000389155D0BAF1010F5DD0BAF1030F5AD078
:103B9000012862D0BBF1010F4FF0FF3518BF00259F
:103BA00030463F49FFF77CFB3E4B3F48D9F80020A9
:103BB0003E49002F0CBF1F46074605A808F0F0FF3E
:103BC0003B4605AA08A93A48FEF70CFF08A8FEF7ED
:103BD0008BFC804608A8FEF789FC074608A8FEF77C
:103BE00083FCC0F1800000EBD070002342100B2159
:103BF000029203911A4608A93046CDF80080019739
:103C0000FDF776FA21463046FFF7C0FB08A8FEF71D
:103C100099FC284611B0BDE8F08F264BDFF898904C
:103C20009B68C9F8003028F00208B8F1010FA9D14B
:103C3000D9F80030204A0133B3F57A7F13DABAF1AC
:103C4000010F1360A1D1D9F800301C4A1A49013B79
:103C5000934213DA01280A609CD1164BD9F8002050
:103C60009A6005469CE7BAF1010F0AD040F2E733AB
:103C7000BAF1030F13608BD140F2E633C9F800307C
:103C800086E740F2E633136082E700BF4825010073
:103C90009C33FF1F3833FF1FEC32FF1F0433FF1F1D
:103CA000B4250100A82501009C250100C4250100C0
:103CB000B833FF1F5034FF1FB034FF1F19FCFFFF44
:103CC0002DE9F04FADF5865D81B004462EA8FDF7D5
:103CD000F7F9002C6CD1A74EA74D2B78A64F002BDF
:103CE00031D133680C2B22D8DFE813F0E4000A014D
:103CF00080018A01A701C801D301E201ED010D0095
:103D00001D01760139019D4C9D4B0093002204F169
:103D100024039C492EA8FFF729FC002846D001283F
:103D200000F0FB8094F824109748FCF71FFE012454
:103D30002C702EA99448FCF723FE20460DF5865DD5
:103D400001B0BDE8F08FDFF88482DFF8289298F8A0
:103D500000208E4900244B4600942EA8FFF706FC55
:103D600088F8004010B30130E3D0D9F800303C703F
:103D7000012288F800200C2BD9D8DFE813F0BD020F
:103D80007102670261025C020D0056024C024102A0
:103D900037022D02230219027C4A7D4B9268516939
:103DA0000093002201232EA8FFF7ACFD0124C0E7F9
:103DB0007848724CDFF81892FCF78CFC05460FCD62
:103DC0000FC40FCD0FC40FCD0FC495E80F0084E8CA
:103DD0000F00714A00231360D9F8004054B16368A2
:103DE000002B03DDA06808B106F0BAFE20461C21B6
:103DF00006F0B8FEFEF7EAFE684D8246286818B164
:103E000006F0AEFE00232B600FFA8AF303EB4300AB
:103E100003EB8000039306F0A1FE614B2860196854
:103E2000604A002306A803F0F9F9189B002B00F064
:103E30006D82594B00241C60BAF1000F00F08082A3
:103E400026460127DFF88CB10EE0534BB8461F60C1
:103E50001EA8CDF868B003F0C7F8C24507F1010706
:103E600004F10D0440F34D814FF47A730DF178089D
:103E70001C9340464C4B8DF86C6000220AA98DF8CB
:103E800074602C962D961A9303F032F9002800F0F6
:103E9000728129681AA82144FEF7DAFE404603F031
:103EA000A3F829684148214408F00EFF0028CCD02F
:103EB000B846CDE73E4B354A1B6804939168049B96
:103EC0003C4A3D4C09680094A2FB0332C2F3401205
:103ED00000232EA8FFF716FD00283FF467AF012846
:103EE0007FF425AF254B20681B68012B04BFA0F58C
:103EF0006160206005F0D2F9206805F0F9FD16E751
:103F0000002200921D4B2D492EA8FFF72FFB002801
:103F10003FF44CAF01287FF40AAF012217491D4836
:103F2000FCF798FB03E7154E2549002206F1340300
:103F300000922EA8FFF71AFB044600283FF436AF84
:103F400001287FF4F4AE706B003018BF012000F040
:103F500099FB224631460F48FCF77CFBE7E600223E
:103F60000092184B18492EA8FFF700FB0028D1D16A
:103F70001CE700BF2035FF1F1C35FF1F5034FF1FFB
:103F800095320000F834FF1F9012FF1FEC33FF1F23
:103F90008C34FF1F5033FF1FF434FF1F3034FF1FDA
:103FA000B433FF1F100C0100A00301006434FF1F95
:103FB000A835FF1FD34D62101835FF1FD033FF1FE8
:103FC0003434FF1F8034FF1F1434FF1F1435FF1FCC
:103FD0000834FF1F7C03010000220092A54BA64974
:103FE0002EA8FFF7C3FA002894D1DFE60022009242
:103FF000A24BA3492EA8FFF7B9FA00288AD1D5E62B
:10400000A04BA1491B680593059BA1FB033100222E
:10401000C1F340112EA8FFF78FFD024600283FF4A0
:10402000C5AE01287FF483AE984C99482146FCF731
:1040300011FBA06805F06EFD79E6964A914B9268F7
:104040001B681169069394488F4A069B0090A2FB57
:104050000332C2F3401200232EA8FFF753FC0028BE
:104060003FF4A4AE01287FF462AE0122874988485C
:10407000FCF7F0FA894B00221A7058E6854A814B0A
:1040800092681B68516986481A937F4A00901A9B70
:10409000DDE700212EA8FFF749FB00287FF486AE5C
:1040A00001227A497A480124FCF7D4FA2C7040E6C0
:1040B000002200927B4B7C492EA8FFF757FA00287C
:1040C0007FF428AF72E6794F794E39680022334683
:1040D00000922EA8FFF74AFA044600283FF466AE85
:1040E00001287FF424AE3B6832689B68714853F81E
:1040F000221008F053FF224664496548FCF7AAFAEB
:1041000015E60AA802F070FF1C2006F025FD0AF152
:1041100001040646A00006F021FD0399664A674B9C
:10412000746032608C00C9F80060B06003600021E8
:10413000042201E0986804322B680B4483509442B7
:1041400001F10D01D9F80030F4D15D4A5A615D4C9E
:104150005D485E495E4E5F4D5F4ADC601861996163
:104160000AA801230021CDF818B031602B7013701C
:1041700002F03AFFB1E54E4ACDF868B0034640463A
:10418000136002F031FF0AA802F02EFF1C2006F097
:10419000E3FC0446042006F0E1FC474B474A236059
:1041A0000121C9F80040A060616023460260CCE7AD
:1041B0000023009349494A4B01222EA8FFF7D6F964
:1041C0000124B6E5002300932B492A4B01222EA897
:1041D000FFF7CCF90124ACE5002300934149424BA1
:1041E00001222EA8FFF7C2F90124A2E500230093C3
:1041F0003E493F4B01222EA8FFF7B8F9012498E56C
:104200002A4A2B4B1168002200922EA80122FFF7A8
:10421000ADF901248DE5002300932349214B0122B0
:104220002EA8FFF7A3F9012483E501212EA8FFF7AB
:104230007DFA01247DE5174A174B92681169AFE5B5
:10424000012200212EA8FFF777FCAFE500230093A1
:104250000B490A4B01222EA8FFF788F9012468E5D3
:10426000002300932349094B01222EA8FFF77EF972
:1042700001245EE57C34FF1F9434FF1F5434FF1F7C
:10428000B434FF1FA835FF1FD34D62105034FF1FF9
:104290005033FF1FEC33FF1F8834FF1F3433FF1FE1
:1042A0008C34FF1F6034FF1FD834FF1F0834FF1FFA
:1042B000F434FF1F6434FF1FD025010058030100B0
:1042C00080250100DC250100E4250100882501008E
:1042D0002035FF1F1C35FF1F1435FF1F1434FF1F2F
:1042E0008034FF1F3434FF1F8434FF1FF834FF1F56
:1042F0007434FF1FD033FF1F00F0F2F9124B316806
:104300009A68124B52F82110186049E5199B002B4E
:104310007FF48FAD0E4ADFF844B013601C2006F026
:104320001BFC0446042006F019FC0A4B0A4A2360D1
:104330000121C9F80040A06061602346026004E7E3
:10434000DFF818B01FE700BFEC33FF1F1835FF1F61
:10435000F434FF1FD0250100580301007C03010045
:104360002DE9F84F342006F0F9FB03468A4C9C6196
:104370008A4CDC618A4C5C628A4C8B4F8B4E9C620F
:104380008B498C4CDFF8AC92DFF8AC821960DC62B0
:104390008948DFF8A8B2894D894A8A4CDFF8A0C263
:1043A000DFF8A0E2D8600D21C3F810B05D611A6299
:1043B000854DBB6032467960C3F804908349C3F8E9
:1043C00008801C63DFF880A2814BC7F80CC0384618
:1043D000C7F818E07B61C7F800A03D6106F0A4FCB7
:1043E000082006F0BBFB7B4B794C5C6101467A4CA4
:1043F0000C604FF0020B794CDFF850A2784F9960B7
:104400003246C3F804B018464C607649C3F80090B1
:104410001D61C3F80CA09F6106F086FC0C2006F01D
:104420009DFB714BDFF828E2C3F8008001464FF096
:1044300003086E4A6E48664C9960C1F808E0C3F8FC
:1044400004800A604860324618466A49C3F80CA0E6
:104450001D615C619F6106F067FC1C2006F07EFB1D
:10446000034665484D49DFF8ECE101600721C3F8D8
:1044700000E0624A4160DFF8E0E161495A6099601A
:10448000C3F80CE05F4ADFF8D4E15F491A61596173
:104490003246C3F818E083605C49C0F80CA005619F
:1044A0004461876106F040FC0C2006F057FBDFF802
:1044B000B0915749DFF8ACC1DFF8ACE1384AC1F838
:1044C0000480034683E800528B600A60C1F80CA0A8
:1044D00032460D614C618F6108464E49DFF88C8190
:1044E000DFF88C9106F020FC082006F037FB4A4BE1
:1044F000DFF880C12B4A1A6086468EE800113246EA
:10450000C3F808E0C3F804B04449C3F80CA0184647
:104510001D615C619F6106F007FC142006F01EFB24
:1045200003463F48234A44613E4CDFF84CE1DFF844
:104530004CC1DFF84C810260052283E81002C3F809
:104540000880C3F810E038498360C3F80CC04260AB
:104550003246C0F80CA00561876106F0E5FB082033
:1045600006F0FCFA8646314B1B4A1C4C0260CEF822
:104570000440144C1C60164CC3F804B03246184674
:10458000C3F808E0C3F80CA01D615C619F61284975
:10459000BDE8F84F06F0C8BB5C2501002C260100E1
:1045A0003826010044260100EC33FF1F3007FF1FAF
:1045B000F825010054260100B42501002026010041
:1045C000D025010060260100E42501007D320000B5
:1045D00080250100D033FF1F782601007C260100D2
:1045E0008825010065320000B434FF1F80260100D9
:1045F000882601004D320000D834FF1FAC26010090
:10460000B8260100D0260100DC260100353200006A
:10461000F834FF1F1D3200003434FF1F0532000044
:104620009434FF1F18270100ED3100001434FF1FE0
:10463000D5310000042601000826010014260100DF
:104640006826010070260100EC250100DC25010030
:1046500090260100A0260100C4260100E8260100E2
:10466000F4260100F82601000027010008270100B8
:1046700020270100102701003C27010030270100FE
:104680002827010008B588B91E211148FBF702FF51
:104690001C211048FBF7FEFE1D210F48FBF7FAFE18
:1046A0001B210E48BDE80840FBF7F4BE1B2108485B
:1046B000FBF7F0FE1D210748FBF7ECFE1C21064826
:1046C000FBF7E8FE1E210548BDE80840FBF7E2BE07
:1046D0009C33FF1F3833FF1FEC32FF1F0433FF1FD3
:1046E00010B504F077FD04460448FBF7F3FF0368B8
:1046F000012B08BF04F56164204610BD5033FF1F35
:1047000005F0F0B910B5044600F0B2FD002384F8BE
:10471000313084F8333010BD2DE9F04300F124032B
:1047200081460F46154693E8070085B099F8313069
:1047300001AE86E80700002B3ED099F83030012BFF
:104740003FD94FF001080024B8F1010F14BF202217
:1047500040223146D9F8200001F0E8F801282BD199
:1047600000223146D9F8200001F0C6F820B30378C2
:10477000C12B21D1391904F10F0E00E0144630F895
:10478000023F621C93B1AA4210D27E2B94BFDBB2CF
:104790003F23724501F8013BF0D108F1010899F877
:1047A00030305FFA88F843451446CDD800232046C0
:1047B0003B5505B0BDE8F0830020387005B0BDE87A
:1047C000F0830024F2E700BF90F831200AB1002006
:1047D000704738B504460D461146382207F0BEFC36
:1047E0004023012084F8313084F83300256238BD3D
:1047F000F0B50878202803D111F8010F2028FBD04C
:1048000051600878002851D02F282BD05C2820D068
:10481000A0F12204E4B21D2C1DD9DFF894E04E1C57
:1048200000247C28A0F12005374612D05E2D10D838
:1048300016F8010BA0F12205EDB2013478B32F2850
:1048400011D05C282EFA05F703D01D2DE9D8FD07FD
:10485000E7D50020F0BD164D25FA04F4E607DCD5B7
:104860000020F0BD00240F193E4625462F2002E00F
:1048700016F8010F01352028FAD02F28F8D0294446
:10488000196044B1394611F8013D2E2B01D0202B7F
:1048900008D1013CF7D1204610600120F0BD1F6017
:1048A0000F19EFE7FF2CF6DD0020F0BD1960F3E7EC
:1048B000010100352DE9F04F90F83330DE0783B069
:1048C00004465AD55D060E46934640F1B880D4E9B9
:1048D0000001D4E9042310EB0B0841F100094B451A
:1048E00008BF4245C0F0B180BBF1000F6ED0A146B9
:1048F000F9E806015D46276AD7F838340340C3F368
:10490000080A002B68D150EA010275D194F83120D1
:1049100051064CBFD7F83424E269A261D7F82C04C1
:1049200097F845E45B0A023A191802FA0EF21144AC
:10493000BAF1000F2CD1B5F5007F29D3D7F81C228E
:10494000914225D0B5F5806F5DD34FF0010808FA8C
:104950000EF8C3EB08034FEA5528984528BF984640
:1049600091423BD808EB01039A4237D207F5047015
:10497000019104F095F9019980BB94F832304FF021
:10498000FF3043F0020384F8323003B0BDE8F08F0B
:1049900007F50470002204F053F90028EDD0CAF5A1
:1049A0000078A84528BFA84600EB0A0142463046D9
:1049B00004F0B4FC42460023D4E9000180185941B8
:1049C000B5EB08054644C4E9000194D10025C5EBC8
:1049D0000B0003B0BDE8F08FA2699FE7D7F814027F
:1049E000036832461F694346B8470028C5D04FEADE
:1049F000482842460023DFE794F83320520610D5BA
:104A0000A269013289E7D7F8140203683246DB68ED
:104A100098470028B1D04FF4007200234FF400787B
:104A2000CAE738464A46A169019300F0ABFF40B29D
:104A30000028A2DB0CD0276AA269019B6EE790F8E0
:104A4000313018073FF543AF4EE7C0EB020B4BE7A1
:104A500094F8313013F0500FB9D18EE7F0B583B030
:104A600001220DF107010446D0E900678569FFF7CF
:104A700021FF012808BF9DF80700A56118BF4FF06E
:104A8000FF30C4E9006703B0F0BD00BF2DE9F04F6F
:104A900090F831E0856983B00446BEF1000F1BD069
:104AA000D0E90001994208BF904216461F463BD00C
:104AB00056EA070307D10023A3610120C4E9006778
:104AC00003B0BDE8F08F1EF0080F0AD0D4E904232C
:104AD000BB4208BFB24204D2A561002003B0BDE8CA
:104AE000F08F236A019393F845C494F833A00CF136
:104AF000090C5FFA8CFC16F1FF3247F1FF33CCF161
:104B0000200803FA08FB22FA0CF242EA0B02ACF18D
:104B1000200B23FA0BF31AF0400F42EA030205D0F0
:104B2000E3691A44A261C8E70120D7E710F1FF3911
:104B300041F1FF3A29FA0CFC0AFA08F84CEA080C91
:104B40002AFA0BFB4CEA0B0C6245534617D21EF0B7
:104B5000400F16BF019BE369D3F83434A36190463C
:104B600004F118094A46B8F1000FA6D0A169206ADD
:104B700000F008FF08F1FF380028F3D1ACE750EA55
:104B80000103E4D0CCEB0202E9E700BF2DE9F04FCE
:104B90000E4693B090F831100092054629B99A4616
:104BA00096F8313013F0500F07D1002085F831000E
:104BB00085F8330013B0BDE8F08F1C9B03F00303AE
:104BC000012B06D0022B00F00981002BEDD101232F
:104BD00000E002231C9A02F0080213430193009B99
:104BE000002B00F0FD8018460022514600F0CEFF59
:104BF00096F8313002904BB1D6E90023134305D02B
:104C000000220023C6E900230021B161B84A0AF15D
:104C10000E0382FB03121A44DB17C3EBE203DBB281
:104C20004FF00009039302335FFA83FB4C464F4673
:104C300020220AA93046FFF73DFE00283DD020285B
:104C4000B3D19DF828301A0666D4002C61D13268A1
:104C5000B1690791203A08920134E4B26BB3C02BDA
:104C600000F09380C12B62D0852BE1D13822002146
:104C7000284607F073FA9DF82C309DF8292085F816
:104C80003020D80603F0370258BF42F0080285F8FA
:104C900031203368316AB2696A62203B2962AB62B3
:104CA00096F83330C3F3801385F82C3020220AA9FC
:104CB0003046FFF7FFFD0028C1D11C9B99057FF509
:104CC00074AF019B9A077FF570AF009B002B3FF4F8
:104CD0006CAF5C450CD386E020287FF466AF24B926
:104CE0003268B1690791203A0892DCB2A3457AD9BB
:104CF00020220AA93046FFF7DDFD631C0028EBD116
:104D00003046B76900F0E4FA00283FF44EAFB761CF
:104D1000ECE75C45A2D29FE7B9F1000F9FD15C455B
:104D200038BF0024852B83D14FF001099EE7C7EBE4
:104D30000A085FFA88F8B8F10F0F28BF4FF00F0884
:104D400043463A4600990AA800F0F4FE00283CD0F9
:104D50004744FFB2BA457FF46BAF1C9B1B053FF580
:104D600024AF1C9B13F4884F40F0A08095F833309B
:104D70009F0700F19B801C9B5B053FF516AF1C9BBA
:104D8000580400F1B780012014E79DF82930019AFA
:104D900085F83320990703D542F0400385F8333076
:104DA000DDE90C23DDE91001C5E904230F9BEB616C
:104DB000009BC5E90201002BCFD09DF82B30534555
:104DC00005D04FF000094F4632E7814630E7BDF885
:104DD0002C30029A9342F4D1002729E70323F9E605
:104DE000009B029312E796F833303822C3F3801306
:104DF000002128460DF11C088DF8243007F0AEF98B
:104E0000039C336ACDF80CA098E8070004F101096F
:104E1000082485F831400AF11E0705F12404DDF865
:104E200000A02B625FFA89F984E80700FFB2002630
:104E300018460122414600F05FFD044600283FF479
:104E4000B4AE90F90030002BFFF6AFAE2022002167
:104E500007F084F9002E66D0012E54D0C6EB06135D
:104E60000F2FA3F11E034FF0C102394628BF0F21B7
:104E7000DBB2227051B1023409B204EB4101534458
:104E800013F8012B24F8022BA142F9D10136F6B216
:104E9000B34529D920224146286A00F047FD012860
:104EA0007FF483AE0F3FFFB2286AC2E795F8313036
:104EB00013F0110F7FF479AE1C9B5E057FF55FAF99
:104EC00095F833309C077FF570AE0022002328460A
:104ED000FFF7DCFD00283FF468AE284600F06CFACE
:104EE00000283FF462AE4EE7284600F0C1F961E6C3
:104EF00089888888D5E904232846FFF7C7FD00285C
:104F00007FF441AF51E6C0232370019B032263F07D
:104F10003F03627085F833309DF80C30E370BDF8C4
:104F20000830A380B2E7852323700E4B85F83090BC
:104F300084F801901B687BB10DF117020DF11A0185
:104F400006A89847BDF81810BDF81A209DF817302C
:104F500061812281237599E745F221236381E381F1
:104F6000638293E77C35FF1F2DE9F041044694B03E
:104F700094F83150039200208DF849008DF84A00D2
:104F80008DF84B0035B9984691F8313013F0500F39
:104F90000F4603D1002014B0BDE8F08113782F2B09
:104FA000154626D000261AE0039B1B782046002BCE
:104FB00034D0059A9DF810300096FFF7E7FD3422B3
:104FC00021460028E6D006A804F0A8F9204600F003
:104FD0004FF9039D84F8316084F8336006AF2946A9
:104FE00003AB04AA2046FFF703FC39460028DBD1B7
:104FF000D0E70135039529782F29FAD0D1B138228D
:1050000006A800213E6A07F0A9F84022012306AF56
:105010000E968DF849208DF84B30C3E79DF810307F
:10502000059ACDF8008039462046FFF7AFFD14B051
:10503000BDE8F081382220463D6A07F08FF8402312
:105040000120256284F8313084F83300A3E700BFE3
:1050500019B101F58961FFF787BF0846704700BFA6
:1050600090F8313053B930B591F8314014F0500414
:1050700083B00D4604D1204603B030BD00207047F8
:10508000D5E90045002504F01F042C4302D0184642
:1050900003B030BD00921A46FFF778FD03B030BD73
:1050A0008169F8B50446006A01B10131012200F0BE
:1050B00057FB012806462FD9012301461A46206ACC
:1050C00000F0A8FB074638B3A06994F8333030B33A
:1050D0005A0613D5421C964225D023F0400284F88C
:1050E0003320E36905E0206A00F056FCA0B1A06916
:1050F0002B465D1C834219462A46F4D34FF0FF32FB
:105100003146206A00F048FC30B1A16959B13246FD
:10511000206A00F041FC30B900273846F8BD43F062
:10512000400384F83330A6613846F8BD2DE9F04FCE
:1051300000F1240B06469BE8070087B00DF10C0830
:1051400088E807000027BA463C4600224146306AFC
:1051500000F0D2FB5FFA87F9054630B10378C02B27
:1051600051D0C12B4DD0852B09D096F8323043F069
:10517000010386F83230002007B0BDE8F08F3B4BCA
:1051800096F831201B6890F801A002F03702828067
:1051900083B10DF107020DF10A0102A89847BDF88D
:1051A0000A20BDF808309DF807106975AA812A8287
:1051B000EB816B82326A92F8103243F0010382F87D
:1051C0001032287800216A5CE30343EA540412FA9F
:1051D00084F40129A4B201F101010DD01F29F2D9F3
:1051E000CA4526D020224146306A00F09FFB0128A4
:1051F00007F10107A9D0B8E785280CBF04210221D7
:10520000E1E71846DEE796F8333013F0400F4378B5
:1052100014BF43F0020323F002034370D6E90423D2
:10522000C0E90223D6E90223F1694161C0E90623FE
:10523000C0E759460122306A00F05EFB002894D096
:10524000356A4480284603F02BFD00288DD005F5F3
:10525000047003F025FD002887D0D5F840040368CA
:105260009B699847002880D086E700BF7C35FF1FE8
:1052700090F8312092B138B590F8332011060FD450
:10528000056A0446284603F00BFD88B994F83230CD
:1052900043F0010384F83230002038BD012070470C
:1052A00002F07F0280F83320BDE83840FFF73EBFB0
:1052B00005F5047003F0F4FC0028E7D0D5F84004AD
:1052C00003689B6998470028E0D0012038BD00BFE3
:1052D0002DE9F04190F831305906044660D48068D9
:1052E000236AD3F83C341844B0F1806F02D3002015
:1052F000BDE8F0812046FFF7D3FE0028F7D0266AEC
:1053000096F81032DA074FD44FF0FF33002506F538
:105310000878C6F81C3286F8105229464FF40072FD
:10532000404606F01BFF226AA36992F84504D2F8B2
:105330002C14023B834001265F1816FA00F310D0AC
:10534000D2F8400403687919DB6942469847013571
:105350000028CCD0226A92F8453406FA03F3AB4217
:10536000EED894F831305B0615D494F8333063F0FE
:105370007F0384F83330D2F83C64D4E90223D4E9C3
:10538000040192194FF000077B4180197941C4E96B
:105390000223C4E904012046BDE8F041FFF768BFDD
:1053A000006A00F0BBFB9BE706F5047003F078FC95
:1053B0000028A9D19BE700BF90F833309A0718D591
:1053C000F0B5C56983B08DB103F04003044603F026
:1053D000FF0083B9A169002941D10195E161294606
:1053E000206A00F0EBFA30BB002000E0012003B09F
:1053F000F0BD00207047206AA16990F84534D4E9D7
:1054000002670933DBB216F1FF36C3F1200E47F114
:10541000FF3726FA03F207FA0EFE203B42EA0E029D
:1054200027FA03F31A430132B1B1013D6D1A01317C
:105430002A4401910ABBD4E9000194F8333063F0A7
:105440007F03C4E90201C4E9040184F83330204633
:10545000FFF70EFF03B0F0BD0195E161EAE702AA94
:1054600042F8040D206A00F08DFA40B20028BBDB40
:105470000AD1019D002DDED0B1E70023019900F093
:10548000C9F90028D7D1AFE74FF0FF32A169206AF0
:1054900000F082FA0028ECD1A6E700BF2DE9F04F1A
:1054A00090F8333083B09D07044600920AD494F8F4
:1054B000323043F0010384F832304FF0FF3003B054
:1054C000BDE8F08F1A07894600F10181009B002B8F
:1054D00000F011812146F1E80623DDF800800191FA
:1054E0004FF0010BCA46206AD0F838541540C5F376
:1054F000080945BBA169002900F0AE8094F833305B
:105500005B0640F1CD80D4E9026790F84524E36959
:105510000932D2B216F1FF3647F1FF37C2F1200E41
:10552000D64007FA0EFE203A46EA0E0627FA02F2A5
:10553000164333449942C0F0A6802046FFF7B0FDE1
:105540000028B4D0206AA669D0F82C7490F845E4FD
:105550006D0A023EE91906FA0EF63144B9F1000F60
:1055600073D1B8F5007F4DD2D4E90423D4E90067A4
:10557000B8F5007F454628BF4FF400759F4208BF2D
:10558000964234BF0122052200F5047003F058FB57
:1055900000288CD048442A465146A94403F0BEFE58
:1055A000B9F5007F00F08A8028460021D4E9002365
:1055B000D4E9046712184B419F4208BF9642AA449F
:1055C000C5EB0808C4E9002307D294F83310C4E9F6
:1055D000042361F07F0184F83310B8F1000F82D109
:1055E000D4E90201994208BF904278D3434B1B682B
:1055F000002B7ED094F83330009863F07F0384F85A
:1056000033305CE7B8F5806F2AD30BFA0EF35D1BDD
:10561000D0F81C224FEA5823AB4228BF2B469142B8
:105620004FEA432508D8CE18B24205D24FF0FF32D8
:1056300080F81092C0F81C22D0F814020668524676
:10564000366AB0470028AFD131E7C9F50075454546
:1056500028BF4546012297E7E669BEB1A66173E718
:10566000D0F81C32994222D0D0F814020368524676
:10567000DB69984700283FF41AAF4FF4007000210F
:105680004FF4007592E74E1CA6615DE72046FFF7D8
:1056900007FD00283FF40BAFA669E661206A53E7D7
:1056A000019A00F06FF900287FF44CAF45E74FF006
:1056B000FF3380F81092C0F81C32D5E7206A00F55D
:1056C000047003F0EDFA00287FF46EAFEFE6D0E946
:1056D0000423FFF7DBF900283FF4E9AEF6E694F87F
:1056E0003310009861F07F01C4E9022384F833107D
:1056F000E5E60098E3E6D4E9002371E77C35FF1F77
:1057000038B50C46D0F82414154601EBD41100F539
:105710000470002203F094FA40B1A400C4F308041A
:1057200003595A1C04D02B60012038BDFF2038BD1E
:10573000002038BD38B50C46D0F82414154601EBCE
:10574000D41100F50470012203F07AFA034628B15F
:10575000A400C4F3080401201D5138BD38BD00BFAA
:105760002DE9F84F804691468B46002944D08F1E84
:10577000D8F830349F423BD207F00705012303FAE3
:1057800005F5EDB2C7F3C80A3E463C46D8F82C14DE
:10579000002201EB1431404603F052FAC0B110F878
:1057A0000A100AE04A452AD0A74210D0D8F830247F
:1057B000944217D213F0FF050CD001340D424FEA8A
:1057C0004503A4EB0602EDD0A7422646EED1012008
:1057D000BDE8F88F0AF1010ABAF5007F4FF0010524
:1057E000DDD101E0002634464FF0000A0125CDE767
:1057F0000027BA460125C7E7D0F82074B8E7BBF107
:10580000000F04D1B9F1010F08BFC8F82064B01C23
:10581000BDE8F88F2DE9F04702398046D0F8300412
:1058200015468A18824238D89A46D8F82034BAF1F8
:10583000000F35D1994238BFC8F8201401F0070491
:105840000122D8F82C3402FA04F4E4B203EB113943
:10585000C1F3C806012249464046914403F0F0F9DD
:10586000D8B1871900F5007017F8012B224214BF38
:1058700001260026564582EA04024FEA44040CD071
:10588000013D07F8012C15D014F0FF04EED1B84209
:1058900026464FF00104E7D1DCE70020BDE8F087A1
:1058A0009942CBD89A42C9D9824228BF0022C8F86F
:1058B0002024C3E70120BDE8F08700BF70B582B0A7
:1058C00002AE054646F8041D0024D5F8303401998F
:1058D0000133994202D9002002B070BD32462846F9
:1058E000FFF70EFF40B20028F5DB04F10104ECD114
:1058F000204602B070BD00BFF8B50E4696E82800FD
:10590000D0F83814D0F82C4490F845742940023B64
:1059100004EB5121BB40194400F5047003F090F9E9
:1059200018B17368C3F308031844F8BD70B54C6828
:105930000D46A318D0F838146B6090F845340C402D
:1059400009332244DBB222FA03F406463CB12B7A37
:105950003BB12B6801332B60013C002CF7D10120B7
:1059600070BDD6F8303429680133994202D94FF01E
:10597000FF3070BD2A463046FFF7C2FE40B2012814
:10598000EAD070BDD0F8303401338B4201D2FF2011
:105990007047FFF7B5BE00BF01290DD9D0F83034EC
:1059A0000133994210B403D900205DF8044B7047CD
:1059B0005DF8044BFFF7BEBE00207047F0B50C4603
:1059C00083B005460E46D5F8303401339C4202D9E7
:1059D000002003B0F0BD01AA21462846FFF790FE43
:1059E00047B2002FF4DB012CF2D9D5F83034013363
:1059F0009C42EDD8002221462846FFF79BFE002856
:105A0000E6D0019B01349C420BD1002FDBD13B46F9
:105A1000A21B31462846FFF7FDFE0028D8D003B070
:105A2000F0BDA21B314600232846FFF7F3FE0028F5
:105A3000CED0019C002FCCD02646C4E7F8B5044652
:105A400000234FF0FF3600F50477C0F840144160A2
:105A5000C0F814121546384684F84434237084F88C
:105A60001032E660C4F81C621A46194603F0E8F8E2
:105A7000042D0CD8064650B15DB905222649F01C0C
:105A800007F06CFB18B996F86C30092B19D0002080
:105A9000F8BD6B1E00EB031393F8BE2112F07F02DA
:105AA000F5D193F8C231002BF1D000EB0515384643
:105AB000D5F8B651294603F0C3F806460028DCD1D4
:105AC000E5E7336D2B44C4F82434736DC4F82834EF
:105AD000B36D1D44C4F82C54F36DC4F83034336EE8
