:10000000F8FF0220990100008968000041680000A3
:10001000416800004168000041680000416800003C
:1000200041680000416800004168000089680000E4
:100030008968000041680000157E0000197F0000FB
:1000400089680000896800008968000089680000EC
:1000500089680000896800008968000089680000DC
:1000600089680000896800008968000089680000CC
:1000700089680000896800008968000089680000BC
:1000800089680000896800008968000089680000AC
:10009000896800008968000089680000896800009C
:1000A000896800008968000089680000896800008C
:1000B00089680000896800008968000005830000E5
:1000C0008968000031840000896800005D850000B7
:1000D0008968000055860000896800008968000072
:1000E000896800008968000089680000896800004C
:1000F000896800008968000089680000896800003C
:1001000005800000198000002D8000004180000063
:10011000896800002D6E0000896800008968000071
:10012000896800008968000089680000896800000B
:1001300089680000896800008968000089680000FB
:1001400089680000896800004D8700008968000008
:1001500045880000896800008968000089680000FF
:1001600089680000896800008968000089680000CB
:1001700089680000896800008968000089680000BB
:1001800089680000A55A000089680000896800009D
:100190008968000089680000584B4CF2205210B565
:1001A0001A804DF628121A8000BF00BF06F070FBBF
:1001B000534B4FF030621A60524A9A60524ADA60EA
:1001C000524B4FF470021A60514A136813F4807353
:1001D00004D150490B604FF4A85313604E4B1A786A
:1001E000110703D51A7842F008021A704B4B4C499C
:1001F0002A221A704B4A4C4B8B4204D252F8040FFD
:1002000043F8040BF8E7494B494900228B4202D2DC
:1002100043F8042BFAE74749474A002352F82300E2
:1002200041F823000133662BF8D1444B444A802126
:1002300003F8011B9342FBD1424B3E4A1A60424BEA
:100240008A221A70A3F5805324225A70A0221A70B1
:100250009A799207FCD59A79D406FCD43B4A9379D3
:1002600003F00C03082B394BF9D103221A714622F3
:100270005A719A799006FCD5344A9179334B4906E4
:10028000FBD5334A4FF08271116009215160202261
:100290001A709A7902F00C020C2AFAD12D4B2E4AD0
:1002A0001A602E4B2E4A1A6000225A60072243F829
:1002B000042C2C4AC3F80C2D62B606F049FC154BF1
:1002C0001B68DA0705D5284806F072FB274B284A39
:1002D0001A60284B1B785B0609D5244C244B2268F6
:1002E0009A4204D1204806F063FB0023236009F002
:1002F00001F806F0D3FA07F047FFFEE70E200540AD
:1003000030800440823F04000100002B88ED00E0B3
:1003100010D0034014D0034002D0074000E0074053
:100320008011FF1F20090100F806FF1F8011FF1F29
:100330001C3EFF1F0002FF1F0000000000E400E061
:1003400056E400E008ED00E00050064000400640A2
:100350004480044004800440C010050014E000E024
:10036000BFD4010000002020E150C55F1CE0034025
:10037000A5C3945A00F00740FFFFFFFFFFFFFFFFF8
:10038000FFFFFFFFFFFFFFFFFFFFFFFFFFFFFFFF7D
:10039000FFFFFFFFFFFFFFFFFFFFFFFFFFFFFFFF6D
:1003A000FFFFFFFFFFFFFFFFFFFFFFFFFFFFFFFF5D
:1003B000FFFFFFFFFFFFFFFFFFFFFFFFFFFFFFFF4D
:1003C000FFFFFFFFFFFFFFFFFFFFFFFFFFFFFFFF3D
:1003D000FFFFFFFFFFFFFFFFFFFFFFFFFFFFFFFF2D
:1003E000FFFFFFFFFFFFFFFFFFFFFFFFFFFFFFFF1D
:1003F000FFFFFFFFFFFFFFFFFFFFFFFFFFFFFFFF0D
:10040000FFFFFFFFFFFFFFFFFFFFFFFFDEF9FFFF23
:1004100010B5054C237833B9044B13B10448AFF33E
:1004200000800123237010BD8011FF1F0000000019
:100430001C090100084B10B51BB108490848AFF36F
:1004400000800848036803B910BD074B002BFBD0A0
:10045000BDE81040184700BF000000008411FF1FD6
:100460001C0901008011FF1F0000000038B50D4677
:1004700004460221E8B206F0F5FA0A204FF47A7138
:100480000022012360602560A1602275236120465F
:1004900038BD00BF38B505460C46C8B2022106F08B
:1004A000E1FA2C6038BD00BF08B5007806F0CCFA40
:1004B00000280CBF0220002008BD00BF70B5184EF8
:1004C00082B03368009304460078009D06F0BCFAC1
:1004D00090B92369012B16D0E2686368AD1A9D427A
:1004E00006D9237DB3B1A3689D428CBF03200220AF
:1004F0000023236102B070BD00200123E06020755D
:10050000236102B070BD33680193019BE360002357
:100510002361EFE70120002320752361EAE700BF94
:10052000AC39FF1F806C7047406C7047ABB1B1F5C0
:10053000805F12DA2DE9F0411D460F46561EC1F5C7
:1005400080580024E01906F039F90134A54206F874
:10055000010F04D12846BDE8F081002070474445D2
:10056000F0D12046BDE8F081ABB1B1F5805F12DA81
:100570002DE9F0411D460F46561EC1F58058002456
:10058000E01916F8011F013406F032F9A54204D132
:100590002846BDE8F081002070474445F0D1204650
:1005A000BDE8F0810D2170B506460160002006F01F
:1005B0001FF935460124204615F8011F013406F0C5
:1005C00017F9042CF7D121464023321D3046FFF79E
:1005D000CBFF012070BD00BF036B013B032B17D87D
:1005E000DFE803F013100D02142383644369013B19
:1005F000052B26D8DFE803F0211D1915120F0A2359
:100600008364F3E705238364F0E702238364EDE763
:1006100000238364EAE70D4B436470470C4B43644B
:1006200070474EF660234364704747F2305343648B
:10063000704743F698234364704742F21073436453
:10064000704741F288334364704700BFE093040071
:10065000C0D40100F8B50D46064617460FCD341D2F
:100660000FC40FCD0FC40FCD0FC495E80F0084E861
:100670000F002FB930460121FFF7AEFF0846F8BD45
:100680003046FFF78FFF01463046FFF7A5FF0846CB
:10069000F8BD00BF70B50646002006F08FF835465D
:1006A00030700124204606F089F80134042C05F846
:1006B000010FF7D133680D2B01D0002070BD21460A
:1006C0004023321D3046FFF731FF3046FFF784FFED
:1006D000012070BD03680D2B10B5044601D0FFF753
:1006E000D9FF201D10BD00BF002170B54022044677
:1006F00040F8041B09F0EAF92046FFF7CBFFD8B910
:100700000E4A6060034603CA04F118051678A0611A
:100710000A22A360E3606361226120462E72696051
:10072000A362E36223636363A363E3632364FFF76A
:1007300053FF2046FFF736FF204670BD50DF000014
:1007400005F0F4BFF0B442F20C0100F500570022AE
:1007500042F2040642F2080503464250441838604B
:1007600042F2140100F580578751585142F21807A0
:1007700042F21C0642F220054250C821C251825169
:1007800042552171F0BC70472DE9F04F89B01446F5
:1007900001919DF8042002948346079210469DF82B
:1007A00008201D460121144606F05CF903959DF8CA
:1007B0000C20049420460121154606F053F99DF8BB
:1007C0004820059528460121164606F04BF99DF86C
:1007D0004CA006963046012106F044F99DF8589049
:1007E0005046012106F03EF99DF85C804846012103
:1007F00006F038F99DF860704046012106F032F9A4
:100800009DF864603846012106F02CF99DF8685087
:100810003046012106F026F99DF86C40284601215A
:1008200006F020F92046012106F01CF9079A002164
:10083000104606F003F90498002106F0FFF8059829
:10084000002106F0FBF80698002106F0F7F8504664
:10085000002106F0F3F84846002106F0EFF8404684
:10086000002106F0EBF83846002106F0E7F83046A4
:10087000002106F0E3F82846002106F0DFF842F2F6
:10088000280A2046002106F0D9F842F22C09019BE3
:100890004BF80A3042F23008029B4BF8093042F222
:1008A000340C039B4BF8083042F2380E129B4BF885
:1008B0000C3042F23C07139B4BF80E300BF50156FF
:1008C000149B4BF8073042F24405159B336042F20B
:1008D0004804169B4BF8053042F24C00179B4BF82E
:1008E000043042F25001189B4BF8003042F254029F
:1008F000199B4BF801301A9B4BF802301B9B42F2BC
:1009000058024BF8023009B0BDE8F08F42F22403E0
:10091000064AC158064B00F5005001290CBF11468C
:1009200019460C303B2207F001BB00BFB11000009C
:10093000150D000010B5044600F500500C3007F00E
:100940003FFB42F22802044BA25C53F832300122F2
:1009500083F8802010BD00BFE40301003F299BBF46
:1009600042F21C020123002381501846704700BF49
:1009700007299BBF42F2200201230023815418461D
:10098000704700BF38B542F2040504464FF4805268
:10099000405905F0A1FC04F5005361591A6819602B
:1009A000625138BD42F22403C15070472DE9F04F27
:1009B0008BB0054642F21801059042F2080242F25D
:1009C00020002C46AA58285C6D58214601F5005994
:1009D00042F2140301F5015E4946E658BA4C02EBB7
:1009E000C51CCA460A46013065460AF1300A38324B
:1009F000012340F30007C84640F3400003FA06F61F
:100A000005F60205CDF804A0039201F1340A01F1C4
:100A100028020492FFB2C0B20CF1020CF6B209F146
:100A20001C090EF1180E08F12C08CDF808A00022C0
:100A30000095A9E0DEF800B000991CF802AC11F8AE
:100A4000021CA14D5FFA8BFB06EA0A0A54F83BB080
:100A50008BF80031D8F800B05FFA8BFB1AEA070F69
:100A600055F83BB0019D14BF8BF880308BF80031F6
:100A7000D5F800B0029D5FFA8BFB314054F83BB0D3
:100A8000394214BF8BF880308BF80031D5F800B0B4
:100A9000039D5FFA8BFB10EA0A0F54F83BA014BFCA
:100AA0008AF880308AF80031D5F800A05FFA8AFA17
:100AB000084254F83A1014BF81F8803081F80031B0
:100AC0009EF8001054F8311081F88030D9F80010E9
:100AD00002F1010A514563D0DEF800B000991CF81C
:100AE00001AC11F8011C784D5FFA8BFB06EA0A0A8B
:100AF00054F83BB08BF80031D8F800B05FFA8BFBAC
:100B00001AEA070F55F83BB0019D14BF8BF88030EF
:100B10008BF80031D5F800B0029D5FFA8BFB3140B5
:100B200054F83BB0394214BF8BF880308BF8003159
:100B3000D5F800B0039D5FFA8BFB10EA0A0F54F85A
:100B40003BA014BF8AF880308AF80031D5F800A0A5
:100B5000009D5FFA8AFA084254F83A10DFF868A15B
:100B600014BF81F8803081F800319EF80010023205
:100B700054F831100235802A81F880300CF1020CD3
:100B800000954FF0010113D0D9F8001091427FF485
:100B900051AF0499097854F8311081F8803049E751
:100BA0000499494D097855F8311081F8803093E760
:100BB000059D0598059F42F2540242F21803AA5C73
:100BC0005AF8322082F88010EA5842F24403D607DD
:100BD000EB58DBB242F218025AF833304CBF83F8BC
:100BE000801083F8001142F248038258C3580598D8
:100BF000DBB212F0020F54F833304FF0010214BF91
:100C000083F8802083F8002142F24C0342F218025C
:100C1000C35882580598DBB212F0040F54F83330F1
:100C20004FF0010214BF83F8802083F8002142F2C4
:100C3000500342F21802C3588258DBB212F0080F78
:100C400054F833304FF0010214BF83F8802083F84A
:100C5000002142F254021D4BBA5C42F2280654F8BD
:100C60003220012582F800510FCBBE5D54F836606A
:100C700086F800510AAD05E90F0042F2140442F271
:100C800018013A597B5805EB82000133DD0650F814
:100C9000100C14D5059D013200236B5051070AD565
:100CA000059E06F5005142F2080209683351B15021
:100CB0000BB0BDE8F08F2A510BB0BDE8F08F7B5030
:100CC0000BB0BDE8F08F00BFE40301005CDF000063
:100CD00038B500F500540C340546204607F070F98D
:100CE0002846FFF763FE002803DB084B421E9A42AA
:100CF00000D938BDC0EB00108200013A232AF8D990
:100D000020460349BDE8384007F010B94744440481
:100D1000150D000008B572B60248FFF7D9FF62B69C
:100D200008BD00BFA416FF1F2DE9F04F8BB007468A
:100D3000059042F2080242F2180042F2140342F215
:100D4000200107F50059BA583858FD58795CC54C50
:100D500007F5015E4F4602EBC01CCA463A46013118
:100D600060460AF1300A3832012341F30006C846D2
:100D700041F3400103FA05F500F60200CDF80CA09E
:100D8000029207F1340A07F128020492F6B2C9B2BE
:100D90000CF1020CEDB209F11C090EF1180E08F16C
:100DA0002C08CDF804A000220090BBE0DEF800B0D3
:100DB00000981CF802AC10F8027CAA485FFA8BFB82
:100DC00015EA0A0F54F83BB08BF80031D8F800B0A0
:100DD0005FFA8BFB08BF4FF0010A50F83BB0039855
:100DE00018BF4FF0000A3D420CBF012700271AEA46
:100DF000060F14BF8BF880308BF80031D0F800B0AC
:100E000001985FFA8BFB374254F83BB014BF8BF864
:100E100080308BF80031D0F800B002985FFA8BFB7D
:100E200011EA0A0F54F83BA014BF8AF880308AF800
:100E30000031D0F800A05FFA8AFA394254F83A70CB
:100E400014BF87F8803087F800319EF8007054F89E
:100E5000377087F88030D9F8007002F1010A5745E1
:100E60006CD0DEF800B000981CF801AC10F8017CE2
:100E70007C485FFA8BFB15EA0A0F54F83BB08BF8FD
:100E80000031D8F800B05FFA8BFB08BF4FF0010AC1
:100E900050F83BB0039818BF4FF0000A3D420CBF1A
:100EA000012700271AEA060F14BF8BF880308BF851
:100EB0000031D0F800B001985FFA8BFB374254F84C
:100EC0003BB014BF8BF880308BF80031D0F800B005
:100ED00002985FFA8BFB11EA0A0F54F83BA014BF8B
:100EE0008AF880308AF80031D0F800A000985FFAC4
:100EF0008AFA394254F83A70DFF868A114BF87F8CB
:100F0000803087F800319EF80070023254F8377054
:100F10000230802A87F880300CF1020C00904FF0EC
:100F2000010713D0D9F8007097427FF43FAF0498BF
:100F3000077854F8377087F8803037E704980778D7
:100F4000484850F8377087F880308AE7059842F2B1
:100F5000540242F21803825C5AF8322082F8807000
:100F6000C25842F24403D607C3580598DBB242F296
:100F700018025AF833304CBF83F8807083F8007140
:100F800042F248038258C3580598059FDBB212F01D
:100F9000020F54F833304FF0010214BF83F8802061
:100FA00083F8002142F24C0342F21802C3588258DF
:100FB0000598DBB212F0040F54F833304FF0010201
:100FC00014BF83F8802083F8002142F2500342F2DC
:100FD0001802C3588258DBB212F0080F54F83330AD
:100FE0004FF0010214BF83F8802083F8002142F201
:100FF00054021D4BBA5C42F2280654F832200125F7
:1010000082F800510FCBBE5D54F8366086F800516F
:101010000AAD05E90F0042F2140442F218013A59F0
:101020007B5805EB82000133DD0650F8100C14D517
:10103000059D013200236B5051070AD5059E06F528
:10104000005142F2080209683351B1500BB0BDE8BB
:10105000F08F2A510BB0BDE8F08F7B500BB0BDE88C
:10106000F08F00BFE40301005CDF000038B500F53D
:1010700000540C340546204606F0A2FF2846FFF730
:1010800053FE002803DB084B421E9A4200D938BDAC
:10109000C0EB00108200013A232AF8D92046034908
:1010A000BDE8384006F042BF47444404B110000098
:1010B00008B572B60248FFF7D9FF62B608BD00BF97
:1010C000A416FF1F38B500F5805241F204038025B5
:1010D000202115600446C1504FF48052002108F0D1
:1010E000F5FC204638BD00BF01F00F014FF48052DF
:1010F00008F0ECBC2DE9F04F83B00C9C02EB040926
:101100004A4530DA154698460F9A0E9B03EBC21AF1
:10111000C5EB0A0301930D9B83460E4608EB0307BC
:1011200047451DDD019BEB180BEB030A444606E027
:1011300001349AF800000AF8800BA74210D022462A
:101140002946304601F072F80028F1D1224629469E
:10115000304601F033F80134A7420AF8800BEED193
:1011600001354D45DCD103B0BDE8F08F002070475C
:10117000083003F007BB00BF083003F009BB00BF15
:1011800000B583B002AB012203F8011D08301946F7
:1011900003F0FEFA03B05DF804FB00BF30B51C4C51
:1011A00004F58C658BB0284604F094FC10B900203F
:1011B0000BB030BD04F23C40256003F065F801211E
:1011C000204604F041F9E0B1114C04F23C452846B8
:1011D000214603F0EBF80028E9D094F83C3413F0F2
:1011E000700FE4D00B4B0C4A1D60002429462346A7
:1011F00001A88DF804408DF8054003F07BF80BB092
:1012000030BD0146204604F01FF90028DCD1CEE7AE
:10121000EC11FF1F3439FF1F58E700002DE9F04F94
:101220008C4D2B68ADF58B5D13F0010485B000F09B
:10123000DD81894C2368D90740F1C681874C23683A
:10124000DA0740F1B781DFF854820CAD5AA8FFF7F6
:1012500039FF0AA800F060FF0EA800F05DFFD8F883
:10126000003045F8103C55F8107C7D4E02F03CFFF4
:1012700004467C48FFF72EFA3388026BD0F804B09E
:101280000492002B00F08E81DFF8009299F808900C
:10129000B9F1000F00F0BA81734BA3FB07239B0643
:1012A00055BF724B724BDFF8F8A1DFF8F8A120228E
:1012B000BBF1010F1A60204600F05C81BBF1020F08
:1012C00000F0F28004F0B0FE8146204604F0CEFE2D
:1012D00012AC03464A462046664909F019F933889C
:1012E000002B00F00681644B64491A680968BA1A39
:1012F0008A42C0F0FE80624E3268002A00F0BB8154
:10130000DFF884B1DBF80020002A40F0C2815D489C
:10131000059301F023FC059B002840F0F582DBF8E3
:101320000020594D002A40F0E6822F605749554869
:10133000059301F023FC059BDFF8509199F80850C4
:10134000002D00F031824F4801F076FC012800F0BA
:101350008A824F492246534608680EA901F06AF96D
:101360000EA800F085FFC0F17F0000EBD0740EA83E
:1013700000F080FFC0F11F0000EBD070641045103A
:10138000404801F03BFC01460AA800F0DBFF3D4865
:1013900001F044FC0646002840F041820EA800F00F
:1013A00067FF07460EA800F065FF334632460EA9D8
:1013B000019002945AA800970395FFF79BFE0AA894
:1013C00000F056FF04460AA800F054FF0094019074
:1013D00003960296334632460AA95AA8FFF78AFEB8
:1013E000049B002B00F0B78099F80830002B00F028
:1013F000B2800DF1680A16AB5046049300F08CFEE3
:10140000049924480D2203F0E3FA04982E2109F0F0
:10141000A5F808B100230370049A1F485146002321
:1014200001F008F9504600F039FF504600F020FF67
:101430000446504600F01EFF0023019000945AA875
:10144000039302931A465146FFF754FE504600F0AC
:101450003BFF80E0A016FF1F9016FF1F6016FF1FC6
:101460005C16FF1F6437FF1FD34D621084F00F40DE
:1014700088F00F4098E700005816FF1F9416FF1FD2
:10148000B411FF1FB811FF1F9816FF1F6416FF1F2E
:101490005416FF1F6C16FF1F3037FF1FAC39FF1F9C
:1014A00060E7000068E7000004F0CCFDA34AA44B0D
:1014B0000928CCBF93469B46204604F0C3FD8146D5
:1014C000204604F0D3FD044604F0ACFE9D4B9E4A3A
:1014D0000094002814BF1846104612AC4B460190E9
:1014E0005A462046994909F013F83388002B7FF4B7
:1014F000FAAE97492246534608680EA901F09AF8B9
:1015000000215AA8FFF7F0FD0EA800F0B1FE064634
:101510000EA800F0AFFE05460EA800F0A9FE044696
:101520000EA800F0A7FEC4F17F03C0F11F0003EB7B
:10153000D37300EBD0705A10401000230390029236
:1015400000961A4601950EA95AA8FFF7D3FD049BF1
:10155000002B40F0CA805AA97E48FFF713FA0EA864
:1015600000F0B2FE0AA800F0AFFE0DF58B5D05B0ED
:10157000BDE8F08F04F066FD704B714A0928CCBFBE
:1015800099469146204604F05DFD8346204604F0CE
:101590006DFD12AC00904A465B4620466E4908F04D
:1015A000B7FF9CE6FFF7FAFD00283FF475AE02F0A6
:1015B000ABFD71E6204605F089F9DFF8E4810028EB
:1015C00040F070810CAD41E6204605F07FF900281F
:1015D0003FF434AE614801F0D3F9204605F07CF9C0
:1015E0005F4A60495D4807F073FE27E6284605F02C
:1015F0006DF900283FF41DAE5B4B5C4A1C72284617
:101600005C721C711A6005F067F912E65848FEF723
:1016100089FF82465648FEF787FF564B1860564BA7
:101620000593BAF1000F3ED10DF1680A049B002B1F
:1016300040F04581514B3088D3F8009006F0A0FD72
:1016400000EB400300EB830009EB00024C495046DD
:1016500008F05EFF4B4B4C4819685246002302F0DD
:1016600049FE002840F03F8100233380059A13880B
:101670000133138010E6D8F8002045F80C2CDFF871
:1016800024B155F80C2C3260DBF80020002A3FF41E
:101690003EAE32480593BD1A01F0B2FA8542059B71
:1016A0003FF635AE48E61A8892FBFAF30AFB132A96
:1016B000BAF1000FB8DC0DF1680A4B465046334AC8
:1016C00033498DF868908AF8019002F013FE0028E3
:1016D000ACD0DFF8B8C0BCE80F00D646AEE80F00CB
:1016E000DCF80030AEF80030B4E716A800F014FDC6
:1016F000284B29491A681AAB1846049308F008FFCA
:10170000049A264816A9002300F094FF16A800F0BA
:10171000C5FD16A800F0ACFD044616A800F0AAFD11
:101720000023019000945AA816A9039302931A4625
:10173000FFF7E0FC16A800F0C7FD0CE7B8010100B8
:1017400070E7000074E70000A4020100B0E70000A9
:101750005416FF1FA416FF1FA4E70000B811FF1FB7
:10176000F806FF1F952900006416FF1F74DF0000B4
:101770006437FF1F9416FF1F5016FF1FE811FF1F4D
:101780008CE700003439FF1F6C16FF1F78E700005C
:101790002816FF1F9C16FF1FBCE700003037FF1FF5
:1017A000AC39FF1F9816FF1FD8F800201A92594A2B
:1017B0001A9910681F6022463468574F35605346A7
:1017C0000C1B0EA93C60CBF8005000F033FF2946FB
:1017D0005AA8FFF789FC0EA800F04AFD07460EA89C
:1017E00000F048FD06460EA800F042FD04460EA893
:1017F00000F040FDC4F17F03C0F11F0000EBD0708A
:1018000003EBD37340105B10039002930097019693
:101810002B462A460EA95AA8FFF76CFC9BE60AA89D
:1018200000F026FD07460AA800F024FD00263346F6
:1018300032460AA90097019003965AA80296FFF72C
:1018400059FC0EA800F014FD07460EA800F012FD8A
:101850000097019003950294334632460EA95AA888
:10186000FFF748FCBCE5002022460EA953466071F4
:101870002A4800F0DFFE2A4801F0E0F904460EA8ED
:1018800000F0F6FC00EBD0732548A4EB630401F0F4
:10189000D7F905460EA800F0EDFC00EBD070A5EBE3
:1018A00060056DE50CADD8F800201E4B45F8142CF2
:1018B00055F8142C1A60204605F00EF8C6E4059B76
:1018C0001A883388B2FBF3F103FB1123164A174938
:1018D00012689BB203EB430003EB80031A445046AB
:1018E00008F016FEB6E612490D4801F05BF8002834
:1018F0007FF4BCAEB8E60A48059301F081F92A6886
:10190000059B1044286011E50A48059302F0BCFCD1
:10191000059B11E55416FF1F9C16FF1FC837FF1FBC
:10192000B811FF1F5816FF1FE811FF1F8CE70000BA
:101930006416FF1F6C16FF1FF0B5344B344D196849
:10194000344A9BB00024234606A804958DF818401D
:101950008DF819408DF814408DF844408DF84540BD
:101960008DF840400F9502F0C5FC00283FD02A4E6C
:10197000306820B107F0EEFC284B34601C80264F05
:10198000264D23E011A803F023F82549D8B1684675
:1019900008F05AFEB8B13468204654B32B8801339E
:1019A0009BB203EB430103EB81012B8008F0A6FB04
:1019B0002B88386003EB430403EB84040D3C694639
:1019C000204408F0ABFF11A802F05EFC002206A93B
:1019D00011A802F095FE0D2269460028D2D1306888
:1019E00010B10E4B198859B906A802F04DFC1BB076
:1019F000F0BD01230D202B8007F0A4FC3860DEE74A
:101A0000084B0D2208F0B4F8EEE700BF3439FF1F91
:101A100074DF000058E70000E811FF1F5C16FF1F8D
:101A2000C0E7000049A6000070B500249AB0234624
:101A30000FA8344A34498DF83C408DF83D4002F0FF
:101A400059FC90B1314E35683DB1284600F000FD9B
:101A50002846182106F0A6FB34602D48FEF73AFE12
:101A60002C49143008F0F0FD20B92B4B2B4A1A609A
:101A70001AB070BD2A4B2B4D1968224A04950024D8
:101A8000234606A88DF818408DF819408DF81440AB
:101A900002F030FC0028E8D08DF844408DF8454035
:101AA0008DF840400F950DE00FA800F0E7FE1848B4
:101AB000FEF710FE6946143008F0C6FD90B111A87B
:101AC00002F0E2FB06A9002211A802F019FE694605
:101AD0000028E9D133688BB10F4A136006A802F0E1
:101AE000D3FBC5E7182006F057FB044600F0A8FC1E
:101AF00020460FA9346000F0CBFCEBE7064B074A09
:101B00001A60EBE7CCE700002816FF1FE411FF1F67
:101B10006437FF1F50DF00005416FF1F9C11FF1F8A
:101B20003439FF1F74DF00002DE9F04102F0DCFAC8
:101B3000604C07466048FEF7CDFD2378C66B002B4E
:101B400069D15E4D2B68013B032B79D8DFE803F0A8
:101B50005844330202F0C8FA07465748FEF7BAFD68
:101B6000C66B5748FEF7AAFC01286DD05548FEF712
:101B7000A5FC012868D05448FEF7A0FC012863D0DA
:101B80005248FEF79BFC01285ED02378EBB938461B
:101B900004F04AFA0446304604F046FA844208D17A
:101BA000384604F063FA0446304604F05FFA844293
:101BB0000BD0BDE8F0814548FEF780FC0128F8D144
:101BC0004248FEF77BFC0028FAD102232B604048F4
:101BD000BDE8F041FEF79ABE3C48FEF76FFC0328D3
:101BE000034651D03648FEF769FC012852D03248EE
:101BF000FEF770FD237853B3BDE8F041FFF70EBB4D
:101C0000002001F095FD0028D3D102232B60BDE810
:101C1000F041FFF709BF384604F006FA05463046A2
:101C200004F002FA85428CD1384604F01FFA0546CA
:101C3000304604F01BFA854283D10023237080E7ED
:101C400002232B60BDE8F08101232370BDE7846B84
:101C5000304604F0E9F98046204604F0E5F9804575
:101C60001DD0384604F0E0F90646204604F0DCF9C1
:101C70008642C1D1384604F0F9F90646204604F000
:101C8000F5F98642B8D104232B601148BDE8F04134
:101C9000FEF750BE2860BDE8F04101F049BD304676
:101CA00004F0E4F90646204604F0E0F98642D8D173
:101CB000A2E700BF4837FF1F6437FF1FFC06FF1F66
:101CC000B037FF1F4C37FF1F0037FF1F1837FF1FAC
:101CD000A416FF1F2DE9F041ADF5825D84B012A876
:101CE0004C4DFFF7EFF90DAB09A8059300F014FA7E
:101CF0002B680793484A49490598079E08F008FC55
:101D0000059A474809A9002300F094FC09A800F0AF
:101D1000AFFA804609A800F0ADFA074609A800F01E
:101D2000A7FA044609A800F0A5FAC4F1800303EB62
:101D3000D3735A10C0F10F00002309A90292039037
:101D40001A46019712A8CDF80080FFF7D3F935485D
:101D5000FEF7C0FC3449826A059808F0D9FB059A61
:101D60002F4809A9002300F065FC09A800F080FABB
:101D7000074609A800F07EFA044609A800F078FAA0
:101D8000C0F1800000EBD0700023401011220290BF
:101D900009A912A8039200971A460194FFF7AAF91D
:101DA00012A92248FEF7EEFD214804F079FA3C2002
:101DB00004F084FA642004F07DFE04F069FA02283D
:101DC00014BF1C481C481B2105F0BEFE1B4806F032
:101DD00041F91448FEF77EFC806804F0FBFDFFF734
:101DE000DDF9A0B9FFF720FE2B6808930898801B47
:101DF000B0F5FA6F03D2C0F5FA6004F05BFE09A8F3
:101E000000F062FA0DF5825D04B0BDE8F081FFF7E5
:101E100093FDE7E7AC39FF1FD4E70000DCE70000E3
:101E20003037FF1F6437FF1FE8E70000A416FF1FCD
:101E300019410000F8E7000014E800002407FF1F24
:101E400030B51B4891B0FEF745FC05460FCD6C46FA
:101E50000FC40FCD0FC40FCD0FC495E80F0084E859
:101E60000F001448FEF720FB022810D01248FEF79E
:101E70001BFB022813D00F48FEF716FB02280E4862
:101E8000F9D0FEF711FB0228F5D011B030BD0023C8
:101E90006946012206480A93FEF7DCFBEBE70123C3
:101EA00069461A4602480A93FEF7D4FBE3E700BFEF
:101EB0006437FF1FB037FF1F0037FF1F00B5ADF5B8
:101EC000805D83B06846FFF7FDF81148FEF7ECFA35
:101ED000022804D00DF5805D03B05DF804FB0F21EE
:101EE0006846FFF701F969460A48FEF74BFD0848C6
:101EF000FEF7DAFA0228FAD00548FEF7DFFA0128E1
:101F0000E8D00348FEF7DAFA0128F5D1E2E700BF8E
:101F10001837FF1FA416FF1F70B58EB00AA800F077
:101F2000FBF85D4A5D4D137843F0010313702020E8
:101F300004F07EFB06F01EF905F11806022401E00C
:101F400055F8044FE4B22046042104F08BFD2046EE
:101F5000002104F073FDB542F2D101210D2004F0FF
:101F600081FD4F48FEF7B6FB406B003018BF0120E3
:101F700002F08CF8FFF764FF0AA807224FF40D71F6
:101F800000F0A8F940F2B67246490AA800F0CCF871
:101F900040F2F11244490AA800F0D4F80AAA5E21DE
:101FA000424800F061FA4FF4EB7241493F4800F0BB
:101FB000B3FA0AA80B2240F25F1100F08BF94FF43C
:101FC000F2623C490AA800F0AFF84FF4F2723A49C5
:101FD0000AA800F0B7F80AAA2C21384800F044FA01
:101FE000DC223749354800F097FA0AA81522CA21A1
:101FF00000F070F940F6490232490AA800F094F85E
:1020000040F2222230490AA800F09CF80AAA0F21C7
:102010002E4800F029FA4B222D492C4800F07CFA7A
:102020001F48FEF757FB816A2A48FEF7BBFC0021D8
:102030000122042309910892079305260625072407
:10204000172016211222112303900291019200936E
:102050001422152313210696059504941D48FEF7B6
:1020600093FB0F48FEF736FBC1681A48FEF776FC73
:102070000B48FEF72FFB90F824101648FEF778FC6B
:102080001448FEF743FCFFF725FEFFF717FF0AA8E9
:1020900000F01AF90EB070BD00D00740C4F0000087
:1020A0006437FF1F30E8000084DF00003037FF1F77
:1020B0005CE3000078F9000078E10000C837FF1FFA
:1020C000E8EF0000E0F0000034E500009C11FF1F85
:1020D0002CF90000A416FF1F10B50A4C204600F092
:1020E000AFF9094A0949204607F0F2F8084B094AB6
:1020F000C3F860240022DA7183F83C2483F83D247D
:1021000010BD00BF9C11FF1FF806FF1F51240000E7
:10211000EC11FF1F6C03010000220260426002818B
:1021200042818281C281704710B54389848903FB53
:1021300004F39A4201D0002010BD006804F0CCF8EE
:10214000002010BD10B54389C48903FB04F39A42F3
:1021500008D01621064805F0F7FC064805F07AFF7E
:10216000002010BD406804F0B7F8002010BD00BF8B
:10217000080101002407FF1F002917DB002A15DBD7
:1021800030B40489A14210DA4489A2420DDA84896C
:102190000568481002FB0402C907A85C07D500F0D7
:1021A0000F0040EA0310C0B2A85430BC704703F0DF
:1021B0000F0320F00F001843A854F6E710B48489E9
:1021C000006801EBD17302FB04025B105DF8044B65
:1021D000D05CCB074CBF000900F00F00704700BF78
:1021E000002918DB002A16DB30B40489A14211DA79
:1021F0004489A2420EDAC4894568C81002FB040271
:10220000A85C4BB101F00701012303FA01F1084377
:10221000C0B2A85430BC704701F00701012303FA93
:1022200001F120EA0100A854F4E700BF00291BDBFC
:10223000002A19DB0389994216DA43899A4213DA94
:1022400010B4446894B1C389C81002FB034201F082
:102250000701125C012303FA01F10A4214BF184678
:1022600000205DF8044B7047012070470120F8E71B
:10227000008970474089704783894289006861F30B
:102280001F1102FB03F207F021BC00BF83894289C2
:102290000068002102FB03F207F018BCC3894289E1
:1022A0004068002102FB03F207F010BC10B50446A1
:1022B000006808B105F074FF606818B1BDE810400F
:1022C00005F06EBF10BD00BF10B50446FFF7EEFF6E
:1022D000204610BD70B50D4604461646FFF7E6FFD2
:1022E000AAB215F0070102F0010318BF012105EBA6
:1022F000D570002DB8BF073503EB600001EBE50595
:1023000080B22281A081E581668106FB00F005F0A4
:1023100045FFE389206006FB03F005F03FFFA3893A
:102320006289606002FB03F20021206807F0CEFBA7
:10233000E3896289606802FB03F20021BDE8704016
:1023400007F0C4BB38B50D464A8909890446FFF732
:10235000C1FF2968B9B1A089638910FB03F292B269
:1023600003FB00F39A4210D0696849B1E28963899E
:1023700012FB03F292B22046FFF7E4FE204638BD7E
:102380006160204638BD2160EEE7206803F0A4FFBD
:10239000EAE700BF70B501F1080582B00222694684
:1023A0000646284602F008F8022204460DEB020118
:1023B000284602F001F80222002CA8BF002801A93B
:1023C0002846ACBF0124002401F0F6FF02220028B9
:1023D000B4BF002404F001040DF10601284601F009
:1023E000EBFF0028B4BF002404F0010414B9204618
:1023F00002B070BDBDF80220BDF800103046FFF7F6
:1024000069FFB3897289316802FB03F2284601F043
:10241000D3FFBDF80630C443E40F002BE7D0F389A7
:1024200072897168284602FB03F201F0C5FF00289B
:10243000B4BF002404F00104204602B070BD00BF08
:1024400010B50446FFF768FE00232361204610BD47
:1024500010B50446006908B105F0A2FE2046FFF75A
:1024600033FF204610BD00BF70B5044600690D461D
:10247000164608B105F094FE31462046FFF762FF8C
:10248000A58205EB850005F089FE206170BD00BFC7
:1024900070B501F10804C2B005460E462046002181
:1024A00002F072F8022201A9204601F085FF0DF129
:1024B00003010122204601F07FFF4FF480720021CA
:1024C00002A807F003FB9DF8032002A9204601F0B3
:1024D00073FF20460DF10601022201F06DFF28690D
:1024E00008B105F05DFEBDF8060000EB800005F0C8
:1024F00055FEBDF806202861014602EB8202204607
:1025000001F05AFF31462846FFF744FFBDF8063078
:10251000AB8242B070BD00BF838A03EB83039A4253
:1025200010B50DD014460E21084805F00DFB2146CC
:10253000074805F0DFFD064805F08CFD002010BDC2
:10254000006903F0C9FE012010BD00BF2001010099
:102550002407FF1F2DE9F04F83B0804608460C4644
:10256000019108F04DFAB8F814B000270BF1FF3CC8
:1025700001381FFA8CFC87420CEB8C0C04F1FF3AFB
:10258000BE465E4625DA1AF8012F002E4DD0D8F847
:10259000105095F800B05A4538D02B4605EB0C0189
:1025A00002E01C78944232D0994203F10503994627
:1025B000F7D12B4602E01C78944224D08B4203F1E1
:1025C00005031D46F7D1002301378742C3EB0E0EEA
:1025D000D9DB20EAE070019B185C46B3D8F81010F4
:1025E0000B7883421BD00B468C4402E01A7882425F
:1025F00015D0634503F105031946F7D10020704457
:1026000003B0BDE8F08FB5F80330DDE7A946B9F8AF
:1026100001305A459E44F6D005EB0C01C9E7B1F8EC
:102620000100704403B0BDE8F08F3346CCE730467C
:10263000F7E700BF2DE9F04F87B0884611469B466B
:1026400005920746FFF786FF04463846FFF712FE5D
:10265000214602464046FFF73DFE002300939A467E
:102660000393059C204608F0CBF9009A824280F241
:10267000C280B7F814E0A15CBEF1000F00F0C18089
:102680003A6992F800C0614500F0AC800EF1FF3469
:10269000A5B205EB85051544134603E0187888427A
:1026A00000F0A1809D4203F105031E46F6D10023F0
:1026B0000493A4B204EB84041444002303E012F84E
:1026C000050F884205D0B2F80100A24203449BB234
:1026D000F5D10293029B049A384603EB0209FFF7F7
:1026E000C9FD0026864248DA029B99453FDD039CDE
:1026F000029D14E0FFF79AFD3246019021464046C4
:10270000FFF794FD019B0340DBB232462146404671
:10271000FFF766FD01354D4504F1010427D0294638
:1027200032463846BBF1000F04D0009B1BF8033043
:102730002D2B46D0FFF742FD324603462146404648
:10274000FFF71AFDA245324629463846D2DC294613
:1027500032463846FFF76AFD0135034621463246C8
:102760004046FFF73DFD4D4504F10104D7D1384601
:10277000FFF780FD01368642B6DB059A0099049882
:10278000515C039ABB8A024492469BB13869027835
:102790008A4224D0013B9AB202EB820203460244F1
:1027A00002E01C788C421AD0934203F105031846CC
:1027B000F7D10023C3EB0A030393009B013300937B
:1027C0004FE7002321464046FFF7D6FCA245A1DC97
:1027D0000123324621464046FFF702FD9AE7B0F852
:1027E0000330E7E71646B6F801300493614506D09A
:1027F0000EF1FF345DE7404607B0BDE8F08F0023DF
:1028000067E7CDF808E0CDF810E063E730B5184B86
:10281000184D1968184A97B00024234602A800955D
:102820008DF808408DF809408DF8044001F062FDF4
:10283000C8B18DF834408DF835408DF830400B9597
:1028400002E00DA801F020FD002202A90DA801F070
:1028500057FFE5B201340028F3D102A801F014FDBE
:10286000284617B030BD0546284617B030BD00BF1A
:102870003439FF1F74DF0000CCE7000030B500F1F1
:10288000080583B00C462846002101F07DFE0DF1BD
:1028900006012846022201F08FFD0DF105012846B0
:1028A000012201F089FD9DF8052001320C2ACABFE2
:1028B0000D22D3B21346214628468DF8053001F08B
:1028C0007BFD9DF805000444002304F8013C03B09F
:1028D00030BD00BF10B5044600F500500C3005F0C7
:1028E0006FFB204610BD00BF2DE9F041DFF88C8062
:1028F000184C194F194E1A4D4046FDF723FF22463A
:102900001849404606F0E4FC1748FDF7EDFE1E218D
:102910001648FDF7ABFD1C211548FDF7A7FD1D214D
:102920001448FDF7A3FD1B211348FDF79FFD384612
:10293000FFF786FD22463146384606F0C9FC284698
:10294000FFF77EFD224631462846BDE8F04106F0FD
:10295000BFBC00BFF806FF1F3037FF1F5124000027
:10296000C837FF1FD52800006437FF1FB037FF1F8F
:102970004C37FF1F0037FF1F1837FF1FA416FF1F1C
:1029800010B504461C30FFF7C7FB00232382638287
:10299000204610BD10B504461C30FFF795FC2046BC
:1029A00010BD00BF2DE9F04F01F1080591B00222E2
:1029B0000DF126018046284601F0FEFC0222064663
:1029C0000AA9284601F0F8FC0222002EA8BF002820
:1029D0000DF12A012846ACBF0126002601F0ECFCCF
:1029E0000028B4BF002606F00106002E00F09D80EE
:1029F000BDF82A20002A00F0988008F1080301930E
:102A000008F10A03029308F10C03039308F10E0383
:102A1000049308F11403059308F11503069308F1D4
:102A2000160308F1020B08F1040A08F106090793DE
:102A3000002702224146284601F0BEFC022204463D
:102A40005946284601F0B8FC0222002CA8BF0028F5
:102A500051462846ACBF0124002401F0ADFC0222FF
:102A60000028B4BF002404F001044946284601F0C0
:102A7000A3FC02220028B4BF002404F00104019941
:102A8000284601F099FC02220028B4BF002404F07B
:102A900001040299284601F08FFC02220028B4BFED
:102AA000002404F001040399284601F085FC022269
:102AB0000028B4BF002404F001040499284601F062
:102AC0007BFC01220028B4BF002404F00104059916
:102AD000284601F071FC01220028B4BF002404F054
:102AE00001040699284601F067FC01220028B4BFC2
:102AF000002404F001040799284601F05DFC11222E
:102B00000028B4BF002404F001040BA9284601F0FA
:102B100053FCBDF82A2001370028B4BF002004F080
:102B20000100BA4206EA000683DCB8F80010B8F8E3
:102B30000A20BDF82800A8F81000003118BF0121B4
:102B4000003218BF012200243046A8F81810A8F857
:102B50001A20A8F8124011B0BDE8F08F428A038A0B
:102B60009A4201D000207047B0F91A00032803D020
:102B7000B0FA80F04009704701207047B0F9183072
:102B800010B50446012B408A228A1BD003238242BF
:102B900023831BD0904225D3B4F91A30022B05D0E1
:102BA000002010BD02229342628317D0E389012BDB
:102BB000F6D11C342046FFF769FB2046FFF76EFB79
:102BC000012010BD02239042238313D1B4F91A20AF
:102BD000012AE7D00322022B6283E1D1A388012BD3
:102BE000DAD1E6E704F11C00FFF7D4FB638A013376
:102BF000638210BDA388012BCCD1DAE71C3070476B
:102C0000B0F91830022B06D0B0F91A30022B0CBFE5
:102C10004089C08870470088704700BFB0F91830FD
:102C2000022B07D0438B023B9BB2012B94BF8089C0
:102C30000089704740887047007D7047407D70472D
:102C4000807D70474368002B10B5044603DD806823
:102C500008B105F0A5FA204610BD00BF4368002B5F
:102C600010B5044603DD806808B105F099FA2046E6
:102C700010BD00BF4368002B10B5044603DD80681B
:102C800008B105F08DFA204610BD00BF4368002B47
:102C900010B5044603DD806808B105F081FA2046CE
:102CA00010BD00BF4368002B10B5044603DD8068EB
:102CB00008B105F075FA204610BD00BF4368002B2F
:102CC00010B5044603DD806808B105F069FA2046B6
:102CD00010BD00BF4368002B10B5044603DD8068BB
:102CE00008B105F05DFA204610BD00BF4368002B17
:102CF00010B5044603DD806808B105F051FA20469E
:102D000010BD00BFC1B20148FDF732BEA416FF1FBF
:102D10002DE9F0438BB0054606A80E46FFF7FCF9F7
:102D200001F0E2F909228046802106A8FFF7D2FAD5
:102D3000012106A8FFF7A0FA06A8FFF799FA814635
:102D400006A8FFF797FA00242A4FCDF800900190CB
:102D500006A928462346224603940294FEF7CAF9A0
:102D60003246234606A93846FFF764FC06A8FFF75B
:102D70007FFA814606A8FFF77DFA01262346224600
:102D800006A9CDF800900190039628460296FEF71A
:102D9000B1F9404603F048F98146404603F066F930
:102DA0004A460346144904A807F0B2FB234604AA86
:102DB00006A93846FFF73EFC06A8FFF759FA074672
:102DC00006A8FFF757FA804606A8FFF751FAC0F1A8
:102DD0008000029023462846224606A903968DE8E5
:102DE0008001FEF787F906A8FFF76EFA0BB0BDE881
:102DF000F08300BF3037FF1F98E700002DE9F04354
:102E000089B0044604A80F46FFF786F9092204A8F2
:102E10001C21FFF75FFA012104A8FFF72DFA04A88F
:102E2000FFF726FA064604A8FFF724FA1725002321
:102E3000022204A9009601900395204602921A46A8
:102E4000FEF758F904A8FFF713FA064604A8FFF79F
:102E500011FA0023222204A900960190039520462E
:102E600002921A46FEF746F904A8FFF701FA064651
:102E700004A8FFF7FFF90023422204A9009601905D
:102E80000395204602921A46FEF734F904A8FFF78C
:102E9000EFF9804604A8FFF7EDF94F4E03950023A4
:102EA00062220190CDF8008004A9204602921A46C1
:102EB000FEF720F93A6804A900233046FFF7BAFB71
:102EC00004A8FFF7D5F9814604A8FFF7D3F9804697
:102ED00004A8FFF7CDF9C0F11C0000EBD070401042
:102EE000182500230230CDF800900290CDF8048020
:102EF00004A920461A460395FEF7FCF87A6804A94F
:102F000000233046FFF796FB04A8FFF7B1F981468E
:102F100004A8FFF7AFF9804604A8FFF7A9F9C0F1AC
:102F20001C0000EBD070401000232230CDF8009040
:102F30000290CDF8048004A920461A460395FEF7B6
:102F4000D9F8BA6804A900233046FFF773FB04A838
:102F5000FFF78EF9814604A8FFF78CF9804604A894
:102F6000FFF786F9C0F11C0000EBD0704010002381
:102F70004230029004A920461A46CDF800900395ED
:102F8000CDF80480FEF7B6F8FA6804A900233046AD
:102F9000FFF750FB04A8FFF76BF9064604A8FFF7FC
:102FA00069F9074604A8FFF763F9C0F11C0000EBBC
:102FB000D070401000236230029004A920461A46C7
:102FC00003958DE8C000FEF795F804A8FFF77CF99B
:102FD00009B0BDE8F08300BF3037FF1F2DE9F04F87
:102FE00089B0054604A80C4617469B46FFF794F89F
:102FF0006248FDF763FA82466148FDF75FFA814651
:103000006048FDF75BFA80465F48FDF757FA0646D1
:10301000002F40F08B80B9F1010F5C4F00F08E80E3
:10302000B8F1010F00F09D80012E00F09680BAF1FA
:10303000010F4FF0FF3618BF00262168DFF84C81E2
:103040002846FFF765FE3B68002B1ADD0023504A37
:10305000504804A9FFF7EEFA04A8FFF709F98146E2
:1030600004A8FFF707F900230B22019003920293B3
:103070001A46CDF8009004A92846FEF73BF8D8F888
:1030800000306268013A9A4220DD0023424A4148FA
:1030900004A9FFF7CFFA04A8FFF7EAF8814604A8CD
:1030A000FFF7E8F8804604A8FFF7E2F800230B22B8
:1030B000C0F1800002900392CDF800901A46CDF83E
:1030C000048004A92846FEF715F83B68A268314839
:1030D00052F8232004A90023FFF7ACFA04A8FFF755
:1030E000C7F8804604A8FFF7C5F8074604A8FFF70D
:1030F000BFF8C0F1800000EBD070002342100B211C
:10310000029203911A4604A92846CDF8008001973F
:10311000FDF7F0FF04F10C012846FFF76FFE04A84D
:10312000FFF7D2F8304609B0BDE8F08F174FDBF853
:1031300000303B60B9F1010F7FF472AF636838680B
:10314000124A013B83427FF76BAF129B0130106044
:10315000002B3FF465AF984762E73B68CBF800303F
:103160006BE73868094B00287FF75EAF01381860BD
:10317000129B002B3FF458AF984755E7B037FF1F1D
:103180004C37FF1F0037FF1F1837FF1F1C38FF1F6A
:10319000D4010100C837FF1F600101002DE9F0478D
:1031A0008CB0054604A88946FEF7B6FF684B0FCBE6
:1031B00008AE86E80F006748FDF780F907466648C5
:1031C000FDF77CF980466548FDF778F904466448C8
:1031D000FDF774F98246B9F1000F40F08580012FA8
:1031E000DFF88C9100F0898028F00208B8F1010F17
:1031F0004FF0010700F08E8024F00204012C00F053
:103200009A80BAF1010F04D1564BD9F80020DA6048
:10321000002728465449FFF77BFD082204A84421D3
:10322000FFF758F8052104A8FFF726F804A8FFF7D0
:103230001FF8044604A8FFF71DF800230C211E22E6
:10324000009401900391029204A91A462846FDF7C2
:1032500051FF062204A84221FFF73CF8002104A8F0
:10326000FFF70AF804A8FFF703F8044604A8FFF7DD
:1032700001F800230D211F22009401900391029276
:1032800004A91A462846FDF735FF042204A8402168
:10329000FFF720F80F2104A8FEF7EEFF04A8FEF7C1
:1032A000E7FFD9F800400028B8BF3F308311013450
:1032B00004A803FB04F4FEF7DDFF00230E21202207
:1032C00001900391029204A91A4628460094FDF742
:1032D00011FF31462846FFF791FD04A8FEF7F4FFE1
:1032E00038460CB0BDE8F0871E4BDFF88490DB68F1
:1032F000C9F80030012F7FF477AF1A4B1B48D9680B
:1033000028F00208FDF72AFBB8F1010F4FF0000783
:103310007FF472AFD9F80010154A3E293FF76CAF21
:103320004B1C19461148136024F00204FDF716FBEC
:10333000012C7FF466AFD9F800100D4A00297FF701
:1033400060AF4B1E194609481360FDF707FB58E7AD
:1033500030010100B037FF1F4C37FF1F0037FF1F40
:103360001837FF1F6038FF1F64010100A416FF1FFC
:103370002038FF1F2DE9F04F93B007460AA8894671
:1033800092461D46FEF7C8FE794B0FCB0EAC84E883
:103390000F007848FDF792F806467748FDF78EF85B
:1033A00080467648FDF78AF883467548FDF786F82B
:1033B0000346002D40F09B80012E4FF0FF3618BFD2
:1033C0000026B8F1010F6F4D6AD0B8F1030F67D036
:1033D000BBF1010FDFF8C08155D0BBF1030F52D014
:1033E000012B00F0AE8049463846FFF791FCBAF158
:1033F000000F44D1DFF8A491DFF8A4A198F80130C0
:1034000098F80220604907A807F082F82B685F4807
:10341000002B0CBF4B46534607AA0AA9FFF70AF92F
:103420000AA8FEF725FF81460AA8FEF723FF80467B
:103430000AA8FEF71DFFC0F1800000EBD07000234A
:1034400040100B22029003920AA91A463846CDF882
:103450000090CDF80480FDF74DFE4D4A2D684D4B90
:103460002146002D08BF134638461193FFF7C6FCCE
:103470000AA8FEF729FF304613B0BDE8F08FDFF849
:103480002491CA46BAE72A68EAB998F80220424964
:10349000013AD2B2172A50D88A70012BA3D153E037
:1034A0002A68002A3AD0DFF8F08098F8012001322B
:1034B000D2B23B2A4BD8BBF1010F88F8012002D0D1
:1034C000BBF1030F8CD198F801203349013AD2B2F5
:1034D0003B2A42D84A70012B85D100232E4888F818
:1034E000003002F0D1FD1C9B012618607BE71C9B7D
:1034F000059029491868234D02F0B2FC012E4FF0C7
:1035000000024FF0FF3618BF0026B8F1010F2A6005
:10351000059B03D0B8F1030F7FF45AAFDFF8788032
:1035200098F802200132D2B2172A1AD90022BBF130
:10353000010F88F802207FF450AF172288F802208C
:10354000ABE72B68002BC8D101232B604BE700228F
:10355000BBF1010F88F80120B2D13B2288F801208D
:10356000B9E7BBF1010F88F802207FF436AF8CE792
:1035700040010100B037FF1F4C37FF1F0037FF1F0E
:103580001837FF1FA038FF1F98010100C837FF1F21
:103590008801010090010100E038FF1F7001010067
:1035A00078010100800101002DE9F04F91B006463D
:1035B00008A815460F46FEF7AFFD504A0FCA0CACDF
:1035C00084E80F004E48FCF779FF83464D48FCF72E
:1035D00075FF80464C48FCF771FF82464B48FCF76C
:1035E0006DFF002D51D128F00208B8F1010FDFF86E
:1035F000389155D0BAF1010F5DD0BAF1030F5AD00E
:10360000012862D0BBF1010F4FF0FF3518BF002534
:1036100030463F49FFF77CFB3E4B3F48D9F800203E
:103620003E49002F0CBF1F46074605A806F070FF55
:103630003B4605AA08A93A48FEF7FCFF08A8FEF792
:1036400017FE804608A8FEF715FE074608A8FEF7F5
:103650000FFEC0F1800000EBD070002342100B2160
:10366000029203911A4608A93046CDF800800197CE
:10367000FDF740FD21463046FFF7C0FB08A8FEF7E6
:1036800023FE284611B0BDE8F08F264BDFF8989056
:103690009B68C9F8003028F00208B8F1010FA9D1E1
:1036A000D9F80030204A0133B3F57A7F13DABAF142
:1036B000010F1360A1D1D9F800301C4A1A49013B0F
:1036C000934213DA01280A609CD1164BD9F80020E6
:1036D0009A6005469CE7BAF1010F0AD040F2E73341
:1036E000BAF1030F13608BD140F2E633C9F8003012
:1036F00086E740F2E633136082E700BF5001010025
:10370000B037FF1F4C37FF1F0037FF1F1837FF1F51
:10371000BC010100B0010100A4010100CC010100C5
:10372000C837FF1F6038FF1FC038FF1F19FCFFFF9D
:103730002DE9F04FADF5835D87B004461CA8FDF779
:10374000C1FC002C38D1A34D2B78002B40F0048312
:10375000A14B1B680C2B23D8DFE813F0FB001F01E3
:1037600030010802C201E301EE01FD0174010D0008
:103770009101AC01B701994C994B0093002204F1DF
:10378000240398491CA8FFF729FC002800F01F819A
:10379000012800F00D8194F824109348FDF7E8F813
:1037A00001242C701CA99048FDF7ECF820460DF57B
:1037B000835D07B0BDE8F08F8C48884CDFF87C92C1
:1037C000FCF788FF05460FCD0FC40FCD0FC40FCDFA
:1037D0000FC495E80F0084E80F00854A00231360AA
:1037E000D9F8004054B16368002B03DDA06808B12C
:1037F00004F0D6FC20461C2104F0D4FCFFF706F8A8
:103800007C4D8246286818B104F0CAFC00232B6066
:103810000FFA8AF303EB430003EB800006AE0024AB
:103820000393DFF81CB204F0B9FC8DF820408DF84A
:1038300021408DF81C40704A46F808BB286023469A
:1038400011686E4A304600F055FD0346002836D018
:10385000674B1C60BAF1000F00F0CC81029627463E
:10386000012609E0624B1E6033469A4506F10106C7
:1038700004F10D0440F397810DF14C0840460022FD
:1038800002998DF84C708DF84D708DF84870CDF818
:1038900044B000F035FF002800F0AA81296811A883
:1038A0002144FEF7EBFF404600F0EEFC2968544847
:1038B000214406F0C9FE0028D4D03346D5E74C4A4F
:1038C0001C20136004F068FC0446042004F066FC2D
:1038D0004C4B4D4AC9F8004001212360A060616053
:1038E000234602603C4F494A49493A4D494EDA6005
:1038F0000020012238601961474848492A70327017
:1039000058619961DFF8D08045490024434600940E
:103910001CA8FFF763FB34703E4B002857D00130E2
:103920003FF440AFD8F800202C70012119700C2A08
:103930003FF636AFDFE812F0D001C601BC01B60198
:10394000B101A601A00196018B01810177016D01F2
:103950006301344B324A1B6804939168049B324ADA
:10396000324C09680094A2FB0332C2F340120023D8
:103970001CA8FFF7FFFC50B301287FF411AF174BD1
:1039800020681B68012B04BFA0F56160206002F075
:103990005DFC206803F00CF802E7002200920F4B58
:1039A00023491CA8FFF71AFB88B101287FF4F8AE61
:1039B00001220A490D48FCF74DFEF1E60022009273
:1039C0001C4B1D491CA8FFF709FB0028EDD1012461
:1039D000E8E600BF2C39FF1F3039FF1F6038FF1F9A
:1039E000052D00000839FF1FA416FF1F6437FF1FB5
:1039F0000439FF1F4038FF1F3439FF1FCCE7000098
:103A00007438FF1FD801010050DF0000E4010100FD
:103A1000EC0101002439FF1F880101009001010021
:103A2000FC37FF1FAC39FF1FD34D62102839FF1F31
:103A3000E037FF1F6438FF1FC438FF1F1838FF1F0F
:103A400074DF0000A94FAA4E396800223346009265
:103A50001CA8FFF7C3FA04460028B8D001287FF459
:103A60009FAE3B6832689B68A24853F8221006F06C
:103A700055FF2246A049A148FCF7ECFD90E69E4E7A
:103A80009F49002206F1340300921CA8FFF7A6FA12
:103A9000044600289BD001287FF482AE706B003072
:103AA00018BF012000F0F2FA224631469348FCF795
:103AB000D1FD75E600220092924B93491CA8FFF7B6
:103AC0008DFA00287FF471AF81E7002200928F4BBE
:103AD0008F491CA8FFF782FA00287FF466AF76E7CB
:103AE0008C4A8D4B92681B68116906938B488C4AEF
:103AF000069B0090A2FB0332C2F3401200231CA8D5
:103B0000FFF738FC00283FF462AF01287FF448AE8D
:103B1000012279497948FCF79DFD824B00221A70F9
:103B20003EE67C4A7C4B92681B6851697E48119343
:103B30007B4A0090119BDDE700211CA8FFF72EFBBC
:103B400000287FF444AF01226B496C480124FCF744
:103B500081FD2C7026E600220092744B74491CA84B
:103B6000FFF73CFA00287FF420AF30E76A4B6C493E
:103B70001B680593059BA1FB03310022C1F3401193
:103B80001CA8FFF711FD024600283FF420AF0128D2
:103B90007FF406AE584C59482146FCF75BFDA068FF
:103BA00002F018FFFCE508A800F06EFB1C2004F0F2
:103BB000F3FA0AF101040646A00004F0EFFA0399B3
:103BC0005C4A5D4B746032608C00C9F80060B06084
:103BD00003600021042201E0986804322B680B4442
:103BE0008350944201F10D01D9F80030F4D179E607
:103BF0003F4B186008A800F047FB1C2062E600233A
:103C000000934349414B01221CA8FFF7E7F9012427
:103C1000C8E5002300933C493A4B01221CA8FFF75A
:103C2000DDF90124BEE5002300933549434B012211
:103C30001CA8FFF7D3F90124B4E500230093404901
:103C4000404B01221CA8FFF7C9F90124AAE5274A25
:103C5000274B1168002200921CA80122FFF7BEF931
:103C600001249FE5002300933149304B01221CA819
:103C7000FFF7B4F9012495E501211CA8FFF78EFA9E
:103C800001248FE5234A284B926851690093002252
:103C900001231CA8FFF76EFB99E61E4A1F4B926892
:103CA0001169F3E7012200211CA8FFF77DFC8EE6D5
:103CB000002300932449254B01221CA8FFF78EF90D
:103CC00001246FE50023009321490B4B01221CA81E
:103CD000FFF784F9012465E500F006FA0D4B396819
:103CE0009A681C4B52F821101860CFE71838FF1F54
:103CF0000439FF1F7438FF1F6038FF1F6437FF1F30
:103D00004438FF1F8C38FF1FA438FF1F9038FF1F57
:103D10002438FF1FFC37FF1FAC39FF1F9838FF1FE7
:103D2000D34D62104837FF1F9C38FF1F7038FF1FAC
:103D3000E838FF1FD801010050DF00009438FF1F52
:103D40000839FF1F8438FF1FC438FF1F6438FF1F66
:103D5000E037FF1F2839FF1F014E024F3278D1E5AF
:103D60002439FF1F3039FF1F2DE9F84F342004F0AC
:103D700015FA03468A4C9C618A4CDC618A4C5C6271
:103D80008A4C8B4F8B4E9C628B498C4CDFF8AC92EB
:103D9000DFF8AC821960DC628948DFF8A8B2894D8F
:103DA000894A8A4CDFF8A0C2DFF8A0E2D8600D2172
:103DB000C3F810B05D611A62854DBB603246796010
:103DC000C3F804908349C3F808801C63DFF880A21D
:103DD000814BC7F80CC03846C7F818E07B61C7F8BC
:103DE00000A03D6105F074FA082004F0D7F97B4B80
:103DF000794C5C6101467A4C0C604FF0020B794CB7
:103E0000DFF850A2784F99603246C3F804B01846E4
:103E10004C607649C3F800901D61C3F80CA09F6107
:103E200005F056FA0C2004F0B9F9714BDFF828E2DE
:103E3000C3F8008001464FF003086E4A6E48664C96
:103E40009960C1F808E0C3F804800A60486032460F
:103E500018466A49C3F80CA01D615C619F6105F0BA
:103E600037FA1C2004F09AF9034665484D49DFF8FB
:103E7000ECE101600721C3F800E0624A4160DFF82D
:103E8000E0E161495A609960C3F80CE05F4ADFF8ED
:103E9000D4E15F491A6159613246C3F818E0836082
:103EA0005C49C0F80CA005614461876105F010FA17
:103EB0000C2004F073F9DFF8B0915749DFF8ACC17A
:103EC000DFF8ACE1384AC1F80480034683E80052C9
:103ED0008B600A60C1F80CA032460D614C618F61A5
:103EE00008464E49DFF88C81DFF88C9105F0F0F937
:103EF000082004F053F94A4BDFF880C12B4A1A60BE
:103F000086468EE800113246C3F808E0C3F804B0D4
:103F10004449C3F80CA018461D615C619F6105F01F
:103F2000D7F9142004F03AF903463F48234A446184
:103F30003E4CDFF84CE1DFF84CC1DFF84C81026009
:103F4000052283E81002C3F80880C3F810E038495E
:103F50008360C3F80CC042603246C0F80CA0056113
:103F6000876105F0B5F9082004F018F98646314B51
:103F70001B4A1C4C0260CEF80440144C1C60164CCA
:103F8000C3F804B032461846C3F808E0C3F80CA0E2
:103F90001D615C619F612849BDE8F84F05F098B943
:103FA0006401010034020100400201004C020100E2
:103FB000FC37FF1FF806FF1F000201005C02010032
:103FC000BC01010028020100D801010068020100C3
:103FD000EC010100ED2C000088010100E037FF1F1B
:103FE000800201008402010090010100D52C000034
:103FF000C438FF1F8802010090020100BD2C0000A0
:10400000E838FF1FB4020100C0020100D80201001D
:10401000E4020100A52C00000839FF1F8D2C0000D0
:104020004438FF1F752C0000A438FF1F2003010037
:104030005D2C00002438FF1F452C00000C020100FD
:10404000100201001C020100700201007802010050
:10405000F4010100E401010098020100A80201003E
:10406000CC020100F0020100FC020100000301008B
:1040700008030100100301002803010018030100D8
:1040800044030100380301003003010008B588B97A
:104090001E211148FCF7FEF91C211048FCF7FAF923
:1040A0001D210F48FCF7F6F91B210E48BDE808401A
:1040B000FCF7F0B91B210848FCF7ECF91D21074873
:1040C000FCF7E8F91C210648FCF7E4F91E21054835
:1040D000BDE80840FCF7DEB9B037FF1F4C37FF1FC3
:1040E0000037FF1F1837FF1F10B502F04BF80446CA
:1040F0000448FCF7EFFA0368012B08BF04F561647C
:10410000204610BD6437FF1F014B024A1A607047FA
:104110000CED00E00400FA0502F044BC38B504469A
:104120000D462422002105F0D1FCA560EB79102B6F
:1041300008D0202B04D1402301202370A07038BD6B
:10414000002038BD202301202370A07038BD00BF9F
:104150002DE9F041037803F020032BB903F0FF04AD
:104160004269214B9A4204D94FF000084046BDE80D
:10417000F08183780169054643F004038068AB70E1
:1041800005F1100201F0FCF880460028ECD0296906
:10419000A86801F081F80646A86831462430052257
:1041A00001F042F807460028DED04FF400722146A5
:1041B00005F08CFCAB681A79012A10D9012403E0C0
:1041C000AB681A79A2420AD918680368A1199B68DA
:1041D0003A4698470134E4B20028F1D1C4E76B694C
:1041E00003EB42226A61C1E7FFFD1F0010B50446E0
:1041F00080680A462430A16901F016F820B1A3882E
:1042000003F00F0300EB431010BD00BF38B58378F7
:104210005A0704461DD50121FFF7E8FF0546F0B116
:104220000378E52B1BD02378164A1B0744BFE369AC
:10423000C361236A126843831B0C83822AB100F195
:104240001601183090472B8B6B82A37823F0040360
:10425000A370A56805F1240001F016F828B9637869
:1042600043F001036370002038BD05F50C7001F0C8
:104270000BF80028F3D0286803685B68984700288B
:10428000EDD0F1E73839FF1F10B5037804461BB9AC
:1042900000232370012010BDFFF7B8FF0023237017
:1042A00010BD00BF0022F0B50646441E0827104688
:1042B0004FF02E0E14F8013F202B0DD0082A11D0FC
:1042C000A3F14105192D04D8357B2F421CBF2033A3
:1042D000DBB20B540130C0B201320B2AEAD1002309
:1042E0000B54F0BD01F800E0431CD8B2102723782E
:1042F000E6E700BF2DE9F041064692B0357801921D
:1043000000208DF824008DF82500002D39D10C46B1
:10431000002936D098460B7813F0700F31D01378FF
:104320002F2B104622D0002702E00198377009ACED
:1043300001AA03A900F0D2FB03AA2146002300B37F
:10434000019D2D78304605B300F04AFD354609AC95
:10435000B8B10FCD0FC40FCD0FC433782A682260D7
:10436000002BE2D03046FFF751FFDEE7013001902D
:1043700003782F2BFAD0A3B1A16809A8FFF7CEFECE
:1043800060B9002012B0BDE8F081434603AA21467F
:10439000304600F025FD12B0BDE8F081019809AC6F
:1043A000C1E7A1683046FFF7B9FEEBE703780BB130
:1043B00000207047FFF7B2BE2DE9F04F0F4601789D
:1043C00083B0054611B18378DC0708D46B784FF0D1
:1043D000FF3043F002036B7003B0BDE8F08F0B07B2
:1043E000914600F18780880608D5AA686B69128912
:1043F000C3EB42139BB2994528BF9946B9F1000F10
:1044000000F097806B698A064E464FF0000805F170
:10441000100AC3F3080B3FD5AA68116A01EB5321B8
:10442000BBF1000F52D1B6F5007F4FD3D36A99424A
:104430004CD0B6F5806F66D3287880064FEA562BAD
:1044400006D41079C8EB0000C0B2834528BF83466C
:1044500099424FEA4B240BD35B44994208D202F1B4
:104460002400019100F010FF0028AFD0AA68019944
:10447000106802685B46D2F80CB03A46D84700286C
:10448000A4D06B69361B234427446B6151D0297833
:104490008A06C3F3080BBFD4A86890F8058008EA21
:1044A0005328BBF1000F2CD1B8F1000F29D1002BFC
:1044B00034D14C064CBF016A296A296100F0ECFE38
:1044C000AA6808EB0001BBF1000FACD002F1240098
:1044D000002200F0A9FE00283FF478AFCBF500746D
:1044E000B44228BF344600EB0B012246384601F0A7
:1044F000F3FEC6E7EB696A699B1A994528BF99469E
:104500007CE72969DAE7106803683A461B68984730
:1045100000283FF45BAF4FF40074B2E752462969BC
:1045200000F0C0FE0028FFF651AF08D0A868296946
:10453000C4E70026C6EB090003B0BDE8F08F2B7876
:1045400013F0700FF6D141E730B54369C3F343155B
:1045500083B0044605B189B901220DF10701204657
:10456000FFF72AFF40B201280BD163691F33636153
:10457000A068303000EB451003B030BD20334361FC
:10458000F6E7002003B030BD2DE9F041037807695C
:10459000044693B142698A420E4636D021B9216160
:1045A00066610120BDE8F08118070AD499060BD591
:1045B000A3681B89B6EB431FF2D927610020BDE831
:1045C000F081E1698E42F8D8D4F808E09EF80650F0
:1045D000511E05F10900751EC140C540A94200D811
:1045E000B2B95B064CBFDEF82030236A236104F1C8
:1045F00010084246002DD3D02169A06800F052FE79
:10460000002805F1FF35F4DCD7E70120BDE8F08193
:104610006D1AECE72DE9F0410E46154600212422E3
:10462000044698469DF8187005F050FAB068336A51
:10463000E36005F00F02520100F130011144A06067
:10464000A580CB7A1B0714D4831893F83B3003F072
:1046500017032370C97AE77011F0180F04BF43F0F5
:104660000803237008F00303012B06D0022B33D07C
:104670006BB300202070BDE8F0810223A370217885
:1046800011F0110FF5D15DB208F4806618F4005FE7
:1046900008F0080345EA03030CBF00276FF07F070B
:1046A0003B43DBB2A3700244C16AA161B2F844503B
:1046B000B2F84A1041EA05418EB1D9B943F004037A
:1046C000A37018F4804F0ED10120BDE8F08118F4DA
:1046D0008066CED10125D9E70323A370CFE72162FD
:1046E000D36CE361EDE7E1692046FFF74DFF002859
:1046F000EAD1BEE700F086FE0028BAD0A378DDE755
:1047000003784BBB41B30B7813F0700F24D02DE925
:10471000F0474E6916F01F0782B023D191460D462F
:104720008046BA4601E000276E6900212846FFF75F
:104730000BFFB8B10378ABB12E2BF4D0E52BF2D040
:10474000C27A110712D50F2AEDD15A06ECD503F023
:104750001F0790F80DA0E7E70020704700F00EF962
:10476000824505D0002002B0BDE8F087002FF5D1CA
:1047700000974B46C6F34F1229464046FFF74AFFC3
:10478000F1E700BF03780BB1FFF740BD0120704790
:104790002DE9F84F03781E0704466FD583789D07EF
:1047A0006CD51B070F46904600F1CB806369DA4356
:1047B000904563D8B8F1000F00F0B68046464FF040
:1047C000000933E0002940F08380216A002900F0CD
:1047D0008A80216100F060FD0146B6F5007F55D367
:1047E000B6F5806F66D3A2681379D06A5B1BDBB223
:1047F000750AAB4228BF2B4681424FEA432508D3B6
:104800001844814205D282F824904FF0FF30D062E4
:10481000A26810680268D2F810A03A46D04768B380
:104820006369761B2B442F4463617DD0A0682169A6
:10483000457915EA5325C3F3080A34D1BAF1000FBC
:10484000C0D000F029FD0146CAF50075B54228BF69
:1048500035460122A068243000F0E6FC70B15044D7
:104860002A463946AA4401F037FDBAF5007FD7D170
:10487000A068243000F008FD0028D1D1637843F00F
:10488000010363704FF0FF30BDE8F88F6369E269A0
:10489000B6F5007F354628BF4FF40075934234BF0C
:1048A00001220522D6E700F0F7FC2918BAF1000F23
:1048B00093D0C9E7A368DA6A914222D018680368E6
:1048C0003A469B6898470028D8D04FF40075A7E770
:1048D00004F1100B5A4600F0E5FC0028CEDB17D09F
:1048E0002169A06876E7A37843F00403A37004F17C
:1048F000100200F045FD0028C0D021692162A068A7
:1049000068E783F824904FF0FF32DA62A368D5E7B6
:10491000A3782169A06843F004035A46A37000F00D
:104920002FFD0028DCD1A9E7E2699A4210D2A278D3
:10493000E36142F00403A3701A0612D44046BDE8B6
:10494000F88FE169FFF720FE00287FF42FAF95E78D
:10495000094B1B6873B1A37843F004031A06A370D4
:10496000ECD52378002BE9D02046FFF74FFC002838
:10497000E4D183E7A378DFE73839FF1F10B4421E84
:1049800000F10A04002012F8011F430843EAC01096
:1049900051FA80F09442C0B2F5D15DF8044B7047F3
:1049A00038B5CB6873B105460C462422002105F0CA
:1049B0008DF8102301202B70A870A268E3682B6289
:1049C000AA6038BD8968BDE83840FFF7EFBC00BF7A
:1049D0002DE9F0478AB0037800278DF804708DF830
:1049E0000570884613B10C2A154607D84FF0000A07
:1049F00088F800A050460AB0BDE8F087C3780646A4
:104A0000002B59D001A83146FFF7CAFF0028EDD08E
:104A1000F378002BEAD04FF00109B188C9EB01010E
:104A2000490101A8FFF7B0FD82460028DED0002131
:104A300001A8FFF789FD0028D8D0C37A0F2BD5D164
:104A4000037803F01F039945D0D109F1FF3303EB3D
:104A5000430403EB840408EB04020023042BD9B2C3
:104A600031D90A2934D9591C00EB4101898869B12F
:104A7000A54212D97E2903F1010394BFC9B23F2197
:104A80000D2B04F1010402F8011BE7D1A54204D962
:104A900003785A0648BF08F8047008EB050303F8CA
:104AA000017C03785B06A5D409F10109F3785FFA6C
:104AB00089F94B45B1D299E700F076FB8246504622
:104AC0000AB0BDE8F08700EB4301B1F80110CEE772
:104AD000591E00EB4101C988C9E700BF2DE9F04F1D
:104AE0000378202B03D110F8013F202BFBD08860E6
:104AF0000378002B00F007812F2B2FD05C2B22D0C6
:104B0000A3F12204E4B21D2C20D9DFF818E2461CE0
:104B100000247C2BA3F12005374614D05E2D12D83B
:104B200016F8013BA3F12205EDB20134002B00F091
:104B3000D3802F2B13D05C2B2EFA05F703D01D2D1D
:104B4000E7D8FF07E5D50020BDE8F08F754D25FAC1
:104B500004F4E407D9D50020BDE8F08F002407193C
:104B60003E4625462F2302E016F8013F0135202B53
:104B7000FAD02F2BF8D0054415604CB13A4612F804
:104B8000013D2E2B02D0202B40F0A980013CF6D114
:104B90004FF0FF3523464B6001F1170601F10C037E
:104BA000202203F8012FB342FBD1461E002200E071
:104BB000013216F8013F2E2BFAD0202BF8D0B2FA92
:104BC00082FC6E1C4FEA5C1C0CD0475D2E2F00EB64
:104BD000050604D106E016F8017D2E2F02D015F14E
:104BE000FF35F8D2A2424FF0000980F291804E4684
:104BF000CA4607274FF0080825E02E2B47D0222B66
:104C00000BD07C2B09D0A3F12A0EBEF1050F48D999
:104C1000A3F13A0EBEF1050F58D8954239D0B742EC
:104C200029D34FF0000C5F2306F1010E01EB060BB8
:104C30005FFA8EF6062E8BF80D3000D80E73013217
:104C4000A24207DA835C202BD7D10132A2424FF077
:104C5000000CF7DB4B7B202B3FF475AFBCF1000F52
:104C600047D01AEA090F18BF4FF0020981F80090E7
:104C70000120BDE8F08F0A2F37D0954235DB2A4658
:104C80000A2708264FF010084FF0000CD7E795428E
:104C9000DBD10A2F29D02A460A2708264FF0100810
:104CA000CDE72D2BB9D1A3F1210EBEF15D0FB4D804
:104CB0009542EED0B742DED3A3F1610EBEF1190FDB
:104CC00028D8203BDBB248EA0909ADE7A3F15B0E27
:104CD000BEF1020FA1D9E6E7176007194EE7FF2CD6
:104CE0003FF731AF651E234655E74B7B202B3FF442
:104CF0002AAF0B7B0B4401207E24312208705C73A9
:104D00009A73BDE8F08F10601C464FF0FF3542E704
:104D1000CA469FE7A3F1410EBEF1190F98BF48EABA
:104D20000A0A81E7010100352DE9F8430F7B0E46A1
:104D3000044601F10D054FF002084FF07E0970683E
:104D4000B16808EB00039BB240B1084411F8012B95
:104D500003EB4313534088429BB2F7D1032F28BF84
:104D600003273A1DD2B203F00F01B018013A092906
:104D7000D2B294BF3031373197424FEA13134173A7
:104D8000F1D3F319002183F80D902046FFF7FCFBC7
:104D900001212046FFF7D8FB0B2203460146A8B1AC
:104DA00093F800E02846BEF1000F15D0DB7A1B0710
:104DB000EED404F0F5FD0028EAD108F101081FFA4D
:104DC00088F8B8F1640FBAD1BDE8F8836078B0FA1A
:104DD00080F04009BDE8F8830120BDE8F88300BFFA
:104DE000002900F0B7812DE9F04F0C7814F0700F16
:104DF0008BB052D00478002C4FD114785768A40798
:104E000040F0D8804FF0010A0C46904609900021EE
:104E100020468B460793FFF7B7FB08F10D03CDF84B
:104E200018B0CDF80CB05D465E46CDF814B00493D2
:104E3000636901212046C3F34F19FFF785FB10B3C7
:104E40000378E52B39D0002B37D0554538BF0025E6
:104E50002E2B30D0C27A0F2A3CD002F0080202F08A
:104E6000FF0342BB002E40F077810B22049904F02F
:104E700097FD0028DCD198F80030DB0740F18081F5
:104E800001230593D4E763783BB9079A960504D5C7
:104E900002F00303013B012B6BD900200BB0BDE8EE
:104EA000F08F039A013AD2B29342039203D1437B2B
:104EB000069A9A4217D00026BAE7002D08BFCB46C3
:104EC00055453CBF0135EDB2002BDED0E52BBFD1FF
:104ED0000026ADE7002EE4D15A06A9D503F01F063F
:104EE000437B03960693039B013B03EB430E03EBCB
:104EF0008E0E7745DFD9CEEB07090023089617E021
:104F0000D8F80860D2B2A2F1410C715CBCF1190F63
:104F100098BF2032A1F1410C98BFD2B2BCF1190F59
:104F20009CBF2031C9B29142C5D101330D2B4DD068
:104F3000DAB2042A0EEB03010BD90A2A14D95A1C3F
:104F400000EB42029288994509D0FF2AD8D9002661
:104F50006EE700EB43029945B2F80120F5D1002A33
:104F6000089E18BF002663E75A1E00EB4202D28853
:104F7000E9E7002D18BFD946554503D328E0DDB237
:104F8000AA4525D900212046FFF7DEFA6B1C002830
:104F9000F5D1637823B180E7A3681B79012B17D87B
:104FA000AA4515D92046FFF7D3F81035EDB20028F1
:104FB000F2D172E77A4D07F10C04A5FB044A4FEADF
:104FC0009A0A0AF1010A5FFA8AFA1DE7089E2FE79A
:104FD000059B33B141462046FFF7A6FE00283FF46B
:104FE0005CAF4FEA49112046FFF7CEFA00283FF4A4
:104FF00054AF0AF1FF3616F0FF066BD046F04003BF
:10500000DBB20393B1464FF0000A00212046FFF7C0
:105010009BFA00283FF441AFA268039992F824302C
:105020004E4543F0010308BF8E464FF00F0518BFF1
:10503000CE4682F8243008F10C01C57280F80CA02D
:1050400080F800E008F11705002311F801CF5A0895
:1050500042EAC3135CFA83F38D42DBB2F5D10EF062
:105060001F0E0EF1FF3E4373D8F8083080F81AA0E7
:105070000EEB4E020EEB820203EB020B80F81BA03C
:1050800000230FE0042B1BF8031000EB430EDDB2EE
:1050900014D90A2D59D8AEF8041001330D2B02F1A2
:1050A000010212D09742EDD814BF4FF0FF3100211A
:1050B000042B89B200EB430EDDB2EAD801330D2B8D
:1050C000AEF8011002F10102ECD109F1FF3919F03B
:1050D000FF099AD1636900212046C3F34F19FFF7F6
:1050E00033FA054600283FF4D8AE2022002104F010
:1050F000EDFC43462B4953F80D2F586868602A6031
:105100001A899B7AAB722A8198F800200B6802F00A
:1051100018022A73002B37D005F10E0105F110009B
:1051200098472B8AE989A2686B822B83E98292F8DF
:10513000243043F0010382F824300096079B09983D
:105140004A462146FFF766FAA8E6013300EB43051D
:10515000A980A3E700207047039A012A7FF49DAE3F
:10516000451E0A3015F8011F5A0842EAC31351FAC6
:1051700083F3A842DBB2F5D1069A9A427FF48DAE52
:10518000079B1F05D9D588E621212822AB73082368
:105190002974EB736A744FF4006142F62103C2E78D
:1051A0004FECC44E3839FF1F03789BB113F06003F6
:1051B00005D02F2200230A704B700120704710B5D4
:1051C0000C461946FFF712F830B12146FFF76AF88E
:1051D000012010BD00207047002010BDF8B54368C5
:1051E000816800F10C0604461868036832469B6823
:1051F000984740B123789A07054607D423F0010366
:1052000023702846F8BD00252846F8BD6368A168CC
:1052100018681F690368324639449B68984700281C
:10522000F1D02378EAE700BFF8B583688B420646E1
:1052300014460FD00378DA070F4612D4630716D549
:1052400006F10C05002304F003041C4334702846C7
:10525000B760F8BD10F90C3B04F003041C43347034
:10526000F8BDFFF7BBFF0028E8D10020F8BD736848
:105270001868036806F10C051B682A4639469847EA
:105280000028DFD1F1E700BF0378DB0701D401205C
:105290007047FFF7A3BF00BF837940690239994087
:1052A00008447047012933D9C369994230D870B591
:1052B000C379202B164605460C4618D0102B13D167
:1052C0008369C1F307211944022200F50C70FFF72E
:1052D000ABFF48B1E1B230F81130EA6993429ABFAE
:1052E00001203360002070BD4FF0FF3070BD816938
:1052F000022201EBD41100F50C70FFF795FF002896
:10530000F2D004F07F0150F8213023F07043E4E73D
:105310004FF0FF30704700BF01291DD938B5C36970
:10532000994206D8C379202B15460C4616D0102B6F
:1053300001D0002038BD8369C1F30721194400F56D
:105340000C700322FFF770FF03460028F1D0E1B292
:10535000012023F8115038BD0020704781690322D5
:1053600000F50C7001EBD411FFF75EFF0346002837
:10537000DFD004F07F01012043F8215038BD00BF89
:105380002DE9F041C4688C4282B005460F46904634
:105390003ABF0C4600260126EB6901349C4201AA63
:1053A0002846214609D93EBBEC6801349C424FF0A7
:1053B000010601AA28462146F5D8A7421CD0FFF7CE
:1053C00071FF002818DBE7D0019B002BE4D106B168
:1053D000EC606FF0704221462846FFF79DFF0646BD
:1053E00050B117B9C8F8004007E0394628462246B0
:1053F000FFF792FF0028F5D10026304602B0BDE845
:10540000F08100BFF0B583B002AF002347F8043D40
:1054100005460C460AE0FFF77FFF90B1EB689C421F
:105420009CBF04F1FF34EC60019C5EB13A4621461A
:105430002846FFF737FF061E21464FF00002284698
:10544000E9DA002003B0F0BDF8B5044600224FF0C1
:10545000FF330120A462C4F83442E060E27184F8B2
:10546000242084F83022E362C4F838320D46C1B1FA
:10547000042901D90020F8BD04F124063046114664
:10548000FFF7D2FE0028F5D000EB051393F8AE31FC
:105490005B06EFD11B3500EB0515D5F8065015B9A5
:1054A000E8E704F12406304600222946FFF7BCFE57
:1054B0000028DFD0B0F80B30B3F5007FDAD1037CE1
:1054C000022BD7D1C389002BD4D0467B2671731E03
:1054D0000021012E6371A1710ED001210A4600E066
:1054E00019465200D2B24B1C9642DBB203D0092BB4
:1054F000F6D1A171BEE7A171C38A4BB31F462761E4
:10550000C6892E44A661B0F8113023815A0102F2F7
:10551000FF1206EB470303EB622262612362B0F8DD
:10552000133003B9036AAD1A1D4425FA01F140F6A0
:10553000F4734A1C9942E2610CD94FF6F473994214
:1055400085BFC36A236210232023E3710120F8BDC5
:10555000476AD4E70C23E3718CE700BF034B044890
:105560001B681840B0FA80F04009704730100B40BB
:1055700001000F00024B186800F00100704700BFE7
:1055800024100B40014B1878704700BF7C39FF1F77
:105590004FF47A722C4B02FB00F09842F0B44BD8D7
:1055A0002A4D0822012149000B01B5FBF3F3984273
:1055B000264C3DD2013AF6D1B4FBF1F44B081F0260
:1055C000A0423DD2214E4B00012200E02346B6FB13
:1055D000F3F4A04202F1010503EB010426D2102DE1
:1055E0002A46F3D1F0221A4E1A4C18481A494FF4A1
:1055F0007A7505FB03F3B0FBF3F33360236823F004
:1056000008032360206820F47F2323F47F6343F49E
:1056100060233B431A4322600B681B07FCD50D4AED
:10562000136843F008031360F0BC70471201DAE717
:10563000B4FBF1F4CF01C3E7044C00270121BFE71D
:105640000B460022CFE700BFDF707200000E270775
:105650008039FF1F2C100B4024100B400120704795
:10566000F8B5054601F004FA064F064604E001F0DD
:10567000FFF9801BB84203D8A84704460028F6D19A
:105680002046F8BD20A107002DE9F041DFF8408059
:105690000E4FC8F80000054601F0EAF9064606E09C
:1056A00001F0E6F9801BB8420AD802F093FDA84742
:1056B00004460028F4D1C8F800002046BDE8F08177
:1056C0000023C8F800302046BDE8F08120A1070083
:1056D0004439FF1F38B504460F480D46FFF7C0FF99
:1056E00008B1002038BD0D4A0D4B15600D481C60F7
:1056F000FFF7B6FF0028F4D10B4A0C4B1168196074
:10570000196811601A68D207EBD51B6813F4702F63
:10571000E7D1012038BD00BF7555000008100B40CF
:105720000C100B405D55000030100B406439FF1F1A
:1057300030B5154B85B00D461968FFF7CBFF00B3A8
:10574000124A134B1268009219680191596802912C
:10575000083305F10F041B680393002301E051F89F
:10576000102C03F00301C9000133CA400DF1100EE3
:1057700023F003010F2B714404F8012DEFD1002316
:10578000EB7305B030BD00BF5039FF1F10100B4048
:1057900014100B4008B5074B07481968FFF79AFF2C
:1057A00030B1064B186880F48070C0F3002008BD4B
:1057B000012008BD5039FF1F00001A0D10100B40CA
:1057C000054B186810F0020005D01B68034818400C
:1057D000B0FA80F0400970476439FF1F00007F1164
:1057E000F8B5940700D143B91E491F4B602040F221
:1057F0004F1208701A600020F8BD07461B481D466E
:105800000E461446FFF740FF08BB194B19491A4AC8
:105810004FF0010E83F800E0184B08601B7814600D
:10582000EBB971022B041648164E174C174A184D47
:10583000316043F400730360256016481760FFF77A
:1058400023FF0028D7D1BDE8F840FFF7B9BF0549CD
:10585000054B29204FF4A97208701A60CBE7314636
:10586000E0E700BF0007FF1F4039FF1F955700000A
:105870007C39FF1F6439FF1F00100B404839FF1FA0
:1058800004100B4008100B4038100B400C100B405C
:1058900002007F118555000030B59307ADF5017DFD
:1058A00011D0154601236A461048FFF799FF0446B8
:1058B00080B1694628464FF4007200F00DFD204685
:1058C0000DF5017D30BD01230848FFF789FF04462F
:1058D0000028F4D10649074B3120002440F256221B
:1058E000087020461A600DF5017D30BD11003A1197
:1058F0000007FF1F4039FF1F10B59307ADF5007D6E
:105900000C4606D0114668464FF4007200F0E4FCE5
:105910006A46214601230748FFF762FF30B906496E
:10592000064B322440F2CE220C701A600DF5007D39
:1059300010BD00BF01003A180007FF1F4039FF1FCC
:105940002DE9F041940715D00646BBB115460C462B
:1059500001EB030801E0A04510D031682A460F682A
:1059600030462146B847013405F500750028F2D1CC
:10597000BDE8F0810748FFF733FF10B10120BDE813
:10598000F0810549054B31244FF41A720C701A60EE
:10599000BDE8F08137003A120007FF1F4039FF1FB2
:1059A0002DE9F041940715D00646BBB115460C46CB
:1059B00001EB030801E0A04510D031682A468F684A
:1059C00030462146B847013405F500750028F2D16C
:1059D000BDE8F0810748FFF703FF10B10120BDE8E3
:1059E000F0810549054B332440F2DE220C701A6029
:1059F000BDE8F08127003A190007FF1F4039FF1F5B
:105A0000F8B5044619480D46FFF72AFE38B1184983
:105A1000184B2920EC2208701A600020F8BD164FA0
:105A2000164B174ADFF878E0164E17494FF0010C75
:105A300087F800C01860154B1560154F154D164AB4
:105A4000CEF80040154837600D601A60FFF71CFE65
:105A500018B9FFF7B5FE00B1F8BD0549054B232085
:105A6000F62208701A600020F8BD00BF95570000AC
:105A70000007FF1F4039FF1F7C39FF1F6439FF1FDC
:105A800000100B4004100B4038100B400C100B4062
:105A90004000010002007F1111003A068555000008
:105AA00008100B4010B4074C074A08490848002367
:105AB000236014680C60096811605DF8044B037082
:105AC000704700BF38100B4030100B406439FF1F87
:105AD0007C39FF1F2DE9F04FAE4DAF48DFF834831E
