:1000000000000320D10100003D5300000153000017
:100010000153000001530000015300000153000090
:100020000153000001530000015300003D53000044
:100030003D530000015300003D530000F152000009
:100040003D5300003D5300003D5300003D53000070
:100050003D5300003D5300003D5300003D53000060
:100060003D5300003D5300003D5300003D53000050
:100070003D5300003D5300003D5300003D53000040
:100080003D5300003D5300003D5300003D53000030
:100090003D5300003D5300003D5300003D53000020
:1000A0003D5300003D5300003D5300003D53000010
:1000B0003D5300003D5300003D5300007D6F0000A4
:1000C0003D530000217700003D530000A97C000053
:1000D0003D530000D58200003D5300003D53000019
:1000E0003D5300003D5300003D5300003D530000D0
:1000F0003D5300003D5300003D5300003D530000C0
:10010000056400001D640000356400004D640000BB
:100110003D530000215900003D5300003D530000B5
:100120003D5300003D5300003D5300003D5300008F
:100130003D5300003D5300003D5300003D5300007F
:100140003D5300003D530000258800003D53000052
:100150003D5300003D5300003D5300003D5300005F
:100160003D5300003D5300003D5300003D5300004F
:100170003D5300003D5300003D5300003D5300003F
:100180003D5300003D5300003D5300003D5300002F
:100190003D5300003D530000858E00003D5300009C
:1001A0003D5300003D5300003D5300003D5300000F
:1001B0003D5300003D5300003D5300003D530000FF
:1001C0003D5300003D5300003D5300003D530000EF
:1001D0005C4B4CF2205210B51A804DF628121A8052
:1001E00000BF00BF05F0AEF8574B4FF030621A6009
:1001F000564A9A60564ADA60564B4FF470021A60BB
:10020000554B564A1A60564B1A6812F4807204D144
:1002100054490A604FF4A8521A60534B1A781107D8
:1002200003D51A7842F008021A70504B504C5148CE
:10023000AA221A70504A00239918A14203D21958D1
:1002400099500433F8E74D4B4D4900228B4202D2BE
:1002500043F8042BFAE74B484B4900235A581A50ED
:100260000433B3F5E87FF9D1484B494A802103F8BC
:10027000011B9342FBD1474B424A1A60464B8A22EC
:100280001A70A3F5805324225A70A0221A709A790A
:100290009207FCD59A79D406FCD4404B9A7902F0A7
:1002A0000C02082AFAD13E4B60221A7002331A78E7
:1002B000802AFCD1394B01221A715D225A719A7938
:1002C0009006FCD59979354A4906FBD5354B364918
:1002D00019600021596020231370937903F00C03F7
:1002E0000C2BFAD1314B324A1A60324B324A1A6027
:1002F00000225A60072243F8042C304AC3F80C2D20
:1003000062B605F093F9174B1B68DA0705D52C4840
:1003100005F094F82B4B2C4A1A602C4B1B785B068B
:1003200009D5284C284A2368934204D1244805F073
:1003300085F80023236009F0B3FE05F009F806F004
:10034000C9F9FEE70E20054030800440823F0400DA
:100350000100002B88ED00E0002008E0030000858C
:1003600010D0034014D0034002D0074000E0074003
:100370009C10FF1F880D01006007FF1F9C10FF1FCE
:10038000982AFF1F0002FF1F0000000000E400E0A9
:1003900064E400E008ED00E0005006400040064044
:1003A00001E007404480044000000602048004404D
:1003B000C010070014E000E01FBF02000000202072
:1003C000AB95B8581CE00340A5C3945A00F0074011
:1003D000FFFFFFFFFFFFFFFFFFFFFFFFFFFFFFFF2D
:1003E000FFFFFFFFFFFFFFFFFFFFFFFFFFFFFFFF1D
:1003F000FFFFFFFFFFFFFFFFFFFFFFFFFFFFFFFF0D
:10040000FFFFFFFFFFFFFFFFFFFFFFFFDEF9FFFF23
:1004100010B5054C237833B9044B13B10448AFF33E
:1004200000800123237010BD9C10FF1F00000000FE
:10043000800D010008B5064B1BB106480649AFF315
:1004400000800648036813B1054B03B1984708BD07
:1004500000000000800D0100A010FF1F9C10FF1F76
:100460000000000038B504460D46C8B2022105F070
:1004700053F82560642363604FF47A73A36000230C
:10048000237501232361204638BD00BF30B583B0FA
:100490000446164B1B680093009D007805F02EF86B
:1004A000E0B92369012B05D1104B1B680193019B17
:1004B000E36010E0E0682D1A63689D420AD9237D4D
:1004C0002BB1A068854294BF0220032003E00120E5
:1004D000207500E000200023236104E00020E0609C
:1004E00020750123236103B030BD00BFC025FF1F6D
:1004F0002DE9F0410C460E46CF18C1EB0208A01BB7
:10050000BC4209D0B4F5805F06DA204604F0B4FEA0
:1005100008F804000134F2E7BDE8F08138B504467C
:10052000002102460423FFF7E3FF05462368002B62
:100530001EDD20462946221D0423FFF7D9FF05446E
:100540002046294604F108020423FFF7D1FF0544A1
:100550002046294604F10C020423FFF7C9FF29189D
:10056000204604F110020423FFF7C2FF012038BD2A
:10057000002038BDF8B504460D4617461E460068F3
:1005800030B92046FFF7CAFF236803B3002829D0FB
:10059000691E03291DD8DFE801F002080E14042E9D
:1005A00019D163683B600120F8BD042E15D1A36802
:1005B0003B600120F8BD042E11D1E3683B600120AF
:1005C000F8BD042E0DD123693B600120F8BD002049
:1005D000F8BD0020F8BD0020F8BD0020F8BD0020C7
:1005E000F8BD0020F8BD00BFF8B50C460D46CE188A
:1005F000571A601BB44208D0B4F5805F05DA204674
:10060000395D04F04FFE0134F3E7F8BD70B50446E0
:1006100004250560002102462B46FFF7E5FF06464C
:100620002046314662192B46FFF7DEFF064420467E
:10063000314604F108022B46FFF7D6FF0644204658
:10064000314604F10C022B46FFF7CEFF311820464D
:1006500004F110022B46FFF7C7FF012070BD00BF59
:1006600010B504460023036043608360C3600361E8
:10067000FFF754FF40B900236360A3600A22E260E1
:1006800023612046FFF7C2FF204610BDF0B587B0BA
:1006900007460E4601AC144D0FCD0FC42B682360E6
:1006A000042E11D8DFE806F00305070A0D003A46CC
:1006B0000CE03A1D0AE007F1080207E007F10C021E
:1006C00004E007F1100201E000200BE006AB03EBB1
:1006D0008606384656F8141C0423FFF785FF0030C1
:1006E00018BF012007B0F0BDA8E3000038B54C1ECC
:1006F000032C1AD8DFE804F002070C11042B16D1E2
:10070000136843601BE0042B13D11368836016E069
:10071000042B10D11368C36011E0042B0DD11368B2
:1007200003610CE0FFF7B2FF38BD002038BD0020A8
:1007300038BD002038BD002038BD002038BD9DF8F0
:100740001030002BEED1012038BD00BF08B504F0F9
:100750004BFD0248FFF784FF08BD00BFB810FF1F24
:1007600010B5044600F580500C3005F03FFF2046E0
:1007700010BD00BF10B441F20C0281180023835455
:1007800000F58052106000F5006441F204028450CC
:1007900041F20802805000F58152136041F22402B8
:1007A000835041F22C02835441F228028350C82323
:1007B0004B73084B1B784BB100F580530C331B7BFC
:1007C00003F1604303F56443C8221A705DF8044BDB
:1007D000704700BFBC26FF1F2DE9F04F87B00446CD
:1007E0000391049205935FFA81FB5846012104F0BE
:1007F00093FE049A5FFA82FA5046012104F08CFEBF
:10080000059B5FFA83F94846012104F085FE109AA2
:100810005FFA82F84046012104F07EFE119BDBB2B4
:1008200001931846012104F077FE129AD7B2384698
:10083000012104F071FE139BDEB23046012104F069
:100840006BFE149AD5B22846012104F065FE159B73
:10085000DBB202931846012104F05EFE58460021E7
:1008600004F028FE5046002104F024FE48460021F2
:1008700004F020FE4046002104F01CFE01980021F7
:1008800004F018FE3846002104F014FE3046002122
:1008900004F010FE2846002104F00CFE029800210E
:1008A00004F008FE41F23003039AE25041F23403AF
:1008B000049AE25041F23803059AE25041F23C03B7
:1008C000109AE25004F58253119A1A6041F24403DF
:1008D000129AE25041F24803139AE25041F24C035B
:1008E000149AE25041F25003159AE25007B0BDE865
:1008F000F08F00BF08B5012241F22C03C25400F56D
:1009000080500C3002493B2205F058FE08BD00BF64
:10091000250C0000002241F22C03C254704700BF96
:100920003F299DBF41F22803C1500120002070479C
:1009300041F22803C058704738B5044641F2040517
:1009400040594FF4006204F0ADFB04F58053196880
:1009500062591A60615138BD41F20803C25841F230
:100960000403C3589A4205D13C221346013B7FF44D
:10097000FDAFFAE7012070472DE9F00F84B0804603
:10098000002200F5815B0BF1080B934D00F58053BD
:100990000833029300F5815704370397DBF80030E2
:1009A000934200F3058141F2300318F8033055F803
:1009B0003330012183F88010FAE0DDF80880D8F8A0
:1009C0000070DDF80C90D9F8008002EB881917F858
:1009D000099013F0010F0AD04FEA191908F1100815
:1009E00002EB881817F808804FEA181809E009F098
:1009F0000F0908F1100802EB881817F8088008F0B2
:100A00000F080F7855F8377087F80001DCF8007090
:100A10000197376849FA07F919F0010FDDF80490DA
:100A20005FFA89F755F837700CBF87F8800087F8B0
:100A30000001D4F80090376848FA07F717F0010F63
:100A40005FFA89F955F839700CBF87F8800087F88C
:100A500000010F7855F8377087F880000133022BBA
:100A6000ABD1D0460132402A98D141F24C031AF85A
:100A70000320594B53F83230012283F8002141F210
:100A80003C035AF8032041F224035AF8033013F0D0
:100A9000010FD2B2504B53F832304FF0010214BF65
:100AA00083F8802083F800210AF582531A6841F206
:100AB00024035AF8033013F0020FD2B2464B53F816
:100AC00032304FF0010214BF83F8802083F80021F8
:100AD00041F244035AF8032041F224035AF8033048
:100AE00013F0040FD2B23C4B53F832304FF00102F6
:100AF00014BF83F8802083F8002141F248035AF89C
:100B0000032041F224035AF8033013F0080FD2B245
:100B1000314B53F832304FF0010214BF83F880207C
:100B200083F800212C4A41F24C031AF8033052F8A2
:100B30003310012381F8803041F230011AF801109E
:100B400052F8312082F800310AF581531B68022BDC
:100B500006D0032B06D0012B0CBF0220012002E09F
:100B60001E2000E02D2041F2240258F8022001321C
:100B7000102A04D041F2240348F8032027E0002182
:100B800041F2240248F802100133042B04D008F586
:100B90008158C8F800301AE008F5815300221A6025
:100BA00008F580531A6841F2080348F803200EE064
:100BB000002308F582511031012008F5815C0CF109
:100BC000140C08F5815606F11804C246F5E604B087
:100BD000BDE8F00F704700BFEC06010038B50546D0
:100BE00000F580540C34204605F000FD2846FFF740
:100BF000C3FE41F22C03EB5C13F0FF0F0DD0002875
:100C00000BDB421E054B9A4207D8C0EB0010820056
:100C100020460349013A05F0D1FC38BD474444045D
:100C2000250C000008B50248FFF7D8FF08BD00BF3B
:100C3000CC10FF1F10B5054C2046FFF79BFD20464A
:100C40000349044A09F01CFA10BD00BFCC10FF1F75
:100C5000610700006007FF1F08B561F31F114FF423
:100C6000006209F085FD08BD10B504468023C0F878
:100C700000382023C0F804380021FFF7EDFF20469C
:100C800010BD00BF00290CDB002A0CDBD0F80038B7
:100C900099420ADAD0F804088242ACBF0020012051
:100CA000704700207047002070470020704700BF49
:100CB00070B505460C461646FFF7E4FF60B104EB3D
:100CC000D473B60106EB6306A85D14F0010F14BFE0
:100CD000000900F00F0070BD002070BDF8B505469A
:100CE0000C4616461F46FFF7CDFFA0B107F00F07D1
:100CF00004EBD472521002EB8613EB5C14F0010F7C
:100D000019BF03F00F0343EA071703F0F0031F4373
:100D100002EB8616AF55F8BD2DE9F04F85B00746BA
:100D2000894601930E9BD31802939A4235DA904676
:100D3000109B9B1A0393119B019AC2EB030B21E0BA
:100D40000BEB040548464146224600F0D5FD30B184
:100D5000384631462A46FFF7ABFF034605E04846D2
:100D60004146224600F07CFD0346384631462A467D
:100D7000FFF7B4FF01345445E2DB08F10108029BA0
:100D800098450ADA039E4644DDF804A00F9A92447F
:100D9000019B5345F1DA1C46D2E705B0BDE8F08F60
:100DA00008B504F045FB08BD2DE9F041ADF6980DFE
:100DB0009D4B1B6813F0010F0FD19B4804F0D2FA32
:100DC00058B19A4C204601F0F3FE974804F0D0FA4F
:100DD00020469749974A09F053F9974B1B6813F03F
:100DE000010F0FD1944804F0BDFA58B1934C20463E
:100DF00000F08AFF904804F0BBFA204690498D4AE3
:100E000009F03EF914A8FFF72FFF08A800F09EFC98
:100E10000CA800F09BFC8B4B1B680793079C04F00D
:100E2000C3F80546884B1B680BB9874B1C60874B82
:100E30001B680BB9854B1C60854801F00DFF00282D
:100E400062D07A4801F008FF00285DD10DF6580005
:100E50007F49012202F036F8744E9DF85C383371F8
:100E6000DDF86038B3609DF8643833730DF698038D
:100E700053F8337D58689968C6F80D70C6F81100AC
:100E8000C6F815101B7B7376DDF87438F3610DF628
:100E9000580001F09BFE304601F0DEFE40BB6C4E78
:100EA000304602F06DF80DF678003146012202F06E
:100EB00009F85E4B9DF87C281A71DDF880289A604D
:100EC0009DF884281A730DF6980252F8137D56681F
:100ED0009068C3F80D70C3F81160C3F81500127B59
:100EE0005A76DDF89428DA610DF6780001F06EFE8E
:100EF0004E4801F0B1FE20B150484C4900F016FFB9
:100F000002E0534801F09CFE524BA3FB042313F074
:100F1000200F05D10D20012104F0CCFA4E4E04E043
:100F20000D20002104F0C6FA4C4E4D48022105AABE
:100F30000423FFF71FFB059A012A0FD0022A25D0B0
:100F4000284603F06BFF0746284603F07DFF034663
:100F500010A844493A4609F051FE38E0284603F00B
:100F600065FF414B414A0928D4BF90469846284620
:100F700003F05CFF0746284603F066FF009010A8C8
:100F80003B4942463B4609F039FE20E0284603F043
:100F90004DFF354B354A0928D4BF90469846284620
:100FA00003F044FF0746284603F04EFF054604F0D1
:100FB00049F8304B304A00280CBF104618460095BF
:100FC000019010A82D4942463B4609F017FE2C48D7
:100FD0000CA910AA334600F0D7FD2148042106AA27
:100FE0000B46FFF7C7FA069B013B052B04D8DFE849
:100FF00003F0070B0F13174B41F28833069345E0BC
:1010000042F21073069341E043F6982306933DE0C5
:1010100047F23053069339E04EF66023069335E0ED
:10102000184B069332E000BF5422FF1FE421FF1F3C
:10103000CD2B00006007FF1F0422FF1F5821FF1F58
:101040001D1D0000C025FF1F5822FF1FC821FF1FC4
:101050002021FF1FD34D621088EB000090EB0000B1
:10106000B810FF1FA0EB00006C06010098EB000019
:10107000ACEB00009CEB000010060100B8EB000098
:101080004021FF1FC0D40100774B0693774B1A68AD
:10109000A21ABDF818309A4230D214A80021FFF7E6
:1010A000DBFD0CA800F082FB06460CA800F080FBDC
:1010B00005460CA800F07AFB04460CA800F078FB6B
:1010C00000960195C4F17F0303EBD3735B10029389
:1010D000C0F11F0000EBD0704010039014A80CA9C1
:1010E00000221346FFF718FE614C20460021FFF74F
:1010F00033FC204614A9FFF71FFCAAE05D4801F06D
:10110000ABFD002800F0A3805B4800F073FE0028D0
:1011100040F09480594B1B682BB1E51A564800F0FB
:10112000C1FE854205D95448524900F075FE534B23
:101130001C60514C204600F0B3FE014608A800F0A8
:1011400043FC14A80021FFF787FD204600F0B8FEFD
:10115000002834D10CA800F029FB06460CA800F0AA
:1011600027FB05460CA800F021FB04460CA800F064
:101170001FFB00960195C4F17F0303EBD3735B1053
:101180000293C0F11F0000EBD0704010039014A830
:101190000CA900221346FFF7BFFD08A800F006FBCC
:1011A000044608A800F004FB009401900023029379
:1011B000039314A808A91A46FFF7AEFD34E008A867
:1011C00000F0F4FA044608A800F0F2FA0094019046
:1011D00000240294039414A808A922462346FFF78A
:1011E0009BFD0CA800F0E2FA07460CA800F0E0FA1C
:1011F00006460CA800F0DAFA05460CA800F0D8FA6A
:1012000000970196C5F17F0303EBD3735B10029344
:10121000C0F11F0000EBD0704010039014A80CA97F
:1012200022462346FFF778FD114C20460021FFF7A8
:1012300093FB204614A9FFF77FFB0AE00D4801F05D
:10124000FFFC0A4B1C6000220C4B1A6001E0074BAC
:101250001C600CA800F084FB08A800F081FB0DF6D0
:10126000980DBDE8F08100BFE0930400C821FF1F86
:10127000CC10FF1FE421FF1F5821FF1F2022FF1F5A
:1012800010B5214B1B68022B04D0032B23D0012B5C
:1012900033D118E01D48FFF7F9F8032806D10322DF
:1012A000194B1A601A48FFF735FB29E01948FFF778
:1012B000EDF8012804D1144B186001F0F7F91FE094
:1012C000FFF772FD1CE0002001F0F0F9C0B9022226
:1012D0000D4B1A6014E00D48FFF7D8F801280FD124
:1012E0000A4C2046FFF7D2F80028FAD10222064B1A
:1012F0001A600748FFF7FEFA02E00222024B1A606A
:101300000A2004F07DF910BD6407FF1FCC21FF1FE8
:10131000CC10FF1FB021FF1F70B5ADF6480D04A81B
:1013200000F014FA08A8FFF79FFC6C4D284604A9AA
:101330006B4A002300F028FC04A800F037FA0446AA
:1013400004A800F035FA009401900124029403945B
:1013500008A804A900221346FFF7DEFC284604A9CA
:10136000604A002300F010FC04A800F01FFA0646B3
:1013700004A800F01DFA054604A800F017FA00962C
:101380000195C0F180000290039408A804A90022EE
:101390001346FFF7C1FC544803F066FE3C2003F0FF
:1013A00073FE642004F02CF903F056FE02284F4C23
:1013B00023685B68204614BF4D494E491B2298475D
:1013C000204605F031F9494803685B684A4917220D
:1013D00098474A48FE2101F049FC50B9434C236824
:1013E0005B682046464916229847204605F01CF9BE
:1013F00009E03E4C23685B68204642491422984726
:10140000204605F011F90DF628003C493E4A01231B
:1014100001F0DAFC3D4B9DF82C281A71DDF83028DC
:101420009A609DF834281A730DF6480252F8135D3D
:1014300054689068C3F80D50C3F81140C3F8150004
:10144000127B5A76DDF84428DA610DF6280001F0A7
:10145000BDFB224D284604A92D4A002300F094FB31
:1014600004A800F0A3F9044604A800F0A1F9009430
:101470000190012402940923039308A804A90022DF
:101480001346FFF749FC284604A9224A002300F02E
:101490007BFB04A800F08AF9054604A800F088F94F
:1014A0000095019002941123039308A804A9002237
:1014B0001346FFF731FC184C20460021FFF74CFA89
:1014C000204608A9FFF738FA642004F099F804A828
:1014D00000F046FA00200DF6480D70BD8021FF1F78
:1014E000C4EB0000CCEB0000A10D0000D426FF1FD0
:1014F000D8EB0000F4EB000010EC00000023FF1F0D
:1015000028EC000040EC000058EC00002021FF1FF8
:1015100060EC00006CEC0000CC10FF1F2DE9F041E6
:101520008CB008A800F012F94C4B1C1F03F11008F6
:101530000027012654F8045FEDB22846394603F02F
:10154000B9FF2846314603F0E7FF4445F2D144484D
:10155000032107AA0423FFF70DF8424C2046079900
:10156000FFF7DEF9002003F079FF0D20012103F0E1
:10157000D3FF08A84FF40D71072200F0F7F908A86F
:10158000394940F2B67200F0E9F808A8374940F24C
:10159000F11200F0EFF8364D28465E2108AA00F05F
:1015A000A1FB284633494FF4EB7200F071FA08A80A
:1015B00040F255110B2200F0D9F908A82E4940F24B
:1015C000597200F0CBF808A82C4940F2D91200F06B
:1015D000D1F82B4D28462B2108AA00F083FB284682
:1015E0002849D72200F054FA08A8CA21152200F091
:1015F000BDF908A8244940F6490200F0AFF808A850
:10160000224940F2222200F0B5F8214D28460F2150
:1016100008AA00F067FB28461E494B2200F038FA62
:1016200007230093062301930523029304230393C6
:10163000012304930023059320461321142215232C
:10164000FFF7CAF82046FFF755F9FFF765FE08A82F
:1016500000F086F90CB0BDE8F08100BF08F500008D
:10166000B810FF1FCC10FF1F78EC0000BCE3000097
:101670008021FF1FB0E90000B4FD0000D4E70000A6
:101680000822FF1F30F400001CF50000B0E5000048
:101690004021FF1F68FD000070B5204E304600F06D
:1016A000EFF91F4D1F4C30462946224608F0E8FC52
:1016B0001D4E304600F0E4F930462946224608F037
:1016C000DFFC1A4E304600F0DBF930462946224650
:1016D00008F0D6FC164E304600F0D2F930462946C6
:1016E000224608F0CDFC13481E21FEF7BBFE12482F
:1016F0001C21FEF7B7FE11481D21FEF7B3FE10486E
:101700001B21FEF7AFFE0F4D284601F051FA284687
:101710000D49224608F0B4FC70BD00BF4021FF1FF8
:10172000D11C00006007FF1F8021FF1F0822FF1F40
:101730009821FF1FB021FF1F2422FF1F3C22FF1F03
:10174000CC21FF1F2021FF1FCD2B000000220260B3
:101750004260028142818281C281704710B58389D3
:10176000448904FB03F39A4202D1006803F09AFC17
:10177000002010BD10B5C389448904FB03F39A42CD
:101780000AD0084C23685B68204607491622984710
:10179000204604F049FF02E0406803F083FC00208B
:1017A00010BD00BFD426FF1F10050100008970473F
:1017B0004089704708B583894289006861F31F1129
:1017C00002FB03F208F0D4FF08BD00BF08B583890F
:1017D00042890068002102FB03F208F0C9FF08BD3E
:1017E00008B5C38942894068002102FB03F208F072
:1017F000BFFF08BD00290ADB002A0ADB03899942E2
:1018000009DA40898242ACBF0020012070470020E5
:101810007047002070470020704700BFF8B50546AC
:101820000C4617461E46FFF7E5FFB8B104EBD4722D
:10183000AB8907FB03F707EB620229688B5C14F0A6
:10184000010F05D003F00F0343EA0616F6B204E0D9
:1018500023F00F0306F00F061E438E54F8BD00BFA1
:1018600070B505460C461646FFF7C4FF78B104EB89
:10187000D472AB8906FB03F62B6803EB6203985D19
:1018800014F0010F14BF000900F00F0070BD00201C
:1018900070BD00BFF8B505460C4617461E46FFF75B
:1018A000A9FF28B32346002CB8BFE31DEA8907FB34
:1018B00002F202EBE30269688B5C66B10D480440FA
:1018C00003D5013C64F007040134012000FA04F45C
:1018D0001C43E4B20BE00748044003D5013C64F02C
:1018E00007040134012000FA04F423EA04048C54B0
:1018F000F8BD00BF0700008070B505460C461646CF
:10190000FFF778FFD0B16B68D3B12246002CB8BF87
:10191000E21DE98906FB01F603EBE20309490C40ED
:1019200003D5013C64F007040134012202FA04F4F7
:101930009B5D23420CBF0020012070BD012070BDC3
:10194000012070BD0700008010B50446006808B192
:1019500004F0CCFE606808B104F0C8FE10BD00BF02
:1019600010B50446FFF7F0FF204610BD70B50446E1
:101970000D461646FFF7E8FF05F0010305EBD570AD
:1019800003EB600080B2A08115F0070318BF0123AC
:101990002A46002DB8BFEA1D03EBE203E38125814F
:1019A000668106FB00F004F09DFE2060E08906FBE6
:1019B00000F004F097FE60602046FFF707FF204626
:1019C000FFF70EFF70BD00BF38B504460D4609890C
:1019D0006A89FFF7CBFF296811B90023236007E06C
:1019E0006389A28902FB03F2204692B2FFF7B6FE9A
:1019F000696811B90023636007E06389E28902FB2B
:101A000003F2204692B2FFF7B5FE204638BD00BF74
:101A100030B583B005460C4608466946022201F0FF
:101A2000E5F820460DF10201022201F0DFF8204620
:101A300001A9022201F0DAF820460DF10601022286
:101A400001F0D4F82846BDF80010BDF80220FFF7D9
:101A50008DFF6B89AA8902FB03F22046296892B2A6
:101A600001F0C4F8BDF8063043B16B89EA8902FB86
:101A700003F22046696892B201F0B8F803B030BDB5
:101A800010B50446FFF762FE00232361204610BD17
:101A900038B51546838A03EB83039A420FD00A4C6C
:101AA00023685B68204609490E229847204629464C
:101AB00004F006FE204604F0B7FD002038BD0069A2
:101AC00003F0F0FA012038BDD426FF1F28050100DD
:101AD00010B4828AB2B1006903788B4208D104E065
:101AE000184613F8052B8A4208D1B0F801000AE025
:101AF000431D013A94B204EB84041C44A342EFD189
:101B0000002000E000205DF8044B704730B4848A68
:101B1000BCB1026913788B4215D0531D013CA5B2AC
:101B200005EB85051D44002004E01A4613F8054B1B
:101B30008C4209D0B2F80120104480B2AB42F4D1FB
:101B400002E0002000E0002030BC704710B4828A20
:101B5000B2B1006903788B4208D104E0184613F84B
:101B6000052B8A4208D1B0F803000AE0431D013A70
:101B700094B204EB84041C44A342EFD1002000E0A3
:101B800000205DF8044B70472DE9F04F89B00490B8
:101B90008A4605929946104609F0D0F8471E00245F
:101BA0002646DDF81080DDF814B00CE01BF8045078
:101BB00040462946FFF78CFF064440462946FFF77A
:101BC000C5FF361A0134BC42F0DB27EAE7770498F8
:101BD000059AD15DFFF77CFF0644DDF810B058464A
:101BE000FFF7E6FD024650463146FFF7BFFE0023F1
:101BF000039306934F465BE0DDF80C90059A12F8CC
:101C0000094004982146FFF763FF07908046049837
:101C10002146FFF77BFF009000268044069B01933E
:101C200002902CE087B117F809302D2B0CD15046CB
:101C3000294632460023FFF7F1FD50462946324639
:101C40000123FFF727FE15E0584621463246FFF7ED
:101C500007FE0346504629463246FFF7DFFD584649
:101C600021463246FFF748FE034650462946324693
:101C7000FFF710FE013401354445D3DB01365846E9
:101C8000FFF796FD864205DA009A4245F6DA019D95
:101C9000029CC7E7069C079B1C440498059A12F80F
:101CA0000910FFF753FF241A0694039B0133039393
:101CB000059809F043F8039A82429DDB504609B02B
:101CC000BDE8F08F08B5006908B104F00FFD08BD4C
:101CD00010B50446FFF7F6FF2046FFF741FE204609
:101CE00010BD00BF70B504460D461646FFF7EAFF6B
:101CF00020463146FFF768FEA58205EB850004F01B
:101D0000F1FC206170BD00BF10B504461830FFF72C
:101D10001DFD002323826382204610BD10B50446BA
:101D20001830FFF71DFE204610BD00BF2DE9F0431F
:101D300083B006460C4608460DF10201022200F06F
:101D400055FF204601A9022200F050FF20460DF168
:101D50000601022200F04AFFBDF80630002B36D003
:101D60000027022506EB050906F104082046314646
:101D70002A4600F03BFF204649462A4600F036FF3F
:101D8000204641462A4600F031FF2046B11D2A4632
:101D900000F02CFF204606F108012A4600F026FF3D
:101DA000204606F10A012A4600F020FF204606F1EF
:101DB0000C012A4600F01AFF204606F10E012A46C1
:101DC00000F014FF0137BDF80630BB42CEDC33888B
:101DD000003318BF0123B3827389003318BF012376
:101DE000F382BDF80430338200237382012003B0F4
:101DF000BDE8F083428A038A9A4208D1C08A03B2BE
:101E0000032B06D0D3F1010038BF0020704700201B
:101E100070470120704700BF10B50446B0F9143078
:101E2000012B0CBF022303238382428A038A9A4236
:101E300006D1B0F9160001280CBF02200320E08271
:101E4000B4F9140002280BD1A088012808D1183455
:101E50002046FFF7BBFC2046FFF7C2FC012010BD67
:101E60009A4208D204F11800FFF7D2FD638A0133C9
:101E70006382012010BDB4F91630022B0BD1E38927
:101E8000012B0AD118342046FFF7A0FC2046FFF7AB
:101E9000A7FC012010BD002010BD002010BD00BF18
:101EA00018307047B0F91430022B01D10088704708
:101EB000B0F91630022B0CBF4089C088704700BFB4
:101EC000B0F91430022B01D140887047C38A023B1D
:101ED0009BB2012B94BF80890089704710B50446DE
:101EE0004368002B03DD806808B104F0FFFB204647
:101EF00010BD00BF10B504464368002B03DD8068A9
:101F000008B104F0F3FB204610BD00BF10B5044635
:101F10004368002B03DD806808B104F0E7FB20462E
:101F200010BD00BF10B504464368002B03DD806878
:101F300008B104F0DBFB204610BD00BF2DE9F043E3
:101F40008BB005460E4606A8FFF700FC03F02CF800
:101F5000804606A880210922FFF708FD06A8012176
:101F6000FFF728FC06A8FFF721FC044606A8FFF7A8
:101F70001FFC00940190002402940394284606A9B3
:101F800022462346FEF7C8FE244F384606A93246AD
:101F90002346FFF7F9FD06A8FFF708FC064606A84A
:101FA000FFF706FC0096019001260296039628464C
:101FB00006A922462346FEF7AFFE404602F02EFF5A
:101FC0008146404602F040FF034604A814494A46B1
:101FD00008F014FE384606A904AA2346FFF7D4FDEC
:101FE00006A8FFF7E3FB804606A8FFF7E1FB0746DC
:101FF00006A8FFF7DBFBCDF800800197C0F1800059
:1020000002900396284606A922462346FEF784FE40
:1020100006A8FFF7A5FC0BB0BDE8F0838021FF1FE9
:10202000A0EB00002DE9F04188B004460E4604A85C
:10203000FFF78CFB04A81C210922FFF797FC04A8DA
:102040000121FFF7B7FB04A8FFF7B0FB054604A882
:10205000FFF7AEFB0095019002230293172503952D
:10206000204604A900221346FEF756FE04A8FFF7F7
:102070009DFB074604A8FFF79BFB009701902223D6
:1020800002930395204604A900221346FEF744FE5E
:1020900004A8FFF78BFB074604A8FFF789FB00970E
:1020A0000190422302930395204604A9002213467F
:1020B000FEF732FE04A8FFF779FB074604A8FFF7F6
:1020C00077FB00970190622302930395204604A9B1
:1020D00000221346FEF720FE344F384604A932682A
:1020E0000023FFF751FD04A8FFF760FB054604A895
:1020F000FFF75EFB009501900423029318250395DA
:10210000204604A900221346FEF706FE384604A91D
:1021100072680023FFF738FD04A8FFF747FB8046ED
:1021200004A8FFF745FBCDF800800190242302931B
:102130000395204604A900221346FEF7EDFD38461C
:1021400004A9B2680023FFF71FFD04A8FFF72EFBC8
:10215000804604A8FFF72CFBCDF8008001904423B3
:1021600002930395204604A900221346FEF7D4FDEE
:10217000384604A9F2680023FFF706FD04A8FFF71C
:1021800015FB064604A8FFF713FB00960190642395
:1021900002930395204604A900221346FEF7BCFDD6
:1021A00004A8FFF7DDFB08B0BDE8F0818021FF1F28
:1021B0002DE9F04788B005460C461646994604A816
:1021C000FFF7C4FA5648FEF761F982465548FEF714
:1021D0005DF980465448FEF759F907465348FEF723
:1021E00055F91EB1D9F8003051490B60B8F1010F13
:1021F00008D14F4B1B6861680139994202DD0133F8
:102200004B490B60012F06D1494B1B68002B02DDA7
:10221000013B47490B60012806D0BAF1010F14BFFA
:1022200000266FF0000604E0414B1B68C9F800303F
:10223000012628462168FFF781FE3D4B1B68002BD5
:1022400017DD3C4804A93C4A0023FFF79DFC04A885
:10225000FFF7ACFA074604A8FFF7AAFA0097019027
:10226000002302930B220392284604A91A46FEF784
:1022700053FD6368013B2E4A126893421EDD2D48D0
:1022800004A92E4A0023FFF77FFC04A8FFF78EFA6B
:10229000804604A8FFF78CFA074604A8FFF786FAE1
:1022A000CDF800800197C0F1800002900B230393CA
:1022B000284604A900221346FEF72EFD1C4B1A687F
:1022C000A3681C4804A953F822200023FFF75CFCF4
:1022D00004A8FFF76BFA804604A8FFF769FA0746DF
:1022E00004A8FFF763FACDF800800197C0F18000E1
:1022F00000EBD0735B1002930B230393284604A9D1
:1023000000221346FEF708FD284604F10C01FFF7F2
:1023100089FE04A8FFF724FB304608B0BDE8F0872B
:10232000B021FF1F2422FF1F3C22FF1FCC21FF1FD3
:10233000E422FF1F0822FF1F580501005C05010071
:102340002DE9F0478CB004468A46164604A8FFF7EC
:10235000FDF9584B0FCB0CAD05E90F005648FEF7C1
:1023600095F805465548FEF791F881465448FEF722
:102370008DF880465348FEF789F80746BAF1000FFA
:1023800002D03368504A1360012D05D14F4831689F
:10239000FEF7C6FA002500E0012529F00209B9F18F
:1023A000010F08D1484B19683E2904DC013119603E
:1023B0004648FEF7B5FA28F00208B8F1010F08D137
:1023C000414B1968002904DD013919603F48FEF7C7
:1023D000A7FA012F03D13C4B1B6833600025204630
:1023E0003B49FFF7ABFD04A844210822FFF7BEFAE2
:1023F00004A80521FFF7DEF904A8FFF7D7F9064680
:1024000004A8FFF7D5F9009601901E2302930C2330
:102410000393204604A900221346FEF77DFC04A87E
:1024200042210622FFF7A2FA04A80021FFF7C2F911
:1024300004A8FFF7BBF9064604A8FFF7B9F9009610
:1024400001901F2302930D230393204604A9002229
:102450001346FEF761FC04A840210422FFF786FA28
:1024600004A80F21FFF7A6F904A8FFF79FF9002899
:10247000B8BF3F308311144A166806FB033604A820
:10248000FFF796F900960190202302930E23039301
:10249000204604A900221346FEF73EFC204608A968
:1024A000FFF7C0FD04A8FFF75BFA28460CB0BDE8B3
:1024B000F08700BF38050100B021FF1F2422FF1F55
:1024C0003C22FF1FCC21FF1FFC22FF1FCC10FF1F4F
:1024D000600501002DE9F04F91B005460E46174604
:1024E0009A4608A8FFF732F9614C94E80F0010AC47
:1024F00004E90F005F48FDF7C9FF83465E48FDF71A
:10250000C5FF81465D48FDF7C1FF80465C48FDF789
:10251000BDFF04463FB1DAF800005A4902F0AAFBB9
:102520000022594B1A60BBF1010F14BF00276FF056
:10253000000729F00209B9F1010F1BD1524B1B68AA
:1025400063B9504B9B780133DBB2172B02D84D4A4D
:1025500093700FE000224B4B9A700BE0494B5B7875
:102560000133DBB23B2B02D8464A537002E0002213
:10257000444B5A7028F00208B8F1010F1BD1424BAE
:102580001B6863B93F4B9B78013BDBB2172B02D82A
:102590003C4A93700FE017223A4B9A700BE0394B8C
:1025A0005B78013BDBB23B2B02D8364A537002E02A
:1025B0003B22344B5A70012C0ED1334B1B681BB994
:1025C0000122314B1A6007E02E480023037002F00D
:1025D0004FFCCAF80000012728462C49FFF7AEFC43
:1025E0001EB92B4EDFF8C08001E02A4EB046254CC4
:1025F00005A82949A278637808F000FB224B1B68E4
:10260000264808A905AA002B14BF43463346FFF706
:10261000BBFA08A8FFF7CAF8064608A8FFF7C8F8EB
:10262000044608A8FFF7C2F800960194C0F18000A4
:1026300000EBD0735B1002930B230393284608A989
:1026400000221346FEF768FB0F4B1968144A154B1E
:10265000002908BF13460F9328460CA9FFF7E2FC98
:1026600008A8FFF77DF9384611B0BDE8F08F00BF2C
:1026700048050100B021FF1F2422FF1F3C22FF1F3D
:10268000CC21FF1FF022FF1F7C22FF1F94050100B9
:10269000740501006C050100A00501000822FF1F60
:1026A000840501008C0501007C05010030B5ADF604
:1026B0001C0D044604A8FEF7D7FA04B3834C204649
:1026C0000121834A0423FDF755FF20460221814A58
:1026D0000423FDF74FFF204603217F4A0423FDF723
:1026E00049FF204604217D4A0B46FDF743FF0022A7
:1026F0007B4B1A6001237B4A13707B4A1370794B22
:102700001B78002B4FD0784C04A878492278744B62
:10271000FFF74EFD00232370002800F0BD80B0F1CC
:10272000FF3F00F0BB800122227000226D4B1A7027
:102730006B4B1B68042B32D8DFE803F0030E161E28
:10274000290002F031FC6A4B186004A80021012224
:10275000FFF7C0FE0125ACE004A8664901225C4BEE
:10276000FFF726FD0125A4E004A863490122594B87
:10277000FFF71EFD01259CE06048FEF7D9F8564A98
:10278000106004A80121FFF7DBFD012591E004A8FA
:102790005B490122514BFFF70BFD012589E0012523
:1027A000504B1D7085E04E4B1B68042B70D8DFE842
:1027B00003F00320354A5B00524B1B6803930399D7
:1027C000514BA3FB012104A8C1F340110022484B47
:1027D000FFF780FE002863D0012806D1444C206812
:1027E00002F0C2FB206802F029FE01253D4B1D705E
:1027F0005FE004A83F490022354BFFF7D9FC0028D1
:1028000050D0012806D1012100913048304A0423DC
:10281000FDF76CFF0125334B1D704AE004A83649D3
:1028200000222C4BFFF7C4FC00283DD0012806D124
:10283000009026480221274A0423FDF757FF01256F
:10284000284B1D7035E004A80021234AFFF778FDCE
:1028500060BB012500951D4803211F4A0423FDF795
:1028600045FF204B1D7024E004A8254900221B4B86
:10287000FFF79EFCE0B1012806D100901348042127
:10288000164A0B46FDF732FF0125164B1D7010E06E
:102890000125144B1D700CE001250AE0002508E01D
:1028A000012506E0012504E0012502E0012500E004
:1028B0000125124C20460021FEF74EF8204604A9BF
:1028C000FEF73AF828460DF61C0D30BDB810FF1F74
:1028D000A422FF1FEC22FF1FA822FF1F7822FF1F48
:1028E000A022FF1F8022FF1FF822FF1FAC22FF1F24
:1028F000E822FF1F5C22FF1FC822FF1FCC10FF1F12
:102900008422FF1FC025FF1FD34D62102DE9F04721
:10291000142003F0E7FE414B986005225A60404ABC
:102920001A60404A02609A68DFF86081C2F8048049
:102930009A68DFF85CA1C2F808A09A683A49D160A9
:10294000DFF85091C2F81090384FDF60384E1E61AA
:10295000384D5D61384A9A61384C184638492246EC
:1029600007F08EFB082003F0BDFE364B9860022274
:102970005A60C3F80080344A02609A683349516053
:10298000DF601E615D61DFF81081C3F818801846B2
:102990002F49224607F074FB0C2003F0A3FE2D4BB9
:1029A000986003225A60C3F800A02B4A02609A681C
:1029B0002A4951609A682A499160DF601E615D6111
:1029C000C3F8188018462749224607F059FB1C20F7
:1029D00003F088FE244B986007225A60C3F80090E9
:1029E000224A02609A68224951609A68214991609E
:1029F0009A682149D16021491161214951612149D8
:102A00009161DF601E615D61C3F8188018461E4940
:102A1000224607F035FBBDE8F08700BFAC22FF1F60
:102A2000AC0501009405010060050100D40501001A
:102A3000DC05010084050100E40501006007FF1FBB
:102A4000251F00005C22FF1FEC050100F0050100BE
:102A50000D1F0000C822FF1FF4050100FC05010046
:102A600004060100F51E00008422FF1F1406010069
:102A7000200601002C060100380601004406010072
:102A8000500601005C060100DD1E0000B8050100D3
:102A9000BC050100C80501008C05010010B582B01D
:102AA00002AB03F8011D0268546819460122A047D1
:102AB00002B010BD10B50446C3691BB901230371F0
:102AC000002010BD00201871E06992B201F0ECFC0A
:102AD000E3691B7913B101232371002010BD00BFEE
:102AE00000B583B0C06960B10DF10701012201F0AA
:102AF00041FA01280CBF9DF807004FF6FF7000B2A5
:102B000001E04FF0FF3003B05DF804FB30B583B057
:102B10000446C06978B10DF10701012201F02AFADB
:102B200001280AD19DF80750E069C168013901F018
:102B30000FFB284603E0002001E04FF0FF3003B018
:102B400030BD00BF08B5C06908B101F039FB08BD50
:102B50002DE9F04104460E469046002303714FF4E0
:102B60007A7282600373114B0360242007F0C0FA6D
:102B7000E061B8B13546074606F1200E3E462868AA
:102B80006968AA68EB680FC6103537467545F5D1F8
:102B90002868306004F10D0041460C2208F0FEF870
:102BA000002363762046BDE8F08100BF9006010057
:102BB000002202714FF47A71816002730249016050
:102BC000C2614273704700BF90060100014B036071
:102BD000704700BF90060100C3692BB198790128A6
:102BE00094BF0020012070470020704708B5C069DD
:102BF00010B101F0BFF908BD002008BDC3690BB1D9
:102C0000D86870474FF0FF30704700BFC3690BB101
:102C1000986970470020704738B50446C36963B1AE
:102C2000FFF7F4FF05462046FFF7E8FF281A47F6AE
:102C3000FF73984228BF184638BD002038BD00BF3A
:102C400010B50446C06930B101F0E6FAE06907F05A
:102C500057FA0023E36110BDC36923B198790030AE
:102C600018BF012070470020704700BF38B50446E8
:102C70000A46FE290CD1FE23037000F003FB054633
:102C800000F0ECFAA070D5F1010038BF002002E09E
:102C9000012100F05BFEA8B1251D28462146012236
:102CA00001F0DEFE28B928462146002201F0D8FEB8
:102CB00050B104F12C00294601F032F9003018BF60
:102CC000012038BD002038BD002038BD2DE9F04F6F
:102CD00099B081469346019300238DF81C30394A00
:102CE00006928DF81E308DF840300F928DF84230EC
:102CF00006A8043101F014F95C460FAE06AD4FF0A2
:102D00002F084FF0000A2CE023782F2B01D101343B
:102D100027E03F1BFFB20C2F28BF0C2702A821463B
:102D20003A4608F03BF818AB3B4403F858AC304641
:102D300001F072FA3046294602AA012301F01EFB77
:102D400040B9002389F804301E4AC9F8002089F8E8
:102D5000063032E03C44284601F05EFA2B46354608
:102D60001E462046414607F06FFF07460028CBD19C
:102D7000CBEB0404019B1C602B7989F80430114BC8
:102D8000C9F800306B7989F80530AB7989F80630DD
:102D9000AB68C9F80830EB68C9F80C302B69C9F882
:102DA00010302B7D89F81430AB69C9F81830EB6905
:102DB000C9F81C302B6AC9F82030484619B0BDE864
:102DC000F08F00BFB8060100F0B5A7B00446154665
:102DD0001F4602A801ABFFF779FF01996E18695CE5
:102DE00019BB9DF80C308DF85430344B14939DF87A
:102DF0000D308DF855309DF80E308DF85630049B0F
:102E00001693059B1793069B18939DF81C308DF81D
:102E10006430089B1A93099B1B930A9B1C932046C2
:102E200014A9274AFFF794FE45E000218DF83010E1
:102E3000224B0B938DF832109DF80E301BB92046B3
:102E4000FFF7B6FE37E00BA802A932463B4601F079
:102E500095FA18B92046FFF7ABFE2CE002A801F066
:102E6000DBF917F0060F03D00BA8119901F070F9E8
:102E70009DF830308DF87830104B1D939DF831302F
:102E80008DF879309DF832308DF87A300D9B1F9394
:102E90000E9B20930F9B21939DF840308DF8883036
:102EA000119B2393129B2493139B259320461DA9CA
:102EB0003246FFF74DFE204627B0F0BDB8060100B0
:102EC000A8060100F0B59FB006460D46174649E03A
:102ED0009DF810401CB93046FFF76AFE4BE0E52C28
:102EE00040D02E2C3ED09DF81B1011F0080F39D188
:102EF00000238DF83430214A0C928DF8363004A826
:102F0000694600F0ADFF0CA8E9696A463B4601F04E
:102F100035FA18B39DF834308DF85830174B1593A7
:102F20009DF835308DF859309DF836308DF85A308F
:102F30000E9B17930F9B1893109B19939DF8443089
:102F40008DF86830129B1B93139B1C93149B1D934D
:102F5000304615A96A46FFF7FBFD0CE03046FFF747
:102F600027FE08E0E86904A901F0AAF80028AFDC10
:102F70003046FFF71DFE30461FB0F0BDB806010019
:102F800010B50446FFF728FE18B1E36900229A60E5
:102F9000DA6010BD064B00229A700221596083F856
:102FA000242083F830200349D96283F83220704707
:102FB0000023FF1FB806010040F24343074A136095
:102FC000043213604FF488610432116004321360DC
:102FD0000432136004321360704700BF00D0044015
:102FE0000023064A13600432136004321360043273
:102FF00013600432136004321360704700D0044041
:10300000114B196821F008021A60104A0A40104357
:1030100040F460221A60083B1B6813F0080F07D1C8
:103020000B4B0C490A6812F0080F01D1013BF9D192
:1030300040F4602242F00802034B1A6004331A681D
:1030400042F480121A6070472C100B400700F0FF0A
:10305000FFFF0F0024100B40224B1A6842F0800241
:103060001A60214A136813F0010FFBD1136813F0A3
:10307000020FF7D11D4B18604FF0807319481C499F
:103080000268013B0A4002D1002BF9D102E00BB1EA
:10309000012A08D0134A136843F4702343F0010354
:1030A0001360012070470F4B1B6813F0800F06D090
:1030B0000C4B1A6842F001121A6003207047094B4A
:1030C0001B6813F4803F06D0064B1A6842F00112C9
:1030D0001A6005207047034B1A6842F001021A601B
:1030E0000020704730100B4024100B400C100B4098
:1030F00001000E00F8B50022104B1A601048FFF7CF
:10310000ABFF63240F4D0D4F0D4E06E000233B60D7
:103110003046FFF7A1FF013C06D02B6813F0040FE7
:1031200008D00028F2D0F8BD30B90CB10020F8BDAD
:103130000520F8BD0028F9D0F8BD00BF08100B40ED
:103140000000DB0C24100B4010B504460022094B94
:103150001A600948FFF780FF50B9084B1B68054B00
:103160001C600748FFF778FF18B9044A126810BDC1
:1031700010BD10BD08100B4000001A3710100B4096
:103180000000022908B52D4B1A6842F400321A607B
:1031900008331A6842F400521A6004331A6842F085
:1031A00002021A6004331A6842F002021A60244BC9
:1031B0001A6822F001021A60FFF712FF214A224B1F
:1031C0001A601A46136813F0807FFBD100221F4B50
:1031D0001A604FF48132BC3B1A60282224331A60F3
:1031E0004FF010121C331A604FF46060FFF708FFB5
:1031F000174A136813F0030FFBD1FFF7DDFE4FF6FC
:10320000FF72144B1A60144A04331A60083B1A68A0
:1032100042F000621A601A46136813F0006FFBD187
:103220000C4B1A6842F080021A600C3B1B6803F4D6
:103230008033002B0CBF0220002008BD30800440EA
:1032400000D00040008000012C100B40C0100B404B
:1032500024100B4030100B40BB007F11084B1B7833
:103260004BB9074B9B7843B1054B5B78002B14BFE0
:10327000032002207047002070470120704700BFE4
:103280005423FF1FF8B5FFF77DFF834B1870002212
:103290005A605A709A709A60002840F0FC8010467C
:1032A0007E4B1A60FFF7D8FE50B97D4B1B684FF478
:1032B000D5727A4B1A607B48FFF7CEFE20B111E041
:1032C0000120754B1870F8BD754B1A681B68B3F573
:1032D000D57F03D00120704B1870F8BD01226E4BD2
:1032E0005A7005E0052803D001206B4B1870F8BD1B
:1032F0000020FFF729FF18B10120674B1870F8BDB7
:10330000674B1B6813F4401F1FD0634B5B78002B87
:10331000654D08BF4FF440150024614E634F0134E2
:103320002846FFF711FF002840F0A7803368002BE4
:10333000C0F2A580BC42F2D104E0594B1B6813F0E7
:10334000804F02D10022544B5A700022534B1A6016
:103350005748FFF781FE48B9514B1B6800224F4B7D
:103360001A605448FFF778FE20B111E001204A4B63
:103370001870F8BD4A4B1A681B681B0C1B04464AA0
:103380005360464A13604C48FFF766FE20B17BE06D
:103390000120414B1870F8BD484B1A68120E3E4B85
:1033A000DA70474B1B6813F4400F16D1434B196872
:1033B000186800F00300043B1A681B68920D42EA8B
:1033C00080220132C3F3C21302339A40C1F30323B4
:1033D000093B9A40304B9A6009E02F4B01229A70CA
:1033E000384A1268C2F31522013292029A602A4BBF
:1033F0005A682A4B1A603448FFF72EFE50B9284B02
:103400001B684FF40072254B1A603048FFF724FE0A
:1034100020B10FE00120204B1870F8BD204B1B6835
:103420001D4B5A681D4B1A602948FFF715FE0028EE
:103430002ED103E00120184B1870F8BD184B1B6803
:103440000222164B1A602348FFF706FE00BB144BFE
:103450001B68214B1A6822F006021A601A6842F0B3
:1034600002021A60FFF7BCFD4FF44470FFF7C8FD7D
:10347000FFF7A2FD084B1878F8BD0120F8BD174BE7
:103480009C423FF65FAF58E70120034B1870F8BD30
:103490000120014B1870F8BD5423FF1F08100B408A
:1034A00010100B4000001A0800003040A0860100F8
:1034B0000000090200001A030000090918100B405F
:1034C0001C100B4014100B4000001B0700001A10CA
:1034D00000001A3700001A0628100B409F860100D2
:1034E00070B50446364B1B78002B65D1344B5B78A6
:1034F00003B949024FF6FF72324B1A60283B19603C
:103500004FF48132043B1A602F48FFF7A5FD0028D5
:1035100054D12E4B1B682B4A136843F020011160D5
:1035200013F4E00F12D007E02B6843F020062E6062
:10353000403213F4E00F0FD043F4E00343F02003D4
:10354000204A1360FFF7D6FD01202CE0224604F547
:10355000E0701F4C1F491B4D236813F4006FFBD014
:103560000B6813600B6853600B6893600B68D36043
:103570000B6813610B6853610B6893610B68D3612F
:103580000B6813620B6853620B6893620B68D3621B
:103590000B6813630B6853630B6893630B68D36307
:1035A0008242C1D10020074A136813F0020FFBD0FA
:1035B000094A044B1A6070BD032070BD70BD00BF86
:1035C0005423FF1F30100B4010003A1110100B4015
:1035D00024100B4020100B402200000170B506465D
:1035E0002D4B1B78002B53D12B4B5B7803B9490231
:1035F0004FF6FF72294B1A60283B19604FF4813255
:10360000043B1A602648FFF727FD002842D1254BCE
:103610001B6806F50070214D234C2B6813F0100F2A
:10362000FBD02B6813F4E00F0AD01C4A136843F454
:10363000E00343F010031360FFF75CFD01201EE080
:1036400006F14001334653F8042B22608B42FAD135
:1036500040362B6843F010032B602B6813F4E00F07
:103660000AD00E4A136843F4E00343F010031360DA
:10367000FFF740FD012002E08642CED10020074A3C
:10368000136813F0020FFBD0084A044B1A6070BD98
:10369000032070BD70BD00BF5423FF1F30100B40CE
:1036A00000003A1810100B4020100B4012000001CF
:1036B000084B1A6842F480621A604FF00042DA62E6
:1036C000FF225A631A46D36A002BFCDA014B986B2F
:1036D000C0B2704700C00240064B1A6842F48062D4
:1036E0001A604FF00042DA6258631A46D36A002B20
:1036F000FCDA704700C0024008B505281CD8DFE896
:1037000000F003070B0F13170E4A0F4B1A6016E059
:103710000C4A0D4B1A6012E00C4A0B4B1A600EE07B
:103720000B4A094B1A600AE00A4A074B1A6006E086
:10373000094A054B1A6002E0084A034B1A6001F07F
:1037400029FA08BD000001B86423FF1F01100038EA
:1037500003200038010002380430003806500138D8
:1037600008B50078012101F0A5FE164B1B78002B4F
:1037700027D00022134B1A70134B1B780BB313F096
:10378000010F03D0114B1A68114B1A600E4B1B78B6
:1037900013F0020F03D00D4B5A680E4B1A600A4B00
:1037A0001B7813F0040F03D0084B9A680A4B1A6079
:1037B000054B1B7813F0080F03D0044BDA68074B56
:1037C0001A6008BD6823FF1F9C25FF1F8C25FF1F63
:1037D00000E100E004E100E008E100E00CE100E0CD
:1037E00010B52A4B1B78002B4BD10122274B1A70A6
:1037F000274B1A68274B1B78002B35D072B6254B08
:103800001B7813F0010F07D0234B1C68234909686C
:103810002140234C216019601E4B1B7813F0020FCE
:1038200007D0204B1C681D49496821401C4C616031
:103830001960184B1B7813F0040F07D01A4B1C6843
:10384000164989682140164CA1601960114B1B78FC
:1038500013F0080F07D0154B1C681049C9682140A8
:103860000F4CE160196062B6114BDB68934208D0DF
:103870000F4B10491960DA6042F080421A610E4A1B
:103880001A600078002101F015FE10BD6823FF1FAB
:103890006423FF1F9C25FF1F80E100E07C25FF1FA4
:1038A0008C25FF1F84E100E088E100E08CE100E06E
:1038B00000C0024001401F0000001F8070B582B0B0
:1038C0000E460B4B1B680093009C094DA4B2FFF7FA
:1038D000EFFEFF2807D02B680193019B9BB21B1BB7
:1038E000B342F4DB01E0012000E0002002B070BD33
:1038F000C025FF1FF8B505460F4616464FF49671D2
:10390000FFF7DCFF47F04000FFF7E6FE182426FA39
:1039100004F0C0B2FFF7E0FE083C14F1080FF6D146
:1039200027B1082F0CBF8720FF2000E09520FFF76C
:10393000D3FE0024FFF7BCFE687010F0800F03D0A8
:103940000134B4F5807FF5D1F8BD00BF2DE9F04F0B
:1039500087B004460191002383700270884B1B6876
:103960000393039FBFB21046012101F0A3FD20780D
:10397000012101F0D1FD2078012101F09BFD814B57
:103980001A6842F480521A600620FFF7B5FE7E4B9B
:103990001A687E4B1B78002B35D072B67B4B1B7898
:1039A00013F0010F07D07A4B18687A490968014073
:1039B000794801601960754B1B7813F0020F07D02E
:1039C000764B186873494968014073484160196033
:1039D0006E4B1B7813F0040F07D0714B18686D49BC
:1039E000896801406C4881601960684B1B7813F04E
:1039F000080F07D06B4B18686649C96801406648D4
:103A0000C160196062B6684BDB68934200F0A98020
:103A1000654B66491960DA6042F080421A61644A77
:103A20001A609EE02846FFF757FE013E16F0FF069B
:103A3000F8D1564B1B780BB313F0010F03D0564B44
:103A40001A685C4B1A60514B1B7813F0020F03D0BD
:103A5000514B5A68584B1A604C4B1B7813F0040FAB
:103A600003D04D4B9A68554B1A60484B1B7813F0A6
:103A7000080F03D0484BDA68514B1A602046FFF715
:103A8000AFFE4FF00008DFF8F89008E0D9F80030FA
:103A90000493049BDB1B9BB2B3F5FA6F5DD8204601
:103AA00041464246FFF726FF054660700128EDD1EA
:103AB000204608214FF4D572FFF71CFF10F0040FC9
:103AC00004D00123A3704FF0000A0FE04FF0040868
:103AD000FFF7EEFD607008F1FF3313F0FF08F7D138
:103AE000AA283AD10223A3704FF0804A4FF0370939
:103AF0004FF00008DFF888B008E0DBF800300593ED
:103B0000059BDB1B9BB2B3F5FA6F26D820464946CE
:103B10004246FFF7EFFE204629215246FFF7EAFE14
:103B200060700028E9D1A378022B0ED120463A21FB
:103B30000022FFF7DFFE80B9FFF7BAFD00F0C000FA
:103B4000C02811D10323A3700EE02046FFF708FE22
:103B50000198FFF7D1FD2E460DE02046FFF700FE4D
:103B600009E00A26FF255DE7FFF7A2FDFFF7A0FDAC
:103B7000FFF79EFDE9E7304607B0BDE8F08F00BFD4
:103B8000C025FF1F3C8004406423FF1F9C25FF1FAE
:103B900080E100E07C25FF1F8C25FF1F84E100E011
:103BA00088E100E08CE100E000C0024001401F001D
:103BB00000001F8000E100E004E100E008E100E017
:103BC0000CE100E070B582B004460E4B1B68009318
:103BD000009D0C4EADB207E033680193019B9BB290
:103BE0005B1BB3F5967F09DCFFF762FD6070FF2871
:103BF000F2D0FE2814BF0020012000E0002002B017
:103C000070BD00BFC025FF1FF8B504460D4616461F
:103C10008378032B18BF4D02FFF7E2FD20461121E8
:103C20002A46FFF767FE002847D12046FFF7CAFF64
:103C3000002842D0234B244A1A60244A5A635A630C
:103C40005A6306F5FD7E764513D2B01C06F5FE7765
:103C50001946CB6A13F0F00FFBD04A638B6BC3F3AA
:103C6000072500F8025C00F8013C0230B842F0D1B0
:103C700000E0B64606F5007676450DD97146114A44
:103C8000D36A13F0F00FFBD0936BC3F307200870D7
:103C90004B7002318E42F3D80A4B0B4A1A600B4A22
:103CA0005A631A46D36A13F0F00FFBD0054B9B6B97
:103CB0002046FFF755FD0120F8BD2046FFF750FDD7
:103CC0000020F8BD00C0024000041F80FFFF0090EC
:103CD000F8B506461E4B186840F4806018604FF037
:103CE0000040D8625963114602F500770446DA6A4B
:103CF000002A08DBFBE7DA6A002A0DDBFBE7D36A60
:103D0000002B15DBFBE708460A781D6845F4806543
:103D10001D60DC625A63EEE742781D6845F48065F9
:103D20001D60DC625A630231B942E0D1084AE6E71D
:103D3000FF20FFF7D1FCFF20FFF7CEFCFFF7B8FC18
:103D4000707000F01F00052814BF00200120F8BD8E
:103D500000C0024070B5044616460D4629B383786C
:103D6000032B18BF4D02FFF73BFD204618212A46C2
:103D7000FFF7C0FDC8B92046FE213246FFF7A8FF75
:103D800098B120464FF41671FFF798FD68B12046B0
:103D90000D210022FFF7AEFD38B9FFF789FC20B9ED
:103DA0002046FFF7DDFC012070BD2046FFF7D8FC60
:103DB000002070BD014A024B1A6070470320003892
:103DC0006423FF1F10B50446006A012104F10802B4
:103DD00000F0BCFD034650B1E3693BB9A368E36161
:103DE000637963F07F036371012300E001231846C8
:103DF00010BD00BF70B50646FFF7E4FF0346E0B113
:103E0000336AB268023A197C02FA01F55A6915441C
:103E10001C794CB1013D281900F0CEFC034660B17D
:103E2000013C14F0FF04F6D1336A1B7C4FF400729E
:103E30009A40B3691344B3610123184670BD00BFB3
:103E400010B50446006900F087FC20B1207D034BCB
:103E500003EB401010BD002010BD00BF7823FF1FF2
:103E600070B400231A462E26C45C202C09D0DCB284
:103E7000082C02D1541C8E54E2B2541CC55C8D54E3
:103E8000E2B201330B2BEFD100238B5470BC70478F
:103E90002DE9F00100232022CA5401330B2BFBD162
:103EA0000138002507264FF008084FF00A0C1B4F79
:103EB00021E02E2C01D03A4606E00A2E24D04546B9
:103EC000664618E0A34221D012F8013F002BF9D139
:103ED000AE421DD3A4F12103DBB25D2B1AD86B1CBB
:103EE000DBB20D44A4F16102D2B2192A9CBF203C7E
:103EF000E4B22C701D4610F8014F002CD9D108787F
:103F0000203818BF012006E0002004E0002002E075
:103F1000002000E00020BDE8F0017047BF0601006E
:103F200038B504460D4683790BBB91F82020102A42
:103F300007D1022383710023C3614B8C5B01836132
:103F40000CE0202A14D103238371496AC1612846F9
:103F500004F1180200F086FC034648B125620123F3
:103F600063710022A260E2602261227500E00023FA
:103F7000184638BD2DE9F04F83B0044688460192BB
:103F80008379002B75D0437913F0010F74D08269C7
:103F9000C368D11A0198884201D98BB20193019B61
:103FA000002B63D01D46DFF80CA1DFF80C91DFF881
:103FB0000CB1E368C3F30807A279022A04D1226A8C
:103FC000516A01EB53211BE0206A0679013E06EAA3
:103FD0005326F6B25FB956B913B9E369A36006E098
:103FE000224652F8081F00F007FC002847D0226A3A
:103FF000A368023B117C03FA01F152691144314478
:10400000C7F500739D42C6BF1E46B6B22E46637901
:1040100013F0400F02D1B6F5007F3AD1D9F8003045
:1040200099423DD135E04046FFF75AFAD0F1010000
:1040300038BF002002E04246FFF7E6FD10B3B0446F
:104040000DE05744B819874209D03B46424613F861
:10405000011B02F8011B8342F9D1C71BB844E36876
:104060003344E360AD1BADB2002DA2D1019B98B2E9
:104070000DE04FF6FF700AE04FF6FF7007E04FF6D5
:10408000FF7004E04FF6FF7001E04FF6FF7000B2E2
:104090000CE00846002100F05FFB0028D1D1F4E7D6
:1040A000DBF800000378FE2BC5D1BCE703B0BDE808
:1040B000F08F00BF7823FF1F6807FF1F7423FF1FC7
:1040C00070B505460C468379012B1CD9C36813F0E3
:1040D0001F0F1AD1202609E0237883B1E52B05D0E4
:1040E0002E2B03D0E37A13F0080F10D02846214678
:1040F0003246FFF73FFFC0B243B2202BECD040F373
:10410000C011C8B204E0FF2002E0FF2000E0202040
:1041100040B270BD30B583B004468379012B0FD90E
:10412000C5680DF107010122FFF724FF012809D11D
:10413000E3681F33E36005F4F070044B184402E0B9
:10414000002000E0002003B030BD00BF7823FF1F37
:10415000F8B504460F4683797BB382698A422BD334
:10416000022B02D1E160012327E021B90023836003
:10417000C360012321E0C368026A157C09355A1E19
:10418000EA40013921FA05F5AA4200D813B9E369DA
:10419000A3600AE0AD1A08E0206AA168324600F088
:1041A0002BFB013D034610B907E004F10806002D82
:1041B000F2D1E760012300E000231846F8BD00BFFC
:1041C00038B50446807918B394F90530002B1BDA12
:1041D00020460121FFF734FE0546C0B1A379012B2B
:1041E0009CBFA369C361A38B4383E38B8382094B89
:1041F0001B682BB1183005F1160198472B8B6B8289
:10420000637903F07F03637100F066FA38BD002024
:1042100038BD00BF6C23FF1F10B50446FFF7D0FF69
:10422000034610B10023A3710123184610BD00BF3F
:10423000F0B583B004460D468379012B4ED1427907
:1042400002F0020202F0FF01002A49D08269AA426C
:1042500048D3002A47D0C6682946FFF779FF0346AE
:10426000002840D04DB9206AE16900F0D3FB034635
:10427000002838D00023E3611DE0206AA16801AA6C
:1042800000F0BAFAA8B1206A019990F820704FF6B0
:10429000F872164B102F08BF134699420BD200F04C
:1042A000B9FB30B1206AA1686FF0704200F006FBE4
:1042B00008B9002317E0A561637963F07F03637198
:1042C0002046FFF77DFF034668B12046B54234BF64
:1042D00029463146FFF73CFF034604E0002302E095
:1042E0000B4600E00023184603B0F0BDF8FFFF0FB7
:1042F00038B5044615461F4B03EB4113DA7A12F02A
:10430000110F02D015F0420F2CD121751A4A1268F4
:104310002261998A0904E1615A8B1143E161D87ADB
:1043200010F0180004D1DB69A3610123A3710AE036
:10433000102819D1206A04F1180200F093FA0346FC
:10434000A8B10423A37105F00F0363710023A360D8
:10435000E36015F0400F09D020461946FFF768FFCB
:10436000034604E0002302E0002300E00123184696
:1043700038BD00BF7823FF1F6807FF1F2DE9F04FEE
:1043800085B005460C469A468679002E7FD11046A8
:1043900001A9FFF77DFD00287BD0236A2B6200274F
:1043A000A760E760DFF8FC904FF0010825E0C1F35B
:1043B000431B2046FFF7AEFE014600286AD0037873
:1043C0000BB1E52B09D12FB985F814B0D9F800301D
:1043D0002B6147460B7883B913E001A80B2206F046
:1043E00033F950B90AF03003302B53D028465946E0
:1043F0005246FFF77DFF06464CE0E168A36999420B
:10440000D5D30AF01203122B44D137B1284601212B
:10441000FFF716FD044660B93CE0A379022B39D0C2
:104420002046FFF7E7FC0646002833D000232B7513
:104430001A4C20460021202206F09AF901AB03CB4A
:10444000206061601A889B782281A372144B1B68DC
:104450002BB104F1100004F10E01984707E021236D
:104460002374282363740023A3730823E373238A2C
:1044700063822383E389E38200F02EF9064648B184
:104480002846297D5246FFF733FF064602E0002604
:1044900000E00646304605B0BDE8F08F7823FF1FE8
:1044A0006C23FF1F6807FF1F2DE9F04F85B00446FE
:1044B000884601928379012B40F0CB80437913F039
:1044C000020F00F0C68013F0040F08D08169C368A2
:1044D0008B4204D0FFF73CFE002800F0BA80019A1E
:1044E000002A00F099801646DFF8CCA1DFF8CCB1A5
:1044F000206AE76890F8049009F1FF3909EA572922
:10450000C7F3080719F0FF092AD1002F40F0A58052
:10451000A16851B9E36933B92046FFF753FC00287D
:1045200040F0AC8095E0A360A8E003AA00F064F935
:10453000002800F0B580039B226A92F820004FF615
:10454000F871594A102808BF0A46934206D32046FC
:10455000FFF738FC002840F091807AE0A3608DE0FE
:10456000C7F50075ADB2AE4238BF3546A368023B11
:10457000027C9340426913449944B5F5007F1ED1F3
:10458000DBF800304B4504BF4FF0FF33CBF8003071
:10459000464B18680378FE2B08D140464946FFF782
:1045A0001DF8D0F1010038BF002003E04946424623
:1045B000FFF7D0FB00284CD008F5007824E07FB945
:1045C000E268A3699A420BD300F086F8002840D035
:1045D000CBF80090364A137843F00103137005E0DE
:1045E0004846012100F0B8F8002832D05744781925
:1045F000874209D03B46424612F8011B03F8011BD3
:104600008342F9D1C71BB844761BB6B2E3681D4498
:10461000E560002E7FF46CAFE368A269934205D990
:10462000A361637963F07F03637108E0214B1B682A
:104630002BB1019B1BB1637963F07F0363716379D5
:1046400013F0080F03D02046FFF7BAFD08B1019818
:1046500026E001232371002022E0C7F50075ADB2EA
:10466000AE4238BF3546A368023B027C03FA02F92A
:1046700043699944B5F5007FB2D181E7B6F5007F73
:1046800034BF35464FF40075236AA268023A197C9C
:1046900002FA01F95B699944B5F5007F90D16FE7A3
:1046A00005B0BDE8F08F00BFF8FFFF0F7423FF1FB8
:1046B0007825FF1F6C23FF1F7823FF1F6807FF1F4C
:1046C00000B583B002AB03F8011D19460122FFF7C4
:1046D000EBFE03B05DF804FB08B51A4B1B78002B0A
:1046E0002ED0194B1868194B19680378FE2B07D187
:1046F0001748FEF773FFD0F1010038BF002002E039
:10470000134AFFF727FBE0B1124B196899B10E4B22
:1047100018680378FE2B07D10D48FEF75FFFD0F134
:10472000010038BF002002E0094AFFF713FB40B147
:104730000022084B1A600022024B1A70012008BDAB
:10474000012008BD7825FF1F7423FF1F6807FF1F86
:104750007823FF1F7023FF1F38B504460D46124B08
:104760001B68834219D0FFF7B7FF0346D0B10F4B48
:1047700018680378FE2B08D10D482146FEF7B0FEDD
:10478000D0F1010338BF002304E02146084AFFF7B7
:104790003BFA034633B1044B1C60064B1A781543B1
:1047A0001D700123184638BD6807FF1F7423FF1FC3
:1047B0007823FF1F7825FF1F10B50446FFF78CFFF5
:1047C000034680B109494B1E01F2FF11002203F894
:1047D000012F8B42FBD1064B1C60064B1A7842F02E
:1047E00001021A700123184610BD00BF7823FF1F75
:1047F0006807FF1F7825FF1F70B504460D46164653
:10480000C36801338B4225D3C36990F82020102A56
:104810000CBF080AC8091844104B1B68984204D002
:104820000021FFF799FF0346A8B194F82030102B20
:1048300006D1EDB20A4B33F81530336001230AE09C
:1048400005F07F05064B53F8253023F070433360A5
:10485000012300E00023184670BD00BF6807FF1F5A
:104860007823FF1F2DE9F04383B0044602AE46F8DB
:10487000041D914600254FF400780F4F2046019902
:104880003246FFF7B9FF034688B1237C08FA03F3E9
:104890001D4494F820104FF6F873102914BF3946C0
:1048A0001946019B8B42E9D3C9F8005001231846F1
:1048B00003B0BDE8F08300BFF8FFFF0FF8B5044672
:1048C0000D461746012931D9C368013399422FD8C3
:1048D000C36990F82020102A0CBF0E0ACE091E448E
:1048E000164B1B689E4205D030460021FFF734FF6F
:1048F000034600B394F82030102B04D1EDB2104BD6
:1049000023F8157004E005F07F050D4B43F8257082
:104910000C4B1A7842F001021A70237E012B09D940
:10492000A3681E44084B1E60012304E0002302E03C
:10493000002300E001231846F8BD00BF6807FF1FF1
:104940007823FF1F7825FF1F7023FF1F2DE9F04FED
:1049500085B006468A46009217681FB101370023CA
:10496000019305E00768012914BF00230123019387
:10497000F36803F10108DBB13C4600254FF0020962
:10498000CB46A0453CBF4C465F463046214603AA75
:10499000FFF732FF60B1039B0BB1671C03E0631CA0
:1049A000DB1B534506D001350134F368AB42E8D830
:1049B00000232AE0304621466FF07042FFF77EFF69
:1049C000034648B921E0651E304629462246FFF7D6
:1049D00075FF034618B918E0BC42F4D803E0BD42A5
:1049E00001D92C46EFE7009B196829B130463A46B9
:1049F000FFF764FF034640B1009B1F60019B1BB1A2
:104A000001373760012300E00123184605B0BDE8F7
:104A1000F08F00BFF0B583B005460C46022303605B
:104A200000260E4F2846214601AAFFF7E5FE80B179
:104A3000284621463246FFF741FF50B1019C95F8C8
:104A400020104FF6F873102918BF3B469C42E9D35B
:104A500001E0002000E0012003B0F0BDF8FFFF0FEF
:104A6000F8B50546494B19601446DAB1042A7FD8D7
:104A700000200146FFF770FE0346002800F0838007
:104A8000434B03EB041494F8AE3104F5D47413F0E3
:104A90007F036FD1D4F81210632974D9D4F80E4073
:104AA0000CB970E0002420460021FFF755FE0346B4
:104AB000002868D0364BB3F80B30B3F5007F5BD1DC
:104AC000334B1B7C002B5ED0314AD289002A55D053
:104AD0002F4A517B002953D02B76297100232B7448
:104AE000012003E05A1C2A74072B4BD82B7C1E464E
:104AF00000FA03F29142F5D1254BD98A01B9596ADE
:104B0000A960234BDA892244EA61B3F8110087B225
:104B100068841B7C03FB01236B627A0102F2FF12A3
:104B200003EB62236B611A4AB2F813200AB9184AE0
:104B3000126AE31A134423FA06F6EE6040F6F473A1
:104B40009E4204D80C2385F8203001231BE04FF649
:104B5000F4739E4204D8102385F82030012312E01C
:104B60000B4BDB6A6B62202385F8203001230AE0BF
:104B7000002308E0002306E0002304E0002302E015
:104B80000B4600E000231846F8BD00BF7423FF1F4A
:104B90007823FF1F284B1A6842F480521A60274B73
:104BA000274A1A60274ADA6002F180421A61264ACF
:104BB0001A60264B1B7813F0030302D0012B05D09B
:104BC00009E04FF41072224B1A6008E04FF40072B3
:104BD000204B1A6003E04FF400721F4B1A601B4B0E
:104BE0001B7813F00C0302D0042B05D009E04FF41E
:104BF00000721A4B1A6008E04FF40072184B1A60EA
:104C000003E04FF40072174B1A60104B1B7813F03F
:104C1000300302D0102B05D009E04FF41072124B74
:104C20001A6070474FF40072104B1A6070474FF4CF
:104C300000720F4B1A6070473C80044000C0024075
:104C400001401F000110003800001F80D026FF1F08
:104C500018B0044008C00440409004401CB0044018
:104C60000CC004404490044014B0044004C004400C
:104C70003C9004402DE9F00F5B4BA3FB004252092E
:104C8000C2EB0214A0EB84000870A3FB02A35B0933
:104C9000C3EB0310A2EB80024A70544CA4FB030840
:104CA0004FEA181808EB4802A3EBC2038B70474683
:104CB00008F104004E4AA0FB0223C21A03EB520380
:104CC0009B08C3EBC303C01A0130C8700020024622
:104CD00040F26D1C474C4FF064094FF4B77BC5B2EE
:104CE00005F2B273ABB113F0030F14D184FB03A62A
:104CF000761109FB163686B984FB03A6F6114FF42C
:104D0000C87A06FB1A36002E0CBF4FF4B7766646FB
:104D100004E0664602E0664600E05E46324401304A
:104D20009742DCD28D71CBB113F0030F19D131480A
:104D300080FB03404011642404FB1030A0B92D48CF
:104D400080FB03A0C0114FF4C87400FB143000288E
:104D500040F26D1408BF4FF4B77407E040F26D14D1
:104D600004E040F26D1401E04FF4B774121BC2EB83
:104D70000804204F87FB03074FEA671C642202FBED
:104D80001C3CFF114FF4C87202FB173700221A4E69
:104D90004FF01C0803F0030A4FF01D09D0B20128A0
:104DA0000BD163B1BAF1000F0BD1BCF1000F0AD1E6
:104DB000002F0CBF1D251C2506E0955D04E045462F
:104DC00002E0454600E04D46A54205D8641B01308F
:104DD000C0B201320C2AE1D10130487101340C71AA
:104DE000BDE8F00F704700BF89888888ABAAAAAADF
:104DF000254992241F85EB51D006010010B50446C9
:104E0000044B1B68984204D00349FFF733FF014B62
:104E10001C6010BDA025FF1FA425FF1F08B5FFF7CC
:104E2000EDFF014B987808BDA425FF1F08B5FFF7DB
:104E3000E5FF044B987818B10C2802D90C3808BD4E
:104E40000C2008BDA425FF1F08B5FFF7D7FF014BB5
:104E5000587808BDA425FF1F08B5FFF7CFFF034B07
:104E600098780B28D4BF0020012008BDA425FF1F7F
:104E70002DE9F00390F80680374A02FB08F2B8F1FA
:104E8000000F24D008F2B27440F2B273334F4FF0E7
:104E9000640C4FF4C879002B16DD13F0030F13D107
:104EA00087FB0365DE17C6EB65150CFB15353DB9B1
:104EB00087FB0356DD17C5EBE61509FB153119B95C
:104EC00002F5A83202F5C0720133A342E3D144795E
:104ED000012C2DDD08F2B277204B83FB07684FEAE7
:104EE000681C642303FB1C7C4FEAE8184FF4C8736A
:104EF00003FB187801231A4E1A4D07F00309022B01
:104F00000ED16FB1B9F1000F0AD1BCF1000F02D17F
:104F1000B8F1000F04D102F5181202F56E5204E048
:104F2000F11811F8011C05FB01220133A342E6DB55
:104F300084784378C3EB031399004FF4616303FB58
:104F4000041301780B4400790138064901FB003055
:104F50001044BDE8F00370478033E1011F85EB5139
:104F6000D00601008051010082B0094B1860094B46
:104F70001B681844084B18600222084B1A70084B33
:104F80001B680193019A074B1A6002B0704700BF7B
:104F9000AC25FF1F6C07FF1FBC25FF1FB025FF1F9F
:104FA000C025FF1FB825FF1F10B582B01E4B1B6820
:104FB0000193019A1D4B1B68D21AB2F57A7F13D365
:104FC0001B4A12680132184C03F57A73216801916B
:104FD0000199501CC91AB1F57A7F01D30246F3E753
:104FE00013490A60114A1360124B1A68104B1B6870
:104FF0009A4214D8104B1B688BB1984710B1FFF739
:10500000B3FF0CE00D4B1A68094B1B681A44094B9F
:105010001A600B4B1A78003218BF01221A70044B29
:10502000186802B010BD00BFC025FF1FB825FF1FC4
:10503000AC25FF1FBC25FF1FB425FF1F6C07FF1FFA
:10504000B025FF1F08B5FFF7AFFFFFF705FFD0F151
:10505000010038BF002008BD08B5FFF7A5FF014BD0
:10506000187808BDB025FF1F08B5044B1860044B25
:105070001A68044B1A60FFF797FF08BDB425FF1F9D
:10508000AC25FF1FBC25FF1F034B1860034B1B689B
:105090001844034B186070476C07FF1FAC25FF1FB7
:1050A000BC25FF1F844641EA000313F003036DD1C2
:1050B000403A41D351F8043B40F8043B51F8043BDB
:1050C00040F8043B51F8043B40F8043B51F8043BE2
:1050D00040F8043B51F8043B40F8043B51F8043BD2
:1050E00040F8043B51F8043B40F8043B51F8043BC2
:1050F00040F8043B51F8043B40F8043B51F8043BB2
:1051000040F8043B51F8043B40F8043B51F8043BA1
:1051100040F8043B51F8043B40F8043B51F8043B91
:1051200040F8043B51F8043B40F8043B51F8043B81
:1051300040F8043B403ABDD2303211D351F8043B21
:1051400040F8043B51F8043B40F8043B51F8043B61
:1051500040F8043B51F8043B40F8043B103AEDD2D0
:105160000C3205D351F8043B40F8043B043AF9D221
:10517000043208D0D2071CBF11F8013B00F8013BF4
:1051800001D30B8803806046704700BF082A13D301
:105190008B078DD010F003038AD0C3F10403D21A19
:1051A000DB071CBF11F8013B00F8013B80D331F84D
:1051B000023B20F8023B7BE7043AD9D3013A11F8CD
:1051C000013B00F8013BF9D20B7803704B78437038
:1051D0008B78837060467047024A137813F0010F92
:1051E000FBD070470100024010B584B01D4B6C46E7
:1051F000186859689A68DB680FC41B4B1B7813F05A
:10520000020F27D0194B1B7813F070031CBF174AED
:10521000137000F0D1F88022154B1A700022033B66
:105220001A70122207331A700522013B1A7072B6E7
:105230006B4643F001030D4C2046984762B600F0E0
:10524000D9F8237813F0700304D0237008E0013BF1
:1052500002D105E0074B04490A7812F0010FF6D09D
:1052600004B010BDDC060100010002400000024055
:1052700007000240410D030010B50446B0F5805F01
:105280000BD2074B1B7813F0010F01D1FFF7ACFFD6
:1052900004F1A0542078C0B210BD002010BD00BFA2
:1052A0000100024038B504460D46B0F5805F1AD2C1
:1052B0000D4B1B7813F0010F01D1FFF795FF04F19F
:1052C000A0542378DBB2AB420DD000F075F8074B49
:1052D0001B7813F070031CBF044A13702570FFF78E
:1052E0007BFF00F087F838BD01000240000002405B
:1052F000024B1A6801321A60704700BFC025FF1FB9
:1053000008B50D4C236813F4802F01D000F008FB82
:10531000236813F4806F01D001F030FE236813F48A
:10532000006F01D002F0FCF9236813F4805FE9D02C
:1053300002F0BAFCE6E700BF3480044008B5FFF78E
:10534000DFFF00BF1022014B1A807047002005408C
:10535000704700BF024A136818441060184670472F
:105360007007FF1F0078D0F1010038BF00207047A0
:1053700001230370704700BFEFF31383ABB9EFF362
:105380001083ABB9EFF3058323B10F2B05D9094A7D
:10539000985C03E04FF4807000E00020EFF311838D
:1053A0003BB1834238BF184670474FF0FF3070471B
:1053B00000207047F0E300E00B4B1B78DBB2802B42
:1053C0000ED10A4A0A4B1A60002203F5573303F242
:1053D000BD331A70044A1378DBB2802BFBD001E096
:1053E000002070470120704703E00740000028229A
:1053F000448004400B4B1B78DBB2012B0FD16022A1
:1054000003F1804303F5FC231A70064A1378DBB2DC
:10541000802BFBD1044A054B1A6001207047002005
:10542000704700BF03E007400000060244800440CC
:10543000014B1868704700BF00D00340044B0022A6
:105440001A6004490A60044A106010221A6070470A
:1054500014D0034004D0034000D0034010B400280F
:105460000EDB044602024FF48073B2F5004F05D301
:10547000013B111B012B01D00A46F6E7120A0FE08F
:10548000424211024FF48073B1F5014F05D3013B45
:10549000881A012B01D00146F6E70A0AC2F580728C
:1054A000013B42EA0323024803605DF8044B704766
:1054B0000CD003403F281ED80F4B53F8303093F8E0
:1054C000802212F0FF0F08D019B1012283F880204A
:1054D0007047012283F800217047074B03EBC0009F
:1054E000436821B11A6842F003021A6070471A68D3
:1054F00022F002021A607047EC0601003F2806D82D
:10550000044B53F8303093F80002C0B270470020CB
:10551000704700BFEC0601003F284AD8254B03EB3B
:10552000C0035B68012911D004291DD0214A52F81B
:105530003020002082F8800200292FD0022931D0AB
:1055400003291FD040F203121A607047194A52F81B
:105550003020012182F880124FF4A2721A601A687A
:1055600022F020021A607047124A52F830200121BE
:1055700082F880124FF4A2721A601A6842F0200278
:105580001A6070474FF480721A601A6842F0020283
:105590001A601A6822F001021A6070474FF4807294
:1055A0001A6070474FF480721A601A6842F0030262
:1055B0001A607047EC06010072B60D4B1B680D4A6D
:1055C00012680D49096862B611F0806F02D0322B63
:1055D00088BF0132C3F52F3303F21F339B080749FD
:1055E000A1FB03039B084FF47A7000FB0230704765
:1055F00018E000E0C025FF1F04ED00E0176CC116A5
:1056000038B50546FFF7D8FF044625B938BD013D3A
:105610000AD004F57A74FFF7CFFF001BB0F57A7F4C
:10562000F5D201F097F8F6E738BD00BF70B5404BF2
:105630004FF000621A604FF080521A604FF0005233
:105640001A604FF080421A604FF000421A60002248
:10565000384B1A604EF6FF70043318602823364921
:105660000B6008310B6008310B6008310B600831AA
:105670000B6008310B6008310B6008310B602F4D57
:105680002B602F4C236001F5002101F6D8710B60CF
:1056900008310B6008310B6008310B6008310B607A
:1056A00008310B600921274E316006F5805604361B
:1056B0003260043630600436336008363360143E9E
:1056C000316006F5FE26043632600436306004365A
:1056D000336008363360143E316006F58056043678
:1056E0003260043630602B60236017480160174930
:1056F000086840F4007008602839086840F00070BD
:10570000086001F501210A6047F6FF71104A116037
:10571000043213600832136008220E4B1A6001F045
:1057200049F84FF4C870FFF76BFF00F079FC70BDCB
:1057300004E100E0048003400C8003400C900B4027
:1057400014900B400080034000900B402C800440DC
:1057500008900C4000900C4030B40E4B1B7843F086
:1057600002020D4C04EBC20460600C480078002873
:105770000CBF8824C82444EA0141074D45F8321083
:1057800080F00100054A107083F00103014A137094
:1057900030BC70472C26FF1F0000FF1FA526FF1FEF
:1057A00010B4431E032B11D872B60A4A52F82300D4
:1057B00050B14268074941F82320074A32F81340A4
:1057C0000188611A22F8131062B600E000205DF82B
:1057D000044B70471C26FF1F802AFF1F0138032837
:1057E0000DD872B6074B53F820302BB10020013092
:1057F0005B68002BFBD100E0002062B67047002000
:10580000704700BF7026FF1F38B572B601231B49D1
:105810001B4C5A1812F8012C12F0080F24D09A00D1
:1058200054F832506DB9164B03EBC2010830486092
:10583000144943F83210144B1A78013A1A7062B6C0
:1058400038BD42F0010254F832506DB90C4B03EBF5
:10585000C201083048600D4943F832100A4B1A78EB
:10586000013A1A7062B638BD0133052BD1D162B648
:105870000022054B1A7000F045FC38BD18090100E4
:105880000000FF1F880040009A26FF1FC80040004C
:1058900010B4431E032B37D8400140F010001C4ABF
:1058A000104472B61B4AD25C032A09D8DFE802F022
:1058B00019021B050830022216E00830042213E00A
:1058C000154A52F823201AB9134A42F8231003E06C
:1058D000124A52F823205160104A42F8231062B64F
:1058E00012E0032200E005220A4CE25401F1080311
:1058F000436000F00803002B0CBF8823C8230A88EC
:1059000043EA0243036062B65DF8044B704700BF90
:105910000000FF1FD825FF1F7026FF1F8026FF1FD6
:105920002DE9F84FA34CDFF8E092DFF8E0A2DFF8B2
:10593000E0B22578EDB215F0040F1DD09E4B1B7818
:1059400013F0FF0F16D09D4B1B7803F0FF022BB115
:10595000531EDBB2994A137003B900BE984B1B78F3
:1059600003F0FF0233B1531EDBB2954A13700BB93B
:1059700000F024FD0423237015F0080F00F0E482EA
:1059800099F80030DBB21D0940F021828D4D9E0850
:1059900005EBC6035A6855F83630C3F38303013B61
:1059A0000C2B00F21082DFE813F0CB01CB010E02CA
:1059B0000E020E020E020E020E02E8010E020E028E
:1059C0000E020D00804913680B6052684A607F4ADE
:1059D00045F8362000227E490A607A490A618A61C8
:1059E00001217C4A11709BB240F28162934218D827
:1059F000B3F5D06F2ED2B3F5817F00F01E8106D8AB
:105A0000802B00F0C980822B00F0CC8066E140F250
:105A10000232934200F02681B3F5A06F00F062815C
:105A20005CE142F22102934200F0868107D8B3F58F
:105A3000086F00F0AB80B3F5106F11D04EE142F269
:105A40002122934200F0418142F22132934200F040
:105A5000498143E1604B5D68002D40F0188130E1E1
:105A6000594B9A78544B1A70564D05F180062B6AA3
:105A700013F0800F03D0686A083800F043FB083544
:105A8000B542F4D1DFF88C8100263746534AB0582E
:105A900028B1456800F036FB0DB12846F9E7002330
:105AA0004E4973504E4AB3504E4BF05828B145689A
:105AB00000F028FB0DB12846F9E70023494973504F
:105AC000494AB35028F8023F484BFB5C023B032B8A
:105AD0000AD8DFE803F0020602060022434BDA553B
