:1000000000000320D1010000719B0000299B00002B
:10001000299B0000299B0000299B0000299B0000D0
:10002000299B0000299B0000299B0000719B000078
:10003000719B0000299B0000A5AB0000A9AB00004C
:10004000719B0000719B0000719B0000719B000080
:10005000719B0000719B0000719B0000719B000070
:10006000719B0000719B0000719B0000719B000060
:10007000719B0000719B0000719B0000719B000050
:10008000719B0000719B0000719B0000719B000040
:10009000719B0000719B0000719B0000719B000030
:1000A000719B0000719B0000719B0000719B000020
:1000B000719B0000719B0000719B0000719B000010
:1000C000719B0000719B0000719B0000719B000000
:1000D000719B0000719B0000719B0000719B0000F0
:1000E000719B0000719B0000719B0000719B0000E0
:1000F000719B0000719B0000719B0000719B0000D0
:1001000095AC0000A9AC0000BDAC0000D1AC000073
:10011000719B000039A10000719B0000719B0000E1
:10012000719B0000719B0000719B0000719B00009F
:10013000719B0000719B0000719B0000719B00008F
:10014000719B0000719B0000719B0000719B00007F
:10015000719B0000719B0000719B0000719B00006F
:10016000719B0000719B0000719B0000719B00005F
:10017000719B0000719B0000719B0000719B00004F
:10018000719B0000719B0000719B0000719B00003F
:10019000719B0000719B0000719B0000719B00002F
:1001A000719B0000719B0000719B0000719B00001F
:1001B000719B0000719B0000719B0000719B00000F
:1001C000719B0000719B0000719B0000719B0000FF
:1001D0005C4B4CF2205210B51A804DF628121A8052
:1001E00000BF00BF09F0C8FC574B4FF030621A60E7
:1001F000564A9A60564ADA60564B4FF470021A60BB
:10020000554B564A1A60564B1A78110703D51A787F
:1002100042F008021A70534B5349AA221A70534AEB
:10022000534B8B4204D252F8040F43F8040BF8E707
:10023000504B514900228B4202D243F8042BFAE77B
:100240004E494F4A002352F8230041F8230001335E
:10025000742BF8D14B4B4C4A802103F8011B93427D
:10026000FBD14A4B454A1A60494B8A221A70A3F5C2
:10027000805324225A70A0221A709A799207FCD5D2
:100280009A79D406FCD4434A937903F00C03082BE3
:10029000FAD1414B60221A7002331A78802AFCD1BD
:1002A0003C4B01221A715D225A719A799006FCD555
:1002B0009979384A4906FBD5384B394919600021EC
:1002C000596020231370937903F00C030C2BFAD19F
:1002D000344B354A1A60354A354C136813F4807331
:1002E00003D123604FF4A8531360324B324A1A6093
:1002F00000225A60072243F8042C304AC3F80C2D20
:1003000062B609F0DDFD2368DA0705D52C4809F04F
:10031000FFFC2C4B2C4A1A602C4B1B785B0609D532
:10032000284C294B22689A4204D1254809F0F0FC58
:100330000023236009F026FC0BF034FC0AF014FDC6
:10034000FEE700BF0E20054030800440823F0400DD
:100350000100002B88ED00E0002008E0030000858C
:1003600002D0074000E00740B011FF1F9C2F0100A2
:100370003007FF1FB011FF1F2837FF1F0002FF1FAC
:100380000000000000E400E064E400E008ED00E0AC
:10039000005006400040064001E007404480044011
:1003A0000000060204800440C010070010D0034083
:1003B00014D0034014E000E01FBF02000000202022
:1003C000AF6ACB611CE00340A5C3945A00F007401C
:1003D000FFFFFFFFFFFFFFFFFFFFFFFFFFFFFFFF2D
:1003E000FFFFFFFFFFFFFFFFFFFFFFFFFFFFFFFF1D
:1003F000FFFFFFFFFFFFFFFFFFFFFFFFFFFFFFFF0D
:10040000FFFFFFFFFFFFFFFFFFFFFFFFDEF9FFFF23
:1004100010B5054C237833B9044B13B10448AFF33E
:1004200000800123237010BDB011FF1F00000000E9
:10043000982F0100084B10B51BB108490848AFF3CD
:1004400000800848036803B910BD074B002BFBD0A0
:10045000BDE81040184700BF00000000B411FF1FA6
:10046000982F0100B011FF1F0000000038B50D46A5
:1004700004460221E8B209F0A7FC0A204FF47A7181
:100480000022012360602560A1602275236120465F
:1004900038BD00BF38B505460C46C8B2022109F088
:1004A00093FC2C6038BD00BF08B5007809F07EFCD5
:1004B00000280CBF0220002008BD00BF70B5184EF8
:1004C00082B03368009304460078009D09F06EFC0A
:1004D00090B92369012B16D0E2686368AD1A9D427A
:1004E00006D9237DB3B1A3689D428CBF03200220AF
:1004F0000023236102B070BD00200123E06020755D
:10050000236102B070BD33680193019BE360002357
:100510002361EFE70120002320752361EAE700BF94
:10052000A835FF1F806C7047406C7047ABB1B1F5C8
:10053000805F12DA2DE9F0411D460F46561EC1F5C7
:1005400080580024E01909F0A7FA0134A54206F802
:10055000010F04D12846BDE8F081002070474445D2
:10056000F0D12046BDE8F081ABB1B1F5805F12DA81
:100570002DE9F0411D460F46561EC1F58058002456
:10058000E01916F8011F013409F0A0FAA54204D1C0
:100590002846BDE8F081002070474445F0D1204650
:1005A000BDE8F0810D2170B506460160002009F01C
:1005B0008DFA35460124204615F8011F013409F053
:1005C00085FA042CF7D121464023321D3046FFF72F
:1005D000CBFF012070BD00BF036B013B032B17D87D
:1005E000DFE803F013100D02142383644369013B19
:1005F000052B26D8DFE803F0211D1915120F0A2359
:100600008364F3E705238364F0E702238364EDE763
:1006100000238364EAE70D4B436470470C4B43644B
:1006200070474EF660234364704747F2305343648B
:10063000704743F698234364704742F21073436453
:10064000704741F288334364704700BFE093040071
:10065000C0D40100F8B50D46064617460FCD341D2F
:100660000FC40FCD0FC40FCD0FC495E80F0084E861
:100670000F002FB930460121FFF7AEFF0846F8BD45
:100680003046FFF78FFF01463046FFF7A5FF0846CB
:10069000F8BD00BF70B50646002009F0FDF93546EB
:1006A00030700124204609F0F7F90134042C05F8D4
:1006B000010FF7D133680D2B01D0002070BD21460A
:1006C0004023321D3046FFF731FF3046FFF784FFED
:1006D000012070BD03680D2B10B5044601D0FFF753
:1006E000D9FF201D10BD00BF002138B540220446AF
:1006F00040F8041B0BF042FE2046FFF7CBFFC8B9C1
:100700000A2305466060A060E06060612361092201
:10071000094904F1180008F011FF2046A562E562BE
:1007200025636563A563E5632564FFF755FF2046F0
:10073000FFF738FF204638BD5805010009F062B9BF
:10074000F0B442F20C0100F50057002242F2040618
:1007500042F20805034642504418386042F2140140
:1007600000F580578751585142F2180742F21C0693
:1007700042F220054250C821C25182514255217196
:10078000F0BC70472DE9F04F8BB0144601919DF8F5
:10079000042002948346099210469DF808201D46C5
:1007A0000121144609F010FB03959DF80C200494D8
:1007B00020460121154609F007FB9DF850200595BC
:1007C00028460121164609F0FFFA9DF854200696A6
:1007D00030460121174609F0F7FA9DF8582007978F
:1007E00038460121144609F0EFFA9DF85CA0089400
:1007F0002046012109F0E8FA9DF860905046012159
:1008000009F0E2FA9DF864804846012109F0DCFA1B
:100810009DF868704046012109F0D6FA9DF86C6099
:100820003846012109F0D0FA9DF870503046012178
:1008300009F0CAFA9DF874402846012109F0C4FA6B
:100840002046012109F0C0FA099A0021104609F05A
:10085000A7FA0498002109F0A3FA0598002109F0ED
:100860009FFA0698002109F09BFA0798002109F0E9
:1008700097FA0898002109F093FA5046002109F0F0
:100880008FFA4846002109F08BFA4046002109F012
:1008900087FA3846002109F083FA3046002109F032
:1008A0007FFA2846002109F07BFA42F2280A204606
:1008B000002109F075FA42F22C09019B4BF80A302D
:1008C00042F23008029B4BF8093042F2340C039B91
:1008D0004BF8083042F2380E149B4BF80C3042F2C1
:1008E0003C07159B4BF80E300BF50156169B4BF849
:1008F000073042F24405179B336042F24804189BCC
:100900004BF8053042F24C00199B4BF8043042F290
:1009100050011A9B4BF8003042F254021B9B4BF8DB
:1009200001301C9B4BF802301D9B42F258024BF8E1
:1009300002300BB0BDE8F08F42F22403064AC158E2
:10094000064B00F5005001290CBF114619460C302A
:100950003B220AF033B900BF45120000F50D00003C
:1009600010B5044600F500500C300AF071F942F25F
:100970002802044BA25C53F83230012283F8802015
:1009800010BD00BF882A01003F299BBF42F21C0214
:100990000123002381501846704700BF07299BBFE1
:1009A00042F220020123002381541846704700BF01
:1009B00038B542F2040504464FF48052405908F01D
:1009C000BDFD04F5005361591A681960625138BDC4
:1009D00042F22403C15070472DE9F04F05462C46E2
:1009E00042F2180142F2140342F2200042F20802DD
:1009F0008FB0AA58285C6D58E1580994012303FA76
:100A000001F80999A24C02EBC51C0A4601F50059F0
:100A100001F5015E1146CDF80C900A461146CA4612
:100A2000039ACDF810900AF12C0ACDF808A002F133
:100A3000300A049ACDF81490CDF80CA002F1340AD3
:100A4000059ACDF81890CDF810A002F1380A069A50
:100A5000CDF82090CDF814A002F13C0A089ACDF808
:100A600018A001306546283240F3000740F34006E5
:100A700005F6020540F38000089201F50152FFB22D
:100A8000F6B2C0B20CF1020C5FFA88F809F11C0949
:100A90000EF1180E079200210195E4E0DEF800B097
:100AA000019A029D1CF802AC12F8022C5FFA8BFB33
:100AB00008EA0A0A54F83BB08BF80031D5F800B0C8
:100AC000734D5FFA8BFB1AEA070F55F83BB0039D95
:100AD00014BF8BF880308BF80031D5F800B0049D3E
:100AE0005FFA8BFB08EA020254F83BB03A4214BFAB
:100AF0008BF880308BF80031D5F800B0059D5FFA97
:100B00008BFB1AEA060F54F83BB014BF8BF8803009
:100B10008BF80031D5F800B0069D5FFA8BFB3242AE
:100B200054F83BB014BF8BF880308BF80031D5F807
:100B300000B0079D5FFA8BFB10EA0A0F54F83BA048
:100B400014BF8AF880308AF80031D5F800A05FFA27
:100B50008AFA104254F83A2014BF82F8803082F8A2
:100B600000319EF8002054F8322082F88030D9F805
:100B7000002001F1010A524500F08180DEF800B04A
:100B8000019A029D1CF801AC12F8012C5FFA8BFB54
:100B900008EA0A0A54F83BB08BF80031D5F800B0E7
:100BA0003B4D5FFA8BFB1AEA070F55F83BB0039DEC
:100BB00014BF8BF880308BF80031D5F800B0049D5D
:100BC0005FFA8BFB08EA020254F83BB03A4214BFCA
:100BD0008BF880308BF80031D5F800B0059D5FFAB6
:100BE0008BFB1AEA060F54F83BB014BF8BF8803029
:100BF0008BF80031D5F800B0069D5FFA8BFB3242CE
:100C000054F83BB014BF8BF880308BF80031D5F826
:100C100000B0079D5FFA8BFB10EA0A0F54F83BA067
:100C200014BF8AF880308AF80031D5F800A0019D01
:100C30005FFA8AFA104254F83A20DFF854A014BF41
:100C400082F8803082F800319EF80020023154F89A
:100C500032200235802982F880300CF1020C019597
:100C60004FF0010216D0D9F800208A427FF416AF67
:100C7000089A127854F8322082F880300EE7089AE9
:100C8000034D127855F8322082F8803076E700BFA5
:100C9000882A0100099D0998099F42F2540142F2F5
:100CA0001803695C5AF8311081F88020E95842F243
:100CB0004403CE07EB58DBB242F228065AF8333031
:100CC0004CBF83F8802083F8002142F2480342F2AF
:100CD0001802C35882580998DBB212F0020F54F878
:100CE00033304FF0010214BF83F8802083F80021D5
:100CF00042F24C0342F21802C35882580998DBB200
:100D000012F0040F54F833304FF0010214BF83F88F
:100D1000802083F8002142F2500342F21802C358A7
:100D20008258DBB212F0080F54F833304FF0010252
:100D300014BF83F8802083F8002142F254021B4B39
:100D4000BA5C54F83220012582F800510FCBBE5D09
:100D500054F8366086F800510EAD05E90F0042F2F6
:100D6000140442F218013A597B5805EB8200013312
:100D7000DD0650F8100C14D5099D013200236B508C
:100D800051070AD5099E06F5005142F2080209688A
:100D90003351B1500FB0BDE8F08F2A510FB0BDE80C
:100DA000F08F7B500FB0BDE8F08F00BF64050100ED
:100DB00038B500F500540C340546204609F048FFCC
:100DC0002846FFF709FE002803DB084B421E9A4223
:100DD00000D938BDC0EB00108200013A232AF8D9AF
:100DE00020460349BDE8384009F0E8BE47444404C2
:100DF000F50D000008B572B60248FFF7D9FF62B6DC
:100E000008BD00BF9012FF1F2DE9F04F42F21403FE
:100E100005468FB0EF58099542F2080242F21800D9
:100E20000123AA582858AE4C03FA07F8099F02EB91
:100E3000C01C3A4607F5005907F5015E1746CDF884
:100E40000C903A461746CA46039ACDF810900AF11C
:100E50002C0ACDF808A002F1300A049ACDF81490BB
:100E6000CDF80CA002F1340A059ACDF8189042F2A0
:100E70002001CDF810A002F1380A069ACDF8209092
:100E8000695CCDF814A002F13C0A089ACDF818A0CC
:100E900001316046283241F3000641F3400500F677
:100EA000020041F38001089207F501520792F6B261
:100EB000EDB2C9B20CF1020C5FFA88F809F11C0915
:100EC0000EF1180E00220190F6E0DEF800B0019855
:100ED0001CF802AC10F8027C02985FFA8BFB18EA4F
:100EE0000A0F54F83BB08BF80031D0F800B07C48C2
:100EF0005FFA8BFB08BF4FF0010A50F83BB0039834
:100F000018BF4FF0000A18EA070F0CBF012700278F
:100F10001AEA060F14BF8BF880308BF80031D0F836
:100F200000B004985FFA8BFB374254F83BB014BF13
:100F30008BF880308BF80031D0F800B005985FFA5C
:100F40008BFB1AEA050F54F83BB014BF8BF88030C6
:100F50008BF80031D0F800B006985FFA8BFB2F4277
:100F600054F83BB014BF8BF880308BF80031D0F8C8
:100F700000B007985FFA8BFB11EA0A0F54F83BA008
:100F800014BF8AF880308AF80031D0F800A05FFAE8
:100F90008AFA394254F83A7014BF87F8803087F8DB
:100FA00000319EF8007054F8377087F88030D9F817
:100FB000007002F1010A574500F08A80DEF800B0A7
:100FC00001981CF801AC10F8017C02985FFA8BFBC9
:100FD00018EA0A0F54F83BB08BF80031D0F800B093
:100FE0003F485FFA8BFB08BF4FF0010A50F83BB057
:100FF000039818BF4FF0000A18EA070F0CBF01272B
:1010000000271AEA060F14BF8BF880308BF80031E6
:10101000D0F800B004985FFA8BFB374254F83BB02D
:1010200014BF8BF880308BF80031D0F800B00598F1
:101030005FFA8BFB1AEA050F54F83BB014BF8BF82C
:1010400080308BF80031D0F800B006985FFA8BFB47
:101050002F4254F83BB014BF8BF880308BF800312E
:10106000D0F800B007985FFA8BFB11EA0A0F54F82A
:101070003BA014BF8AF880308AF80031D0F800A075
:1010800001985FFA8AFA394254F83A70DFF850A0B2
:1010900014BF87F8803087F800319EF80070023264
:1010A00054F837700230802A87F880300CF1020C37
:1010B00001904FF0010715D0D9F8007097427FF4E6
:1010C00004AF0898077854F8377087F88030FCE64A
:1010D00008980778024850F8377087F880306DE735
:1010E000882A0100099842F2540242F21803825CF5
:1010F0005AF8322082F88070C25842F24403D60770
:10110000C3580998DBB242F218025AF833304CBF88
:1011100083F8807083F8007142F248038258C35804
:101120000998099FDBB212F0020F54F833304FF0E8
:10113000010214BF83F8802083F8002142F24C039F
:1011400042F21802C35882580998DBB212F0040F19
:1011500054F833304FF0010214BF83F8802083F835
:10116000002142F2500342F21802C3588258DBB207
:1011700012F0080F54F833304FF0010214BF83F817
:10118000802083F8002142F254021C4BBA5C42F2E8
:10119000280654F83220012582F800510FCBBE5D9D
:1011A00054F8366086F800510EAD05E90F0042F2A2
:1011B000140442F218013A597B5805EB82000133BE
:1011C000DD0650F8100C14D5099D013200236B5038
:1011D00051070AD5099E06F5005142F20802096836
:1011E0003351B1500FB0BDE8F08F2A510FB0BDE8B8
:1011F000F08F7B500FB0BDE8F08F00BF6405010099
:1012000038B500F500540C340546204609F020FDA1
:101210002846FFF7F9FD002803DB084B421E9A42DF
:1012200000D938BDC0EB00108200013A232AF8D95A
:1012300020460349BDE8384009F0C0BC4744440497
:101240004512000008B572B60248FFF7D9FF62B632
:1012500008BD00BF9012FF1F38B500F5805241F263
:1012600004038025202115600446C1504FF48052AC
:1012700000210BF083F8204638BD00BF01F00F01BC
:101280004FF480520BF07AB82DE9F04F83B00C9CEC
:1012900002EB04094A4530DA154698460F9A0E9B30
:1012A00003EBC21AC5EB0A0301930D9B83460E465E
:1012B00008EB030747451DDD019BEB180BEB030A09
:1012C000444606E001349AF800000AF8800BA74271
:1012D00010D022462946304601F0B4F90028F1D159
:1012E00022462946304601F075F90134A7420AF832
:1012F000800BEED101354D45DCD103B0BDE8F08F58
:10130000002070474FF0FF30704700BF10B5044B0E
:10131000044640F8103B05F077FF204610BD00BFA3
:101320007C050100836C13B1184605F0BFB8C06C92
:1013300008B104F0ADB87047836C13B1184604F0DF
:101340007BBFC06C08B103F099BC4FF0FF30704711
:10135000826C62B1137803F0080303F0FF0003B35B
:10136000D3695069181A48BF6FF000407047C16CCC
:10137000C1B191F8313003F0080303F0FF0083B1ED
:10138000D1E90423D1E90001101A30B463EB010163
:1013900000256FF000448D4208BF844200D22046F1
:1013A00030BC70470846704700B5836C83B063B1AA
:1013B000184601220DF1070104F06EFE01280CD140
:1013C0009DF8070003B05DF804FBC06C28B1012252
:1013D0000DF1070103F07EFBF0E74FF0FF30F1E77E
:1013E00000B5836C83B08DF8071043B11846012215
:1013F0000DF1070105F060F803B05DF804FBC06C67
:101400000028F9D001220DF1070104F057F903B0CB
:101410005DF804FB836C13B1184605F04DB8C06C41
:1014200008B104F04BB97047F0B5334E34688FB053
:1014300014B3D4F8805475B10024294623462F4AAA
:101440008DF8004068468DF801408DF8024004F0A8
:1014500015FE0FB0F0BDD4F8841400293FD02B4600
:10146000264A8DF8315068468DF832508DF8335049
:1014700003F0FEFE0FB0F0BD40F2B44009F07CFC7A
:10148000054600F592670123DFF87CE01C481D4902
:10149000C5F880442922C5F8844485F8984485F825
:1014A000994485F8B244C5F89004C5F89C14C5F871
:1014B000A4E4194685F8AF2485F8AD343846356084
:1014C00007F07CF83846C5F88C7406F01FFC04461B
:1014D00028B9D5F88C14284605F04CFF10B9002027
:1014E0000FB0F0BD3368D3F88054002DA5D1D3F8E8
:1014F00084140029B3D1F2E7B433FF1F9C0D01001F
:10150000D42901007C2901000320003810B5064CC5
:10151000206828B140F2B44109F034FC0023236074
:10152000BDE81040FFF780BFB433FF1F2DE9F04F37
:10153000A54D2B68ADF58D5D13F0010487B000F06B
:101540001481A24C2368D90740F1FD80A04C236888
:10155000DA0740F1EE80DFF8D8920EAD6CA8FFF705
:101560007BFE0CA800F0F0FF10A800F0EDFFD9F80A
:10157000003045F8103C55F8108C03F0C1F90446D2
:101580009448FFF7A7F8944B026B1B88D0F804B07F
:10159000049223B1914EB36C002B00F0F681904B76
:1015A000A3FB08239B0655BF8E4B8F4BDFF884A20D
:1015B000DFF884A22022BBF1010F1A60204600F060
:1015C000A180BBF1020F37D007F066FE0646204629
:1015D00007F084FE14AC03463246204683490BF0E4
:1015E000EFFB7D4B1B88002B4BD0DFF850B28049BE
:1015F000DBF800200968C2EB08028A4241D37D4F24
:101600003A68002A00F0CA807B4D2A68002A40F020
:10161000D1807A4801F058FE002840F011812A68F4
:10162000754E002A40F00283C6F800806B4973486B
:101630000E4601F059FE0DE107F03CFE704A714B79
:101640000928CCBF93469B46204607F033FE06464A
:10165000204607F043FE044607F01CFF6A4B6B4A26
:101660000094002814BF1846104614AC334601906D
:101670005A46204666490BF0A3FB574B1B88002BAC
:10168000B3D1644922465346086810A901F07AFA9A
:1016900000216CA8FFF7F2FD10A800F0F5FF064648
:1016A00010A800F0F3FF054610A800F0EDFF044677
:1016B00010A800F0EBFFC4F17F03C0F11F0003EBA3
:1016C000D37300EBD0705A104010002303900292A5
:1016D00000961A46019510A96CA8FFF7D5FD049B4A
:1016E000002B40F0AA816CA94B48FFF761F910A8C4
:1016F00000F0F8FF0CA800F0F5FF0DF58D5D07B0C8
:10170000BDE8F08F07F0D6FD3E4E3D4B0928C8BF1F
:101710001E46204607F0CEFD8346204607F0DEFD3C
:1017200014AC009032465B4620463C490BF048FB27
:1017300057E7204608F03EFADFF8F490002840F022
:1017400023820EAD0AE7204608F034FA00283FF461
:10175000FDAE2A4801F0FAFB204608F031FA304A83
:101760003049264809F0F0FBF0E6284608F022FA56
:1017700000283FF4E6AE194E2B4B34714FF47A72C9
:101780002846B2603473B464F464336008F018FA25
:101790003046234A254909F0D7FBD2E6D9F8002084
:1017A00045F80C2C55F80C2C134D3A602A68002A89
:1017B0003FF42FAF1148C2EB080601F0D7FD864277
:1017C0003FF627AF054E45E08C12FF1F7C12FF1F2E
:1017D0002812FF1F5033FF1F3633FF1F2C12FF1F2D
:1017E000D34D621084F00F4088F00F40DC0D0100F3
:1017F0008012FF1FE411FF1F8412FF1FE811FF1F5B
:10180000A0270100B40D0100B80D01008C280100D3
:10181000F40D01002012FF1F9012FF1FE80D0100C0
:101820003007FF1F612F0000A00501000D1300000D
:10183000A835FF1FA40D0100AC0D01002412FF1FED
:10184000A34EB26C002A00F0F881A24805F0DCFC3F
:10185000FFF75CFEB26C9E49002A00F0A2819E4810
:1018600001F0A0FD012840F077810020224610A958
:1018700053466071994801F085F9974801F094FD4D
:10188000044610A800F000FF00EBD0739248A4EBD0
:10189000630401F08BFD054610A800F0F7FE00EB95
:1018A000D070A5EB60058C4801F05EFD01460CA8E8
:1018B00000F056FF884801F067FD0746002840F019
:1018C000258110A800F0E0FE804610A800F0DEFEA2
:1018D0003B463A4610A9019002946CA8CDF80080CE
:1018E0000395FFF7D1FC0CA800F0CEFE04460CA82F
:1018F00000F0CCFE00940190039702973B463A46D5
:101900000CA96CA8FFF7C0FC049B002B3FF4EBAEC6
:10191000B36C6F4A002B00F0D1810DF1B00A504634
:1019200000F012FE0023B06C8DF8603018AB684AEE
:101930000493002800F096810D22049904F006FF1C
:101940002E2104980BF062FA08B100230370049A68
:1019500063485146002301F015F9504600F0AAFEF5
:10196000504600F091FE0446504600F08FFE0023E2
:10197000019000946CA8039302931A465146FFF716
:1019800083FC504600F0AEFEADE6F36C1F46002B24
:101990007FF405AE5348FEF7C5FD82465148FEF779
:1019A000C3FD514B1860514B0593BAF1000F6BD139
:1019B0004F4B06930DF1B00A049B002B73D14D4B96
:1019C0004D4A10881A68079209F0CAF9079A4B49DC
:1019D00000EB400300EB8300024450460BF0F0F9AB
:1019E000069B5246196818A8002305F027FD384BBE
:1019F0009DF864101A9A9DF86CE031710DF1700A2F
:101A0000514603F11000B26086F80CE005F010FCBE
:101A10003B4B1893504605F0F7FBB36C002B00F0DE
:101A200011812B492C4801F0A3FA002800F0138102
:101A3000059A138801331380B1E518A800F084FDDE
:101A4000304B31491A682CA80BF0BAF92CAA18A906
:101A50000023234801F096F818A800F02BFE18A8E0
:101A600000F012FE044618A800F010FE00230190BA
:101A700000946CA818A9039302931A46FFF704FC7C
:101A800018A800F02FFE2EE6188890FBFAF30AFB48
:101A900013000028164B069340F3ED80049B0DF1D4
:101AA000B00A002B8BD0059B1A88134B1B88B2FB06
:101AB000F3F103FB11230F4A104912689BB203EBA9
:101AC000430003EB80031A4450460BF079F987E793
:101AD0002C12FF1F3C12FF1FE811FF1FB833FF1F1E
:101AE0001C33FF1F5033FF1F8012FF1F1C12FF1FEC
:101AF000B433FF1F1812FF1F3633FF1FD00D010034
:101B00007C0501008812FF1F000E01000CA800F0E8
:101B1000BBFD80460CA800F0B9FD00273B463A46C5
:101B20000CA9CDF80080019003976CA80297FFF7ED
:101B3000ABFB10A800F0A8FD804610A800F0A6FDA1
:101B4000CDF800800190039502943B463A4610A9D7
:101B50006CA8FFF799FBD7E664492246534608680C
:101B600010A901F00FF810A800F08EFDC0F17F0061
:101B700000EBD07410A800F089FDC0F11F0000EB4D
:101B8000D070641045108EE60EADD9F80020584B89
:101B900045F8142C55F8142C1A60204608F010F85B
:101BA000DCE4CB6C0593002B7FF459AED9F8002010
:101BB0002C9239682C9E059B4C4ADFF848E12B603B
:101BC000059D10683D6053462246741A10A9CEF850
:101BD0000040CBF8008000F0D5FF29466CA8FFF745
:101BE0004DFB10A800F050FD064610A800F04EFD79
:101BF0002F46054610A800F047FD044610A800F047
:101C000045FDC4F17F03C0F11F0000EBD07003EB72
:101C1000D37340105B1003900293009601953B46EE
:101C20003A4610A96CA8FFF72FFB5CE5314801F09C
:101C30009DFB326810443060F8E4F26C002A7FF4B7
:101C400004AE05E62C4BDB6C002B7FF4EAAE294892
:101C500001F01EFBECE6274801F01AFB274805F0CF
:101C6000D3FAE5E6D06C00283FF46AAE0D22049961
:101C700002F062FE64E61B68D3F880E4BEF1000F58
:101C800021D00DF1B00A71463B4650461C4A8DF8F2
:101C9000B0708AF801708AF8027004F0EFF9002839
:101CA0003FF48AAEDFF858C0BCE80F00D646AEE875
:101CB0000F00DCF80030AEF8003091E6D36C002B5A
:101CC0007FF42BAE0FE5D3F884140DF1B00A002990
:101CD0003FF472AE73465046094A8AF831E08AF8FA
:101CE00032E08AF833E003F0C3FAD8E72012FF1F8E
:101CF0002412FF1FE811FF1F2C12FF1F3C12FF1FB1
:101D0000BC0D01008812FF1F2DE9F0434B4B4C4ADC
:101D10001968AFB0002306A805F090FB494B189A4C
:101D20001A934FF47A7100238DF86C308DF874306B
:101D30002C932D931C91002A7AD0DFF81C81D8F8BF
:101D4000000030B109F05EFF3F4A00231380C8F85D
:101D500000300AAE1EAD002231462846DFF8F8906A
:101D6000394F05F0D5FA002835D02C9800238DF88E
:101D70000830002844D002AC21460D2204F0E6FCD5
:101D8000F8B1324920460BF0AFF8D0B1D8F80030A6
:101D9000002B3ED03A88013292B202EB4201184643
:101DA00002EB81013A800AF001FE3B88C9F800008D
:101DB00003EB430203EB82030D3B214618440BF077
:101DC000FDF9284605F020FA00223146284605F0A4
:101DD0009FFA0028C9D1D8F8000010B11A4B198811
:101DE00009BB304605F010FA194C1A94284605F044
:101DF0000BFA3046069405F007FA2FB0BDE8F083E1
:101E00002D980028DDD002AC21460D2202F094FD71
:101E1000B6E701220D2001933A8009F0EBFE019B09
:101E2000C9F80000C9E70B4B0D220AF0F9FAD8E710
:101E3000199B002B81D10AAE1EADD5E7B433FF1F2D
:101E40009C0D0100A00501003633FF1F040E0100A8
:101E50007C050100E9CE00001812FF1FF0B54D4FC0
:101E60003B68D3F88044ADB03CB3002518AE2146A2
:101E70002B463046484A8DF860508DF861508DF8F9
:101E8000625004F0FBF898B1444D2C6844B12046F0
:101E900000F054FD2046182108F074FF00232B6049
:101EA0003F48FEF717FC3F4914300BF01DF8A8B966
:101EB0003D4B3E4A1A602DB0F0BDD3F88414002982
:101EC000F6D018AE23463046334A8DF891408DF84F
:101ED00092408DF8934003F0CBF9D4E700233968A2
:101EE0002D4A04A805F0AAFA169B002B44D0002323
:101EF0004FF47A712E4A8DF864308DF86C302A9345
:101F00002B931A91189208AC0DE0304600F070FF48
:101F10002348FEF7DFFB694614300AF0E5FFE0B125
:101F20001CA805F071F9214600221CA805F0F0F963
:101F300069460028E9D12B683BB31B4A1360204651
:101F400005F062F91B4D18951CA805F05DF92046B7
:101F5000049505F059F92DB0F0BD182008F00CFFDC
:101F6000074600F0E3FC384631462F6000F006FDDE
:101F70001CA805F049F9DEE7179B002BB7D10A4BE7
:101F80000A4A1A6008AC0B4DE1E7074B074A1A6092
:101F9000D5E700BFB433FF1F100E01001412FF1F5E
:101FA0005033FF1F580501002012FF1FCC11FF1FE7
:101FB000A00501007C0501002DE9F04102F0A0FC24
:101FC000604C07466048FEF785FB2378C66B002B04
:101FD00069D15E4D2B68013B032B79D8DFE803F014
:101FE0005844330202F08CFC07465748FEF772FB58
:101FF000C66B5748FEF762FA01286DD05548FEF7C8
:102000005DFA012868D05448FEF758FA012863D0D9
:102010005248FEF753FA01285ED02378EBB93846D0
:1020200007F03AF90446304607F036F9844208D101
:10203000384607F053F90446304607F04FF984421A
:102040000BD0BDE8F0814548FEF738FA0128F8D1F9
:102050004248FEF733FA0028FAD102232B604048A9
:10206000BDE8F041FEF768BC3C48FEF727FA0328BC
:10207000034651D03648FEF721FA012852D03248A3
:10208000FEF728FB237853B3BDE8F041FFF74EBAC3
:10209000002001F003FF0028D3D102232B60BDE80C
:1020A000F041FFF7DBBE384607F0F6F8054630464C
:1020B00007F0F2F885428CD1384607F00FF9054653
:1020C000304607F00BF9854283D10023237080E767
:1020D00002232B60BDE8F08101232370BDE7846BF0
:1020E000304607F0D9F88046204607F0D5F88045FD
:1020F0001DD0384607F0D0F80646204607F0CCF849
:102100008642C1D1384607F0E9F80646204607F076
:10211000E5F88642B8D104232B601148BDE8F041B0
:10212000FEF71EBC2860BDE8F04101F0B7BE3046A6
:1021300007F0D4F80646204607F0D0F88642D8D1FA
:10214000A2E700BF3433FF1F5033FF1F3407FF1FC8
:102150009C33FF1F3833FF1FEC32FF1F0433FF1F78
:102160009012FF1F30B51B4891B0FEF7B3FA054639
:102170000FCD6C460FC40FCD0FC40FCD0FC495E823
:102180000F0084E80F001448FEF78EF9022810D0E3
:102190001248FEF789F9022813D00F48FEF784F998
:1021A00002280E48F9D0FEF77FF90228F5D011B0C9
:1021B00030BD00236946012206480A93FEF74AFA19
:1021C000EBE7012369461A4602480A93FEF742FAF2
:1021D000E3E700BF5033FF1F9C33FF1FEC32FF1FAC
:1021E00000B5ADF5805D83B06846FFF735F811485E
:1021F000FEF75AF9022804D00DF5805D03B05DF8B2
:1022000004FB0F216846FFF739F869460A48FEF7D4
:10221000CFFB0848FEF748F90228FAD00548FEF738
:102220004DF90128E8D00348FEF748F90128F5D117
:10223000E2E700BF0433FF1F9012FF1FF0B5ADF5BA
:10224000825D83B00BAB10A80593324DFFF704F805
:1022500007A800F079F905982F4A30490AF0B0FD37
:10226000059A07A90023284600F08CFC07A800F077
:102270000BFA074607A800F009FA064607A800F07F
:1022800003FA044607A800F001FAC4F1800303EB47
:10229000D3735A10C0F10F00002307A902920390D4
:1022A0001A4610A800970196FEF7EEFF1C48FEF7AD
:1022B00011FA1C49826A05980AF082FD059A07A95D
:1022C0000023284600F05EFC07A800F0DDF9054673
:1022D00007A800F0DBF9044607A800F0D5F9C0F123
:1022E000800000EBD070002340101122029007A95B
:1022F00010A8039200951A460194FEF7C5FF10A995
:102300000948FEF755FB07A800F0ECF90DF5825DD2
:1023100003B0F0BD1C33FF1F180E0100200E01009A
:102320005033FF1F2C0E01009012FF1F70B58EB0AE
:102330000AA800F009F96A4A6A4D137843F00103CC
:102340001370202007F0E0FA08F004FD05F10806FC
:102350000624E4B22046042107F036FD2046002181
:1023600007F01EFDB54202D055F8044FF1E70121F8
:102370000D2007F029FD5C48FEF7ACF9406B0030FA
:1023800018BF012002F08EFAFFF7ECFE07224FF48F
:102390000D710AA800F0ACF940F2B67253490AA8D0
:1023A00000F0DAF840F2F11251490AA800F0E2F820
:1023B0000AAA5E214F4800F0CDFA4FF4EB724E4965
:1023C0004C4800F059FB0B224FF4B1710AA800F001
:1023D0008FF940F29B7249490AA800F0BDF840F21B
:1023E000EF1247490AA800F0C5F80AAA2D2145486E
:1023F00000F0B0FAE1224449424800F03DFB1522CA
:10240000CA210AA800F074F940F649023F490AA817
:1024100000F0A2F840F222223D490AA800F0AAF8F2
:102420000AAA0F213B4800F095FA4B223A49394855
:1024300000F022FB2C48FEF74DF9816A3748FEF781
:10244000C7FA1621012202230520099108920721CB
:1024500013220793152611230325142403900291B8
:1024600001921721102200932C48069612230595FD
:102470000494FEF787F91C48FEF72CF9C168274839
:10248000FEF782FA1848FEF725F990F82410234841
:10249000FEF784FA2148FEF74FFAFFF7CFFE2048F7
:1024A00007F02EF83C2007F039F8642007F0B6FC5E
:1024B0000D48FEF70FF9806807F03CFCFEF7B4FF0B
:1024C00008B1FFF721FCFFF7C9FC4FF4FA6007F0F1
:1024D000A5FCFFF785FE0AA800F004F90EB070BD58
:1024E00000D00740D81601005033FF1F3C0E0100FA
:1024F000BC0501001C33FF1FA00901007C1F010067
:10250000B0070100B833FF1FF4150100E416010005
:10251000780B0100CC11FF1F301F01009012FF1F2C
:102520002149000010B5054C204600F0FFF9204677
:10253000034A0449BDE8104008F006BDCC11FF1F56
:102540003007FF1F3D290000002202604260028127
:1025500042818281C281704710B54389848903FB1F
:1025600004F39A4201D0002010BD006806F0E6FF97
:10257000002010BD10B54389C48903FB04F39A42BF
:1025800001D0002010BD406806F0D8FF002010BD2B
:10259000002917DB002A15DB30B40489A14210DAC8
:1025A0004489A2420DDA84890568481002FB0402BE
:1025B000C907A85C07D500F00F0040EA0310C0B2BD
:1025C000A85430BC704703F00F0320F00F001843ED
:1025D000A854F6E710B48489006801EBD17302FBBC
:1025E00004025B105DF8044BD05CCB074CBF0009C4
:1025F00000F00F00704700BF002918DB002A16DB2F
:1026000030B40489A14211DA4489A2420EDAC489A5
:102610004568C81002FB0402A85C4BB101F0070139
:10262000012303FA01F10843C0B2A85430BC70473B
:1026300001F00701012303FA01F120EA0100A85487
:10264000F4E700BF00291BDB002A19DB038999424C
:1026500016DA43899A4213DA10B4446894B1C389F4
:10266000C81002FB034201F00701125C012303FAC8
:1026700001F10A4214BF184600205DF8044B704770
:10268000012070470120F8E70089704740897047B2
:1026900083894289006861F31F1102FB03F209F08C
:1026A0006DBE00BF838942890068002102FB03F2EE
:1026B00009F064BEC38942894068002102FB03F22D
:1026C00009F05CBE10B50446006818B108F058FB6C
:1026D00000232360606820B108F052FB0023636090
:1026E00010BD10BD10B50446FFF7ECFF204610BD2D
:1026F00070B50D4604461646FFF7E4FFAAB215F082
:10270000070102F0010318BF012105EBD570002D70
:10271000B8BF073503EB600001EBE50580B222810D
:10272000A081E581668106FB00F008F027FBE389C4
:10273000206006FB03F008F021FBA389628960603A
:1027400002FB03F20021206809F018FEE389628988
:10275000606802FB03F20021BDE8704009F00EBE84
:1027600038B50D464A8909890446FFF7C1FF296833
:10277000D1B1A089638910FB03F292B203FB00F38D
:102780009A4222D06968C1B1E089638910FB03F2E3
:1027900092B203FB00F39A4201D0204638BD606834
:1027A00006F0CCFE204638BD206808B108F0E8FAF3
:1027B0006968002323600029E6D1606808B108F049
:1027C000DFFA00236360204638BD206806F0B6FEBD
:1027D000D8E700BF70B50646886C82B00D46002869
:1027E00035D00222694603F057FCAB6CC443E40FBA
:1027F000002B38D0022218460DEB020103F04CFCEE
:10280000AB6C0028B4BF002404F00104002B73D08B
:102810001846022201A903F03FFCAB6C0028B4BFAC
:10282000002404F001043BB3184602220DF1060116
:1028300003F032FC0028B4BF002004F00100BDF812
:102840000010802929D00024204602B070BDC86C39
:10285000002869D00222694602F03CF9AB6CC443FF
:10286000E40F002BC6D1E86C0028E8D002220DEB63
:10287000020102F02FF9C3E7E86C0028DFD00DF168
:102880000601022202F026F9BDF800100028B4BFAC
:10289000002004F001008029D5D1BDF80220202AB3
:1028A000D1D1BDF80430042BCDD1BDF80630012BB9
:1028B000C9D80028C7D03046FFF71AFFB2897389FC
:1028C000A86C316803FB02F2E8B103F0E5FBBDF848
:1028D0000630C443E40F002BB6D0F2897389A86C8C
:1028E000716803FB02F2A0B103F0D6FB0028B4BF6D
:1028F000002404F00104A7E7E86CA8B1022201A9B2
:1029000002F0E8F889E7E86C00289CD002F0E2F8D1
:10291000DDE7E86C002896D002F0DCF80028B4BFB0
:10292000002404F001048FE7002088E710B5044676
:10293000FFF70AFE00232361204610BD10B50446B0
:10294000006908B108F01CFA2046FFF7CBFE2046CC
:1029500010BD00BF70B5044600690D46164608B1AB
:1029600008F00EFA31462046FFF7FAFEA58205EB85
:10297000850008F003FA206170BD00BF70B5054600
:10298000886CC2B00C4600286CD0002103F08AFC91
:10299000A06C00285FD0022201A903F07DFBA06C8F
:1029A00000284ED00DF103063146012203F074FBDE
:1029B0004FF4807202A8002109F0E0FCA06C32788C
:1029C00020B302A903F068FBA06C50B30DF106061A
:1029D0003146022203F060FB286908B108F0D0F903
:1029E000308800EB800008F0C9F928610146328880
:1029F000A06C02EB8202F0B103F04EFB21462846A8
:102A0000FFF7E8FE3388AB8242B070BDE06C0DF199
:102A100006060028E0D002A902F05CF8A06C0028AD
:102A2000D4D1E06C0DF106060028D5D03146022243
:102A300002F050F8D0E7E06C0028DFD002F04AF84E
:102A4000DCE7E06C0DF103060028B1D0314601222D
:102A500002F040F8ACE7E06C58B1022201A902F0A4
:102A600039F89CE7C86C20B10022002302F01EF95F
:102A70008EE70DF103069BE708B5838A03EB83031A
:102A80009A4201D0002008BD006906F057FD0120E0
:102A900008BD00BF2DE9F04F83B0804608460C46C4
:102AA00001910AF0EDFBB8F814B000270BF1FF3CE0
:102AB00001381FFA8CFC87420CEB8C0C04F1FF3AB6
:102AC000BE465E4625DA1AF8012F002E55D0D8F8FA
:102AD000105095F800B05A453AD02B4605EB0C0142
:102AE00002E01C78944234D0994203F105039946E0
:102AF000F7D12B4602E01C78944224D08B4203F19C
:102B000005031D46F7D1002301378742C3EB0E0EA4
:102B1000D9DB20EAE070019B185C86B3D8F810106E
:102B20000B78834221D00B468C4402E01A78824213
:102B30001BD0634503F105031946F7D1002070440B
:102B400003B0BDE8F08FEB782A7943EA0223DBE794
:102B5000A94699F8013099F802105A4543EA012331
:102B60009E44F0D005EB0C01C3E74B78887843EA2C
:102B70000020704403B0BDE8F08F3346C4E7304610
:102B8000F7E700BF2DE9F04F87B0884611469B4616
:102B900005920746FFF77EFF04463846FFF776FDAD
:102BA000214602464046FFF7A3FD002300939946C5
:102BB0000393059C20460AF063FB009A824280F250
:102BC000C880B7F814E0A15CBEF1000F00F0C88027
:102BD0003B6993F800C0614500F0B0800EF1FF340E
:102BE000A5B205EB85051D441A4603E0107888421E
:102BF00000F0A580954202F105021646F6D10022AA
:102C00000492A4B204EB84041C44002203E013F8F1
:102C1000050F884207D058789D7840EA0520024485
:102C2000A34292B2F3D10292029B049A384603EB7C
:102C3000020AFFF72BFD0026864248DA029B9A45DE
:102C40003FDD039C029D14E0FFF7FCFC324601903F
:102C500021464046FFF7F6FC019B0340DBB23246BB
:102C600021464046FFF7C8FC0135554504F10104F3
:102C700027D0294632463846BBF1000F04D0009BCE
:102C80001BF803302D2B46D0FFF7A4FC3246034639
:102C900021464046FFF77CFCA1453246294638468E
:102CA000D2DC294632463846FFF7CCFC01350346D4
:102CB000214632464046FFF79FFC554504F101048A
:102CC000D7D13846FFF7E2FC01368642B6DB059ADB
:102CD00000990498515C039ABB8A024491469BB1C7
:102CE000386902788A4224D0013B9AB202EB820210
:102CF0000346024402E01C788C421AD0934203F14E
:102D000005031846F7D10023C3EB09030393009B87
:102D1000013300934DE7002321464046FFF738FC7E
:102D2000A145A1DC0123324621464046FFF764FC61
:102D30009AE7C378027943EA0223E5E71E46B078B2
:102D40007278614542EA0022049206D00EF1FF3407
:102D500057E7404607B0BDE8F08F0023029363E7D2
:102D6000CDF808E0CDF810E05EE700BF70B51C4B71
:102D70001C4A1968A8B00023684604F05FFB129B48
:102D800043B300244FF47A72174B8DF854408DF8FA
:102D90005C40269427941692149304AD02E018A880
:102DA00004F032FA0022294618A804F0B1FAE6B27B
:102DB00001340028F3D1284604F026FA0B4C149471
:102DC00018A804F021FA2846009404F01DFA3046B1
:102DD00028B070BD139E002ED3D104AD034CF2E792
:102DE000B433FF1F100E0100A00501007C05010097
:102DF00030B50446806C83B00D46002847D00021D2
:102E000003F050FAA06C002837D002220DF1060121
:102E100003F042F9A06C28B301220DF1050103F083
:102E20003BF9A06C9DF8052001320C2ACABF0D2287
:102E3000D3B213468DF8053058B1294603F02CF96A
:102E40009DF805301D440022184605F8012C03B0FA
:102E500030BDE06C0028F5D0294601F03BFE9DF81E
:102E60000530EFE7E36C002BDCD0184601220DF1B2
:102E7000050101F02FFEA06CD4E7E36C002BD1D04C
:102E8000184602220DF1060101F024FEC2E7E36CB0
:102E9000002BC7D018460022002301F007FFB1E73E
:102EA00010B5044600F500500C3007F0D1FE204666
:102EB00010BD00BF2DE9F041DFF88C80184C194F90
:102EC000194E1A4D4046FDF73BFC22461849404634
:102ED00008F03AF81748FDF707FC1E211648FDF7E1
:102EE000C5FA1C211548FDF7C1FA1D211448FDF74C
:102EF000BDFA1B211348FDF7B9FA3846FFF716FD56
:102F000022463146384608F01FF82846FFF70EFDE6
:102F1000224631462846BDE8F04108F015B800BF0A
:102F20003007FF1F1C33FF1F3D290000B833FF1F70
:102F3000A12E00005033FF1F9C33FF1F3833FF1FAB
:102F4000EC32FF1F0433FF1F9012FF1F10B5044621
:102F50001C30FFF7F9FA002323826382204610BD5C
:102F600010B504461C30FFF7BDFB204610BD00BF66
:102F70002DE9F0470646886C88B00D46002800F021
:102F80005B8102220DF1060103F086F8AB6CC443AD
:102F9000E40F002B00F05E811846022202A903F024
:102FA0007BF8AB6C0028B4BF002404F00104002BB4
:102FB00000F05881184602220DF10A0103F06CF866
:102FC0000028B4BF4FF0000804F00108B8F1000F6A
:102FD00000F0D880BDF80A30002B00F0C0804446D5
:102FE000002706F1020A06F10409AAE0022231468E
:102FF00003F052F8AB6C0028B4BF002404F00104C5
:10300000002B00F0128118460222514603F044F8CA
:10301000AB6C0028B4BF002404F00104002B00F0C6
:10302000FD8018460222494603F036F8AB6C0028B2
:10303000B4BF002404F00104B11D002B00F0E880AF
:103040001846022203F028F8AB6C0028B4BF002415
:1030500004F0010406F10801002B00F0D2801846AC
:10306000022203F019F8AB6C0028B4BF002404F06E
:10307000010406F10A01002B00F0BC801846022270
:1030800003F00AF8AB6C0028B4BF002404F001047C
:1030900006F10C01002B00F0A6801846022202F077
:1030A000FBFFAB6C0028B4BF002404F0010406F160
:1030B0000E01002B00F090801846022202F0ECFF77
:1030C000AB6C0028B4BF002404F0010406F1140125
:1030D000002B7AD01846012202F0DEFFAB6C0028EC
:1030E000B4BF002404F0010406F11501002B65D0E3
:1030F0001846012202F0D0FFAB6C0028B4BF0024B8
:1031000004F0010406F11601002B50D018460122EC
:1031100002F0C2FFAB6C0028B4BF002404F001042D
:10312000002B35D01846112203A902F0B5FFBDF8D7
:103130000A300028B4BF002404F001040137BB4268
:103140000CDDA86C00287FF451AFE86C002800F07B
:1031500094800222314601F0BDFC4BE794B13288E5
:103160007389BDF808103182003218BF0122003384
:1031700018BF01230021404632837383718208B057
:10318000BDE8F0874FF00008404608B0BDE8F08782
:10319000E86C002873D0112203A901F09BFCBDF854
:1031A0000A300028B4BF002404F00104C6E7E86C2C
:1031B000002868D0012201F08DFCABE7E86C002804
:1031C00059D0012201F086FC96E7E86C002852D025
:1031D000012201F07FFC81E7E86C00284BD002223D
:1031E00001F078FC6CE7E86C002844D0022201F082
:1031F00071FC56E7E86C00283DD0022201F06AFC21
:1032000040E7E86C002836D0022201F063FC2AE790
:10321000E86C80B3022201F05DFC15E7E86C50B366
:103220000222494601F056FC00E7E86C18B302227E
:10323000514601F04FFCEBE6C86C0028A2D00222F8
:103240000DF1060101F046FCAB6CC443E40F002B0A
:103250007FF4A2AEE86C002894D0022202A901F00B
:1032600039FC9EE6E86C00288CD002220DF10A01A0
:1032700001F030FCA4E6BDF80A3000245EE7044605
:10328000BDF80A305AE7BDF80A30044656E700BFD9
:1032900010B50346002200F11C0420461A805A8013
:1032A0009A80DA801A815A819A81DA811A755A7560
:1032B0009A751A835A831A825A82FFF7F3F92046C5
:1032C000BDE81040FFF7F6B9428A038A9A4201D05E
:1032D00000207047B0F91A00032803D0B0FA80F03C
:1032E0004009704701207047B0F9183010B5044606
:1032F000012B408A228A1BD00323824223831BD0C6
:10330000904225D3B4F91A30022B05D0002010BD0D
:1033100002229342628317D0E389012BF6D11C3439
:103320002046FFF7BFF92046FFF7C4F9012010BD82
:1033300002239042238313D1B4F91A20012AE7D043
:103340000322022B6283E1D1A388012BDAD1E6E7C5
:1033500004F11C00FFF73EFA638A0133638210BD5B
:10336000A388012BCCD1DAE71C307047B0F91830B4
:10337000022B06D0B0F91A30022B0CBF4089C0884E
:1033800070470088704700BFB0F91830022B07D093
:10339000438B023B9BB2012B94BF8089008970470D
:1033A00040887047007D7047407D7047807D704742
:1033B0004368002B10B5044603DD806808B107F0B0
:1033C000DFFC204610BD00BF4368002B10B504464B
:1033D00003DD806808B107F0D3FC204610BD00BFB4
:1033E0004368002B10B5044603DD806808B107F080
:1033F000C7FC204610BD00BF4368002B10B5044633
:1034000003DD806808B107F0BBFC204610BD00BF9B
:103410004368002B10B5044603DD806808B107F04F
:10342000AFFC204610BD00BF4368002B10B504461A
:1034300003DD806808B107F0A3FC204610BD00BF83
:103440004368002B10B5044603DD806808B107F01F
:1034500097FC204610BD00BF4368002B10B5044602
:1034600003DD806808B107F08BFC204610BD00BF6B
:10347000C1B20148FDF792BA9012FF1F2DE9F04347
:103480008BB0054606A80E46FFF75EF801F038FA45
:1034900009228046802106A8FFF72AF9012106A803
:1034A000FFF7F6F806A8FFF7EFF8814606A8FFF742
:1034B000EDF800242A4FCDF80090019006A9284687
:1034C0002346224603940294FDF7DEFE324623464D
:1034D00006A93846FFF756FB06A8FFF7D5F8814640
:1034E00006A8FFF7D3F801262346224606A9CDF801
:1034F00000900190039628460296FDF7C5FE4046CF
:1035000005F0CAFE8146404605F0E8FE4A460346FD
:10351000144904A809F054FC234604AA06A9384615
:10352000FFF730FB06A8FFF7AFF8074606A8FFF73E
:10353000ADF8804606A8FFF7A7F8C0F1800002901A
:1035400023462846224606A903968DE88001FDF70A
:103550009BFE06A8FFF7C6F80BB0BDE8F08300BFDE
:103560001C33FF1FDC0D01002DE9F04389B0044638
:1035700004A80F46FEF7E8FF092204A81C21FFF764
:10358000B7F8012104A8FFF783F804A8FFF77CF837
:10359000064604A8FFF77AF817250023022204A99B
:1035A000009601900395204602921A46FDF76CFEA4
:1035B00004A8FFF769F8064604A8FFF767F8002398
:1035C000222204A9009601900395204602921A46F1
:1035D000FDF75AFE04A8FFF757F8064604A8FFF7C0
:1035E00055F80023422204A9009601900395204635
:1035F00002921A46FDF748FE04A8FFF745F88046F8
:1036000004A8FFF743F84F4E039500236222019070
:10361000CDF8008004A9204602921A46FDF734FE38
:103620003A6804A900233046FFF7ACFA04A8FFF774
:103630002BF8814604A8FFF729F8804604A8FFF775
:1036400023F8C0F11C0000EBD070401018250023B7
:103650000230CDF800900290CDF8048004A92046F5
:103660001A460395FDF710FE7A6804A90023304638
:10367000FFF788FA04A8FFF707F8814604A8FFF7C8
:1036800005F8804604A8FEF7FFFFC0F11C0000EB20
:10369000D070401000232230CDF800900290CDF879
:1036A000048004A920461A460395FDF7EDFDBA688B
:1036B00004A900233046FFF765FA04A8FEF7E4FFEB
:1036C000814604A8FEF7E2FF804604A8FEF7DCFF6F
:1036D000C0F11C0000EBD07040100023423002907B
:1036E00004A920461A46CDF800900395CDF8048031
:1036F000FDF7CAFDFA6804A900233046FFF742FA35
:1037000004A8FEF7C1FF064604A8FEF7BFFF074660
:1037100004A8FEF7B9FFC0F11C0000EBD070401008
:1037200000236230029004A920461A4603958DE8D2
:10373000C000FDF7A9FD04A8FEF7D4FF09B0BDE85D
:10374000F08300BF1C33FF1F2DE9F04F89B0054601
:1037500004A80C4617469B46FEF7F6FE6248FCF7A7
:10376000ADFE82466148FCF7A9FE81466048FCF741
:10377000A5FE80465F48FCF7A1FE0646002F40F0FC
:103780008B80B9F1010F5C4F00F08E80B8F1010F12
:1037900000F09D80012E00F09680BAF1010F4FF0ED
:1037A000FF3618BF00262168DFF84C812846FFF756
:1037B00065FE3B68002B1ADD0023504A504804A9DF
:1037C000FFF7E0F904A8FEF75FFF814604A8FEF7C3
:1037D0005DFF00230B220190039202931A46CDF85D
:1037E000009004A92846FDF74FFDD8F80030626824
:1037F000013A9A4220DD0023424A414804A9FFF7DA
:10380000C1F904A8FEF740FF814604A8FEF73EFF79
:10381000804604A8FEF738FF00230B22C0F1800089
:1038200002900392CDF800901A46CDF8048004A9C6
:103830002846FDF729FD3B68A268314852F823204D
:1038400004A90023FFF79EF904A8FEF71DFF804698
:1038500004A8FEF71BFF074604A8FEF715FFC0F1FA
:10386000800000EBD070002342100B2102920391E4
:103870001A4604A92846CDF800800197FDF704FDFB
:1038800004F10C012846FFF76FFE04A8FEF72AFF9B
:10389000304609B0BDE8F08F174FDBF800303B60D1
:1038A000B9F1010F7FF472AF63683868124A013BC7
:1038B00083427FF76BAF129B01301060002B3FF407
:1038C00065AF984762E73B68CBF800306BE7386834
:1038D000094B00287FF75EAF01381860129B002B60
:1038E0003FF458AF984755E79C33FF1F3833FF1F0D
:1038F000EC32FF1F0433FF1F0C34FF1FBC270100F5
:10390000B833FF1F482701002DE9F0478CB005466A
:1039100004A88946FEF718FE684B0FCB08AE86E870
:103920000F006748FCF7CAFD07466648FCF7C6FD6E
:1039300080466548FCF7C2FD04466448FCF7BEFDBE
:103940008246B9F1000F40F08580012FDFF88C919D
:1039500000F0898028F00208B8F1010F4FF001074C
:1039600000F08E8024F00204012C00F09A80BAF15D
:10397000010F04D1564BD9F80020DA600027284601
:103980005449FFF77BFD082204A84421FEF7B0FE4E
:10399000052104A8FEF77CFE04A8FEF775FE044688
:1039A00004A8FEF773FE00230C211E220094019050
:1039B0000391029204A91A462846FDF765FC0622E7
:1039C00004A84221FEF794FE002104A8FEF760FE41
:1039D00004A8FEF759FE044604A8FEF757FE00238C
:1039E0000D211F22009401900391029204A91A460E
:1039F0002846FDF749FC042204A84021FEF778FE82
:103A00000F2104A8FEF744FE04A8FEF73DFED9F8F6
:103A100000400028B8BF3F308311013404A803FBE5
:103A200004F4FEF733FE00230E21202201900391BF
:103A3000029204A91A4628460094FDF725FC314657
:103A40002846FFF791FD04A8FEF74CFE38460CB05F
:103A5000BDE8F0871E4BDFF88490DB68C9F80030C2
:103A6000012F7FF477AF1A4B1B48D96828F0020862
:103A7000FCF78AFFB8F1010F4FF000077FF472AF37
:103A8000D9F80010154A3E293FF76CAF4B1C194678
:103A90001148136024F00204FCF776FF012C7FF438
:103AA00066AFD9F800100D4A00297FF760AF4B1EB2
:103AB000194609481360FCF767FF58E7182701000B
:103AC0009C33FF1F3833FF1FEC32FF1F0433FF1FEF
:103AD0005034FF1F4C2701009012FF1F1034FF1FAE
:103AE0002DE9F04F93B007460AA8894692461D4635
:103AF000FEF72AFD794B0FCB0EAC84E80F00784817
:103B0000FCF7DCFC06467748FCF7D8FC8046764894
:103B1000FCF7D4FC83467548FCF7D0FC0346002D27
:103B200040F09B80012E4FF0FF3618BF0026B8F101
:103B3000010F6F4D6AD0B8F1030F67D0BBF1010FD1
:103B4000DFF8C08155D0BBF1030F52D0012B00F03C
:103B5000AE8049463846FFF791FCBAF1000F44D1D8
:103B6000DFF8A491DFF8A4A198F8013098F80220BA
:103B7000604907A809F024F92B685F48002B0CBFA7
:103B80004B46534607AA0AA9FEF7FCFF0AA8FEF710
:103B90007BFD81460AA8FEF779FD80460AA8FEF75C
:103BA00073FDC0F1800000EBD070002340100B22A9
:103BB000029003920AA91A463846CDF80090CDF833
:103BC0000480FDF761FB4D4A2D684D4B2146002DC9
:103BD00008BF134638461193FFF7C6FC0AA8FEF744
:103BE00081FD304613B0BDE8F08FDFF82491CA465E
:103BF000BAE72A68EAB998F802204249013AD2B2F3
:103C0000172A50D88A70012BA3D153E02A68002AC2
:103C10003AD0DFF8F08098F801200132D2B23B2A86
:103C20004BD8BBF1010F88F8012002D0BBF1030F84
:103C30008CD198F801203349013AD2B23B2A42D8BC
:103C40004A70012B85D100232E4888F8003005F0FA
:103C500053FB1C9B012618607BE71C9B05902949A0
:103C60001868234D05F034FA012E4FF000024FF092
:103C7000FF3618BF0026B8F1010F2A60059B03D05C
:103C8000B8F1030F7FF45AAFDFF8788098F802207C
:103C90000132D2B2172A1AD90022BBF1010F88F8DB
:103CA00002207FF450AF172288F80220ABE72B6880
:103CB000002BC8D101232B604BE70022BBF1010F81
:103CC00088F80120B2D13B2288F80120B9E7BBF186
:103CD000010F88F802207FF436AF8CE72827010017
:103CE0009C33FF1F3833FF1FEC32FF1F0433FF1FCD
:103CF0009034FF1F80270100B833FF1F7027010099
:103D000078270100D034FF1F5827010060270100E9
:103D1000682701002DE9F04F91B0064608A8154626
:103D20000F46FEF711FC504A0FCA0CAC84E80F0096
:103D30004E48FCF7C3FB83464D48FCF7BFFB80466B
:103D40004C48FCF7BBFB82464B48FCF7B7FB002D09
:103D500051D128F00208B8F1010FDFF8389155D0A1
:103D6000BAF1010F5DD0BAF1030F5AD0012862D029
:103D7000BBF1010F4FF0FF3518BF002530463F491A
:103D8000FFF77CFB3E4B3F48D9F800203E49002F0F
:103D90000CBF1F46074605A809F012F83B4605AAC6
:103DA00008A93A48FEF7EEFE08A8FEF76DFC80462B
:103DB00008A8FEF76BFC074608A8FEF765FCC0F1F3
:103DC000800000EBD070002342100B21029203917F
:103DD0001A4608A93046CDF800800197FDF754FA3D
:103DE00021463046FFF7C0FB08A8FEF77BFC2846BB
:103DF00011B0BDE8F08F264BDFF898909B68C9F8AA
:103E0000003028F00208B8F1010FA9D1D9F800302C
:103E1000204A0133B3F57A7F13DABAF1010F136048
:103E2000A1D1D9F800301C4A1A49013B934213DA58
:103E300001280A609CD1164BD9F800209A600546EB
:103E40009CE7BAF1010F0AD040F2E733BAF1030F51
:103E500013608BD140F2E633C9F8003086E740F2B8
:103E6000E633136082E700BF382701009C33FF1F51
:103E70003833FF1FEC32FF1F0433FF1FA42701005C
:103E8000982701008C270100B4270100B833FF1FD9
:103E90005034FF1FB034FF1F19FCFFFF2DE9F04F16
:103EA000ADF5865D81B004462EA8FDF7D5F9002C4E
:103EB0006CD1A74EA74D2B78A64F002B31D133687C
:103EC0000C2B22D8DFE813F0E4000A0180018A01FC
:103ED000A701C801D301E201ED010D001D0176012A
:103EE00039019D4C9D4B0093002204F124039C4911
:103EF0002EA8FFF729FC002846D0012800F0FB80FF
:103F000094F824109748FCF749FD01242C702EA941
:103F10009448FCF74DFD20460DF5865D01B0BDE8E7
:103F2000F08FDFF88482DFF8289298F800208E491D
:103F300000244B4600942EA8FFF706FC88F80040AA
:103F400010B30130E3D0D9F800303C70012288F87A
:103F500000200C2BD9D8DFE813F0BD0271026702F4
:103F600061025C020D0056024C02410237022D0232
:103F7000230219027C4A7D4B92685169009300220A
:103F800001232EA8FFF7ACFD0124C0E77848724C4E
:103F9000DFF81892FCF79EFB05460FCD0FC40FCD3E
:103FA0000FC40FCD0FC495E80F0084E80F00714ACD
:103FB00000231360D9F8004054B16368002B03DD7F
:103FC000A06808B106F0DCFE20461C2106F0DAFEEF
:103FD000FEF7CCFE684D8246286818B106F0D0FE88
:103FE00000232B600FFA8AF303EB430003EB8000FE
:103FF000039306F0C3FE614B28601968604A0023F2
:1040000006A803F01BFA189B002B00F06D82594B99
:1040100000241C60BAF1000F00F0808226460127C0
:10402000DFF88CB10EE0534BB8461F601EA8CDF8E8
:1040300068B003F0E9F8C24507F1010704F10D0487
:1040400040F34D814FF47A730DF178081C9340468C
:104050004C4B8DF86C6000220AA98DF874602C9688
:104060002D961A9303F054F9002800F07281296804
:104070001AA82144FEF7BCFE404603F0C5F82968A3
:104080004148214408F030FF0028CCD0B846CDE7A5
:104090003E4B354A1B6804939168049B3C4A3D4C57
:1040A00009680094A2FB0332C2F3401200232EA839
:1040B000FFF716FD00283FF467AF01287FF425AF16
:1040C000254B20681B68012B04BFA0F561602060B0
:1040D00005F0F4F9206805F01BFE16E700220092B7
:1040E0001D4B2D492EA8FFF72FFB00283FF44CAFA6
:1040F00001287FF40AAF012217491D48FCF7AAFAEC
:1041000003E7154E2549002206F1340300922EA83C
:10411000FFF71AFB044600283FF436AF01287FF46E
:10412000F4AE706B003018BF012000F0BBFB2246DC
:1041300031460F48FCF78EFAE7E600220092184B52
:1041400018492EA8FFF700FB0028D1D11CE700BFBB
:104150002035FF1F1C35FF1F5034FF1F7134000036
:10416000F834FF1F9012FF1FEC33FF1F8C34FF1F2A
:104170005033FF1FF434FF1F3034FF1FB433FF1FD1
:10418000100E0100A00501006434FF1FA835FF1FB9
:10419000D34D62101835FF1FD033FF1F3434FF1F7B
:1041A0008034FF1F1434FF1F1435FF1F0834FF1F16
:1041B0007C05010000220092A54BA6492EA8FFF71E
:1041C000C3FA002894D1DFE600220092A24BA34953
:1041D0002EA8FFF7B9FA00288AD1D5E6A04BA1494D
:1041E0001B680593059BA1FB03310022C1F340111D
:1041F0002EA8FFF78FFD024600283FF4C5AE012828
:104200007FF483AE984C99482146FCF723FAA068C6
:1042100005F090FD79E6964A914B92681B6811690A
:10422000069394488F4A069B0090A2FB0332C2F388
:10423000401200232EA8FFF753FC00283FF4A4AE41
:1042400001287FF462AE012287498848FCF702FA10
:10425000894B00221A7058E6854A814B92681B6888
:10426000516986481A937F4A00901A9BDDE7002126
:104270002EA8FFF749FB00287FF486AE01227A4979
:104280007A480124FCF7E6F92C7040E600220092FF
:104290007B4B7C492EA8FFF757FA00287FF428AF04
:1042A00072E6794F794E39680022334600922EA883
:1042B000FFF74AFA044600283FF466AE01287FF46F
:1042C00024AE3B6832689B68714853F8221008F0AE
:1042D00075FF224664496548FCF7BCF915E60AA853
:1042E00002F092FF1C2006F047FD0AF10104064689
:1042F000A00006F043FD0399664A674B7460326084
:104300008C00C9F80060B06003600021042201E065
:10431000986804322B680B448350944201F10D01DC
:10432000D9F80030F4D15D4A5A615D4C5D485E4970
:104330005E4E5F4D5F4ADC60186199610AA80123F7
:104340000021CDF818B031602B70137002F05CFFC3
:10435000B1E54E4ACDF868B003464046136002F01E
:1043600053FF0AA802F050FF1C2006F005FD04468A
:10437000042006F003FD474B474A23600121C9F89A
:104380000040A060616023460260CCE700230093F8
:1043900049494A4B01222EA8FFF7D6F90124B6E578
:1043A000002300932B492A4B01222EA8FFF7CCF9BA
:1043B0000124ACE5002300934149424B01222EA881
:1043C000FFF7C2F90124A2E5002300933E493F4BC9
:1043D00001222EA8FFF7B8F9012498E52A4A2B4BB1
:1043E0001168002200922EA80122FFF7ADF90124E6
:1043F0008DE5002300932349214B01222EA8FFF7CE
:10440000A3F9012483E501212EA8FFF77DFA0124F9
:104410007DE5174A174B92681169AFE5012200212B
:104420002EA8FFF777FCAFE5002300930B490A4B5A
:1044300001222EA8FFF788F9012468E500230093E4
:104440002349094B01222EA8FFF77EF901245EE5DE
:104450007C34FF1F9434FF1F5434FF1FB434FF1FFC
:10446000A835FF1FD34D62105034FF1F5033FF1F7C
:10447000EC33FF1F8834FF1F3433FF1F8C34FF1FC2
:104480006034FF1FD834FF1F0834FF1FF434FF1FB0
:104490006434FF1FC0270100580501007027010088
:1044A000CC270100D4270100782701002035FF1F09
:1044B0001C35FF1F1435FF1F1434FF1F8034FF1FEE
:1044C0003434FF1F8434FF1FF834FF1F7434FF1F80
:1044D000D033FF1F00F014FA124B31689A68124B68
:1044E00052F82110186049E5199B002B7FF48FAD1D
:1044F0000E4ADFF844B013601C2006F03DFC044671
:10450000042006F03BFC0A4B0A4A23600121C9F84B
:104510000040A06061602346026004E7DFF818B045
:104520001FE700BFEC33FF1F1835FF1FF434FF1FD8
:10453000C0270100580501007C0501002DE9F84F56
:10454000342006F01BFC0346974C9C61974CDC61C1
:10455000974C5C62974C984F984E9C629849994C46
:10456000DFF8E092DFF8E0821960DC629648DFF85D
:10457000DCB2964D964A974CDFF8D4C2DFF8D4E20D
:10458000D8600D21C3F810B05D611A62924DBB6016
:1045900032467960C3F804909049C3F808801C63E0
:1045A000DFF8B4A28E4BC7F80CC03846C7F818E045
:1045B0007B61C7F800A03D6106F0C6FC082006F04C
:1045C000DDFB884B864C5C610146874C0C604FF0EC
:1045D000020B864CDFF884A2854F99603246C3F8FF
:1045E00004B018464C608349C3F800901D61C3F8BD
:1045F0000CA09F6106F0A8FC0C2006F0BFFB034650
:104600007D487E4A7E49764C1A604FF0030EC0F812
:1046100004E0DFF84CE259603246C3F808E08360FA
:104620007849C0F80080C0F80CA00561446187613A
:1046300006F08AFC1C2006F0A1FB734BDFF824C2B5
:10464000DFF824E2594A1A60014670480860C1F850
:1046500004C0C1F808E0DFF814C2DFF814E26C4AC5
:104660006C4899604FF00708C1F814C0C1F818E011
:10467000C3F80480CA600861324618466649C3F828
:104680000CA01D615C619F6106F05EFC1C2006F0C1
:1046900075FBDFF8E091DFF8E0C1DFF8E0E14449C5
:1046A000C9F800100346C9F80480C3F800C0C3F875
:1046B00004E0DFF8CCC1DFF8CCE1584A5849DFF814
:1046C000C881C9F808309A60D9603246C3F81080B2
:1046D000C3F814C0C3F818E05249C9F80CA0484602
:1046E000C9F81050C9F81440C9F8187006F02CFC2D
:1046F000082006F043FBDFF894814B4BDFF890C1B4
:104700002C4A1A6086468EE800113246C3F808E04B
:10471000C3F804B04549C3F80CA018461D615C619C
:104720009F6106F011FC142006F028FB0346404868
:10473000DFF86091234A44613E4CDFF85CE1DFF82A
:104740005CC1DFF85C810260052283E81002C3F8D7
:104750000880C3F810E038498360C3F80CC0426099
:104760003246C0F80CA00561876106F0EDFB082019
:1047700006F004FB8646314B1B4A1C4C0260CEF807
:104780000440144C1C60164CC3F804B03246184662
:10479000C3F808E0C3F80CA01D615C619F61284963
:1047A000BDE8F84F06F0D0BB4C2701001C280100E3
:1047B0002828010034280100EC33FF1F3007FF1FB9
:1047C000E827010044280100A42701001028010067
:1047D000C027010050280100D427010059340000EF
:1047E00070270100D033FF1F682801006C280100EA
:1047F0007827010041340000B434FF1F7028010005
:104800007828010029340000D834FF1F90280100C7
:10481000B4280100C028010011340000F028010074
:10482000F8280100F93300003434FF1FE1330000A1
:104830009434FF1F28290100C93300001434FF1FDE
:10484000B1330000F4270100F8270100042801001B
:104850005828010060280100DC270100CC27010056
:10486000802801009C280100A8280100CC28010014
:10487000D8280100F834FF1FE4280100E8280100CF
:104880000829010010290100002901001829010050
:1048900020290100302901004C2901004029010094
:1048A0003829010008B588B91E211148FBF7F2FD2F
:1048B0001C211048FBF7EEFD1D210F48FBF7EAFD18
:1048C0001B210E48BDE80840FBF7E4BD1B2108484A
:1048D000FBF7E0FD1D210748FBF7DCFD1C21064826
:1048E000FBF7D8FD1E210548BDE80840FBF7D2BD07
:1048F0009C33FF1F3833FF1FEC32FF1F0433FF1FB1
:1049000010B504F077FD04460448FBF7E3FE0368A6
:10491000012B08BF04F56164204610BD5033FF1F12
:1049200005F0F0B910B5044600F0B2FD002384F89C
:10493000313084F8333010BD2DE9F04300F1240309
:1049400081460F46154693E8070085B099F8313047
:1049500001AE86E80700002B3ED099F83030012BDD
:104960003FD94FF001080024B8F1010F14BF2022F5
:1049700040223146D9F8200001F0E8F801282BD177
:1049800000223146D9F8200001F0C6F820B30378A0
:10499000C12B21D1391904F10F0E00E0144630F873
:1049A000023F621C93B1AA4210D27E2B94BFDBB2AD
:1049B0003F23724501F8013BF0D108F1010899F855
:1049C00030305FFA88F843451446CDD8002320469E
:1049D0003B5505B0BDE8F0830020387005B0BDE858
:1049E000F0830024F2E700BF90F831200AB10020E4
:1049F000704738B504460D461146382207F0BEFC14
:104A00004023012084F8313084F83300256238BD1A
:104A1000F0B50878202803D111F8010F2028FBD029
:104A200051600878002851D02F282BD05C2820D046
:104A3000A0F12204E4B21D2C1DD9DFF894E04E1C35
:104A400000247C28A0F12005374612D05E2D10D816
:104A500016F8010BA0F12205EDB2013478B32F282E
:104A600011D05C282EFA05F703D01D2DE9D8FD07DB
:104A7000E7D50020F0BD164D25FA04F4E607DCD595
:104A80000020F0BD00240F193E4625462F2002E0ED
:104A900016F8010F01352028FAD02F28F8D0294424
:104AA000196044B1394611F8013D2E2B01D0202B5D
:104AB00008D1013CF7D1204610600120F0BD1F60F5
:104AC0000F19EFE7FF2CF6DD0020F0BD1960F3E7CA
:104AD000010100352DE9F04F90F83330DE0783B047
:104AE00004465AD55D060E46934640F1B880D4E997
:104AF0000001D4E9042310EB0B0841F100094B45F8
:104B000008BF4245C0F0B180BBF1000F6ED0A14696
:104B1000F9E806015D46276AD7F838340340C3F345
:104B2000080A002B68D150EA010275D194F83120AF
:104B300051064CBFD7F83424E269A261D7F82C049F
:104B400097F845E45B0A023A191802FA0EF211448A
:104B5000BAF1000F2CD1B5F5007F29D3D7F81C226C
:104B6000914225D0B5F5806F5DD34FF0010808FA6A
:104B70000EF8C3EB08034FEA5528984528BF98461E
:104B800091423BD808EB01039A4237D207F50470F3
:104B9000019104F095F9019980BB94F832304FF0FF
:104BA000FF3043F0020384F8323003B0BDE8F08FE9
:104BB00007F50470002204F053F90028EDD0CAF57F
:104BC0000078A84528BFA84600EB0A0142463046B7
:104BD00004F0B4FC42460023D4E900018018594196
:104BE000B5EB08054644C4E9000194D10025C5EBA6
:104BF0000B0003B0BDE8F08FA2699FE7D7F814025D
:104C0000036832461F694346B8470028C5D04FEABB
:104C1000482842460023DFE794F83320520610D597
:104C2000A269013289E7D7F8140203683246DB68CB
:104C300098470028B1D04FF4007200234FF4007859
:104C4000CAE738464A46A169019300F0ABFF40B27B
:104C50000028A2DB0CD0276AA269019B6EE790F8BE
:104C6000313018073FF543AF4EE7C0EB020B4BE77F
:104C700094F8313013F0500FB9D18EE7F0B583B00E
:104C800001220DF107010446D0E900678569FFF7AD
:104C900021FF012808BF9DF80700A56118BF4FF04C
:104CA000FF30C4E9006703B0F0BD00BF2DE9F04F4D
:104CB00090F831E0856983B00446BEF1000F1BD047
:104CC000D0E90001994208BF904216461F463BD0EA
:104CD00056EA070307D10023A3610120C4E9006756
:104CE00003B0BDE8F08F1EF0080F0AD0D4E904230A
:104CF000BB4208BFB24204D2A561002003B0BDE8A8
:104D0000F08F236A019393F845C494F833A00CF113
:104D1000090C5FFA8CFC16F1FF3247F1FF33CCF13E
:104D2000200803FA08FB22FA0CF242EA0B02ACF16B
:104D3000200B23FA0BF31AF0400F42EA030205D0CE
:104D4000E3691A44A261C8E70120D7E710F1FF39EF
:104D500041F1FF3A29FA0CFC0AFA08F84CEA080C6F
:104D60002AFA0BFB4CEA0B0C6245534617D21EF095
:104D7000400F16BF019BE369D3F83434A36190461A
:104D800004F118094A46B8F1000FA6D0A169206ABB
:104D900000F008FF08F1FF380028F3D1ACE750EA33
:104DA0000103E4D0CCEB0202E9E700BF2DE9F04FAC
:104DB0000E4693B090F831100092054629B99A46F4
:104DC00096F8313013F0500F07D1002085F83100EC
:104DD00085F8330013B0BDE8F08F1C9B03F003038C
:104DE000012B06D0022B00F00981002BEDD101230D
:104DF00000E002231C9A02F0080213430193009B77
:104E0000002B00F0FD8018460022514600F0CEFF36
:104E100096F8313002904BB1D6E90023134305D008
:104E200000220023C6E900230021B161B84A0AF13B
:104E30000E0382FB03121A44DB17C3EBE203DBB25F
:104E40004FF00009039302335FFA83FB4C464F4651
:104E500020220AA93046FFF73DFE00283DD0202839
:104E6000B3D19DF828301A0666D4002C61D132687F
:104E7000B1690791203A08920134E4B26BB3C02BB8
:104E800000F09380C12B62D0852BE1D13822002124
:104E9000284607F073FA9DF82C309DF8292085F8F4
:104EA0003020D80603F0370258BF42F0080285F8D8
:104EB00031203368316AB2696A62203B2962AB6291
:104EC00096F83330C3F3801385F82C3020220AA9DA
:104ED0003046FFF7FFFD0028C1D11C9B99057FF5E7
:104EE00074AF019B9A077FF570AF009B002B3FF4D6
:104EF0006CAF5C450CD386E020287FF466AF24B904
:104F00003268B1690791203A0892DCB2A3457AD998
:104F100020220AA93046FFF7DDFD631C0028EBD1F3
:104F20003046B76900F0E4FA00283FF44EAFB761AD
:104F3000ECE75C45A2D29FE7B9F1000F9FD15C4539
:104F400038BF0024852B83D14FF001099EE7C7EBC2
:104F50000A085FFA88F8B8F10F0F28BF4FF00F0862
:104F600043463A4600990AA800F0F4FE00283CD0D7
:104F70004744FFB2BA457FF46BAF1C9B1B053FF55E
:104F800024AF1C9B13F4884F40F0A08095F8333079
:104F90009F0700F19B801C9B5B053FF516AF1C9B98
:104FA000580400F1B780012014E79DF82930019AD8
:104FB00085F83320990703D542F0400385F8333054
:104FC000DDE90C23DDE91001C5E904230F9BEB614A
:104FD000009BC5E90201002BCFD09DF82B30534533
:104FE00005D04FF000094F4632E7814630E7BDF863
:104FF0002C30029A9342F4D1002729E70323F9E6E3
:10500000009B029312E796F833303822C3F38013E3
:10501000002128460DF11C088DF8243007F0AEF968
:10502000039C336ACDF80CA098E8070004F101094D
:10503000082485F831400AF11E0705F12404DDF843
:1050400000A02B625FFA89F984E80700FFB200260E
:1050500018460122414600F05FFD044600283FF457
:10506000B4AE90F90030002BFFF6AFAE2022002145
:1050700007F084F9002E66D0012E54D0C6EB06133B
:105080000F2FA3F11E034FF0C102394628BF0F2195
:10509000DBB2227051B1023409B204EB4101534436
:1050A00013F8012B24F8022BA142F9D10136F6B2F4
:1050B000B34529D920224146286A00F047FD01283E
:1050C0007FF483AE0F3FFFB2286AC2E795F8313014
:1050D00013F0110F7FF479AE1C9B5E057FF55FAF77
:1050E00095F833309C077FF570AE002200232846E8
:1050F000FFF7DCFD00283FF468AE284600F06CFAAC
:1051000000283FF462AE4EE7284600F0C1F961E6A0
:1051100089888888D5E904232846FFF7C7FD002839
:105120007FF441AF51E6C0232370019B032263F05B
:105130003F03627085F833309DF80C30E370BDF8A2
:105140000830A380B2E7852323700E4B85F830909A
:1051500084F801901B687BB10DF117020DF11A0163
:1051600006A89847BDF81810BDF81A209DF817300A
:1051700061812281237599E745F221236381E381CF
:10518000638293E77C35FF1F2DE9F041044694B01C
:1051900094F83150039200208DF849008DF84A00B0
:1051A0008DF84B0035B9984691F8313013F0500F17
:1051B0000F4603D1002014B0BDE8F08113782F2BE7
:1051C000154626D000261AE0039B1B782046002BAC
:1051D00034D0059A9DF810300096FFF7E7FD342291
:1051E00021460028E6D006A804F0A8F9204600F0E1
:1051F0004FF9039D84F8316084F8336006AF294687
:1052000003AB04AA2046FFF703FC39460028DBD194
:10521000D0E70135039529782F29FAD0D1B138226A
:1052200006A800213E6A07F0A9F84022012306AF34
:105230000E968DF849208DF84B30C3E79DF810305D
:10524000059ACDF8008039462046FFF7AFFD14B02F
:10525000BDE8F081382220463D6A07F08FF84023F0
:105260000120256284F8313084F83300A3E700BFC1
:1052700019B101F58961FFF787BF0846704700BF84
:1052800090F8313053B930B591F8314014F05004F2
:1052900083B00D4604D1204603B030BD00207047D6
:1052A000D5E90045002504F01F042C4302D0184620
:1052B00003B030BD00921A46FFF778FD03B030BD51
:1052C0008169F8B50446006A01B10131012200F09C
:1052D00057FB012806462FD9012301461A46206AAA
:1052E00000F0A8FB074638B3A06994F8333030B318
:1052F0005A0613D5421C964225D023F0400284F86A
:105300003320E36905E0206A00F056FCA0B1A069F3
:105310002B465D1C834219462A46F4D34FF0FF32D8
:105320003146206A00F048FC30B1A16959B13246DB
:10533000206A00F041FC30B900273846F8BD43F040
:10534000400384F83330A6613846F8BD2DE9F04FAC
:1053500000F1240B06469BE8070087B00DF10C080E
:1053600088E807000027BA463C4600224146306ADA
:1053700000F0D2FB5FFA87F9054630B10378C02B05
:1053800051D0C12B4DD0852B09D096F8323043F047
:10539000010386F83230002007B0BDE8F08F3B4BA8
:1053A00096F831201B6890F801A002F03702828045
:1053B00083B10DF107020DF10A0102A89847BDF86B
:1053C0000A20BDF808309DF807106975AA812A8265
:1053D000EB816B82326A92F8103243F0010382F85B
:1053E0001032287800216A5CE30343EA540412FA7D
:1053F00084F40129A4B201F101010DD01F29F2D9D1
:10540000CA4526D020224146306A00F09FFB012881
:1054100007F10107A9D0B8E785280CBF04210221B4
:10542000E1E71846DEE796F8333013F0400F437893
:1054300014BF43F0020323F002034370D6E90423B0
:10544000C0E90223D6E90223F1694161C0E90623DC
:10545000C0E759460122306A00F05EFB002894D074
:10546000356A4480284603F02BFD00288DD005F5D1
:10547000047003F025FD002887D0D5F840040368A8
:105480009B699847002880D086E700BF7C35FF1FC6
:1054900090F8312092B138B590F8332011060FD42E
:1054A000056A0446284603F00BFD88B994F83230AB
:1054B00043F0010384F83230002038BD01207047EA
:1054C00002F07F0280F83320BDE83840FFF73EBF8E
:1054D00005F5047003F0F4FC0028E7D0D5F840048B
:1054E00003689B6998470028E0D0012038BD00BFC1
:1054F0002DE9F04190F831305906044660D48068B7
:10550000236AD3F83C341844B0F1806F02D30020F2
:10551000BDE8F0812046FFF7D3FE0028F7D0266AC9
:1055200096F81032DA074FD44FF0FF33002506F516
:105530000878C6F81C3286F8105229464FF40072DB
:10554000404606F01BFF226AA36992F84504D2F890
:105550002C14023B834001265F1816FA00F310D08A
:10556000D2F8400403687919DB694246984701354F
:105570000028CCD0226A92F8453406FA03F3AB42F5
:10558000EED894F831305B0615D494F8333063F0DC
:105590007F0384F83330D2F83C64D4E90223D4E9A1
:1055A000040192194FF000077B4180197941C4E949
:1055B0000223C4E904012046BDE8F041FFF768BFBB
:1055C000006A00F0BBFB9BE706F5047003F078FC73
:1055D0000028A9D19BE700BF90F833309A0718D56F
:1055E000F0B5C56983B08DB103F04003044603F004
:1055F000FF0083B9A169002941D10195E1612946E4
:10560000206A00F0EBFA30BB002000E0012003B07C
:10561000F0BD00207047206AA16990F84534D4E9B4
:1056200002670933DBB216F1FF36C3F1200E47F1F2
:10563000FF3726FA03F207FA0EFE203B42EA0E027B
:1056400027FA03F31A430132B1B1013D6D1A01315A
:105650002A4401910ABBD4E9000194F8333063F085
:105660007F03C4E90201C4E9040184F83330204611
:10567000FFF70EFF03B0F0BD0195E161EAE702AA72
:1056800042F8040D206A00F08DFA40B20028BBDB1E
:105690000AD1019D002DDED0B1E70023019900F071
:1056A000C9F90028D7D1AFE74FF0FF32A169206ACE
:1056B00000F082FA0028ECD1A6E700BF2DE9F04FF8
:1056C00090F8333083B09D07044600920AD494F8D2
:1056D000323043F0010384F832304FF0FF3003B032
:1056E000BDE8F08F1A07894600F10181009B002B6D
:1056F00000F011812146F1E80623DDF800800191D8
:105700004FF0010BCA46206AD0F838541540C5F353
:10571000080945BBA169002900F0AE8094F8333038
:105720005B0640F1CD80D4E9026790F84524E36937
:105730000932D2B216F1FF3647F1FF37C2F1200E1F
:10574000D64007FA0EFE203A46EA0E0627FA02F283
:10575000164333449942C0F0A6802046FFF7B0FDBF
:105760000028B4D0206AA669D0F82C7490F845E4DB
:105770006D0A023EE91906FA0EF63144B9F1000F3E
:1057800073D1B8F5007F4DD2D4E90423D4E9006782
:10579000B8F5007F454628BF4FF400759F4208BF0B
:1057A000964234BF0122052200F5047003F058FB35
:1057B00000288CD048442A465146A94403F0BEFE36
:1057C000B9F5007F00F08A8028460021D4E9002343
:1057D000D4E9046712184B419F4208BF9642AA447D
:1057E000C5EB0808C4E9002307D294F83310C4E9D4
:1057F000042361F07F0184F83310B8F1000F82D1E7
:10580000D4E90201994208BF904278D3434B1B6808
:10581000002B7ED094F83330009863F07F0384F837
:1058200033305CE7B8F5806F2AD30BFA0EF35D1BBB
:10583000D0F81C224FEA5823AB4228BF2B46914296
:105840004FEA432508D8CE18B24205D24FF0FF32B6
:1058500080F81092C0F81C22D0F814020668524654
:10586000366AB0470028AFD131E7C9F50075454524
:1058700028BF4546012297E7E669BEB1A66173E7F6
:10588000D0F81C32994222D0D0F814020368524654
:10589000DB69984700283FF41AAF4FF400700021ED
:1058A0004FF4007592E74E1CA6615DE72046FFF7B6
:1058B00007FD00283FF40BAFA669E661206A53E7B5
:1058C000019A00F06FF900287FF44CAF45E74FF0E4
:1058D000FF3380F81092C0F81C32D5E7206A00F53B
:1058E000047003F0EDFA00287FF46EAFEFE6D0E924
:1058F0000423FFF7DBF900283FF4E9AEF6E694F85D
:105900003310009861F07F01C4E9022384F833105A
:10591000E5E60098E3E6D4E9002371E77C35FF1F54
:1059200038B50C46D0F82414154601EBD41100F517
:105930000470002203F094FA40B1A400C4F30804F8
:1059400003595A1C04D02B60012038BDFF2038BDFC
:10595000002038BD38B50C46D0F82414154601EBAC
:10596000D41100F50470012203F07AFA034628B13D
:10597000A400C4F3080401201D5138BD38BD00BF88
:105980002DE9F84F804691468B46002944D08F1E62
:10599000D8F830349F423BD207F00705012303FAC1
:1059A00005F5EDB2C7F3C80A3E463C46D8F82C14BC
:1059B000002201EB1431404603F052FAC0B110F856
:1059C0000A100AE04A452AD0A74210D0D8F830245D
:1059D000944217D213F0FF050CD001340D424FEA68
:1059E0004503A4EB0602EDD0A7422646EED10120E6
:1059F000BDE8F88F0AF1010ABAF5007F4FF0010502
:105A0000DDD101E0002634464FF0000A0125CDE744
:105A10000027BA460125C7E7D0F82074B8E7BBF1E4
:105A2000000F04D1B9F1010F08BFC8F82064B01C01
:105A3000BDE8F88F2DE9F04702398046D0F83004F0
:105A400015468A18824238D89A46D8F82034BAF1D6
:105A5000000F35D1994238BFC8F8201401F007046F
:105A60000122D8F82C3402FA04F4E4B203EB113921
:105A7000C1F3C806012249464046914403F0F0F9BB
:105A8000D8B1871900F5007017F8012B224214BF16
:105A900001260026564582EA04024FEA44040CD04F
:105AA000013D07F8012C15D014F0FF04EED1B842E7
:105AB00026464FF00104E7D1DCE70020BDE8F0877F
:105AC0009942CBD89A42C9D9824228BF0022C8F84D
:105AD0002024C3E70120BDE8F08700BF70B582B085
