:1000000000000320D1010000B95E0000715E000015
:10001000715E0000715E0000715E0000715E0000A4
:10002000715E0000715E0000715E0000B95E00004C
:10003000B95E0000715E0000B95E0000615E000004
:10004000B95E0000B95E0000B95E0000B95E000054
:10005000B95E0000B95E0000B95E0000B95E000044
:10006000B95E0000B95E0000B95E0000B95E000034
:10007000B95E0000B95E0000B95E0000B95E000024
:10008000B95E0000B95E0000B95E0000B95E000014
:10009000B95E0000B95E0000B95E0000B95E000004
:1000A000B95E0000B95E0000B95E0000B95E0000F4
:1000B000B95E0000B95E0000B95E0000717C00000E
:1000C000B95E0000CD830000B95E00004D890000DC
:1000D000B95E0000658F0000B95E0000B95E0000E7
:1000E000B95E0000B95E0000B95E0000B95E0000B4
:1000F000B95E0000B95E0000B95E0000B95E0000A4
:10010000C5710000D9710000ED710000017200009E
:10011000B95E0000C5640000B95E0000B95E000071
:10012000B95E0000B95E0000B95E0000B95E000073
:10013000B95E0000B95E0000B95E0000B95E000063
:10014000B95E0000B95E0000B1940000B95E000025
:10015000B95E0000B95E0000B95E0000B95E000043
:10016000B95E0000B95E0000B95E0000B95E000033
:10017000B95E0000B95E0000B95E0000B95E000023
:10018000B95E0000B95E0000B95E0000B95E000013
:10019000B95E0000B95E0000F19A0000B95E00008F
:1001A000B95E0000B95E0000B95E0000B95E0000F3
:1001B000B95E0000B95E0000B95E0000B95E0000E3
:1001C000B95E0000B95E0000B95E0000B95E0000D3
:1001D0005C4B4CF2205210B51A804DF628121A8052
:1001E00000BF00BF05F06CFE574B4FF030621A6045
:1001F000564A9A60564ADA60564B4FF470021A60BB
:10020000554B564A1A60564A136813F4807304D14A
:1002100054490B604FF4A8531360534B1A781107DD
:1002200003D51A7842F008021A70504B5049AA229E
:100230001A70504A504B8B4204D252F8040F43F8C4
:10024000040BF8E74D4B4E4900228B4202D243F893
:10025000042BFAE74B494C4A002352F8230041F89B
:1002600023000133742BF8D1484B494A802103F80D
:10027000011B9342FBD1474B424A1A60464B8A22EC
:100280001A70A3F5805324225A70A0221A709A790A
:100290009207FCD59A79D406FCD4404A937903F0AE
:1002A0000C03082BFAD13E4B60221A7002331A78E5
:1002B000802AFCD1394B01221A715D225A719A7938
:1002C0009006FCD59979354A4906FBD5354B364918
:1002D00019600021596020231370937903F00C03F7
:1002E0000C2BFAD1314B324A1A60324B324A1A6027
:1002F00000225A60072243F8042C304AC3F80C2D20
:1003000062B605F071FF174B1B68DA0705D52C485C
:1003100005F0B8FE2B4B2C4A1A602C4B1B785B0661
:1003200009D5284C284B22689A4204D1244805F06C
:10033000A9FE002323600AF005FD05F0C7FD07F0C4
:1003400017F8FEE70E20054030800440823F04008D
:100350000100002B88ED00E0002008E0030000858C
:1003600010D0034014D0034002D0074000E0074003
:10037000B011FF1FB41F01003007FF1FB011FF1F96
:10038000102CFF1F0002FF1F0000000000E400E02F
:1003900064E400E008ED00E0005006400040064044
:1003A00001E007404480044000000602048004404D
:1003B000C010070014E000E01FBF02000000202072
:1003C0005A1CFA581CE00340A5C3945A00F0074099
:1003D000FFFFFFFFFFFFFFFFFFFFFFFFFFFFFFFF2D
:1003E000FFFFFFFFFFFFFFFFFFFFFFFFFFFFFFFF1D
:1003F000FFFFFFFFFFFFFFFFFFFFFFFFFFFFFFFF0D
:10040000FFFFFFFFFFFFFFFFFFFFFFFFDEF9FFFF23
:1004100010B5054C237833B9044B13B10448AFF33E
:1004200000800123237010BDB011FF1F00000000E9
:10043000B01F0100084B10B51BB108490848AFF3C5
:1004400000800848036803B910BD074B002BFBD0A0
:10045000BDE81040184700BF00000000B411FF1FA6
:10046000B01F0100B011FF1F0000000038B50D469D
:1004700004460221E8B205F05FFE64204FF47A7171
:100480000022012360602560A1602275236120465F
:1004900038BD00BF08B5007805F040FE00280CBF4D
:1004A0000220002008BD00BF70B5184E82B033682E
:1004B000009304460078009D05F030FE90B9236952
:1004C000012B16D0E2686368AD1A9D4206D9237DE0
:1004D000B3B1A3689D428CBF032002200023236197
:1004E00002B070BD00200123E0602075236102B0DE
:1004F00070BD33680193019BE36000232361EFE744
:100500000120002320752361EAE700BF4427FF1F75
:10051000ABB1B1F5805F12DA2DE9F0411D460F460F
:10052000561EC1F580580024E01905F051FC013435
:10053000A54206F8010F04D12846BDE8F08100204D
:1005400070474445F0D12046BDE8F08170B50646BD
:10055000002005F03DFC354630700124204605F0B2
:1005600037FC0134042C05F8010FF7D13368082B50
:1005700001D0002070BD21462C23321D3046FFF7EC
:10058000C7FF012070BD00BF0368082B10B50446EB
:1005900001D0FFF7DBFF201D10BD00BFABB1B1F5EF
:1005A000805F12DA2DE9F0411D460F46561EC1F557
:1005B00080580024E01916F8011F013405F022FCD0
:1005C000A54204D12846BDE8F0810020704744458B
:1005D000F0D12046BDE8F081082170B506460160E3
:1005E000002005F00FFC35460124204615F8011FB8
:1005F000013405F007FC042CF7D121462C23321DD1
:100600003046FFF7CBFF012070BD00BF002170B561
:100610002C22044640F8041B0AF030FF2046FFF766
:1006200095FF98B90A4A6060034603CA04F11405AD
:10063000167860610A22A3602361E26020462E7270
:1006400069606362A362E362FFF7C6FF204670BD84
:10065000ACF40000F0B40D46064617460FCD341D2D
:100660000FC40FCD0FC495E8070084E8070017B941
:100670000120F0BC70473046F0BCFFF7ADBF00BFB3
:1006800008B505F059FB0248BDE80840FFF7BEBFBA
:10069000CC11FF1F10B5044600F580500C3006F059
:1006A0007BFD204610BD00BF2DE9F04F89B01546F7
:1006B00001919DF8042002951C46814601211046B7
:1006C0009DF808B0079205F037FD03949DF80C20C3
:1006D00058460121144605F02FFD9DF8482004944A
:1006E00015462046012105F027FD9DF84CA00595F3
:1006F0002846012105F020FD9DF85020504601219B
:10070000164605F019FD9DF85480069630460121E5
:1007100005F012FD9DF858704046012105F00CFDD2
:100720009DF85C603846012105F006FD9DF860509B
:100730003046012105F000FD9DF864402846012166
:1007400005F0FAFC2046012105F0F6FC079A00218D
:10075000104605F0DDFC5846002105F0D9FC049850
:10076000002105F0D5FC0598002105F0D1FC50468C
:10077000002105F0CDFC0698002105F0C9FC40469B
:10078000002105F0C5FC3846002105F0C1FC3046CB
:10079000002105F0BDFC2846002105F0B9FC41F21E
:1007A0002C082046002105F0B3FC019B49F80830D5
:1007B00041F2300C029B49F80C3041F2340E039B9D
:1007C00049F80E3041F23807129B49F8073041F2E0
:1007D0003C06139B49F8063009F58255149B2B60A3
:1007E00041F24404159B49F8043041F24800169B3D
:1007F00049F8003041F24C01179B49F8013041F2B1
:100800005002189B49F8023041F2540A199B49F8EA
:100810000A3009B0BDE8F08F034641F228020121F9
:1008200000F5805099540C303B22014906F06ABC17
:10083000010C000041F228030022C254704700BF9F
:100840003F299BBF41F21C0201230023815018461F
:10085000704700BF02299DBF00F581530120197028
:100860000020704738B541F2040504464FF4006299
:10087000405905F0C7F904F5805361591A681960A9
:10088000625138BD41F2080241F204038258C35854
:100890009A4204D13C221346013BFDD1FBE70120E3
:1008A000704700BF41F22403C15070472DE9F04F5B
:1008B00000F580588BB000F5815741463B46183112
:1008C00003911946103105911946143107911946C3
:1008D000183102911946C446C64600F582551C31AE
:1008E00009900C333846AB4C0691049008F11C0873
:1008F0000CF1080C0EF1140E043714350893002087
:100900000121D8F80030834205DC089B1B7854F89D
:10091000333083F880100026039BDCF800A01A68AF
:10092000049B1B7801330AEB8219DBB210320AEB0D
:1009300082120193DEF8003019F80090125C01FA7F
:1009400003FA002E00F0F4803B684FFA8AFA12098D
:10095000012B0AEA19190AEA020200F0F780D5F819
:1009600000A0059B5FFA8AFA54F83AA08AF80011B1
:10097000D3F800A0019B13F0010B5FFA8AFA00F094
:10098000C580B9F1000F00F0C180824B53F83AA046
:10099000079B8AF88010D3F800A0002A00F0C180DD
:1009A0005FFA8AFA54F83AA08AF88010019B03F0A3
:1009B000020A029B1B68DBB20AF0FF0B54F83330CB
:1009C000BAF1000F00F09480B9F1000F00F09080B0
:1009D00083F88010069B1B68002A00F09180DBB230
:1009E00054F8333083F880102B786A4A54F8333047
:1009F0000136022E83F880104FF001038CD1184489
:100A000040287FF47EAF099E099D41F2500041F2DB
:100A10001801305C52F8300080F88030705806F5CC
:100A200082510968C9B252F83120C1074CBF82F81F
:100A3000803082F80031099841F2440341F21802F3
:100A4000C35882580998DBB212F0020F54F83330C1
:100A50004FF0010214BF83F8802083F8002141F297
:100A6000480341F21802C35882580998DBB212F0C9
:100A7000040F54F833304FF0010214BF83F8802084
:100A800083F8002141F24C0341F21802C358825806
:100A9000DBB212F0080F54F833304FF0010214BFEC
:100AA00083F8802083F8002141F250030120EB5CA1
:100AB00054F8332041F22C0382F80001EB5C54F827
:100AC0003320099C82F8000141F214032946EA58B8
:100AD000531E022B9CBF304951F8230041F21801EC
:100AE00063580133102B3BD063500BB0BDE8F08F3F
:100AF00083F80011069B1B68BBF1000F7FF46CAFFD
:100B0000DBB254F8333083F800116DE754F83AA0A3
:100B1000079B8AF80011D3F800A0BBF1000F7FF407
:100B20003CAF5FFA8AFA54F83AA08AF800113DE720
:100B30003B684FFA8AFA09F00F0902F00F02012B05
:100B40000AEA09090AEA02027FF409AFB9FA89F947
:100B5000B2FA82F2D5F800A04FEA5919520900E71B
:100B60000132099D0023042A6B5005D041F2140381
:100B7000EA500BB0BDE8F08F099E06F5805441F2B3
:100B800008012468745041F21402B3500BB0BDE860
:100B9000F08F00BF1C180100B8F4000038B500F554
:100BA00080550C350446284606F0F6FA2046FFF735
:100BB0007DFE41F22803E35C33B1002803DB0D4BDB
:100BC000421E9A420AD938BD41F22C020A4BA25C5D
:100BD00053F83230012283F8802038BDC0EB00107A
:100BE0008200013A232AEED928460449BDE838405C
:100BF00006F088BA474444041C180100010C0000A8
:100C00000148FFF7CBBF00BFFC11FF1F144B154A73
:100C10001549F0B403F5805641F2040541F20C0782
:100C2000336003F5006600245E5141F21805DC5183
:100C300041F2280641F214075C5141F2080041F2EA
:100C40001005DC519C5503F58157C8261B505E5595
:100C500041F21C003C701C501846F0BC0AF060B811
:100C6000FC11FF1F3007FF1F9506000010B5202361
:100C700080220446C0F80028C0F804384FF400620F
:100C800000210AF0FBFB204610BD00BF002914DB49
:100C9000002A12DBD0F8003899420EDAD0F8043876
:100CA0009A420ADA01EBD1735B1000EB8210C05C50
:100CB000CB0704D400F00F007047002070470009F4
:100CC000704700BF00291BDB002A19DB30B4D0F8C5
:100CD0000048A14213DAD0F80448A2420FDA01EB2F
:100CE000D174920185186410C90703F00F032D5DBC
:100CF00007D505F00F0545EA03130244135530BC30
:100D0000704705F0F0052B43F7E700BF61F31F11B3
:100D10004FF400620AF0B2BB2DE9F04F85B00E9E91
:100D20000F9C109F119D9619B242029632DA8946A5
:100D3000B91A019380461646039103EB040AC3EBEC
:100D4000050B039B9F19019B9A451FDD019C0BE03E
:100D50004046FFF79BFF03462A460134394640468A
:100D6000FFF7B0FFA24511D022463146484600F0B9
:100D700093FE0BEB04052A4639460028E8D12246AB
:100D80003146484600F044FE0346E5E7029B013643
:100D90009E42D6D105B0BDE8F08F00BF05F06CB91A
:100DA00030B5174C89B0204602F0CCFB18BBFE21B1
:100DB000144802F065FC68460123134A114902F009
:100DC0000BFD08AA114B12F8140D9DF8045002995E
:100DD0002073257103F10D00A16012F8011F03F8C3
:100DE000011B83420649F8D1079BCB61684602F09C
:100DF0007DFB09B030BD204602F096FBD7E700BF6F
:100E00005422FF1F8424FF1FA8FC00006122FF1F43
:100E10002DE9F04FB54C2368D907ADF67C0D40F1B4
:100E20004F81B34C2368DA0740F138811CA8FFF7E3
:100E30001DFF08A800F09AFD0CA800F097FDAD4B2F
:100E40001B680793079C02F0A1FAAB4B1A68064691
:100E500002B91C60A94F3B6803B93C60A84802F086
:100E600071FB002800F01081A54802F06BFB002800
:100E700040F0BB80A34BA3FB04239B063ED401217F
:100E80000D2005F045F9A04DA048FFF77DFB436814
:100E9000012B304600F09180022B35D004F05AFD32
:100EA0008046304604F078FD10AE03464246304698
:100EB00097490AF037FD9548FFF766FBC368013B89
:100EC000052B9CBF934A32F823203B688B4F88BF89
:100ED00041F28832E31A934238D38F4802F032FB52
:100EE000002840F05D813C600CA800F023FE08A8BB
:100EF00000F020FE0DF67C0DBDE8F08F00210D20E6
:100F000005F006F9854DBFE704F032FD844B854AB4
:100F10000928D4BF98469046304604F029FD814602
:100F2000304604F039FD064604F012FE7E497F4B40
:100F3000009600280CBF0846184610AE01904246A5
:100F40004B4630467A490AF0EDFCB4E779492B4626
:100F5000324608680CA900F031FF00211CA8FFF7F9
:100F6000D5FE0CA800F0BAFD06460CA800F0B8FDAE
:100F700005460CA800F0B2FD04460CA800F0B0FD38
:100F8000C4F17F03C0F11F0003EBD37300EBD070FB
:100F90005A104010002303900292009601951A46C1
:100FA0000CA91CA8FFF7B8FE00216348FFF76AFCF4
:100FB0001CA96148FFF756FC96E704F0D9FC584B92
:100FC000584A0928D4BF98469046304604F0D0FCD1
:100FD0008146304604F0E0FC10AE009042464B469D
:100FE000304656490AF09EFC65E74B4802F0AAFAE3
:100FF000054600287FF43EAF1E2106F0AFF91FFA28
:1010000080FABAF1000F30D0DFF80C810AF1FF331B
:1010100008F11A0BC14605930122394914A802F0C0
:101020005DFC9DF85C109DF854E01698444A88F8E1
:101030000C1088F804E0C8F8080017A911F8010F8F
:1010400002F8010B5A45F9D11B9AC9F81C2014A8C3
:1010500002F04CFA304802F075FA00287ED0059B69
:10106000AB423FDC01355545D6D12B4802F06AFA38
:1010700030B12949334801F067F800287FF4FAAE0F
:101080001F4802F051FAF5E614212F4805F058FFE9
:101090002E4806F0D3F8FFF783FEE5E6204604F07D
:1010A0002DFF00283FF4C2AE264801F03BF8204651
:1010B00004F02AFF264A2749224809F031FEB5E606
:1010C000204604F01BFF00283FF4ABAE124802F0AC
:1010D000FFF9204604F018FF1D4A1F490E4809F089
:1010E0001FFE9EE60C4802F01FFABBE78023FF1F9D
:1010F0003023FF1F4427FF1F4C23FF1FF422FF1F35
:101100005422FF1FD34D6210B0FC0000CC11FF1F12
:10111000E0FC0000B8F600001023FF1FB8FC000040
:10112000C0FC0000B017010010170100C4FC000053
:10113000F8FC0000D422FF1FFC11FF1FECFC000094
:101140001D23FF1F8C22FF1FC8FC00004C28FF1F1F
:101150003007FF1F39210000ED3400009F4802F0E6
:1011600017FC01229D4914A802F0B8FB9DF85C1001
:101170009DF854E016989A4A89F80C1089F804E012
:10118000C9F8080017A911F8010F02F8010B5A4518
:10119000F9D11B9AC9F81C2014A802F0A7F95EE740
:1011A000904801F091F858B98E4801F0FBF80138E9
:1011B000042800F20281DFE800F0C2B09E8D0B002F
:1011C000894802F0B1F9894B3C6000221A608BE635
:1011D0000020324670712B460CA9854800F0EEFDC8
:1011E0000CA800F07BFCC0F1400000EBD070461072
:1011F00040360CA800F074FC7C4FC0F11F003B6827
:1012000000EBD0704510002B40F0CE807649754839
:1012100001F06AF83C60734801F0A6F8014608A89E
:1012200000F0C6FC00211CA8FFF770FD6D4801F01E
:10123000ABF80446002840F093800CA800F04EFC68
:1012400007460CA800F04CFC234622460CA901904E
:1012500003951CA800970296FFF75EFD08A800F012
:101260003DFC054608A800F03BFC00950190039466
:1012700002942346224608A91CA8FFF74DFD5D48AD
:10128000FFF782F9836A002B3FF48EAE14A800F0BA
:101290006DFB554802F02CF914A90246002356486C
:1012A00000F08CFD14A800F02FFC14A800F016FC30
:1012B000044614A800F014FC0023019000941CA81C
:1012C00014A9039302931A46FFF726FD14A800F011
:1012D00031FC69E60020324670712B460CA9444867
:1012E00000F06CFD0CA800F0F9FBC0F1400000EB31
:1012F000D07046107DE70020324670712B460CA955
:101300003B4800F05BFD0CA800F0E8FBC0F12A00B0
:1013100000EBD070461057366BE7002032467071F4
:101320002B460CA9324800F049FD0CA800F0D6FB72
:10133000C0F12A0000EBD07046102B3659E7002090
:10134000324670712B460CA9294800F037FD0CA8D5
:1013500000F0C4FBC0F12A0000EBD070461048E753
:1013600008A800F0BBFB074608A800F0B9FB002462
:101370002346224608A90097019003941CA80294D2
:10138000FFF7CAFC0CA800F0A9FB07460CA800F068
:10139000A7FB0097019003950296234622460CA9CD
:1013A0001CA8FFF7B9FC6AE70E48C3EB040800F07D
:1013B000DDFF80453FF62AAF2DE7104932462B4628
:1013C00008680CA900F0FAFC0CA800F087FBC0F13B
:1013D0007F0000EBD07046100BE700BF5422FF1FC8
:1013E0001D23FF1F8C22FF1F1023FF1FD822FF1F6A
:1013F0003423FF1FCC11FF1FB822FF1FD422FF1F71
:1014000030B53349334895B002F05AFA90B1324DB5
:101410002C683CB1204600F051FC204605F0B4FF9A
:1014200000232B602D48FFF7AFF82D4910300AF04C
:101430000BFB20B92B4B2C4A1A6015B030BD04A809
:101440000123234A234902F0C7F904A802F07AF8DD
:10145000C0B9244B244A1A6004A802F047F815B01A
:1014600030BD0CA800F032FE1C48FFF78DF869462D
:1014700010300AF0E9FAD8B10CA802F055F80CA81F
:1014800002F034F804A901220CA802F027FA0CA8F3
:1014900002F058F869460028E3D10CA802F026F8BB
:1014A0002B688BB10F4A136004A802F03DF8D3E714
:1014B000182005F065FF044600F0F8FB20460CA953
:1014C0002C6000F01BFCE8E7064B074A1A60EBE7CC
:1014D00004FD00008424FF1FD022FF1FCC11FF1F3A
:1014E000ACF40000D422FF1F7422FF1F10B5224C61
:1014F0002368022B24D0032B12D0012B06D0022309
:1015000023600A20BDE8104004F01CBE002001F05A
:10151000B5FB0028F5D102232360FFF771FFF0E748
:101520001648FEF7C1FF0128EBD11448FEF7BCFFB7
:101530000028FAD1022312482360FFF76DF9E0E793
:101540000E48FEF7B1FF032803460FD00D48FEF703
:10155000ABFF012806D0FFF75BFC0A20BDE8104076
:1015600004F0F0BD206001F089FBCAE70448236065
:10157000FFF760F9C5E700BF3407FF1FF822FF1F20
:10158000FC11FF1FDC22FF1F70B5ADF5046D0EA826
:10159000FFF76CFB05A800F0E9F909A82D4A2E49D0
:1015A0000AF0C0F909AA05A900232C4800F006FC9E
:1015B00005A800F093FA064605A800F091FA054642
:1015C00005A800F08BFA044605A800F089FAC4F1DA
:1015D0008003C0F1200003EBD37300EBD0705A10EE
:1015E000401000230390029205A91A460EA8009607
:1015F0000195FFF791FB00211948FFF743F90EA968
:101600001748FFF72FF9174804F0E0FA3C2004F0E0
:10161000EBFA642004F096FD04F0D0FA02284FF0B3
:101620001B0114BF1048114805F08AFC104805F052
:1016300005FE002004F038FDFFF7B2FBFFF7E0FEE7
:101640004FF4FA6004F07EFD05A800F073FA0DF582
:10165000046D70BD0CFD000014FD0000B822FF1FDA
:10166000FC11FF1F9D0D000020FD00003CFD00004F
:101670004C28FF1F30B51F488DB0FEF785FF05468B
:101680000FCD01AC0FC40FCD0FC495E8070084E85F
:1016900007001948FEF7FEFE02281AD01748FEF789
:1016A000F9FE02281DD01448FEF7F4FE0228134864
:1016B000F9D0FEF7EFFE02281148F4D0FEF7EAFE5B
:1016C00002281048EFD0FEF7E5FE0228EBD00DB05F
:1016D00030BD002301A9012206480A93FEF7BAFF94
:1016E000E1E7012301A91A4602480A93FEF7B2FF77
:1016F000D9E700BFCC11FF1FDC22FF1F6823FF1FAB
:101700005023FF1FF822FF1F70B58CB008A800F00F
:101710002DF95A4A5A4910685A4C5B4E0B783BB126
:1017200023789B0704D0136835685B1B182B04D8FB
:1017300013681B1AB3F57A7FF0D9544D10242E1973
:10174000E4B22046002104F0E3FC2046012104F02D
:10175000F3FCB54202D055F8044FF1E701210D200A
:1017600004F0EAFCFFF786FF08A807224FF40D718A
:1017700000F0E6F940F2B672454908A800F0FEF81C
:1017800040F2F112434908A800F006F908AA5E21C8
:10179000414800F09FFA4FF4EB7240493E4800F098
:1017A000EFFA08A80B2240F2551100F0C9F940F2F7
:1017B00059723B4908A800F0E1F840F2D9123949C2
:1017C00008A800F0E9F808AA2B21374800F082FAAF
:1017D000D7223649344800F0D3FA08A81522CA2186
:1017E00000F0AEF940F64902314908A800F0C6F809
:1017F00040F222222F4908A800F0CEF808AA0F21B3
:101800002D4800F067FA4B222C492B4800F0B8FA1B
:101810002B48FEF7B9FE416A2A48FFF743F8002338
:10182000079301260425052406200721022203230D
:10183000039002910192009314221523132106961E
:10184000059504941F48FEF72FFF1D48FEF79CFEE8
:1018500081681C48FEF7F4FF1948FEF795FE90F8E2
:1018600020101848FEF7F6FF1648FEF7D5FFFFF7E1
:101870008BFE08A800F05EF90CB070BD4427FF1F76
:101880002828FF1F4028FF1F082CFF1FE805010024
:1018900058FD0000C4F40000B822FF1FD0FA000079
:1018A000940E0100F4F800003423FF1F100501001E
:1018B000FC050100D0F600007422FF1F480E010055
:1018C000CC11FF1FFC11FF1F2DE9F843DFF89490A6
:1018D0001B4C1C4DDFF890801B4F1C4E484600F0FF
:1018E000E5F922462946484609F01AFA404600F032
:1018F000DDF922462946404609F012FA384600F042
:10190000D5F922462946384609F00AFA1E21104820
:10191000FEF7ACFD1C210F48FEF7A8FD1D210E4867
:10192000FEF7A4FD1B210D48FEF7A0FD304601F097
:10193000CFFD224630460A49BDE8F84309F0F0B928
:101940003007FF1FBD1C00003423FF1F5422FF1F60
:10195000DC22FF1F5023FF1F6823FF1FF822FF1FF9
:10196000ED3400007422FF1FB822FF1F0022026026
:101970004260028142818281C281704710B54389F1
:10198000848903FB04F39A4201D0002010BD006853
:1019900004F038F9002010BD10B54389C48903FB59
:1019A00004F39A4208D01621064805F0C9FA064801
:1019B00005F044FC002010BD406804F023F900202D
:1019C00010BD00BFF01501004C28FF1F002917DBD8
:1019D000002A15DB30B40489A14210DA4489A242FE
:1019E0000DDA84890568481002FB0402C907A85C67
:1019F00007D500F00F0040EA0310C0B2A85430BC75
:101A0000704703F00F0320F00F001843A854F6E7C7
:101A1000002915DB002A13DB0389994210DA438978
:101A20009A420DDA10B483890468481002FB03421D
:101A3000CB07105C06D400F00F005DF8044B704734
:101A40000020704700095DF8044B7047002918DB3F
:101A5000002A16DB30B40489A14211DA4489A2427B
:101A60000EDAC4894568C81002FB0402A85C4BB1B9
:101A700001F00701012303FA01F10843C0B2A854A1
:101A800030BC704701F00701012303FA01F120EA9D
:101A90000100A854F4E700BF00291BDB002A19DB72
:101AA0000389994216DA43899A4213DA10B44468DA
:101AB00094B1C389C81002FB034201F00701125C14
:101AC000012303FA01F10A4214BF184600205DF811
:101AD000044B7047012070470120F8E700897047E8
:101AE0004089704783894289006861F31F1102FBB6
:101AF00003F209F0C3BC00BF83894289006800215A
:101B000002FB03F209F0BABCC38942894068002194
:101B100002FB03F209F0B2BC10B50446006808B13C
:101B200005F034FC606818B1BDE8104005F02EBC2B
:101B300010BD00BF10B50446FFF7EEFF204610BDF4
:101B400070B50D4604461646FFF7E6FFAAB215F03B
:101B5000070102F0010318BF012105EBD570002D2C
:101B6000B8BF073503EB600001EBE50580B22281C9
:101B7000A081E581668106FB00F005F003FCE389A6
:101B8000206006FB03F005F0FDFBA389628960601D
:101B900002FB03F20021206809F070FCE3896289EE
:101BA000606802FB03F20021BDE8704009F066BCEA
:101BB00038B50D464A8909890446FFF7C1FF2968EF
:101BC000B9B1A089638910FB03F292B203FB00F361
:101BD0009A4210D0696849B1E289638912FB03F225
:101BE00092B22046FFF7D8FE204638BD61602046FD
:101BF00038BD2160EEE7206804F004F8EAE700BF92
:101C000070B582B00D46022206460846694601F0CC
:101C100079FC022204460DEB0201284601F072FC19
:101C20000222002CA8BF002801A92846ACBF01242D
:101C3000002401F067FC02220028B4BF002404F055
:101C400001040DF10601284601F05CFC0028B4BF38
:101C5000002404F0010414B9204602B070BDBDF8A0
:101C60000220BDF800103046FFF76AFF7389B28981
:101C7000316812FB03F292B2284601F043FCBDF832
:101C80000630C443E40F002BE6D0F28973897168F3
:101C900012FB03F2284692B201F034FC0028B4BFD4
:101CA000002404F00104204602B070BD10B50446C3
:101CB000FFF75CFE00232361204610BD10B50446EB
:101CC000006908B105F062FB2046FFF733FF2046AC
:101CD00010BD00BF70B5044600690D46164608B138
:101CE00005F054FB31462046FFF762FFA58205EB65
:101CF000850005F047FB206170BD00BF30B50C4684
:101D0000C3B005460021204601F004FC022201A9CF
:101D1000204601F0F7FB0DF103010122204601F0FE
:101D2000F1FB4FF48072002102A809F0A7FB9DF897
:101D3000032002A9204601F0E5FB20460DF1060133
:101D4000022201F0DFFB286908B105F01FFBBDF896
:101D5000060000EB800005F015FBBDF806202861A9
:101D600002EB8202014692B2204601F0CBFB2146F3
:101D70002846FFF745FFBDF80630AB8243B030BDC3
:101D8000838A03EB83039A4210B50DD014460E21CB
:101D9000084805F0D5F82146074805F09FFA06489F
:101DA00005F04CFA002010BD006903F02BFF012064
:101DB00010BD00BF081601004C28FF1F2DE9F04F91
:101DC00087B0074610469A4614468B4605920AF09D
:101DD00017F8BB8A00931A465E1E431E4FF0000E92
:101DE000CDF80CA09A46B6B2D645CDF808B001930E
:101DF000BB4606EB860604F1FF39F446174629DA9E
:101E000019F8012F002F00F02481DBF8104094F81E
:101E10000080424500F002812346A11903E01878B2
:101E2000904200F0FC80994203F105031D46F6D173
:101E3000234603E01878904200F0ED80994203F1C8
:101E400005031C46F6D100230EF1010ED645C3EB67
:101E50000C0CD5DB019B059ADDF80CA023EAE3739B
:101E60005F46D05C009BDDF808B0002B00F0F380EB
:101E700039690B78834200F0E9800B460E4403E099
:101E80001A78824200F0E2809E4203F1050319466F
:101E9000F6D1002338460CEB0304FFF721FE214660
:101EA00002465846FFF74CFE002300930293059824
:101EB000059B039309F0A4FF009B834280F2A78057
:101EC000039BBE8A1978002E00F0BB803A6992F815
:101ED00000E0714500F0AD80741EA5B205EB8505EC
:101EE0001544134603E01878884200F0A3809D4211
:101EF00003F105039C46F6D100230493A4B204EB3E
:101F000084041444002303E012F8050F884205D02E
:101F1000B2F80100A24203449BB2F5D10193019AA9
:101F20000499029B02EB010838461946C2EB0109ED
:101F3000FFF7D6FD002585423FDA019B434536DA9F
:101F40005346019CBA461F4615E0FFF761FD2A463D
:101F5000034631465846FFF739FD21462A4650468A
:101F6000FFF79AFD013403462A4631465846FFF7EB
:101F70006DFD444518D021462A46504609EB04061B
:101F8000002FE2D0009BFB5C2D2BDED100233146DD
:101F90005846FFF71BFD0134314601232A465846B7
:101FA000FFF754FD4445E6D13B4657469A4638462E
:101FB000FFF796FD01358542BFDB039A049C12F8BA
:101FC000011B0392029ABB8A224410469BB13C69D2
:101FD00022788A422AD0013B9AB202EB820223463F
:101FE000224402E01D788D4220D09A4203F105037D
:101FF0001C46F7D10023C31A0293009B05980133B6
:10200000009309F0FDFE009B8342FFF659AF58464E
:1020100007B0BDE8F08FB4F8033015E72546B5F8F2
:10202000013042459C44F6D0A11901E7B4F80330D1
:10203000E1E79446BCF801300493714504D0741E66
:102040005CE7019604966AE7002367E7B1F8013080
:1020500020E73B46F8E6009B1CE700BF30B591B097
:1020600068460123174A184901F0B6FB684601F09B
:1020700069FAF8B1002405E008A801F055FA08A8AB
:1020800001F034FA0122694608A801F027FC08A8EB
:1020900001F058FAE5B201340028EDD108A801F0AA
:1020A00025FA684601F040FA684601F01FFA284612
:1020B00011B030BD0546684601F018FA284611B047
:1020C00030BD00BF04FD00008424FF1F30B505466D
:1020D00083B00C46002101F01DFA0DF106012846DF
:1020E000022201F00FFA0DF105012846012201F04C
:1020F00009FA9DF8052001320C2ACABF0D22D3B27D
:1021000013462146D8BF92B228468DF8053001F01B
:10211000F9F99DF805000444002304F8013C03B0DC
:1021200030BD00BF10B504461C30FFF71FFC002374
:1021300023826382204610BD10B504461C30FFF791
:10214000F9FC204610BD00BF2DE9F04F8FB00D46C1
:102150000222804608460DF11E0101F0D3F9022249
:10216000064608A9284601F0CDF90222002EA8BF94
:1021700000280DF122012846ACBF0126002601F0FF
:10218000C1F90028B4BF002606F00106002E00F0B9
:102190008280BDF82220002A7DD008F10803019337
:1021A00008F10A03029308F10C03039308F10E03EC
:1021B000049308F1140308F1020B08F1040A08F172
:1021C00006090593002702224146284601F09AF9A4
:1021D000022204465946284601F094F90222002CB6
:1021E000A8BF002851462846ACBF0124002401F0B6
:1021F00089F902220028B4BF002404F001044946F2
:10220000284601F07FF902220028B4BF002404F020
:1022100001040199284601F075F902220028B4BF93
:10222000002404F001040299284601F06BF902220F
:102230000028B4BF002404F001040399284601F0EB
:1022400061F902220028B4BF002404F001040499BB
:10225000284601F057F901220028B4BF002404F0F9
:1022600001040599284601F04DF913220028B4BF56
:10227000002404F0010409A9284601F043F9BDF83F
:10228000222001370028B4BF002004F00100BA4228
:1022900006EA000697DCB8F80010B8F80A20BDF886
:1022A0002000A8F81000003118BF0121003218BF2B
:1022B000012200243046A8F81610A8F81820A8F823
:1022C00012400FB0BDE8F08F428A038A9A4201D0D3
:1022D00000207047B0F91800032803D0B0FA80F04E
:1022E0004009704701207047B0F9163010B5044618
:1022F000012B408A228A1BD003238242E3821BD017
:10230000904225D3B4F91830022B05D0002010BD1F
:1023100002229342228317D0E389012BF6D11C3489
:102320002046FFF7E9FB2046FFF7EEFB012010BD3A
:1023300002239042E38213D1B4F91820012AE7D096
:102340000322022B2283E1D1A388012BDAD1E6E715
:1023500004F11C00FFF754FC638A0133638210BD53
:10236000A388012BCCD1DAE71C307047B0F91630C6
:10237000022B06D0B0F91830022B0CBF4089C08860
:1023800070470088704700BFB0F91630022B07D0A5
:10239000038B023B9BB2012B94BF8089008970475D
:1023A00040887047007D70474368002B10B5044695
:1023B00003DD806808B104F0E9FF204610BD00BFCE
:1023C0004368002B10B5044603DD806808B104F0B3
:1023D000DDFF204610BD00BF4368002B10B504464A
:1023E00003DD806808B104F0D1FF204610BD00BFB6
:1023F0004368002B10B5044603DD806808B104F083
:10240000C5FF204610BD00BF4368002B10B5044631
:1024100003DD806808B104F0B9FF204610BD00BF9D
:102420004368002B10B5044603DD806808B104F052
:10243000ADFF204610BD00BFC1B20148FEF70ABA89
:10244000FC11FF1F2DE9F0438BB0054606A80E4690
:10245000FFF78CFA00F09AFF09228046802106A837
:10246000FFF76EFB012106A8FFF73CFB06A8FFF76C
:1024700035FB814606A8FFF733FB00242A4FCDF831
:102480000090019006A92846234622460394029410
:10249000FEF742FC3246234606A93846FFF78EFC7B
:1024A00006A8FFF71BFB814606A8FFF719FB0126CC
:1024B0002346224606A9CDF80090019003962846AF
:1024C0000296FEF729FC404603F044FA8146404656
:1024D00003F062FA4A460346144904A809F022FAB6
:1024E000234604AA06A93846FFF768FC06A8FFF7AA
:1024F000F5FA074606A8FFF7F3FA804606A8FFF7A5
:10250000EDFAC0F18000029023462846224606A933
:1025100003968DE88001FEF7FFFB06A8FFF70AFB94
:102520000BB0BDE8F08300BFB822FF1FE0FC000045
:102530002DE9F04188B0044604A80F46FFF716FACB
:10254000092204A81C21FFF7FBFA012104A8FFF7C8
:10255000C9FA04A8FFF7C2FA064604A8FFF7C0FAB2
:1025600017250023022204A9009601900395204616
:1025700002921A46FEF7D0FB04A8FFF7AFFA064610
:1025800004A8FFF7ADFA0023222204A900960190C7
:102590000395204602921A46FEF7BEFB04A8FFF7F9
:1025A0009DFA064604A8FFF79BFA0023422204A9DD
:1025B000009601900395204602921A46FEF7ACFB66
:1025C00004A8FFF78BFA804604A8FFF789FA3B4E70
:1025D0000395002362220190CDF8008004A92046D3
:1025E00002921A46FEF798FB3A6804A90023304687
:1025F000FFF7E4FB04A8FFF771FA804604A8FFF791
:102600006FFA182500230422CDF80080019004A958
:102610002046029203951A46FEF77EFB7A6804A9CB
:1026200000233046FFF7CAFB04A8FFF757FA80469D
:1026300004A8FFF755FA00232422CDF8008001906A
:1026400004A92046029203951A46FEF765FBBA6874
:1026500004A900233046FFF7B1FB04A8FFF73EFAB8
:10266000804604A8FFF73CFA00234422019004A905
:1026700020460292CDF800801A460395FEF74CFBE7
:10268000FA6804A900233046FFF798FB04A8FFF777
:1026900025FA064604A8FFF723FA002364220190D6
:1026A00004A92046029203951A460096FEF734FBD1
:1026B00004A8FFF73FFA08B0BDE8F081B822FF1F79
:1026C0002DE9F04F89B0054604A80C4617469B46F5
:1026D000FFF74CF96248FDF7E7FE82466148FDF7D7
:1026E000E3FE81466048FDF7DFFE80465F48FDF768
:1026F000DBFE0646002F40F08B80B9F1010F5C4FE6
:1027000000F08E80B8F1010F00F09D80012E00F0E6
:102710009680BAF1010F4FF0FF3618BF00262168EE
:10272000DFF84C812846FFF78DFE3B68002B1ADD51
:102730000023504A504804A9FFF740FB04A8FFF7C4
:10274000CDF9814604A8FFF7CBF900230B220190B5
:10275000039202931A46CDF8009004A92846FEF78A
:10276000DBFAD8F800306268013A9A4220DD002393
:10277000424A414804A9FFF721FB04A8FFF7AEF93C
:10278000814604A8FFF7ACF9804604A8FFF7A6F934
:1027900000230B22C0F1800002900392CDF800903C
:1027A0001A46CDF8048004A92846FEF7B5FA3B681E
:1027B000A268314852F8232004A90023FFF7FEFA4B
:1027C00004A8FFF78BF9804604A8FFF789F90746AC
:1027D00004A8FFF783F9C0F1800000EBD07000235C
:1027E00042100B21029203911A4604A92846CDF803
:1027F00000800197FEF790FA04F10C012846FFF7DC
:1028000097FE04A8FFF796F9304609B0BDE8F08FAF
:10281000174FDBF800303B60B9F1010F7FF472AF66
:1028200063683868124A013B83427FF76BAF129BA3
:1028300001301060002B3FF465AF984762E73B68BA
:10284000CBF800306BE73868094B00287FF75EAFA4
:1028500001381860129B002B3FF458AF984755E79A
:10286000DC22FF1F5023FF1F6823FF1FF822FF1FDA
:10287000C423FF1F381601003423FF1F3C1601003C
:102880002DE9F0478CB0054604A88946FFF76EF89D
:10289000684B0FCB08AE86E80F006748FDF704FED3
:1028A00007466648FDF700FE80466548FDF7FCFDDB
:1028B00004466448FDF7F8FD8246B9F1000F40F088
:1028C0008580012FDFF88C9100F0898028F00208C4
:1028D000B8F1010F4FF0010700F08E8024F00204E0
:1028E000012C00F09A80BAF1010F04D1564BD9F8AF
:1028F00000209A60002728465449FFF7A3FD0822CC
:1029000004A84421FFF71CF9052104A8FFF7EAF801
:1029100004A8FFF7E3F8044604A8FFF7E1F8002352
:102920000C211E22009401900391029204A91A46E0
:102930002846FEF7F1F9062204A84221FFF700F924
:10294000002104A8FFF7CEF804A8FFF7C7F8044653
:1029500004A8FFF7C5F800230D211F220094019061
:102960000391029204A91A462846FEF7D5F90422DB
:1029700004A84021FFF7E4F80F2104A8FFF7B2F8FC
:1029800004A8FFF7ABF8D9F800400028B8BF3F30E3
:102990008311013404A803FB04F4FFF7A1F800231A
:1029A0000E21202201900391029204A91A46284682
:1029B0000094FEF7B1F931462846FFF7B9FD04A8A7
:1029C000FFF7B8F838460CB0BDE8F0871E4BDFF8CB
:1029D00084909B68C9F80030012F7FF477AF1A4BC1
:1029E0001B48996828F00208FDF72AFFB8F1010F8B
:1029F0004FF000077FF472AFD9F80010154A3E2956
:102A00003FF76CAF4B1C19461148136024F00204C9
:102A1000FDF716FF012C7FF466AFD9F800100D4AC0
:102A200000297FF760AF4B1E194609481360FDF778
:102A300007FF58E718160100DC22FF1F5023FF1F75
:102A40006823FF1FF822FF1FE823FF1F4016010025
:102A5000FC11FF1FC823FF1F2DE9F04F93B007465D
:102A60000AA805911546FEF781FF744B0FCB0EACFB
:102A700084E80F007248FDF717FD80467148FDF7A6
:102A800013FD82467048FDF70FFD81466F48FDF744
:102A90000BFD8346002D40F09780B8F1010F4FF0F9
:102AA000FF3818BF4FF00008BAF1010F684E67D029
:102AB000BAF1030F64D0B9F1010F664D53D0B9F1EB
:102AC000030F50D0BBF1010F00F0A48062493846DB
:102AD000FFF7B8FC059B002B41D1DFF89491DFF89C
:102AE00094A16B78AA785D4907A808F01BFF3368AA
:102AF0005B48002B0CBF4B46534607AA0AA9FFF7B9
:102B00005DF90AA8FEF7EAFF81460AA8FEF7E8FF8A
:102B100005460AA8FEF7E2FFC0F1800000EBD07086
:102B2000002340100B220290019503920AA91A4635
:102B30003846CDF80090FEF7EFF84A4A35684A4B20
:102B40002146002D08BF134638461193FFF7F0FCCD
:102B50000AA8FEF7EFFF404613B0BDE8F08FDFF89C
:102B60001891CA46BDE73368D3B9AB78394A013BFF
:102B7000DBB2172B4BD89370BBF1010FA6D14CE001
:102B80003368002B37D0334D6B780133DBB23B2BEE
:102B900046D8B9F1010F6B7002D0B9F1030F91D192
:102BA0006B782C4A013BDBB23B2B3ED85370BBF118
:102BB000010F8BD1002327482B7002F0FBFE2B4B1B
:102BC0004FF00108186081E7284A22491068204E1A
:102BD00002F0D8FDB8F1010F4FF000024FF0FF38BE
:102BE00018BF4FF00008BAF1010F326003D0BAF1FC
:102BF000030F7FF460AF174DAB780133DBB2172BB7
:102C000016D90023B9F1010FAB707FF458AF172329
:102C1000AB70B1E73368002BCCD10123336055E7AB
:102C20000023B9F1010F6B70B7D13B236B70BEE786
:102C3000B9F1010FAB707FF442AF96E7281601009F
:102C4000DC22FF1F5023FF1F6823FF1FF822FF1FF6
:102C50008423FF1F7424FF1F7416010080160100D7
:102C60003423FF1F641601006C1601005424FF1F5B
:102C70004C160100541601005C1601002DE9F04FBE
:102C8000ADF6540D044612A8FDF7F0FF002C62D1FA
:102C9000A44CA54D2B78A44E002B36D12368072BCE
:102CA00024D8DFE813F0150101010B013001750193
:102CB00008008001EE009D4F9D4E3968002233468A
:102CC000009212A8FFF7FCFC0446002841D001281E
:102CD0000CD13B6832689B68964853F8221009F083
:102CE0001DF8224694499548FDF7B4FC01242C7048
:102CF00000219348FDF7C6FD12A99148FDF7B2FDEA
:102D000020460DF6540DBDE8F08F8E4FDFF814828B
:102D10003A788D4900244346009412A8FFF7D0FC6E
:102D20003C70B0B10130E3D0D8F8003034700122EB
:102D30003A70072BDAD8DFE813F0B601AC01A20134
:102D4000080098018D0183017901012112A8FFF784
:102D500097FD0124CCE77948774C744EDFF8D09189
:102D6000FDF712FC05460FCD0FC40FCD0FC495E83B
:102D700007003568002384E80700C9F800304DB12A
:102D80006B68002B03DDA86808B104F0FFFA284641
:102D900004F0FAFAFFF762F96C4C8246206818B129
:102DA00004F0F4FA002323600FFA8AF808EB4800D5
:102DB00008EB800004F0E6FA01232060644A6549CC
:102DC00002A800F009FD02A800F0BCFB034690B386
:102DD0000025C9F80050BAF1000F00F02281012748
:102DE0000CE0C9F80070BB460AA800F07FFBDA458A
:102DF00007F1010705F10D0540F3EB80012202A95F
:102E00000AA800F06BFD0AA800F09CFB034600280E
:102E100000F0028121680AA82944FFF757F90AA89F
:102E200000F082FB21684348294408F00DFE002889
:102E3000D7D0BB46D8E71C20C9F8003004F0A0FA70
:102E40000446042004F09EFA434B444A34600121B6
:102E50002360A060616023460260414D414A4248C0
:102E60004249304CDD601A612F4D364A58619961F4
:102E700002A80123002121602B70137000F036FBA3
:102E800008E7002200923A4B3A4912A8FFF718FCD3
:102E900000283FF45EAF01287FF428AF01222649C5
:102EA0002648FDF7D7FB21E700220092224B32494A
:102EB00012A8FFF705FC0028EDD14AE70022009296
:102EC0002E4B2F4912A8FFF7FBFB0028E3D140E768
:102ED0002C4B2D491B680A930A9BA1FB033100224E
:102EE000C1F3401112A8FFF7B7FD00283FF431AF3E
:102EF00001287FF4FBAE254C206802F03DFE2068DF
:102F000003F0C0F8F2E6002112A8FFF7B9FC002890
:102F10007FF41FAF0122084908480124FDF79AFBFE
:102F20002C70E5E68024FF1F7B24FF1FA423FF1FD6
:102F30001424FF1FF823FF1FE823FF1FCC11FF1FDE
:102F4000FC11FF1F7C24FF1F8823FF1F1824FF1F75
:102F500004FD00008424FF1F8C160100ACF4000067
:102F600098160100A0160100641601006C160100FD
:102F70001024FF1FCC23FF1FA823FF1FEC23FF1FDC
:102F80001C24FF1F4427FF1FD34D62105424FF1F32
:102F900000220092494B4A4912A8FFF791FB0028F2
:102FA0007FF479AFD5E6474C474B0093002204F1FC
:102FB0002003464912A8FFF783FB00283FF4C9AE5F
:102FC00001283FF46BAF94F820104148FDF742FC14
:102FD0008CE602A800F0A8FA1C2004F0D1F90AF14E
:102FE00001050746A80004F0CDF93A4A3A4B7D6046
:102FF0003A603760B8604FEA880503600021042218
:1030000001E09868043223680B448350954201F133
:103010000D013368F5D120E70AA8C9F8003000F0A7
:1030200065FA02A800F080FA1C2007E7002300934D
:103030002A492B4B012212A8FFF742FB012457E635
:10304000002300932149274B012212A8FFF738FBE8
:1030500001244DE6244A254B11680022009212A853
:103060000122FFF72DFB012442E6002300931449BF
:10307000124B012212A8FFF723FB012438E600239C
:1030800000931B491B4B012212A8FFF719FB0124D7
:103090002EE60023009318490A4B012212A8FFF7DD
:1030A0000FFB012424E600F071F9144B0122186093
:1030B000002112A8FFF7D0FC012419E6F423FF1F1A
:1030C0003824FF1FE823FF1F392400005824FF1F66
:1030D000FC11FF1F8C160100ACF40000CC23FF1F75
:1030E0001024FF1F0824FF1FA423FF1F1424FF1F09
:1030F0001C24FF1FEC23FF1FA823FF1F5424FF1FC6
:103100002DE9F84F202004F03DF90346714D724C33
:10311000DFF834821D61DFF834B2704DDFF830A281
:10312000DFF83092C3F80CB09D614FF0080B6C488B
:103130006C4A6D4DDFF820C26C4F6D4EDFF81CE21B
:103140006C4918605A61A3604246C4F804B0C3F8E1
:1031500004A0C3F80890DD612046674BC4F800C0A6
:10316000C4F818E06361E760266107F0D9FD5846AE
:1031700004F008F9614B6049614C596186460221AF
:10318000C3F808E0C3F800A0DF601E6159609C61CD
:1031900018465C4BCEF800305B4BCEF8043042460C
:1031A0005A49554DDFF8B8A107F0BAFD0C2004F0DC
:1031B000E9F803465648574A57491A604FF0030E3C
:1031C000C0F804E0DFF89CE159604246C3F808E02B
:1031D00083605249C0F80090C76006614561846110
:1031E00007F09EFD1C2004F0CDF84D4BDFF878C1B0
:1031F000DFF878E1374A1A6001464A480860C1F8AA
:1032000004C0C1F808E0DFF868C1DFF868E1464AA9
:10321000464899604FF00709C1F814C0C1F818E09A
:10322000C3F80490CA600861424618464049DF600E
:103230001E615D619C6107F073FD1C2004F0A2F823
:103240000346DFF834C1DFF834E12449C3F800C095
:10325000C3F804E0CAF80010DFF824E1CAF80490CB
:10326000DFF820C1334A3449DFF81C91CAF808302E
:103270009A60D9604246C3F81090C3F818E02F490D
:10328000C3F814C05046CAF81450CAF80C70CAF8F3
:103290001060CAF8184007F043FD584604F072F871
:1032A0008646274B174A184D0260CEF80450022577
:1032B0005D600D4D1D60104DC3F808E04246184694
:1032C000DF601E615D619C611E49BDE8F84F07F03B
:1032D00027BD00BFC41601008823FF1FD0160100C0
:1032E000741601008C160100DC160100981601000E
:1032F000A01601002124000064160100A823FF1F6E
:103300006C160100EC160100F01601000924000003
:103310001C24FF1FF4160100FC160100F12300001D
:103320003824FF1F1417010038170100441701004B
:10333000D9230000741701007C170100C12300008D
:10334000CC23FF1FA92300003007FF1F40160100F8
:10335000B4160100B8160100A8160100E416010019
:103360005824FF1F04170100201701002C1701002B
:10337000501701005C170100681701006C1701006D
:10338000941701008C1701008417010010B502F09A
:103390008FFB04460448FDF7F7F80368012B08BFCC
:1033A00004F56164204610BDCC11FF1F10B582B03A
:1033B00002AB026803F8011D546819460122A047B8
:1033C00002B010BDC06938B18369C06847F6FF72AA
:1033D000181A904228BF1046704700BFC36910B545
:1033E000044643B10020187192B2E06901F0C6FDB5
:1033F000E3691B791BB101232371002010BD10BDAF
:10340000C06978B100B583B001220DF1070101F068
:1034100065FB01280CBF9DF807004FF0FF3003B09B
:103420005DF804FB4FF0FF30704700BFC369C3B1C4
:1034300010B582B00446012218460DF1070101F0D3
:103440004DFB012803D04FF0FF3002B010BDE06902
:103450009DF80740C168013901F01EFC204602B00A
:1034600010BD1846704700BFC06908B101F046BCE6
:10347000704700BF2DE9F04105464FF47A731348B9
:10348000AB60002328602B712B7324200C469046E0
:1034900007F080FCE861B0B1064604F1200E206818
:1034A0006168A268E36837460FC7103474453E462A
:1034B000F5D12068386041460C2205F10D0008F076
:1034C0000DFD00236B762846BDE8F081C41701008E
:1034D0004FF47A7204498260002201600271027323
:1034E000C2614273704700BFC4170100704700BF3C
:1034F0000D307047C06920B18079012894BF002049
:1035000001207047C06918B108B501F0E7FA08BD9D
:10351000704700BFC06930B108B501F0BDFB003095
:1035200018BF012008BD7047C36953B110B50446E8
:10353000184601F041FAE06907F034FC0023E3612A
:1035400010BD7047C06918B18079003018BF0120E4
:10355000704700BF30B58BB000240A460A4D8DF885
:1035600008400146012301A88DF80A40019501F0A9
:10357000F9FCA04218BF012402D001A801F01CFAF6
:1035800020460BB030BD00BFE8170100F0B50E6853
:10359000835D2F2B08BF0136841902F1FF3E002501
:1035A00023782F2B274604F1010408D03BB10135C5
:1035B0000C2D06F101060EF8013FF1D18719002309
:1035C00053553B782F2B04BF013687190E6038788E
:1035D000003018BF0120F0BD2DE9F04F99B08846AA
:1035E000264D069500218DF81C108346924699467B
:1035F00044468DF81E108DF840108DF84210019150
:103600000F9506AE05E001F0D7F9FDB1234634462B
:103610001E4602AA01A95846FFF7B8FF80F0010232
:10362000D2B24B4602A905462046D047214607465E
:10363000012302AA70B13046ADB101F093FC4445BC
:1036400005462046DFD10DB10FACDFE7002019B0F1
:10365000BDE8F08F4445F9D0204601F0ADF9384679
:1036600019B0BDE8F08F444506D0204601F0A4F91A
:10367000012019B0BDE8F08F0120E8E7E81701004C
:10368000FE2938B5054617D00A46012100F07AFE1A
:1036900003460BB9002038BD2C1D204601222946C7
:1036A00001F07CFF98B1214605F12C0001F0EEF904
:1036B000003018BF012038BD017000F04FFA0446F9
:1036C00000F03AFAB4FA84F35B09A870E1E7024625
:1036D0002946204601F062FF0028E4D1002038BDD1
:1036E0002DE9F04F99B04FF00008DFF8E8A08DF811
:1036F0001C808146043106A8934601938DF81E80F4
:103700008DF840808DF84280CDF818A0CDF83CA00F
:1037100001F0BCF906AE5D460FAF2F21284608F038
:1037200027F9441BE4B2294608B32B782F2B02A8B3
:103730001BD00C2C28BF0C24224608F0CFFB18AB62
:103740002344384603F8588C01F036F9012302AAC5
:103750003146384601F006FC88B3304601F02CF9BA
:10376000334625443E461F46D7E70135D5E7019845
:1037700031797279B379B468377DCBEB0505056093
:10378000F068356989F8041089F80520B16989F86D
:103790000630F269336AC9F80C004846C9F800A03F
:1037A000C9F80840C9F8105089F81470C9F8181001
:1037B000C9F81C20C9F8203019B0BDE8F08F89F88D
:1037C000040089F806004846C9F800A019B0BDE811
:1037D000F08F00BFE8170100F0B59DB005461F4609
:1037E00001A86B461446FFF77BFF009AA35C1444C4
:1037F000002B42D09DF80A202F4E0A9600238DF808
:103800002C308DF82E30002A31D00AA83B462246B3
:1038100001A901F0A7FB50B301A801F0CDF817F002
:10382000060F43D19DF82C700C9B9DF82DE013964C
:1038300022469DF82E408DF850708DF85240159319
:103840000D990E989DF83C70109E119C129B8DF85E
:1038500051E01691179013A928468DF860701996BB
:103860001A941B93FFF706FE28461DB0F0BD2846AC
:10387000FFF72EFE28461DB0F0BD9DF808700E4ED5
:103880009DF809409DF80A30039A8DF85070139600
:103890008DF851408DF852301592049905989DF895
:1038A0001870079E089C099B044AD2E70AA8109941
:1038B00001F0F2F9B6E700BFE8170100DC170100DC
:1038C00010B40C46002300F12C01034A20465DF899
:1038D000044BFFF781BE00BF55350000F0B505462B
:1038E0009FB00C46164604A9E06901F093F9002840
:1038F00045DD9DF81030002B41D0E52BF3D02E2B69
:10390000F1D09DF81B3003F0080303F0FF02002BF9
:10391000E9D104A869461D4F8DF834208DF8362072
:103920000C9701F059F833466A46E1690CA801F09A
:1039300019FB20B39DF835609DF836400E9B0F991A
:1039400010989DF834E015978DF859609DF84470F3
:10395000129E8DF85A401793139C149B189119903E
:103960006A4615A928468DF858E08DF868701B96B0
:103970001C941D93FFF77EFD28461FB0F0BD28461E
:10398000FFF7A6FD28461FB0F0BD00BFE8170100F5
:1039900010B50446FFF7AEFD18B1E36900229A6046
:1039A000DA6010BD064B074ADA6202210022596034
:1039B0009A7083F8242083F8302083F832207047EF
:1039C0008424FF1FE817010010B4114C114B22682A
:1039D00011491340184322F0080240F4602022608D
:1039E00020600B681C0706D40C4B01E0013B02D0A1
:1039F0000A681207FAD5064B094A5DF8044B40F0F5
:103A000008001860136843F480131360704700BF08
:103A10002C100B400700F0FF24100B40FFFF0F009D
:103A200030100B402149224A0B6843F080030B60A1
:103A300011461368DB07FCD40B689B07F9D41D4BB8
:103A400030B44FF08072194D186000E0A2B12968BF
:103A5000194B164C0B40013A002BF7D062B1012BE9
:103A60000AD1236813F0800F23680FD043F00113AD
:103A70002360032030BC70470C4A136843F4702362
:103A800043F001031360012030BC704713F480330E
:103A900005D0236843F0011323600520F4E7226872
:103AA00042F0010218462260EEE700BF30100B40E2
:103AB00024100B400C100B4001000E0070B50D4D92
:103AC0000D480E4E00232B60FFF7ACFF6324034626
:103AD00006E04BB92B60FFF7A5FF013C034605D07C
:103AE000326805485207F4D4184670BD002808BF54
:103AF000052070BD08100B400000DB0C24100B40AB
:103B000070B5094C0023054623600848FFF78AFF7B
:103B100000B170BD064E074833682560FFF782FF8D
:103B20000028F6D1336870BD08100B4000001A372A
:103B300010100B4000000229074B1A784AB99A78F6
:103B40002AB15B78002B0CBF0220032070470120B4
:103B500070470020704700BFD824FF1F2DE9F047B1
:103B6000664D674E2B68674F6749684C6848694ADD
:103B7000DFF8C4E143F400332B60336843F40053AF
:103B800033603B6843F002033B600B6843F0020381
:103B90000B60236805F59F4506F59F4607F59F478F
:103BA00001F5D12123F00103236001F2EC71002320
:103BB0005835543654370360574813602B600A4613
:103BC00033603B60CEF800300860136813F08073F8
:103BD000FBD1524C524A5348534923604FF481352C
:103BE0004FF01013282405600C604FF487501360C9
:103BF000FFF7EAFE4D4A13689C07FCD1454EDFF8FB
:103C000010E14B4C4B4A4C494C4F4D4D4D4840F206
:103C10004343CEF8003033604FF48866266013606B
:103C20004FF6FF76484C3B6002F5C8220B6020320D
:103C30002E604FF4FA710460136843F00063136060
:103C400013681801FCD40139F6D13D4A374813688E
:103C500043F0800313600368DA0308D43B4B02206F
:103C600059709970187059609960BDE8F087374CA9
:103C7000374E21706170A170084631606160A160AB
:103C8000FFF7D0FE68B9334D33482B684FF4D57336
:103C90003360FFF7C7FE40B92B682B68B3F5D57FBB
:103CA00029D001202070BDE8F0870528F9D1002037
:103CB000FFF726FF0028F4D1264B1A6812F4401FA4
:103CC00058D06278254FDFF89880002A05461E46B6
:103CD00008BF4FF4401704E03268002A42DB454534
:103CE00046D03846FFF70CFF01351A4B0028F3D0B9
:103CF0000120BDE8F08701236370D8E730800440DD
:103D0000388004403C8004404080044000D00040A3
:103D100000D0044004D0044000800001C0100B40DB
:103D200044100B4004100B4028100B4024100B4093
:103D300008D004400CD0044014D0044010D00440FB
:103D400030100B4034100B40BB007F11D824FF1FF4
:103D500008100B4010100B4000001A080000304003
:103D6000A0860100544A954202D01B685B0001D432
:103D700000236370514E524800233360FFF752FE18
:103D8000034600288DD14F4D4F482A683360FFF716
:103D900049FE002885D12B682B684C484C4D1B0CE4
:103DA0001B0433606360FFF73DFE00287FF479AFAA
:103DB000484B49491A68120EEA700A6812F4400F1B
:103DC0006FD1196845481B68026800689B0203F4BC
:103DD000406343EA9253C0F3C2105A1CC1F303215B
:103DE000831C093902FA03F38B40AB60334E6368DE
:103DF00033603B48364FFFF715FE00287FF451AF84
:103E0000304D38482B684FF400733360FFF70AFEDB
:103E100000287FF446AF7B682A6833483360FFF799
:103E200001FE00287FF43DAF02232A682F4833604B
:103E3000FFF7F8FD00287FF434AF2D4B2A681A688D
:103E4000DFF8B4A0DFF8B490DFF8B480294C22F09A
:103E500006021A601A68A6F5C726A6F2FC76A5F532
:103E6000C82542F002021A60CAF80000C9F8000032
:103E7000C8F800003060286020604FF49870FFF7A9
:103E8000A3FD40F243434FF48862CAF80030C9F8FA
:103E90000030C8F8002033602B6023603878BDE81C
:103EA000F08701220D4BAA701B68C3F3152313443E
:103EB0009B02AB609AE700BFA086010008100B4090
:103EC0000000090210100B4000001A03000009094D
:103ED000D824FF1F18100B401C100B4014100B406F
:103EE00000001B0700001A1000001A3700001A0615
:103EF00028100B4014D0044000D0044004D00440EB
:103F000008D00440F8B5384B1A780AB10320F8BD40
:103F10005B78064603B94902344D354C354B36487B
:103F20004FF6FF774FF481322F6021601A60FFF760
:103F300079FD0028EBD1314B31491B681C3406F167
:103F4000400206F510702B68284F43F0200613F44A
:103F5000E00F2E603ED123681E05FCD50B6842F8A9
:103F6000403C0B6842F83C3C0B6842F8383C0B681C
:103F700042F8343C0B6842F8303C0B6842F82C3C69
:103F80000B6842F8283C0B6842F8243C0B6842F866
:103F9000203C0B6842F81C3C0B6842F8183C0B684C
:103FA00042F8143C0B6842F8103C0B6842F80C3C99
:103FB0000B6842F8083C0B6842F8043C40328242ED
:103FC000C1D1002009490B68084A9B07FBD50D4B5E
:103FD0001360F8BD43F4E00343F020033B60FFF7B8
:103FE0006DFD0120EEE700BFD824FF1F30100B400D
:103FF00008100B4004100B4010003A1110100B4039
:1040000020100B4022000001F8B52B4B1A780AB1A2
:104010000320F8BD5B78044603B94902274D284EBA
:10402000284B29484FF6FF774FF481322F603160DB
:104030001A60FFF7F7FC0028EBD1244B24491B68DA
:104040002E4604F500772B681C4AD806FBD533684A
:1040500013F4E00F1AD104F1400254F8043B0B6052
:10406000A242FAD12B68DFF854E043F010032B6032
:104070002B6813F4E00013D19742E4D10F490B6889
:104080000E4A9B07FBD5134B1360F8BD136843F42E
:10409000E00343F010031360FFF710FD0120EDE78C
:1040A000DEF8003043F4E00343F01003CEF80030B4
:1040B000FFF704FD0120E1E7D824FF1F30100B407B
:1040C00008100B4004100B4000003A1810100B4071
:1040D00020100B401200000105281DD8DFE800F079
:1040E00003030D1217080F4B0F4A1A6001F0D8BADC
:1040F0000C4B0E4A1A6001F0D3BA0A4B0C4A1A60F4
:1041000001F0CEBA074B0B4A1A6001F0C9BA054B51
:10411000094A1A6001F0C4BA024B084A1A6001F059
:10412000BFBA00BFE824FF1F000001B80430003808
:104130000110003803200038010002380650013811
:1041400008B50121007801F0E3FF114B1A7802B99C
:1041500008BD104A127800211970002AF8D0D30740
:1041600003D50D490D4B09681960900703D50A491D
:104170000B4B49681960510703D50749094B8968FA
:1041800019601307E4D5044A074BD2681A6008BDCA
:10419000EC24FF1F2027FF1F1027FF1F00E100E076
:1041A00004E100E008E100E00CE100E0254B1A78B2
:1041B0001AB10078002101F0ABBF70B42249234A44
:1041C0000C78126801251D70002C2AD072B60B786D
:1041D000DD0707D51E4C1F49266809681E4D314072
:1041E000296021609C0707D51C4C1A49266849683C
:1041F000194D314021606960590707D5184C1549A0
:1042000026688968144D31402160A9601B0707D5D5
:104210001449104B0D68DB680F4C2B400B60E360BA
:1042200062B6114BD968914207D0104C1C601049FE
:10423000DA6042F080441C6119600078002170BC93
:1042400001F066BFEC24FF1F2027FF1FE824FF1F9B
:1042500080E100E00027FF1F1027FF1F84E100E03E
:1042600088E100E08CE100E000C0024001401F0056
:1042700000001F80F0B4134C134A236882B0174625
:10428000009300984FF0004680B2FF25136843F476
:1042900080631360D6625563D36A002BFCDABB6B74
:1042A000DBB2FF2B0AD023680193019B9BB21B1A40
:1042B0008B42EBDB002002B0F0BC7047012002B063
:1042C000F0BC70474427FF1F00C00240F8B50D4600
:1042D0004FF4967116460446FFF7CCFF284B1A6838
:1042E0004FF0004042F4806245F040011A60D8620D
:1042F0001A465963D36A002BFCDA214918204FF083
:1043000000470A6826FA00F342F48062DBB20A60D2
:10431000CF624B63CB6A002BFCDA083810F1080F30
:10432000EFD155B3082D0CBF8721FF21144B1A681C
:104330004FF0004042F480621A60D8621A46596316
:10434000D36A002BFCDA0E4A002716464FF00045D0
:10435000FF21136843F480631360D5625163D36A0D
:10436000002BFCDAB36BD8B21B06607000D4F8BD2A
:104370000137B7F5807FECD1F8BD9521D6E700BFB6
:1043800000C002402DE9F04300239E4F027085B02B
:1043900083703B6801930546884610460121019EC3
:1043A00001F0B6FE2878012101F0C6FE287801212F
:1043B00001F0AEFE944A136843F480531360062064
:1043C000FFF78AFE914B924A93F800E01268B6B26A
:1043D000BEF1000F31D072B61978C8070BD58D4CDD
:1043E0008D48D4F800C00068DFF844E20CEA000011
:1043F000CEF8000020608C070BD5884C8648D4F896
:1044000000C04068DFF828E20CEA00002060CEF827
:10441000040048070BD5824C7F48D4F800C0806860
:10442000DFF80CE20CEA00002060CEF80800090773
:1044300000F1A68062B693F800E07A4BD968914209
:1044400007D0794818607949DA6042F080401861F5
:104450001960744A0A244FF00040FF21136843F4A6
:1044600080631360D0625163D36A002BFCDA013C95
:1044700014F0FF04F2D1BEF1000F1BD01EF0010FAB
:1044800003D06B4A6B4B12681A601EF0020F03D008
:10449000674A694B52681A601EF0040F03D0644AE1
:1044A000664B92681A601EF0080F03D0604A644B96
:1044B000D2681A602846FFF779FE07E03B6802934E
:1044C000029B9B1B9BB2B3F5FA6F52D80022114698
:1044D0002846FFF7FBFE012881466870EED14FF4B5
:1044E000D57208212846FFF7F1FE430727D585F846
:1044F00002904FF0000907E03B680393039B9B1B6E
:104500009BB2B3F5FA6F34D8002237212846FFF763
:10451000DDFE4A4629212846FFF7D8FE68700028AC
:10452000EAD1AB78022B3BD02846FFF709FE404684
:10453000FFF7D2FD0124204605B0BDE8F083394ADB
:10454000042194464FF0004EFF20136843F480632B
:104550001360C2F82CE05063D36A002BFCDADCF85D
:1045600038300139DBB211F0FF016B70EDD1AA2BAD
:1045700011D02846FFF7E4FD204605B0BDE8F083E2
:1045800030482549D0F800E0C968294C0EEA0101FD
:104590000160E1604EE70223AB704FF08049B3E762
:1045A00002463A212846FFF791FE0028E1D11D4B33
:1045B0001A684FF0004442F48062FF201A601946E6
:1045C000DC625863CB6A174A002BFBDA936B154AFF
:1045D00003F0C003C02B04BF0323AB7003211646B6
:1045E0004FF00044FF20136843F480631360D462EB
:1045F0005063D36A002BFCDA013911F0FF01B36B71
:10460000F1D191E74427FF1F3C8004402027FF1F82
:10461000E824FF1F80E100E00027FF1F84E100E0A5
:1046200088E100E000C0024001401F0000001F8040
:104630001027FF1F00E100E004E100E008E100E0D6
:104640000CE100E08CE100E0F0B4164C164A23685F
:1046500082B01746009300994FF0004689B2FF25BB
:10466000136843F480631360D6625563D36A002BEA
:10467000FCDABB6BDBB2FF2B43700BD123680193D9
:10468000019B9BB25B1AB3F5967FE9DD002002B077
:10469000F0BC7047A3F1FE00B0FA80F0400902B010
:1046A000F0BC70474427FF1F00C00240F8B5837874
:1046B000032B0E46044618BF4E021546FFF776FD43
:1046C000324611212046FFF701FE18B92046FFF7B8
:1046D000BBFF20B92046FFF733FD0020F8BD204B7B
:1046E0002049214A1A608E4659631A4659631E466C
:1046F000596305F5FD70A91C05F5FE77D36A13F023
:10470000F00FFBD0C6F834E0B36B01F8013C1B128C
:1047100001F8023C02318F42F0D105F50075A84244
:104720000DD20F4A1646D36A13F0F00FFBD0B36BCD
:10473000191200F8021BA84200F8013CF3D3084B01
:104740000949084A196019465A63CB6A044A13F0AA
:10475000F00FFAD02046936BFFF7F2FC0120F8BD72
:1047600000C00240FFFF009000041F80F0B4314EF3
:1047700033684FF0004743F4806333603D46F7628F
:10478000344671633346511C02F20127E26A002A63
:10479000FCDA1A6811F8016C42F480621A60DD627A
:1047A0005E63E26A002AFCDA1A6811F8026B42F4CE
:1047B00080628F421A60DD625E63E7D11D49CA6A7A
:1047C0001C4B002AFBDA1A684FF0004542F4806265
:1047D000FF241A601946DD625C63CB6A154A002B20
:1047E000FBDA13684FF0004543F48063FF24136045
:1047F0001146D5625463CB6A0E4A002BFBDA13686C
:104800004FF0004543F48063FF2413601146D562E6
:104810005463CB6A074A002BFBDA936BDBB203F0DD
:104820001F024370A2F10500B0FA80F04009F0BC0D
:10483000704700BF00C0024070B5044671B1837874
:10484000032B0D4618BF4D021646FFF7AFFC2A4654
:1048500018212046FFF73AFD054620B12046FFF714
:104860006FFC002070BD3246FE212046FFF77EFF20
:104870000028F3D04FF416712046FFF7FBFC002808
:10488000ECD02A460D212046FFF720FD0028E5D177
:104890000B4B1A684FF0004542F48062FF201A600B
:1048A0001946DD625863CB6A054A002BFBDA936B2D
:1048B00013F0FF0FD2D12046FFF742FC012070BD5C
:1048C00000C00240014B024A1A607047E824FF1FF3
:1048D0000320003838B590F90530002B03DBBDE824
:1048E000384000F06FBC04460121006900F0AAFCCA
:1048F000F8B1257D104B13EB45151AD0A3790F4A5B
:10490000012B9CBFA369EB61E36912686B831B0CED
:10491000AB8232B105F1160105F1180090472B8BDF
:104920006B82637903F07F036371BDE8384000F068
:1049300049BC002038BD00BFFC24FF1FF024FF1F2E
:1049400010B500F1080204460121006A00F06EFD76
:1049500050B1E3693BB96379A268E26163F07F0318
:104960006371012010BD012010BD00BF70B5064667
:10497000FFF7E6FF98B1326AB568117C5369147984
:10498000023D8D40013B74B11D4402E014F0FF0470
:1049900007D0601900F0C6FC013C0028F6D10020C9
:1049A00070BD336A197CB0694FF4007202FA01F3EA
:1049B0000344B361012070BD82790AB900207047B9
:1049C00010B50446FFF786FF18B10023A37101203C
:1049D00010BD002010BD00BF002270B40138144685
:1049E0002E2610F8013F202B04D0082A09D0651C80
:1049F0000B55ECB201320B2AF3D100230B5570BCDE
:104A000070470E550134E4B20378F0E770B44B1EE2
:104A100001F10A04202203F8012FA342FBD101383F
:104A20000025072610F8014F2CB32E2C1ED0164A55
:104A300001E09C4217D012F8013B002BF9D1AE42A5
:104A40001FD3A4F121025D2A1BD8A4F16102192A07
:104A500005F1010398BF203C0D44DBB298BFE4B2DE
:104A60002C701D46DEE7002070BC70470A2EFAD07D
:104A700008250A26D6E70B78B3F1200018BF0120DD
:104A8000F2E71846F0E700BFF017010038B5837968
:104A90003BB991F82020102A0D46044603D0202A65
:104AA00010D0002038BD022282714A8CC3615301AC
:104AB000836100230120607123752562A360E36098
:104AC000236138BD03238371496AC16100F1180273
:104AD000284600F07BFC0028EBD1E2E72DE9F04FFF
:104AE0008B4683B08179019219B14379DA07064682
:104AF00004D44FF0FF3003B0BDE8F08F8369C26883
:104B000001989B1A984277D8019B002B77D00229F5
:104B10001D46DFF8F8903C4FDFF8F480C2F3080A36
:104B200045D0306A0479013C04EA5224E4B2BAF177
:104B3000000F58D1002C56D1002A4CD1F269B26036
:104B4000416990F810E0023A02FA0EF00C440119A3
:104B5000CAF500747279A542CCBFA4B22C465306A4
:104B60002AD4B4F5007F27D00846002100F06AFB64
:104B70000028BED00AEB090E0EEB040086450BD0D0
:104B80000BF1FF32734613F8011B02F8011F984224
:104B9000F9D1CEEB00008344F2682D1B2244ADB264
:104BA000F26065B3B1790229C2F3080AB9D1316A5A
:104BB000496A01EB5221CBE73A689142D4D0D8F848
:104BC00000000378FE2B10D05A46FFF76FFD002837
:104BD0008FD0A344E0E706F10802B16800F0BEFB05
:104BE000002886D0306AB268AAE75846FFF78AF9EB
:104BF000B0FA80F04009EAE79BB2019384E7BDF97F
:104C0000040003B0BDE8F08F3807FF1FFC24FF1F2E
:104C1000F824FF1F38B58379012B16D9C368DA064B
:104C20000C46054611D1202221462846FFF756FFA3
:104C300040B220280CD1237863B1E52BF3D02E2B82
:104C4000F1D0E37A1B07EED438BD4FF0FF3038BD0A
:104C5000C01738BD184638BD8379012B17D930B538
:104C6000C36883B001220DF107010446C3F3431565
:104C7000FFF734FF012802D0002003B030BDE36805
:104C800004481F3300EB4510E36003B030BD002043
:104C9000704700BFFC24FF1FF8B5837913B1826908
:104CA0008A4201D20020F8BD022B0F4605461AD0D9
:104CB00007B32B6AE9681C7C4A1E04F109037C1EB9
:104CC000DA40DC40A24211D9EB69AB6005F108067D
:104CD00006E0A968286A00F041FB013C0028E1D009
:104CE0003246002CF5D1EF600120F8BD0029EBD051
:104CF000A41AEBE7AF60EF600120F8BD83790BB138
:104D0000FFF7E8BD184670478379012B01D00020DA
:104D10007047F0B54579AC0783B002461CD585696C
:104D20008D420C4618D3D5B12546D6681446FFF7F8
:104D3000B3FF88B1B5B9E169206A00F001FC58B150
:104D4000E56122E000F0FCFB30B16FF07042A16839
:104D5000206A00F0E3FBC0B9002003B0F0BD1846A4
:104D600003B0F0BD01AAA168206A00F0F7FA00289C
:104D7000F2D0206A0F4B90F8207001994FF6F8722C
:104D8000102F08BF13469942DCD36379A279A5613D
:104D900063F07F036371002ADED02046FFF79AFD9F
:104DA0000028D9D0B5422946204628BF3146FFF712
:104DB00073FFD2E7F8FFFF0F70B51D4B03EB4116F1
:104DC000F37A13F0110F02D012F0420F1ED1194BDB
:104DD00001751B680361738BB18A43EA0141C161AC
:104DE000F37A13F01803154604460DD1F369836175
:104DF0000123837105F00F03002163716B06A1602D
:104E0000E1600FD4012070BD102B01D0002070BDD7
:104E100000F11802006A00F0D9FA0028F6D0042345
:104E2000A371E7E72046BDE87040FFF76DBF00BF04
:104E3000FC24FF1F3807FF1F2DE9F04784B001AFA6
:104E400006460C46104639469946FFF7DFFD78B313
:104E50000022216A316213461546A260E260DFF843
:104E6000008108E0E52B1CD001460B22384606F0F5
:104E70006FFA88B3E368A2699A421DD92046C3F34A
:104E8000431AFFF7E9FE98B10378002BEAD15DB928
:104E9000D8F8003086F814A03361037823B10125D7
:104EA000E8E7002DFBD1F3E709F01203122B1DD028
:104EB000002004B0BDE8F08709F01203122BF7D1EF
:104EC000A5B9A379022BF3D02046FFF74FFD0028A8
:104ED000EED0214C357514E009F03003302BE7D0CB
:104EE0004A4651463046FFF767FFE2E70121306945
:104EF00000F0A8F90028DBD0347D174B13EB4414E5
:104F0000D6D020220021204606F0B8FA97E8070004
:104F1000234603C3114923F8022B0D68120C1A70A3
:104F20009DB104F10E0104F11000A847238AE28923
:104F300063822383E28200F045F90028B8D04A4614
:104F4000317D3046FFF738FFB3E742F621034FF4D7
:104F500000622382E281EBE7FC24FF1FF024FF1FA5
:104F60003807FF1F10B484791CB100205DF8044B92
:104F700070475DF8044BFFF75FBF00BF2DE9F04FAE
:104F80008B46817985B001298046019206D00123A4
:104F900088F80430002005B0BDE8F08F4279910711
:104FA000F5D553070AD5D8F80C40D8F818108C421C
:104FB00000F0CF80FFF770FE0028E8D0019BD8F802
:104FC0000C40002B4ED0DFF8DC91DFF8DCA1019F14
:104FD000D8F820000579013D05EA542515F0FF05B4
:104FE000C4F308044BD1002C49D1D8F8081000298B
:104FF00040F08980D8F81C20002A00F09880C8F87A
:105000000820C4F50076B6B2BE423FD890F810E052
:105010004169023A02FA0EF20D44B6F5007F1544DA
:105020003BD1DAF80020954204BF4FF0FF32CAF8B6
:105030000020584A10680278FE2A294600F0828033
:105040005A46FFF7F9FB0028A1D00BF5007B4FF47F
:105050000074D8F80C20BF1B1444BFB2C8F80C4031
:10506000002FB5D1D8F81830A34277D298F8052090
:10507000C8F8184042F0800288F8052079E0C4F5AD
:105080000076B6B2BE42D8F80820BFD9067C416986
:10509000023AB2400D4415443E462CB9D8F80C10E3
:1050A000D8F8182091421BD22846012100F0CAF8F6
:1050B00000283FF46CAF4C4404EB060E744520D03E
:1050C0000BF1FF31621E0EF1FF3511F8010F02F8EE
:1050D000010F9542F9D1C4EB0E0EF3443446B8E704
:1050E00000F070F800283FF452AF2B49CAF8005086
:1050F0000A784C4404EB060E42F0010274450A7033
:10510000DED13446A5E703AA00F028F900283FF4D1
:1051100042AFD8F82000214B90F82060039A4FF658
:10512000F871102E18BF19468A42FFF468AF404646
:10513000FFF706FC00283FF42AAFD8F82000D8F883
:1051400008205EE75846FEF75FFFB0FA80F040099E
:1051500079E7019B002B7FF436AF0AE0104B98F8FB
:1051600005201B682BB1019B1BB142F0800288F81F
:10517000052012070AD598F80630002B3FF407AF38
:105180004046FFF7A7FB00283FF401AF019805B0A8
:10519000BDE8F08FF824FF1FFC26FF1FF8FFFF0F6C
:1051A000F024FF1FFC24FF1F3807FF1F00B583B04A
:1051B00002AB012203F8011D1946FFF7DFFE03B021
:1051C0005DF804FB70B51A4C23780BB9012070BD53
:1051D000184D194B286819680378FE2B17D0174A09
:1051E000FFF72AFB88B1164E316819B900232370E6
:1051F000012070BD28680378FE2B0FD00F4AFFF7FF
:105200001BFB10B100233360F0E7002070BD0B489A
:10521000FEF7FAFEB0FA80F04009E3E70748FEF730
:10522000F3FEB0FA80F040090028EBD1EDE700BFB3
:10523000FC26FF1FF824FF1F3807FF1FFC24FF1F59
:10524000F424FF1F70B5124D2B6883420E4611D017
:105250000446FFF7B7FF08B9002070BD0D4B186872
:105260000378FE2B0CD00C4A2146FFF71FFA0028CA
:10527000F2D02C60094B197831431970012070BDB0
:1052800021460548FEF73EFEB0FA80F04009EEE701
:105290003807FF1FF824FF1FFC24FF1FFC26FF1FF9
:1052A000F8B590F82030C469102B1A4B05460E460D
:1052B00017461B6816D004EBD1149C4216D106F099
:1052C0007F06154A42F826701449287E0A7801287C
:1052D00042F001020A7018D9A968114A0B44136000
:1052E0000120F8BD04EB11249C4208D00021204687
:1052F000FFF7A8FF50B195F82030102B07D1F6B278
:10530000054A234622F81670DEE70120F8BD234641
:10531000D5E700BF3807FF1FFC24FF1FFC26FF1F37
:10532000F424FF1F10B50446FFF74CFF78B1084B7B
:10533000002103F5007203F8011F9342FBD1054AD7
:10534000054913780C6043F001031370012010BD70
:10535000FB24FF1FFC26FF1F3807FF1FC368013314
:105360008B4218D370B590F82030102B154B0446A3
:1053700016460D46C0691B680FD000EBD11098424D
:105380000FD105F07F01104B53F8213023F070430B
:105390003360012070BD0020704700EB112098425F
:1053A00007D00021FFF74EFF50B194F82030102BAA
:1053B000E7D1E9B2044B33F811303360012070BDFE
:1053C000002070BD3807FF1FFC24FF1F2DE9F047A8
:1053D00082B002ADDFF8508045F8041D04469146C6
:1053E0004FF0000A4FF400774FF6F8760CE094F88F
:1053F0002030227C0199102B14BF4346334607FA14
:1054000002F29942924408D22A462046FFF7A6FFAC
:105410000028ECD102B0BDE8F0870120C9F800A057
:1054200002B0BDE8F08700BFF8FFFF0F2DE9F04F95
:10543000176883B06FB301374FF0000AC36803F1F8
:10544000010813B38B46064691463C46002505E00D
:105450001C461F46F3680135AB4216D9A04538BF3C
:105460000224214601AA304638BF2746FFF776FFBF
:10547000631CD91B48B1019A002AE9D18B4510D091
:105480001C46F3680135AB42E8D8002003B0BDE804
:10549000F08FA1F1010ABAFA8AFA07684FEA5A1A9C
:1054A000CCE7012CF1D9F36801339C42EDD86FF0C1
:1054B000704221463046FFF7F3FE0028E5D0A742B0
:1054C00014D2013C012CE0D9F36801339C42DCD8B2
:1054D000621C21463046FFF7E3FE0028D5D0A742E4
:1054E00004F1FF3402D0012CEED1CEE7D9F8001040
:1054F00059B10129C9D9F36801339942C5D83A464F
:105500003046FFF7CDFE0028BFD0C9F80070BAF1D1
:10551000000F01D0013737600120B7E701290CD90E
:10552000C3680133994210B403D85DF8044BFFF708
:10553000B7BE00205DF8044B70470020704700BFE5
:10554000F0B5022383B00546134F03600C464FF6B7
:10555000F8760FE0EB6801339C4216D8FFF7A0FE07
:1055600098B195F82030019C102B0CBF33463B4678
:105570009C420DD201AA21462846FFF7EFFE2146A4
:10558000002210B1012C2846E4D8002003B0F0BD61
:10559000012003B0F0BD00BFF8FFFF0FF8B53E4B90
:1055A000054619601446DAB1042A01D90020F8BD75
:1055B00000210846FFF746FE0028F7D0374B03EBE3
:1055C000041292F8AE215206F0D11B3403EB0414FE
:1055D000D4F80A30632BE9D9D4F80640002CE5D082
:1055E00000212046FFF72EFE0028DFD02B4AB2F81C
:1055F0000B30B3F5007FD9D1117C0029D6D0D389E7
:10560000002BD3D0567B002ED0D0002329762E71CC
:105610002B74012703E009290B462974C6D007FA29
:1056200003F0B04203F10101F5D1D68A1B4906B956
:105630004E6AB2F80EE0AE60A644C5F81CE0B2F8BF
:105640001110177C6984480106FB07E600F2FF1081
:1056500006EB60206E626861B2F813100F4E01B95C
:10566000316A241A0C4424FA03F340F6F4718B4295
:10567000EB600BD94FF6F4718B4285BFD36A6B6236
:105680001023202385F820300120F8BD0C2385F855
:1056900020300120F8BD00BFF824FF1FFC24FF1FAD
:1056A0002849294B0A682948F0B442F48052284F0F
:1056B000284E294D294C0A601F60DE601D611C6068
:1056C000037813F003022DD0012A17D0244A4FF497
:1056D0000071116013F00C0217D0042A27D1214A5F
:1056E0004FF40071116013F0300315D0102B23D14B
:1056F0001D4B4FF400721A60F0BC70471B4A4FF408
:105700000071116013F00C02E7D1194A4FF40071D7
:1057100013F030031160E9D1164B4FF410721A6088
:10572000F0BC7047144A4FF410711160D2E7134A6D
:105730004FF400711160D6E7114B4FF400721A60FC
:10574000F0BC70473C80044000C002404828FF1F66
:1057500001401F00011000380110007800001F8078
:10576000409004400CC0044004C0044008C0044001
:105770001CB0044014B0044018B0044044900440ED
:105780003C900440664A674B2DE9F04F664EDFF8C7
:10579000A8A1664CDFF89881A2FB0052170C07F114
:1057A000040EA3FB0025A6FB00626D09AEFB0AAB4D
:1057B000D20AA3FB0563A4FB0264CBEB0E060BEB42
:1057C00056065B09B6082409C6EBC606C3EB0313ED
:1057D000A5EB830304EB4404C5EB0515C6EB0E06ED
:1057E000A0EB8500A2EBC402013600258A70087088
:1057F0004B70CE702A4640F26D1A4FF0640C4FF495
:10580000C8790EE0CBEBE01009FB103084BB002818
:1058100014BF50464FF4B7700244974205F101059A
:1058200014D3EEB206F2B27388FB03404FEAE37B77
:10583000CBEB601413F0030E0CFB1434E2D040F2F7
:105840006D100244974205F10105EAD28E71BEF156
:10585000000F10D136484FEAE37B80FB0340CBEBCF
:105860006014642505FB143484B34FF4B77506E067
:105870004FF4B770D0E740F26D154FEAE37B2C4C44
:105880002C4884FB0364CBEB641C521BCBEBE41B66
:1058900064254FF4C87404FB1B3B05FB1C3CBA1A7F
:1058A0000124002302E00134E4B20133012BDEB213
:1058B00020D01D5C954216D80C2CA2EB0502F2D12B
:1058C0000D2601320A714E71BDE8F08FCBEBE0106E
:1058D0004FF4C87404FB1030002840F26D1508BF67
:1058E0004FF4B775CBE70136F6B201320A714E714B
:1058F000BDE8F08FBEF1000F0BD1BCF1000F0AD153
:10590000BBF1000F14BF1C251D25AA4205D3521B55
:10591000C9E71C25F9E71D25F7E70226D1E700BFF7
:1059200007452EC289888888C5B3A291ABAAAAAAC6
:105930001F85EB51001801002549922410B5034939
:105940000446FFF71FFF024B1C6010BD2827FF1FF6
:105950002427FF1F08B5044B1B68984201D0FFF7AE
:10596000EDFF024B987808BD2427FF1F2827FF1F53
:1059700008B5074B1B68984201D0FFF7DFFF054BC6
:10598000987808B90C2008BD0C28FCD90C3808BD43
:105990002427FF1F2827FF1F08B5044B1B689842C8
:1059A00001D0FFF7CBFF024B587808BD2427FF1F1B
:1059B0002827FF1F2DE9F0413949867901FB06F1BF
:1059C00006B306F2B27C40F2B373DFF8D8E0642786
:1059D0004FF4C8780DE013F0030F09D1C2EBE512C4
:1059E00008FB123204B91AB901F5A83101F5C071EA
:1059F00001338EFB0325DA17C2EB65149C4507FBC8
:105A00001434E8D14779012F2FDD264C264ADFF8E0
:105A10009CE006F2B27384FB0346DC17C4EB661C01
:105A20006425C4EBE6164FF4C87405FB1C3C04FB6C
:105A3000163603F00305012307E014780133BB4257
:105A40000EFB041102F101020FD0022BF5D1002D43
:105A5000F3D1BCF1000F1BD001F5181101F56E5107
:105A60000133BB4202F10102EFD14378857804781B
:105A700002790E48C3EB03134FF461669B0006FBEB
:105A800005332344013A00FB02300844BDE8F081AD
:105A9000002ED2D101F5181101F56E51E0E700BFDB
:105AA0008033E1011F85EB51001801008051010096
:105AB000F0B5204C204E23683268204D83B0286812
:105AC0000093009B9B1AB3F57A7F0FD3013000E05F
:105AD000084623680093009B02F57A729B1AB3F57F
