:1000000000000220990100005D6B0000216B0000E0
:10001000216B0000216B0000216B0000216B0000B0
:10002000216B0000216B0000216B00005D6B000064
:100030005D6B0000216B00005D6B0000116B000028
:100040005D6B00005D6B00005D6B00005D6B000090
:100050005D6B00005D6B00005D6B00005D6B000080
:100060005D6B00005D6B00005D6B00005D6B000070
:100070005D6B00005D6B00005D6B00005D6B000060
:100080005D6B00005D6B00005D6B00005D6B000050
:100090005D6B00005D6B00005D6B00005D6B000040
:1000A0005D6B00005D6B00005D6B00005D6B000030
:1000B0005D6B00005D6B00005D6B000069850000FA
:1000C0005D6B0000ED8C00005D6B00007592000020
:1000D0005D6B0000A19800005D6B00005D6B00008F
:1000E0005D6B00005D6B00005D6B00005D6B0000F0
:1000F0005D6B00005D6B00005D6B00005D6B0000E0
:100100000D7C0000257C00003D7C0000557C00003B
:100110005D6B0000717000005D6B00005D6B0000A6
:100120005D6B00005D6B00005D6B00005D6B0000AF
:100130005D6B00005D6B00005D6B00005D6B00009F
:100140005D6B00005D6B0000F19D00005D6B0000C9
:1001500041A300005D6B00005D6B00005D6B000063
:100160005D6B00005D6B00005D6B00005D6B00006F
:100170005D6B00005D6B00005D6B00005D6B00005F
:100180005D6B00005D6B00005D6B00005D6B00004F
:100190005D6B00005D6B0000584B4CF2205210B5B7
:1001A0001A804DF628121A8000BF00BF06F0DAFC54
:1001B000534B4FF030621A60524A9A60524ADA60EA
:1001C000524B4FF470021A60514B1A6812F480724D
:1001D00004D150490A604FF4A8521A604E4B1A7865
:1001E000110703D51A7842F008021A704B4B4C4C99
:1001F0004C482A221A704C4A00239918A14203D273
:10020000195899500433F8E7484B494900228B426A
:1002100002D243F8042BFAE74648474900235A58CC
:100220001A500433B3F5CC7FF9D1444B444A8021B2
:1002300003F8011B9342FBD1424B3E4A1A60424BEA
:100240008A221A70A3F5805324225A70A0221A70B1
:100250009A799207FCD59A79D406FCD43B4A9379D3
:1002600003F00C03082B394BF9D103221A715222E7
:100270005A719A799006FCD5344A9179334B4906E4
:10028000FBD5334A334911600D21516020221A7089
:100290009A7902F00C020C2AFAD12F4B2F4A1A60DD
:1002A0002F4B304A1A6000225A60072243F8042C70
:1002B0002D4AC3F80C2D62B606F07CFD154B1B6869
:1002C000DA0705D5294806F08DFC294B294A1A6022
:1002D000294B1B785B0609D5254C264A2368934297
:1002E00004D1224806F07EFC002323600BF038F98D
:1002F00006F03EFC07F066FDFEE700BF0E2005405D
:1003000030800440823F04000100002B88ED00E0B3
:1003100010D0034014D0034002D0074000E0074053
:10032000AC10FF1F002C01006007FF1FAC10FF1F67
:100330007C3BFF1F0002FF1F0000000000E400E004
:1003400056E400E008ED00E00050064000400640A2
:10035000448004400000050204800440C0100500F1
:1003600014E000E03F900200000020203B76A659F8
:100370001CE00340A5C3945A00F00740FFFFFFFFB5
:10038000FFFFFFFFFFFFFFFFFFFFFFFFFFFFFFFF7D
:10039000FFFFFFFFFFFFFFFFFFFFFFFFFFFFFFFF6D
:1003A000FFFFFFFFFFFFFFFFFFFFFFFFFFFFFFFF5D
:1003B000FFFFFFFFFFFFFFFFFFFFFFFFFFFFFFFF4D
:1003C000FFFFFFFFFFFFFFFFFFFFFFFFFFFFFFFF3D
:1003D000FFFFFFFFFFFFFFFFFFFFFFFFFFFFFFFF2D
:1003E000FFFFFFFFFFFFFFFFFFFFFFFFFFFFFFFF1D
:1003F000FFFFFFFFFFFFFFFFFFFFFFFFFFFFFFFF0D
:10040000FFFFFFFFFFFFFFFFFFFFFFFFDEF9FFFF23
:1004100010B5054C237833B9044B13B10448AFF33E
:1004200000800123237010BDAC10FF1F00000000EE
:10043000F82B010008B5064B1BB106480649AFF37F
:1004400000800648036813B1054B03B1984708BD07
:1004500000000000F82B0100B010FF1FAC10FF1FC0
:100460000000000038B505460C46C8B2022106F06F
:1004700027FC2C6038BD00BF10B50446FFF7F2FF23
:100480000A2363604FF47A73A3600023237501236A
:100490002361204610BD00BF08B5007806F002FCBD
:1004A000002814BF0020022008BD00BF30B583B073
:1004B0000446164B1B680093009D007806F0F2FB83
:1004C000E0B92369012B05D1104B1B680193019BF7
:1004D000E36010E0E0682D1A63689D420AD9237D2D
:1004E0002BB1A068854294BF0220032003E00120C5
:1004F000207500E000200023236104E00020E0607C
:1005000020750123236103B030BD00BFB836FF1F43
:10051000806C7047406C70472DE9F0410C460E46E8
:10052000CF18C1EB0208A01BBC4209D0B4F5805F14
:1005300006DA204606F0B4FA08F804000134F2E7BF
:10054000BDE8F081F8B50C460D46CE18571A601B71
:10055000B44208D0B4F5805F05DA2046395D06F074
:10056000B5FA0134F3E7F8BD10B504460D23036076
:10057000002102460423FFF7E5FF01462046221D25
:100580004023FFF7DFFF012010BD00BF036B013BDD
:10059000032B03D8DFE803F005080B0E0023836468
:1005A0000AE00223836407E00523836404E00A234E
:1005B000836401E0142383644369013B052B04D861
:1005C000DFE803F0070B0F13171A41F28833436477
:1005D000704742F210734364704743F698234364B4
:1005E000704747F23053436470474EF660234364CC
:1005F0007047034B43647047024B4364704700BF2E
:10060000C0D40100E0930400F8B506461746041D67
:100610000D460FCD0FC40FCD0FC40FCD0FC495E8FD
:100620000F0084E80F0027B13046FFF79DFF044616
:1006300000E001243046FFF7A9FF2046F8BD00BFC7
:1006400010B50446002102460423FFF765FF01466A
:1006500023680D2B09D12046221D4023FFF75CFFA4
:100660002046FFF793FF012010BD002010BD00BF02
:1006700010B5044603680D2B01D0FFF7E1FF201DE4
:1006800010BD00BF38B50446002140F8041B4022CD
:100690000BF0CEFA2046FFF7D3FFD8B900236360F2
:1006A000A360E3600A222261636104F118050A4A2B
:1006B00003CAA061696012782A72A362E3622363AD
:1006C0006363A363E36323642046FFF75FFF204671
:1006D000FFF74AFF204638BDB000010008B506F01C
:1006E0009BF908BD30B4034642F20C0144180022C5
:1006F000425000F50051086000F5805542F20401B7
:10070000455042F20801585042F21401425042F260
:100710001801425042F22801425442F21C01425058
:1007200042F220014254C823237130BC704700BFFD
:100730002DE9F04F89B004460591069207935FFAC0
:1007400081FB5846012106F0BBFA069AD2B201920B
:100750001046012106F0B4FA079BDBB2029318465B
:10076000012106F0ADFA129AD2B20392104601218D
:1007700006F0A6FA139B5FFA83FA5046012106F0B1
:100780009FFA149A5FFA82F94846012106F098FA16
:10079000159B5FFA83F84046012106F091FA169AFC
:1007A000D7B23846012106F08BFA179BDEB23046ED
:1007B000012106F085FA189AD5B22846012106F0E3
:1007C0007FFA199BDBB204931846012106F078FAF0
:1007D0005846002106F042FA0198002106F03EFA40
:1007E0000298002106F03AFA0398002106F036FA42
:1007F0005046002106F032FA4846002106F02EFA53
:100800004046002106F02AFA3846002106F026FA72
:100810003046002106F022FA2846002106F01EFA92
:100820000498002106F01AFA42F22C03059AE250CD
:1008300042F23003069AE25042F23403079AE25041
:1008400042F23803129AE25042F23C03139AE25009
:1008500004F50153149A1A6042F24403159AE250C7
:1008600042F24803169AE25042F24C03179AE250C1
:1008700042F25003189AE25042F25403199AE2509D
:1008800009B0BDE8F08F00BF08B5012242F228038D
:10089000C25400F500500C300249372207F056F9D7
:1008A00008BD00BF010F0000002242F22803C2541D
:1008B000704700BF3F299DBF42F21C03C150012079
:1008C0000020704702299DBF42F22003C15401203D
:1008D0000020704738B5044642F2040540594FF4F1
:1008E000805205F057FE04F50053196862591A60EA
:1008F000615138BD42F22403C15070472DE9F00F19
:1009000086B0804642F20803C35842F21802825869
:1009100003EBC2110291103203EBC212039242F2B6
:100920001403C35801279F40FFB242F22003C35C67
:10093000013343F3000C5FFA8CFC43F34003DEB257
:10094000002300F5005909F11C0900F50155143583
:10095000984A00F5005A0AF12C0ACDF814A000F5C7
:10096000005B0BF1300BCDF810B000F500503430C7
:1009700008F5005138310191D9F80010994240F042
:100980000A81DDF814A09AF8004052F834404FF084
:10099000010A84F880A0DDF808B01BF801403C4053
:1009A000DDF80CA01AF801103940D5F800A05FFA64
:1009B0008AFA52F83AA04FF0010B8AF800B1DDF83C
:1009C00010B0DBF800A014EA0C0F5FFA8AFA52F8B4
:1009D0003AA04FF0010B14BF8AF880B08AF800B13A
:1009E000D0F800A011EA0C0F5FFA8AFA52F83AA088
:1009F0004FF0010B14BF8AF880B08AF800B1DDF81F
:100A000004B0DBF800A034425FFA8AFA52F83A40A8
:100A10004FF0010A14BF84F880A084F800A142F2CC
:100A20003C0458F804403142E4B252F834104FF01C
:100A3000010414BF81F8804081F80041297852F800
:100A40003110012481F880402344802B94D142F25C
:100A5000500318F80320574B53F8323083F8804086
:100A600008F501531A6842F2180358F8033013F0DE
:100A7000010FD2B24F4B53F8323019BF224683F8E0
:100A80008020012283F8002142F2440358F8032019
:100A900042F2180358F8033013F0020FD2B2454B5C
:100AA00053F832304FF0010214BF83F8802083F8EE
:100AB000002142F2480358F8032042F2180358F884
:100AC000033013F0040FD2B23A4B53F832304FF0E8
:100AD000010214BF83F8802083F8002142F24C0306
:100AE00058F8032042F2180358F8033013F0080FA7
:100AF000D2B2304B53F832304FF0010214BF83F8BA
:100B0000802083F800212B4A42F2500318F803306A
:100B100052F83310012381F8003142F22C0118F809
:100B2000011052F8312082F8003142F2140358F8D3
:100B30000330022B06D0032B06D0012B0CBF022062
:100B4000012002E01E2000E02D2042F2180258F899
:100B500002200132102A04D042F2180348F8032080
:100B600024E0002142F2180248F802100133042B5D
:100B700004D042F2140248F8023017E0002242F298
:100B8000140348F8032008F500531A6842F20803DA
:100B900048F803200AE00299CC5C3C40DDF80CA048
:100BA0001AF803103940D5F800A000E706B0BDE8F8
:100BB000F00F7047642501002DE9F00F86B08046E4
:100BC00042F20803C35842F21802825803EBC211E2
:100BD0000291103203EBC212039242F21403C35883
:100BE00001279F40FFB242F22003C35C013343F36D
:100BF000000C5FFA8CFC43F34003DEB2002300F5E7
:100C0000005909F11C0900F5015514359E4A00F5FB
:100C100000542C34059400F5005A0AF1300ACDF83E
:100C200010A000F50050343008F5005B0BF1380BD4
:100C3000CDF804B0D9F80010994240F01081DDF8E9
:100C400014A09AF8004052F834404FF0010A84F89A
:100C500080A0DDF808B01BF80140274214BF002433
:100C60000124DDF80CA01AF801100F4214BF002176
:100C70000121D5F800A05FFA8AFA52F83AA04FF0A5
:100C8000010B8AF800B1DDF810B0DBF800A014EA1F
:100C90000C0F5FFA8AFA52F83AA04FF0010B14BF1A
:100CA0008AF880B08AF800B1D0F800A011EA0C0FE1
:100CB0005FFA8AFA52F83AA04FF0010B14BF8AF893
:100CC00080B08AF800B1DDF804B0DBF800A034424F
:100CD0005FFA8AFA52F83A404FF0010A14BF84F8DA
:100CE00080A084F800A142F23C0458F8044031424C
:100CF000E4B252F834104FF0010414BF81F8804080
:100D000081F80041297852F83110012481F880409F
:100D10002344802B8ED142F2500318F803205A4B03
:100D200053F8323083F8804008F501531A6842F2D4
:100D3000180358F8033013F0010FD2B2524B53F896
:100D4000323019BF224683F88020012283F8002127
:100D500042F2440358F8032042F2180358F80330D3
:100D600013F0020FD2B2484B53F832304FF0010269
:100D700014BF83F8802083F8002142F2480358F81A
:100D8000032042F2180358F8033013F0040FD2B2D4
:100D90003D4B53F832304FF0010214BF83F88020EE
:100DA00083F8002142F24C0358F8032042F2180362
:100DB00058F8033013F0080FD2B2334B53F83230E7
:100DC0004FF0010214BF83F8802083F800212E4ADF
:100DD00042F2500318F8033052F83310012381F81F
:100DE000003142F22C0118F8011052F8312082F83B
:100DF000003142F2140358F80330022B06D0032BC3
:100E000006D0012B0CBF0220012002E01E2000E0D2
:100E10002D2042F2180258F802200132102A04D084
:100E200042F2180348F803202AE0002142F2180297
:100E300048F802100133042B04D042F2140248F89F
:100E400002301DE0002242F2140348F8032008F5A6
:100E500000531A6842F2080348F8032010E0029C8D
:100E6000E15C0F4214BF00240124DDF80CA01AF845
:100E700003100F4214BF00210121D5F800A0FAE6AB
:100E800006B0BDE8F00F70476425010038B5044690
:100E900000F500550C35284606F0A2FE42F2240368
:100EA000E3581BB92046FFF729FD02E02046FFF773
:100EB00083FE42F22803E35C13F0FF0F10D00028FA
:100EC00017DB421E0B4B9A4213D8C0EBC000C20086
:100ED000013A232A0DD92846074906F037FE38BDC6
:100EE00042F22C03E25C054B53F83230012283F8C6
:100EF000802038BD27499204010F000064250100BD
:100F000008B50248FFF7C2FF08BD00BF6C11FF1F04
:100F100008B501F00F014FF480520AF089FE08BDB8
:100F200010B5044600F5805380221A60202241F259
:100F30000403C2500021FFF7EBFF204610BD00BFA5
:100F40002DE9F04F83B00F46164699460C9B02EBF5
:100F5000030A524527DA0F9B00EBC3100E9B034494
:100F6000C2EB030B0D9B09EB0308CDF8049014E0D2
:100F700038463146224601F051F808B1287804E09D
:100F800038463146224600F0A9FF05F8800B0134AF
:100F90004445EDDB0136564505DAC145FADA06EB84
:100FA0000B05019CE4E703B0BDE8F08F10B5054CDC
:100FB0002046FE2103F0FEF82046034903F026FAFE
:100FC00010BD00BFF833FF1F900801002DE9F0436A
:100FD000ADF58C5D85B0A34B1B6813F0010F0FD1ED
:100FE000A04805F0CFFD58B19F4C204602F0D4FF39
:100FF0009C4805F0CDFD20469C499D4A0AF0A0FA88
:101000009C4B1B6813F0010F0FD19A4805F0BAFDF5
:1010100058B1994C204601F033FB964805F0B8FDD5
:1010200020469649924A0AF08BFA954B1B6813F0BA
:10103000010F0CD1924805F0A5FD40B1914B1B6802
:101040000493049A904B1A608D4805F0A1FD57A8AF
:10105000FFF766FF07A800F011FF0BA800F00EFFD6
:10106000884B1B680593059D02F0F2FE04468748F5
:10107000FFF7FEFA4668076B854B1B883BB9FFF705
:1010800095FF002800F0B38002F0F2FEAFE0764852
:1010900002F0E4FF002840F0AA80DFF8F08140462B
:1010A000FFF736FA81464046FFF734FA794B18606D
:1010B000B9F1000F0DD0784B1B8893FBF9F209FBB7
:1010C0001239B9F1000F04DC7448754903F09EF938
:1010D00030BB87B9734BD3F800806D4B188806F08E
:1010E00065FE00EB400200EB820217A86E49424405
:1010F0000BF09AFA20E0684B1B88654A1288B3FB14
:10110000F2F102FB11339BB203EB430203EB8203C8
:10111000644A126817A864491A440BF085FA0BE078
:101120000DF15C0EDFF878C1BCE80F00AEE80F00EF
:10113000DCF80030AEF800300DF58B500430574924
:1011400017AA012303F0E4F8DFF81C810DF58B5298
:101150000832137888F804300DF58B520C3213687E
:10116000C8F808300DF58B521032137888F80C301F
:101170000DF58C53103353F81FED58689968C8F873
:101180000DE0C8F81100C8F815101B7B88F819305D
:101190000DF58C53103353F812ED58689968C8F860
:1011A0001AE0C8F81E00C8F822101B7B88F8263009
:1011B0000DF58C520C321368C8F828300DF58B50A1
:1011C000043002F0F7FE404602F048FF40B12A48E2
:1011D000414601F067FA30B900222D4B1A8002E037
:1011E00000222B4B1A802C4B1A8801321A802F4B6D
:1011F000A3FB052313F0200F05D120222C4B1A60EE
:10120000DFF8C48004E020222A4B1A60DFF8BC809B
:10121000012E0FD0022E5BD0204605F077F806464F
:10122000204605F089F803460FA8234932460BF003
:10123000FBF96EE0204605F071F8204B204A0928A2
:10124000D4BF91469946204605F068F806462046E8
:1012500005F072F800900FA81A494A4633460BF081
:10126000E3F956E06811FF1F2C11FF1FB53F000086
:101270006007FF1F5811FF1FE410FF1F9526000095
:101280002811FF1FB836FF1F2011FF1F2832FF1F34
:101290002411FF1F5C11FF1F1811FF1FF833FF1FE0
:1012A000B00801001411FF1FC4080100D34D6210E3
:1012B00084F00F4088F00F40D0080100A422010004
:1012C000A8080100DC08010098080100A00801003E
:1012D000204605F023F88F4B8F4A0928D4BF91464A
:1012E0009946204605F01AF80646204605F024F8EF
:1012F000044605F01FF9894B894A00280CBF1046A7
:101300001846009401900FA886494A4633460BF0D0
:101310008BF9854A128832B1844B1A68AA1A844B19
:101320001B689A4257D2834B18680BA90FAA4346F1
:1013300001F056F857A80021FFF7EAFD0BA800F0CE
:10134000E1FD06460BA800F0DFFD05460BA800F006
:10135000D9FD04460BA800F0D7FD00960195C4F115
:101360007F0303EBD3735B100293C0F11F0000EB0C
:10137000D0704010039057A80BA900221346FFF726
:10138000DFFD002F00F0818113A800F077FD17A882
:1013900069496A4B1A680BF047F9694813A917AAFB
:1013A000002301F01DF813A800F0C6FD13A800F0FB
:1013B000A9FD044613A800F0A7FD009401900023A6
:1013C0000293039357A813A91A46FFF7B9FD13A870
:1013D00000F058FE59E15B4B1B682BB95A4B1B6858
:1013E0000693069A574B1A60584B1B682BB1EC1AA0
:1013F000574801F095FA844218D9554801F03AFA55
:1014000088B9524B1B6813B9504B1D6006E0504819
:1014100001F086FA4D4B1A68104418604C484D494B
:1014200001F03AFA02E04B4802F00CFE494802F0A3
:1014300015FE002800F0EC80454801F08DFA0128E7
:1014400017D03C4B18680BA90FAA434600F0C8FF01
:101450000BA800F057FDC0F17F0000EBD0704610E4
:101460000BA800F051FDC0F11F0000EBD07045103B
:101470001FE000238DF8413037480BA90FAA4346DF
:1014800000F0AEFF324C204601F068FA05460BA88A
:1014900000F038FD00EBD070A5EB6006204601F0AF
:1014A0005FFA04460BA800F02FFD00EBD070A4EB10
:1014B0006005274C204601F031FA014607A800F0EC
:1014C00015FE204601F03AFA002847D10BA800F09B
:1014D00019FD04460BA800F017FD00940190029638
:1014E000039557A80BA900221346FFF729FD07A86B
:1014F00000F008FD044607A800F006FD00940190E6
:1015000000230293039357A807A91A46FFF718FD73
:1015100048E000BFA4220100A8080100AC080100B7
:10152000D4230100E80801002411FF1F2011FF1F30
:101530005C11FF1F1C11FF1FF40801006411FF1F45
:10154000F431FF1FE010FF1FB836FF1F6011FF1FAF
:10155000E410FF1F2C11FF1F8C32FF1F07A800F0A3
:10156000D1FC044607A800F0CFFC009401900024B1
:101570000294039457A807A922462346FFF7E0FCEC
:101580000BA800F0BFFC80460BA800F0BDFCCDF816
:10159000008001900296039557A80BA92246234686
:1015A000FFF7CEFC002F70D03F4802F057FD002817
:1015B0006BD017A800F062FC3B4802F001FD014629
:1015C00013A80BF0DFF913A82E210BF053F808B184
:1015D00000220270354817A913AA002300F000FF6B
:1015E00017A800F0A9FC17A800F08CFC044617A867
:1015F00000F08AFC0094019000230293039357A803
:1016000017A91A46FFF79CFC17A800F03BFD3CE029
:10161000274B1D600024274B1C60274B1B6817932A
:101620001799264B1A688A1A25490A601C60254BAF
:1016300018680BA90FAA434600F0D2FE57A821460E
:10164000FFF766FC0BA800F05DFC07460BA800F056
:101650005BFC06460BA800F055FC05460BA800F005
:1016600053FC00970196C5F17F0303EBD3735B1026
:101670000293C0F11F0000EBD0704010039057A8F8
:101680000BA922462346FFF75BFC0F4857A9FFF73B
:1016900021F90BA800F0F6FC07A800F0F3FC0DF50B
:1016A0008C5D05B0BDE8F0832C11FF1FF431FF1FE6
:1016B0002011FF1F6011FF1FB836FF1FE010FF1F32
:1016C0006411FF1F1C11FF1F6C11FF1F70B58CB040
:1016D00001A82C492C4A012302F01AFE01A802F0AD
:1016E000BDFC002849D0294B186830B109F068FFCB
:1016F0000023274A1380254A136001A802F016FF31
:10170000244D224E01A802F0EBFE044640B32946C8
:101710000BF02AF80028F5D0306838B901221C4BAC
:101720001A800D2009F044FF30600BE0184A13883E
:1017300001339BB2138003EB430103EB81010AF0F9
:1017400073FD3060124B1B8803EB430003EB8003F7
:10175000A3F10D003268104421460BF013F9D1E7D4
:101760000A4B186830B10A4B198819B10D220A4B7F
:101770000AF0ACFA01A802F065FC01A802F01AFC1C
:101780000CB070BDF833FF1F900801001411FF1F4B
:101790002411FF1FF808010069C7000010B59AB0B6
:1017A0003748384902F032FE002864D0364B1C68B6
:1017B00044B1204600F0B4FE204606F013FB0022A0
:1017C000314B1A603148FEF753FF143030490AF0AC
:1017D000CBFF00284BD004A829492A4A012302F054
:1017E00097FD04A802F03AFC002839D0274C0FA836
:1017F00004A9012202F016FE0FA802F02FFCF8B196
:101800000FA8694600F042FD2046FEF731FF143074
:1018100069460AF0A9FF60B9182006F0DBFA044611
:1018200000F0DAFC184B1C6020460FA900F094FE73
:1018300006E00FA802F006FC0FA802F0BBFBD6E7FB
:101840000FA802F0B7FB104B1B6813B1114A1360CD
:1018500002E0114A0F4B1A6004A802F0F3FB02E009
:101860000D4A0C4B1A6004A802F0A4FB06E00A4AD9
:10187000084B1A6002E0084A064B1A601AB010BD05
:10188000F833FF1F040901001011FF1F2832FF1F4A
:10189000B00001001C11FF1FC810FF1FF8B502F0B7
:1018A000D7FA05466648FEF7E3FEC46B654B1B7826
:1018B000A3B1284604F02AFD0646204604F026FD82
:1018C00086420BD1284604F037FD0646204604F038
:1018D00033FD864202D100225A4B1A705A4B1B68C4
:1018E000013B032B00F2A780DFE803F04D02586AAA
:1018F0005648FEF7DBFD032806D10322524B1A603F
:101900005348FEF7D1FFF8BD5248FEF7CFFD01283E
:1019100004D14D4B186001F01BFDF8BD4848FEF79F
:10192000A7FE866B474B1B7853BB204604F0EEFCAA
:101930000746304604F0EAFC874208D1204604F00E
:10194000FBFC0446304604F0F7FC844218D02846DD
:1019500004F0DCFC0446304604F0D8FC84420FD18D
:10196000284604F0E9FC0446304604F0E5FC8442D5
:1019700006D10422344B1A603548FEF795FFF8BDB6
:10198000FFF724FBF8BD002001F0E2FC002855D150
:1019900002222D4B1A60FFF701FFF8BD2B48FEF71E
:1019A00085FD01284AD1294C2046FEF77FFD0028FD
:1019B000FAD10222244B1A602548FEF765FFF8BDD4
:1019C00002F046FA05461E48FEF752FEC46B214857
:1019D000FEF76CFD01280ED01F48FEF767FD0128B9
:1019E00009D01E48FEF762FD012804D01748FEF713
:1019F0005DFD012803D10122124B1A7014E0114B36
:101A00001B788BB9284604F081FC0646204604F07A
:101A10007DFC864212D1284604F08EFC0546204605
:101A200004F08AFC854209D10222074B1A6008485B
:101A3000FEF72AFFF8BD0222034B1A60F8BD00BF73
:101A40002832FF1F0C32FF1F6407FF1FDC31FF1F0E
:101A50006C11FF1F7432FF1F1032FF1FC431FF1FB4
:101A60002DE9F041ADF5825D82B010A8FFF758FA7C
:101A700007A800F003FA4B4B1B680593059D0BA8C4
:101A800049494A4A0AF0D0FD494C204607A90BAA09
:101A9000002300F0A5FC07A800F034FA804607A850
:101AA00000F032FA074607A800F02CFA064607A80D
:101AB00000F02AFACDF800800197C6F1800303EB0D
:101AC000D3735B100293C0F10F00039010A807A915
:101AD00000221346FFF734FA3648FEF7C9FD826A42
:101AE0000BA835490AF0A0FD204607A90BAA002340
:101AF00000F076FC07A800F005FA064607A800F0FB
:101B000003FA044607A800F0FDF900960194C0F11D
:101B1000800000EBD070401002901123039310A8B6
:101B200007A900221346FFF70BFA244810A9FEF775
:101B3000D1FE234804F010FD3C2004F01DFD64207C
:101B400005F022F904F000FD02281E4C23685B68B2
:101B5000204614BF1C491D491B229847204606F009
:101B600099F81448FEF784FD806805F04BF8FFF7FC
:101B70001DFA08B1FFF7AAFDFFF710FE094B1B681D
:101B800006930698401BB0F5FA6F03D2C0F5FA60D1
:101B900005F0FAF807A800F075FA0DF5825D02B0BD
:101BA000BDE8F081B836FF1F0C09010018090100DB
:101BB000F431FF1F2832FF1F200901006C11FF1FA5
:101BC000813E0000B837FF1F300901004C090100B9
:101BD00030B591B01A48FEF74BFD6C4605460FCD67
:101BE0000FC40FCD0FC40FCD0FC495E80F0084E8CC
:101BF0000F001448FEF750FC022807D100230A9377
:101C00000F4869460122FEF7FFFC0AE00E48FEF786
:101C100043FC022805D101220A9209486946FEF7D1
:101C2000F3FC084C084D2046FEF736FC0228FAD09B
:101C30002846FEF731FC0228F5D011B030BD00BFB8
:101C40002832FF1F7432FF1FC431FF1F10B5ADF5DE
:101C5000805D82B06846FFF763F90E48FEF71CFC12
:101C6000022813D168460F21FFF752F90A48694646
:101C7000FEF730FE074C2046FEF70EFC0228FAD095
:101C8000044C2046FEF712FC0128FAD10DF5805DC8
:101C900002B010BDDC31FF1F6C11FF1F2DE9F041B8
:101CA0008CB008A800F0EAF8202004F01BFE06F033
:101CB00047F85A4B1C1F03F110080027012654F85F
:101CC000045FEDB22846394604F0C8FF2846314685
:101CD00004F0F6FF4445F2D10D20012104F0F0FF9D
:101CE0004F4D2846FEF7C4FC406B003018BF012062
:101CF00002F082F8FFF76CFF08A84FF40D7107227D
:101D000000F0C6F908A8474940F2B67200F0BEF8E4
:101D100008A8454940F2F11200F0C4F8434C2046AF
:101D20005E2108AA00F006FC204641494FF4EB7200
:101D300000F05AFA08A840F25F110B2200F0A8F94F
:101D400008A83C494FF4F26200F0A0F808A83A490C
:101D50004FF4F27200F0A6F8384C20462C2108AA65
:101D600000F0E8FB20463649DC2200F03DFA08A8E6
:101D7000CA21152200F08CF908A8324940F6490220
:101D800000F084F808A8304940F2222200F08AF8D6
:101D90002E4C20460F2108AA00F0CCFB20462C49EF
:101DA0004B2200F021FA2846FEF762FC294C816A9A
:101DB0002046FEF79FFD0323009302230193072390
:101DC000029306230393052304930423059301231D
:101DD0000693002307932046132114221523FEF7B0
:101DE000A7FC2846FEF744FCC1682046FEF762FDCA
:101DF0002846FEF73DFC90F824102046FEF762FDD1
:101E00002046FEF741FDFFF72BFEFFF71FFF08A856
:101E100000F038F90CB0BDE8F08100BFFC11010002
:101E20002832FF1F68090100BC000100F431FF1FC8
:101E300094040100A81A0100B00201008C32FF1FB7
:101E400020110100101201006C060100C810FF1FD4
:101E50005C1A01006C11FF1F10B5054C204600F004
:101E6000BBF920460349044A09F06AFB10BD00BFD4
:101E7000C810FF1F212500006007FF1F002202601D
:101E80004260028142818281C281704710B583899C
:101E9000448904FB03F39A4202D1006804F07AFB00
:101EA000002010BD10B5C389448904FB03F39A4296
:101EB0000AD0084C23685B682046074916229847D9
:101EC000204605F0E7FE02E0406804F063FB0020D6
:101ED00010BD00BFB837FF1F3822010010B401EB5E
:101EE000D173848902FB04F2006800EB6303985C01
:101EF00011F0010F14BF000900F00F005DF8044B52
:101F0000704700BF008970474089704708B58389D2
:101F10004289006861F31F1102FB03F209F088FE99
:101F200008BD00BF08B5838942890068002102FB13
:101F300003F209F07DFE08BD08B5C38942894068F7
:101F4000002102FB03F209F073FE08BD00290ADB41
:101F5000002A0ADB0389994209DA40898242ACBF30
:101F600000200120704700207047002070470020AB
:101F7000704700BFF8B505460C4617461E46FFF7EA
:101F8000E5FFB8B104EBD472AB8907FB03F707EBAD
:101F9000620229688B5C14F0010F05D003F00F0377
:101FA00043EA0616F6B204E023F00F0306F00F062C
:101FB0001E438E54F8BD00BFF8B505460C461746C3
:101FC0001E46FFF7C3FF28B32346002CB8BFE31D0E
:101FD000EA8907FB02F202EBE30269688B5C66B1F7
:101FE0000D48044003D5013C64F00704013401208E
:101FF00000FA04F41C43E4B20BE00748044003D5A4
:10200000013C64F007040134012000FA04F423EADF
:1020100004048C54F8BD00BF0700008070B505466D
:102020000C461646FFF792FFD0B16B68D3B122463B
:10203000002CB8BFE21DE98906FB01F603EBE203C1
:1020400009490C4003D5013C64F007040134012226
:1020500002FA04F49B5D23420CBF0020012070BDF6
:10206000012070BD012070BD0700008010B504463E
:10207000006808B105F0BAFE606808B105F0B6FE68
:1020800010BD00BF10B50446FFF7F0FF204610BD9D
:1020900070B504460D461646FFF7E8FF05F001034C
:1020A00005EBD57003EB600080B2A08115F007034B
:1020B00018BF01232A46002DB8BFEA1D03EBE20337
:1020C000E3812581668106FB00F005F087FE206034
:1020D000E08906FB00F005F081FE60602046FFF716
:1020E00021FF2046FFF728FF70BD00BF38B504462A
:1020F0000D4609896A89FFF7CBFF296811B90023CA
:10210000236007E06389A28902FB03F2204692B2B2
:10211000FFF7BCFE696811B90023636007E06389BB
:10212000E28902FB03F2204692B2FFF7BBFE204693
:1021300038BD00BF70B582B006460C4608466946F9
:10214000022201F049FF054620460DF1020102225C
:1021500001F042FF0028A8BF002DB4BF00250125D3
:10216000204601A9022201F037FF0028B4BF002554
:1021700005F0010520460DF10601022201F02CFFB9
:102180000028B4BF002505F0010515B33046BDF8A1
:102190000010BDF80220FFF77BFF7389B28902FBB4
:1021A00003F22046316892B201F016FFC543ED0FED
:1021B000BDF806306BB17389F28902FB03F2204649
:1021C000716892B201F008FF0028B4BF002505F045
:1021D0000105284602B070BD10B50446FFF74EFE5B
:1021E00000232361204610BD38B51546838A03EBD2
:1021F00083039A420FD00A4C23685B682046094942
:102200000E2298472046294605F090FD204605F00D
:1022100041FD002038BD006904F0BCF9012038BD43
:10222000B837FF1F5022010070B596B068461549B7
:10223000154A012302F06CF8684601F00FFFD0B197
:1022400000240126E5B20BA86946324602F0EAF8FE
:102250000BA801F003FF013430B10BA801F0F2FE2E
:102260000BA801F0A7FEEDE70BA801F0A3FE68465E
:1022700001F0E8FE00E00025684601F09BFE2846DC
:1022800016B070BDF833FF1F0409010030B583B0EC
:1022900004460D46002101F0A7FE20460DF106017F
:1022A000022201F099FE20460DF10501012201F004
:1022B00093FE9DF8052001320D2AA8BF0D22D2B24F
:1022C0008DF805202046294601F086FE9DF8050080
:1022D0000544002305F8013C03B030BD10B4828AE8
:1022E000B2B1006903788B4208D104E0184613F8B4
:1022F000052B8A4208D1B0F801000AE0431D013ADB
:1023000094B204EB84041C44A342EFD1002000E00B
:1023100000205DF8044B704730B4848ABCB1026978
:1023200013788B4215D0531D013CA5B205EB8505F2
:102330001D44002004E01A4613F8054B8C4209D0D6
:10234000B2F80120104480B2AB42F4D102E0002088
:1023500000E0002030BC704710B4828AB2B100693E
:1023600003788B4208D104E0184613F8052B8A4203
:1023700008D1B0F803000AE0431D013A94B204EB1F
:1023800084041C44A342EFD1002000E000205DF84B
:10239000044B70472DE9F8430746884608460AF083
:1023A0004FFB00F1FF39002426460CE018F80450DA
:1023B00038462946FFF792FF064438462946FFF77C
:1023C000CBFF361A01344C45F0DB29EAE97938466F
:1023D00018F80910FFF782FF3044BDE8F88300BF0A
:1023E0002DE9F04F8BB006908B4607921F461146A1
:1023F000FFF7D0FF0446DDF818904846FFF784FD4C
:10240000024658462146FFF743FE002205929246B7
:10241000089275E0059B0093079AD45C06982146C4
:10242000FFF75CFF0990804606982146FFF774FF8E
:10243000029000268044089B0393049045E097B1E6
:10244000009ABB5C2D2B0ED1584621463246002304
:10245000FFF790FDA24533DC584621463246012362
:10246000FFF7AAFD2CE0484629463246FFF736FD25
:102470000346584621463246FFF77CFDA24514DD4F
:10248000484629463246FFF7C9FD01905846214685
:102490003246FFF7C3FD019A00EA0203584621467F
:1024A0003246DBB2FFF788FD0AE04846294632464D
:1024B000FFF7B4FD0346584621463246FFF77CFD40
:1024C000013501344545BADB01364846FFF71CFDAE
:1024D000864205DA029B4345F6DA039C049DAEE78B
:1024E000DDF820A0099A92440698079A009BD15CD7
:1024F000FFF732FFC0EB0A000890059B01330593FC
:1025000007980AF09DFA059A824283DB58460BB081
:10251000BDE8F08F08B5006908B105F067FC08BD9B
:1025200010B50446FFF7F6FF2046FFF7ABFD204647
:1025300010BD00BF70B504460D461646FFF7EAFF12
:1025400020463146FFF7D2FDA58205EB850005F058
:1025500045FC206170BD00BF30B5C3B005460C46D8
:102560000846002101F040FD204601A9022201F0A9
:1025700033FD20460DF10301012201F02DFD02A8DB
:1025800000214FF4807209F053FB204602A99DF808
:10259000032001F021FD20460DF10601022201F089
:1025A0001BFD2846FFF7B6FFBDF8060000EB8000D4
:1025B00005F014FC01462861BDF8062002EB8202FA
:1025C000204692B201F008FD28462146FFF7B2FDF1
:1025D000BDF80630AB8243B030BD00BF10B5044635
:1025E00000F500500C3005F0FBFA204610BD00BF8E
:1025F00070B5184D2846FEF775F8174C2846174950
:10260000224608F09DFF1648FEF73CF815481E21AB
:10261000FDF732FF14481C21FDF72EFF13481D2142
:10262000FDF72AFF12481B21FDF726FF114E304609
:10263000FFF7D2FD104D30462946224608F080FFB4
:102640000E4E3046FFF7C8FD30462946224608F0B8
:1026500077FF70BD6C11FF1F6007FF1FDD250000B5
:102660002832FF1F7432FF1F1032FF1FC431FF1FBB
:10267000DC31FF1FF431FF1F212500008C32FF1FCA
:1026800010B504461C30FFF7F9FB00232382638258
:10269000204610BD10B504461C30FFF7F3FC204661
:1026A00010BD00BF2DE9F04F93B083460E4608469B
:1026B0000DF12E01022201F08FFC044630460CA9D8
:1026C000022201F089FC0028A8BF002CB4BF00241E
:1026D000012430460DF13201022201F07DFC002878
:1026E000B4BF002404F001040094002C00F0A98081
:1026F000BDF83230002B00F0A4804FF00009022515
:102700000BEB050208920BF104030993304659467E
:102710002A4601F061FC0190304608992A4601F0F2
:102720005BFC8246304609992A4601F055FC02902E
:1027300030460BF106012A4601F04EFC039030466C
:102740000BF108012A4601F047FC049030460BF1DA
:102750000A012A4601F040FC059030460BF10C01BD
:102760002A4601F039FC069030460BF10E012A464C
:1027700001F032FC079030460BF11401012201F008
:102780002BFC804630460BF11501012201F024FCA0
:10279000074630460BF11601012201F01DFC0446EC
:1027A00030460DA9112201F017FC019ABAF1000F71
:1027B000A8BF002AB4BF00230123029A002AB4BF95
:1027C000002303F00103039A002AB4BF002303F09F
:1027D0000103049A002AB4BF002303F00103059A01
:1027E000002AB4BF002303F00103069A002AB4BFF5
:1027F000002303F00103079A002AB4BF002303F06B
:102800000103B8F1000FB4BF4FF0000803F0010856
:10281000002FB4BF002708F00107002CB4BF00242C
:1028200007F001040028B4BF002004F00100009B61
:102830000340009309F10109BDF832304B453FF7E1
:1028400065AFBBF80030003318BF0123ABF8183078
:10285000BBF80A30003318BF0123ABF81A30BDF8BB
:102860003030ABF810300023ABF81230009813B0C2
:10287000BDE8F08F428A038A9A4208D1408B03B2A6
:10288000032B06D0D3F1010038BF00207047002091
:1028900070470120704700BF10B50446B0F91830EA
:1028A000012B0CBF022303230383428A038A9A422B
:1028B00006D1B0F91A0001280CBF02200320608362
:1028C000B4F9180002280BD1A088012808D11C34C3
:1028D0002046FFF727FB2046FFF72EFB012010BD07
:1028E0009A4207D204F11C00FFF724FC638A0133EB
:1028F000638210BDB4F91A30022B0BD1E389012B8E
:102900000AD11C342046FFF70DFB2046FFF714FBCD
:10291000012010BD002010BD002010BD1C307047EC
:10292000B0F91830022B01D100887047B0F91A3085
:10293000022B0CBF4089C088704700BFB0F9183027
:10294000022B01D140887047438B023B9BB2012B85
:1029500094BF808900897047007D7047407D704733
:10296000807D704710B504464368002B03DD806806
:1029700008B105F03BFA204610BD00BF10B5044673
:102980004368002B03DD806808B105F02FFA20466C
:1029900010BD00BF10B504464368002B03DD8068FE
:1029A00008B105F023FA204610BD00BF10B504465B
:1029B0004368002B03DD806808B105F017FA204654
:1029C00010BD00BF10B504464368002B03DD8068CE
:1029D00008B105F00BFA204610BD00BF10B5044643
:1029E0004368002B03DD806808B105F0FFF920463D
:1029F00010BD00BF10B504464368002B03DD80689E
:102A000008B105F0F3F9204610BD00BF10B504462B
:102A10004368002B03DD806808B105F0E7F9204624
:102A200010BD00BF08B5C1B20148FDF74BFF08BD9E
:102A30006C11FF1F2DE9F04389B004460E4604A82F
:102A4000FFF71CFA04A81C210922FFF721FB04A8A8
:102A50000121FFF75BFA04A8FFF754FA054604A822
:102A6000FFF752FA00950190022302931725039570
:102A7000204604A900221346FEF762FA04A8FFF7D5
:102A800041FA074604A8FFF73FFA00970190222376
:102A900002930395204604A900221346FEF750FA3C
:102AA00004A8FFF72FFA074604A8FFF72DFA0097AE
:102AB0000190422302930395204604A90022134665
:102AC000FEF73EFA04A8FFF71DFA074604A8FFF731
:102AD0001BFA00970190622302930395204604A9F4
:102AE00000221346FEF72CFA484F384604A93268F4
:102AF0000023FFF775FC04A8FFF704FA804604A83A
:102B0000FFF702FA054604A8FFF7FCF9CDF80080AC
:102B10000195C0F11C0000EBD07040100230029013
:102B200018250395204604A900221346FEF708FA4B
:102B3000384604A972680023FFF752FC04A8FFF787
:102B4000E1F9814604A8FFF7DFF9804604A8FFF702
:102B5000D9F9CDF80090CDF80480C0F11C0000EB4D
:102B6000D0704010223002900395204604A9002224
:102B70001346FEF7E5F9384604A9B2680023FFF7CB
:102B80002FFC04A8FFF7BEF9814604A8FFF7BCF9A3
:102B9000804604A8FFF7B6F9CDF80090CDF8048080
:102BA000C0F11C0000EBD070401042300290039541
:102BB000204604A900221346FEF7C2F9384604A9AC
:102BC000F2680023FFF70CFC04A8FFF79BF9074607
:102BD00004A8FFF799F9064604A8FFF793F90097B0
:102BE0000196C0F11C0000EBD070401062300290E2
:102BF0000395204604A900221346FEF7A1F904A874
:102C0000FFF740FA09B0BDE8F08300BFF431FF1FC1
:102C10002DE9F0438BB005460E4606A8FFF72EF9C6
:102C200001F016F9804606A880210922FFF730FA44
:102C300006A80121FFF76AF906A8FFF763F9044621
:102C400006A8FFF761F90094019000240294039410
:102C5000284606A922462346FEF772F9244F384635
:102C600006A932462346FFF7BBFB06A8FFF74AF941
:102C7000064606A8FFF748F900960190012602963D
:102C80000396284606A922462346FEF759F94046F0
:102C900003F03CFB8146404603F04EFB034604A88C
:102CA00014494A4609F0C0FC384606A904AA23463E
:102CB000FFF796FB06A8FFF725F9804606A8FFF761
:102CC00023F9074606A8FFF71DF9CDF80080019704
:102CD000C0F1800002900396284606A922462346AA
:102CE000FEF72EF906A8FFF7CDF90BB0BDE8F0838B
:102CF000F431FF1FD00801002DE9F04790B00546E0
:102D00000F4691469A4608A8FFF7B8F8424C94E857
:102D10000F0010AC04E90F004048FDF7C7FB044664
:102D20003F48FDF7C3FB80463E48FDF7BFFB064624
:102D30003D48FDF7BBFBB9F1000F03D0DAF80030D6
:102D40003A490B6028F00208B8F1010F0CD1374B5B
:102D50001B680133B3F57A7F02DA34490B6003E074
:102D600040F2E731314B196026F00206012E0BD1FB
:102D70002E4B1B68013B13F57A7F02DD2B490B605C
:102D800002E02B49294B1960012805D0012C14BF02
:102D900000246FF0000404E0244B1B68CAF80030E4
:102DA000012428462349FFF733FF234B234E002FEE
:102DB00018BF1E4605A822491C4B1A6809F034FCAE
:102DC000204808A905AA3346FFF70AFB08A8FFF721
:102DD00099F8074608A8FFF797F8064608A8FFF7EE
:102DE00091F800970196C0F1800000EBD0735B1062
:102DF00002930B230393284608A900221346FEF7EB
:102E00009FF828460CA9FFF715FE08A8FFF73AF926
:102E1000204610B0BDE8F087602201007432FF1F29
:102E20001032FF1FC431FF1FDC31FF1F8433FF1F2F
:102E300019FCFFFFA8220100902201009C22010042
:102E4000B82201008C32FF1F2DE9F04F89B00546F2
:102E50000C4616469A4604A8FFF710F85A48FDF7A4
:102E600025FB83465948FDF721FB81465848FDF76D
:102E70001DFB80465748FDF719FB07461EB1DAF8DF
:102E80000030554A1360B9F1010F0BD1524B18684D
:102E90006368013B834205DD01304F4B1860129B94
:102EA00003B19847B8F1010F08D14B4B18680028BF
:102EB00004DD01381860129B03B19847012F06D03A
:102EC000BBF1010F14BF00266FF0000604E0424B77
:102ED0001B68CAF80030012628462168FFF798FED3
:102EE0003D4B1B68002B17DD3C4804A93C4A0023DE
:102EF000FFF776FA04A8FFF705F8074604A8FFF7DE
:102F000003F800970190002302930B2203922846B6
:102F100004A91A46FEF714F86368013B2E4A1268AA
:102F200093421EDD2D4804A92E4A0023FFF758FACC
:102F300004A8FEF7E7FF804604A8FEF7E5FF074672
:102F400004A8FEF7DFFFCDF800800197C0F18000F4
:102F500002900B230393284604A900221346FDF791
:102F6000EFFF1D4B1A68A3681C4804A953F82220E0
:102F70000023FFF735FA04A8FEF7C4FF804604A833
:102F8000FEF7C2FF074604A8FEF7BCFFCDF800809D
:102F90000197C0F1800000EBD0735B1002930B230C
:102FA0000393284604A900221346FDF7C9FF2846CB
:102FB00004F10C01FFF73EFD04A8FFF763F830466B
:102FC00009B0BDE8F08F00BF7432FF1F1032FF1F41
:102FD000C431FF1FDC31FF1FC832FF1F8C32FF1FBF
:102FE000C0220100C42201002DE9F04F91B0054636
:102FF000884616461F4608A8FEF740FF614C94E835
:103000000F0010AC04E90F005F48FDF74FFA83464C
:103010005E48FDF74BFA82465D48FDF747FA814668
:103020005C48FDF743FA04463FB11A9B18685A49B9
:1030300003F098F80022594B1A60BBF1010F14BF3E
:1030400000276FF000072AF0020ABAF1010F1BD126
:10305000524B1B6863B9504B9B780133DBB2172B83
:1030600002D84D4A93700FE000224B4B9A700BE050
:10307000494B5B780133DBB23B2B02D8464A537095
:1030800002E00022444B5A7029F00209B9F1010F05
:103090001BD1424B1B6863B93F4B9B78013BDBB2B2
:1030A000172B02D83C4A93700FE017223A4B9A70C4
:1030B0000BE0394B5B78013BDBB23B2B02D8364A45
:1030C000537002E03B22344B5A70012C0ED1334B2B
:1030D0001B681BB90122314B1A6007E02E48002300
:1030E000037003F03DF91A9C2060012728464146F1
:1030F000FFF78EFD1EB92A4EDFF8BC8001E0294E95
:10310000B046254C05A82849A278637809F08CFAC6
:10311000224B1B68254808A905AA002B14BF43466B
:103120003346FFF75DF908A8FEF7ECFE064608A84F
:10313000FEF7EAFE044608A8FEF7E4FE00960194B6
:10314000C0F1800000EBD0735B1002930B2303935C
:10315000284608A900221346FDF7F2FE0F4B196816
:10316000134A144B002908BF13460F9328460CA995
:10317000FFF760FC08A8FEF785FF384611B0BDE8F0
:10318000F08F00BF702201007432FF1F1032FF1F4A
:10319000C431FF1FDC31FF1FA433FF1F6433FF1F47
:1031A000D0220100C8220100F02201008C32FF1F52
:1031B000E0220100E8220100D82201002DE9F047B9
:1031C0008CB004468A46164604A8FEF757FE584BB4
:1031D0000FCB0CAD05E90F005648FDF767F9054622
:1031E0005548FDF763F981465448FDF75FF980467D
:1031F0005348FDF75BF90746BAF1000F02D0336878
:10320000504A1360012D05D14F483168FDF752FB3C
:10321000002500E0012529F00209B9F1010F08D1CC
:10322000484B19683E2904DC013119604648FDF716
:1032300041FB28F00208B8F1010F08D1414B196891
:10324000002904DD013919603F48FDF733FB012FE8
:1032500003D13C4B1B683360002520463B49FFF7F8
:10326000D7FC04A844210822FEF712FF04A8052178
:10327000FEF74CFE04A8FEF745FE064604A8FEF73E
:1032800043FE009601901E2302930C2303932046D5
:1032900004A900221346FDF753FE04A8422106228A
:1032A000FEF7F6FE04A80021FEF730FE04A8FEF7A4
:1032B00029FE064604A8FEF727FE009601901F236C
:1032C00002930D230393204604A900221346FDF721
:1032D00037FE04A840210422FEF7DAFE04A80F21DD
:1032E000FEF714FE04A8FEF70DFE0028B8BF3F301D
:1032F0008311144A166806FB033604A8FEF704FE81
:1033000000960190202302930E230393204604A9E4
:1033100000221346FDF714FE204608A9FFF78AFB9A
:1033200004A8FEF7AFFE28460CB0BDE8F08700BF4A
:10333000802201007432FF1F1032FF1FC431FF1FB3
:10334000DC31FF1FCC32FF1F6C11FF1FFC2201007C
:103350002DE9F043ADF5835D85B004461AA8FDF76D
:10336000DFFD002C00F0CF809E48FDF781F99E4CD8
:1033700005460FCD0FC40FCD0FC40FCD0FC495E878
:103380000F0084E80F000022984B1A60984B1C68CD
:10339000002C00F071836368934203DDA06808B1DC
:1033A00004F024FD204604F01DFDFEF73DFF81469C
:1033B000904B186820B104F019FD00228D4B1A6063
:1033C000B9F11C6F9ABF09EB490009EB80004FF07F
:1033D000FF3004F003FD874B186004A88649874A34
:1033E000012300F095FF04A800F038FE00284CD01F
:1033F00000227E4B1A60914536DD09F10108144622
:1034000001257F4F0FA804A9012201F00BF80FA896
:1034100000F024FE88B1774E31680FA82144FEF7F2
:1034200035FF0FA800F00EFE31683846214409F040
:103430009BF990B96D4B1D600FE000266B4B1E6031
:103440000FA800F0B7FD04A800F0FCFD1C2004F05C
:10345000C1FC04460120054620E00FA800F0AAFDAB
:1034600001350D344545CDD104A800F0EBFD1C20FD
:1034700004F0B0FC04464E4609F101052846B5F1BA
:10348000FE5F0BD94FF0FF3009E00026574B1E605E
:103490001C2004F09FFC044601200546800004F037
:1034A0009DFCA0606560524B1C60564A22601B6800
:1034B0009B68554A1A60002E10DD06EB460306EBAA
:1034C0008306002304224A4D4A4C296888682168F3
:1034D0001944815004320D33B342F6D1444B1B687A
:1034E0004A4ADA604A4A1A614A4A5A614A4A9A6121
:1034F00000224A4B1A600123494A1370494A13704B
:1035000004A800F057FD464B1B78002B00F0E48028
:10351000444C2278002500951AA843493F4BFFF7F9
:1035200093FC2570002800F08982B0F1FF3F00F085
:103530008782012222703A4B1D70384B1B680C2B7E
:1035400000F2C680DFE803F00719232D354180879C
:10355000919CA6B0BA0000F07BFC344B18602F4A57
:103560001168314A926852F8211000931AA800227B
:103570000123FFF739FD012487E2002300931AA8F5
:103580002B490122184BFFF75FFC01247DE2002349
:1035900000931AA827490122274BFFF755FC012465
:1035A00073E21AA800210122244BFFF7A5FB012496
:1035B0006BE21D4B9B681969214B00931AA80022EE
:1035C0000123FFF711FD01245FE2174B9B68596946
:1035D0001C4B00931AA800220123FFF705FD0124CC
:1035E00053E200BF2832FF1FEC32FF1FC833FF1F1A
:1035F000C432FF1FC032FF1FF833FF1F0409010050
:103600000033FF1F08230100B00001001423010054
:103610001C230100E0220100E8220100F433FF1F17
:10362000F033FF1FE833FF1F4833FF1FEC33FF1F4A
:10363000A432FF1F8833FF1FF032FF1FF432FF1F39
:103640002433FF1F2833FF1F1AA801219D4AFFF7CB
:10365000B5FD012419E2002300931AA89A4901221A
:103660009A4BFFF7F1FB01240FE2994B19680023F5
:1036700000931AA80122974BFFF7E6FB012404E20E
:10368000002300931AA894490122944BFFF7DCFB16
:103690000124FAE1002300931AA891490122914BD9
:1036A000FFF7D2FB0124F0E1002300931AA88E4912
:1036B00001228E4BFFF7C8FB0124E6E100230093B3
:1036C0001AA88B4901228B4BFFF7BEFB0124DCE1DA
:1036D0000124894B1C70D8E1884B1B680C2B00F22D
:1036E000A981DFE813F00D0038004D006200820070
:1036F000A500C800D9002701490165018001940196
:103700007F4B9B6819687F4B1B680293029A7E4B24
:10371000A3FB02027D4B00931AA8C2F340120023C0
:10372000FFF762FC002800F08D8101280FD1784B53
:103730001B68012B04D1754B1A68A2F561621A60EF
:10374000724C206802F088FE206803F04BFA0124D6
:10375000694B1C7099E1002200921AA86D496C4BCC
:10376000FFF772FB002800F06F81012804D16A483E
:1037700067490122FCF748FF01245F4B1C7084E17C
:10378000002200921AA86549654BFFF75DFB0028EF
:1037900000F05C81012804D15F485D490122FCF7FB
:1037A00033FF0124544B1C706FE1564B1B6803938D
:1037B0000399554BA3FB01211AA8C1F34011002224
:1037C000584BFFF799FA002800F04281012808D1F0
:1037D0004F4C514821460122FCF716FFA06803F028
:1037E00011FA0124444B1C704FE1454B9B68196949
:1037F000444B1B680493049A434BA3FB02024A4BBD
:1038000000931AA8C2F340120023FFF7EDFB002833
:1038100000F02081012807D13F483D490122FCF7F3
:10382000F3FE0022414B1A700124334B1C702CE133
:10383000334B9B685969334B1B680F930F9A324B7C
:10384000A3FB02023A4B00931AA8C2F340120023D2
:10385000FFF7CAFB002800F0FF80012807D12E489F
:103860002B490122FCF7D0FE0022304B1A700124B4
:10387000214B1C7009E11AA80021124AFFF79EFC97
:10388000002840F0EB80244821490122FCF7BCFECF
:103890000124194B1C70F8E0002200921AA80A4972
:1038A0000A4BFFF7D1FA002800F0DA80012804D192
:1038B000194817490122FCF7A7FE01240E4B1C7082
:1038C000E3E000BFF832FF1FAC33FF1FFC32FF1FE5
:1038D000C432FF1FC833FF1FCC33FF1F1033FF1F3D
:1038E0002C33FF1F2033FF1F6833FF1F1833FF1FC8
:1038F000D032FF1F1C33FF1FF033FF1FF433FF1FB5
:103900004833FF1FB836FF1FD34D6210EC33FF1F43
:10391000EC32FF1FA432FF1F2832FF1F8833FF1F26
:10392000F032FF1FF432FF1F2433FF1F0C32FF1F42
:103930002833FF1F5A4B1968002200921AA8594BCE
:10394000FFF782FA002800F08D80012810D1564C34
:10395000534B1B68534A12689B6804F1140053F8D8
:10396000221009F00FF8514821460122FCF74CFEC5
:1039700001244F4B1C7088E04E4B00931AA84E490F
:1039800000224E4BFFF760FA00286DD0012805D1C8
:10399000464845490122FCF737FE05E04848424BBE
:1039A00093F82410FCF78EFF0124414B1C706CE04F
:1039B000002200921AA84349434BFFF745FA00281A
:1039C00054D001280BD1384C606B003018BF012057
:1039D00000F012FA354821460122FCF715FE0124B9
:1039E000334B1C7051E0002200921AA83749384B23
:1039F000FFF72AFA00283BD0012804D12B482A4996
:103A00000122FCF701FE0124294B1C703DE000223D
:103A100000921AA82F49304BFFF716FA50B301282D
:103A200004D1224820490122FCF7EEFD0124204B5D
:103A30001C702AE001241E4B1C7026E0012424E0A7
:103A4000002422E0012420E001241EE001241CE0E7
:103A500001241AE0012418E0012416E0012414E0F6
:103A6000012412E0012410E001240EE001240CE006
:103A700001240AE0012408E0FEF7D6FB8146174B3B
:103A8000186800287FF497AC9AE40D481AA9FCF74F
:103A900021FF20460DF5835D05B0BDE8F08300BF32
:103AA000C432FF1FC833FF1FEC32FF1F2832FF1F35
:103AB000F033FF1F252A0000CC33FF1F1033FF1FF8
:103AC0006C11FF1F2C33FF1F2033FF1F6833FF1FB4
:103AD0001833FF1FD032FF1F1C33FF1FC032FF1FE0
:103AE0002DE9F84F342004F079F9844B98600D22C9
:103AF0005A60834A1A60834A02609A68824F57600C
:103B00009A68DFF8E8A2C2F808A09A687F49D160F5
:103B10007F4911617F4951617F499161DFF8D0B2DE
:103B2000C2F81CB07D4911627D4951627D499162A4
:103B30007D49D1627D4911637D4ADA607D4E1E6107
:103B40007D4D5D617D4A9A617D4C18467D492246D6
:103B500007F0F6FC082004F041F97B4B98604FF029
:103B60000209C3F804901F60784A02609A68784995
:103B70005160DFF88082C3F80C801E615D61754F73
:103B80009F6118467449224607F0DAFC0C2004F0C5
:103B900025F9724B986003225A60C3F800A0704A5E
:103BA00002609A686F4951609A686F499160C3F8E2
:103BB0000C801E615D619F6118466C49224607F0CA
:103BC000BFFC1C2004F00AF9694B98604FF0070A0B
:103BD000C3F804A0C3F800B0664A02609A68664958
:103BE00051609A68654991609A686549D1606549F4
:103BF00011616549516165499161C3F80C801E618D
:103C00005D619F6118466249224607F099FC1C20BD
:103C100004F0E4F85F4B9860C3F804A0404A1A60CF
:103C20005D4A02609A685D4951609A685C4991609A
:103C30009A685C49D1605C4911615C4951615C4999
:103C40009161C3F80C801E615D619F6118465949FE
:103C5000224607F075FC082004F0C0F8564B986027
:103C6000C3F804902F491960544A02609A68544975
:103C70005160C3F80C801E615D619F611846514917
:103C8000224607F05DFC142004F0A8F84E4B986023
:103C900005225A60244A1A604C4A02609A684C49CC
:103CA00051609A684B4991609A684B49D1604B4981
:103CB0001161C3F80C801E615D619F61184648491F
:103CC000224607F03DFC082004F088F8454B986038
:103CD000C3F80490154919601C4A02609A681C498F
:103CE0005160C3F80C801E615D619F6118463E49BA
:103CF000224607F025FCBDE8F88F00BF4833FF1FC0
:103D000024230100302301003C230100A8220100EC
:103D10004C23010058230100FC220100082301006C
:103D2000702301007C2301008C23010098230100F3
:103D3000A02301001C230100E0220100A8230100B0
:103D40006007FF1F0D2A0000A432FF1FB0230100EF
:103D5000B4230100E8220100F52900008833FF1F89
:103D6000B8230100C0230100C8230100DD290000A1
:103D7000AC33FF1FD8230100E4230100F02301002E
:103D8000FC23010008240100142401002024010068
:103D9000C5290000CC33FF1F2C2401003024010072
:103DA000382401004024010048240100502401006F
:103DB00058240100AD2900002C33FF1F60240100AE
:103DC00068240100952900006833FF1F702401005A
:103DD000782401008024010088240100942401003B
:103DE0007D290000D032FF1F65290000402301001B
:103DF000642301001423010008B580B110481B2181
:103E0000FCF730FB0F481D21FCF72CFB0E481C2152
:103E1000FCF728FB0D481E21FCF724FB08BD0848D1
:103E20001E21FCF71FFB07481C21FCF71BFB064863
:103E30001D21FCF717FB05481B21FCF713FB08BDF0
:103E40007432FF1F1032FF1FC431FF1FDC31FF1F10
:103E500010B502F021FB04460448FCF709FC036896
:103E6000012B08BF04F56164204610BD2832FF1FF6
:103E7000014A024B1A6070470400FA050CED00E09D
:103E800008B502F0A9FE08BD10B582B002AB03F878
:103E9000011D0268546819460122A04702B010BDF6
:103EA00010B50446836A1BB901230371002010BDBD
:103EB00000201871A06A01F09BFDA36A1B7913B161
:103EC00001232371002010BD00B583B0806A60B16A
:103ED0000DF10701012201F0FBFA01280CBF9DF84A
:103EE00007004FF6FF7000B201E04FF0FF3003B063
:103EF0005DF804FB30B583B00446806A78B10DF1FB
:103F00000701012201F0E4FA01280AD19DF80750C7
:103F1000A06AC168013901F0BFFB284603E0002018
:103F200001E04FF0FF3003B030BD00BF08B5806A3C
:103F300008B101F0E9FB08BD2DE9F04104460E4649
:103F40009046002303714FF47A7282600373114B21
:103F50000360242007F02CFBA062B8B13546074669
:103F600006F1200E3E4628686968AA68EB680FC60D
:103F7000103537467545F5D12868306004F10D00DD
:103F800041460C2208F08CFD002363762046BDE8F4
:103F9000F08100BFC0240100002202714FF47A7149
:103FA000816002730249016082624273704700BF00
:103FB000C0240100014B0360704700BFC024010012
:103FC0000D307047836A2BB19879012894BF002087
:103FD000012070470020704708B5806A10B101F0D9
:103FE00077FA08BD002008BD08B5806A28B101F045
:103FF00053FB003018BF012008BD002008BD00BFE2
:10400000836A0BB1D86870474FF0FF30704700BF2C
:10401000836A0BB1986970470020704738B5044631
:10402000836A63B1FFF7F4FF05462046FFF7E8FF18
:10403000281A47F6FF73984228BF184638BD00205B
:1040400038BD00BF10B50446806A30B101F088FB6E
:10405000A06A07F0B5FA0023A36210BD836A23B1FA
:104060009879003018BF012070470020704700BFCA
:1040700010B58AB004460A4600238DF80830094975
:1040800001918DF80A3001A82146012301F01AFCA4
:10409000041C18BF012414B101A801F061FB2046E3
:1040A0000AB010BDE8240100F0B40C68035D2F2BAA
:1040B0001CD101341AE0002563B11EE00135013442
:1040C00007F8013F0C2D05D016F8013F2F2B01D02A
:1040D000002BF3D100235355035D2F2B08BF013470
:1040E0000C60005D003018BF01200BE00619035D75
:1040F0002F2B08BF0025EDD0DDE7013413701746E4
:104100000125E1E7F0BC70472DE9F04F99B08246F8
:104110000F469146984600238DF81C30244A06929B
:104120008DF81E308DF840300F928DF8423001939B
:104130000C4606AE4FF0010B03E00FAC23463446AD
:104140001E46504601A902AAFFF7AEFF054680F0C1
:104150000102204602A9D2B24346C84730B9BC4248
:104160001CD0204601F0FCFA00201EE07DB1304654
:10417000214602AA5B4601F0A5FB0546BC4211D0D0
:10418000204601F0EDFA002DD8D100200DE0BC4210
:1041900006D0204601F0E4FA012006E0002004E009
:1041A000012002E00028C8D1002019B0BDE8F08F3E
:1041B000E824010038B504460A46FE290CD1FE2346
:1041C000037000F0C9FA054600F0B2FAA070D5F10C
:1041D000010038BF002002E0012100F07FFEA8B1FD
:1041E000251D28462146012201F0B2FE28B92846A5
:1041F0002146002201F0ACFE50B104F12C0029460A
:1042000001F03CF9003018BF012038BD002038BD56
:10421000002038BD2DE9F04F99B0814693460193B7
:1042200000238DF81C30394A06928DF81E308DF827
:1042300040300F928DF8423006A8043101F01EF98B
:104240005C460FAE06AD4FF02F084FF0000A2CE091
:1042500023782F2B01D1013427E03F1BFFB20C2F15
:1042600028BF0C2702A821463A4608F019FC18ABD3
:104270003B4403F858AC304601F072FA3046294608
:1042800002AA012301F01EFB40B9002389F8043083
:104290001E4AC9F8002089F8063032E03C4428461E
:1042A00001F05EFA2B4635461E462046414608F090
:1042B000E1F907460028CBD1CBEB0404019B1C603D
:1042C0002B7989F80430114BC9F800306B7989F8E3
:1042D0000530AB7989F80630AB68C9F80830EB686F
:1042E000C9F80C302B69C9F810302B7D89F81430CF
:1042F000AB69C9F81830EB69C9F81C302B6AC9F8EA
:104300002030484619B0BDE8F08F00BFE824010016
:10431000F0B5A7B0044615461F4602A801ABFFF74B
:1043200079FF01996E18695C19BB9DF80C308DF806
:104330005430344B14939DF80D308DF855309DF862
:104340000E308DF85630049B1693059B1793069BF1
:1043500018939DF81C308DF86430089B1A93099BC4
:104360001B930A9B1C93204614A9274AFFF7E4FDE0
:1043700045E000218DF83010224B0B938DF8321060
:104380009DF80E301BB92046FFF706FE37E00BA85C
:1043900002A932463B4601F095FA18B92046FFF7CC
:1043A000FBFD2CE002A801F0DBF917F0060F03D0AB
:1043B0000BA8119901F070F99DF830308DF8783024
:1043C000104B1D939DF831308DF879309DF83230C7
:1043D0008DF87A300D9B1F930E9B20930F9B21939A
:1043E0009DF840308DF88830119B2393129B2493C5
:1043F000139B259320461DA93246FFF79DFD2046BD
:1044000027B0F0BDE8240100D824010008B500F170
:104410002C0308461946024A0023FFF775FE08BD23
:1044200071400000F0B59FB006460D46174649E0C2
:104430009DF810401CB93046FFF7AEFD4BE0E52C6F
:1044400040D02E2C3ED09DF81B1011F0080F39D112
:1044500000238DF83430214A0C928DF8363004A8B0
:10446000694600F0ABFF0CA8A96A6A463B4601F01A
:1044700029FA18B39DF834308DF85830174B15933E
:104480009DF835308DF859309DF836308DF85A301A
:104490000E9B17930F9B1893109B19939DF8443014
:1044A0008DF86830129B1B93139B1C93149B1D93D8
:1044B000304615A96A46FFF73FFD0CE03046FFF78E
:1044C0006BFD08E0A86A04A901F09EF80028AFDCA3
:1044D0003046FFF761FD30461FB0F0BDE824010013
:1044E00010B588B00446FFF76DFD98B91BE09DF844
:1044F0000030BBB1E52B0DD02E2B0BD09DF80B302F
:1045000013F0080F06D11A346846214600F056FF12
:10451000204608E0A06A694601F076F80028E6DC4B
:10452000002000E0002008B010BD00BF10B5044618
:10453000FFF748FD18B1A36A00229A60DA6010BD47
:10454000064B00229A700221596083F8242083F8D8
:1045500030200349D96283F832207047F833FF1FB7
:10456000E824010040F24343074A13600432136019
:104570004FF4886104321160043213600432136016
:1045800004321360704700BF00D004400023064A85
:104590001360043213600432136004321360043277
:1045A000136004321360704700D00440114B196847
:1045B00021F008021A60104A0A40104340F46022B9
:1045C0001A60083B1B6813F0080F07D10B4B0C490E
:1045D0000A6812F0080F01D1013BF9D140F46022C2
:1045E00042F00802034B1A6004331A6842F4801246
:1045F0001A6070472C100B400700F0FFFFFF0F0000
:1046000024100B40224B1A6842F080021A60214AA3
:10461000136813F0010FFBD1136813F0020FF7D1E9
:104620001D4B18604FF0807319481C490268013B0C
:104630000A4002D1002BF9D102E00BB1012A08D0C7
:10464000134A136843F4702343F0010313600120FD
:1046500070470F4B1B6813F0800F06D00C4B1A6885
:1046600042F001121A6003207047094B1B6813F4D3
:10467000803F06D0064B1A6842F001121A600520EE
:104680007047034B1A6842F001021A60002070471D
:1046900030100B4024100B400C100B4001000E009A
:1046A000F8B50022104B1A601048FFF7ABFF6324E7
:1046B0000F4D0D4F0D4E06E000233B603046FFF7D7
:1046C000A1FF013C06D02B6813F0040F08D000288E
:1046D000F2D0F8BD30B90CB10020F8BD0520F8BD0E
:1046E0000028F9D0F8BD00BF08100B400000DB0C1B
:1046F00024100B4010B504460022094B1A600948EB
:10470000FFF780FF50B9084B1B68054B1C6007483A
:10471000FFF778FF18B9044A126810BD10BD10BD2C
:1047200008100B4000001A3710100B40000002293F
:10473000084B1B784BB9074B9B7843B1054B5B7813
:10474000002B14BF03200220704700207047012077
:10475000704700BF4C34FF1FF8B5A24B1A6842F4F3
:1047600000321A6008331A6842F400521A600433A7
:104770001A6842F002021A6004331A6842F0020218
:104780001A60994B1A6822F001021A60FFF7FEFEC8
:10479000964A974B1A601A46136813F0807FFBD134
:1047A0000022944B1A604FF48132BC3B1A602822DD
:1047B00024331A604FF010121C331A6041F2D000FB
:1047C000FFF7F4FE8C4A136813F0030FFBD1FFF7D9
:1047D000C9FE4FF6FF72894B1A60894A04331A608A
:1047E0004FF4FA71824A136843F000631360136850
:1047F00013F0006FFBD10139F5D1804B1A6842F0FC
:1048000080021A600C3B1B6813F4803F00F01E818D
:1048100025E17C4B1B684FF4D5727B4B1A607B48BB
:10482000FFF7F0FE20B111E00120794B1870F8BDC0
:10483000744B1A681B68B3F5D57F03D00120744B05
:104840001870F8BD0122724B5A7005E0052803D09C
:1048500001206F4B1870F8BD0020FFF74BFF18B117
:1048600001206B4B1870F8BD664B1B6813F4401F9A
:104870001FD0674B5B78002B664F08BF4FF4401783
:104880000024604E644D01343846FFF733FF0028A2
:1048900040F0DA803368002BC0F2F080AC42F2D1F5
:1048A00004E0584B1B6813F0804F02D10022584B94
:1048B0005A700022544B1A605848FFF7A3FE48B9BB
:1048C000504B1B680022504B1A605548FFF79AFE68
:1048D00020B111E001204E4B1870F8BD494B1A6809
:1048E0001B681B0C1B044A4A5360474A13604D481F
:1048F000FFF788FE20B1C6E00120454B1870F8BDD7
:10490000494B1A68120E424BDA70484B1B6813F47D
:10491000400F16D1444B1968186800F00300043B9F
:104920001A681B68920D42EA80220132C3F3C21357
:1049300002339A40C1F30323093B9A40344B9A60F7
:1049400009E0334B01229A70394A1268C2F31522EA
:10495000013292029A602E4B5A682B4B1A603548EE
:10496000FFF750FE50B9274B1B684FF40072264BDF
:104970001A603148FFF746FE20B10FE00120244BBA
:104980001870F8BD1F4B1B68214B5A681E4B1A60EC
:104990002A48FFF737FE002879D103E001201C4B9D
:1049A0001870F8BD174B1B680222174B1A60244879
:1049B000FFF728FE00286AD1124B1B68214B1A68AA
:1049C00022F006021A601A6842F002021A60FFF72B
:1049D000DDFD4FF49870FFF7E9FDFFF7C3FD0C4BC9
:1049E0001878F8BD3080044000D0004000800001FD
:1049F0002C100B40C0100B4024100B4030100B400B
:104A0000BB007F1110100B4008100B4000001A086B
:104A10004C34FF1F00003040A08601000000090256
:104A200000001A030000090918100B401C100B406D
:104A300014100B4000001B0700001A1000001A376A
:104A400000001A0628100B400120F8BD124B02206E
:104A5000187000225A605A709A709A60F8BD0E4B16
:104A60000020187058605870987098600B4B186050
:104A7000FFF7C8FD00283FF4CCAED5E6084B9C42BA
:104A80003FF614AF0DE70120034B1870F8BD01206D
:104A9000014B1870F8BD00BF4C34FF1F08100B40CD
:104AA0009F86010070B50446364B1B78002B65D1FC
:104AB000344B5B7803B949024FF6FF72324B1A60F0
:104AC000283B19604FF48132043B1A602F48FFF7EE
:104AD00099FD002854D12E4B1B682B4A136843F0D4
:104AE0002001116013F4E00F12D007E02B6843F0AF
:104AF00020062E60403213F4E00F0FD043F4E003A1
:104B000043F02003204A1360FFF7CAFD01202CE088
:104B1000224604F5E0701F4C1F491B4D236813F417
:104B2000006FFBD00B6813600B6853600B689360D9
:104B30000B68D3600B6813610B6853610B6893615A
:104B40000B68D3610B6813620B6853620B68936246
:104B50000B68D3620B6813630B6853630B68936332
:104B60000B68D3638242C1D10020074A136813F057
:104B7000020FFBD0094A044B1A6070BD032070BDC0
:104B800070BD00BF4C34FF1F30100B4010003A11B5
:104B900010100B4024100B4020100B40220000018D
:104BA00070B506462D4B1B78002B53D12B4B5B78F1
:104BB00003B949024FF6FF72294B1A60283B19606E
:104BC0004FF48132043B1A602648FFF71BFD002892
:104BD00042D1254B1B6806F50070214D234C2B68F4
:104BE00013F0100FFBD02B6813F4E00F0AD01C4A0F
:104BF000136843F4E00343F010031360FFF750FD24
:104C000001201EE006F14001334653F8042B2260D8
:104C10008B42FAD140362B6843F010032B602B688F
:104C200013F4E00F0AD00E4A136843F4E00343F094
:104C300010031360FFF734FD012002E08642CED15D
:104C40000020074A136813F0020FFBD0084A044BF8
:104C50001A6070BD032070BD70BD00BF4C34FF1FD3
:104C600030100B4000003A1810100B4020100B4081
:104C700012000001084B1A6842F480621A604FF07B
:104C80000042DA62FF225A631A46D36A002BFCDA2A
:104C9000014B986BC0B2704700C00240064B1A68C7
:104CA00042F480621A604FF00042DA6258631A469A
:104CB000D36A002BFCDA704700C0024008B5052813
:104CC0001CD8DFE800F003070B0F13170E4A0F4B39
:104CD0001A6016E00C4A0D4B1A6012E00C4A0B4B9E
:104CE0001A600EE00B4A094B1A600AE00A4A074BA9
:104CF0001A6006E0094A054B1A6002E0084A034BB5
:104D00001A6001F0BFF908BD000001B85C34FF1F54
:104D10000110003803200038010002380430003848
:104D20000650013808B50078012101F097FF114BBA
:104D30001B78F3B100220F4B1A700F4B1B78C3B1D5
:104D400013F0010F03D00D4B1A680D4B1A600A4B7C
:104D50001B7813F0020F03D0084B5A68094B1A60F6
:104D6000054B1B7813F0040F03D0044B9A68064BD5
:104D70001A6008BD6034FF1F8C36FF1F8036FF1F8E
:104D800000E100E004E100E008E100E010B5244BA0
:104D90001B78002B3ED10122214B1A70214B1A683F
:104DA000214B1B78002B28D072B61F4B1B7813F0B9
:104DB000010F07D01D4B1C681D49096821401D4C7F
:104DC00021601960184B1B7813F0020F07D01A4BA3
:104DD0001C68174949682140164C61601960124BE4
:104DE0001B7813F0040F07D0144B1C681049896816
:104DF0002140104CA160196062B6114BDB689342F0
:104E000008D00F4B0F491960DA6042F080421A61F6
:104E10000D4A1A600078002101F020FF10BD00BF8C
:104E20006034FF1F5C34FF1F8C36FF1F80E100E001
:104E30007436FF1F8036FF1F84E100E088E100E048
:104E400000C0024001401F0000001F8070B582B00A
:104E50000E460B4B1B680093009C094DA4B2FFF754
:104E600009FFFF2807D02B680193019B9BB21B1BF6
:104E7000B342F4DB01E0012000E0002002B070BD8D
:104E8000B836FF1FF8B505460F4616464FF4967123
:104E9000FFF7DCFF47F04000FFF700FF182426FA79
:104EA00004F0C0B2FFF7FAFE083C14F1080FF6D187
:104EB00027B1082F0CBF8720FF2000E09520FFF7C7
:104EC000EDFE0024FFF7D6FE687010F0800F03D0CF
:104ED0000134B4F5807FF5D1F8BD00BF2DE9F04F66
:104EE00087B0044601910023837002707D4B1B68DC
:104EF0000393039FBFB21046012101F0AFFE20785B
:104F0000012101F0DDFE2078012101F0A7FE764BA2
:104F10001A6842F480521A600620FFF7CFFE734BE6
:104F20001A68734B1B78002B28D072B6704B1B7815
:104F300013F0010F07D06F4B18686F4909680140E3
:104F40006E48016019606A4B1B7813F0020F07D09E
:104F50006B4B1868684949680140684841601960AE
:104F6000634B1B7813F0040F07D0664B1868624937
:104F70008968014061488160196062B6624BDB68F4
:104F8000934200F0A080604B60491960DA6042F003
:104F900080421A615E4A1A6095E02846FFF77EFE5D
:104FA000013E16F0FF06F8D1514B1B78C3B113F048
:104FB000010F03D0514B1A68564B1A604C4B1B78AB
:104FC00013F0020F03D04D4B5A68534B1A60484BF5
:104FD0001B7813F0040F03D0484B9A684F4B1A60AC
:104FE0002046FFF7D3FE4FF00008DFF8F89008E006
:104FF000D9F800300493049BDB1B9BB2B3F5FA6F26
:105000005DD8204641464246FFF73CFF05466070AA
:105010000128EDD1204608214FF4D572FFF732FF69
:1050200010F0040F04D00123A3704FF0000A0FE02A
:105030004FF00408FFF71EFE607008F1FF3313F015
:10504000FF08F7D1AA283AD10223A3704FF0804A73
:105050004FF037094FF00008DFF888B008E0DBF8C0
:1050600000300593059BDB1B9BB2B3F5FA6F26D886
:10507000204649464246FFF705FF20462921524671
:10508000FFF700FF60700028E9D1A378022B0ED152
:1050900020463A210022FFF7F5FE80B9FFF7EAFD2E
:1050A00000F0C000C02811D10323A3700EE02046F9
:1050B000FFF738FE0198FFF701FE2E460DE020466F
:1050C000FFF730FE09E00A26FF2566E7FFF7D2FD6D
:1050D000FFF7D0FDFFF7CEFDE9E7304607B0BDE8AA
:1050E000F08F00BFB836FF1F3C8004405C34FF1FC8
:1050F0008C36FF1F80E100E07436FF1F8036FF1FF3
:1051000084E100E088E100E000C0024001401F00AF
:1051100000001F8000E100E004E100E008E100E0A1
:1051200070B582B004460E4B1B680093009D0C4E78
:10513000ADB207E033680193019B9BB25B1BB3F5F3
:10514000967F09DCFFF796FD6070FF28F2D0FE28FD
:1051500014BF0020012000E0002002B070BD00BF9D
:10516000B836FF1FF8B504460D4616468378032B64
:1051700018BF4D02FFF70AFE204611212A46FFF70D
:1051800081FE002847D12046FFF7CAFF002842D001
:10519000234B244A1A60244A5A635A635A6306F519
:1051A000FD7E764513D2B01C06F5FE771946CB6A14
:1051B00013F0F00FFBD04A638B6BC3F3072500F8A5
:1051C000025C00F8013C0230B842F0D100E0B64683
:1051D00006F5007676450DD97146114AD36A13F06B
:1051E000F00FFBD0936BC3F3072008704B700231B4
:1051F0008E42F3D80A4B0B4A1A600B4A5A631A467E
:10520000D36A13F0F00FFBD0054B9B6B2046FFF7E2
:1052100089FD0120F8BD2046FFF784FD0020F8BD80
:1052200000C0024000041F80FFFF0090F8B5064652
:105230001E4B186840F4806018604FF00040D86240
:105240005963114602F500770446DA6A002A08DB42
:10525000FBE7DA6A002A0DDBFBE7D36A002B15DBDC
:10526000FBE708460A781D6845F480651D60DC622E
:105270005A63EEE742781D6845F480651D60DC6284
:105280005A630231B942E0D1084AE6E7FF20FFF74E
:1052900005FDFF20FFF702FDFFF7ECFC707000F04A
:1052A0001F00052814BF00200120F8BD00C00240E7
:1052B00070B5044616460D4629B38378032B18BFF4
:1052C0004D02FFF763FD204618212A46FFF7DAFD5D
:1052D000C8B92046FE213246FFF7A8FF98B1204604
:1052E0004FF41671FFF7B2FD68B120460D21002280
:1052F000FFF7C8FD38B9FFF7BDFC20B92046FFF71E
:1053000011FD012070BD2046FFF70CFD002070BD8F
:10531000014A024B1A607047032000385C34FF1FBB
:1053200010B50446006A012104F1080200F086FD70
:10533000034650B1E3693BB9A368E361637963F065
:105340007F036371012300E00123184610BD00BFF5
:1053500070B50646FFF7E4FF0346E0B1336AB26872
:10536000023A197C02FA01F55A6915441C794CB1CC
:10537000013D281900F098FC034660B1013C14F08F
:10538000FF04F6D1336A1B7C4FF400729A40B36974
:105390001344B3610123184670BD00BF10B5044625
:1053A000006900F051FC20B1207D034B03EB40105D
:1053B00010BD002010BD00BF7034FF1F70B400236B
:1053C0001A462E26C45C202C09D0DCB2082C02D14F
:1053D000541C8E54E2B2541CC55C8D54E2B20133AD
:1053E0000B2BEFD100238B5470BC70472DE9F001DB
:1053F00000232022CA5401330B2BFBD10138002596
:1054000007264FF008084FF00A0C1B4F21E02E2C06
:1054100001D03A4606E00A2E24D04546664618E0FA
:10542000A34221D012F8013F002BF9D1AE421DD387
:10543000A4F12103DBB25D2B1AD86B1CDBB20D4447
:10544000A4F16102D2B2192A9CBF203CE4B22C70B4
:105450001D4610F8014F002CD9D10878203818BF0C
:10546000012006E0002004E0002002E0002000E02F
:105470000020BDE8F0017047EF24010038B5044674
:105480000D4683790BBB91F82020102A07D1022307
:1054900083710023C3614B8C5B0183610CE0202A84
:1054A00014D103238371496AC161284604F11802AB
:1054B00000F050FC034648B12562012363710022CD
:1054C000A260E2602261227500E00023184638BD28
:1054D0002DE9F04F83B0044688468379002B6ED0C7
:1054E000437913F0010F6DD08169C368CB1A9A42DA
:1054F00028BF1A460192002A5FD01646DFF8FCA0AA
:10550000DFF8FC90DFF8FCB0E368C3F30807A2798A
:10551000022A04D1226A516A01EB53211BE0206A5E
:105520000579013D05EA5325EDB25FB955B913B9C7
:10553000E369A36006E0224652F8081F00F0D4FB9E
:10554000002842D0226AA368023B117C03FA01F1D1
:10555000526911442944C7F50075AE42B8BF3546BB
:10556000637913F0400F02D1B5F5007F36D1D9F839
:105570000030994239D131E04046FFF793FAD0F13B
:10558000010038BF002002E04246FFF7EBFDF8B112
:10559000A8440DE057447819874209D03B4642465B
:1055A00013F8011B02F8011B8342F9D1C71BB84451
:1055B000E3682B44E360761BA6D101981BE04FF013
:1055C000FF3018E04FF0FF3015E04FF0FF3012E0F1
:1055D0004FF0FF300FE04FF0FF300CE008460021A5
:1055E00000F032FB0028D5D1F5E7DBF800000378A6
:1055F000FE2BC9D1C0E703B0BDE8F08F7034FF1FA8
:105600006807FF1F6C34FF1F70B505460C46837991
:10561000012B1CD9C36813F01F0F1AD1202609E0F3
:10562000237883B1E52B05D02E2B03D0E37A13F03A
:10563000080F10D0284621463246FFF749FFC0B276
:1056400043B2202BECD040F3C011C8B204E0FF20DD
:1056500002E0FF2000E0202040B270BD30B583B0F2
:1056600004468379012B0FD9C5680DF1070101228A
:10567000FFF72EFF012809D1E3681F33E36005F42B
:10568000F070044B184402E0002000E0002003B05A
:1056900030BD00BF7034FF1FF8B504460F46837954
:1056A0007BB382698A422BD3022B02D1E1600123B2
:1056B00027E021B900238360C360012321E0C36890
:1056C000026A157C09355A1EEA40013921FA05F5AE
:1056D000AA4200D813B9E369A3600AE0AD1A08E052
:1056E000206AA168324600F0FFFA013D034610B976
:1056F00007E004F10806002DF2D1E760012300E085
:1057000000231846F8BD00BF38B50446807918B3A9
:1057100094F90530002B1BDA20460121FFF73EFEED
:105720000546C0B1A379012B9CBFA369C361A38BBC
:105730004383E38B8382094B1B682BB1183005F13F
:10574000160198472B8B6B82637903F07F0363719B
:1057500000F03AFA38BD002038BD00BF6434FF1FA6
:1057600010B50446FFF7D0FF034610B10023A37124
:105770000123184610BD00BFF0B583B004460D46A6
:105780008379012B4ED1427902F0020202F0FF012F
:10579000002A49D08269AA4248D3002A47D0C66865
:1057A0002946FFF779FF0346002840D04DB9206A0B
:1057B000E16900F0A7FB0346002838D00023E3612D
:1057C0001DE0206AA16801AA00F08EFAA8B1206A43
:1057D000019990F820704FF6F872164B102F08BF01
:1057E000134699420BD200F08DFB30B1206AA168BC
:1057F0006FF0704200F0DAFA08B9002317E0A561F3
:10580000637963F07F0363712046FFF77DFF0346F2
:1058100068B12046B54234BF29463146FFF73CFF08
:10582000034604E0002302E00B4600E00023184694
:1058300003B0F0BDF8FFFF0F38B5044615461F4B07
:1058400003EB4113DA7A12F0110F02D015F0420F78
:105850002CD121751A4A12682261998A0904E161E2
:105860005A8B1143E161D87A10F0180004D1DB693A
:10587000A3610123A3710AE0102819D1206A04F161
:10588000180200F067FA0346A8B10423A37105F0DB
:105890000F0363710023A360E36015F0400F09D08C
:1058A00020461946FFF768FF034604E0002302E0A4
:1058B000002300E00123184638BD00BF7034FF1FED
:1058C0006807FF1F2DE9F04F85B005460C469A4644
:1058D0008679002E7FD1104601A9FFF787FD0028A9
:1058E0007BD0236A2B620027A760E760DFF8FC907B
:1058F0004FF0010825E0C1F3431B2046FFF7AEFE41
:10590000014600286AD003780BB1E52B09D12FB9E5
:1059100085F814B0D9F800302B6147460B7883B96D
:1059200013E001A80B2206F0EFF850B90AF030039B
:10593000302B53D0284659465246FFF77DFF064686
:105940004CE0E168A3699942D5D30AF01203122B07
:1059500044D137B128460121FFF720FD044660B944
:105960003CE0A379022B39D02046FFF7F1FC064634
:10597000002833D000232B751A4C2046002120220A
:1059800006F056F901AB03CB206061601A889B7862
:105990002281A372144B1B682BB104F1100004F197
:1059A0000E01984707E02123237428236374002302
:1059B000A3730823E373238A63822383E389E38247
:1059C00000F002F9064648B12846297D5246FFF705
:1059D00033FF064602E0002600E00646304605B0EA
:1059E000BDE8F08F7034FF1F6434FF1F6807FF1F8E
:1059F0002DE9F04F85B00446884601928379012B4A
:105A000040F0C080437913F0020F00F0BB8013F028
:105A1000040F08D08169C3688B4204D0FFF73CFEB5
:105A2000002800F0AF800198002800F09080064622
:105A3000DFF874A1DFF874B1206AE76890F8049089
:105A400009F1FF3909EA5729C7F3080719F0FF09D7
:105A500023D117BBA16841B9E36923B92046FFF7F9
:105A60005FFCD0B98EE0A36017E003AA00F03CF918
:105A7000002800F08E80039B226A92F820104FF6D7
:105A8000F8724548102918BF0246934204D32046B5
:105A9000FFF746FC08B975E0A360C7F50075ADB225
:105AA000B54288BFB5B2236AA268023A197C8A401F
:105AB0005B691A449144B5F5007F1ED1DBF80030D4
:105AC0004B4504BF4FF0FF33CBF80030334B186821
:105AD0000378FE2B08D140464946FFF761F8D0F124
