:1000000000000320D1010000856400004964000065
:10001000496400004964000049640000496400002C
:1000200049640000496400004964000085640000E0
:1000300085640000496400008564000039640000A4
:10004000856400008564000085640000856400000C
:1000500085640000856400008564000085640000FC
:1000600085640000856400008564000085640000EC
:1000700085640000856400008564000085640000DC
:1000800085640000856400008564000085640000CC
:1000900085640000856400008564000085640000BC
:1000A00085640000856400008564000085640000AC
:1000B000856400008564000085640000557F0000B1
:1000C00085640000D986000085640000618C000012
:1000D000856400008D920000856400008564000046
:1000E000856400008564000085640000856400006C
:1000F000856400008564000085640000856400005C
:10010000697500008175000099750000B1750000E7
:1001100085640000CD6900008564000085640000EE
:10012000856400008564000085640000856400002B
:10013000856400008564000085640000856400001B
:100140008564000085640000DD9700008564000080
:1001500085640000856400008564000085640000FB
:1001600085640000856400008564000085640000EB
:1001700085640000856400008564000085640000DB
:1001800085640000856400008564000085640000CB
:1001900085640000856400003D9E000085640000C9
:1001A00085640000856400008564000085640000AB
:1001B000856400008564000085640000856400009B
:1001C000856400008564000085640000856400008B
:1001D0005A4B4CF2205210B51A804DF628121A8054
:1001E00000BF00BF06F052F9554B4FF030621A6065
:1001F000544A9A60544ADA60544B4FF470021A60C1
:10020000534B544A1A60544B1A6812F4807204D14A
:1002100052490A604FF4A8521A60514B1A781107DC
:1002200003D51A7842F008021A704E4B4E4C4F48D4
:10023000AA221A704E4A00239918A14203D21958D3
:1002400099500433F8E74B4B4B4900228B4202D2C2
:1002500043F8042BFAE74948494900235A581A50F1
:100260000433B3F5E87FF9D1464B474A802103F8C0
:10027000011B9342FBD1454B404A1A60444B8A22F2
:100280001A70A3F5805324225A70A0221A709A790A
:100290009207FCD59A79D406FCD43E4A937903F0B0
:1002A0000C03082B3B4BF9D101221A714E225A71D3
:1002B0009A799006FCD5374A9179364B4906FBD599
:1002C000354A4FF0827111600921516020221A7065
:1002D0009A7902F00C020C2AFAD1304B304A1A609B
:1002E000304B314A1A6000225A60072243F8042C2E
:1002F0002E4AC3F80C2D62B606F0EEF9174B1B68B8
:10030000DA0705D52A4806F001F92A4B2A4A1A606D
:100310002A4B1B785B0609D5264C274A2368934253
:1003200004D1234806F0F2F8002323600AF090FE7F
:1003300006F0B2F807F0B2F9FEE700BF0E20054064
:1003400030800440823F04000100002B88ED00E073
:10035000002008E00300008510D0034014D00340C3
:1003600002D0074000E00740AC10FF1FC020010092
:100370006007FF1FAC10FF1F482BFF1F0002FF1F6D
:100380000000000000E400E064E400E008ED00E0AC
:100390000050064000400640448004400480044071
:1003A000C010050014E000E0BFD4010000002020D0
:1003B00013320A591CE00340A5C3945A00F00740C9
:1003C000FFFFFFFFFFFFFFFFFFFFFFFFFFFFFFFF3D
:1003D000FFFFFFFFFFFFFFFFFFFFFFFFFFFFFFFF2D
:1003E000FFFFFFFFFFFFFFFFFFFFFFFFFFFFFFFF1D
:1003F000FFFFFFFFFFFFFFFFFFFFFFFFFFFFFFFF0D
:10040000FFFFFFFFFFFFFFFFFFFFFFFFDEF9FFFF23
:1004100010B5054C237833B9044B13B10448AFF33E
:1004200000800123237010BDAC10FF1F00000000EE
:10043000B820010008B5064B1BB106480649AFF3CA
:1004400000800648036813B1054B03B1984708BD07
:1004500000000000B8200100B010FF1FAC10FF1F0B
:100460000000000038B505460C46C8B2022106F06F
:10047000BBF82C6038BD00BF10B50446FFF7F2FF93
:10048000642363604FF47A73A36000232375012310
:100490002361204610BD00BF08B5007806F096F82D
:1004A000002814BF0020022008BD00BF30B583B073
:1004B0000446164B1B680093009D007806F086F8F2
:1004C000E0B92369012B05D1104B1B680193019BF7
:1004D000E36010E0E0682D1A63689D420AD9237D2D
:1004E0002BB1A068854294BF0220032003E00120C5
:1004F000207500E000200023236104E00020E0607C
:1005000020750123236103B030BD00BF8C26FF1F7F
:100510002DE9F0410C460E46CF18C1EB0208A01B96
:10052000BC4209D0B4F5805F06DA204605F04CFFE6
:1005300008F804000134F2E7BDE8F08110B5044684
:10054000002102460423FFF7E3FF014623680C2B3A
:1005500006D12046221D3C23FFF7DAFF012010BD03
:10056000002010BD10B5044603680C2B01D0FFF726
:10057000E5FF201D10BD00BFF8B50C460D46CE1896
:10058000571A601BB44208D0B4F5805F05DA2046E4
:10059000395D05F02FFF0134F3E7F8BD10B50446CF
:1005A0000C230360002102460423FFF7E5FF014608
:1005B0002046221D3C23FFF7DFFF012010BD00BFB6
:1005C00038B50446002140F8041B3C220BF0A8F883
:1005D0002046FFF7B3FFB8B900236360A3600A2287
:1005E000E260236104F11405084A03CA606169608E
:1005F00012782A726362A362E36223636363A36374
:10060000E3632046FFF7CAFF204638BD40F60000EE
:10061000F8B506461746041D0D460FCD0FC40FCD85
:100620000FC40FCD0FC495E8070084E807001FB181
:100630003046FFF7B3FFF8BD0120F8BD08B505F05F
:100640007FFE08BD30B4034641F20C01441800227D
:10065000425000F58051086000F5006541F2040148
:10066000455041F20801585041F21401425041F204
:100670001801425041F22801425441F21C014250FB
:1006800000F581531A70C823237130BC704700BF36
:100690002DE9F04F89B004460591069207935FFA61
:1006A00081FB5846012105F09FFF069AD2B20192C4
:1006B0001046012105F098FF079BDBB20293184614
:1006C000012105F091FF129AD2B203921046012146
:1006D00005F08AFF139B5FFA83FA5046012105F06B
:1006E00083FF149A5FFA82F94846012105F07CFFE6
:1006F000159B5FFA83F84046012105F075FF169AB5
:10070000D7B23846012105F06FFF179BDEB23046A5
:10071000012105F069FF189AD5B22846012105F09C
:1007200063FF199BDBB204931846012105F05CFFBF
:100730005846002105F026FF0198002105F022FF10
:100740000298002105F01EFF0398002105F01AFF12
:100750005046002105F016FF4846002105F012FF23
:100760004046002105F00EFF3846002105F00AFF43
:100770003046002105F006FF2846002105F002FF63
:100780000498002105F0FEFE41F22C03059AE25088
:1007900041F23003069AE25041F23403079AE250E4
:1007A00041F23803129AE25041F23C03139AE250AC
:1007B00004F58253149A1A6041F24403159AE250E8
:1007C00041F24803169AE25041F24C03179AE25064
:1007D00041F25003189AE25041F25403199AE25040
:1007E00009B0BDE8F08F00BF08B5012241F228032F
:1007F000C25400F580500C3002493B2206F054FEF2
:1008000008BD00BF450C0000002241F22803C2547D
:10081000704700BF3F299DBF41F21C03C15001201A
:100820000020704702299DBF00F581500170012012
:100830000020704738B5044641F2040540594FF492
:10084000006205F0DBFC04F58053196862591A60F8
:10085000615138BD41F20803C25841F20403C35844
:100860009A4205D128221346013B7FF4FDAFFAE7F7
:100870000120704741F22403C15070472DE9F00F69
:1008800086B0014641F20803C35841F2180282586B
:1008900003EB82100190103203EB8212029241F2BC
:1008A0001403CB5801259D40EDB201F581531B780F
:1008B000013343F300085FFA88F843F34003DCB2E6
:1008C000002201F580531C330393C44B01F581567C
:1008D0000C36059601F5815909F1040901F582509C
:1008E000143001F581571037049701F5815A0AF148
:1008F000140ACDF800A0DDF80CB0DBF800609642D9
:1009000006D1059F3E7853F83660012786F880703F
:100910009246DDF804B01BF802C005EA0C0C029FF9
:10092000BE5C2E40D9F80070012F40F04F81DCF101
:10093000010C38BF4FF0000CD6F1010638BF00267D
:100940000768FFB253F837704FF0010B87F800B11A
:10095000DDF810B0DBF800701CEA080FFFB253F8A6
:1009600037704FF0010B14BF87F880B087F800B1E3
:10097000DDF800B0DBF8007016EA080FFFB253F89C
:1009800037704FF0010B14BF87F880B087F800B1C3
:1009900041F23807CF591CEA040FFFB253F8377001
:1009A0004FF0010C14BF87F880C087F800C141F2F6
:1009B0003C07CF592642FFB253F837604FF001078A
:1009C00014BF86F8807086F80071067853F8366098
:1009D000012786F88070019E16F80AC005EA1C1CE3
:1009E000DDF808B01BF80A7005EA1717D9F800609F
:1009F000012E40F0ED80DCF1010C38BF4FF0000C0F
:100A0000D7F1010738BF00270668F6B253F8366001
:100A10004FF0010A86F800A1DDF810A0DAF80060B6
:100A20001CEA080FF6B253F836604FF0010A14BF03
:100A300086F880A086F800A1DDF800B0DBF8006041
:100A400017EA080FF6B253F836604FF0010A14BFE8
:100A500086F880A086F800A141F238068E591CEA7B
:100A6000040FF6B253F836604FF0010C14BF86F84D
:100A700080C086F800C141F23C068E592742F6B28A
:100A800053F836604FF0010714BF86F8807086F87F
:100A90000071067853F83660012786F880703A4472
:100AA000402A7FF428AF41F25003CA5C4B4B53F805
:100AB000323083F8807001F582531A6841F21803CE
:100AC000CB5813F0010FD2B2444B53F8323019BF58
:100AD0003A4683F88020012283F8002141F2440342
:100AE000CA5841F21803CB5813F0020FD2B23B4B55
:100AF00053F832304FF0010214BF83F8802083F89E
:100B0000002141F24803CA5841F21803CB5813F0B0
:100B1000040FD2B2314B53F832304FF0010214BF00
:100B200083F8802083F8002141F24C03CA5841F237
:100B30001803CB5813F0080FD2B2284B53F83230B9
:100B40004FF0010214BF83F8802083F80021234A6C
:100B500041F25003CB5C52F83300012380F800319E
:100B600041F22C00085C52F8302082F8003141F24A
:100B70001403CB58022B06D0032B06D0012B0CBF3D
:100B80000220012002E01E2000E02D2041F2180288
:100B90008A580132102A03D041F21803CA5019E0D2
:100BA000002441F218028C500133042B03D041F28F
:100BB00014028B500EE0002241F21403CA5001F5DA
:100BC00080531A6841F20803CA5003E00768B8E688
:100BD00006681AE706B0BDE8F00F7047241A010056
:100BE00038B5044600F580550C35284606F0A6FCBD
:100BF0002046FFF743FE41F22803E35C13F0FF0FAA
:100C000010D0002817DB421E0B4B9A4213D8C0EBC2
:100C100000108200013A232A0DD92846074906F020
:100C200043FC38BD41F22C03E25C054B53F83230F3
:100C3000012283F8802038BD47444404450C00005D
:100C4000241A010008B50248FFF7CAFF08BD00BF1B
:100C50005411FF1F08B561F31F114FF400620AF031
:100C60005FFD08BD10B504468023C0F8003820237E
:100C7000C0F804380021FFF7EDFF204610BD00BF8B
:100C800000290CDB002A0CDBD0F8003899420ADA84
:100C9000D0F804088242ACBF002001207047002039
:100CA0007047002070470020704700BF70B50546B0
:100CB0000C461646FFF7E4FF60B104EBD473B601AF
:100CC00006EB6306A85D14F0010F14BF000900F0E5
:100CD0000F0070BD002070BDF8B505460C461646E5
:100CE0001F46FFF7CDFFA0B107F00F0704EBD4724A
:100CF000521002EB8613EB5C14F0010F19BF03F0E6
:100D00000F0343EA071703F0F0031F4302EB8616B5
:100D1000AF55F8BD2DE9F04F85B0074689460193E0
:100D20000E9BD31802939A4235DA9046109B9B1A79
:100D30000393119B019AC2EB030B21E00BEB04051B
:100D400048464146224601F065F830B13846314602
:100D50002A46FFF7ABFF034605E0484641462246D8
:100D600001F00CF80346384631462A46FFF7B4FF37
:100D700001345445E2DB08F10108029B98450ADA88
:100D8000039E4644DDF804A00F9A9244019B53450C
:100D9000F1DA1C46D2E705B0BDE8F08F10B5054C7E
:100DA0002046FE2102F0F6FF2046034903F01EF91B
:100DB00010BD00BFCC23FF1FF4FB00002DE9F0475E
:100DC000ADF5186D9E4B1B6813F0010F0FD19C48B9
:100DD00005F06CFB58B19B4C204602F0CDFE9848C4
:100DE00005F06AFB20469849984A0AF021F9984B89
:100DF0001B6813F0010F0FD1954805F057FB58B150
:100E0000944C204601F038FB914805F055FB2046F4
:100E100091498E4A0AF00CF9904B1B6813F0010FB0
:100E20000CD18E4805F042FB40B18D4B1B680493FA
:100E3000049A8C4B1A60894805F03EFB56A8FFF7D0
:100E400011FF0AA800F010FF0EA800F00DFF844B60
:100E50001B680593059D02F0E9FD04468248FFF7F3
:100E600081FB4668D0F80C90876AD0F82C807F4BC5
:100E70001B8843B9FFF792FF08B102F0E7FD7B4BF7
:100E80001B88002B73D06F4802F0D8FE00286ED16B
:100E9000013F032F0ED8DFE817F0FA02FC0204002E
:100EA00006000A23F6E21423F4E27148714903F0C4
:100EB0009DF8A0B9704B1B886C4A1288B3FBF2F105
:100EC00002FB11339BB203EB430203EB82036B4A39
:100ED000126816A86A491A440AF070FE08E016AFB4
:100EE000DFF890E1BEE80F000FC7DEF800303B806E
:100EF0005F4816A903F07AF828B30DF516605C492F
:100F000016AA012302F0F4FF4E4B9DF864291A71D2
:100F1000DDF868299A609DF86C291A730DF518623E
:100F200052F813ED57689068C3F80DE0C3F81170DC
:100F3000C3F81500127B5A76DDF87C29DA610DF5CD
:100F4000166002F027FE3F4802F078FE40B14148AB
:100F50003C4901F0A3FA30B90022444B1A8002E068
:100F60000022424B1A80444B1A8801321A80454BAA
:100F7000A3FB052313F0200F05D10D20012105F05F
:100F800001FB414F04E00D20002105F0FBFA3F4F2B
:100F9000012E0FD0022E25D0204604F0EBFF06468E
:100FA000204604F0FDFF034612A8394932460AF0F4
:100FB00005FE38E0204604F0E5FF364B364A0928A6
:100FC000D4BF92469A46204604F0DCFF06462046EF
:100FD00004F0E6FF009012A83049524633460AF06A
:100FE000EDFD20E0204604F0CDFF2A4B2A4A0928D7
:100FF000D4BF92469A46204604F0C4FF06462046D7
:1010000004F0CEFF044605F0C9F8254B254A002818
:101010000CBF104618460094019012A8224952466F
:1010200033460AF0CBFD09F1FF32052A04D8DFE888
:1010300002F04A3D4043464841F2883345E000BF54
:101040005011FF1F2411FF1F953B00006007FF1F79
:101050004411FF1FE010FF1F8D2400002011FF1F0F
:101060008C26FF1F1811FF1F1022FF1F1C11FF1FCE
:10107000CC23FF1F14FC00004811FF1F1011FF1F9D
:1010800028FC0000D34D6210FCFB000004FC0000B3
:1010900034FC0000B01901000CFC000040FC000012
:1010A00010FC0000D01801004CFC000043F698230F
:1010B0000BE047F2305308E04EF6602305E08D4B1D
:1010C00003E08D4B01E042F210738C4A128822B18A
:1010D0008B4A1268AA1A934237D98A4B18680EA90C
:1010E00012AA3B4601F078F856A80021FFF7B2FD9E
:1010F0000EA800F0E9FD06460EA800F0E7FD054643
:101100000EA800F0E1FD04460EA800F0DFFD0096F9
:101110000195C4F17F0303EBD3735B100293C0F11D
:101120001F0000EBD0704010039056A80EA90022BB
:101130001346FFF7EFFD744C20460021FFF78AFBB2
:10114000204656A9FFF776FB9AE1704802F076FD3B
:10115000002800F093816E4B1C682C1B6D4801F039
:10116000DBFA844218D96B4801F080FA88B9684BE1
:101170001B6813B9664B1D6006E0664801F0CCFAA7
:10118000634B1A68104418606248604901F080FAA5
:1011900002E05E4802F046FD5C4802F04FFD002888
:1011A00000F066815B4801F0D3FA0138052804D8C5
:1011B000DFE800F01B35506B85B4524B18680EA960
:1011C00012AA3B4601F008F80EA800F07DFDC0F120
:1011D0007F0000EBD07046100EA800F077FDC0F144
:1011E0001F0000EBD0704510B1E000238DF84D30AA
:1011F00049480EA912AA3B4600F0EEFF0EA800F0E7
:1012000063FDC0F12A0000EBD07046100EA800F07C
:101210005DFDC0F11F0000EBD070451097E000238A
:101220008DF84D303C480EA912AA3B4600F0D4FF81
:101230000EA800F049FDC0F12A0000EBD070461066
:101240002B360EA800F042FDC0F11F0000EBD0705D
:1012500045107CE000238DF84D302F480EA912AACE
:101260003B4600F0B9FF0EA800F02EFDC0F12A00A9
:1012700000EBD070461057360EA800F027FDC0F1E5
:101280001F0000EBD070451061E000238DF84D3059
:1012900021480EA912AA3B4600F09EFF0EA800F0BE
:1012A00013FDC0F1400000EBD07046100EA800F016
:1012B0000DFDC0F11F0000EBD070451047E000238A
:1012C0008DF84D3014480EA912AA3B4600F084FF59
:1012D0000EA800F0F9FCC0F1400000EBD070461001
:1012E00040360EA800F0F2FCC0F11F0000EBD070F9
:1012F00045102CE0C0D40100E09304001C11FF1F36
:101300001811FF1F1411FF1F5411FF1F2411FF1F7D
:101310004C11FF1FE010FF1F6822FF1F00238DF8F4
:101320004D3064480EA912AA3B4600F055FF624CAE
:10133000204601F00FFA05460EA800F0C5FC00EBB0
:10134000D070A5EB6006204601F006FA05465A4C1F
:10135000204601F0DFF901460AA800F0C3FD56A8B7
:101360000021FFF777FC204601F0E4F910BB0EA83E
:1013700000F0AAFC04460EA800F0A8FC009401901E
:101380000296039556A80EA900221346FFF7C2FC49
:101390000AA800F099FC04460AA800F097FC009403
:1013A000019000230293039356A80AA91A46FFF757
:1013B000B1FC22E00AA800F087FC04460AA800F06D
:1013C00085FC0094019000240294039456A80AA975
:1013D00022462346FFF79EFC0EA800F075FC074648
:1013E0000EA800F073FC009701900296039556A892
:1013F0000EA922462346FFF78DFCB8F1000F2DD031
:1014000016A800F031FC2D4802F0CAFB014606A8E0
:101410000AF082FD06A82E210AF0F6FB08B1002290
:101420000270274816A906AA002300F0D5FE16A8C8
:1014300000F064FC16A800F047FC044616A800F073
:1014400045FC0094019000230293039356A816A92B
:101450001A46FFF75FFC16A800F010FD194C204655
:101460000021FFF7F7F9204656A9FFF7E3F907E057
:10147000154B1D600022154B1A6001E0124B1D60D8
:101480000EA800F0FBFC0AA800F0F8FC0DE0022317
:1014900000E005230E4A1288B2FBF3F103FB11238F
:1014A0009BB2002B7FF406ADFFE40DF5186DBDE88F
:1014B000F08700BF6822FF1FE010FF1F2411FF1FED
:1014C000DC21FF1F5411FF1F1811FF1F4C11FF1FBC
:1014D0004811FF1FF0B599B068464049404A0123C2
:1014E00002F006FD684602F0A9FB002870D03D4BD3
:1014F000186830B109F0DCFD00233B4A1380394AFB
:101500001360684602F0DCFD384E364C364D08A8B4
:1015100002F032FB10A86946012202F073FD9DF82B
:1015200044308DF82430129B0A939DF84C308DF88E
:101530002C3018AB53F8130D59689A68CDF82D006C
:10154000CDF83110CDF835201B7B8DF83930179B45
:101550000F9310A802F01EFB08A802F06FFB0028F2
:1015600030D008A802F01CFB31460AF0C7FB10B3CC
:10157000206830B901232B800D2009F091FD2060F7
:101580000AE02B8801339BB22B8003EB430103EB72
:1015900081010AF013F920602B8803EB430703EB6A
:1015A00087070D3F2268174408A802F0F9FA0146A0
:1015B00038460AF0B1FC08A802F034FB08A802F093
:1015C000E9FAA4E708A802F0E5FA684602F02AFB67
:1015D000684602F0DFFA19B0F0BD00BFCC23FF1F50
:1015E000F4FB00001011FF1F1C11FF1F58FC00002E
:1015F00010B594B03748384902F0F8FC002864D0A0
:10160000364B1C6844B1204600F086FE204606F0AA
:1016100055F80022314B1A603148FEF7A3FF103015
:1016200030490AF06BFB00284BD004A829492A4A0C
:10163000012302F05DFC04A802F000FB002839D071
:10164000274C0CA804A9012202F0DCFC0CA802F033
:10165000F5FAF8B10CA8694600F014FD2046FEF733
:1016600081FF103069460AF049FB60B9182006F086
:101670001DF8044600F0ACFC184B1C6020460CA979
:1016800000F066FE06E00CA802F0CCFA0CA802F00E
:1016900081FAD6E70CA802F07DFA104B1B6813B153
:1016A000114A136002E0114A0F4B1A6004A802F0BD
:1016B000B9FA02E00D4A0C4B1A6004A802F06AFA6B
:1016C00006E00A4A084B1A6002E0084A064B1A6014
:1016D00014B010BDCC23FF1F64FC00000C11FF1FD1
:1016E0001022FF1F40F600001411FF1FC810FF1F3B
:1016F000F8B502F09BF905466748FEF733FF846BA7
:10170000664B1B78A3B1284604F034FC06462046FD
:1017100004F030FC86420BD1284604F041FC06461A
:10172000204604F03DFC864202D100225B4B1A7039
:101730005B4B1B68013B032B00F2A780DFE803F043
:101740004D02586A5748FEF7B1FE032806D103221E
:10175000534B1A605448FFF757F899E05348FEF787
:10176000A5FE012804D14E4B186001F01DFC8FE04E
:101770004948FEF7F7FE466B484B1B7853BB2046A3
:1017800004F0F8FB0746304604F0F4FB874208D12A
:10179000204604F005FC0446304604F001FC844277
:1017A00018D0284604F0E6FB0446304604F0E2FB7D
:1017B00084420FD1284604F0F3FB0446304604F07F
:1017C000EFFB844206D10422354B1A603648FFF7FE
:1017D0001BF85DE0FFF7F2FA5AE0002001F0E4FBAD
:1017E000002855D102222E4B1A60FFF701FF4FE06F
:1017F0002C48FEF75BFE01284AD12A4C2046FEF712
:1018000055FE0028FAD10222254B1A602648FEF721
:10181000EBFF3DE002F00AF905461F48FEF7A2FE85
:10182000846B2248FEF742FE01280ED02048FEF7C6
:101830003DFE012809D01F48FEF738FE012804D0DC
:101840001848FEF733FE012803D10122134B1A700A
:1018500014E0124B1B788BB9284604F08BFB06462C
:10186000204604F087FB864212D1284604F098FBFC
:101870000546204604F094FB854209D10222084B1C
:101880001A600948FEF7B0FF02E00222044B1A601A
:101890000A2004F00BFFF8BD1022FF1FF421FF1FE8
:1018A0006407FF1FC421FF1F5411FF1F5022FF1F99
:1018B000F821FF1FAC21FF1FF0B5ADF64C0D10A8AD
:1018C000FFF7D0F907A800F0CFF9374B1B68059355
:1018D000059D0BA83549364A0AF070F9354807A925
:1018E0000BAA002300F078FC07A800F0EDF90746EA
:1018F00007A800F0EBF9064607A800F0E5F9044652
:1019000007A800F0E3F900970196C4F1800303EB08
:10191000D3735B100293C0F1200000EBD070401035
:10192000039010A807A900221346FFF7F3F9224CF1
:1019300020460021FEF78EFF204610A9FEF77AFF11
:101940001E4804F03DFC3C2004F04AFC642004F0F6
:10195000ADFE04F02DFC0228194C23685B6820467C
:1019600014BF184918491B229847204605F040FE2D
:10197000002004F0DBFDFFF711FA08B1FFF7AAFD24
:10198000FFF736FE084B1B6806930698401BB0F520
:10199000FA6F03D2C0F5FA6004F088FE07A800F0E1
:1019A0006DFA0DF64C0DF0BD8C26FF1F6CFC00008F
:1019B00078FC0000DC21FF1F5411FF1F5D3A00007E
:1019C0008427FF1F80FC00009CFC000070B590B0D5
:1019D0001F48FEF7C7FD01AC05460FCD0FC40FCD64
:1019E0000FC40FCD0FC495E8070084E8070019481D
:1019F000FEF752FD022807D100230A93144801A9DB
:101A00000122FEF705FE0AE01348FEF745FD022815
:101A100005D101220A920E4801A9FEF7F9FD0D4CED
:101A20000D4D0E4E2046FEF737FD0228FAD028460F
:101A3000FEF732FD0228F5D03046FEF72DFD0228D4
:101A4000F0D00748FEF728FD0228EBD010B070BD9B
:101A50001022FF1F5022FF1FAC21FF1FF821FF1F84
:101A6000C421FF1F2DE9F0418CB008A800F0FCF85C
:101A7000614A6249624D634C137813F0FF0FFBD04B
:101A80000B7813F0030FF7D028682368C31A182BBC
:101A9000F2D95D4B1C1F03F110080027012654F8F2
:101AA000045FEDB22846394604F06CFD2846314605
:101AB00004F09AFD4445F2D10D20012104F094FD7B
:101AC000524D2846FEF74EFD006B003018BF012036
:101AD00001F080FFFFF77AFF08A84FF40D7107228D
:101AE00000F0D2F908A84A4940F2B67200F0C4F8F2
:101AF00008A8484940F2F11200F0CAF8464C2046C6
:101B00005E2108AA00F012FC204644494FF4EB7213
:101B100000F066FA08A840F255110B2200F0B4F963
:101B200008A83F4940F2597200F0A6F808A83D49BC
:101B300040F2D91200F0ACF83B4C20462B2108AA09
:101B400000F0F4FB20463949D72200F049FA08A8F2
:101B5000CA21152200F098F908A8354940F6490233
:101B600000F08AF808A8334940F2222200F090F8E9
:101B7000314C20460F2108AA00F0D8FB20462F49FF
:101B80004B2200F02DFA2846FEF7ECFC2C4C416A63
:101B90002046FEF76FFE03230093022301930723E1
:101BA000029306230393052304930423059301233F
:101BB0000693002307932046132114221523FEF7D2
:101BC00067FD2846FEF7CEFC81682046FEF722FE20
:101BD0002846FEF7C7FC90F820102046FEF722FEAC
:101BE0002046FEF701FEFFF767FE08A800F046F961
:101BF0000CB0BDE8F08100BF7027FF1F8027FF1FDA
:101C00008C26FF1F402BFF1F480501001022FF1FDD
:101C1000B8FC00004CF60000DC21FF1F1CFA00009D
:101C20001810010040F800006822FF1F7004010036
:101C3000800701005C050100C810FF1FCC0F0100E8
:101C40005411FF1F10B5054C204600F0C1F9204685
:101C50000349044A09F0ECF910BD00BFC810FF1F8A
:101C6000192300006007FF1F00220260426002810A
:101C700042818281C281704710B58389448904FB07
:101C800003F39A4202D1006804F0B8FA002010BDB4
:101C900010B5C389448904FB03F39A420AD0084C67
:101CA00023685B682046074916229847204605F0BE
:101CB0009FFC02E0406804F0A1FA002010BD00BFC4
:101CC0008427FF1F741701000089704740897047FF
:101CD00008B583894289006861F31F1102FB03F292
:101CE00009F01EFD08BD00BF08B583894289006860
:101CF000002102FB03F209F013FD08BD08B5C389FA
:101D000042894068002102FB03F209F009FD08BD89
:101D100000290ADB002A0ADB0389994209DA408993
:101D20008242ACBF00200120704700207047002095
:101D300070470020704700BFF8B505460C461746AF
:101D40001E46FFF7E5FFB8B104EBD472AB8907FB81
:101D500003F707EB620229688B5C14F0010F05D0D2
:101D600003F00F0343EA0616F6B204E023F00F0374
:101D700006F00F061E438E54F8BD00BF70B5054631
:101D80000C461646FFF7C4FF78B104EBD472AB895A
:101D900006FB03F62B6803EB6203985D14F0010F5A
:101DA00014BF000900F00F0070BD002070BD00BF1F
:101DB000F8B505460C4617461E46FFF7A9FF28B39F
:101DC0002346002CB8BFE31DEA8907FB02F202EBB1
:101DD000E30269688B5C66B10D48044003D5013CA1
:101DE00064F007040134012000FA04F41C43E4B257
:101DF0000BE00748044003D5013C64F007040134BC
:101E0000012000FA04F423EA04048C54F8BD00BF56
:101E10000700008070B505460C461646FFF778FFB0
:101E2000D0B16B68D3B12246002CB8BFE21DE9895E
:101E300006FB01F603EBE20309490C4003D5013C24
:101E400064F007040134012202FA04F49B5D23428A
:101E50000CBF0020012070BD012070BD012070BDAD
:101E60000700008010B50446006808B105F02AFCA0
:101E7000606808B105F026FC10BD00BF10B504462F
:101E8000FFF7F0FF204610BD70B504460D4616461C
:101E9000FFF7E8FF05F0010305EBD57003EB6000E9
:101EA00080B2A08115F0070318BF01232A46002D38
:101EB000B8BFEA1D03EBE203E3812581668106FBDF
:101EC00000F005F0F7FB2060E08906FB00F005F06C
:101ED000F1FB60602046FFF707FF2046FFF70EFF8B
:101EE00070BD00BF38B504460D4609896A89FFF701
:101EF000CBFF296811B90023236007E06389A28919
:101F000002FB03F2204692B2FFF7B6FE696811B9F0
:101F10000023636007E06389E28902FB03F2204645
:101F200092B2FFF7B5FE204638BD00BF70B582B053
:101F300006460C4608466946022201F03DFE05466B
:101F400020460DF10201022201F036FE0028A8BF52
:101F5000002DB4BF00250125204601A9022201F071
:101F60002BFE0028B4BF002505F0010520460DF129
:101F70000601022201F020FE0028B4BF002505F072
:101F8000010515B33046BDF80010BDF80220FFF77B
:101F90007BFF7389B28902FB03F22046316892B25B
:101FA00001F00AFEC543ED0FBDF806306BB1738931
:101FB000F28902FB03F22046716892B201F0FCFD47
:101FC0000028B4BF002505F00105284602B070BD09
:101FD00010B50446FFF748FE00232361204610BDDC
:101FE00038B51546838A03EB83039A420FD00A4C17
:101FF00023685B68204609490E22984720462946F7
:1020000005F042FB204605F0F3FA002038BD0069D8
:1020100004F0F4F8012038BD8427FF1F8C1701005D
:1020200070B590B068461549154A012301F060FF6C
:10203000684601F003FED0B100240126E5B208A8ED
:102040006946324601F0DEFF08A801F0F7FD0134D1
:1020500030B108A801F0E6FD08A801F09BFDEDE70E
:1020600008A801F097FD684601F0DCFD00E00025BE
:10207000684601F08FFD284610B070BDCC23FF1FCD
:1020800064FC000030B583B004460D46002101F029
:102090009BFD20460DF10601022201F08DFD204638
:1020A0000DF10501012201F087FD9DF805200132A7
:1020B0000D2AA8BF0D22D2B28DF805202046294650
:1020C00001F07AFD9DF805000544002305F8013C68
:1020D00003B030BD10B4828AB2B1006903788B427C
:1020E00008D104E0184613F8052B8A4208D1B0F84D
:1020F00001000AE0431D013A94B204EB84041C443D
:10210000A342EFD1002000E000205DF8044B7047AF
:1021100030B4848ABCB1026913788B4215D0531D48
:10212000013CA5B205EB85051D44002004E01A46DC
:1021300013F8054B8C4209D0B2F80120104480B24C
:10214000AB42F4D102E0002000E0002030BC704738
:1021500010B4828AB2B1006903788B4208D104E0DE
:10216000184613F8052B8A4208D1B0F803000AE09C
:10217000431D013A94B204EB84041C44A342EFD102
:10218000002000E000205DF8044B70472DE9F84383
:1021900007468846084609F01DFF00F1FF39002474
:1021A00026460CE018F8045038462946FFF792FFFF
:1021B000064438462946FFF7CBFF361A01344C4512
:1021C000F0DB29EAE979384618F80910FFF782FFB1
:1021D0003044BDE8F88300BF2DE9F04F8BB0069086
:1021E0008B4607921F461146FFF7D0FF0446DDF8E5
:1021F00018904846FFF76AFD024658462146FFF709
:1022000043FE002205929246089275E0059B0093DA
:10221000079AD45C06982146FFF75CFF0990804638
:1022200006982146FFF774FF029000268044089B21
:102230000393049045E097B1009ABB5C2D2B0ED11F
:102240005846214632460023FFF776FDA24533DC8F
:102250005846214632460123FFF7AAFD2CE04846A6
:1022600029463246FFF78AFD034658462146324644
:10227000FFF762FDA24514DD484629463246FFF7C6
:10228000C9FD0190584621463246FFF7C3FD019A29
:1022900000EA0203584621463246DBB2FFF788FDCA
:1022A0000AE0484629463246FFF7B4FD0346584641
:1022B00021463246FFF77CFD013501344545BADB46
:1022C00001364846FFF702FD864205DA029B434588
:1022D000F6DA039C049DAEE7DDF820A0099A92444B
:1022E0000698079A009BD15CFFF732FFC0EB0A000B
:1022F0000890059B01330593079809F06BFE059A3A
:10230000824283DB58460BB0BDE8F08F08B5006908
:1023100008B105F0D7F908BD10B50446FFF7F6FF80
:102320002046FFF7ABFD204610BD00BF70B5044648
:102330000D461646FFF7EAFF20463146FFF7D2FD6D
:10234000A58205EB850005F0B5F9206170BD00BFE1
:1023500030B5C3B005460C460846002101F034FCF8
:10236000204601A9022201F027FC20460DF10301BD
:10237000012201F021FC02A800214FF4807209F033
:10238000CFF9204602A99DF8032001F015FC204654
:102390000DF10601022201F00FFC2846FFF7B6FFFF
:1023A000BDF8060000EB800005F084F901462861C5
:1023B000BDF8062002EB8202204692B201F0FCFB3F
:1023C00028462146FFF7B2FDBDF80630AB8243B088
:1023D00030BD00BF10B5044600F580500C3005F04C
:1023E000ADF8204610BD00BF70B5184D2846FEF769
:1023F00029F9174C28461749224608F019FE1648B5
:10240000FEF7DEF815481E21FEF736F814481C21A9
:10241000FEF732F813481D21FEF72EF812481B2153
:10242000FEF72AF8114E3046FFF7D2FD104D304628
:102430002946224608F0FCFD0E4E3046FFF7C8FD47
:1024400030462946224608F0F3FD70BD5411FF1FA7
:102450006007FF1FD52300001022FF1F5022FF1F1F
:10246000F821FF1FAC21FF1FC421FF1FDC21FF1F2C
:10247000192300006822FF1F10B504461C30FFF727
:10248000F3FB002323826382204610BD10B504466F
:102490001C30FFF7F3FC204610BD00BF2DE9F04FC4
:1024A00093B083460E4608460DF12E01022201F03C
:1024B00083FB044630460CA9022201F07DFB002874
:1024C000A8BF002CB4BF0024012430460DF1320116
:1024D000022201F071FB0028B4BF002404F00104C3
:1024E0000094002C00F0A980BDF83230002B00F0E1
:1024F000A4804FF0000902250BEB050208920BF1B6
:1025000004030993304659462A4601F055FB0190D1
:10251000304608992A4601F04FFB82463046099919
:102520002A4601F049FB029030460BF106012A468B
:1025300001F042FB039030460BF108012A4601F0FE
:102540003BFB049030460BF10A012A4601F034FBB4
:10255000059030460BF10C012A4601F02DFB069048
:1025600030460BF10E012A4601F026FB079030465B
:102570000BF11401012201F01FFB804630460BF1E4
:102580001501012201F018FB074630460BF1160138
:10259000012201F011FB044630460DA9112201F081
:1025A0000BFB019ABAF1000FA8BF002AB4BF0023A9
:1025B0000123029A002AB4BF002303F00103039A07
:1025C000002AB4BF002303F00103049A002AB4BF19
:1025D000002303F00103059A002AB4BF002303F08F
:1025E0000103069A002AB4BF002303F00103079AEF
:1025F000002AB4BF002303F00103B8F1000FB4BFF9
:102600004FF0000803F00108002FB4BF002708F0C6
:102610000107002CB4BF002407F001040028B4BF58
:10262000002004F00100009B0340009309F1010920
:10263000BDF832304B453FF765AFBBF80030003393
:1026400018BF0123ABF81830BBF80A30003318BFAD
:102650000123ABF81A30BDF83030ABF8103000234E
:10266000ABF81230009813B0BDE8F08F428A038AAD
:102670009A4208D1408B03B2032B06D0D3F101005C
:1026800038BF00207047002070470120704700BF0E
:1026900010B50446B0F91830012B0CBF02230323F8
:1026A0000383428A038A9A4206D1B0F91A000128AC
:1026B0000CBF022003206083B4F9180002280BD15C
:1026C000A088012808D11C342046FFF70DFB2046C6
:1026D000FFF714FB012010BD9A4207D204F11C0041
:1026E000FFF724FC638A0133638210BDB4F91A300A
:1026F000022B0BD1E389012B0AD11C342046FFF7B2
:10270000F3FA2046FFF7FAFA012010BD002010BDB1
:10271000002010BD1C307047B0F91830022B01D1D9
:1027200000887047B0F91A30022B0CBF4089C0886E
:10273000704700BFB0F91830022B01D140887047B4
:10274000438B023B9BB2012B94BF80890089704769
:10275000007D7047407D7047807D704710B504460E
:102760004368002B03DD806808B104F0ABFF20460E
:1027700010BD00BF10B504464368002B03DD806820
:1027800008B104F09FFF204610BD00BF10B50446FD
:102790004368002B03DD806808B104F093FF2046F6
:1027A00010BD00BF10B504464368002B03DD8068F0
:1027B00008B104F087FF204610BD00BF10B50446E5
:1027C0004368002B03DD806808B104F07BFF2046DE
:1027D00010BD00BF10B504464368002B03DD8068C0
:1027E00008B104F06FFF204610BD00BF10B50446CD
:1027F0004368002B03DD806808B104F063FF2046C6
:1028000010BD00BF10B504464368002B03DD80688F
:1028100008B104F057FF204610BD00BF08B5C1B293
:102820000148FDF7FFFF08BD5411FF1F2DE9F041DE
:1028300088B004460E4604A8FFF716FA04A81C2127
:102840000922FFF721FB04A80121FFF741FA04A8A0
:10285000FFF73AFA054604A8FFF738FA0095019009
:102860000223029317250395204604A9002213464C
:10287000FEF750FA04A8FFF727FA074604A8FFF767
:1028800025FA00970190222302930395204604A97C
:1028900000221346FEF73EFA04A8FFF715FA074692
:1028A00004A8FFF713FA00970190422302930395BF
:1028B000204604A900221346FEF72CFA04A8FFF7CD
:1028C00003FA074604A8FFF701FA00970190622374
:1028D00002930395204604A900221346FEF71AFA34
:1028E000344F384604A932680023FFF775FC04A86A
:1028F000FFF7EAF9054604A8FFF7E8F9009501900B
:102900000423029318250395204604A900221346A8
:10291000FEF700FA384604A972680023FFF75CFC52
:1029200004A8FFF7D1F9804604A8FFF7CFF9CDF846
:1029300000800190242302930395204604A90022DD
:102940001346FEF7E7F9384604A9B2680023FFF7FB
:1029500043FC04A8FFF7B8F9804604A8FFF7B6F9CE
:10296000CDF800800190442302930395204604A9EA
:1029700000221346FEF7CEF9384604A9F268002378
:10298000FFF72AFC04A8FFF79FF9064604A8FFF703
:102990009DF900960190642302930395204604A9B3
:1029A00000221346FEF7B6F904A8FFF767FA08B04D
:1029B000BDE8F081DC21FF1F2DE9F0438BB0054617
:1029C0000E4606A8FFF750F901F030F8804606A839
:1029D00080210922FFF758FA06A80121FFF778F9AC
:1029E00006A8FFF771F9044606A8FFF76FF90094EF
:1029F0000190002402940394284606A92246234607
:102A0000FEF788F9244F384606A932462346FFF7D9
:102A1000E3FB06A8FFF758F9064606A8FFF756F9A4
:102A200000960190012602960396284606A92246A2
:102A30002346FEF76FF9404603F09CFA8146404674
:102A400003F0AEFA034604A814494A4609F0B6F862
:102A5000384606A904AA2346FFF7BEFB06A8FFF7DF
:102A600033F9804606A8FFF731F9074606A8FFF7B5
:102A70002BF9CDF800800197C0F1800002900396F9
:102A8000284606A922462346FEF744F906A8FFF782
:102A9000F5F90BB0BDE8F083DC21FF1F34FC00002A
:102AA0002DE9F04F91B00546884616461F4608A806
:102AB000FFF7DAF8614C94E80F0010AC04E90F005E
:102AC0005F48FDF7F3FC83465E48FDF7EFFC824666
:102AD0005D48FDF7EBFC81465C48FDF7E7FC0446EA
:102AE0003FB11A9B18685A4903F070F90022594BFC
:102AF0001A60BBF1010F14BF00276FF000072AF026
:102B0000020ABAF1010F1BD1524B1B6863B9504B3B
:102B10009B780133DBB2172B02D84D4A93700FE03C
:102B200000224B4B9A700BE0494B5B780133DBB2D0
:102B30003B2B02D8464A537002E00022444B5A70A5
:102B400029F00209B9F1010F1BD1424B1B6863B98F
:102B50003F4B9B78013BDBB2172B02D83C4A93706A
:102B60000FE017223A4B9A700BE0394B5B78013B30
:102B7000DBB23B2B02D8364A537002E03B22344B87
:102B80005A70012C0ED1334B1B681BB90122314BFB
:102B90001A6007E02E480023037003F015FA1A9C10
:102BA0002060012728464146FFF706FF1EB92A4E3E
:102BB000DFF8BC8001E0294EB046254C05A8284925
:102BC000A278637808F0FAFF224B1B68254808A911
:102BD00005AA002B14BF43463346FFF7FDFA08A8A9
:102BE000FFF772F8064608A8FFF770F8044608A831
:102BF000FFF76AF800960194C0F1800000EBD073F3
:102C00005B1002930B230393284608A90022134666
:102C1000FEF780F80F4B1968134A144B002908BFC0
:102C200013460F9328460CA9FFF700FE08A8FFF7EC
:102C300025F9384611B0BDE8F08F00BF9C170100A0
:102C40005022FF1FF821FF1FAC21FF1FC421FF1FCF
:102C50007823FF1F5423FF1FC4170100BC17010076
:102C6000E41701006822FF1FD4170100DC170100E0
:102C7000CC1701002DE9F04F89B005460C461646E9
:102C80009A4604A8FEF7F0FF5A48FDF70FFC83466A
:102C90005948FDF70BFC81465848FDF707FC804674
:102CA0005748FDF703FC07461EB1DAF80030554AD5
:102CB0001360B9F1010F0BD1524B18686368013BE7
:102CC000834205DD01304F4B1860129B03B19847DA
:102CD000B8F1010F08D14B4B1868002804DD01380A
:102CE0001860129B03B19847012F06D0BBF1010F6A
:102CF00014BF00266FF0000604E0424B1B68CAF8C0
:102D00000030012628462168FFF756FE3D4B1B6820
:102D1000002B17DD3C4804A93C4A0023FFF75CFA6E
:102D200004A8FEF7D1FF074604A8FEF7CFFF0097DF
:102D30000190002302930B220392284604A91A460D
:102D4000FDF7E8FF6368013B2E4A126893421EDDDF
:102D50002D4804A92E4A0023FFF73EFA04A8FEF7E7
:102D6000B3FF804604A8FEF7B1FF074604A8FEF7AC
:102D7000ABFFCDF800800197C0F1800002900B23DB
:102D80000393284604A900221346FDF7C3FF1D4BF9
:102D90001A68A3681C4804A953F822200023FFF7EF
:102DA0001BFA04A8FEF790FF804604A8FEF78EFFEA
:102DB000074604A8FEF788FFCDF800800197C0F110
:102DC000800000EBD0735B1002930B230393284623
:102DD00004A900221346FDF79DFF284604F10C01CB
:102DE000FFF724FD04A8FFF749F8304609B0BDE815
:102DF000F08F00BF5022FF1FF821FF1FAC21FF1FE3
:102E0000C421FF1FBC22FF1F6822FF1FF017010013
:102E1000F41701002DE9F0478CB004468A461646A7
:102E200004A8FEF721FF584B0FCB0CAD05E90F00AE
:102E30005648FDF73BFB05465548FDF737FB8146F5
:102E40005448FDF733FB80465348FDF72FFB0746F8
:102E5000BAF1000F02D03368504A1360012D05D13A
:102E60004F483168FDF7D6FC002500E0012529F028
:102E70000209B9F1010F08D1484B19683E2904DC59
:102E8000013119604648FDF7C5FC28F00208B8F189
:102E9000010F08D1414B1968002904DD013919607F
:102EA0003F48FDF7B7FC012F03D13C4B1B68336053
:102EB000002520463B49FFF77FFD04A84421082256
:102EC000FEF7E2FF04A80521FEF702FF04A8FEF7C3
:102ED000FBFE064604A8FEF7F9FE009601901E23AD
:102EE00002930C230393204604A900221346FDF706
:102EF00011FF04A842210622FEF7C6FF04A8002104
:102F0000FEF7E6FE04A8FEF7DFFE064604A8FEF77D
:102F1000DDFE009601901F2302930D2303932046AC
:102F200004A900221346FDF7F5FE04A8402104225F
:102F3000FEF7AAFF04A80F21FEF7CAFE04A8FEF7B9
:102F4000C3FE0028B8BF3F308311144A166806FB41
:102F5000033604A8FEF7BAFE0096019020230293E0
:102F60000E230393204604A900221346FDF7D2FE48
:102F7000204608A9FFF75AFC04A8FEF77FFF284661
:102F80000CB0BDE8F08700BFAC1701005022FF1F56
:102F9000F821FF1FAC21FF1FC421FF1FC022FF1F0C
:102FA0005411FF1FF81701002DE9F043ADF65C0D39
:102FB000044614A8FDF756FE002C00F0CF809D4873
:102FC000FDF7D0FA9C4C05460FCD0FC40FCD0FC4B2
:102FD0000FCD0FC495E8070084E807000022974B47
:102FE0001A60974B1C68002C00F03E836368934284
:102FF00003DDA06808B104F065FB204604F05EFB29
:10300000FFF70EF881468F4B186820B104F05AFB89
:1030100000228C4B1A60B9F11C6F9ABF09EB490072
:1030200009EB80004FF0FF3004F044FB854B186043
:1030300004A88549854A012300F05AFF04A800F03E
:10304000FDFD00284CD000227C4B1A60914536DDF6
:1030500009F10108144601257A4E7D4F0CA804A9F8
:10306000012200F0CFFF0CA800F0E8FD80B131682C
:103070000CA82144FFF706F80CA800F0D3FD316836
:103080003846214408F03AFE90B96C4B1D600FE0C1
:1030900000266A4B1E600CA800F07CFD04A800F01E
:1030A000C1FD1C2004F002FB04460120054620E07F
:1030B0000CA800F06FFD01350D344545CED104A8B4
:1030C00000F0B0FD1C2004F0F1FA04464E4609F170
:1030D00001052846B5F1FE5F0BD94FF0FF3009E03E
:1030E0000026564B1E601C2004F0E0FA0446012026
:1030F0000546800004F0DEFAA0606560504B1C605D
:10310000544A22601B689B68534A1A60002E10DDE7
:1031100006EB460306EB830600230422484D494C88
:103120002968886821681944815004320D33B342FC
:10313000F6D1434B1B68494ADA60494A1A61494A49
:103140005A61494A9A610022484B1A600123484A51
:103150001370484A137004A800F01CFD444B1B7800
:10316000002B00F0DA80434C22780025009514A84B
:1031700041493E4BFFF77EFD2570002800F0588244
:10318000B0F1FF3F00F0568201222270384B1D70D3
:10319000364B1B680B2B00F2BC80DFE803F00618EF
:1031A000222C38447D87929CA6B000F03FFC334B24
:1031B00018602E4A1168304A926852F82110009324
:1031C00014A800220123FFF76BFC012555E2002320
:1031D000009314A82A490122174BFFF74BFD012544
:1031E0004BE20023009314A826490122264BFFF747
:1031F00041FD012541E2204B9B68D968234B009398
:1032000014A800220123FFF74BFC012535E21A4BDD
:103210009B6819691E4B009314A800220123FFF735
:103220003FFC012529E214A801211A4AFFF7F2FD0B
:10323000012522E21022FF1FE022FF1F9C23FF1F17
:10324000B822FF1F5823FF1FCC23FF1F64FC000080
:10325000F022FF1F0418010040F6000010180100C2
:1032600018180100D4170100DC170100C823FF1F44
:10327000C423FF1FBC23FF1F3823FF1FC023FF1FD2
:103280008022FF1F5C23FF1FE422FF1F1423FF1F68
:103290001823FF1FE822FF1F0023009314A8A4494E
:1032A0000122A44BFFF7E6FC0125E6E1A24B1968D9
:1032B0000023009314A80122A04BFFF7DBFC01259B
:1032C000DBE10023009314A89D4901229D4BFFF7E9
:1032D000D1FC0125D1E10023009314A89A490122D1
:1032E0009A4BFFF7C7FC0125C7E10023009314A800
:1032F00097490122974BFFF7BDFC0125BDE1002353
:10330000009314A894490122944BFFF7B3FC0125C4
:10331000B3E10125924B1D70AFE1924B1B680B2B63
:1033200000F28281DFE813F00C002E004300580009
:103330007B009E00AF00C400E6003E0159016D0114
:10334000894B9B681968894B1B680393039A884BC8
:10335000A3FB0202874B009314A8C2F34012002380
:10336000FFF79EFB002800F06781012806D1814C01
:10337000206802F0A5FE206803F0C8F80125784B0C
:103380001D707AE10022009214A87B497B4BFFF765
:1033900071FC002800F05281012804D17848774957
:1033A0000122FDF735F901256D4B1D7065E1002205
:1033B000009214A87349744BFFF75CFC002800F0DE
:1033C0003F81012804D16E486C490122FDF720F9A4
:1033D0000125634B1D7050E1634B9B68D968634BBB
:1033E0001B680493049A624BA3FB0202674B009391
:1033F00014A8C2F340120023FFF752FB002800F08C
:103400002181012807D15E485C490122FDF700F9BE
:1034100000225F4B1A700125514B1D702DE1524B5C
:103420009B681969514B1B680C930C9A504BA3FB7A
:103430000202584B009314A8C2F340120023FFF776
:103440002FFB002800F00081012807D14C484B4990
:103450000122FDF7DDF800224D4B1A700125404B8B
:103460001D700AE114A800214B4AFFF7D3FC002885
:1034700040F0EC80424841490122FDF7C9F801259E
:10348000374B1D70F9E00022009214A82849294BFF
:10349000FFF7F0FB002800F0DB80012804D138485A
:1034A00036490122FDF7B4F801252D4B1D70E4E0EB
:1034B000214B19680022009214A8204BFFF7DAFB79
:1034C000002800F0C780012810D12C4C1A4B1B6833
:1034D0001A4A12689B6804F1100053F8221008F091
:1034E0001BFD274821460122FDF792F801251C4BC0
:1034F0001D70C2E0294B009314A811490022114B02
:10350000FFF7B8FB002800F0A780012805D11C4870
:103510001A490122FDF77CF805E02148174B93F882
:103520002010FDF77FF901250D4B1D70A5E000BFB0
:103530008023FF1FEC22FF1FB822FF1F9C23FF1FC9
:10354000A023FF1F0023FF1F1C23FF1F1023FF1FAB
:103550009C22FF1F0823FF1FC422FF1F0C23FF1FF5
:10356000C423FF1FC823FF1F3823FF1F8C26FF1F04
:10357000D34D6210C023FF1F8022FF1FE022FF1FD8
:103580001022FF1F5C23FF1FE422FF1F1423FF1FD5
:10359000F421FF1F1823FF1FE822FF1F1D28000032
:1035A0005411FF1F0022009214A83B493B4BFFF728
:1035B00061FB002852D001280BD1394C206B003020
:1035C00018BF012000F006FA364821460122FDF717
:1035D0001FF80125344B1D704FE00022009214A803
:1035E0003249334BFFF746FB002839D0012804D17C
:1035F0002C482B490122FDF70BF801252A4B1D70A1
:103600003BE00022009214A82A492B4BFFF732FB23
:1036100040B3012804D1234821490122FCF7F8FFD7
:103620000125214B1D7028E001251F4B1D7024E052
:10363000012522E0002520E001251EE001251CE0F7
:1036400001251AE0012518E0012516E0012514E006
:10365000012512E0012510E001250EE001250CE016
:1036600001250AE0012508E0FEF7DAFC8146134B4C
:10367000186800287FF4CAACCDE4114C2046002124
:10368000FDF7E8F8204614A9FDF7D4F828460DF612
:103690005C0DBDE8F08300BF1C23FF1F1023FF1F3C
:1036A000E022FF1F1022FF1FC423FF1F9C22FF1FC9
:1036B0000823FF1FC422FF1F0C23FF1F5823FF1FD7
:1036C0005411FF1F2DE9F84F302003F0F3FF834B17
:1036D00098604FF00C0BC3F804B0814A1A60814A1D
:1036E00002609A68804F57609A68DFF8E0A2C2F8DB
:1036F00008A09A687D49D1607D4911617D49516179
:103700007D4991617D49D1617D4911627D49516257
:103710007D4991627D49D1627D4ADA607D4E1E61AC
:103720007D4D5D617D4A9A617D4C18467D492246FA
:1037300007F07EFC082003F0BDFF7B4B98604FF044
:103740000209C3F804901F60784A02609A687849B9
:103750005160DFF87C82C3F80C801E615D61754F9B
:103760009F6118467449224607F062FC584603F0F0
:10377000A1FF724B986003225A60C3F800A0704A00
:1037800002609A686F4951609A686F499160C3F806
:103790000C801E615D619F6118466C49224607F0EE
:1037A00047FC1C2003F086FF694B98604FF0070A26
:1037B000C3F804A0504A1A60664A02609A686649D3
:1037C00051609A68654991609A686549D160654918
:1037D00011616549516165499161C3F80C801E61B1
:1037E0005D619F6118466249224607F021FC1C205A
:1037F00003F060FF5F4B9860C3F804A04049196074
:103800005D4A02609A685D4951609A685C499160BE
:103810009A685C49D1605C4911615C4951615C49BD
:103820009161C3F80C801E615D619F611846594922
:10383000224607F0FDFB082003F03CFF564B986042
:10384000C3F804902F4A1A60544A02609A68544997
:103850005160C3F80C801E615D619F61184651493B
:10386000224607F0E5FB142003F024FF4E4B98603E
:1038700005225A60244919604C4A02609A684C49F2
:1038800051609A684B4991609A684B49D1604B49A5
:103890001161C3F80C801E615D619F611846484943
:1038A000224607F0C5FB082003F004FF454B986053
:1038B000C3F80490154A1A601C4901609A681C49B3
:1038C0005160C3F80C801E615D619F6118463E49DE
:1038D000224607F0ADFBBDE8F88F00BF3823FF1F7D
:1038E000201801002C1801003818010048180100A8
:1038F00054180100F81701006018010004180100B5
:103900006C18010078180100881801009418010053
:103910009C18010018180100D4170100A418010018
:103920006007FF1F052800008022FF1FAC18010060
:10393000B0180100DC170100ED2700005C23FF1F19
:10394000B4180100BC180100C4180100D5270000FC
:103950008023FF1FD4180100E0180100EC180100BB
:10396000F818010004190100101901001C190100C8
:10397000BD270000A023FF1F281901002C190100FA
:10398000341901003C190100441901004C190100CF
:1039900054190100A52700001C23FF1F5C1901001A
:1039A000641901008D2700009C22FF1F6C19010083
:1039B000741901007C19010084190100901901009B
:1039C00075270000C422FF1F5D2700003C1801007E
:1039D0001018010008B580B110481B21FCF742FD0A
:1039E0000F481D21FCF73EFD0E481C21FCF73AFD57
:1039F0000D481E21FCF736FD08BD08481E21FCF7C6
:103A000031FD07481C21FCF72DFD06481D21FCF760
:103A100029FD05481B21FCF725FD08BD5022FF1F8D
:103A2000F821FF1FAC21FF1FC421FF1F10B502F0BA
:103A300067FB04460448FCF795FD0368012B08BFAB
:103A400004F56164204610BD1022FF1F014A024B9D
:103A50001A6070470400FA050CED00E008B502F0AA
:103A60004FFD08BD10B582B002AB03F8011D02681E
:103A7000546819460122A04702B010BD10B5044693
:103A8000C3691BB901230371002010BD0020187108
:103A9000E06992B201F0B4FDE3691B7913B101232F
:103AA0002371002010BD00BF00B583B0C06960B1B4
:103AB0000DF10701012201F009FB01280CBF9DF85F
:103AC00007004FF6FF7000B201E04FF0FF3003B087
:103AD0005DF804FB30B583B00446C06978B10DF1E0
:103AE0000701012201F0F2FA01280AD19DF80750DE
:103AF000E069C168013901F0D7FB284603E00020E6
:103B000001E04FF0FF3003B030BD00BF08B5C06921
:103B100008B101F001FC08BD2DE9F04104460E4654
:103B20009046002303714FF47A7282600373114B45
:103B30000360242007F0B4FAE061B8B135460746C7
:103B400006F1200E3E4628686968AA68EB680FC631
:103B5000103537467545F5D12868306004F10D0001
:103B600041460C2208F066FA002363762046BDE841
:103B7000F08100BFC8190100002202714FF47A7170
:103B80008160027302490160C2614273704700BFE5
:103B9000C8190100014B0360704700BFC81901003C
:103BA0000D307047C3692BB19879012894BF00206C
:103BB000012070470020704708B5C06910B101F0BE
:103BC00085FA08BD002008BD08B5C06928B101F01C
:103BD0006BFB003018BF012008BD002008BD00BFEE
:103BE000C3690BB1D86870474FF0FF30704700BF12
:103BF000C3690BB1986970470020704738B5044617
:103C0000C36963B1FFF7F4FF05462046FFF7E8FFFD
:103C1000281A47F6FF73984228BF184638BD00207F
:103C200038BD00BF10B50446C06930B101F0A0FB3B
:103C3000E06907F03DFA0023E36110BDC36923B1D9
:103C40009879003018BF012070470020704700BFEE
:103C500010B58AB004460A4600238DF80830094999
:103C600001918DF80A3001A82146012301F032FCB0
:103C7000041C18BF012414B101A801F079FB2046EF
:103C80000AB010BDF0190100F0B40C68035D2F2BD1
:103C90001CD101341AE0002563B11EE00135013466
:103CA00007F8013F0C2D05D016F8013F2F2B01D04E
:103CB000002BF3D100235355035D2F2B08BF013494
:103CC0000C60005D003018BF01200BE00619035D99
:103CD0002F2B08BF0025EDD0DDE701341370174608
:103CE0000125E1E7F0BC70472DE9F04F99B082461D
:103CF0000F469146984600238DF81C30244A0692C0
:103D00008DF81E308DF840300F928DF842300193BF
:103D10000C4606AE4FF0010B03E00FAC23463446D1
:103D20001E46504601A902AAFFF7AEFF054680F0E5
:103D30000102204602A9D2B24346C84730B9BC426C
:103D40001CD0204601F014FB00201EE07DB130465F
:103D5000214602AA5B4601F0BDFB0546BC4211D0DC
:103D6000204601F005FB002DD8D100200DE0BC421B
:103D700006D0204601F0FCFA012006E0002004E015
:103D8000012002E00028C8D1002019B0BDE8F08F62
:103D9000F019010038B504460A46FE290CD1FE236D
:103DA000037000F0A3FA054600F08CFAA070D5F17C
:103DB000010038BF002002E0012100F073FEA8B12D
:103DC000251D28462146012201F0F6FE28B9284685
:103DD0002146002201F0F0FE50B104F12C002946EA
:103DE00001F04AF9003018BF012038BD002038BD6D
:103DF000002038BD2DE9F04F99B0814693460193DC
:103E000000238DF81C30394A06928DF81E308DF84B
:103E100040300F928DF8423006A8043101F02CF9A1
:103E20005C460FAE06AD4FF02F084FF0000A2CE0B5
:103E300023782F2B01D1013427E03F1BFFB20C2F39
:103E400028BF0C2702A821463A4608F0F3F818AB21
:103E50003B4403F858AC304601F08AFA3046294614
:103E600002AA012301F036FB40B9002389F804308F
:103E70001E4AC9F8002089F8063032E03C44284642
:103E800001F076FA2B4635461E462046414607F09D
:103E9000BBFE07460028CBD1CBEB0404019B1C6082
:103EA0002B7989F80430114BC9F800306B7989F807
:103EB0000530AB7989F80630AB68C9F80830EB6893
:103EC000C9F80C302B69C9F810302B7D89F81430F3
:103ED000AB69C9F81830EB69C9F81C302B6AC9F80E
:103EE0002030484619B0BDE8F08F00BFF01901003E
:103EF000F0B5A7B0044615461F4602A801ABFFF770
:103F000079FF01996E18695C19BB9DF80C308DF82A
:103F10005430344B14939DF80D308DF855309DF886
:103F20000E308DF85630049B1693059B1793069B15
:103F300018939DF81C308DF86430089B1A93099BE8
:103F40001B930A9B1C93204614A9274AFFF7E4FD04
:103F500045E000218DF83010224B0B938DF8321084
:103F60009DF80E301BB92046FFF706FE37E00BA880
:103F700002A932463B4601F0ADFA18B92046FFF7D8
:103F8000FBFD2CE002A801F0F3F917F0060F03D0B7
:103F90000BA8119901F088F99DF830308DF8783030
:103FA000104B1D939DF831308DF879309DF83230EB
:103FB0008DF87A300D9B1F930E9B20930F9B2193BE
:103FC0009DF840308DF88830119B2393129B2493E9
:103FD000139B259320461DA93246FFF79DFD2046E1
:103FE00027B0F0BDF0190100E019010008B500F19B
:103FF0002C0308461946024A0023FFF775FE08BD48
:10400000513C0000F0B59FB006460D46174649E00A
:104010009DF810401CB93046FFF7AEFD4BE0E52C93
:1040200040D02E2C3ED09DF81B1011F0080F39D136
:1040300000238DF83430214A0C928DF8363004A8D4
:10404000694600F0B9FF0CA8E9696A463B4601F0F1
:1040500041FA18B39DF834308DF85830174B15934A
:104060009DF835308DF859309DF836308DF85A303E
:104070000E9B17930F9B1893109B19939DF8443038
:104080008DF86830129B1B93139B1C93149B1D93FC
:10409000304615A96A46FFF73FFD0CE03046FFF7B2
:1040A0006BFD08E0E86904A901F0B6F80028AFDC70
:1040B0003046FFF761FD30461FB0F0BDF01901003A
:1040C00010B50446FFF76EFD18B1E36900229A604F
:1040D000DA6010BD064B00229A700221596083F805
:1040E000242083F830200349D96283F832207047B6
:1040F000CC23FF1FF019010040F24343074A13602D
:10410000043213604FF4886104321160043213608A
:104110000432136004321360704700BF00D00440C3
:104120000023064A13600432136004321360043221
:1041300013600432136004321360704700D00440EF
:10414000114B196821F008021A60104A0A40104306
:1041500040F460221A60083B1B6813F0080F07D177
:104160000B4B0C490A6812F0080F01D1013BF9D141
:1041700040F4602242F00802034B1A6004331A68CC
:1041800042F480121A6070472C100B400700F0FFB9
:10419000FFFF0F0024100B40224B1A6842F08002F0
:1041A0001A60214A136813F0010FFBD1136813F052
:1041B000020FF7D11D4B18604FF0807319481C494E
:1041C0000268013B0A4002D1002BF9D102E00BB199
:1041D000012A08D0134A136843F4702343F0010303
:1041E0001360012070470F4B1B6813F0800F06D03F
:1041F0000C4B1A6842F001121A6003207047094BF9
:104200001B6813F4803F06D0064B1A6842F0011277
:104210001A6005207047034B1A6842F001021A60C9
:104220000020704730100B4024100B400C100B4046
:1042300001000E00F8B50022104B1A601048FFF77D
:10424000ABFF63240F4D0D4F0D4E06E000233B6086
:104250003046FFF7A1FF013C06D02B6813F0040F96
:1042600008D00028F2D0F8BD30B90CB10020F8BD5C
:104270000520F8BD0028F9D0F8BD00BF08100B409C
:104280000000DB0C24100B4010B504460022094B43
:104290001A600948FFF780FF50B9084B1B68054BAF
:1042A0001C600748FFF778FF18B9044A126810BD70
:1042B00010BD10BD08100B4000001A3710100B4045
:1042C00000000229084B1B784BB9074B9B7843B180
:1042D000054B5B78002B14BF0320022070470020A1
:1042E00070470120704700BF2024FF1FF8B5A24B84
:1042F0001A6842F400321A6008331A6842F4005215
:104300001A6004331A6842F002021A6004331A6811
:1043100042F002021A60994B1A6822F001021A60F8
:10432000FFF7FEFE964A974B1A601A46136813F081
:10433000807FFBD10022944B1A604FF48132BC3B4A
:104340001A60282224331A604FF010121C331A60AE
:1043500041F29000FFF7F4FE8C4A136813F0030F4C
:10436000FBD1FFF7C9FE4FF6FF72894B1A60894AED
:1043700004331A604FF4FA71824A136843F0006301
:104380001360136813F0006FFBD10139F5D1804B36
:104390001A6842F080021A600C3B1B6813F4803FDD
:1043A00000F01E8125E17C4B1B684FF4D5727B4BDE
:1043B0001A607B48FFF7F0FE20B111E00120794B35
:1043C0001870F8BD744B1A681B68B3F5D57F03D01D
:1043D0000120744B1870F8BD0122724B5A7005E031
:1043E000052803D001206F4B1870F8BD0020FFF79F
:1043F0004BFF18B101206B4B1870F8BD664B1B6862
:1044000013F4401F1FD0674B5B78002B664F08BF2B
:104410004FF440170024604E644D01343846FFF7D6
:1044200033FF002840F0DA803368002BC0F2F080C0
:10443000AC42F2D104E0584B1B6813F0804F02D11C
:104440000022584B5A700022544B1A605848FFF70C
:10445000A3FE48B9504B1B680022504B1A605548C8
:10446000FFF79AFE20B111E001204E4B1870F8BD05
:10447000494B1A681B681B0C1B044A4A5360474A85
:1044800013604D48FFF788FE20B1C6E00120454B80
:104490001870F8BD494B1A68120E424BDA70484B3F
:1044A0001B6813F4400F16D1444B1968186800F0CC
:1044B0000300043B1A681B68920D42EA8022013215
:1044C000C3F3C21302339A40C1F30323093B9A405A
:1044D000344B9A6009E0334B01229A70394A1268D2
:1044E000C2F31522013292029A602E4B5A682B4B6E
:1044F0001A603548FFF750FE50B9274B1B684FF440
:104500000072264B1A603148FFF746FE20B10FE0DB
:104510000120244B1870F8BD1F4B1B68214B5A68B3
:104520001E4B1A602A48FFF737FE002879D103E0B6
:1045300001201C4B1870F8BD174B1B680222174B4B
:104540001A602448FFF728FE00286AD1124B1B6826
:10455000214B1A6822F006021A601A6842F0020221
:104560001A60FFF7DDFD4FF49070FFF7E9FDFFF7EC
:10457000C3FD0C4B1878F8BD3080044000D00040DB
:10458000008000012C100B40C0100B4024100B4089
:1045900030100B40BB007F1110100B4008100B4077
:1045A00000001A082024FF1F00003040A0860100F0
:1045B0000000090200001A030000090918100B404E
:1045C0001C100B4014100B4000001B0700001A10B9
:1045D00000001A3700001A0628100B400120F8BD11
:1045E000124B0220187000225A605A709A709A601A
:1045F000F8BD0E4B00201870586058709870986085
:104600000B4B1860FFF7C8FD00283FF4CCAED5E691
:10461000084B9C423FF614AF0DE70120034B187086
:10462000F8BD0120014B1870F8BD00BF2024FF1F0A
:1046300008100B409F86010070B50446364B1B786E
:10464000002B65D1344B5B7803B949024FF6FF72FA
:10465000324B1A60283B19604FF48132043B1A60D8
:104660002F48FFF799FD002854D12E4B1B682B4A89
:10467000136843F02001116013F4E00F12D007E03B
:104680002B6843F020062E60403213F4E00F0FD069
:1046900043F4E00343F02003204A1360FFF7CAFD10
:1046A00001202CE0224604F5E0701F4C1F491B4DF1
:1046B000236813F4006FFBD00B6813600B68536022
:1046C0000B6893600B68D3600B6813610B685361D0
:1046D0000B6893610B68D3610B6813620B685362BC
:1046E0000B6893620B68D3620B6813630B685363A8
:1046F0000B6893630B68D3638242C1D10020074AE1
:10470000136813F0020FFBD0094A044B1A6070BD06
:10471000032070BD70BD00BF2024FF1F30100B4070
:1047200010003A1110100B4024100B4020100B40C9
:104730002200000170B506462D4B1B78002B53D18B
:104740002B4B5B7803B949024FF6FF72294B1A6075
:10475000283B19604FF48132043B1A602648FFF76A
:104760001BFD002842D1254B1B6806F50070214D2A
:10477000234C2B6813F0100FFBD02B6813F4E00FC1
:104780000AD01C4A136843F4E00343F0100313609B
:10479000FFF750FD01201EE006F14001334653F8BB
:1047A000042B22608B42FAD140362B6843F0100371
:1047B0002B602B6813F4E00F0AD00E4A136843F401
:1047C000E00343F010031360FFF734FD012002E023
:1047D0008642CED10020074A136813F0020FFBD0A7
:1047E000084A044B1A6070BD032070BD70BD00BF45
:1047F0002024FF1F30100B4000003A1810100B400F
:1048000020100B4012000001084B1A6842F480622D
:104810001A604FF00042DA62FF225A631A46D36AE6
:10482000002BFCDA014B986BC0B2704700C002400D
:10483000064B1A6842F480621A604FF00042DA6256
:1048400058631A46D36A002BFCDA704700C0024056
:1048500008B505281CD8DFE800F003070B0F131775
:104860000E4A0F4B1A6016E00C4A0D4B1A6012E00C
:104870000C4A0B4B1A600EE00B4A094B1A600AE017
:104880000A4A074B1A6006E0094A054B1A6002E023
:10489000084A034B1A6001F029FA08BD000001B86C
:1048A0003024FF1F011000380320003801000238B7
:1048B000043000380650013808B50078012101F0B5
:1048C00061FE164B1B78002B27D00022134B1A7069
:1048D000134B1B780BB313F0010F03D0114B1A6865
:1048E000114B1A600E4B1B7813F0020F03D00D4BC7
:1048F0005A680E4B1A600A4B1B7813F0040F03D052
:10490000084B9A680A4B1A60054B1B7813F0080F86
:1049100003D0044BDA68074B1A6008BD3424FF1F2C
:104920006826FF1F5826FF1F00E100E004E100E0B9
:1049300008E100E00CE100E010B52A4B1B78002BE9
:104940004BD10122274B1A70274B1A68274B1B7833
:10495000002B35D072B6254B1B7813F0010F07D012
:10496000234B1C68234909682140234C21601960AE
:104970001E4B1B7813F0020F07D0204B1C681D49FB
:10498000496821401C4C61601960184B1B7813F07A
:10499000040F07D01A4B1C68164989682140164C31
:1049A000A1601960114B1B7813F0080F07D0154B4D
:1049B0001C681049C96821400F4CE160196062B65B
:1049C000114BDB68934208D00F4B10491960DA6035
:1049D00042F080421A610E4A1A600078002101F00C
:1049E000D1FD10BD3424FF1F3024FF1F6826FF1F98
:1049F00080E100E04826FF1F5826FF1F84E100E009
:104A000088E100E08CE100E000C0024001401F00AE
:104A100000001F8070B582B00E460B4B1B680093E0
:104A2000009C094DA4B2FFF7EFFEFF2807D02B68CA
:104A30000193019B9BB21B1BB342F4DB01E00120FD
:104A400000E0002002B070BD8C26FF1FF8B50546BF
:104A50000F4616464FF49671FFF7DCFF47F0400013
:104A6000FFF7E6FE182426FA04F0C0B2FFF7E0FED6
:104A7000083C14F1080FF6D127B1082F0CBF87208E
:104A8000FF2000E09520FFF7D3FE0024FFF7BCFED7
:104A9000687010F0800F03D00134B4F5807FF5D139
:104AA000F8BD00BF2DE9F04F87B004460191002307
:104AB00083700270884B1B680393039FBFB210463C
:104AC000012101F05FFD2078012101F08DFD2078AA
:104AD000012101F057FD814B1A6842F480521A609F
:104AE0000620FFF7B5FE7E4B1A687E4B1B78002B25
:104AF00035D072B67B4B1B7813F0010F07D07A4B81
:104B000018687A4909680140794801601960754B55
:104B10001B7813F0020F07D0764B18687349496869
:104B200001407348416019606E4B1B7813F0040F0D
:104B300007D0714B18686D49896801406C488160E5
:104B40001960684B1B7813F0080F07D06B4B18687F
:104B50006649C96801406648C160196062B6684B21
:104B6000DB68934200F0A980654B66491960DA6002
:104B700042F080421A61644A1A609EE02846FFF7BC
:104B800057FE013E16F0FF06F8D1564B1B780BB3CB
:104B900013F0010F03D0564B1A685C4B1A60514B4F
:104BA0001B7813F0020F03D0514B5A68584B1A6010
:104BB0004C4B1B7813F0040F03D04D4B9A68554BA8
:104BC0001A60484B1B7813F0080F03D0484BDA6883
:104BD000514B1A602046FFF7AFFE4FF00008DFF898
:104BE000F89008E0D9F800300493049BDB1B9BB2DB
:104BF000B3F5FA6F5DD8204641464246FFF726FFDF
:104C0000054660700128EDD1204608214FF4D57289
:104C1000FFF71CFF10F0040F04D00123A3704FF026
:104C2000000A0FE04FF00408FFF7EEFD607008F196
:104C3000FF3313F0FF08F7D1AA283AD10223A3705B
:104C40004FF0804A4FF037094FF00008DFF888B086
:104C500008E0DBF800300593059BDB1B9BB2B3F546
:104C6000FA6F26D8204649464246FFF7EFFE204617
:104C700029215246FFF7EAFE60700028E9D1A378A7
:104C8000022B0ED120463A210022FFF7DFFE80B929
:104C9000FFF7BAFD00F0C000C02811D10323A370B4
:104CA0000EE02046FFF708FE0198FFF7D1FD2E46E3
:104CB0000DE02046FFF700FE09E00A26FF255DE72C
:104CC000FFF7A2FDFFF7A0FDFFF79EFDE9E73046E5
:104CD00007B0BDE8F08F00BF8C26FF1F3C8004406A
:104CE0003024FF1F6826FF1F80E100E04826FF1FD9
:104CF0005826FF1F84E100E088E100E08CE100E03D
:104D000000C0024001401F0000001F8000E100E0E1
:104D100004E100E008E100E00CE100E070B582B0E1
:104D200004460E4B1B680093009D0C4EADB207E08D
:104D300033680193019B9BB25B1BB3F5967F09DC43
:104D4000FFF762FD6070FF28F2D0FE2814BF00203C
:104D5000012000E0002002B070BD00BF8C26FF1FC4
:104D6000F8B504460D4616468378032B18BF4D024E
:104D7000FFF7E2FD204611212A46FFF767FE0028D3
:104D800047D12046FFF7CAFF002842D0234B244AD0
:104D90001A60244A5A635A635A6306F5FD7E7645C3
:104DA00013D2B01C06F5FE771946CB6A13F0F00F4C
:104DB000FBD04A638B6BC3F3072500F8025C00F855
:104DC000013C0230B842F0D100E0B64606F500766C
:104DD00076450DD97146114AD36A13F0F00FFBD016
:104DE000936BC3F3072008704B7002318E42F3D8E7
:104DF0000A4B0B4A1A600B4A5A631A46D36A13F0DD
:104E0000F00FFBD0054B9B6B2046FFF755FD0120B3
:104E1000F8BD2046FFF750FD0020F8BD00C002405D
:104E200000041F80FFFF0090F8B506461E4B18686F
:104E300040F4806018604FF00040D862596311461A
:104E400002F500770446DA6A002A08DBFBE7DA6A33
:104E5000002A0DDBFBE7D36A002B15DBFBE70846D6
:104E60000A781D6845F480651D60DC625A63EEE7D0
:104E700042781D6845F480651D60DC625A6302312A
:104E8000B942E0D1084AE6E7FF20FFF7D1FCFF2056
:104E9000FFF7CEFCFFF7B8FC707000F01F0005288C
:104EA00014BF00200120F8BD00C0024070B50446C8
:104EB00016460D4629B38378032B18BF4D02FFF722
:104EC0003BFD204618212A46FFF7C0FDC8B9204601
:104ED000FE213246FFF7A8FF98B120464FF4167125
:104EE000FFF798FD68B120460D210022FFF7AEFDC7
:104EF00038B9FFF789FC20B92046FFF7DDFC012017
:104F000070BD2046FFF7D8FC002070BD014A024B5F
:104F10001A607047032000383024FF1F10B5044684
:104F2000006A012104F1080200F0BCFD034650B103
:104F3000E3693BB9A368E361637963F07F0363715D
:104F4000012300E00123184610BD00BF70B50646DE
:104F5000FFF7E4FF0346E0B1336AB268023A197C16
:104F600002FA01F55A6915441C794CB1013D281922
:104F700000F0CEFC034660B1013C14F0FF04F6D112
:104F8000336A1B7C4FF400729A40B3691344B361D7
:104F90000123184670BD00BF10B50446006900F03B
:104FA00087FC20B1207D034B03EB401010BD002097
:104FB00010BD00BF4424FF1F70B400231A462E26E4
:104FC000C45C202C09D0DCB2082C02D1541C8E54B5
:104FD000E2B2541CC55C8D54E2B201330B2BEFD10D
:104FE00000238B5470BC70472DE9F0010023202270
:104FF000CA5401330B2BFBD10138002507264FF093
:1050000008084FF00A0C1B4F21E02E2C01D03A4625
:1050100006E00A2E24D04546664618E0A34221D079
:1050200012F8013F002BF9D1AE421DD3A4F12103A8
:10503000DBB25D2B1AD86B1CDBB20D44A4F161020C
:10504000D2B2192A9CBF203CE4B22C701D4610F845
:10505000014F002CD9D10878203818BF012006E074
:10506000002004E0002002E0002000E00020BDE875
:10507000F0017047F719010038B504460D468379F1
:105080000BBB91F82020102A07D102238371002343
:10509000C3614B8C5B0183610CE0202A14D1032394
:1050A0008371496AC161284604F1180200F086FC48
:1050B000034648B12562012363710022A260E260C9
:1050C0002261227500E00023184638BD2DE9F04F1B
:1050D00083B00446884601928379002B75D04379CA
:1050E00013F0010F74D08269C368D11A0198884205
:1050F00001D98BB20193019B002B63D01D46DFF8D1
:105100000CA1DFF80C91DFF80CB1E368C3F30807DA
:10511000A279022A04D1226A516A01EB53211BE0D1
:10512000206A0679013E06EA5326F6B25FB956B9FF
:1051300013B9E369A36006E0224652F8081F00F0A5
:1051400007FC002847D0226AA368023B117C03FABF
:1051500001F1526911443144C7F500739D42C6BF45
:105160001E46B6B22E46637913F0400F02D1B6F553
:10517000007F3AD1D9F8003099423DD135E0404620
:10518000FFF75AFAD0F1010038BF002002E0424692
:10519000FFF7E6FD10B3B0440DE05744B81987425D
:1051A00009D03B46424613F8011B02F8011B83421B
:1051B000F9D1C71BB844E3683344E360AD1BADB21B
:1051C000002DA2D1019B98B20DE04FF6FF700AE0CE
:1051D0004FF6FF7007E04FF6FF7004E04FF6FF70E8
:1051E00001E04FF6FF7000B20CE00846002100F02D
:1051F0005FFB0028D1D1F4E7DBF800000378FE2B39
:10520000C5D1BCE703B0BDE8F08F00BF4424FF1F49
:105210006807FF1F4024FF1F70B505460C468379C1
:10522000012B1CD9C36813F01F0F1AD1202609E0E7
:10523000237883B1E52B05D02E2B03D0E37A13F02E
:10524000080F10D0284621463246FFF73FFFC0B274
:1052500043B2202BECD040F3C011C8B204E0FF20D1
:1052600002E0FF2000E0202040B270BD30B583B0E6
:1052700004468379012B0FD9C5680DF1070101227E
:10528000FFF724FF012809D1E3681F33E36005F429
:10529000F070044B184402E0002000E0002003B04E
:1052A00030BD00BF4424FF1FF8B504460F46837984
:1052B0007BB382698A422BD3022B02D1E1600123A6
:1052C00027E021B900238360C360012321E0C36884
:1052D000026A157C09355A1EEA40013921FA05F5A2
:1052E000AA4200D813B9E369A3600AE0AD1A08E046
:1052F000206AA168324600F02BFB013D034610B93D
:1053000007E004F10806002DF2D1E760012300E078
:1053100000231846F8BD00BF38B50446807918B39D
:1053200094F90530002B1BDA20460121FFF734FEEB
:105330000546C0B1A379012B9CBFA369C361A38BB0
:105340004383E38B8382094B1B682BB1183005F133
:10535000160198472B8B6B82637903F07F0363718F
:1053600000F066FA38BD002038BD00BF3824FF1FAA
:1053700010B50446FFF7D0FF034610B10023A37118
:105380000123184610BD00BFF0B583B004460D469A
:105390008379012B4ED1427902F0020202F0FF0123
:1053A000002A49D08269AA4248D3002A47D0C66859
:1053B0002946FFF779FF0346002840D04DB9206AFF
:1053C000E16900F0D3FB0346002838D00023E361F5
:1053D0001DE0206AA16801AA00F0BAFAA8B1206A0B
:1053E000019990F820704FF6F872164B102F08BFF5
:1053F000134699420BD200F0B9FB30B1206AA16884
:105400006FF0704200F006FB08B9002317E0A561B9
:10541000637963F07F0363712046FFF77DFF0346E6
:1054200068B12046B54234BF29463146FFF73CFFFC
:10543000034604E0002302E00B4600E00023184688
:1054400003B0F0BDF8FFFF0F38B5044615461F4BFB
:1054500003EB4113DA7A12F0110F02D015F0420F6C
:105460002CD121751A4A12682261998A0904E161D6
:105470005A8B1143E161D87A10F0180004D1DB692E
:10548000A3610123A3710AE0102819D1206A04F155
:10549000180200F093FA0346A8B10423A37105F0A3
:1054A0000F0363710023A360E36015F0400F09D080
:1054B00020461946FFF768FF034604E0002302E098
:1054C000002300E00123184638BD00BF4424FF1F1D
:1054D0006807FF1F2DE9F04F85B005460C469A4638
:1054E0008679002E7FD1104601A9FFF77DFD0028A7
:1054F0007BD0236A2B620027A760E760DFF8FC906F
:105500004FF0010825E0C1F3431B2046FFF7AEFE34
:10551000014600286AD003780BB1E52B09D12FB9D9
:1055200085F814B0D9F800302B6147460B7883B961
:1055300013E001A80B2206F05FF850B90AF030031F
:10554000302B53D0284659465246FFF77DFF06467A
:105550004CE0E168A3699942D5D30AF01203122BFB
:1055600044D137B128460121FFF716FD044660B942
:105570003CE0A379022B39D02046FFF7E7FC064632
:10558000002833D000232B751A4C204600212022FE
:1055900006F0C6F801AB03CB206061601A889B78E7
:1055A0002281A372144B1B682BB104F1100004F18B
:1055B0000E01984707E021232374282363740023F6
:1055C000A3730823E373238A63822383E389E3823B
:1055D00000F02EF9064648B12846297D5246FFF7CD
:1055E00033FF064602E0002600E00646304605B0DE
:1055F000BDE8F08F4424FF1F3824FF1F6807FF1FFA
:105600002DE9F04F85B00446884601928379012B3D
:1056100040F0CB80437913F0020F00F0C68013F006
:10562000040F08D08169C3688B4204D0FFF73CFEA9
:10563000002800F0BA80019A002A00F099801646EE
:10564000DFF8CCA1DFF8CCB1206AE76890F80490CD
:1056500009F1FF3909EA5729C7F3080719F0FF09CB
:105660002AD1002F40F0A580A16851B9E36933B970
:105670002046FFF753FC002840F0AC8095E0A36083
:10568000A8E003AA00F064F9002800F0B580039BAD
:10569000226A92F820004FF6F871594A102808BF84
:1056A0000A46934206D32046FFF738FC002840F014
:1056B00091807AE0A3608DE0C7F50075ADB2AE428F
:1056C00038BF3546A368023B027C934042691344CD
:1056D0009944B5F5007F1ED1DBF800304B4504BF7F
:1056E0004FF0FF33CBF80030464B18680378FE2BA1
:1056F00008D140464946FFF71DF8D0F1010038BFF8
:10570000002003E049464246FFF7D0FB00284CD07A
:1057100008F5007824E07FB9E268A3699A420BD3C8
:1057200000F086F8002840D0CBF80090364A137875
:1057300043F00103137005E04846012100F0B8F87A
:10574000002832D057447819874209D03B46424658
:1057500012F8011B03F8011B8342F9D1C71BB8449F
:10576000761BB6B2E3681D44E560002E7FF46CAF93
:10577000E368A269934205D9A361637963F07F036B
:10578000637108E0214B1B682BB1019B1BB163794E
:1057900063F07F036371637913F0080F03D0204631
:1057A000FFF7BAFD08B1019826E00123237100201C
:1057B00022E0C7F50075ADB2AE4238BF3546A368EA
:1057C000023B027C03FA02F943699944B5F5007F74
:1057D000B2D181E7B6F5007F34BF35464FF400758E
:1057E000236AA268023A197C02FA01F95B699944BA
:1057F000B5F5007F90D16FE705B0BDE8F08F00BF31
:10580000F8FFFF0F4024FF1F4426FF1F3824FF1F0F
:105810004424FF1F6807FF1F00B583B002AB03F8E5
:10582000011D19460122FFF7EBFE03B05DF804FBF2
:1058300008B51A4B1B78002B2ED0194B1868194B42
:1058400019680378FE2B07D11748FEF773FFD0F1D4
:10585000010038BF002002E0134AFFF727FBE0B148
:10586000124B196899B10E4B18680378FE2B07D1BB
:105870000D48FEF75FFFD0F1010038BF002002E0C5
:10588000094AFFF713FB40B10022084B1A600022BF
:10589000024B1A70012008BD012008BD4426FF1FDD
:1058A0004024FF1F6807FF1F4424FF1F3C24FF1FE5
:1058B00038B504460D46124B1B68834219D0FFF7DA
:1058C000B7FF0346D0B10F4B18680378FE2B08D101
:1058D0000D482146FEF7B0FED0F1010338BF00238A
:1058E00004E02146084AFFF73BFA034633B1044B74
:1058F0001C60064B1A7815431D700123184638BDED
:105900006807FF1F4024FF1F4424FF1F4426FF1F7A
:1059100010B50446FFF78CFF034680B109494B1EC2
:1059200001F2FF11002203F8012F8B42FBD1064B3D
:105930001C60064B1A7842F001021A7001231846C7
:1059400010BD00BF4424FF1F6807FF1F4426FF1F30
:1059500070B504460D461646C36801338B4225D305
:10596000C36990F82020102A0CBF080AC8091844FF
:10597000104B1B68984204D00021FFF799FF0346A3
:10598000A8B194F82030102B06D1EDB20A4B33F8B1
:105990001530336001230AE005F07F05064B53F80C
:1059A000253023F070433360012300E000231846C4
:1059B00070BD00BF6807FF1F4424FF1F2DE9F0439F
:1059C00083B0044602AE46F8041D914600254FF40C
:1059D00000780F4F204601993246FFF7B9FF034682
:1059E00088B1237C08FA03F31D4494F820104FF685
:1059F000F873102914BF39461946019B8B42E9D32D
:105A0000C9F800500123184603B0BDE8F08300BF79
:105A1000F8FFFF0FF8B504460D461746012931D9A6
:105A2000C368013399422FD8C36990F82020102A07
:105A30000CBF0E0ACE091E44164B1B689E4205D0B1
:105A400030460021FFF734FF034600B394F82030BE
:105A5000102B04D1EDB2104B23F8157004E005F0C3
:105A60007F050D4B43F825700C4B1A7842F001026C
:105A70001A70237E012B09D9A3681E44084B1E60AF
:105A8000012304E0002302E0002300E00123184684
:105A9000F8BD00BF6807FF1F4424FF1F4426FF1FF7
:105AA0003C24FF1F2DE9F04F85B006468A46009240
:105AB00017681FB101370023019305E0076801292A
:105AC00014BF002301230193F36803F10108DBB144
:105AD0003C4600254FF00209CB46A0453CBF4C4652
