:100000000000022099010000F16B0000B56B0000B8
:10001000B56B0000B56B0000B56B0000B56B000060
:10002000B56B0000B56B0000B56B0000F16B000014
:10003000F16B0000B56B0000F16B0000A56B0000D8
:10004000F16B0000F16B0000F16B0000F16B000040
:10005000F16B0000F16B0000F16B0000F16B000030
:10006000F16B0000F16B0000F16B0000F16B000020
:10007000F16B0000F16B0000F16B0000F16B000010
:10008000F16B0000F16B0000F16B0000F16B000000
:10009000F16B0000F16B0000F16B0000F16B0000F0
:1000A000F16B0000F16B0000F16B0000F16B0000E0
:1000B000F16B0000F16B0000F16B0000FD850000AA
:1000C000F16B0000818D0000F16B000009930000CE
:1000D000F16B000035990000F16B0000F16B00003E
:1000E000F16B0000F16B0000F16B0000F16B0000A0
:1000F000F16B0000F16B0000F16B0000F16B000090
:10010000A17C0000B97C0000D17C0000E97C0000EB
:10011000F16B000005710000F16B0000F16B000055
:10012000F16B0000F16B0000F16B0000F16B00005F
:10013000F16B0000F16B0000F16B0000F16B00004F
:10014000F16B0000F16B0000859E0000F16B000078
:10015000D5A30000F16B0000F16B0000F16B000013
:10016000F16B0000F16B0000F16B0000F16B00001F
:10017000F16B0000F16B0000F16B0000F16B00000F
:10018000F16B0000F16B0000F16B0000F16B0000FF
:10019000F16B0000F16B0000584B4CF2205210B58F
:1001A0001A804DF628121A8000BF00BF06F024FD09
:1001B000534B4FF030621A60524A9A60524ADA60EA
:1001C000524B4FF470021A60514B1A6812F480724D
:1001D00004D150490A604FF4A8521A604E4B1A7865
:1001E000110703D51A7842F008021A704B4B4C4C99
:1001F0004C482A221A704C4A00239918A14203D273
:10020000195899500433F8E7484B494900228B426A
:1002100002D243F8042BFAE74648474900235A58CC
:100220001A500433B3F5CC7FF9D1444B444A8021B2
:1002300003F8011B9342FBD1424B3E4A1A60424BEA
:100240008A221A70A3F5805324225A70A0221A70B1
:100250009A799207FCD59A79D406FCD43B4A9379D3
:1002600003F00C03082B394BF9D103221A715222E7
:100270005A719A799006FCD5344A9179334B4906E4
:10028000FBD5334A334911600D21516020221A7089
:100290009A7902F00C020C2AFAD12F4B2F4A1A60DD
:1002A0002F4B304A1A6000225A60072243F8042C70
:1002B0002D4AC3F80C2D62B606F0C6FD154B1B681F
:1002C000DA0705D5294806F0D7FC294B294A1A60D8
:1002D000294B1B785B0609D5254C264A2368934297
:1002E00004D1224806F0C8FC002323600BF082F9F9
:1002F00006F088FC07F0B0FDFEE700BF0E200540C9
:1003000030800440823F04000100002B88ED00E0B3
:1003100010D0034014D0034002D0074000E0074053
:10032000AC10FF1F802C01006007FF1FAC10FF1FE7
:10033000703BFF1F0002FF1F0000000000E400E010
:1003400056E400E008ED00E00050064000400640A2
:10035000448004400000050204800440C0100500F1
:1003600014E000E03F900200000020205D111B59C6
:100370001CE00340A5C3945A00F00740FFFFFFFFB5
:10038000FFFFFFFFFFFFFFFFFFFFFFFFFFFFFFFF7D
:10039000FFFFFFFFFFFFFFFFFFFFFFFFFFFFFFFF6D
:1003A000FFFFFFFFFFFFFFFFFFFFFFFFFFFFFFFF5D
:1003B000FFFFFFFFFFFFFFFFFFFFFFFFFFFFFFFF4D
:1003C000FFFFFFFFFFFFFFFFFFFFFFFFFFFFFFFF3D
:1003D000FFFFFFFFFFFFFFFFFFFFFFFFFFFFFFFF2D
:1003E000FFFFFFFFFFFFFFFFFFFFFFFFFFFFFFFF1D
:1003F000FFFFFFFFFFFFFFFFFFFFFFFFFFFFFFFF0D
:10040000FFFFFFFFFFFFFFFFFFFFFFFFDEF9FFFF23
:1004100010B5054C237833B9044B13B10448AFF33E
:1004200000800123237010BDAC10FF1F00000000EE
:10043000782C010008B5064B1BB106480649AFF3FE
:1004400000800648036813B1054B03B1984708BD07
:1004500000000000782C0100B010FF1FAC10FF1F3F
:100460000000000038B505460C46C8B2022106F06F
:1004700071FC2C6038BD00BF10B50446FFF7F2FFD9
:100480000A2363604FF47A73A3600023237501236A
:100490002361204610BD00BF08B5007806F04CFC73
:1004A000002814BF0020022008BD00BF30B583B073
:1004B0000446164B1B680093009D007806F03CFC38
:1004C000E0B92369012B05D1104B1B680193019BF7
:1004D000E36010E0E0682D1A63689D420AD9237D2D
:1004E0002BB1A068854294BF0220032003E00120C5
:1004F000207500E000200023236104E00020E0607C
:1005000020750123236103B030BD00BFAC36FF1F4F
:10051000806C7047406C70472DE9F0410C460E46E8
:10052000CF18C1EB0208A01BBC4209D0B4F5805F14
:1005300006DA204606F0FEFA08F804000134F2E775
:10054000BDE8F081F8B50C460D46CE18571A601B71
:10055000B44208D0B4F5805F05DA2046395D06F074
:10056000FFFA0134F3E7F8BD10B504460D2303602C
:10057000002102460423FFF7E5FF01462046221D25
:100580004023FFF7DFFF012010BD00BF036B013BDD
:10059000032B03D8DFE803F005080B0E0023836468
:1005A0000AE00223836407E00523836404E00A234E
:1005B000836401E0142383644369013B052B04D861
:1005C000DFE803F0070B0F13171A41F28833436477
:1005D000704742F210734364704743F698234364B4
:1005E000704747F23053436470474EF660234364CC
:1005F0007047034B43647047024B4364704700BF2E
:10060000C0D40100E0930400F8B506461746041D67
:100610000D460FCD0FC40FCD0FC40FCD0FC495E8FD
:100620000F0084E80F0027B13046FFF79DFF044616
:1006300000E001243046FFF7A9FF2046F8BD00BFC7
:1006400010B50446002102460423FFF765FF01466A
:1006500023680D2B09D12046221D4023FFF75CFFA4
:100660002046FFF793FF012010BD002010BD00BF02
:1006700010B5044603680D2B01D0FFF7E1FF201DE4
:1006800010BD00BF38B50446002140F8041B4022CD
:100690000BF018FB2046FFF7D3FFD8B900236360A7
:1006A000A360E3600A222261636104F118050A4A2B
:1006B00003CAA061696012782A72A362E3622363AD
:1006C0006363A363E36323642046FFF75FFF204671
:1006D000FFF74AFF204638BD4001010008B506F08B
:1006E000E5F908BD30B4034642F20C01441800227B
:1006F000425000F50051086000F5805542F20401B7
:10070000455042F20801585042F21401425042F260
:100710001801425042F22801425442F21C01425058
:1007200042F220014254C823237130BC704700BFFD
:100730002DE9F04F89B004460591069207935FFAC0
:1007400081FB5846012106F005FB069AD2B20192C0
:100750001046012106F0FEFA079BDBB20293184611
:10076000012106F0F7FA129AD2B203921046012143
:1007700006F0F0FA139B5FFA83FA5046012106F067
:10078000E9FA149A5FFA82F94846012106F0E2FA82
:10079000159B5FFA83F84046012106F0DBFA169AB2
:1007A000D7B23846012106F0D5FA179BDEB23046A3
:1007B000012106F0CFFA189AD5B22846012106F099
:1007C000C9FA199BDBB204931846012106F0C2FA5C
:1007D0005846002106F08CFA0198002106F088FAAC
:1007E0000298002106F084FA0398002106F080FAAE
:1007F0005046002106F07CFA4846002106F078FABF
:100800004046002106F074FA3846002106F070FADE
:100810003046002106F06CFA2846002106F068FAFE
:100820000498002106F064FA42F22C03059AE25083
:1008300042F23003069AE25042F23403079AE25041
:1008400042F23803129AE25042F23C03139AE25009
:1008500004F50153149A1A6042F24403159AE250C7
:1008600042F24803169AE25042F24C03179AE250C1
:1008700042F25003189AE25042F25403199AE2509D
:1008800009B0BDE8F08F00BF08B5012242F228038D
:10089000C25400F500500C300249372207F0A0F98D
:1008A00008BD00BF210F0000002242F22803C254FD
:1008B000704700BF3F299DBF42F21C03C150012079
:1008C0000020704702299DBF42F22003C15401203D
:1008D0000020704738B5044642F2040540594FF4F1
:1008E000805205F0A1FE04F50053196862591A60A0
:1008F000615138BD42F20803C25842F20403C358A2
:100900009A4205D138221346013B7FF4FDAFFAE746
:100910000120704742F22403C15070472DE9F00FC7
:1009200086B0804642F20803C35842F21802825849
:1009300003EBC2110291103203EBC212039242F296
:100940001403C35801279F40FFB242F22003C35C47
:10095000013343F3000C5FFA8CFC43F34003DEB237
:10096000002300F5005909F11C0900F50155143563
:10097000984A00F5005A0AF12C0ACDF814A000F5A7
:10098000005B0BF1300BCDF810B000F500503430A7
:1009900008F5005138310191D9F80010994240F022
:1009A0000A81DDF814A09AF8004052F834404FF064
:1009B000010A84F880A0DDF808B01BF801403C4033
:1009C000DDF80CA01AF801103940D5F800A05FFA44
:1009D0008AFA52F83AA04FF0010B8AF800B1DDF81C
:1009E00010B0DBF800A014EA0C0F5FFA8AFA52F894
:1009F0003AA04FF0010B14BF8AF880B08AF800B11A
:100A0000D0F800A011EA0C0F5FFA8AFA52F83AA067
:100A10004FF0010B14BF8AF880B08AF800B1DDF8FE
:100A200004B0DBF800A034425FFA8AFA52F83A4088
:100A30004FF0010A14BF84F880A084F800A142F2AC
:100A40003C0458F804403142E4B252F834104FF0FC
:100A5000010414BF81F8804081F80041297852F8E0
:100A60003110012481F880402344802B94D142F23C
:100A7000500318F80320574B53F8323083F8804066
:100A800008F501531A6842F2180358F8033013F0BE
:100A9000010FD2B24F4B53F8323019BF224683F8C0
:100AA0008020012283F8002142F2440358F80320F9
:100AB00042F2180358F8033013F0020FD2B2454B3C
:100AC00053F832304FF0010214BF83F8802083F8CE
:100AD000002142F2480358F8032042F2180358F864
:100AE000033013F0040FD2B23A4B53F832304FF0C8
:100AF000010214BF83F8802083F8002142F24C03E6
:100B000058F8032042F2180358F8033013F0080F86
:100B1000D2B2304B53F832304FF0010214BF83F899
:100B2000802083F800212B4A42F2500318F803304A
:100B300052F83310012381F8003142F22C0118F8E9
:100B4000011052F8312082F8003142F2140358F8B3
:100B50000330022B06D0032B06D0012B0CBF022042
:100B6000012002E01E2000E02D2042F2180258F879
:100B700002200132102A04D042F2180348F8032060
:100B800024E0002142F2180248F802100133042B3D
:100B900004D042F2140248F8023017E0002242F278
:100BA000140348F8032008F500531A6842F20803BA
:100BB00048F803200AE00299CC5C3C40DDF80CA028
:100BC0001AF803103940D5F800A000E706B0BDE8D8
:100BD000F00F7047E42501002DE9F00F86B0804644
:100BE00042F20803C35842F21802825803EBC211C2
:100BF0000291103203EBC212039242F21403C35863
:100C000001279F40FFB242F22003C35C013343F34C
:100C1000000C5FFA8CFC43F34003DEB2002300F5C6
:100C2000005909F11C0900F5015514359E4A00F5DB
:100C300000542C34059400F5005A0AF1300ACDF81E
:100C400010A000F50050343008F5005B0BF1380BB4
:100C5000CDF804B0D9F80010994240F01081DDF8C9
:100C600014A09AF8004052F834404FF0010A84F87A
:100C700080A0DDF808B01BF80140274214BF002413
:100C80000124DDF80CA01AF801100F4214BF002156
:100C90000121D5F800A05FFA8AFA52F83AA04FF085
:100CA000010B8AF800B1DDF810B0DBF800A014EAFF
:100CB0000C0F5FFA8AFA52F83AA04FF0010B14BFFA
:100CC0008AF880B08AF800B1D0F800A011EA0C0FC1
:100CD0005FFA8AFA52F83AA04FF0010B14BF8AF873
:100CE00080B08AF800B1DDF804B0DBF800A034422F
:100CF0005FFA8AFA52F83A404FF0010A14BF84F8BA
:100D000080A084F800A142F23C0458F8044031422B
:100D1000E4B252F834104FF0010414BF81F880405F
:100D200081F80041297852F83110012481F880407F
:100D30002344802B8ED142F2500318F803205A4BE3
:100D400053F8323083F8804008F501531A6842F2B4
:100D5000180358F8033013F0010FD2B2524B53F876
:100D6000323019BF224683F88020012283F8002107
:100D700042F2440358F8032042F2180358F80330B3
:100D800013F0020FD2B2484B53F832304FF0010249
:100D900014BF83F8802083F8002142F2480358F8FA
:100DA000032042F2180358F8033013F0040FD2B2B4
:100DB0003D4B53F832304FF0010214BF83F88020CE
:100DC00083F8002142F24C0358F8032042F2180342
:100DD00058F8033013F0080FD2B2334B53F83230C7
:100DE0004FF0010214BF83F8802083F800212E4ABF
:100DF00042F2500318F8033052F83310012381F8FF
:100E0000003142F22C0118F8011052F8312082F81A
:100E1000003142F2140358F80330022B06D0032BA2
:100E200006D0012B0CBF0220012002E01E2000E0B2
:100E30002D2042F2180258F802200132102A04D064
:100E400042F2180348F803202AE0002142F2180277
:100E500048F802100133042B04D042F2140248F87F
:100E600002301DE0002242F2140348F8032008F586
:100E700000531A6842F2080348F8032010E0029C6D
:100E8000E15C0F4214BF00240124DDF80CA01AF825
:100E900003100F4214BF00210121D5F800A0FAE68B
:100EA00006B0BDE8F00F7047E425010038B50446F0
:100EB00000F500550C35284606F0DCFE42F224030E
:100EC000E3581BB92046FFF729FD02E02046FFF753
:100ED00083FE42F22803E35C13F0FF0F10D00028DA
:100EE00017DB421E0B4B9A4213D8C0EBC000C20066
:100EF000013A232A0DD92846074906F071FE38BD6C
:100F000042F22C03E25C054B53F83230012283F8A5
:100F1000802038BD27499204210F0000E4250100FC
:100F200008B50248FFF7C2FF08BD00BF6011FF1FF0
:100F300008B501F00F014FF480520AF0C3FE08BD5E
:100F400010B5044600F5805380221A60202241F239
:100F50000403C2500021FFF7EBFF204610BD00BF85
:100F60002DE9F04F83B00F46164699460C9B02EBD5
:100F7000030A524527DA0F9B00EBC3100E9B034474
:100F8000C2EB030B0D9B09EB0308CDF8049014E0B2
:100F900038463146224601F087F808B1287804E047
:100FA00038463146224600F0DFFF05F8800B013459
:100FB0004445EDDB0136564505DAC145FADA06EB64
:100FC0000B05019CE4E703B0BDE8F08F10B5054CBC
:100FD0002046FE2103F038F92046034903F060FA69
:100FE00010BD00BFEC33FF1F200901002DE9F043C5
:100FF000ADF58C5D83B09B4B1B6813F0010F0FD1D7
:10100000984805F009FE58B1974C204603F00EF8B9
:10101000944805F007FE20469449954A0AF0DAFA0A
:10102000944B1B6813F0010F0FD1924805F0F4FDAB
:1010300058B1914C204601F069FB8E4805F0F2FD55
:1010400020468E498A4A0AF0C5FA8D4B1B6813F078
:10105000010F0CD18A4805F0DFFD40B1894B1B68B8
:101060000593059A884B1A60854805F0DBFD58A862
:10107000FFF766FF08A800F047FF0CA800F044FF48
:10108000804B1B680693069D02F02CFF04467F48A8
:10109000FFF7EEFA4668076B7D4B1B883BB9FFF7FD
:1010A00095FF002800F0A38002F02CFF9FE06E481F
:1010B00003F01EF8002840F09A80DFF8D081404607
:1010C000FFF726FA81464046FFF724FA714B186075
:1010D000B9F1000F0DD0704B1B8893FBF9F209FB9F
:1010E0001239B9F1000F04DC6C486D4903F0D8F9EE
:1010F00030BB87B96B4BD3F80080654B188806F07E
:101100009FFE00EB400200EB820218A866494244B1
:101110000BF0D4FA20E0604B1B885D4A1288B3FBC9
:10112000F2F102FB11339BB203EB430203EB8203A8
:101130005C4A126818A85C491A440BF0BFFA0BE02D
:101140000DF1600EDFF858C1BCE80F00AEE80F00EB
:10115000DCF80030AEF800300DF58B5008304F4908
:1011600018AA012303F01EF9DFF8FC800DF58B525D
:101170000C32137888F804300DF58B521032136856
:10118000C8F808300DF58B521432137888F80C30FB
:101190000DF58C53083353F813ED58689968C8F867
:1011A0000DE0C8F81100C8F815101B7B88F819303D
:1011B0000DF58C5204321368C8F81C300DF58B50B5
:1011C000083002F041FF404602F092FF40B12A4849
:1011D000414601F0ADFA30B900222D4B1A8002E0F1
:1011E00000222B4B1A802C4B1A8801321A802F4B6D
:1011F000A3FB052313F0200F05D120222C4B1A60EE
:10120000DFF8C48004E020222A4B1A60DFF8BC809B
:10121000012E0FD0022E5BD0204605F0C1F8064605
:10122000204605F0D3F8034610A8234932460BF0B8
:1012300045FA6EE0204605F0BBF8204B204A09280D
:10124000D4BF91469946204605F0B2F8064620469E
:1012500005F0BCF8009010A81A494A4633460BF036
:101260002DFA56E05C11FF1F2C11FF1F49400000B2
:101270006007FF1F4C11FF1FE410FF1F2127000014
:101280002811FF1FAC36FF1F2011FF1F1C32FF1F4C
:101290002411FF1F5011FF1F1811FF1FEC33FF1FF8
:1012A000400901001411FF1F54090100D34D6210C1
:1012B00084F00F4088F00F406009010024230100F2
:1012C000380901006C0901002809010030090100FA
:1012D000204605F06DF89F4B9F4A0928D4BF9146E0
:1012E0009946204605F064F80646204605F06EF85B
:1012F000044605F069F9994B994A00280CBF10463D
:1013000018460094019010A896494A4633460BF0BF
:10131000D5F9954A128832B1944B1A68AA1A944B9F
:101320001B689A4257D2934B18680CA910AA4346DF
:1013300001F09CF858A80021FFF7FAFD0CA800F076
:1013400027FE06460CA800F025FE05460CA800F076
:101350001FFE04460CA800F01DFE00960195C4F186
:101360007F0303EBD3735B100293C0F11F0000EB0C
:10137000D0704010039058A80CA900221346FFF724
:10138000EFFD002F00F0FF8114A800F0BDFD18A8AC
:1013900079497A4B1A680BF091F9794814A918AA7F
:1013A000002301F063F814A800F00CFE14A800F06C
:1013B000EFFD044614A800F0EDFD00940190002319
:1013C0000293039358A814A91A46FFF7C9FD14A85D
:1013D00000F09EFED7E16B4B1B682BB96A4B1B6874
:1013E0000793079A674B1A60684B1B682BB1EC1A7E
:1013F000674801F0DBFA844218D9654801F080FAA9
:1014000088B9624B1B6813B9604B1D6006E06048E9
:1014100001F0CCFA5D4B1A68104418605C485D49D5
:1014200001F080FA02E05B4802F056FE594802F0F3
:101430005FFE002800F06A81554801F0D3FA0138B8
:10144000052804D8DFE800F01B35506BAAC5494BCE
:1014500018680CA910AA434601F008F80CA800F07F
:1014600097FDC0F17F0000EBD07046100CA800F093
:1014700091FDC0F11F0000EBD0704510C2E00023C9
:101480008DF8453044480CA910AA434600F0EEFF01
:101490000CA800F07DFDC0F12A0000EBD0704610D2
:1014A0000CA800F077FDC0F11F0000EBD0704510D4
:1014B000A8E000238DF8453037480CA910AA434610
:1014C00000F0D4FF0CA800F063FDC0F12A0000EB8F
:1014D000D07046102B360CA800F05CFDC0F11F0048
:1014E00000EBD07045108DE000238DF845302A4880
:1014F0000CA910AA434600F0B9FF0CA800F048FD63
:10150000C0F12A0000EBD070461057360CA800F04E
:1015100041FDC0F11F0000EBD070451072E00023C8
:101520008DF845301C480CA910AA434600F09EFFD8
:101530000CA800F02DFDC0F1400000EBD07046106B
:101540000CA800F027FDC0F11F0000EBD070451083
:1015500058E000BF24230100380901003C090100C4
:1015600054240100780901002411FF1F2011FF1FDE
:101570005011FF1F1C11FF1F840901005811FF1F8C
:10158000E831FF1FE010FF1FAC36FF1F5411FF1F93
:10159000E410FF1F2C11FF1F8032FF1F00238DF866
:1015A000453083480CA910AA434600F05FFF0CA801
:1015B00000F0EEFCC0F1400000EBD0704610403669
:1015C0000CA800F0E7FCC0F11F0000EBD070451044
:1015D00018E000238DF8453075480CA910AA434641
:1015E00000F044FF734C204601F0FEF905460CA8BC
:1015F00000F0CEFC00EBD070A5EB6006204601F0B9
:10160000F5F905466B4C204601F0CEF9014608A8D5
:1016100000F0B2FD204601F0D7F910BB0CA800F095
:10162000B7FC04460CA800F0B5FC009401900296AB
:10163000039558A80CA900221346FFF791FC08A8AF
:1016400000F0A6FC044608A800F0A4FC0094019059
:1016500000230293039358A808A91A46FFF780FCB9
:1016600023E008A800F094FC044608A800F092FCCF
:101670000094019000240294039458A808A92246DB
:101680002346FFF76DFC0CA800F082FC80460CA8F6
:1016900000F080FCCDF8008001900296039558A8D8
:1016A0000CA922462346FFF75BFC002F6BD018A83D
:1016B00000F02AFC404802F0CDFC014614A80BF0D3
:1016C000ABF914A82E210BF01FF808B1002202700C
:1016D0003A4818A914AA002300F0C8FE18A800F080
:1016E00071FC18A800F054FC044618A800F052FC45
:1016F0000094019000230293039358A818A91A4656
:10170000FFF72EFC18A800F003FD3CE02C4B1D60F9
:1017100000242C4B1C602C4B1B68189318992B4BE6
:101720001A688A1A2A490A601C602A4B18680CA990
:1017300010AA434600F09AFE58A82146FFF7F8FB8E
:101740000CA800F025FC07460CA800F023FC064678
:101750000CA800F01DFC05460CA800F01BFC00972F
:101760000196C5F17F0303EBD3735B100293C0F1C5
:101770001F0000EBD0704010039058A80CA922461F
:101780002346FFF7EDFB144C20460021FFF7B2F88B
:10179000204658A9FFF79EF80CA800F0B9FC08A84D
:1017A00000F0B6FC0DF58C5D03B0BDE8F08300BF22
:1017B0008032FF1FE410FF1F2C11FF1FE831FF1FB5
:1017C0002011FF1F5411FF1FAC36FF1FE010FF1F39
:1017D0005811FF1F1C11FF1F6011FF1F70B58CB047
:1017E00004A82C492C4A012302F0DCFD04A802F0D5
:1017F0007FFC002848D0294B186830B109F02AFF37
:101800000023274A1380254A136004A802F0D8FE5B
:10181000244E224C224D04A8694602F0ABFE30B3A0
:10182000684631460AF0EAFF0028F4D0206830B953
:1018300001232B800D2009F005FF20600AE02B8892
:1018400001339BB22B8003EB430103EB81010AF0D0
:1018500035FD20602B8803EB430003EB8003A3F1ED
:101860000D002268104469460BF0D6F8D3E70B4B05
:10187000186830B10A4B198819B10D220A4B0AF0C9
:101880006FFA04A802F028FC04A802F0DDFB0CB0FB
:1018900070BD00BFEC33FF1F200901001411FF1FB2
:1018A0002411FF1F88090100FDC7000010B594B086
:1018B0003748384902F0F4FD002864D0364B1C68E4
:1018C00044B1204600F072FE204606F0D5FA002210
:1018D000314B1A603148FEF7CBFE143030490AF024
:1018E0008DFF00284BD004A829492A4A012302F081
:1018F00059FD04A802F0FCFB002839D0274C0CA8A5
:1019000004A9012202F0D8FD0CA802F0F1FBF8B105
:101910000CA8694600F000FD2046FEF7A9FE143031
:1019200069460AF06BFF60B9182006F09DFA04467C
:1019300000F098FC184B1C6020460CA900F052FEE9
:1019400006E00CA802F0C8FB0CA802F07DFBD6E76D
:101950000CA802F079FB104B1B6813B1114A1360FD
:1019600002E0114A0F4B1A6004A802F0B5FB02E036
:101970000D4A0C4B1A6004A802F066FB06E00A4A06
:10198000084B1A6002E0084A064B1A6014B010BDFA
:10199000EC33FF1F940901001011FF1F1C32FF1FC1
:1019A000400101001C11FF1FC810FF1FF8B502F015
:1019B00099FA05466648FEF75BFEC46B654B1B78DB
:1019C000A3B1284604F0ECFC0646204604F0E8FCEF
:1019D00086420BD1284604F0F9FC0646204604F066
:1019E000F5FC864202D100225A4B1A705A4B1B68F2
:1019F000013B032B00F2A780DFE803F04D02586A99
:101A00005648FEF753FD032806D10322524B1A60B5
:101A10005348FEF749FFF8BD5248FEF747FD01283D
:101A200004D14D4B186001F0D9FCF8BD4848FEF7D1
:101A30001FFE866B474B1B7853BB204604F0B0FC5F
:101A40000746304604F0ACFC874208D1204604F03B
:101A5000BDFC0446304604F0B9FC844218D0284648
:101A600004F09EFC0446304604F09AFC84420FD1F8
:101A7000284604F0ABFC0446304604F0A7FC844240
:101A800006D10422344B1A603548FEF70DFFF8BD2D
:101A9000FFF7ACFAF8BD002001F0A0FC002855D1FA
:101AA00002222D4B1A60FFF701FFF8BD2B48FEF70D
:101AB000FDFC01284AD1294C2046FEF7F7FC0028FE
:101AC000FAD10222244B1A602548FEF7DDFEF8BD4C
:101AD00002F008FA05461E48FEF7CAFDC46B21480D
:101AE000FEF7E4FC01280ED01F48FEF7DFFC0128BA
:101AF00009D01E48FEF7DAFC012804D01748FEF78B
:101B0000D5FC012803D10122124B1A7014E0114BAD
:101B10001B788BB9284604F043FC0646204604F0A7
:101B20003FFC864212D1284604F050FC0546204670
:101B300004F04CFC854209D10222074B1A60084888
:101B4000FEF7A2FEF8BD0222034B1A60F8BD00BFEB
:101B50001C32FF1F0032FF1F6407FF1FD031FF1F21
:101B60006011FF1F6832FF1F0432FF1FB831FF1FD3
:101B7000F0B5ADF5825D83B010A8FFF7E1F907A8D5
:101B800000F0C2F9394B1B680593059D0BA8384935
:101B9000384A0AF093FD384807A90BAA002300F041
:101BA00065FC07A800F0F4F9074607A800F0F2F971
:101BB000064607A800F0ECF9044607A800F0EAF989
:101BC00000970196C4F1800303EBD3735B1002937B
:101BD000C0F1200000EBD0704010039010A807A9BE
:101BE00000221346FFF7BCF9244C20460021FEF7E3
:101BF00081FE204610A9FEF76DFE214804F0F6FC98
:101C00003C2004F003FD642005F008F904F0E6FC34
:101C100002281C4C23685B68204614BF1A491B49E4
:101C20001B229847204606F07FF81948FEF720FD52
:101C3000806805F031F8FFF7C9F908B1FFF7CEFD6C
:101C4000FFF734FE094B1B6806930698401BB0F55E
:101C5000FA6F03D2C0F5FA6005F0E0F807A800F0CB
:101C600057FA0DF5825D03B0F0BD00BFAC36FF1F23
:101C70009C090100A8090100E831FF1F6011FF1F46
:101C8000153F0000AC37FF1FB0090100CC0901006F
:101C90001C32FF1F70B590B01F48FEF7E9FC6C4680
:101CA00005460FCD0FC40FCD0FC40FCD0FC495E85F
:101CB0000F0084E80F001948FEF7EEFB022807D159
:101CC00000230A93144869460122FEF79DFC0AE0AE
:101CD0001348FEF7E1FB022805D101220A920E48C3
:101CE0006946FEF791FC0D4C0D4D0E4E2046FEF759
:101CF000D3FB0228FAD02846FEF7CEFB0228F5D007
:101D00003046FEF7C9FB0228F0D00748FEF7C4FBB7
:101D10000228EBD010B070BD1C32FF1F6832FF1FCD
:101D2000B831FF1F0432FF1FD031FF1F2DE9F041F2
:101D30008CB008A800F0E8F8202004F01DFE06F0A2
:101D400049F8594B1C1F03F110080027012654F8CD
:101D5000045FEDB22846394604F0CAFF28463146F2
:101D600004F0F8FF4445F2D10D20012104F0F2FF08
:101D70004E4D2846FEF77CFC406B003018BF01201A
:101D800002F084F8FFF786FF08A84FF40D710722D0
:101D900000F0C4F908A8464940F2B67200F0BCF859
:101DA00008A8444940F2F11200F0C2F8424C204623
:101DB0005E2108AA00F004FC204640494FF4EB7273
:101DC00000F058FA08A840F25F110B2200F0A6F9C3
:101DD00008A83B494FF4F26200F09EF808A8394980
:101DE0004FF4F27200F0A4F8374C20462C2108AAD8
:101DF00000F0E6FB20463549DC2200F03BFA08A85B
:101E0000CA21152200F08AF908A8314940F6490292
:101E100000F082F808A82F4940F2222200F088F84A
:101E20002D4C20460F2108AA00F0CAFB20462B4962
:101E30004B2200F01FFA2846FEF71AFC284C816A54
:101E40002046FEF767FD0323009302230193072337
:101E5000029306230393052304930423059301238C
:101E60000693002307932046132114221523FEF71F
:101E70005FFC2846FEF7FCFBC1682046FEF71AFD12
:101E80002846FEF7F5FB90F824102046FEF71AFDD1
:101E90002046FEF7F9FCFFF76BFE08A800F038F9C2
:101EA0000CB0BDE8F08100BF7C1201001C32FF1FA6
:101EB000E80901004C010100E831FF1F2405010081
:101EC000281B0100400301008032FF1FA011010008
:101ED00090120100FC060100C810FF1FDC1A01006F
:101EE0006011FF1F10B5054C204600F0BBF92046DD
:101EF0000349044A09F06EFB10BD00BFC810FF1F64
:101F0000AD2500006007FF1F0022026042600281D1
:101F100042818281C281704710B58389448904FB64
:101F200003F39A4202D1006804F07EFB002010BD4A
:101F300010B5C389448904FB03F39A420AD0084CC4
:101F400023685B682046074916229847204605F01B
:101F5000EBFE02E0406804F067FB002010BD00BF0C
:101F6000AC37FF1FB822010010B401EBD173848994
:101F700002FB04F2006800EB6303985C11F0010FB0
:101F800014BF000900F00F005DF8044B704700BF5C
:101F9000008970474089704708B583894289006885
:101FA00061F31F1102FB03F209F08CFE08BD00BFB4
:101FB00008B5838942890068002102FB03F209F019
:101FC00081FE08BD08B5C38942894068002102FB33
:101FD00003F209F077FE08BD00290ADB002A0ADBBC
:101FE0000389994209DA40898242ACBF002001206E
:101FF000704700207047002070470020704700BFE6
:10200000F8B505460C4617461E46FFF7E5FFB8B182
:1020100004EBD472AB8907FB03F707EB6202296874
:102020008B5C14F0010F05D003F00F0343EA061692
:10203000F6B204E023F00F0306F00F061E438E54A1
:10204000F8BD00BFF8B505460C4617461E46FFF71B
:10205000C3FF28B32346002CB8BFE31DEA8907FB62
:1020600002F202EBE30269688B5C66B10D48044042
:1020700003D5013C64F007040134012000FA04F4A4
:102080001C43E4B20BE00748044003D5013C64F074
:1020900007040134012000FA04F423EA04048C54F8
:1020A000F8BD00BF0700008070B505460C46164617
:1020B000FFF792FFD0B16B68D3B12246002CB8BFB6
:1020C000E21DE98906FB01F603EBE20309490C4036
:1020D00003D5013C64F007040134012202FA04F440
:1020E0009B5D23420CBF0020012070BD012070BD0C
:1020F000012070BD0700008010B50446006808B1DB
:1021000005F0BEFE606808B105F0BAFE10BD00BF64
:1021100010B50446FFF7F0FF204610BD70B5044629
:102120000D461646FFF7E8FF05F0010305EBD570F5
:1021300003EB600080B2A08115F0070318BF0123F4
:102140002A46002DB8BFEA1D03EBE203E381258197
:10215000668106FB00F005F08BFE2060E08906FB3F
:1021600000F005F085FE60602046FFF721FF204665
:10217000FFF728FF70BD00BF38B504460D4609893A
:102180006A89FFF7CBFF296811B90023236007E0B4
:102190006389A28902FB03F2204692B2FFF7BCFEDC
:1021A000696811B90023636007E06389E28902FB73
:1021B00003F2204692B2FFF7BBFE204638BD00BFB7
:1021C00070B582B006460C4608466946022201F008
:1021D0004DFF054620460DF10201022201F046FFA7
:1021E0000028A8BF002DB4BF00250125204601A965
:1021F000022201F03BFF0028B4BF002505F00105D5
:1022000020460DF10601022201F030FF0028B4BF84
:10221000002505F0010515B33046BDF80010BDF8E6
:102220000220FFF77BFF7389B28902FB03F220468D
:10223000316892B201F01AFFC543ED0FBDF80630C8
:102240006BB17389F28902FB03F22046716892B286
:1022500001F00CFF0028B4BF002505F00105284659
:1022600002B070BD10B50446FFF74EFE0023236197
:10227000204610BD38B51546838A03EB83039A4286
:102280000FD00A4C23685B68204609490E22984704
:102290002046294605F094FD204605F045FD002026
:1022A00038BD006904F0C0F9012038BDAC37FF1F0C
:1022B000D022010070B590B068461549154A012337
:1022C00002F070F8684601F013FFD0B10024012637
:1022D000E5B208A86946324602F0EEF808A801F017
:1022E00007FF013430B108A801F0F6FE08A801F09C
:1022F000ABFEEDE708A801F0A7FE684601F0ECFE92
:1023000000E00025684601F09FFE284610B070BD31
:10231000EC33FF1F9409010030B583B004460D462D
:10232000002101F0ABFE20460DF10601022201F072
:102330009DFE20460DF10501012201F097FE9DF85A
:10234000052001320D2AA8BF0D22D2B28DF805203A
:102350002046294601F08AFE9DF805000544002329
:1023600005F8013C03B030BD10B4828AB2B10069F7
:1023700003788B4208D104E0184613F8052B8A42F3
:1023800008D1B0F801000AE0431D013A94B204EB11
:1023900084041C44A342EFD1002000E000205DF83B
:1023A000044B704730B4848ABCB1026913788B4205
:1023B00015D0531D013CA5B205EB85051D44002039
:1023C00004E01A4613F8054B8C4209D0B2F80120FC
:1023D000104480B2AB42F4D102E0002000E00020C3
:1023E00030BC704710B4828AB2B1006903788B4266
:1023F00008D104E0184613F8052B8A4208D1B0F83A
:1024000003000AE0431D013A94B204EB84041C4427
:10241000A342EFD1002000E000205DF8044B70479C
:102420002DE9F8430746884608460AF053FB00F1B9
:10243000FF39002426460CE018F804503846294697
:10244000FFF792FF064438462946FFF7CBFF361ABE
:1024500001344C45F0DB29EAE979384618F80910CF
:10246000FFF782FF3044BDE8F88300BF2DE9F04F4D
:102470008BB006908B4607921F461146FFF7D0FFA0
:102480000446DDF818904846FFF784FD024658469A
:102490002146FFF743FE002205929246089275E01E
:1024A000059B0093079AD45C06982146FFF75CFFD2
:1024B0000990804606982146FFF774FF0290002697
:1024C0008044089B0393049045E097B1009ABB5C5D
:1024D0002D2B0ED15846214632460023FFF790FDA2
:1024E000A24533DC5846214632460123FFF7AAFDB8
:1024F0002CE0484629463246FFF736FD034658464B
:1025000021463246FFF77CFDA24514DD48462946A8
:102510003246FFF7C9FD0190584621463246FFF783
:10252000C3FD019A00EA0203584621463246DBB257
:10253000FFF788FD0AE0484629463246FFF7B4FD1A
:102540000346584621463246FFF77CFD01350134EB
:102550004545BADB01364846FFF71CFD864205DAE1
:10256000029B4345F6DA039C049DAEE7DDF820A00C
:10257000099A92440698079A009BD15CFFF732FFB4
:10258000C0EB0A000890059B0133059307980AF0F9
:10259000A1FA059A824283DB58460BB0BDE8F08F62
:1025A00008B5006908B105F06BFC08BD10B504461C
:1025B000FFF7F6FF2046FFF7ABFD204610BD00BF3A
:1025C00070B504460D461646FFF7EAFF2046314631
:1025D000FFF7D2FDA58205EB850005F049FC2061DF
:1025E00070BD00BF30B5C3B005460C46084600219B
:1025F00001F044FD204601A9022201F037FD2046EA
:102600000DF10301012201F031FD02A800214FF478
:10261000807209F057FB204602A99DF8032001F0C3
:1026200025FD20460DF10601022201F01FFD28467E
:10263000FFF7B6FFBDF8060000EB800005F018FCC0
:1026400001462861BDF8062002EB8202204692B2C4
:1026500001F00CFD28462146FFF7B2FDBDF806301B
:10266000AB8243B030BD00BF10B5044600F500504A
:102670000C3005F0FFFA204610BD00BF70B5184DB4
:102680002846FEF72FF8174C28461749224608F02F
:10269000A1FF1648FDF7F6FF15481E21FDF7ECFED9
:1026A00014481C21FDF7E8FE13481D21FDF7E4FE48
:1026B00012481B21FDF7E0FE114E3046FFF7D2FD18
:1026C000104D30462946224608F084FF0E4E304613
:1026D000FFF7C8FD30462946224608F07BFF70BD53
:1026E0006011FF1F6007FF1F692600001C32FF1FDB
:1026F0006832FF1F0432FF1FB831FF1FD031FF1FA8
:10270000E831FF1FAD2500008032FF1F10B50446E1
:102710001C30FFF7F9FB002323826382204610BDA3
:1027200010B504461C30FFF7F3FC204610BD00BF77
:102730002DE9F04F93B083460E4608460DF12E0169
:10274000022201F093FC044630460CA9022201F05B
:102750008DFC0028A8BF002CB4BF00240124304603
:102760000DF13201022201F081FC0028B4BF0024E7
:1027700004F001040094002C00F0A980BDF8323070
:10278000002B00F0A4804FF0000902250BEB05029E
:1027900008920BF104030993304659462A4601F08A
:1027A00065FC0190304608992A4601F05FFC82469C
:1027B000304609992A4601F059FC029030460BF147
:1027C00006012A4601F052FC039030460BF1080145
:1027D0002A4601F04BFC049030460BF10A012A46D0
:1027E00001F044FC059030460BF10C012A4601F043
:1027F0003DFC069030460BF10E012A4601F036FCF6
:10280000079030460BF11401012201F02FFC8046A5
:1028100030460BF11501012201F028FC0746304635
:102820000BF11601012201F021FC044630460DA9EE
:10283000112201F01BFC019ABAF1000FA8BF002A77
:10284000B4BF00230123029A002AB4BF002303F07F
:102850000103039A002AB4BF002303F00103049A82
:10286000002AB4BF002303F00103059A002AB4BF75
:10287000002303F00103069A002AB4BF002303F0EB
:102880000103079A002AB4BF002303F00103B8F143
:10289000000FB4BF4FF0000803F00108002FB4BFD1
:1028A000002708F00107002CB4BF002407F0010442
:1028B0000028B4BF002004F00100009B03400093F7
:1028C00009F10109BDF832304B453FF765AFBBF860
:1028D0000030003318BF0123ABF81830BBF80A30C2
:1028E000003318BF0123ABF81A30BDF83030ABF815
:1028F00010300023ABF81230009813B0BDE8F08F11
:10290000428A038A9A4208D1408B03B2032B06D035
:10291000D3F1010038BF002070470020704701202C
:10292000704700BF10B50446B0F91830012B0CBF3A
:10293000022303230383428A038A9A4206D1B0F911
:102940001A0001280CBF022003206083B4F918008C
:1029500002280BD1A088012808D11C342046FFF79B
:1029600027FB2046FFF72EFB012010BD9A4207D21D
:1029700004F11C00FFF724FC638A0133638210BD5D
:10298000B4F91A30022B0BD1E389012B0AD11C3484
:102990002046FFF70DFB2046FFF714FB012010BD7A
:1029A000002010BD002010BD1C307047B0F9183059
:1029B000022B01D100887047B0F91A30022B0CBFEE
:1029C0004089C088704700BFB0F91830022B01D190
:1029D00040887047438B023B9BB2012B94BF808998
:1029E00000897047007D7047407D7047807D70474B
:1029F00010B504464368002B03DD806808B105F07C
:102A00003FFA204610BD00BF10B504464368002BB6
:102A100003DD806808B105F033FA204610BD00BF21
:102A200010B504464368002B03DD806808B105F04B
:102A300027FA204610BD00BF10B504464368002B9E
:102A400003DD806808B105F01BFA204610BD00BF09
:102A500010B504464368002B03DD806808B105F01B
:102A60000FFA204610BD00BF10B504464368002B86
:102A700003DD806808B105F003FA204610BD00BFF1
:102A800010B504464368002B03DD806808B105F0EB
:102A9000F7F9204610BD00BF10B504464368002B6F
:102AA00003DD806808B105F0EBF9204610BD00BFDA
:102AB00008B5C1B20148FDF705FF08BD6011FF1F51
:102AC0002DE9F04389B004460E4604A8FFF71CFA2E
:102AD00004A81C210922FFF721FB04A80121FFF70C
:102AE0005BFA04A8FFF754FA054604A8FFF752FA68
:102AF000009501900223029317250395204604A90F
:102B000000221346FEF72CFA04A8FFF741FA074605
:102B100004A8FFF73FFA0097019022230293039540
:102B2000204604A900221346FEF71AFA04A8FFF76C
:102B30002FFA074604A8FFF72DFA009701904223C9
:102B400002930395204604A900221346FEF708FAD3
:102B500004A8FFF71DFA074604A8FFF71BFA009721
:102B60000190622302930395204604A90022134694
:102B7000FEF7F6F9484F384604A932680023FFF7FC
:102B800075FC04A8FFF704FA804604A8FFF702FAD0
:102B9000054604A8FFF7FCF9CDF800800195C0F1C7
:102BA0001C0000EBD07040100230029018250395F5
:102BB000204604A900221346FEF7D2F9384604A99C
:102BC00072680023FFF752FC04A8FFF7E1F9814681
:102BD00004A8FFF7DFF9804604A8FFF7D9F9CDF87C
:102BE0000090CDF80480C0F11C0000EBD0704010C4
:102BF000223002900395204604A900221346FEF7D6
:102C0000AFF9384604A9B2680023FFF72FFC04A8E7
:102C1000FFF7BEF9814604A8FFF7BCF9804604A877
:102C2000FFF7B6F9CDF80090CDF80480C0F11C0094
:102C300000EBD0704010423002900395204604A96A
:102C400000221346FEF78CF9384604A9F2680023E7
:102C5000FFF70CFC04A8FFF79BF9074604A8FFF751
:102C600099F9064604A8FFF793F900970196C0F179
:102C70001C0000EBD070401062300290039520469B
:102C800004A900221346FEF76BF904A8FFF740FAE7
:102C900009B0BDE8F08300BFE831FF1F2DE9F04324
:102CA0008BB005460E4606A8FFF72EF901F01AF97B
:102CB000804606A880210922FFF730FA06A80121E4
:102CC000FFF76AF906A8FFF763F9044606A8FFF7BD
:102CD00061F900940190002402940394284606A907
:102CE00022462346FEF73CF9244F384606A93246D1
:102CF0002346FFF7BBFB06A8FFF74AF9064606A8DE
:102D0000FFF748F90096019001260296039628469F
:102D100006A922462346FEF723F9404603F040FB6E
:102D20008146404603F052FB034604A814494A4634
:102D300009F0C4FC384606A904AA2346FFF796FB0F
:102D400006A8FFF725F9804606A8FFF723F90746EE
:102D500006A8FFF71DF9CDF800800197C0F18000AB
:102D600002900396284606A922462346FEF7F8F865
:102D700006A8FFF7CDF90BB0BDE8F083E831FF1FDF
:102D8000600901002DE9F04790B005460F469146D5
:102D90009A4608A8FFF7B8F8424C94E80F0010AC28
:102DA00004E90F004048FDF781FB04463F48FDF76A
:102DB0007DFB80463E48FDF779FB06463D48FDF722
:102DC00075FBB9F1000F03D0DAF800303A490B6017
:102DD00028F00208B8F1010F0CD1374B1B68013302
:102DE000B3F57A7F02DA34490B6003E040F2E73151
:102DF000314B196026F00206012E0BD12E4B1B68B9
:102E0000013B13F57A7F02DD2B490B6002E02B4971
:102E1000294B1960012805D0012C14BF00246FF044
:102E2000000404E0244B1B68CAF800300124284643
:102E30002349FFF733FF234B234E002F18BF1E46B5
:102E400005A822491C4B1A6809F038FC204808A93B
:102E500005AA3346FFF70AFB08A8FFF799F80746CB
:102E600008A8FFF797F8064608A8FFF791F800971B
:102E70000196C0F1800000EBD0735B1002930B232E
:102E80000393284608A900221346FEF769F828464E
:102E90000CA9FFF715FE08A8FFF73AF9204610B075
:102EA000BDE8F087E02201006832FF1F0432FF1FF7
:102EB000B831FF1FD031FF1F7833FF1F19FCFFFF10
:102EC00028230100102301001C23010038230100E6
:102ED0008032FF1F2DE9F04F89B005460C4616469B
:102EE0009A4604A8FFF710F85A48FDF7DFFA834620
:102EF0005948FDF7DBFA81465848FDF7D7FA804676
:102F00005748FDF7D3FA07461EB1DAF80030554AA4
:102F10001360B9F1010F0BD1524B18686368013B84
:102F2000834205DD01304F4B1860129B03B1984777
:102F3000B8F1010F08D14B4B1868002804DD0138A7
:102F40001860129B03B19847012F06D0BBF1010F07
:102F500014BF00266FF0000604E0424B1B68CAF85D
:102F60000030012628462168FFF798FE3D4B1B687C
:102F7000002B17DD3C4804A93C4A0023FFF776FAF2
:102F800004A8FFF705F8074604A8FFF703F8009721
:102F90000190002302930B220392284604A91A46AB
:102FA000FDF7DEFF6368013B2E4A126893421EDD87
:102FB0002D4804A92E4A0023FFF758FA04A8FEF76B
:102FC000E7FF804604A8FEF7E5FF074604A8FEF7E2
:102FD000DFFFCDF800800197C0F1800002900B2345
:102FE0000393284604A900221346FDF7B9FF1D4BA1
:102FF0001A68A3681C4804A953F822200023FFF78D
:1030000035FA04A8FEF7C4FF804604A8FEF7C2FF05
:10301000074604A8FEF7BCFFCDF800800197C0F179
:10302000800000EBD0735B1002930B2303932846C0
:1030300004A900221346FDF793FF284604F10C0172
:10304000FFF73EFD04A8FFF763F8304609B0BDE87E
:10305000F08F00BF6832FF1F0432FF1FB831FF1F1F
:10306000D031FF1FBC32FF1F8032FF1F4023010001
:10307000442301002DE9F04F91B0054688461646DD
:103080001F4608A8FEF740FF614C94E80F0010AC03
:1030900004E90F005F48FDF709FA83465E48FDF733
:1030A00005FA82465D48FDF701FA81465C48FDF766
:1030B000FDF904463FB11A9B18685A4903F09CF881
:1030C0000022594B1A60BBF1010F14BF00276FF0AB
:1030D00000072AF0020ABAF1010F1BD1524B1B68FC
:1030E00063B9504B9B780133DBB2172B02D84D4AA2
:1030F00093700FE000224B4B9A700BE0494B5B78CA
:103100000133DBB23B2B02D8464A537002E0002267
:10311000444B5A7029F00209B9F1010F1BD1424BFF
:103120001B6863B93F4B9B78013BDBB2172B02D87E
:103130003C4A93700FE017223A4B9A700BE0394BE0
:103140005B78013BDBB23B2B02D8364A537002E07E
:103150003B22344B5A70012C0ED1334B1B681BB9E8
:103160000122314B1A6007E02E480023037003F060
:1031700041F91A9C2060012728464146FFF78EFD41
:103180001EB92A4EDFF8BC8001E0294EB046254C1E
:1031900005A82849A278637809F090FA224B1B68A9
:1031A000254808A905AA002B14BF43463346FFF75C
:1031B0005DF908A8FEF7ECFE064608A8FEF7EAFE51
:1031C000044608A8FEF7E4FE00960194C0F18000D2
:1031D00000EBD0735B1002930B230393284608A9DE
:1031E00000221346FDF7BCFE0F4B1968134A144B1F
:1031F000002908BF13460F9328460CA9FFF760FC6F
:1032000008A8FEF785FF384611B0BDE8F08F00BF73
:10321000F02201006832FF1F0432FF1FB831FF1F88
:10322000D031FF1F9833FF1F5833FF1F5023010079
:1032300048230100702301008032FF1F602301003A
:1032400068230100582301002DE9F0478CB00446A3
:103250008A46164604A8FEF757FE584B0FCB0CAD16
:1032600005E90F005648FDF721F905465548FDF7D9
:103270001DF981465448FDF719F980465348FDF77A
:1032800015F90746BAF1000F02D03368504A1360AF
:10329000012D05D14F483168FDF70CFB002500E0FA
:1032A000012529F00209B9F1010F08D1484B19682D
:1032B0003E2904DC013119604648FDF7FBFA28F08D
:1032C0000208B8F1010F08D1414B1968002904DD4B
:1032D000013919603F48FDF7EDFA012F03D13C4B4E
:1032E0001B683360002520463B49FFF7D7FC04A844
:1032F00044210822FEF712FF04A80521FEF74CFE28
:1033000004A8FEF745FE064604A8FEF743FE009615
:1033100001901E2302930C230393204604A900224C
:103320001346FDF71DFE04A842210622FEF7F6FE15
:1033300004A80021FEF730FE04A8FEF729FE064689
:1033400004A8FEF727FE009601901F2302930D2389
:103350000393204604A900221346FDF701FE04A8AA
:1033600040210422FEF7DAFE04A80F21FEF714FE26
:1033700004A8FEF70DFE0028B8BF3F308311144AA1
:10338000166806FB033604A8FEF704FE00960190BB
:10339000202302930E230393204604A90022134600
:1033A000FDF7DEFD204608A9FFF78AFB04A8FEF71B
:1033B000AFFE28460CB0BDE8F08700BF0023010037
:1033C0006832FF1F0432FF1FB831FF1FD031FF1FCB
:1033D000C032FF1F6011FF1F7C2301002DE9F04365
:1033E000ADF5825D87B0044614A8FDF7A9FD002C59
:1033F00000F0CF809E48FDF73BF99E4C05460FCD6F
:103400000FC40FCD0FC40FCD0FC495E80F0084E893
:103410000F000022984B1A60984B1C68002C00F09B
:1034200071836368934203DDA06808B104F028FD4E
:10343000204604F021FDFEF73DFF8146904B1868C1
:1034400020B104F01DFD00228D4B1A60B9F11C6FF4
:103450009ABF09EB490009EB80004FF0FF3004F000
:1034600007FD874B186004A88649874A012300F0AE
:1034700099FF04A800F03CFE00284CD000227E4BAF
:103480001A60914536DD09F10108144601257F4F88
:103490000CA804A9012201F00FF80CA800F028FEE6
:1034A00088B1774E31680CA82144FEF735FF0CA88F
:1034B00000F012FE31683846214409F09FF990B9B6
:1034C0006D4B1D600FE000266B4B1E600CA800F0DA
:1034D000BBFD04A800F000FE1C2004F0C5FC04465F
:1034E0000120054620E00CA800F0AEFD01350D34AA
:1034F0004545CDD104A800F0EFFD1C2004F0B4FC3C
:1035000004464E4609F101052846B5F1FE5F0BD988
:103510004FF0FF3009E00026574B1E601C2004F0DE
:10352000A3FC044601200546800004F0A1FCA06035
:103530006560524B1C60564A22601B689B68554A66
:103540001A60002E10DD06EB460306EB830600230F
:1035500004224A4D4A4C29688868216819448150E0
:1035600004320D33B342F6D1444B1B684A4ADA6049
:103570004A4A1A614A4A5A614A4A9A6100224A4BA7
:103580001A600123494A1370494A137004A800F0D5
:103590005BFD464B1B78002B00F0E480444C227806
:1035A0000025009514A843493F4BFFF793FC257075
:1035B000002800F08982B0F1FF3F00F087820122ED
:1035C00022703A4B1D70384B1B680C2B00F2C680E2
:1035D000DFE803F00719232D35418087919CA6B0C1
:1035E000BA0000F07FFC344B18602F4A1168314A52
:1035F000926852F82110009314A800220123FFF7CB
:1036000039FD012587E20023009314A82B490122EC
:10361000184BFFF75FFC01257DE20023009314A8FF
:1036200027490122274BFFF755FC012573E214A817
:1036300000210122244BFFF7A5FB01256BE21D4B66
:103640009B681969214B009314A800220123FFF7FE
:1036500011FD01255FE2174B9B6859691C4B0093D4
:1036600014A800220123FFF705FD012553E200BF46
:103670001C32FF1FE032FF1FBC33FF1FB832FF1F99
:10368000B432FF1FEC33FF1F94090100F432FF1F17
:103690008823010040010100942301009C230100C4
:1036A0006023010068230100E833FF1FE433FF1F9C
:1036B000DC33FF1F3C33FF1FE033FF1F9832FF1F37
:1036C0007C33FF1FE432FF1FE832FF1F1833FF1F58
:1036D0001C33FF1F14A801219D4AFFF7B5FD0125EA
:1036E00019E20023009314A89A4901229A4BFFF78C
:1036F000F1FB01250FE2994B19680023009314A8F0
:103700000122974BFFF7E6FB012504E2002300931B
:1037100014A894490122944BFFF7DCFB0125FAE140
:103720000023009314A891490122914BFFF7D2FB8B
:103730000125F0E10023009314A88E4901228E4B4D
:10374000FFF7C8FB0125E6E10023009314A88B498D
:1037500001228B4BFFF7BEFB0125DCE10125894BE4
:103760001D70D8E1884B1B680C2B00F2A981DFE8A3
:1037700013F00D0038004D0062008200A500C80063
:10378000D900270149016501800194017F4B9B68A5
:1037900019687F4B1B680293029A7E4BA3FB0202BF
:1037A0007D4B009314A8C2F340120023FFF762FC84
:1037B000002800F08D8101280FD1784B1B68012B68
:1037C00004D1754B1A68A2F561621A60724C2068C8
:1037D00002F08CFE206803F04FFA0125694B1D7042
:1037E00099E10022009214A86D496C4BFFF772FB1F
:1037F000002800F06F81012804D16A48674901223E
:10380000FCF702FF01255F4B1D7084E1002200924E
:1038100014A86549654BFFF75DFB002800F05C814B
:10382000012804D15F485D490122FCF7EDFE012526
:10383000544B1D706FE1564B1B6803930399554B16
:10384000A3FB012114A8C1F340110022584BFFF73C
:1038500099FA002800F04281012808D14F4C5148C4
:1038600021460122FCF7D0FEA06803F015FA0125DD
:10387000444B1D704FE1454B9B681969444B1B68D5
:103880000493049A434BA3FB02024A4B009314A8EF
:10389000C2F340120023FFF7EDFB002800F0208167
:1038A000012807D13F483D490122FCF7ADFE002227
:1038B000414B1A700125334B1D702CE1334B9B6833
:1038C0005969334B1B680C930C9A324BA3FB0202D1
:1038D0003A4B009314A8C2F340120023FFF7CAFB2F
:1038E000002800F0FF80012807D12E482B49012233
:1038F000FCF78AFE0022304B1A700125214B1D7007
:1039000009E114A80021124AFFF79EFC002840F0AC
:10391000EB80244821490122FCF776FE0125194B52
:103920001D70F8E00022009214A80A490A4BFFF724
:10393000D1FA002800F0DA80012804D1194817498B
:103940000122FCF761FE01250E4B1D70E3E000BF74
:10395000EC32FF1FA033FF1FF032FF1FB832FF1FF2
:10396000BC33FF1FC033FF1F0433FF1F2033FF1F73
:103970001433FF1F5C33FF1F0C33FF1FC432FF1FC4
:103980001033FF1FE433FF1FE833FF1F3C33FF1FDB
:10399000AC36FF1FD34D6210E033FF1FE032FF1F34
:1039A0009832FF1F1C32FF1F7C33FF1FE432FF1FC2
:1039B000E832FF1F1833FF1F0032FF1F1C33FF1FA9
:1039C0005C4B19680022009214A85B4BFFF782FA47
:1039D000002800F08D80012810D1584C554B1B68F1
:1039E000554A12689B6804F1140053F8221009F03C
:1039F00013F8534821460122FCF706FE0125514BDE
:103A00001D7088E0504B009314A850490022504B81
:103A1000FFF760FA00286DD0012805D148484749D2
:103A20000122FCF7F1FD05E04A48444B93F82410CD
:103A3000FCF748FF0125434B1D706CE0002200920B
:103A400014A84549454BFFF745FA002854D00128F2
:103A50000BD13A4C606B003018BF012000F016FA11
:103A6000374821460122FCF7CFFD0125354B1D705B
:103A700051E00022009214A839493A4BFFF72AFA84
:103A800000283BD0012804D12D482C490122FCF705
:103A9000BBFD01252B4B1D703DE00022009214A8B8
:103AA0003149324BFFF716FA50B3012804D12448AC
:103AB00022490122FCF7A8FD0125224B1D702AE0B6
:103AC0000125204B1D7026E0012524E0002522E081
:103AD000012520E001251EE001251CE001251AE05A
:103AE000012518E0012516E0012514E0012512E06A
:103AF000012510E001250EE001250CE001250AE07A
:103B0000012508E0FEF7D6FB8146194B186800280E
:103B10007FF497AC9AE40F4C20460021FCF7EAFEB4
:103B2000204614A9FCF7D6FE28460DF5825D07B0A5
:103B3000BDE8F083B832FF1FBC33FF1FE032FF1F28
:103B40001C32FF1FE433FF1FB12A0000C033FF1FE8
:103B50000433FF1F6011FF1F2033FF1F1433FF1FAB
:103B60005C33FF1F0C33FF1FC432FF1F1033FF1FD6
:103B7000B432FF1F2DE9F84F342004F079F9844B5B
:103B800098600D225A60834A1A60834A02609A68DC
:103B9000824F57609A68DFF8E8A2C2F808A09A68D6
:103BA0007F49D1607F4911617F4951617F499161AE
:103BB000DFF8D0B2C2F81CB07D4911627D49516274
:103BC0007D4991627D49D1627D4911637D4ADA6008
:103BD0007D4E1E617D4D5D617D4A9A617D4C18462A
:103BE0007D49224607F0F6FC082004F041F97B4BA2
:103BF00098604FF00209C3F804901F60784A026091
:103C00009A6878495160DFF88082C3F80C801E61A1
:103C10005D61754F9F6118467449224607F0DAFCD2
:103C20000C2004F025F9724B986003225A60C3F807
:103C300000A0704A02609A686F4951609A686F49A3
:103C40009160C3F80C801E615D619F6118466C49EC
:103C5000224607F0BFFC1C2004F00AF9694B98606B
:103C60004FF0070AC3F804A0C3F800B0664A026028
:103C70009A68664951609A68654991609A68654991
:103C8000D160654911616549516165499161C3F828
:103C90000C801E615D619F6118466249224607F0F3
:103CA00099FC1C2004F0E4F85F4B9860C3F804A072
:103CB000404A1A605D4A02609A685D4951609A689C
:103CC0005C4991609A685C49D1605C4911615C49CA
:103CD00051615C499161C3F80C801E615D619F6117
:103CE00018465949224607F075FC082004F0C0F830
:103CF000564B9860C3F804902F491960544A0260EB
:103D00009A6854495160C3F80C801E615D619F61DF
:103D100018465149224607F05DFC142004F0A8F82B
:103D20004E4B986005225A60244A1A604C4A026041
:103D30009A684C4951609A684B4991609A684B491E
:103D4000D1604B491161C3F80C801E615D619F61B8
:103D500018464849224607F03DFC082004F088F840
:103D6000454B9860C3F80490154919601C4A0260DD
:103D70009A681C495160C3F80C801E615D619F61A7
:103D800018463E49224607F025FCBDE8F88F00BFE3
:103D90003C33FF1FA4230100B0230100BC2301001A
:103DA00028230100CC230100D82301007C2301003B
:103DB00088230100F0230100FC2301000C240100F2
:103DC00018240100202401009C230100602301002D
:103DD000282401006007FF1F992A00009832FF1F66
:103DE000302401003424010068230100812A0000EE
:103DF0007C33FF1F382401004024010048240100C7
:103E0000692A0000A033FF1F582401006424010028
:103E1000702401007C240100882401009424010006
:103E2000A0240100512A0000C033FF1FAC24010070
:103E3000B0240100B8240100C0240100C8240100FE
:103E4000D0240100D8240100392A00002033FF1FAC
:103E5000E0240100E8240100212A00005C33FF1F58
:103E6000F0240100F82401000025010008250100CC
:103E700014250100092A0000C432FF1FF1290000A7
:103E8000C0230100E42301009423010008B580B1A0
:103E900010481B21FCF7E6FA0F481D21FCF7E2FA57
:103EA0000E481C21FCF7DEFA0D481E21FCF7DAFA59
:103EB00008BD08481E21FCF7D5FA07481C21FCF76D
:103EC000D1FA06481D21FCF7CDFA05481B21FCF765
:103ED000C9FA08BD6832FF1F0432FF1FB831FF1F47
:103EE000D031FF1F10B502F021FB04460448FCF757
:103EF000BFFB0368012B08BF04F56164204610BDB9
:103F00001C32FF1F014A024B1A6070470400FA0579
:103F10000CED00E008B502F0A9FE08BD10B582B0B6
:103F200002AB03F8011D0268546819460122A0473C
:103F300002B010BD10B50446C3691BB9012303715B
:103F4000002010BD00201871E06901F09BFDE369BD
:103F50001B7913B101232371002010BD00B583B07C
:103F6000C06960B10DF10701012201F0FBFA0128DF
:103F70000CBF9DF807004FF6FF7000B201E04FF054
:103F8000FF3003B05DF804FB30B583B00446C06970
:103F900078B10DF10701012201F0E4FA01280AD1FC
:103FA0009DF80750E069C168013901F0BFFB284660
:103FB00003E0002001E04FF0FF3003B030BD00BF50
:103FC00008B5C06908B101F0E9FB08BD2DE9F04171
:103FD00004460E469046002303714FF47A728260C5
:103FE0000373114B0360242007F02CFBE061B8B190
:103FF0003546074606F1200E3E4628686968AA68DD
:10400000EB680FC6103537467545F5D12868306026
:1040100004F10D0041460C2208F08CFD002363766C
:104020002046BDE8F08100BF40250100002202715A
:104030004FF47A718160027302490160C261427378
:10404000704700BF40250100014B0360704700BF6F
:10405000402501000D307047C3692BB198790128C4
:1040600094BF0020012070470020704708B5C06948
:1040700010B101F077FA08BD002008BD08B5C0698D
:1040800028B101F053FB003018BF012008BD00200B
:1040900008BD00BFC3690BB1D86870474FF0FF304F
:1040A000704700BFC3690BB1986970470020704723
:1040B00038B50446C36963B1FFF7F4FF05462046EF
:1040C000FFF7E8FF281A47F6FF73984228BF184603
:1040D00038BD002038BD00BF10B50446C06930B1FE
:1040E00001F088FBE06907F0B5FA0023E36110BD39
:1040F000C36923B19879003018BF012070470020B0
:10410000704700BF10B58AB004460A4600238DF8F8
:104110000830094901918DF80A3001A82146012390
:1041200001F01AFC041C18BF012414B101A801F00D
:1041300061FB20460AB010BD68250100F0B40C6890
:10414000035D2F2B1CD101341AE0002563B11EE062
:104150000135013407F8013F0C2D05D016F8013F59
:104160002F2B01D0002BF3D100235355035D2F2BB0
:1041700008BF01340C60005D003018BF01200BE067
:104180000619035D2F2B08BF0025EDD0DDE70134B4
:10419000137017460125E1E7F0BC70472DE9F04F99
:1041A00099B082460F469146984600238DF81C3000
:1041B000244A06928DF81E308DF840300F928DF80B
:1041C000423001930C4606AE4FF0010B03E00FACFA
:1041D000234634461E46504601A902AAFFF7AEFF09
:1041E000054680F00102204602A9D2B24346C847E4
:1041F00030B9BC421CD0204601F0FCFA00201EE081
:104200007DB13046214602AA5B4601F0A5FB05467A
:10421000BC4211D0204601F0EDFA002DD8D100208B
:104220000DE0BC4206D0204601F0E4FA012006E091
:10423000002004E0012002E00028C8D1002019B0CD
:10424000BDE8F08F6825010038B504460A46FE290E
:104250000CD1FE23037000F0C9FA054600F0B2FA53
:10426000A070D5F1010038BF002002E0012100F06C
:104270007FFEA8B1251D28462146012201F0B2FE8D
:1042800028B928462146002201F0ACFE50B104F1C5
:104290002C00294601F03CF9003018BF012038BD40
:1042A000002038BD002038BD2DE9F04F99B081467F
:1042B0009346019300238DF81C30394A06928DF8FD
:1042C0001E308DF840300F928DF8423006A8043130
:1042D00001F01EF95C460FAE06AD4FF02F084FF00F
:1042E000000A2CE023782F2B01D1013427E03F1B5B
:1042F000FFB20C2F28BF0C2702A821463A4608F02F
:1043000019FC18AB3B4403F858AC304601F072FA84
:104310003046294602AA012301F01EFB40B90023C2
:1043200089F804301E4AC9F8002089F8063032E0C6
:104330003C44284601F05EFA2B4635461E46204690
:10434000414608F0E1F907460028CBD1CBEB040445
:10435000019B1C602B7989F80430114BC9F800309F
:104360006B7989F80530AB7989F80630AB68C9F804
:104370000830EB68C9F80C302B69C9F810302B7D78
:1043800089F81430AB69C9F81830EB69C9F81C30EA
:104390002B6AC9F82030484619B0BDE8F08F00BF3D
:1043A00068250100F0B5A7B0044615461F4602A8CF
:1043B00001ABFFF779FF01996E18695C19BB9DF895
:1043C0000C308DF85430344B14939DF80D308DF82B
:1043D00055309DF80E308DF85630049B1693059B92
:1043E0001793069B18939DF81C308DF86430089B3A
:1043F0001A93099B1B930A9B1C93204614A9274AD6
:10440000FFF7E4FD45E000218DF83010224B0B93BF
:104410008DF832109DF80E301BB92046FFF706FECE
:1044200037E00BA802A932463B4601F095FA18B9CD
:104430002046FFF7FBFD2CE002A801F0DBF917F0A6
:10444000060F03D00BA8119901F070F99DF83030D8
:104450008DF87830104B1D939DF831308DF8793000
:104460009DF832308DF87A300D9B1F930E9B209370
:104470000F9B21939DF840308DF88830119B23933A
:10448000129B2493139B259320461DA93246FFF7C8
:104490009DFD204627B0F0BD68250100582501008C
:1044A00008B500F12C0308461946024A0023FFF71D
:1044B00075FE08BD05410000F0B59FB006460D46EB
:1044C000174649E09DF810401CB93046FFF7AEFD95
:1044D0004BE0E52C40D02E2C3ED09DF81B1011F067
:1044E000080F39D100238DF83430214A0C928DF811
:1044F000363004A8694600F0ABFF0CA8E9696A46AB
:104500003B4601F029FA18B39DF834308DF8583045
:10451000174B15939DF835308DF859309DF836308E
:104520008DF85A300E9B17930F9B1893109B19937D
:104530009DF844308DF86830129B1B93139B1C939D
:10454000149B1D93304615A96A46FFF73FFD0CE00A
:104550003046FFF76BFD08E0E86904A901F09EF81A
:104560000028AFDC3046FFF761FD30461FB0F0BDDC
:104570006825010070B588B004460E46FFF76CFD53
:10458000054688B919E09DF80030ABB1E52B0BD09A
:104590002E2B09D09DF80B3013F0080F04D168467C
:1045A000314600F055FF08E0E069694601F076F811
:1045B0000028E8DC002500E00025284608B070BD92
:1045C00010B50446FFF748FD18B1E36900229A6070
:1045D000DA6010BD064B00229A700221596083F800
:1045E000242083F830200349D96283F832207047B1
:1045F000EC33FF1F6825010040F24343074A136074
:10460000043213604FF48861043211600432136085
:104610000432136004321360704700BF00D00440BE
:104620000023064A1360043213600432136004321C
:1046300013600432136004321360704700D00440EA
:10464000114B196821F008021A60104A0A40104301
:1046500040F460221A60083B1B6813F0080F07D172
:104660000B4B0C490A6812F0080F01D1013BF9D13C
:1046700040F4602242F00802034B1A6004331A68C7
:1046800042F480121A6070472C100B400700F0FFB4
:10469000FFFF0F0024100B40224B1A6842F08002EB
:1046A0001A60214A136813F0010FFBD1136813F04D
:1046B000020FF7D11D4B18604FF0807319481C4949
:1046C0000268013B0A4002D1002BF9D102E00BB194
:1046D000012A08D0134A136843F4702343F00103FE
:1046E0001360012070470F4B1B6813F0800F06D03A
:1046F0000C4B1A6842F001121A6003207047094BF4
:104700001B6813F4803F06D0064B1A6842F0011272
:104710001A6005207047034B1A6842F001021A60C4
:104720000020704730100B4024100B400C100B4041
:1047300001000E00F8B50022104B1A601048FFF778
:10474000ABFF63240F4D0D4F0D4E06E000233B6081
:104750003046FFF7A1FF013C06D02B6813F0040F91
:1047600008D00028F2D0F8BD30B90CB10020F8BD57
:104770000520F8BD0028F9D0F8BD00BF08100B4097
:104780000000DB0C24100B4010B504460022094B3E
:104790001A600948FFF780FF50B9084B1B68054BAA
:1047A0001C600748FFF778FF18B9044A126810BD6B
:1047B00010BD10BD08100B4000001A3710100B4040
:1047C00000000229084B1B784BB9074B9B7843B17B
:1047D000054B5B78002B14BF03200220704700209C
:1047E00070470120704700BF4034FF1FF8B5A24B4F
:1047F0001A6842F400321A6008331A6842F4005210
:104800001A6004331A6842F002021A6004331A680C
:1048100042F002021A60994B1A6822F001021A60F3
:10482000FFF7FEFE964A974B1A601A46136813F07C
:10483000807FFBD10022944B1A604FF48132BC3B45
:104840001A60282224331A604FF010121C331A60A9
:1048500041F2D000FFF7F4FE8C4A136813F0030F07
:10486000FBD1FFF7C9FE4FF6FF72894B1A60894AE8
:1048700004331A604FF4FA71824A136843F00063FC
:104880001360136813F0006FFBD10139F5D1804B31
:104890001A6842F080021A600C3B1B6813F4803FD8
:1048A00000F01E8125E17C4B1B684FF4D5727B4BD9
:1048B0001A607B48FFF7F0FE20B111E00120794B30
:1048C0001870F8BD744B1A681B68B3F5D57F03D018
:1048D0000120744B1870F8BD0122724B5A7005E02C
:1048E000052803D001206F4B1870F8BD0020FFF79A
:1048F0004BFF18B101206B4B1870F8BD664B1B685D
:1049000013F4401F1FD0674B5B78002B664F08BF26
:104910004FF440170024604E644D01343846FFF7D1
:1049200033FF002840F0DA803368002BC0F2F080BB
:10493000AC42F2D104E0584B1B6813F0804F02D117
:104940000022584B5A700022544B1A605848FFF707
:10495000A3FE48B9504B1B680022504B1A605548C3
:10496000FFF79AFE20B111E001204E4B1870F8BD00
:10497000494B1A681B681B0C1B044A4A5360474A80
:1049800013604D48FFF788FE20B1C6E00120454B7B
:104990001870F8BD494B1A68120E424BDA70484B3A
:1049A0001B6813F4400F16D1444B1968186800F0C7
:1049B0000300043B1A681B68920D42EA8022013210
:1049C000C3F3C21302339A40C1F30323093B9A4055
:1049D000344B9A6009E0334B01229A70394A1268CD
:1049E000C2F31522013292029A602E4B5A682B4B69
:1049F0001A603548FFF750FE50B9274B1B684FF43B
:104A00000072264B1A603148FFF746FE20B10FE0D6
:104A10000120244B1870F8BD1F4B1B68214B5A68AE
:104A20001E4B1A602A48FFF737FE002879D103E0B1
:104A300001201C4B1870F8BD174B1B680222174B46
:104A40001A602448FFF728FE00286AD1124B1B6821
:104A5000214B1A6822F006021A601A6842F002021C
:104A60001A60FFF7DDFD4FF49870FFF7E9FDFFF7DF
:104A7000C3FD0C4B1878F8BD3080044000D00040D6
:104A8000008000012C100B40C0100B4024100B4084
:104A900030100B40BB007F1110100B4008100B4072
:104AA00000001A084034FF1F00003040A0860100BB
:104AB0000000090200001A030000090918100B4049
:104AC0001C100B4014100B4000001B0700001A10B4
:104AD00000001A3700001A0628100B400120F8BD0C
:104AE000124B0220187000225A605A709A709A6015
:104AF000F8BD0E4B00201870586058709870986080
:104B00000B4B1860FFF7C8FD00283FF4CCAED5E68C
:104B1000084B9C423FF614AF0DE70120034B187081
:104B2000F8BD0120014B1870F8BD00BF4034FF1FD5
:104B300008100B409F86010070B50446364B1B7869
:104B4000002B65D1344B5B7803B949024FF6FF72F5
:104B5000324B1A60283B19604FF48132043B1A60D3
:104B60002F48FFF799FD002854D12E4B1B682B4A84
:104B7000136843F02001116013F4E00F12D007E036
:104B80002B6843F020062E60403213F4E00F0FD064
:104B900043F4E00343F02003204A1360FFF7CAFD0B
:104BA00001202CE0224604F5E0701F4C1F491B4DEC
:104BB000236813F4006FFBD00B6813600B6853601D
:104BC0000B6893600B68D3600B6813610B685361CB
:104BD0000B6893610B68D3610B6813620B685362B7
:104BE0000B6893620B68D3620B6813630B685363A3
:104BF0000B6893630B68D3638242C1D10020074ADC
:104C0000136813F0020FFBD0094A044B1A6070BD01
:104C1000032070BD70BD00BF4034FF1F30100B403B
:104C200010003A1110100B4024100B4020100B40C4
:104C30002200000170B506462D4B1B78002B53D186
:104C40002B4B5B7803B949024FF6FF72294B1A6070
:104C5000283B19604FF48132043B1A602648FFF765
:104C60001BFD002842D1254B1B6806F50070214D25
:104C7000234C2B6813F0100FFBD02B6813F4E00FBC
:104C80000AD01C4A136843F4E00343F01003136096
:104C9000FFF750FD01201EE006F14001334653F8B6
:104CA000042B22608B42FAD140362B6843F010036C
:104CB0002B602B6813F4E00F0AD00E4A136843F4FC
:104CC000E00343F010031360FFF734FD012002E01E
:104CD0008642CED10020074A136813F0020FFBD0A2
:104CE000084A044B1A6070BD032070BD70BD00BF40
:104CF0004034FF1F30100B4000003A1810100B40DA
:104D000020100B4012000001084B1A6842F4806228
:104D10001A604FF00042DA62FF225A631A46D36AE1
:104D2000002BFCDA014B986BC0B2704700C0024008
:104D3000064B1A6842F480621A604FF00042DA6251
:104D400058631A46D36A002BFCDA704700C0024051
:104D500008B505281CD8DFE800F003070B0F131770
:104D60000E4A0F4B1A6016E00C4A0D4B1A6012E007
:104D70000C4A0B4B1A600EE00B4A094B1A600AE012
:104D80000A4A074B1A6006E0094A054B1A6002E01E
:104D9000084A034B1A6001F0BFF908BD000001B8D2
:104DA0005034FF1F01100038032000380100023882
:104DB000043000380650013808B50078012101F0B0
:104DC00097FF114B1B78F3B100220F4B1A700F4B5A
:104DD0001B78C3B113F0010F03D00D4B1A680D4BB4
:104DE0001A600A4B1B7813F0020F03D0084B5A6865
:104DF000094B1A60054B1B7813F0040F03D0044BCA
:104E00009A68064B1A6008BD5434FF1F8036FF1F96
:104E10007436FF1F00E100E004E100E008E100E07B
:104E200010B5244B1B78002B3ED10122214B1A7068
:104E3000214B1A68214B1B78002B28D072B61F4BD0
:104E40001B7813F0010F07D01D4B1C681D49096822
:104E500021401D4C21601960184B1B7813F0020F84
:104E600007D01A4B1C68174949682140164C6160ED
:104E70001960124B1B7813F0040F07D0144B1C68F9
:104E8000104989682140104CA160196062B6114B2D
:104E9000DB68934208D00F4B0F491960DA6042F08B
:104EA00080421A610D4A1A600078002101F020FF4B
:104EB00010BD00BF5434FF1F5034FF1F8036FF1F4A
:104EC00080E100E06836FF1F7436FF1F84E100E0D8
:104ED00088E100E000C0024001401F0000001F8088
:104EE00070B582B00E460B4B1B680093009C094DB9
:104EF000A4B2FFF709FFFF2807D02B680193019B9D
:104F00009BB21B1BB342F4DB01E0012000E0002058
:104F100002B070BDAC36FF1FF8B505460F46164609
:104F20004FF49671FFF7DCFF47F04000FFF700FFFA
:104F3000182426FA04F0C0B2FFF7FAFE083C14F178
:104F4000080FF6D127B1082F0CBF8720FF2000E003
:104F50009520FFF7EDFE0024FFF7D6FE687010F0F5
:104F6000800F03D00134B4F5807FF5D1F8BD00BFC8
:104F70002DE9F04F87B00446019100238370027041
:104F80007D4B1B680393039FBFB21046012101F0C4
:104F9000AFFE2078012101F0DDFE2078012101F033
:104FA000A7FE764B1A6842F480521A600620FFF77B
:104FB000CFFE734B1A68734B1B78002B28D072B648
:104FC000704B1B7813F0010F07D06F4B18686F49B7
:104FD000096801406E48016019606A4B1B7813F044
:104FE000020F07D06B4B1868684949680140684850
:104FF00041601960634B1B7813F0040F07D0664BB8
:10500000186862498968014061488160196062B628
:10501000624BDB68934200F0A080604B60491960EE
:10502000DA6042F080421A615E4A1A6095E02846D2
:10503000FFF77EFE013E16F0FF06F8D1514B1B78BC
:10504000C3B113F0010F03D0514B1A68564B1A60CD
:105050004C4B1B7813F0020F03D04D4B5A68534B47
:105060001A60484B1B7813F0040F03D0484B9A6822
:105070004F4B1A602046FFF7D3FE4FF00008DFF8D1
:10508000F89008E0D9F800300493049BDB1B9BB236
:10509000B3F5FA6F5DD8204641464246FFF73CFF24
:1050A000054660700128EDD1204608214FF4D572E5
:1050B000FFF732FF10F0040F04D00123A3704FF06C
:1050C000000A0FE04FF00408FFF71EFE607008F1C1
:1050D000FF3313F0FF08F7D1AA283AD10223A370B7
:1050E0004FF0804A4FF037094FF00008DFF888B0E2
:1050F00008E0DBF800300593059BDB1B9BB2B3F5A2
:10510000FA6F26D8204649464246FFF705FF20465B
:1051100029215246FFF700FF60700028E9D1A378EB
:10512000022B0ED120463A210022FFF7F5FE80B96E
:10513000FFF7EAFD00F0C000C02811D10323A370DF
:105140000EE02046FFF738FE0198FFF701FE2E46DD
:105150000DE02046FFF730FE09E00A26FF2566E74E
:10516000FFF7D2FDFFF7D0FDFFF7CEFDE9E73046B0
:1051700007B0BDE8F08F00BFAC36FF1F3C80044095
:105180005034FF1F8036FF1F80E100E06836FF1FAC
:105190007436FF1F84E100E088E100E000C00240B7
:1051A00001401F0000001F8000E100E004E100E07A
:1051B00008E100E070B582B004460E4B1B68009316
:1051C000009D0C4EADB207E033680193019B9BB28A
:1051D0005B1BB3F5967F09DCFFF796FD6070FF2837
:1051E000F2D0FE2814BF0020012000E0002002B011
:1051F00070BD00BFAC36FF1FF8B504460D4616461D
:105200008378032B18BF4D02FFF70AFE20461121B9
:105210002A46FFF781FE002847D12046FFF7CAFF44
:10522000002842D0234B244A1A60244A5A635A6306
:105230005A6306F5FD7E764513D2B01C06F5FE775F
:105240001946CB6A13F0F00FFBD04A638B6BC3F3A4
:10525000072500F8025C00F8013C0230B842F0D1AA
:1052600000E0B64606F5007676450DD97146114A3E
:10527000D36A13F0F00FFBD0936BC3F307200870D1
:105280004B7002318E42F3D80A4B0B4A1A600B4A1C
:105290005A631A46D36A13F0F00FFBD0054B9B6B91
:1052A0002046FFF789FD0120F8BD2046FFF784FD69
:1052B0000020F8BD00C0024000041F80FFFF0090E6
:1052C000F8B506461E4B186840F4806018604FF031
:1052D0000040D8625963114602F500770446DA6A45
:1052E000002A08DBFBE7DA6A002A0DDBFBE7D36A5A
:1052F000002B15DBFBE708460A781D6845F480653E
:105300001D60DC625A63EEE742781D6845F48065F3
:105310001D60DC625A630231B942E0D1084AE6E717
:10532000FF20FFF705FDFF20FFF702FDFFF7ECFC74
:10533000707000F01F00052814BF00200120F8BD88
:1053400000C0024070B5044616460D4629B3837866
:10535000032B18BF4D02FFF763FD204618212A4694
:10536000FFF7DAFDC8B92046FE213246FFF7A8FF55
:1053700098B120464FF41671FFF7B2FD68B1204690
:105380000D210022FFF7C8FD38B9FFF7BDFC20B999
:105390002046FFF711FD012070BD2046FFF70CFDF0
:1053A000002070BD014A024B1A607047032000388C
:1053B0005034FF1F10B50446006A012104F10802B1
:1053C00000F086FD034650B1E3693BB9A368E36191
:1053D000637963F07F036371012300E001231846C2
:1053E00010BD00BF70B50646FFF7E4FF0346E0B10D
:1053F000336AB268023A197C02FA01F55A69154417
:105400001C794CB1013D281900F098FC034660B1AD
:10541000013C14F0FF04F6D1336A1B7C4FF4007298
:105420009A40B3691344B3610123184670BD00BFAD
:1054300010B50446006900F051FC20B1207D034BFB
:1054400003EB401010BD002010BD00BF6434FF1FEF
:1054500070B400231A462E26C45C202C09D0DCB27E
:10546000082C02D1541C8E54E2B2541CC55C8D54DD
:10547000E2B201330B2BEFD100238B5470BC704789
:105480002DE9F00100232022CA5401330B2BFBD15C
:105490000138002507264FF008084FF00A0C1B4F73
:1054A00021E02E2C01D03A4606E00A2E24D04546B3
:1054B000664618E0A34221D012F8013F002BF9D133
:1054C000AE421DD3A4F12103DBB25D2B1AD86B1CB5
:1054D000DBB20D44A4F16102D2B2192A9CBF203C78
:1054E000E4B22C701D4610F8014F002CD9D1087879
:1054F000203818BF012006E0002004E0002002E070
:10550000002000E00020BDE8F00170476F25010099
:1055100038B504460D4683790BBB91F82020102A3C
:1055200007D1022383710023C3614B8C5B0183612C
:105530000CE0202A14D103238371496AC1612846F3
:1055400004F1180200F050FC034648B12562012323
:1055500063710022A260E2602261227500E00023F4
:10556000184638BD2DE9F04F83B00446884683794C
:10557000002B6ED0437913F0010F6DD08169C368A1
:10558000CB1A9A4228BF1A460192002A5FD01646CB
:10559000DFF8FCA0DFF8FC90DFF8FCB0E368C3F3B1
:1055A0000807A279022A04D1226A516A01EB532129
:1055B0001BE0206A0579013D05EA5325EDB25FB98C
:1055C00055B913B9E369A36006E0224652F8081FF3
:1055D00000F0D4FB002842D0226AA368023B117C71
:1055E00003FA01F1526911442944C7F50075AE422E
:1055F000B8BF3546637913F0400F02D1B5F5007F8F
:1056000036D1D9F80030994239D131E04046FFF720
:1056100093FAD0F1010038BF002002E04246FFF7C4
:10562000EBFDF8B1A8440DE057447819874209D042
:105630003B46424613F8011B02F8011B8342F9D195
:10564000C71BB844E3682B44E360761BA6D10198DE
:105650001BE04FF0FF3018E04FF0FF3015E04FF047
:10566000FF3012E04FF0FF300FE04FF0FF300CE062
:105670000846002100F032FB0028D5D1F5E7DBF821
:1056800000000378FE2BC9D1C0E703B0BDE8F08F5E
:105690006434FF1F6807FF1F6034FF1F70B50546A5
:1056A0000C468379012B1CD9C36813F01F0F1AD144
:1056B000202609E0237883B1E52B05D02E2B03D0DB
:1056C000E37A13F0080F10D0284621463246FFF740
:1056D00049FFC0B243B2202BECD040F3C011C8B296
:1056E00004E0FF2002E0FF2000E0202040B270BD77
:1056F00030B583B004468379012B0FD9C5680DF10D
:1057000007010122FFF72EFF012809D1E3681F33AB
:10571000E36005F4F070044B184402E0002000E060
:10572000002003B030BD00BF6434FF1FF8B504464D
:105730000F4683797BB382698A422BD3022B02D135
:10574000E160012327E021B900238360C3600123C6
:1057500021E0C368026A157C09355A1EEA40013906
:1057600021FA05F5AA4200D813B9E369A3600AE05B
:10577000AD1A08E0206AA168324600F0FFFA013D48
:10578000034610B907E004F10806002DF2D1E760E6
:10579000012300E000231846F8BD00BF38B50446D9
:1057A000807918B394F90530002B1BDA20460121CB
:1057B000FFF73EFE0546C0B1A379012B9CBFA3694C
:1057C000C361A38B4383E38B8382094B1B682BB19B
:1057D000183005F1160198472B8B6B82637903F023
:1057E0007F03637100F03AFA38BD002038BD00BF76
:1057F0005834FF1F10B50446FFF7D0FF034610B121
:105800000023A3710123184610BD00BFF0B583B07B
:1058100004460D468379012B4ED1427902F00202F3
:1058200002F0FF01002A49D08269AA4248D3002A27
:1058300047D0C6682946FFF779FF0346002840D0C5
:105840004DB9206AE16900F0A7FB0346002838D073
:105850000023E3611DE0206AA16801AA00F08EFA2E
:10586000A8B1206A019990F820704FF6F872164B93
:10587000102F08BF134699420BD200F08DFB30B1B8
:10588000206AA1686FF0704200F0DAFA08B90023CC
:1058900017E0A561637963F07F0363712046FFF72A
:1058A0007DFF034668B12046B54234BF29463146E4
:1058B000FFF73CFF034604E0002302E00B4600E054
:1058C0000023184603B0F0BDF8FFFF0F38B50446BB
:1058D00015461F4B03EB4113DA7A12F0110F02D079
:1058E00015F0420F2CD121751A4A12682261998A4B
:1058F0000904E1615A8B1143E161D87A10F0180074
:1059000004D1DB69A3610123A3710AE0102819D136
:10591000206A04F1180200F067FA0346A8B10423D4
:10592000A37105F00F0363710023A360E36015F01A
:10593000400F09D020461946FFF768FF034604E0F0
:10594000002302E0002300E00123184638BD00BF19
:105950006434FF1F6807FF1F2DE9F04F85B005462F
:105960000C469A468679002E7FD1104601A9FFF792
:1059700087FD00287BD0236A2B620027A760E760A1
:10598000DFF8FC904FF0010825E0C1F3431B2046EF
:10599000FFF7AEFE014600286AD003780BB1E52B75
:1059A00009D12FB985F814B0D9F800302B614746DA
:1059B0000B7883B913E001A80B2206F0EFF850B979
:1059C0000AF03003302B53D0284659465246FFF791
:1059D0007DFF06464CE0E168A3699942D5D30AF001
:1059E0001203122B44D137B128460121FFF720FDC5
:1059F000044660B93CE0A379022B39D02046FFF77A
:105A0000F1FC0646002833D000232B751A4C2046A3
:105A10000021202206F056F901AB03CB2060616023
:105A20001A889B782281A372144B1B682BB104F156
:105A3000100004F10E01984707E021232374282366
:105A400063740023A3730823E373238A638223838D
:105A5000E389E38200F002F9064648B12846297D31
:105A60005246FFF733FF064602E0002600E00646F6
:105A7000304605B0BDE8F08F6434FF1F5834FF1F77
:105A80006807FF1F2DE9F04F85B004468846019254
:105A90008379012B40F0C080437913F0020F00F0AE
:105AA000BB8013F0040F08D08169C3688B4204D017
:105AB000FFF73CFE002800F0AF800198002800F0BE
:105AC00090800646DFF874A1DFF874B1206AE768B9
:105AD00090F8049009F1FF3909EA5729C7F308073C
