:1000000000000320D1010000A55500006955000043
:1000100069550000695500006955000069550000E8
:10002000695500006955000069550000A55500009C
:10003000A555000069550000A55500005955000060
:10004000A5550000A5550000A5550000A5550000C8
:10005000A5550000A5550000A5550000A5550000B8
:10006000A5550000A5550000A5550000A5550000A8
:10007000A5550000A5550000A5550000A555000098
:10008000A5550000A5550000A5550000A555000088
:10009000A5550000A5550000A5550000A555000078
:1000A000A5550000A5550000A5550000A555000068
:1000B000A5550000A5550000A555000001710000E0
:1000C000A555000085780000A55500000D7E0000B4
:1000D000A555000039840000A5550000A555000075
:1000E000A5550000A5550000A5550000A555000028
:1000F000A5550000A5550000A5550000A555000018
:10010000156700002D670000456700005D6700006F
:10011000A5550000695B0000A5550000A55500002D
:10012000A5550000A5550000A5550000A5550000E7
:10013000A5550000A5550000A5550000A5550000D7
:10014000A5550000A555000089890000A5550000AF
:10015000A5550000A5550000A5550000A5550000B7
:10016000A5550000A5550000A5550000A5550000A7
:10017000A5550000A5550000A5550000A555000097
:10018000A5550000A5550000A5550000A555000087
:10019000A5550000A5550000E98F0000A5550000F9
:1001A000A5550000A5550000A5550000A555000067
:1001B000A5550000A5550000A5550000A555000057
:1001C000A5550000A5550000A5550000A555000047
:1001D0005C4B4CF2205210B51A804DF628121A8052
:1001E00000BF00BF05F0E2F9574B4FF030621A60D4
:1001F000564A9A60564ADA60564B4FF470021A60BB
:10020000554B564A1A60564B1A6812F4807204D144
:1002100054490A604FF4A8521A60534B1A781107D8
:1002200003D51A7842F008021A70504B504C5148CE
:10023000AA221A70504A00239918A14203D21958D1
:1002400099500433F8E74D4B4D4900228B4202D2BE
:1002500043F8042BFAE74B484B4900235A581A50ED
:100260000433B3F5E87FF9D1484B494A802103F8BC
:10027000011B9342FBD1474B424A1A60464B8A22EC
:100280001A70A3F5805324225A70A0221A709A790A
:100290009207FCD59A79D406FCD4404B9A7902F0A7
:1002A0000C02082AFAD13E4B60221A7002331A78E7
:1002B000802AFCD1394B01221A715D225A719A7938
:1002C0009006FCD59979354A4906FBD5354B364918
:1002D00019600021596020231370937903F00C03F7
:1002E0000C2BFAD1314B324A1A60324B324A1A6027
:1002F00000225A60072243F8042C304AC3F80C2D20
:1003000062B605F0B7FA174B1B68DA0705D52C481B
:1003100005F0C8F92B4B2C4A1A602C4B1B785B0656
:1003200009D5284C284A2368934204D1244805F073
:10033000B9F90023236009F065FF05F03DF906F0E7
:1003400083FAFEE70E20054030800440823F04001F
:100350000100002B88ED00E0002008E0030000858C
:1003600010D0034014D0034002D0074000E0074003
:10037000AC10FF1FD80E01006007FF1FAC10FF1F5D
:10038000D82AFF1F0002FF1F0000000000E400E069
:1003900064E400E008ED00E0005006400040064044
:1003A00001E007404480044000000602048004404D
:1003B000C010070014E000E01FBF02000000202072
:1003C0000E7FF6581CE00340A5C3945A00F0074086
:1003D000FFFFFFFFFFFFFFFFFFFFFFFFFFFFFFFF2D
:1003E000FFFFFFFFFFFFFFFFFFFFFFFFFFFFFFFF1D
:1003F000FFFFFFFFFFFFFFFFFFFFFFFFFFFFFFFF0D
:10040000FFFFFFFFFFFFFFFFFFFFFFFFDEF9FFFF23
:1004100010B5054C237833B9044B13B10448AFF33E
:1004200000800123237010BDAC10FF1F00000000EE
:10043000D00E010008B5064B1BB106480649AFF3C4
:1004400000800648036813B1054B03B1984708BD07
:1004500000000000D00E0100B010FF1FAC10FF1F05
:100460000000000038B504460D46C8B2022105F070
:1004700087F92560642363604FF47A73A3600023D7
:10048000237501232361204638BD00BF30B583B0FA
:100490000446164B1B680093009D007805F062F936
:1004A000E0B92369012B05D1104B1B680193019B17
:1004B000E36010E0E0682D1A63689D420AD9237D4D
:1004C0002BB1A068854294BF0220032003E00120E5
:1004D000207500E000200023236104E00020E0609C
:1004E00020750123236103B030BD00BF1C26FF1F10
:1004F0002DE9F0410C460E46CF18C1EB0208A01BB7
:10050000BC4209D0B4F5805F06DA204604F0E8FF6B
:1005100008F804000134F2E7BDE8F08110B50446A4
:10052000002102460423FFF7E3FF01462368062B60
:1005300006D12046221D2423FFF7DAFF012010BD3B
:10054000002010BD10B504460368062B01D0FFF74C
:10055000E5FF201D10BD00BFF8B50C460D46CE18B6
:10056000571A601BB44208D0B4F5805F05DA204604
:10057000395D04F0CBFF0134F3E7F8BD10B5044654
:1005800006230360002102460423FFF7E5FF01462E
:100590002046221D2423FFF7DFFF012010BD00BFEE
:1005A00038B50446002140F8041B24220AF092F9D1
:1005B0002046FFF7B3FF88B900226260A2600A23D9
:1005C000E360226104F11405054B03CB60616960AF
:1005D0001B782B7262622046FFF7D0FF204638BDA1
:1005E00010E50000F8B506461746041D0D460FCD70
:1005F0000FC40FCD0FC42B6823601FB13046FFF727
:10060000BDFFF8BD0120F8BD08B504F021FF024888
:10061000FFF7C6FF08BD00BFC810FF1F10B5044696
:1006200000F580500C3006F05FF8204610BD00BF8A
:1006300030B4034641F20C0144180022425000F548
:100640008051086000F5006541F20401455041F217
:100650000801585041F21401425041F21801425031
:1006600041F22101425441F21C01425000F58153F4
:100670001A70C823237130BC704700BF2DE9F04FBA
:1006800089B004460591069207935FFA81FB5846AC
:10069000012105F075F8069AD2B2019210460121A7
:1006A00005F06EF8079BDBB202931846012105F0B6
:1006B00067F8129AD2B203921046012105F060F851
:1006C000139B5FFA83FA5046012105F059F8149AFA
:1006D0005FFA82F94846012105F052F8159B5FFA4E
:1006E00083F84046012105F04BF8169AD7B23846F8
:1006F000012105F045F8179BDEB23046012105F0D7
:100700003FF8189AD5B22846012105F039F8199B0F
:10071000DBB204931846012105F032F85846002157
:1007200004F0FCFF0198002104F0F8FF029800217A
:1007300004F0F4FF0398002104F0F0FF504600217C
:1007400004F0ECFF4846002104F0E8FF4046002199
:1007500004F0E4FF3846002104F0E0FF30460021B9
:1007600004F0DCFF2846002104F0D8FF04980021A3
:1007700004F0D4FF41F22403059AE25041F2280329
:10078000069AE25041F22C03079AE25041F23003FC
:10079000129AE25041F23403139AE25041F23803C4
:1007A000149AE25041F23C03159AE25004F5825348
:1007B000169A1A6041F24403179AE25041F2480334
:1007C000189AE25041F24C03199AE25009B0BDE880
:1007D000F08F00BF08B5012241F22103C25400F599
:1007E00080500C3002493B2205F034FF08BD00BFA9
:1007F000B90B0000002241F22103C254704700BF30
:100800003F299DBF41F21C03C150012000207047C9
:1008100002299DBF00F58150017001200020704722
:1008200038B5044641F2040540594FF4006204F023
:100830006DFD04F58053196862591A60615138BD25
:1008400041F20803C25841F20403C3589A4205D149
:100850003C221346013B7FF4FDAFFAE701207047CD
:100860002DE9F00F84B00346002003F580520832D2
:10087000029203F580551835039503F5805B0BF163
:10088000140B41F21C029A58824200F34D8141F24E
:100890002402995CAE4A52F83120012182F880107E
:1008A00042E103F5815424780134E4B2029F3E68AA
:1008B000039DD5F8008000EB8817F55D12F0010F5D
:1008C00011D04FF00109DBF8007009FA07F95FFA5F
:1008D00089F909EA251708F1100800EB881816F8BD
:1008E0000860360913E04FF00109DBF8007009FADF
:1008F00007F95FFA89F905F00F0707EA090708F118
:10090000100800EB881816F8086006F00F0606EAD3
:100910000906009D95F8008051F838804FF00109D4
:1009200088F80091DCF8009014F001080BD057B162
:100930005FFA89F951F839804FF0010988F8809001
:10094000DAF800900CE05FFA89F951F839504FF06D
:10095000010985F80091DAF80090B8F1000F09D08C
:1009600046B15FFA89F951F839804FF0010988F8EA
:10097000809007E05FFA89F951F839804FF001095A
:1009800088F8009141F2300853F8088004F002041E
:1009900004F0FF095CB157B15FFA88F851F83840AC
:1009A000012784F8807041F234041C590CE05FFA8E
:1009B00088F851F83840012784F8007141F2340476
:1009C0001C59B9F1000F07D036B1E4B251F83440E8
:1009D000012684F8806005E0E4B251F83440012635
:1009E00084F80061009D2C7851F83440012684F889
:1009F00080603244022A7FF454AF304440287FF4B0
:100A000040AF41F24802995C514A52F8312082F8D5
:100A1000806041F23802995841F218029A5812F057
:100A2000010FC9B24A4A52F8312019BF314682F843
:100A30008010012182F8001141F23C02995841F2E4
:100A400018029A5812F0020FC9B2414A52F83120E6
:100A50004FF0010114BF82F8801082F8001103F5F5
:100A60008252116841F218029A5812F0040FC9B26A
:100A7000374A52F831204FF0010114BF82F880103C
:100A800082F8001141F24402995841F218029A5832
:100A900012F0080FC9B22E4A52F831204FF001016E
:100AA00014BF82F8801082F80011294941F24802EF
:100AB0009A5C51F83200012280F8002141F22400B2
:100AC000185C51F8301081F8002141F214029A5854
:100AD000022A06D0032A06D0012A0CBF02200120D8
:100AE00002E01E2000E02D2041F21801595801318A
:100AF000102903D041F21802995024E0002441F259
:100B000018015C500132042A03D041F214015A50FA
:100B100019E0002141F21402995003F58052116846
:100B200041F2080299500EE00022094903F582556E
:100B30000C3503F5815C0CF1080C03F5815A0AF1C0
:100B40000C0A0095ADE604B0BDE8F00F704700BF99
:100B50003C08010038B5044600F580550C352846A0
:100B600005F0C2FD2046FFF77BFE41F22103E35C66
:100B700013F0FF0F10D0002817DB421E0B4B9A42D8
:100B800013D8C0EB00108200013A232A0DD9284661
:100B9000074905F05FFD38BD41F22403E25C054BD7
:100BA00053F83230012283F8802038BD4744440492
:100BB000B90B00003C08010008B50248FFF7CAFF66
:100BC00008BD00BFF010FF1F10B5054C2046FFF711
:100BD0002FFD20460349044A09F004FB10BD00BF65
:100BE000F010FF1F1D0600006007FF1F08B561F32E
:100BF0001F114FF4006209F06DFE08BD10B50446E8
:100C00008023C0F800382023C0F804380021FFF703
:100C1000EDFF204610BD00BF00290CDB002A0CDBD5
:100C2000D0F8003899420ADAD0F804088242ACBF02
:100C300000200120704700207047002070470020EE
:100C4000704700BF70B505460C461646FFF7E4FF37
:100C500060B104EBD473B60106EB6306A85D14F033
:100C6000010F14BF000900F00F0070BD002070BD1F
:100C7000F8B505460C4616461F46FFF7CDFFA0B156
:100C800007F00F0704EBD472521002EB8613EB5CF3
:100C900014F0010F19BF03F00F0343EA071703F025
:100CA000F0031F4302EB8616AF55F8BD2DE9F04F58
:100CB00085B00746894601930E9BD31802939A424A
:100CC00035DA9046109B9B1A0393119B019AC2EB55
:100CD000030B21E00BEB040548464146224600F099
:100CE0000BFE30B1384631462A46FFF7ABFF0346CC
:100CF00005E048464146224600F0B2FD034638462C
:100D000031462A46FFF7B4FF01345445E2DB08F1CF
:100D10000108029B98450ADA039E4644DDF804A0C8
:100D20000F9A9244019B5345F1DA1C46D2E705B075
:100D3000BDE8F08F08B504F0AFFC08BD70B5AAB0EF
:100D40004F48FE2102F0BAF8002800F097804C4C82
:100D500012A821464B4A012302F05EF94A4B9DF846
:100D60004C201A71149A9A609DF854201A732AAA7A
:100D700052F8536D55689168C3F80D60C3F811506F
:100D8000C3F81510127B5A76199ADA6112A802F08C
:100D900045F802A821463D4A012302F03DF902A888
:100DA00002F082F8002863D00AA802F029F8012591
:100DB0001AA802A92A4602F0ADF99DF86C308DF808
:100DC0002C301C9B0C939DF874308DF834302AAB7A
:100DD00053F8334D58689968CDF83540CDF839004F
:100DE000CDF83D101B7B8DF84130219B11931AA843
:100DF00002F014F80AA802F057F818B10AA802F095
:100E000047F8D5E702A802F0E3F9012522A802A9D4
:100E10002A4602F07FF99DF88C308DF82C30249B07
:100E20000C939DF894308DF834302AAB53F8134D61
:100E300058689968CDF83540CDF83900CDF83D10A7
:100E40001B7B8DF84130299B119322A801F0E6FF0E
:100E50000AA802F029F840B10AA801A9022200F06C
:100E600037FE0AA802F014F8D0E70AA801F0D6FF6E
:100E700002A802F00DF802A801F0D0FF2AB070BD60
:100E80005C23FF1FE8EC00004021FF1FF0EC000096
:100E90002DE9F041ADF5096D964B1B6813F0010F7C
:100EA0000FD1944804F092FB58B1934C204601F0C6
:100EB000A7FF904804F090FB20469049904A09F023
:100EC00091F9904B1B6813F0010F0FD18D4804F07E
:100ED0007DFB58B18C4C204600F040FF894804F05F
:100EE0007BFB20468949864A09F07CF912A8FFF766
:100EF00085FE06A800F02AFC0AA800F027FC844B17
:100F00001B680593059C01F0E1FE0546814B1B68BB
:100F10000BB9804B1C60804B1B680BB97E4B1C606F
:100F20007E4801F0C1FF08B9FFF708FF7B4801F0D8
:100F3000BBFF002862D0704801F0B6FF00285DD1E9
:100F40000DF505607549012202F0E4F86A4E9DF83E
:100F500054383371DDF85838B3609DF85C3833731A
:100F60000DF5096353F8337D58689968C6F80D701C
:100F7000C6F81100C6F815101B7B7376DDF86C38C7
:100F8000F3610DF5056001F049FF304601F08CFF7B
:100F900040BB624E304602F01BF90DF5076031464A
:100FA000012202F0B7F8544B9DF874281A71DDF84D
:100FB00078289A609DF87C281A730DF5096252F81A
:100FC000137D56689068C3F80D70C3F81160C3F8BC
:100FD0001500127B5A76DDF88C28DA610DF5076072
:100FE00001F01CFF444801F05FFF20B14648424930
:100FF00000F0C6FE02E0494801F04AFF484BA3FB5F
:10100000042313F0200F05D10D20012104F086FBED
:10101000444E04E00D20002104F080FB424E434882
:10102000FFF790FA4268012A0FD0022A25D02846FD
:1010300004F028F80746284604F03AF803460EA8BC
:101040003B493A4609F08CFE38E0284604F022F885
:10105000384B394A0928D4BF90469846284604F0B0
:1010600019F80746284604F023F800900EA83349E3
:1010700042463B4609F074FE20E0284604F00AF898
:101080002C4B2D4A0928D4BF90469846284604F098
:1010900001F80746284604F00BF8054604F006F967
:1010A000274B284A00280CBF10461846009501908F
:1010B0000EA8254942463B4609F052FE1B48FFF761
:1010C00041FAC268013A052A04D8DFE802F0430673
:1010D000090C0F1141F288323EE043F698223BE0C2
:1010E00047F2305238E04EF6602235E0174A33E0DE
:1010F000174A31E07822FF1F0822FF1F1D2E000033
:101100006007FF1F2822FF1F7821FF1F711D0000AD
:101110001C26FF1F7C22FF1FEC21FF1F4021FF1F09
:10112000D34D6210F8EC000000ED0000C810FF1F66
:1011300010ED0000CC07010008ED00001CED0000E0
:101140000CED00002C07010028ED0000C0D40100C8
:10115000E093040042F21072A54B1968611A92B232
:10116000914236D2A3480AA90EAA334600F036FDB2
:1011700012A80021FFF73AFD0AA800F017FB064667
:101180000AA800F015FB05460AA800F00FFB04466C
:101190000AA800F00DFB00960195C4F17F0303EB54
:1011A000D3735B100293C0F11F0000EBD0704010AE
:1011B000039012A80AA900221346FFF777FD8E4C70
:1011C00020460021FFF73CFB204612A9FFF728FB31
:1011D00003E18A4801F068FE002800F0FC8088489E
:1011E00000F03EFE002840F0ED80854800F0ACFEA7
:1011F0000138042804D8DFE800F01224374A5C00E4
:101200007C480AA90EAA334600F0E8FC0AA800F0C0
:10121000CDFAC0F17F0000EBD07045105BE00023F9
:101220008DF83D3077480AA90EAA334600F0D6FC67
:101230000AA800F0BBFAC0F12A0000EBD0704510FC
:1012400049E000238DF83D306E480AA90EAA3346C6
:1012500000F0C4FC0AA800F0A9FAC0F12A0000EBD3
:10126000D07045102B3536E000238DF83D306548B1
:101270000AA90EAA334600F0B1FC0AA800F096FABB
:10128000C0F12A0000EBD0704510573523E0002351
:101290008DF83D305B480AA90EAA334600F09EFC4B
:1012A0000AA800F083FAC0F1400000EBD0704510AE
:1012B00011E000238DF83D3052480AA90EAA3346AA
:1012C00000F08CFC0AA800F071FAC0F1400000EBBD
:1012D000D070451040350AA800F06AFAC0F11F002E
:1012E00000EBD0704610484B1B682BB1E71A4448FE
:1012F00000F00EFE874205D94148404900F0C2FD8A
:10130000414B1C603E4C204600F000FE014606A802
:1013100000F05AFB12A80021FFF768FC204600F0FD
:1013200005FE10BB0AA800F041FA04460AA800F026
:101330003FFA009401900295039612A80AA9002290
:101340001346FFF7B3FC06A800F030FA044606A8DF
:1013500000F02EFA0094019000230293039312A848
:1013600006A91A46FFF7A2FC22E006A800F01EFA22
:10137000044606A800F01CFA009401900024029490
:10138000039412A806A922462346FFF78FFC0AA859
:1013900000F00CFA07460AA800F00AFA009701903C
:1013A0000295039612A80AA922462346FFF77EFC5F
:1013B000114C20460021FFF743FA204612A9FFF7FF
:1013C0002FFA0AE00D4801F063FD094B1C60002272
:1013D0000D4B1A6001E0064B1C600AA800F0C0FA31
:1013E00006A800F0BDFA0DF5096DBDE8F08100BF5B
:1013F000EC21FF1F6021FF1FF010FF1F0822FF1FBD
:101400007821FF1F2C22FF1F4422FF1F10B5214B04
:101410001B68022B04D0032B23D0012B33D118E0FF
:101420001D48FFF733F8032806D10322194B1A6031
:101430001A48FFF7DFF929E01948FFF727F80128D4
:1014400004D1144B186001F085F91FE0FFF720FD6F
:101450001CE0002001F07EF9C0B902220D4B1A6099
:1014600014E00D48FFF712F801280FD10A4C20466E
:10147000FFF70CF80028FAD10222064B1A60074841
:10148000FFF7A8F902E00222024B1A600A2004F0DA
:10149000DBF910BD6407FF1FF021FF1FF010FF1FD5
:1014A000D421FF1F10B50F4803F012FF3C2003F0BA
:1014B0001FFF642004F0C8F903F002FF02280A4C61
:1014C00023685B68204614BF084909491B229847D6
:1014D000204605F063F9002004F0F4F8FFF72EFC35
:1014E00010BD00BF350D00001427FF1F34ED0000B4
:1014F00050ED00002DE9F0418CB008A800F026F96D
:10150000544C23685B682046534904229847204680
:1015100005F044F9514B1C1F03F110080027012668
:1015200054F8045FEDB22846394604F0F7F828462F
:10153000314604F025F94445F2D10D20012104F093
:101540001FF908A84FF40D71072200F00FFA08A840
:10155000434940F2B67200F001F908A8414940F24F
:10156000F11200F007F9404C20465E2108AA00F075
:10157000E3FB20463D494FF4EB7200F089FA08A8DE
:1015800040F255110B2200F0F1F908A8384940F259
:10159000597200F0E3F808A8364940F2D91200F079
:1015A000E9F8354C20462B2108AA00F0C5FB20465F
:1015B0003249D72200F06CFA08A8CA21152200F09F
:1015C000D5F908A82E4940F6490200F0C7F808A846
:1015D0002C4940F2222200F0CDF82B4C20460F215E
:1015E00008AA00F0A9FB204628494B2200F050FA37
:1015F000274C03230093022301930723029306231E
:1016000003930523049304230593012306930023E6
:1016100007932046132114221523FFF72FF81D4DA1
:101620002846FEF78FFF81682046FFF7E9F8284635
:10163000FEF788FF90F820102046FFF7E9F82046D3
:10164000FFF7C8F8FFF72EFF08A800F089F90CB0E3
:10165000BDE8F0811427FF1F6CED000004F60000C8
:1016600074ED00001CE50000A421FF1F10EB00003A
:10167000B0FE000034E900002C22FF1F2CF5000012
:1016800018F6000010E700006021FF1F64FE000054
:10169000F010FF1FC810FF1F70B5204E304600F03D
:1016A000EFF91F4D1F4C30462946224608F09AFD9F
:1016B0001D4E304600F0E4F930462946224608F037
:1016C00091FD1A4E304600F0DBF93046294622469D
:1016D00008F088FD164E304600F0D2F93046294613
:1016E000224608F07FFD13481E21FEF7BBFE12487C
:1016F0001C21FEF7B7FE11481D21FEF7B3FE10486E
:101700001B21FEF7AFFE0F4D284601F079FB28465E
:101710000D49224608F066FD70BD00BF6021FF1F25
:10172000251D00006007FF1FA421FF1F2C22FF1FA3
:10173000BC21FF1FD421FF1F4822FF1F6022FF1F73
:10174000F021FF1F4021FF1F1D2E0000002202601C
:101750004260028142818281C281704710B58389D3
:10176000448904FB03F39A4202D1006803F0CEFDE2
:10177000002010BD10B5C389448904FB03F39A42CD
:101780000AD0084C23685B68204607491622984710
:10179000204605F003F802E0406803F0B7FD0020A2
:1017A00010BD00BF1427FF1F0C0601000089704701
:1017B0004089704708B583894289006861F31F1129
:1017C00002FB03F209F086F808BD00BF08B5838963
:1017D00042890068002102FB03F209F07BF808BD92
:1017E00008B5C38942894068002102FB03F209F071
:1017F00071F808BD00290ADB002A0ADB0389994237
:1018000009DA40898242ACBF0020012070470020E5
:101810007047002070470020704700BFF8B50546AC
:101820000C4617461E46FFF7E5FFB8B104EBD4722D
:10183000AB8907FB03F707EB620229688B5C14F0A6
:10184000010F05D003F00F0343EA0616F6B204E0D9
:1018500023F00F0306F00F061E438E54F8BD00BFA1
:1018600070B505460C461646FFF7C4FF78B104EB89
:10187000D472AB8906FB03F62B6803EB6203985D19
:1018800014F0010F14BF000900F00F0070BD00201C
:1018900070BD00BFF8B505460C4617461E46FFF75B
:1018A000A9FF28B32346002CB8BFE31DEA8907FB34
:1018B00002F202EBE30269688B5C66B10D480440FA
:1018C00003D5013C64F007040134012000FA04F45C
:1018D0001C43E4B20BE00748044003D5013C64F02C
:1018E00007040134012000FA04F423EA04048C54B0
:1018F000F8BD00BF0700008070B505460C461646CF
:10190000FFF778FFD0B16B68D3B12246002CB8BF87
:10191000E21DE98906FB01F603EBE20309490C40ED
:1019200003D5013C64F007040134012202FA04F4F7
:101930009B5D23420CBF0020012070BD012070BDC3
:10194000012070BD0700008010B50446006808B192
:1019500004F08EFF606808B104F08AFF10BD00BF7C
:1019600010B50446FFF7F0FF204610BD70B50446E1
:101970000D461646FFF7E8FF05F0010305EBD570AD
:1019800003EB600080B2A08115F0070318BF0123AC
:101990002A46002DB8BFEA1D03EBE203E38125814F
:1019A000668106FB00F004F05BFF2060E08906FB27
:1019B00000F004F055FF60602046FFF707FF204667
:1019C000FFF70EFF70BD00BF38B504460D4609890C
:1019D0006A89FFF7CBFF296811B90023236007E06C
:1019E0006389A28902FB03F2204692B2FFF7B6FE9A
:1019F000696811B90023636007E06389E28902FB2B
:101A000003F2204692B2FFF7B5FE204638BD00BF74
:101A100030B583B005460C4608466946022201F0FF
:101A20000DFA20460DF10201022201F007FA2046CC
:101A300001A9022201F002FA20460DF1060102225C
:101A400001F0FCF92846BDF80010BDF80220FFF7B0
:101A50008DFF6B89AA8902FB03F22046296892B2A6
:101A600001F0ECF9BDF8063043B16B89EA8902FB5D
:101A700003F22046696892B201F0E0F903B030BD8C
:101A800010B50446FFF762FE00232361204610BD17
:101A900038B51546838A03EB83039A420FD00A4C6C
:101AA00023685B68204609490E229847204629464C
:101AB00004F0C0FE204604F071FE002038BD00692D
:101AC00003F024FC012038BD1427FF1F2406010069
:101AD00070B582B005460C4616460DF1060102228D
:101AE00001F0ACF928460DF10501012201F0A6F93B
:101AF0009CB196B19DF8052001329642A8BF1646CA
:101B0000F2B28DF805202846214601F097F99DF89C
:101B100005301C44002304F8013C9DF8050002B088
:101B200070BD00BF10B4828AB2B1006903788B42E5
:101B300008D104E0184613F8052B8A4208D1B0F802
:101B400001000AE0431D013A94B204EB84041C44F2
:101B5000A342EFD1002000E000205DF8044B704765
:101B600030B4848ABCB1026913788B4215D0531DFE
:101B7000013CA5B205EB85051D44002004E01A4692
:101B800013F8054B8C4209D0B2F80120104480B202
:101B9000AB42F4D102E0002000E0002030BC7047EE
:101BA00010B4828AB2B1006903788B4208D104E094
:101BB000184613F8052B8A4208D1B0F803000AE052
:101BC000431D013A94B204EB84041C44A342EFD1B8
:101BD000002000E000205DF8044B70472DE9F04F35
:101BE00089B004908A4605929946104609F058F942
:101BF000471E00242646DDF81080DDF814B00CE006
:101C00001BF8045040462946FFF78CFF0644404627
:101C10002946FFF7C5FF361A0134BC42F0DB27EA3C
:101C2000E7770498059AD15DFFF77CFF0644DDF85D
:101C300010B05846FFF7BCFD024650463146FFF74C
:101C400095FE0023039306934F465BE0DDF80C906E
:101C5000059A12F8094004982146FFF763FF0790A0
:101C6000804604982146FFF77BFF009000268044C1
:101C7000069B019302902CE087B117F809302D2BB9
:101C80000CD15046294632460023FFF7C7FD504687
:101C9000294632460123FFF7FDFD15E0584621464F
:101CA0003246FFF7DDFD0346504629463246FFF730
:101CB000B5FD584621463246FFF71EFE0346504604
:101CC00029463246FFF7E6FD013401354445D3DBB2
:101CD00001365846FFF76CFD864205DA009A424508
:101CE000F6DA019D029CC7E7069C079B1C440498FA
:101CF000059A12F80910FFF753FF241A0694039B64
:101D000001330393059809F0CBF8039A82429DDBD7
:101D1000504609B0BDE8F08F08B5006908B104F07D
:101D2000A7FD08BD10B50446FFF7F6FF2046FFF7F4
:101D300017FE204610BD00BF70B504460D4616467E
:101D4000FFF7EAFF20463146FFF73EFEA58205EB8E
:101D5000850004F085FD206170BD00BF10B504460C
:101D60001C30FFF7F3FC002323826382204610BD62
:101D700010B504461C30FFF7F3FD204610BD00BF30
:101D80002DE9F04389B006460C4608460DF10601E0
:101D9000022201F053F8204602A9022201F04EF877
:101DA00020460DF10A01022201F048F8BDF80A3080
:101DB000002B41D00027022506EB050906F1040897
:101DC000204631462A4601F039F8204649462A463F
:101DD00001F034F8204641462A4601F02FF820460B
:101DE000B11D2A4601F02AF8204606F108012A46CC
:101DF00001F024F8204606F10A012A4601F01EF8F7
:101E0000204606F10C012A4601F018F8204606F19A
:101E10000E012A4601F012F8204606F114010122B3
:101E200001F00CF8204603A9132201F007F801374E
:101E3000BDF80A30BB42C3DC3388003318BF01232E
:101E4000F3827389003318BF01233383BDF8083050
:101E5000338200237382012009B0BDE8F08300BF04
:101E6000428A038A9A4208D1008B03B2032B06D020
:101E7000D3F1010038BF00207047002070470120D7
:101E8000704700BF10B50446B0F91630012B0CBFE7
:101E900002230323C382428A038A9A4206D1B0F9FD
:101EA000180001280CBF022003202083B4F916007B
:101EB00002280BD1A088012808D11C342046FFF746
:101EC00085FC2046FFF78CFC012010BD9A4208D209
:101ED00004F11C00FFF79CFD638A0133638201203B
:101EE00010BDB4F91830022B0BD1E389012B0AD1B4
:101EF0001C342046FFF76AFC2046FFF771FC0120E6
:101F000010BD002010BD002010BD00BF1C30704768
:101F1000B0F91630022B01D100887047B0F91830A3
:101F2000022B0CBF4089C088704700BFB0F9163043
:101F3000022B01D140887047038B023B9BB2012BDF
:101F400094BF808900897047007D704708B5C1B291
:101F50000148FEF75DFC08BDF010FF1F10B50446F8
:101F60004368002B03DD806808B104F081FC204643
:101F700010BD00BF10B504464368002B03DD806828
:101F800008B104F075FC204610BD00BF10B5044632
:101F90004368002B03DD806808B104F069FC20462B
:101FA00010BD00BF10B504464368002B03DD8068F8
:101FB00008B104F05DFC204610BD00BF10B504461A
:101FC0004368002B03DD806808B104F051FC204613
:101FD00010BD00BF2DE9F04188B004460E4604A8AC
:101FE000FFF7B4FB04A81C210922FFF7BFFC04A8DB
:101FF0000121FFF7DFFB04A8FFF7D8FB054604A883
:10200000FFF7D6FB00950190022302931725039555
:10201000204604A900221346FEF748FE04A8FFF755
:10202000C5FB074604A8FFF7C3FB009701902223D6
:1020300002930395204604A900221346FEF736FEBC
:1020400004A8FFF7B3FB074604A8FFF7B1FB00970E
:102050000190422302930395204604A900221346CF
:10206000FEF724FE04A8FFF7A1FB074604A8FFF72C
:102070009FFB00970190622302930395204604A9D9
:1020800000221346FEF712FE344F384604A9326888
:102090000023FFF7A3FD04A8FFF788FB054604A86B
:1020A000FFF786FB00950190042302931825039502
:1020B000204604A900221346FEF7F8FD384604A97D
:1020C00072680023FFF78AFD04A8FFF76FFB8046C4
:1020D00004A8FFF76DFBCDF8008001902423029344
:1020E0000395204604A900221346FEF7DFFD38467B
:1020F00004A9B2680023FFF771FD04A8FFF756FB9F
:10210000804604A8FFF754FBCDF8008001904423DB
:1021100002930395204604A900221346FEF7C6FD4C
:10212000384604A9F2680023FFF758FD04A8FFF71A
:102130003DFB064604A8FFF73BFB00960190642395
:1021400002930395204604A900221346FEF7AEFD34
:1021500004A8FFF705FC08B0BDE8F081A421FF1F2B
:102160002DE9F0438BB005460E4606A8FFF7EEFAC0
:1021700000F0ACFD804606A880210922FFF7F6FB9F
:1021800006A80121FFF716FB06A8FFF70FFB044680
:1021900006A8FFF70DFB009401900024029403941D
:1021A000284606A922462346FEF780FD244F3846DE
:1021B00006A932462346FFF711FD06A8FFF7F6FAF7
:1021C000064606A8FFF7F4FA00960190012602964B
:1021D0000396284606A922462346FEF767FD404699
:1021E00002F050FF8146404602F062FF034604A819
:1021F00014494A4608F0B4FD384606A904AA234605
:10220000FFF7ECFC06A8FFF7D1FA804606A8FFF717
:10221000CFFA074606A8FFF7C9FACDF80080019764
:10222000C0F1800002900396284606A92246234664
:10223000FEF73CFD06A8FFF793FB0BB0BDE8F0836B
:10224000A421FF1F10ED00002DE9F04F91B00546CD
:102250000E4617469A4608A8FFF778FA614C94E8AC
:102260000F0010AC04E90F005F48FEF70FF983463A
:102270005E48FEF70BF981465D48FEF707F9804698
:102280005C48FEF703F904463FB1DAF800005A490A
:1022900002F024FE0022594B1A60BBF1010F14BF5B
:1022A00000276FF0000729F00209B9F1010F1BD1D7
:1022B000524B1B6863B9504B9B780133DBB2172B31
:1022C00002D84D4A93700FE000224B4B9A700BE0FE
:1022D000494B5B780133DBB23B2B02D8464A537043
:1022E00002E00022444B5A7028F00208B8F1010FB6
:1022F0001BD1424B1B6863B93F4B9B78013BDBB260
:10230000172B02D83C4A93700FE017223A4B9A7071
:102310000BE0394B5B78013BDBB23B2B02D8364AF2
:10232000537002E03B22344B5A70012C0ED1334BD8
:102330001B681BB90122314B1A6007E02E480023AD
:10234000037002F0C9FECAF80000012728462C4994
:10235000FFF706FF1EB92B4EDFF8C08001E02A4EC2
:10236000B046254C05A82949A278637808F0F8FC06
:10237000224B1B68264808A905AA002B14BF434618
:102380003346FFF72BFC08A8FFF710FA064608A80B
:10239000FFF70EFA044608A8FFF708FA0096019422
:1023A000C0F1800000EBD0735B1002930B2303930A
:1023B000284608A900221346FEF778FC0F4B19683F
:1023C000144A154B002908BF13460F9328460CA941
:1023D000FFF700FE08A8FFF7C3FA384611B0BDE8C2
:1023E000F08F00BF34060100D421FF1F4822FF1FD9
:1023F0006022FF1FF021FF1F4C23FF1F8022FF1FC1
:102400007C0601005C0601005406010088060100FC
:102410002C22FF1F6C0601007406010064060100F7
:102420002DE9F04F89B005460C4616469A4604A899
:10243000FFF78CF95A48FEF729F883465948FEF70A
:1024400025F881465848FEF721F880465748FEF7A0
:102450001DF807461EB1DAF80030554A1360B9F18D
:10246000010F0BD1524B18686368013B834205DDB5
:1024700001304F4B1860129B03B19847B8F1010F20
:1024800008D14B4B1868002804DD01381860129BF6
:1024900003B19847012F06D0BBF1010F14BF0026EE
:1024A0006FF0000604E0424B1B68CAF800300126BA
:1024B00028462168FFF754FE3D4B1B68002B17DDB3
:1024C0003C4804A93C4A0023FFF788FB04A8FFF717
:1024D0006DF9074604A8FFF76BF9009701900023F8
:1024E00002930B220392284604A91A46FEF7DEFB4C
:1024F0006368013B2E4A126893421EDD2D4804A9F1
:102500002E4A0023FFF76AFB04A8FFF74FF9804625
:1025100004A8FFF74DF9074604A8FFF747F9CDF8DF
:1025200000800197C0F1800002900B23039328469E
:1025300004A900221346FEF7B9FB1D4B1A68A368D5
:102540001C4804A953F822200023FFF747FB04A8E6
:10255000FFF72CF9804604A8FFF72AF9074604A8DC
:10256000FFF724F9CDF800800197C0F1800000EB5F
:10257000D0735B1002930B230393284604A9002217
:102580001346FEF793FB284604F10C01FFF722FDEA
:1025900004A8FFF7E5F9304609B0BDE8F08F00BFA9
:1025A000D421FF1F4822FF1F6022FF1FF021FF1FC1
:1025B000A422FF1F2C22FF1F940601009806010091
:1025C0002DE9F0478CB004468A46164604A8FFF76A
:1025D000BDF8584B0FCB0CAD05E90F005648FDF781
:1025E00055FF05465548FDF751FF81465448FDF714
:1025F0004DFF80465348FDF749FF0746BAF1000FEB
:1026000002D03368504A1360012D05D14F4831681C
:10261000FEF7F6F8002500E0012529F00209B9F1DE
:10262000010F08D1484B19683E2904DC01311960BB
:102630004648FEF7E5F828F00208B8F1010F08D186
:10264000414B1968002904DD013919603F48FEF744
:10265000D7F8012F03D13C4B1B683360002520467F
:102660003B49FFF77DFD04A844210822FFF77EF9CE
:1026700004A80521FFF79EF804A8FFF797F806467F
:1026800004A8FFF795F8009601901E2302930C23EF
:102690000393204604A900221346FEF707FB04A873
:1026A00042210622FFF762F904A80021FFF782F811
:1026B00004A8FFF77BF8064604A8FFF779F8009610
:1026C00001901F2302930D230393204604A90022A7
:1026D0001346FEF7EBFA04A840210422FFF746F95F
:1026E00004A80F21FFF766F804A8FFF75FF8002899
:1026F000B8BF3F308311144A166806FB033604A89E
:10270000FFF756F800960190202302930E230393BF
:10271000204604A900221346FEF7C8FA204608A95D
:10272000FFF758FC04A8FFF71BF928460CB0BDE8DA
:10273000F08700BF44060100D421FF1F4822FF1F7D
:102740006022FF1FF021FF1FA822FF1FF010FF1FB4
:102750009C06010030B5ADF61C0D044604A8FEF73A
:102760004DFA002C40D09948FDF7ECFE984C0546F8
:102770000FCD0FC40FCD0FC42B6823600022954BE3
:102780001A60954B1C684CB16368934203DDA068E6
:1027900008B104F06DF8204604F066F81C2004F03F
:1027A0005BF80446082004F05BF8A0600223636035
:1027B000894B1C60894A22601A68926888491160B6
:1027C0001B689A6887495160874ADA60874A1A61AC
:1027D000874A5A61874A9A610022874B1A6001230F
:1027E000864A1370864A1370844B1B78002B67D07F
:1027F000834C22780025009504A882497E4BFFF780
:102800000FFE2570002800F02D81B0F1FF3F00F091
:102810002B8101222270794B1D70774B1B68062B90
:102820004AD8DFE803F0040F19232A343F0000F0F0
:102830004DFA754B186004A800210122FFF704FD32
:10284000012520E10023009304A870490122604B78
:10285000FFF7E6FD012516E10023009304A86C496B
:1028600001226C4BFFF7DCFD01250CE104A80121DE
:10287000694AFFF7A5FE012505E10023009304A89E
:1028800066490122664BFFF7CBFD0125FBE0524B69
:1028900019680023009304A801224E4BFFF7C0FDE6
:1028A0000125F0E00023009304A85E4901225E4B5D
:1028B000FFF7B6FD0125E6E00125504B1D70E2E073
:1028C0004D4B1B68062B00F2C980DFE803F00422A1
:1028D000374C5D71B300554B1B6803930399544B00
:1028E000A3FB012104A8C1F340110022464BFFF7CE
:1028F000ABFC002800F0BA80012806D1424C2068C9
:1029000002F066FC206802F0CDFE01253B4B1D70F5
:10291000B9E00022009204A83C492D4BFFF780FD4E
:10292000002800F0A580012804D128482849012268
:10293000FDF758FE0125314B1D70A4E000220092E6
:1029400004A83349334BFFF76BFD002800F0928059
:10295000012804D11D481E490122FDF743FE01252F
:10296000264B1D708FE004A800212B4AFFF728FE9C
:10297000002840F08180154815490122FDF732FEFC
:1029800001251E4B1D707EE00022009204A8234901
:10299000234BFFF745FD002870D0012804D10B48D8
:1029A0000B490122FDF71EFE0125144B1D706AE044
:1029B000094B19680022009204A8064BFFF730FD6E
:1029C00000285DD001250D4B1D705CE0C810FF1F75
:1029D000AC22FF1FEC22FF1F8422FF1FA80601006C
:1029E00010E50000B4060100BC060100C4060100A9
:1029F0006C06010074060100F022FF1F5823FF1F20
:102A00002C23FF1FD022FF1F5423FF1F8822FF1FEC
:102A1000F422FF1FB022FF1FB422FF1F1023FF1F4D
:102A2000B822FF1F3023FF1FCC22FF1F1C26FF1FD1
:102A3000D34D62101A4B009304A81A4900221A4B76
:102A4000FFF7EEFCF0B1012804D118481849012223
:102A5000FDF7C8FD0125174B1D7014E00125154B2E
:102A60001D7010E001250EE000250CE001250AE0B4
:102A7000012508E0012506E0012504E0012502E02A
:102A8000012500E001250C4C20460021FDF7D8FE71
:102A9000204604A9FDF7C4FE28460DF61C0D30BDE6
:102AA0004D1F00003023FF1FCC22FF1FC810FF1F47
:102AB000AC22FF1F5823FF1FF010FF1F2DE9F84F16
:102AC0001C2003F0CDFE564B98604FF00709C3F869
:102AD0000490544A1A60544A02609A68DFF8DC8114
:102AE000C2F804809A68DFF8D8B1C2F808B09A68D2
:102AF0004E49D160DFF8CCA1C2F810A04C49516119
:102B00004C4991614C4FDF604C4E1E614C4D5D61F4
:102B10004C4A9A614C4C18464C49224607F062FBDD
:102B2000082003F09DFE4A4B986002225A60C3F8C9
:102B30000080484A02609A6847495160DF601E6120
:102B40005D61DFF88481C3F8188018464349224646
:102B500007F048FB0C2003F083FE414B98600322F2
:102B60005A60C3F800B03F4A02609A683E4951601B
:102B70009A683E499160DF601E615D61C3F818800C
:102B800018463B49224607F02DFB1C2003F068FE47
:102B9000384B9860C3F80490C3F800A0364A02602E
:102BA0009A68364951609A68354991609A68354902
:102BB000D160354911613549516135499161DF6015
:102BC0001E615D61C3F8188018463249224607F03D
:102BD00009FB1C2003F044FE2F4B9860C3F80490BF
:102BE000144A1A602D4A02609A682D4951609A6809
:102BF0002C4991609A682C49D1602C4911612C496B
:102C000051612C499161DF601E615D61C3F81880DC
:102C100018462949224607F0E5FABDE8F88F00BFBB
:102C2000D022FF1FCC0601007C0601009C0601009B
:102C3000A8060100F4060100BC060100C40601005C
:102C40006C060100000701006007FF1FBD1F0000A8
:102C50008822FF1F080701000C070100A51F0000C4
:102C6000F422FF1F100701001807010020070100D0
:102C70008D1F00001023FF1F300701003C070100DB
:102C80004807010054070100600701006C070100BC
:102C900078070100751F00003023FF1F8407010023
:102CA000880701009007010098070100A0070100B4
:102CB000A8070100B00701005D1F0000D806010051
:102CC000DC060100E80601007406010010B502F000
:102CD0009FFA04460448FDF735FC0368012B08BF42
:102CE00004F56164204610BDC810FF1F10B582B006
:102CF00002AB03F8011D0268546819460122A0477F
:102D000002B010BD10B50446C3691BB9012303719D
:102D1000002010BD00201871E06992B201F0F8FCAB
:102D2000E3691B7913B101232371002010BD00BF9B
:102D300000B583B0C06960B10DF10701012201F057
:102D40004DFA01280CBF9DF807004FF6FF7000B246
:102D500001E04FF0FF3003B05DF804FB30B583B005
:102D60000446C06978B10DF10701012201F036FA7D
:102D700001280AD19DF80750E069C168013901F0C6
:102D80001BFB284603E0002001E04FF0FF3003B0BA
:102D900030BD00BF08B5C06908B101F045FB08BDF2
:102DA0002DE9F04104460E469046002303714FF48E
:102DB0007A7282600373114B0360242007F04AFA91
:102DC000E061B8B13546074606F1200E3E46286858
:102DD0006968AA68EB680FC6103537467545F5D1A6
:102DE0002868306004F10D0041460C2208F088F894
:102DF000002363762046BDE8F08100BFE0070100B4
:102E0000002202714FF47A718160027302490160FD
:102E1000C2614273704700BFE0070100014B0360CD
:102E2000704700BFE0070100C3692BB19879012802
:102E300094BF0020012070470020704708B5C0698A
:102E400010B101F0CBF908BD002008BDC3690BB17A
:102E5000D86870474FF0FF30704700BFC3690BB1AF
:102E6000986970470020704738B50446C36963B15C
:102E7000FFF7F4FF05462046FFF7E8FF281A47F65C
:102E8000FF73984228BF184638BD002038BD00BFE8
:102E900010B50446C06930B101F0F2FAE06907F0FC
:102EA000E1F90023E36110BDC36923B198790030D3
:102EB00018BF012070470020704700BF38B5044696
:102EC0000A46FE290CD1FE23037000F097FA05464E
:102ED00000F080FAA070D5F1010038BF002002E0B8
:102EE000012100F067FEA8B1251D284621460122D8
:102EF00001F0EAFE28B928462146002201F0E4FE4E
:102F000050B104F12C00294601F03EF9003018BF01
:102F1000012038BD002038BD002038BD2DE9F04F1C
:102F200099B081469346019300238DF81C30394AAD
:102F300006928DF81E308DF840300F928DF8423099
:102F400006A8043101F020F95C460FAE06AD4FF043
:102F50002F084FF0000A2CE023782F2B01D10134E9
:102F600027E03F1BFFB20C2F28BF0C2702A82146E9
:102F70003A4607F0C5FF18AB3B4403F858AC30465F
:102F800001F07EFA3046294602AA012301F02AFB0D
:102F900040B9002389F804301E4AC9F8002089F896
:102FA000063032E03C44284601F06AFA2B463546AA
:102FB0001E462046414607F0F9FE07460028CBD1C1
:102FC000CBEB0404019B1C602B7989F80430114B76
:102FD000C9F800306B7989F80530AB7989F806308B
:102FE000AB68C9F80830EB68C9F80C302B69C9F830
:102FF00010302B7D89F81430AB69C9F81830EB69B3
:10300000C9F81C302B6AC9F82030484619B0BDE811
:10301000F08F00BF08080100F0B5A7B004461546C0
:103020001F4602A801ABFFF779FF01996E18695C92
:1030300019BB9DF80C308DF85430344B14939DF827
:103040000D308DF855309DF80E308DF85630049BBC
:103050001693059B1793069B18939DF81C308DF8CB
:103060006430089B1A93099B1B930A9B1C93204670
:1030700014A9274AFFF794FE45E000218DF830108F
:10308000224B0B938DF832109DF80E301BB9204661
:10309000FFF7B6FE37E00BA802A932463B4601F027
:1030A000A1FA18B92046FFF7ABFE2CE002A801F008
:1030B000E7F917F0060F03D00BA8119901F07CF97E
:1030C0009DF830308DF87830104B1D939DF83130DD
:1030D0008DF879309DF832308DF87A300D9B1F9342
:1030E0000E9B20930F9B21939DF840308DF88830E4
:1030F000119B2393129B2493139B259320461DA978
:103100003246FFF74DFE204627B0F0BD080801000B
:10311000F8070100F0B59FB006460D46174649E096
:103120009DF810401CB93046FFF76AFE4BE0E52CD5
:1031300040D02E2C3ED09DF81B1011F0080F39D135
:1031400000238DF83430214A0C928DF8363004A8D3
:10315000694600F0B9FF0CA8E9696A463B4601F0F0
:1031600041FA18B39DF834308DF85830174B159349
:103170009DF835308DF859309DF836308DF85A303D
:103180000E9B17930F9B1893109B19939DF8443037
:103190008DF86830129B1B93139B1C93149B1D93FB
:1031A000304615A96A46FFF7FBFD0CE03046FFF7F5
:1031B00027FE08E0E86904A901F0B6F80028AFDCB2
:1031C0003046FFF71DFE30461FB0F0BD0808010075
:1031D00010B50446FFF728FE18B1E36900229A6093
:1031E000DA6010BD064B00229A700221596083F804
:1031F000242083F830200349D96283F832207047B5
:103200005C23FF1F0808010040F24343074A136094
:10321000043213604FF48861043211600432136089
:103220000432136004321360704700BF00D00440C2
:103230000023064A13600432136004321360043220
:1032400013600432136004321360704700D00440EE
:10325000114B196821F008021A60104A0A40104305
:1032600040F460221A60083B1B6813F0080F07D176
:103270000B4B0C490A6812F0080F01D1013BF9D140
:1032800040F4602242F00802034B1A6004331A68CB
:1032900042F480121A6070472C100B400700F0FFB8
:1032A000FFFF0F0024100B40224B1A6842F08002EF
:1032B0001A60214A136813F0010FFBD1136813F051
:1032C000020FF7D11D4B18604FF0807319481C494D
:1032D0000268013B0A4002D1002BF9D102E00BB198
:1032E000012A08D0134A136843F4702343F0010302
:1032F0001360012070470F4B1B6813F0800F06D03E
:103300000C4B1A6842F001121A6003207047094BF7
:103310001B6813F4803F06D0064B1A6842F0011276
:103320001A6005207047034B1A6842F001021A60C8
:103330000020704730100B4024100B400C100B4045
:1033400001000E00F8B50022104B1A601048FFF77C
:10335000ABFF63240F4D0D4F0D4E06E000233B6085
:103360003046FFF7A1FF013C06D02B6813F0040F95
:1033700008D00028F2D0F8BD30B90CB10020F8BD5B
:103380000520F8BD0028F9D0F8BD00BF08100B409B
:103390000000DB0C24100B4010B504460022094B42
:1033A0001A600948FFF780FF50B9084B1B68054BAE
:1033B0001C600748FFF778FF18B9044A126810BD6F
:1033C00010BD10BD08100B4000001A3710100B4044
:1033D00000000229084B1B784BB9074B9B7843B17F
:1033E000054B5B78002B14BF0320022070470020A0
:1033F00070470120704700BFB023FF1FF8B5A24BF4
:103400001A6842F400321A6008331A6842F4005213
:103410001A6004331A6842F002021A6004331A6810
:1034200042F002021A60994B1A6822F001021A60F7
:10343000FFF7FEFE964A974B1A601A46136813F080
:10344000807FFBD10022944B1A604FF48132BC3B49
:103450001A60282224331A604FF010121C331A60AD
:103460004FF48750FFF7F4FE8C4A136813F0030FF4
:10347000FBD1FFF7C9FE4FF6FF72894B1A60894AEC
:1034800004331A604FF4FA71824A136843F0006300
:103490001360136813F0006FFBD10139F5D1804B35
:1034A0001A6842F080021A600C3B1B6813F4803FDC
:1034B00000F01E8125E17C4B1B684FF4D5727B4BDD
:1034C0001A607B48FFF7F0FE20B111E00120794B34
:1034D0001870F8BD744B1A681B68B3F5D57F03D01C
:1034E0000120744B1870F8BD0122724B5A7005E030
:1034F000052803D001206F4B1870F8BD0020FFF79E
:103500004BFF18B101206B4B1870F8BD664B1B6860
:1035100013F4401F1FD0674B5B78002B664F08BF2A
:103520004FF440170024604E644D01343846FFF7D5
:1035300033FF002840F0DA803368002BC0F2F080BF
:10354000AC42F2D104E0584B1B6813F0804F02D11B
:103550000022584B5A700022544B1A605848FFF70B
:10356000A3FE48B9504B1B680022504B1A605548C7
:10357000FFF79AFE20B111E001204E4B1870F8BD04
:10358000494B1A681B681B0C1B044A4A5360474A84
:1035900013604D48FFF788FE20B1C6E00120454B7F
:1035A0001870F8BD494B1A68120E424BDA70484B3E
:1035B0001B6813F4400F16D1444B1968186800F0CB
:1035C0000300043B1A681B68920D42EA8022013214
:1035D000C3F3C21302339A40C1F30323093B9A4059
:1035E000344B9A6009E0334B01229A70394A1268D1
:1035F000C2F31522013292029A602E4B5A682B4B6D
:103600001A603548FFF750FE50B9274B1B684FF43E
:103610000072264B1A603148FFF746FE20B10FE0DA
:103620000120244B1870F8BD1F4B1B68214B5A68B2
:103630001E4B1A602A48FFF737FE002879D103E0B5
:1036400001201C4B1870F8BD174B1B680222174B4A
:103650001A602448FFF728FE00286AD1124B1B6825
:10366000214B1A6822F006021A601A6842F0020220
:103670001A60FFF7DDFD4FF49870FFF7E9FDFFF7E3
:10368000C3FD0C4B1878F8BD3080044000D00040DA
:10369000008000012C100B40C0100B4024100B4088
:1036A00030100B40BB007F1110100B4008100B4076
:1036B00000001A08B023FF1F00003040A086010060
:1036C0000000090200001A030000090918100B404D
:1036D0001C100B4014100B4000001B0700001A10B8
:1036E00000001A3700001A0628100B400120F8BD10
:1036F000124B0220187000225A605A709A709A6019
:10370000F8BD0E4B00201870586058709870986083
:103710000B4B1860FFF7C8FD00283FF4CCAED5E690
:10372000084B9C423FF614AF0DE70120034B187085
:10373000F8BD0120014B1870F8BD00BFB023FF1F7A
:1037400008100B409F86010070B50446364B1B786D
:10375000002B65D1344B5B7803B949024FF6FF72F9
:10376000324B1A60283B19604FF48132043B1A60D7
:103770002F48FFF799FD002854D12E4B1B682B4A88
:10378000136843F02001116013F4E00F12D007E03A
:103790002B6843F020062E60403213F4E00F0FD068
:1037A00043F4E00343F02003204A1360FFF7CAFD0F
:1037B00001202CE0224604F5E0701F4C1F491B4DF0
:1037C000236813F4006FFBD00B6813600B68536021
:1037D0000B6893600B68D3600B6813610B685361CF
:1037E0000B6893610B68D3610B6813620B685362BB
:1037F0000B6893620B68D3620B6813630B685363A7
:103800000B6893630B68D3638242C1D10020074ADF
:10381000136813F0020FFBD0094A044B1A6070BD05
:10382000032070BD70BD00BFB023FF1F30100B40E0
:1038300010003A1110100B4024100B4020100B40C8
:103840002200000170B506462D4B1B78002B53D18A
:103850002B4B5B7803B949024FF6FF72294B1A6074
:10386000283B19604FF48132043B1A602648FFF769
:103870001BFD002842D1254B1B6806F50070214D29
:10388000234C2B6813F0100FFBD02B6813F4E00FC0
:103890000AD01C4A136843F4E00343F0100313609A
:1038A000FFF750FD01201EE006F14001334653F8BA
:1038B000042B22608B42FAD140362B6843F0100370
:1038C0002B602B6813F4E00F0AD00E4A136843F400
:1038D000E00343F010031360FFF734FD012002E022
:1038E0008642CED10020074A136813F0020FFBD0A6
:1038F000084A044B1A6070BD032070BD70BD00BF44
:10390000B023FF1F30100B4000003A1810100B407E
:1039100020100B4012000001084B1A6842F480622C
:103920001A604FF00042DA62FF225A631A46D36AE5
:10393000002BFCDA014B986BC0B2704700C002400C
:10394000064B1A6842F480621A604FF00042DA6255
:1039500058631A46D36A002BFCDA704700C0024055
:1039600008B505281CD8DFE800F003070B0F131774
:103970000E4A0F4B1A6016E00C4A0D4B1A6012E00B
:103980000C4A0B4B1A600EE00B4A094B1A600AE016
:103990000A4A074B1A6006E0094A054B1A6002E022
:1039A000084A034B1A6001F029FA08BD000001B86B
:1039B000C023FF1F01100038032000380100023827
:1039C000043000380650013808B50078012101F0B4
:1039D000A5FE164B1B78002B27D00022134B1A7024
:1039E000134B1B780BB313F0010F03D0114B1A6864
:1039F000114B1A600E4B1B7813F0020F03D00D4BC6
:103A00005A680E4B1A600A4B1B7813F0040F03D050
:103A1000084B9A680A4B1A60054B1B7813F0080F85
:103A200003D0044BDA68074B1A6008BDC423FF1F9C
:103A3000F825FF1FE825FF1F00E100E004E100E09A
:103A400008E100E00CE100E010B52A4B1B78002BE8
:103A50004BD10122274B1A70274B1A68274B1B7832
:103A6000002B35D072B6254B1B7813F0010F07D011
:103A7000234B1C68234909682140234C21601960AD
:103A80001E4B1B7813F0020F07D0204B1C681D49FA
:103A9000496821401C4C61601960184B1B7813F079
:103AA000040F07D01A4B1C68164989682140164C30
:103AB000A1601960114B1B7813F0080F07D0154B4C
:103AC0001C681049C96821400F4CE160196062B65A
:103AD000114BDB68934208D00F4B10491960DA6034
:103AE00042F080421A610E4A1A600078002101F00B
:103AF00015FE10BDC423FF1FC023FF1FF825FF1FA5
:103B000080E100E0D825FF1FE825FF1F84E100E0E9
:103B100088E100E08CE100E000C0024001401F00AD
:103B200000001F8070B582B00E460B4B1B680093DF
:103B3000009C094DA4B2FFF7EFFEFF2807D02B68C9
:103B40000193019B9BB21B1BB342F4DB01E00120FC
:103B500000E0002002B070BD1C26FF1FF8B505462E
:103B60000F4616464FF49671FFF7DCFF47F0400012
:103B7000FFF7E6FE182426FA04F0C0B2FFF7E0FED5
:103B8000083C14F1080FF6D127B1082F0CBF87208D
:103B9000FF2000E09520FFF7D3FE0024FFF7BCFED6
:103BA000687010F0800F03D00134B4F5807FF5D138
:103BB000F8BD00BF2DE9F04F87B004460191002306
:103BC00083700270884B1B680393039FBFB210463B
:103BD000012101F0A3FD2078012101F0D1FD207821
:103BE000012101F09BFD814B1A6842F480521A605A
:103BF0000620FFF7B5FE7E4B1A687E4B1B78002B24
:103C000035D072B67B4B1B7813F0010F07D07A4B7F
:103C100018687A4909680140794801601960754B54
:103C20001B7813F0020F07D0764B18687349496868
:103C300001407348416019606E4B1B7813F0040F0C
:103C400007D0714B18686D49896801406C488160E4
:103C50001960684B1B7813F0080F07D06B4B18687E
:103C60006649C96801406648C160196062B6684B20
:103C7000DB68934200F0A980654B66491960DA6001
:103C800042F080421A61644A1A609EE02846FFF7BB
:103C900057FE013E16F0FF06F8D1564B1B780BB3CA
:103CA00013F0010F03D0564B1A685C4B1A60514B4E
:103CB0001B7813F0020F03D0514B5A68584B1A600F
:103CC0004C4B1B7813F0040F03D04D4B9A68554BA7
:103CD0001A60484B1B7813F0080F03D0484BDA6882
:103CE000514B1A602046FFF7AFFE4FF00008DFF897
:103CF000F89008E0D9F800300493049BDB1B9BB2DA
:103D0000B3F5FA6F5DD8204641464246FFF726FFDD
:103D1000054660700128EDD1204608214FF4D57288
:103D2000FFF71CFF10F0040F04D00123A3704FF025
:103D3000000A0FE04FF00408FFF7EEFD607008F195
:103D4000FF3313F0FF08F7D1AA283AD10223A3705A
:103D50004FF0804A4FF037094FF00008DFF888B085
:103D600008E0DBF800300593059BDB1B9BB2B3F545
:103D7000FA6F26D8204649464246FFF7EFFE204616
:103D800029215246FFF7EAFE60700028E9D1A378A6
:103D9000022B0ED120463A210022FFF7DFFE80B928
:103DA000FFF7BAFD00F0C000C02811D10323A370B3
:103DB0000EE02046FFF708FE0198FFF7D1FD2E46E2
:103DC0000DE02046FFF700FE09E00A26FF255DE72B
:103DD000FFF7A2FDFFF7A0FDFFF79EFDE9E73046E4
:103DE00007B0BDE8F08F00BF1C26FF1F3C800440D9
:103DF000C023FF1FF825FF1F80E100E0D825FF1F2B
:103E0000E825FF1F84E100E088E100E08CE100E0AC
:103E100000C0024001401F0000001F8000E100E0E0
:103E200004E100E008E100E00CE100E070B582B0E0
:103E300004460E4B1B680093009D0C4EADB207E08C
:103E400033680193019B9BB25B1BB3F5967F09DC42
:103E5000FFF762FD6070FF28F2D0FE2814BF00203B
:103E6000012000E0002002B070BD00BF1C26FF1F33
:103E7000F8B504460D4616468378032B18BF4D024D
:103E8000FFF7E2FD204611212A46FFF767FE0028D2
:103E900047D12046FFF7CAFF002842D0234B244ACF
:103EA0001A60244A5A635A635A6306F5FD7E7645C2
:103EB00013D2B01C06F5FE771946CB6A13F0F00F4B
:103EC000FBD04A638B6BC3F3072500F8025C00F854
:103ED000013C0230B842F0D100E0B64606F500766B
:103EE00076450DD97146114AD36A13F0F00FFBD015
:103EF000936BC3F3072008704B7002318E42F3D8E6
:103F00000A4B0B4A1A600B4A5A631A46D36A13F0DB
:103F1000F00FFBD0054B9B6B2046FFF755FD0120B2
:103F2000F8BD2046FFF750FD0020F8BD00C002405C
:103F300000041F80FFFF0090F8B506461E4B18686E
:103F400040F4806018604FF00040D8625963114619
:103F500002F500770446DA6A002A08DBFBE7DA6A32
:103F6000002A0DDBFBE7D36A002B15DBFBE70846D5
:103F70000A781D6845F480651D60DC625A63EEE7CF
:103F800042781D6845F480651D60DC625A63023129
:103F9000B942E0D1084AE6E7FF20FFF7D1FCFF2055
:103FA000FFF7CEFCFFF7B8FC707000F01F0005288B
:103FB00014BF00200120F8BD00C0024070B50446C7
:103FC00016460D4629B38378032B18BF4D02FFF721
:103FD0003BFD204618212A46FFF7C0FDC8B9204600
:103FE000FE213246FFF7A8FF98B120464FF4167124
:103FF000FFF798FD68B120460D210022FFF7AEFDC6
:1040000038B9FFF789FC20B92046FFF7DDFC012015
:1040100070BD2046FFF7D8FC002070BD014A024B5E
:104020001A60704703200038C023FF1F10B50446F4
:10403000006A012104F1080200F0BCFD034650B102
:10404000E3693BB9A368E361637963F07F0363715C
:10405000012300E00123184610BD00BF70B50646DD
:10406000FFF7E4FF0346E0B1336AB268023A197C15
:1040700002FA01F55A6915441C794CB1013D281921
:1040800000F0CEFC034660B1013C14F0FF04F6D111
:10409000336A1B7C4FF400729A40B3691344B361D6
:1040A0000123184670BD00BF10B50446006900F03A
:1040B00087FC20B1207D034B03EB401010BD002096
:1040C00010BD00BFD423FF1F70B400231A462E2654
:1040D000C45C202C09D0DCB2082C02D1541C8E54B4
:1040E000E2B2541CC55C8D54E2B201330B2BEFD10C
:1040F00000238B5470BC70472DE9F001002320226F
:10410000CA5401330B2BFBD10138002507264FF091
:1041100008084FF00A0C1B4F21E02E2C01D03A4624
:1041200006E00A2E24D04546664618E0A34221D078
:1041300012F8013F002BF9D1AE421DD3A4F12103A7
:10414000DBB25D2B1AD86B1CDBB20D44A4F161020B
:10415000D2B2192A9CBF203CE4B22C701D4610F844
:10416000014F002CD9D10878203818BF012006E073
:10417000002004E0002002E0002000E00020BDE874
:10418000F00170470F08010038B504460D468379E9
:104190000BBB91F82020102A07D102238371002342
:1041A000C3614B8C5B0183610CE0202A14D1032393
:1041B0008371496AC161284604F1180200F086FC47
:1041C000034648B12562012363710022A260E260C8
:1041D0002261227500E00023184638BD2DE9F04F1A
:1041E00083B00446884601928379002B75D04379C9
:1041F00013F0010F74D08269C368D11A0198884204
:1042000001D98BB20193019B002B63D01D46DFF8CF
:104210000CA1DFF80C91DFF80CB1E368C3F30807D9
:10422000A279022A04D1226A516A01EB53211BE0D0
:10423000206A0679013E06EA5326F6B25FB956B9FE
:1042400013B9E369A36006E0224652F8081F00F0A4
:1042500007FC002847D0226AA368023B117C03FABE
:1042600001F1526911443144C7F500739D42C6BF44
:104270001E46B6B22E46637913F0400F02D1B6F552
:10428000007F3AD1D9F8003099423DD135E040461F
:10429000FFF75AFAD0F1010038BF002002E0424691
:1042A000FFF7E6FD10B3B0440DE05744B81987425C
:1042B00009D03B46424613F8011B02F8011B83421A
:1042C000F9D1C71BB844E3683344E360AD1BADB21A
:1042D000002DA2D1019B98B20DE04FF6FF700AE0CD
:1042E0004FF6FF7007E04FF6FF7004E04FF6FF70E7
:1042F00001E04FF6FF7000B20CE00846002100F02C
:104300005FFB0028D1D1F4E7DBF800000378FE2B37
:10431000C5D1BCE703B0BDE8F08F00BFD423FF1FB9
:104320006807FF1FD023FF1F70B505460C46837931
:10433000012B1CD9C36813F01F0F1AD1202609E0E6
:10434000237883B1E52B05D02E2B03D0E37A13F02D
:10435000080F10D0284621463246FFF73FFFC0B273
:1043600043B2202BECD040F3C011C8B204E0FF20D0
:1043700002E0FF2000E0202040B270BD30B583B0E5
:1043800004468379012B0FD9C5680DF1070101227D
:10439000FFF724FF012809D1E3681F33E36005F428
:1043A000F070044B184402E0002000E0002003B04D
:1043B00030BD00BFD423FF1FF8B504460F468379F4
:1043C0007BB382698A422BD3022B02D1E1600123A5
:1043D00027E021B900238360C360012321E0C36883
:1043E000026A157C09355A1EEA40013921FA05F5A1
:1043F000AA4200D813B9E369A3600AE0AD1A08E045
:10440000206AA168324600F02BFB013D034610B93B
:1044100007E004F10806002DF2D1E760012300E077
:1044200000231846F8BD00BF38B50446807918B39C
:1044300094F90530002B1BDA20460121FFF734FEEA
:104440000546C0B1A379012B9CBFA369C361A38BAF
:104450004383E38B8382094B1B682BB1183005F132
:10446000160198472B8B6B82637903F07F0363718E
:1044700000F066FA38BD002038BD00BFC823FF1F1A
:1044800010B50446FFF7D0FF034610B10023A37117
:104490000123184610BD00BFF0B583B004460D4699
:1044A0008379012B4ED1427902F0020202F0FF0122
:1044B000002A49D08269AA4248D3002A47D0C66858
:1044C0002946FFF779FF0346002840D04DB9206AFE
:1044D000E16900F0D3FB0346002838D00023E361F4
:1044E0001DE0206AA16801AA00F0BAFAA8B1206A0A
:1044F000019990F820704FF6F872164B102F08BFF4
:10450000134699420BD200F0B9FB30B1206AA16882
:104510006FF0704200F006FB08B9002317E0A561B8
:10452000637963F07F0363712046FFF77DFF0346E5
:1045300068B12046B54234BF29463146FFF73CFFFB
:10454000034604E0002302E00B4600E00023184687
:1045500003B0F0BDF8FFFF0F38B5044615461F4BFA
:1045600003EB4113DA7A12F0110F02D015F0420F6B
:104570002CD121751A4A12682261998A0904E161D5
:104580005A8B1143E161D87A10F0180004D1DB692D
:10459000A3610123A3710AE0102819D1206A04F154
:1045A000180200F093FA0346A8B10423A37105F0A2
:1045B0000F0363710023A360E36015F0400F09D07F
:1045C00020461946FFF768FF034604E0002302E097
:1045D000002300E00123184638BD00BFD423FF1F8D
:1045E0006807FF1F2DE9F04F85B005460C469A4637
:1045F0008679002E7FD1104601A9FFF77DFD0028A6
:104600007BD0236A2B620027A760E760DFF8FC906D
:104610004FF0010825E0C1F3431B2046FFF7AEFE33
:10462000014600286AD003780BB1E52B09D12FB9D8
:1046300085F814B0D9F800302B6147460B7883B960
:1046400013E001A80B2206F0B1F850B90AF03003CC
:10465000302B53D0284659465246FFF77DFF064679
:104660004CE0E168A3699942D5D30AF01203122BFA
:1046700044D137B128460121FFF716FD044660B941
:104680003CE0A379022B39D02046FFF7E7FC064631
:10469000002833D000232B751A4C204600212022FD
:1046A00006F018F901AB03CB206061601A889B7893
:1046B0002281A372144B1B682BB104F1100004F18A
:1046C0000E01984707E021232374282363740023F5
:1046D000A3730823E373238A63822383E389E3823A
:1046E00000F02EF9064648B12846297D5246FFF7CC
:1046F00033FF064602E0002600E00646304605B0DD
:10470000BDE8F08FD423FF1FC823FF1F6807FF1FDA
:104710002DE9F04F85B00446884601928379012B3C
:1047200040F0CB80437913F0020F00F0C68013F005
:10473000040F08D08169C3688B4204D0FFF73CFEA8
:10474000002800F0BA80019A002A00F099801646ED
:10475000DFF8CCA1DFF8CCB1206AE76890F80490CC
:1047600009F1FF3909EA5729C7F3080719F0FF09CA
:104770002AD1002F40F0A580A16851B9E36933B96F
:104780002046FFF753FC002840F0AC8095E0A36082
:10479000A8E003AA00F064F9002800F0B580039BAC
:1047A000226A92F820004FF6F871594A102808BF83
:1047B0000A46934206D32046FFF738FC002840F013
:1047C00091807AE0A3608DE0C7F50075ADB2AE428E
:1047D00038BF3546A368023B027C934042691344CC
:1047E0009944B5F5007F1ED1DBF800304B4504BF7E
:1047F0004FF0FF33CBF80030464B18680378FE2BA0
:1048000008D140464946FFF71DF8D0F1010038BFF6
:10481000002003E049464246FFF7D0FB00284CD079
:1048200008F5007824E07FB9E268A3699A420BD3C7
:1048300000F086F8002840D0CBF80090364A137874
:1048400043F00103137005E04846012100F0B8F879
:10485000002832D057447819874209D03B46424657
:1048600012F8011B03F8011B8342F9D1C71BB8449E
:10487000761BB6B2E3681D44E560002E7FF46CAF92
:10488000E368A269934205D9A361637963F07F036A
:10489000637108E0214B1B682BB1019B1BB163794D
:1048A00063F07F036371637913F0080F03D0204630
:1048B000FFF7BAFD08B1019826E00123237100201B
:1048C00022E0C7F50075ADB2AE4238BF3546A368E9
:1048D000023B027C03FA02F943699944B5F5007F73
:1048E000B2D181E7B6F5007F34BF35464FF400758D
:1048F000236AA268023A197C02FA01F95B699944B9
:10490000B5F5007F90D16FE705B0BDE8F08F00BF2F
:10491000F8FFFF0FD023FF1FD425FF1FC823FF1F61
:10492000D423FF1F6807FF1F00B583B002AB03F855
:10493000011D19460122FFF7EBFE03B05DF804FBF1
:1049400008B51A4B1B78002B2ED0194B1868194B41
:1049500019680378FE2B07D11748FEF773FFD0F1D3
:10496000010038BF002002E0134AFFF727FBE0B147
:10497000124B196899B10E4B18680378FE2B07D1BA
:104980000D48FEF75FFFD0F1010038BF002002E0C4
:10499000094AFFF713FB40B10022084B1A600022BE
:1049A000024B1A70012008BD012008BDD425FF1F4D
:1049B000D023FF1F6807FF1FD423FF1FCC23FF1F37
:1049C00038B504460D46124B1B68834219D0FFF7D9
:1049D000B7FF0346D0B10F4B18680378FE2B08D100
:1049E0000D482146FEF7B0FED0F1010338BF002389
:1049F00004E02146084AFFF73BFA034633B1044B73
:104A00001C60064B1A7815431D700123184638BDEB
:104A10006807FF1FD023FF1FD423FF1FD425FF1FCC
:104A200010B50446FFF78CFF034680B109494B1EC1
:104A300001F2FF11002203F8012F8B42FBD1064B3C
:104A40001C60064B1A7842F001021A7001231846C6
:104A500010BD00BFD423FF1F6807FF1FD425FF1F11
:104A600070B504460D461646C36801338B4225D304
:104A7000C36990F82020102A0CBF080AC8091844FE
:104A8000104B1B68984204D00021FFF799FF0346A2
:104A9000A8B194F82030102B06D1EDB20A4B33F8B0
:104AA0001530336001230AE005F07F05064B53F80B
:104AB000253023F070433360012300E000231846C3
:104AC00070BD00BF6807FF1FD423FF1F2DE9F0430F
:104AD00083B0044602AE46F8041D914600254FF40B
:104AE00000780F4F204601993246FFF7B9FF034681
:104AF00088B1237C08FA03F31D4494F820104FF684
:104B0000F873102914BF39461946019B8B42E9D32B
:104B1000C9F800500123184603B0BDE8F08300BF78
:104B2000F8FFFF0FF8B504460D461746012931D9A5
:104B3000C368013399422FD8C36990F82020102A06
:104B40000CBF0E0ACE091E44164B1B689E4205D0B0
:104B500030460021FFF734FF034600B394F82030BD
:104B6000102B04D1EDB2104B23F8157004E005F0C2
:104B70007F050D4B43F825700C4B1A7842F001026B
:104B80001A70237E012B09D9A3681E44084B1E60AE
:104B9000012304E0002302E0002300E00123184683
:104BA000F8BD00BF6807FF1FD423FF1FD425FF1FD8
:104BB000CC23FF1F2DE9F04F85B006468A460092B0
:104BC00017681FB101370023019305E00768012929
:104BD00014BF002301230193F36803F10108DBB143
:104BE0003C4600254FF00209CB46A0453CBF4C4651
:104BF0005F463046214603AAFFF732FF60B1039BB0
:104C00000BB1671C03E0631CDB1B534506D0013569
:104C10000134F368AB42E8D800232AE0304621464D
:104C20006FF07042FFF77EFF034648B921E0651E32
:104C3000304629462246FFF775FF034618B918E0AB
:104C4000BC42F4D803E0BD4201D92C46EFE7009BFB
:104C5000196829B130463A46FFF764FF034640B170
:104C6000009B1F60019B1BB101373760012300E0EF
:104C70000123184605B0BDE8F08F00BFF0B583B042
:104C800005460C460223036000260E4F28462146A7
:104C900001AAFFF7E5FE80B1284621463246FFF71C
:104CA00041FF50B1019C95F820104FF6F873102980
:104CB00018BF3B469C42E9D301E0002000E0012000
:104CC00003B0F0BDF8FFFF0FF8B50546494B19607A
:104CD0001446DAB1042A7FD800200146FFF770FE9F
:104CE0000346002800F08380434B03EB041494F840
:104CF000AE3104F5D47413F07F036FD1D4F81210E1
:104D0000632974D9D4F80E400CB970E00024204611
:104D10000021FFF755FE0346002868D0364BB3F854
:104D20000B30B3F5007F5BD1334B1B7C002B5ED087
:104D3000314AD289002A55D02F4A517B002953D0BD
:104D40002B76297100232B74012003E05A1C2A744E
:104D5000072B4BD82B7C1E4600FA03F29142F5D16B
:104D6000254BD98A01B9596AA960234BDA892244B3
:104D7000EA61B3F8110087B268841B7C03FB01234E
:104D80006B627A0102F2FF1203EB62236B611A4A33
:104D9000B2F813200AB9184A126AE31A134423FA24
:104DA00006F6EE6040F6F4739E4204D80C2385F8B4
:104DB000203001231BE04FF6F4739E4204D81023E9
:104DC00085F82030012312E00B4BDB6A6B62202355
:104DD00085F8203001230AE0002308E0002306E0E4
:104DE000002304E0002302E00B4600E00023184605
:104DF000F8BD00BFD023FF1FD423FF1F284B1A6824
:104E000042F480521A60274B274A1A60274ADA6018
:104E100002F180421A61264A1A60264B1B7813F071
:104E2000030302D0012B05D009E04FF41072224B8E
:104E30001A6008E04FF40072204B1A6003E04FF450
:104E400000721F4B1A601B4B1B7813F00C0302D02F
:104E5000042B05D009E04FF400721A4B1A6008E0E9
:104E60004FF40072184B1A6003E04FF40072174BB6
:104E70001A60104B1B7813F0300302D0102B05D0B2
:104E800009E04FF41072124B1A6070474FF4007231
:104E9000104B1A6070474FF400720F4B1A60704746
:104EA0003C80044000C0024001401F000110003857
:104EB00000001F801127FF1F18B0044008C00440E5
:104EC000409004401CB004400CC004404490044096
:104ED00014B0044004C004403C9004402DE9F00F9D
:104EE0005B4BA3FB00425209C2EB0214A0EB84000F
:104EF0000870A3FB02A35B09C3EB0310A2EB8002C3
:104F00004A70544CA4FB03084FEA181808EB4802F7
:104F1000A3EBC2038B70474608F104004E4AA0FB86
:104F20000223C21A03EB52039B08C3EBC303C01A4C
:104F30000130C8700020024640F26D1C474C4FF013
:104F400064094FF4B77BC5B205F2B273ABB113F08D
:104F5000030F14D184FB03A6761109FB163686B91C
:104F600084FB03A6F6114FF4C87A06FB1A36002E0E
:104F70000CBF4FF4B776664604E0664602E066462C
:104F800000E05E46324401309742DCD28D71CBB1F5
:104F900013F0030F19D1314880FB03404011642402
:104FA00004FB1030A0B92D4880FB03A0C0114FF4C2
:104FB000C87400FB1430002840F26D1408BF4FF491
:104FC000B77407E040F26D1404E040F26D1401E0A4
:104FD0004FF4B774121BC2EB0804204F87FB030782
:104FE0004FEA671C642202FB1C3CFF114FF4C8729D
:104FF00002FB173700221A4E4FF01C0803F0030A79
:105000004FF01D09D0B201280BD163B1BAF1000FE6
:105010000BD1BCF1000F0AD1002F0CBF1D251C25A0
:1050200006E0955D04E0454602E0454600E04D4659
:10503000A54205D8641B0130C0B201320C2AE1D16F
:105040000130487101340C71BDE8F00F704700BFAA
:1050500089888888ABAAAAAA254992241F85EB5182
:105060002008010010B50446044B1B68984204D088
:105070000349FFF733FF014B1C6010BDFC25FF1FE8
:105080000026FF1F08B5FFF7EDFF014B987808BD1C
:105090000026FF1F08B5FFF7E5FF044B987818B10D
:1050A0000C2802D90C3808BD0C2008BD0026FF1FB3
:1050B00008B5FFF7D7FF014B587808BD0026FF1F42
:1050C00008B5FFF7CFFF034B98780B28D4BF00201B
:1050D000012008BD0026FF1F2DE9F00390F806808F
:1050E000374A02FB08F2B8F1000F24D008F2B2747C
:1050F00040F2B273334F4FF0640C4FF4C879002B79
:1051000016DD13F0030F13D187FB0365DE17C6EB23
:1051100065150CFB15353DB987FB0356DD17C5EB4F
:10512000E61509FB153119B902F5A83202F5C0726E
:105130000133A342E3D14479012C2DDD08F2B2778B
:10514000204B83FB07684FEA681C642303FB1C7C2D
:105150004FEAE8184FF4C87303FB187801231A4E7E
:105160001A4D07F00309022B0ED16FB1B9F1000FF0
:105170000AD1BCF1000F02D1B8F1000F04D102F541
:10518000181202F56E5204E0F11811F8011C05FB2B
:1051900001220133A342E6DB84784378C3EB031397
:1051A00099004FF4616303FB041301780B44007909
:1051B0000138064901FB00301044BDE8F003704798
:1051C0008033E1011F85EB5120080100805101006F
:1051D00082B0094B1860094B1B681844084B1860D3
:1051E0000222084B1A70084B1B680193019A074B67
:1051F0001A6002B0704700BF0826FF1F6C07FF1F30
:105200001826FF1F0C26FF1F1C26FF1F1426FF1F3A
:1052100010B582B01E4B1B680193019A1D4B1B6891
:10522000D21AB2F57A7F13D31B4A12680132184C96
:1052300003F57A73216801910199501CC91AB1F5DF
:105240007A7F01D30246F3E713490A60114A1360DB
:10525000124B1A68104B1B689A4214D8104B1B68EB
:105260008BB1984710B1FFF7B3FF0CE00D4B1A68F4
:10527000094B1B681A44094B1A600B4B1A78003211
:1052800018BF01221A70044B186802B010BD00BF8D
:105290001C26FF1F1426FF1F0826FF1F1826FF1FAE
:1052A0001026FF1F6C07FF1F0C26FF1F08B5FFF716
:1052B000AFFFFFF705FFD0F1010038BF002008BDA8
:1052C00008B5FFF7A5FF014B187808BD0C26FF1F96
:1052D00008B5044B1860044B1A68044B1A60FFF7BA
:1052E00097FF08BD1026FF1F0826FF1F1826FF1F67
:1052F000034B1860034B1B681844034B186070473E
:105300006C07FF1F0826FF1F1826FF1F844641EA6F
:10531000000313F003036DD1403A41D351F8043B2D
:1053200040F8043B51F8043B40F8043B51F8043B7F
:1053300040F8043B51F8043B40F8043B51F8043B6F
:1053400040F8043B51F8043B40F8043B51F8043B5F
:1053500040F8043B51F8043B40F8043B51F8043B4F
:1053600040F8043B51F8043B40F8043B51F8043B3F
:1053700040F8043B51F8043B40F8043B51F8043B2F
:1053800040F8043B51F8043B40F8043B51F8043B1F
:1053900040F8043B51F8043B40F8043B403ABDD28E
:1053A000303211D351F8043B40F8043B51F8043B30
:1053B00040F8043B51F8043B40F8043B51F8043BEF
:1053C00040F8043B103AEDD20C3205D351F8043BBF
:1053D00040F8043B043AF9D2043208D0D2071CBF8B
:1053E00011F8013B00F8013B01D30B8803806046B4
:1053F000704700BF082A13D38B078DD010F003032A
:105400008AD0C3F10403D21ADB071CBF11F8013B99
:1054100000F8013B80D331F8023B20F8023B7BE7E8
:10542000043AD9D3013A11F8013B00F8013BF9D213
:105430000B7803704B7843708B78837060467047AD
:10544000024A137813F0010FFBD0704701000240AD
:1054500010B584B01D4B6C46186859689A68DB68B3
:105460000FC41B4B1B7813F0020F27D0194B1B786E
:1054700013F070031CBF174A137000F0D1F880229C
:10548000154B1A700022033B1A70122207331A7050
:105490000522013B1A7072B66B4643F001030D4CB6
:1054A0002046984762B600F0D9F8237813F07003CD
:1054B00004D0237008E0013B02D105E0074B04490A
:1054C0000A7812F0010FF6D004B010BD2C080100CC
:1054D000010002400000024007000240410D0300AD
:1054E00010B50446B0F5805F0BD2074B1B7813F064
:1054F000010F01D1FFF7ACFF04F1A0542078C0B236
:1055000010BD002010BD00BF0100024038B50446A8
:105510000D46B0F5805F1AD20D4B1B7813F0010FCA
:1055200001D1FFF795FF04F1A0542378DBB2AB4221
:105530000DD000F075F8074B1B7813F070031CBFFB
:10554000044A13702570FFF77BFF00F087F838BD21
:105550000100024000000240024B1A6801321A604A
:10556000704700BF1C26FF1F08B50D4C236813F4BD
:10557000802F01D000F0F8FA236813F4806F01D077
:1055800001F0BEFD236813F4006F01D002F07AF938
:10559000236813F4805FE9D002F038FCE6E700BF2F
:1055A0003480044008B5FFF7DFFF00BF1022014B35
:1055B0001A80704700200540704700BF024A1368F8
:1055C00018441060184670477007FF1F0078D0F12C
:1055D000010038BF0020704701230370704700BFEF
:1055E000EFF31383ABB9EFF31083ABB9EFF305839C
:1055F00023B10F2B05D9094A985C03E04FF4807062
:1056000000E00020EFF311833BB1834238BF18461E
:1056100070474FF0FF30704700207047F0E300E024
:105620000B4B1B78DBB2802B0ED10A4A0A4B1A6057
:10563000002203F5573303F2BD331A70044A13787E
:10564000DBB2802BFBD001E00020704701207047C7
:1056500003E0074000002822448004400B4B1B78E5
:10566000DBB2012B0FD1602203F1804303F5FC2351
:105670001A70064A1378DBB2802BFBD1044A054B23
:105680001A60012070470020704700BF03E0074008
:105690000000060244800440014B1868704700BFB8
:1056A00000D00340044B00221A6004490A60044AF7
:1056B000106010221A60704714D0034004D00340D9
:1056C00000D0034010B400280EDB044602024FF461
:1056D0008073B2F5004F05D3013B111B012B01D0A4
:1056E0000A46F6E7120A0FE0424211024FF48073B5
:1056F000B1F5014F05D3013B881A012B01D00146BA
:10570000F6E70A0AC2F58072013B42EA0323024827
:1057100003605DF8044B70470CD003403F281ED84F
:105720000F4B53F8303093F8802212F0FF0F08D05F
:1057300019B1012283F880207047012283F80021EB
:105740007047074B03EBC000436821B11A6842F071
:1057500003021A6070471A6822F002021A6070474A
:105760003C0801003F2806D8044B53F8303093F82A
:105770000002C0B270470020704700BF3C08010023
:105780003F283AD81D4B03EBC0035B68012919D0B1
:10579000042925D0194A52F83020002082F88002CE
:1057A00019B94FF480721A607047022903D140F290
:1057B00003121A60704703290CBF4FF48172002254
:1057C0001A6070470D4A52F83020012182F8801289
:1057D0004FF4A2721A601A6822F020021A60704711
:1057E000064A52F83020012182F880124FF4A2724A
:1057F0001A601A6842F020021A6070473C080100E3
:1058000072B60D4B1B680D4A12680D49096862B6E5
:1058100011F0806F02D0322B88BF0132C3F52F33D5
:1058200003F21F339B080749A1FB03039B084FF4B6
:105830007A7000FB0230704718E000E01C26FF1F62
:1058400004ED00E0176CC11638B50546FFF7D8FF28
:10585000044625B938BD013D0AD004F57A74FFF736
:10586000CFFF001BB0F57A7FF5D201F035F8F6E7EF
:1058700038BD00BF70B5404B4FF000621A604FF06A
:1058800080521A604FF000521A604FF080421A6046
:105890004FF000421A600022384B1A604EF6FF703B
:1058A00004331860282336490B6008310B60083137
:1058B0000B6008310B6008310B6008310B60083158
:1058C0000B6008310B602F4D2B602F4C236001F5CE
:1058D000002101F6D8710B6008310B6008310B60B4
:1058E00008310B6008310B6008310B600921274E2D
:1058F000316006F580560436326004363060043676
:10590000336008363360143E316006F5FE260436F7
:105910003260043630600436336008363360143E3B
:10592000316006F5805604363260043630602B60F4
:105930002360174801601749086840F40070086048
:105940002839086840F00070086001F501210A60FC
:1059500047F6FF71104A1160043213600832136079
:1059600008220E4B1A6000F0E7FF4FF4C870FFF7F3
:105970006BFF00F079FC70BD04E100E0048003409F
:105980000C8003400C900B4014900B4000800340AF
:1059900000900B402C80044008900C4000900C407C
:1059A00030B40E4B1B7843F002020D4C04EBC204E2
:1059B00060600C48007800280CBF8824C82444EAA2
:1059C0000141074D45F8321080F00100054A107082
:1059D00083F00103014A137030BC70478826FF1F13
:1059E0000000FF1F0127FF1F10B4431E032B11D817
:1059F00072B60A4A52F8230050B14268074941F88A
:105A00002320074A32F813400188611A22F8131044
:105A100062B600E000205DF8044B70477826FF1F57
:105A2000C02AFF1F013803280DD872B6074B53F860
:105A300020302BB1002001305B68002BFBD100E04F
:105A4000002062B670470020704700BFCC26FF1FC1
:105A500038B572B601231B491B4C5A1812F8012C99
:105A600012F0080F24D09A0054F832506DB9164B3A
:105A700003EBC20108304860144943F83210144B5C
:105A80001A78013A1A7062B638BD42F0010254F831
:105A900032506DB90C4B03EBC201083048600D4920
:105AA00043F832100A4B1A78013A1A7062B638BDC0
:105AB0000133052BD1D162B60022054B1A7000F0DC
:105AC00045FC38BD680A01000000FF1F8800400047
:105AD000F626FF1FC800400010B4431E032B37D822
