:1000000000000320D10100001D600000D55F00004A
:10001000D55F0000D55F0000D55F0000D55F000010
:10002000D55F0000D55F0000D55F00001D600000B7
:100030001D600000D55F00001D600000C55F00006E
:100040001D6000001D6000001D6000001D600000BC
:100050001D6000001D6000001D6000001D600000AC
:100060001D6000001D6000001D6000001D6000009C
:100070001D6000001D6000001D6000001D6000008C
:100080001D6000001D6000001D6000001D6000007C
:100090001D6000001D6000001D6000001D6000006C
:1000A0001D6000001D6000001D6000001D6000005C
:1000B0001D6000001D6000001D600000D57D000077
:1000C0001D600000318500001D600000B18A000045
:1000D0001D600000C99000001D6000001D60000050
:1000E0001D6000001D6000001D6000001D6000001C
:1000F0001D6000001D6000001D6000001D6000000C
:10010000297300003D730000517300006573000007
:100110001D600000296600001D6000001D600000D9
:100120001D6000001D6000001D6000001D600000DB
:100130001D6000001D6000001D6000001D600000CB
:100140001D6000001D600000159600001D6000008D
:100150001D6000001D6000001D6000001D600000AB
:100160001D6000001D6000001D6000001D6000009B
:100170001D6000001D6000001D6000001D6000008B
:100180001D6000001D6000001D6000001D6000007B
:100190001D6000001D600000559C00001D600000F7
:1001A0001D6000001D6000001D6000001D6000005B
:1001B0001D6000001D6000001D6000001D6000004B
:1001C0001D6000001D6000001D6000001D6000003B
:1001D0005C4B4CF2205210B51A804DF628121A8052
:1001E00000BF00BF05F01EFF574B4FF030621A6092
:1001F000564A9A60564ADA60564B4FF470021A60BB
:10020000554B564A1A60564A136813F4807304D14A
:1002100054490B604FF4A8531360534B1A781107DD
:1002200003D51A7842F008021A70504B5049AA229E
:100230001A70504A504B8B4204D252F8040F43F8C4
:10024000040BF8E74D4B4E4900228B4202D243F893
:10025000042BFAE74B494C4A002352F8230041F89B
:1002600023000133742BF8D1484B494A802103F80D
:10027000011B9342FBD1474B424A1A60464B8A22EC
:100280001A70A3F5805324225A70A0221A709A790A
:100290009207FCD59A79D406FCD4404A937903F0AE
:1002A0000C03082BFAD13E4B60221A7002331A78E5
:1002B000802AFCD1394B01221A715D225A719A7938
:1002C0009006FCD59979354A4906FBD5354B364918
:1002D00019600021596020231370937903F00C03F7
:1002E0000C2BFAD1314B324A1A60324B324A1A6027
:1002F00000225A60072243F8042C304AC3F80C2D20
:1003000062B606F023F8174B1B68DA0705D52C48B0
:1003100005F06AFF2B4B2C4A1A602C4B1B785B06AE
:1003200009D5284C284B22689A4204D1244805F06C
:100330005BFF002323600AF0B7FD05F079FE07F0AC
:10034000C9F8FEE70E20054030800440823F0400DB
:100350000100002B88ED00E0002008E0030000858C
:1003600010D0034014D0034002D0074000E0074003
:10037000B011FF1F8C2101003007FF1FB011FF1FBC
:10038000382CFF1F0002FF1F0000000000E400E007
:1003900064E400E008ED00E0005006400040064044
:1003A00001E007404480044000000602048004404D
:1003B000C010070014E000E01FBF02000000202072
:1003C0006522FA581CE00340A5C3945A00F0074088
:1003D000FFFFFFFFFFFFFFFFFFFFFFFFFFFFFFFF2D
:1003E000FFFFFFFFFFFFFFFFFFFFFFFFFFFFFFFF1D
:1003F000FFFFFFFFFFFFFFFFFFFFFFFFFFFFFFFF0D
:10040000FFFFFFFFFFFFFFFFFFFFFFFFDEF9FFFF23
:1004100010B5054C237833B9044B13B10448AFF33E
:1004200000800123237010BDB011FF1F00000000E9
:1004300088210100084B10B51BB108490848AFF3EB
:1004400000800848036803B910BD074B002BFBD0A0
:10045000BDE81040184700BF00000000B411FF1FA6
:1004600088210100B011FF1F0000000038B50D46C3
:1004700004460221E8B205F011FF64204FF47A71BE
:100480000022012360602560A1602275236120465F
:1004900038BD00BF08B5007805F0F2FE00280CBF9B
:1004A0000220002008BD00BF70B5184E82B033682E
:1004B000009304460078009D05F0E2FE90B92369A0
:1004C000012B16D0E2686368AD1A9D4206D9237DE0
:1004D000B3B1A3689D428CBF032002200023236197
:1004E00002B070BD00200123E0602075236102B0DE
:1004F00070BD33680193019BE36000232361EFE744
:100500000120002320752361EAE700BF6C27FF1F4D
:10051000ABB1B1F5805F12DA2DE9F0411D460F460F
:10052000561EC1F580580024E01905F003FD013482
:10053000A54206F8010F04D12846BDE8F08100204D
:1005400070474445F0D12046BDE8F08170B50646BD
:10055000002005F0EFFC354630700124204605F000
:10056000E9FC0134042C05F8010FF7D13368092B9D
:1005700001D0002070BD21463023321D3046FFF7E8
:10058000C7FF012070BD00BF0368092B10B50446EA
:1005900001D0FFF7DBFF201D10BD00BFABB1B1F5EF
:1005A000805F12DA2DE9F0411D460F46561EC1F557
:1005B00080580024E01916F8011F013405F0D4FC1E
:1005C000A54204D12846BDE8F0810020704744458B
:1005D000F0D12046BDE8F081092170B506460160E2
:1005E000002005F0C1FC35460124204615F8011F06
:1005F000013405F0B9FC042CF7D121463023321D1B
:100600003046FFF7CBFF012070BD00BF002170B561
:100610003022044640F8041B0AF0E2FF2046FFF7B0
:1006200095FFA0B90B4A6060034603CA04F11405A4
:10063000167860610A22A3602361E26020462E7270
:1006400069606362A362E3622363FFF7C5FF20462C
:1006500070BD00BF2CF60000F0B40D4606461746EC
:100660000FCD341D0FC40FCD0FC495E80F0084E8E3
:100670000F0017B90120F0BC70473046F0BCFFF7FF
:10068000ABBF00BF08B505F009FC0248BDE8084053
:10069000FFF7BCBFCC11FF1F10B5044600F580501A
:1006A0000C3006F02BFE204610BD00BF2DE9F04FA8
:1006B00089B0154601919DF8042002951C4681469B
:1006C000012110469DF808B0079205F0E7FD03945C
:1006D0009DF80C2058460121144605F0DFFD9DF8D9
:1006E0004820049415462046012105F0D7FD9DF8C9
:1006F0004CA005952846012105F0D0FD9DF850201D
:1007000050460121164605F0C9FD9DF85480069615
:100710003046012105F0C2FD9DF858704046012188
:1007200005F0BCFD9DF85C603846012105F0B6FD82
:100730009DF860503046012105F0B0FD9DF8644001
:100740002846012105F0AAFD2046012105F0A6FD5D
:10075000079A0021104605F08DFD5846002105F04E
:1007600089FD0498002105F085FD0598002105F01C
:1007700081FD5046002105F07DFD0698002105F021
:1007800079FD4046002105F075FD3846002105F051
:1007900071FD3046002105F06DFD2846002105F071
:1007A00069FD41F22C082046002105F063FD019B04
:1007B00049F8083041F2300C029B49F80C3041F204
:1007C000340E039B49F80E3041F23807129B49F86A
:1007D000073041F23C06139B49F8063009F5825573
:1007E000149B2B6041F24404159B49F8043041F2FC
:1007F0004800169B49F8003041F24C01179B49F81C
:10080000013041F25002189B49F8023041F2540A7B
:10081000199B49F80A3009B0BDE8F08F034641F250
:100820002802012100F5805099540C303B220149E7
:1008300006F01ABD050C000041F228030022C25444
:10084000704700BF3F299BBF41F21C0201230023D8
:1008500081501846704700BF02299DBF00F58153A3
:10086000012019700020704738B541F20405044694
:100870004FF40062405905F077FA04F5805361594E
:100880001A681960625138BD41F2080241F204034E
:100890008258C3589A4204D13C221346013BFDD1F1
:1008A000FBE70120704700BF41F22403C1507047AD
:1008B0002DE9F04F00F580588BB000F58157414687
:1008C0003B461831039119461031059119461431F0
:1008D00007911946183102911946C446C64600F5DB
:1008E00082551C3109900C333846AB4C069104906C
:1008F00008F11C080CF1080C0EF1140E0437143525
:10090000089300200121D8F80030834205DC089BC1
:100910001B7854F8333083F880100026039BDCF8F2
:1009200000A01A68049B1B7801330AEB8219DBB222
:1009300010320AEB82120193DEF8003019F80090B1
:10094000125C01FA03FA002E00F0F4803B684FFAC3
:100950008AFA1209012B0AEA19190AEA020200F0BE
:10096000F780D5F800A0059B5FFA8AFA54F83AA000
:100970008AF80011D3F800A0019B13F0010B5FFA75
:100980008AFA00F0C580B9F1000F00F0C180824BF7
:1009900053F83AA0079B8AF88010D3F800A0002AE9
:1009A00000F0C1805FFA8AFA54F83AA08AF8801001
:1009B000019B03F0020A029B1B68DBB20AF0FF0BEB
:1009C00054F83330BAF1000F00F09480B9F1000F01
:1009D00000F0908083F88010069B1B68002A00F0CE
:1009E0009180DBB254F8333083F880102B786A4A58
:1009F00054F833300136022E83F880104FF0010393
:100A00008CD1184440287FF47EAF099E099D41F2A5
:100A1000500041F21801305C52F8300080F880300C
:100A2000705806F582510968C9B252F83120C107E1
:100A30004CBF82F8803082F80031099841F24403BB
:100A400041F21802C35882580998DBB212F0020F23
:100A500054F833304FF0010214BF83F8802083F83C
:100A6000002141F2480341F21802C3588258099804
:100A7000DBB212F0040F54F833304FF0010214BF10
:100A800083F8802083F8002141F24C0341F21802E0
:100A9000C3588258DBB212F0080F54F833304FF0CD
:100AA000010214BF83F8802083F8002141F2500333
:100AB0000120EB5C54F8332041F22C0382F8000152
:100AC000EB5C54F83320099C82F8000141F21403D6
:100AD0002946EA58531E022B9CBF304951F8230087
:100AE00041F2180163580133102B3BD063500BB017
:100AF000BDE8F08F83F80011069B1B68BBF1000F67
:100B00007FF46CAFDBB254F8333083F800116DE73B
:100B100054F83AA0079B8AF80011D3F800A0BBF163
:100B2000000F7FF43CAF5FFA8AFA54F83AA08AF8D3
:100B300000113DE73B684FFA8AFA09F00F0902F00D
:100B40000F02012B0AEA09090AEA02027FF409AF3F
:100B5000B9FA89F9B2FA82F2D5F800A04FEA591928
:100B6000520900E70132099D0023042A6B5005D089
:100B700041F21403EA500BB0BDE8F08F099E06F570
:100B8000805441F208012468745041F21402B350B9
:100B90000BB0BDE8F08F00BFF419010038F600007B
:100BA00038B500F580550C350446284606F0A6FBFE
:100BB0002046FFF77DFE41F22803E35C33B10028B5
:100BC00003DB0D4B421E9A420AD938BD41F22C027A
:100BD0000A4BA25C53F83230012283F8802038BDE2
:100BE000C0EB00108200013A232AEED928460449BE
:100BF000BDE8384006F038BB47444404F41901000E
:100C0000050C00000148FFF7CBBF00BF0012FF1F1B
:100C1000144B154A1549F0B403F5805641F204050A
:100C200041F20C07336003F5006600245E5141F287
:100C30001805DC5141F2280641F214075C5141F2DB
:100C4000080041F21005DC519C5503F58157C82678
:100C50001B505E5541F21C003C701C501846F0BC05
:100C60000AF010B90012FF1F3007FF1F990600009D
:100C700010B5202380220446C0F80028C0F80438AC
:100C80004FF4006200210AF0ABFC204610BD00BF0B
:100C9000002914DB002A12DBD0F8003899420EDA62
:100CA000D0F804389A420ADA01EBD1735B1000EBFA
:100CB0008210C05CCB0704D400F00F007047002006
:100CC00070470009704700BF00291BDB002A19DBB1
:100CD00030B4D0F80048A14213DAD0F80448A24258
:100CE0000FDA01EBD174920185186410C90703F083
:100CF0000F032D5D07D505F00F0545EA03130244E8
:100D0000135530BC704705F0F0052B43F7E700BFE3
:100D100061F31F114FF400620AF062BC2DE9F04F3D
:100D200085B00E9E0F9C109F119D9619B24202969F
:100D300032DA8946B91A019380461646039103EBCD
:100D4000040AC3EB050B039B9F19019B9A451FDD0A
:100D5000019C0BE04046FFF79BFF03462A46013407
:100D600039464046FFF7B0FFA24511D02246314632
:100D7000484600F0EBFE0BEB04052A4639460028F6
:100D8000E8D122463146484600F09CFE0346E5E79E
:100D9000029B01369E42D6D105B0BDE8F08F00BF60
:100DA00005F01CBA30B5174C89B0204602F07CFC27
:100DB00018BBFE21144802F015FD68460123134AB2
:100DC000114902F0BBFD08AA114B12F8140D9DF851
:100DD000045002992073257103F10D00A16012F8EF
:100DE000011F03F8011B83420649F8D1079BCB6121
:100DF000684602F02DFC09B030BD204602F046FCEA
:100E0000D7E700BF5822FF1FAC24FF1F18FE0000C9
:100E10006522FF1F2DE9F04FB24C2368D907ADF6CC
:100E20007C0D40F1A781B04C2368DA0740F1908136
:100E30001CA8FFF71DFF08A800F0F2FD0CA800F0A9
:100E4000EFFDAA4B1B680793079C02F051FBA84BD0
:100E50001A68054602B91C60A64F3B6803B93C609E
:100E6000A54802F021FC002800F03281A24802F0DF
:100E70001BFC002840F0BB80A04BA3FB04239B0677
:100E80003ED401210D2005F0F5F99D4E9D48FFF758
:100E90007BFB4368012B284600F09180022B35D064
:100EA00004F00AFE8046284604F028FE10AD0346F2
:100EB0004246284694490AF0E7FD9248FFF764FB52
:100EC000C368013B052B9CBF904A32F823203B6846
:100ED000884F88BF41F28832E31A934238D38C4856
:100EE00002F0E2FB002840F082813C600CA800F098
:100EF0007BFE08A800F078FE0DF67C0DBDE8F08FB3
:100F000000210D2005F0B6F9824EBFE704F0E2FDA6
:100F1000814B824A0928D4BF98469046284604F05F
:100F2000D9FD8146284604F0E9FD054604F0C2FEDD
:100F30007B497C4B009500280CBF0846184610AD35
:100F4000019042464B46284677490AF09DFDB4E79A
:100F5000764933462A4608680CA900F089FF00212B
:100F60001CA8FFF7D5FE0CA800F012FE06460CA840
:100F700000F010FE05460CA800F00AFE04460CA87E
:100F800000F008FEC4F17F03C0F11F0003EBD37330
:100F900000EBD0705A10401000230390029200968C
:100FA00001951A460CA91CA8FFF7B8FE002160485D
:100FB000FFF76AFC1CA95E48FFF756FC96E704F0B1
:100FC00089FD554B554A0928D4BF98469046284676
:100FD00004F080FD8146284604F090FD10AD00909D
:100FE00042464B46284653490AF04EFD65E74848BD
:100FF00002F05AFB00287FF43FAF4F4E4148338840
:1010000001333380FFF7C0FA836A013B032B00F200
:10101000C3804A4A32F81330002B00F0BD8031887B
:10102000B1FBF3F203FB12139BB2002B00F0B48070
:101030001E21002006F044FA83B2002B39D0DFF8DD
:10104000D090049514AE5A1E059409F11A0B34463B
:10105000CA464FF0000815461E4601222649204682
:1010600002F0EEFC217B94F804E0A068344A89F891
:101070000C1089F804E0C9F8080017A911F8013F1D
:1010800002F8013B5A45F9D1E269CAF81C20204612
:1010900002F0DEFA1E4802F007FB002800F0BD80D7
:1010A000454500F3B68008F10108B045D5D1049D4F
:1010B000059C174802F0F8FA30B11549214801F0B3
:1010C0009DF800287FF4D8AE0B4802F0DFFAD3E693
:1010D00014211D4805F0E6FF1C4806F061F9FFF7F2
:1010E00061FEC3E68823FF1F4C23FF1F6C27FF1FF1
:1010F0005423FF1FF822FF1F5822FF1FD34D6210F9
:1011000020FE0000CC11FF1F64FE00006C070100F0
:101110002C23FF1F28FE000030FE0000881901006C
:10112000B818010034FE00007CFE0000D822FF1F2A
:101130000012FF1F70FE00005023FF1F38F8000050
:101140003923FF1F9022FF1F38FE00007428FF1F65
:10115000204604F085FF00283FF46AAEA74801F05E
:101160003BF8204604F082FFA54AA649A34809F0AF
:1011700089FE5DE6204604F073FF00283FF453AE7D
:10118000A14802F057FA204604F070FF9C4A9F499C
:101190009D4809F077FE46E69D499E4802F042FCD4
:1011A00000283FF445AF14AEDFF85C92984A9949A5
:1011B0000123304602F0C2FB3179B268337B89F8F3
:1011C0000410C9F8082089F80C3009F10D0209F162
:1011D0001A0B17A911F8013F02F8013B5A458A483A
:1011E000F8D1F369C361304602F032FA61E783480F
:1011F00001F0C4F890BB814801F02EF901380428B1
:1012000000F24381DFE810F0E900D700C500B40028
:1012100032007D4802F03AFA45E77F4802F06AFC66
:1012200001227D49204602F00BFC217B94F804E06A
:10123000A0687A4A8AF80C108AF804E0CAF8080014
:1012400017A911F8013F02F8013B5A45F9D1E269AB
:10125000CAF81C20204602F0FBF921E76A4802F098
:1012600015FA6F4B3C6000221A603FE600202A46C8
:10127000687133460CA96B4800F0FAFD0CA800F029
:1012800087FCC0F1400000EBD070451040350CA841
:1012900000F080FC624FC0F11F003B6800EBD07093
:1012A0004610002B40F0E8805749544801F076F88A
:1012B0003C60524801F0B2F8014608A800F0D2FCA8
:1012C00000211CA8FFF724FD4C4801F0B7F80446A4
:1012D000002840F0AD800CA800F05AFC07460CA88E
:1012E00000F058FC234622460CA9019002951CA848
:1012F00000970396FFF712FD08A800F049FC054689
:1013000008A800F047FC009501900394029423463E
:10131000224608A91CA8FFF701FD4348FFF734F94E
:10132000C36A002B3FF442AE14A800F079FB3648A4
:1013300002F090F914A9024600233C4800F098FD01
:1013400014A800F03BFC14A800F022FC044614A8EA
:1013500000F020FC0023019000941CA814A9039322
:1013600002931A46FFF7DAFC14A800F03DFC1DE6D4
:1013700000202A46687133460CA92A4800F078FDFF
:101380000CA800F005FCC0F1400000EBD070451047
:101390007DE700202A46687133460CA9214800F0F9
:1013A00067FD0CA800F0F4FBC0F12A0000EBD07040
:1013B000451057356BE700202A46687133460CA963
:1013C000184800F055FD0CA800F0E2FBC0F12A001F
:1013D00000EBD07045102B3559E700202A46687184
:1013E00033460CA90F4800F043FD0CA800F0D0FBD9
:1013F000C0F12A0000EBD070451048E79022FF1F93
:101400003007FF1FED2100002C23FF1F5136000085
:1014100050FE0000AC24FF1F5822FF1F3923FF1F7E
:10142000DC22FF1F1423FF1FCC11FF1FBC22FF1F54
:1014300008A800F0ADFB074608A800F0ABFB0024AD
:101440002346224608A90097019003941CA8029401
:10145000FFF764FC0CA800F09BFB07460CA800F00B
:1014600099FB0097019003960295234622460CA90A
:101470001CA8FFF753FC50E70C48C3EB040800F02E
:10148000CFFF80453FF610AF13E709492A463346A0
:1014900008680CA900F0ECFC0CA800F079FBC0F186
:1014A0007F0000EBD0704510F1E600BF9022FF1FD7
:1014B000D822FF1F30B53349334895B002F0B2FA55
:1014C00090B1324D2C683CB1204600F051FC2046D2
:1014D00006F00CF800232B602D48FFF755F82D4936
:1014E00010300AF071FB20B92B4B2C4A1A6015B052
:1014F00030BD04A80123234A234902F01FFA04A89F
:1015000002F0D2F8C0B9244B244A1A6004A802F0B1
:101510009FF815B030BD0CA800F032FE1C48FFF754
:1015200033F8694610300AF04FFBD8B10CA802F02E
:10153000ADF80CA802F08CF804A901220CA802F066
:101540007FFA0CA802F0B0F869460028E3D10CA895
:1015500002F07EF82B688BB10F4A136004A802F0EA
:1015600095F8D3E7182005F0BDFF044600F0F8FB1E
:1015700020460CA92C6000F01BFCE8E7064B074A4C
:101580001A60EBE788FE0000AC24FF1FD422FF1F87
:10159000CC11FF1F2CF60000D822FF1F7822FF1F5E
:1015A00010B5224C2368022B24D0032B12D0012B20
:1015B00006D0022323600A20BDE8104004F074BE68
:1015C000002001F0C1FB0028F5D102232360FFF7C2
:1015D00071FFF0E71648FEF767FF0128EBD11448CA
:1015E000FEF762FF0028FAD1022312482360FFF7BA
:1015F00015F9E0E70E48FEF757FF032803460FD022
:101600000D48FEF751FF012806D0FFF703FC0A2022
:10161000BDE8104004F048BE206001F095FBCAE729
:1016200004482360FFF708F9C5E700BF3407FF1F30
:10163000FC22FF1F0012FF1FE022FF1F70B5ADF557
:10164000046D0EA8FFF714FB05A800F0E9F909A83E
:101650002D4A2E490AF018FA09AA05A900232C4898
:1016600000F006FC05A800F093FA064605A800F075
:1016700091FA054605A800F08BFA044605A800F08B
:1016800089FAC4F18003C0F1200003EBD37300EBAF
:10169000D0705A10401000230390029205A91A46F8
:1016A0000EA800960195FFF739FB00211948FFF7B6
:1016B000EBF80EA91748FFF7D7F8174804F038FBE6
:1016C0003C2004F043FB642004F0EEFD04F028FB12
:1016D00002284FF01B0114BF1048114805F0E2FC2E
:1016E000104805F05DFE002004F090FDFFF75AFB66
:1016F000FFF7E0FE4FF4FA6004F0D6FD05A800F015
:1017000073FA0DF5046D70BD90FE000098FE0000A8
:10171000BC22FF1F0012FF1FA10D0000A4FE00004D
:10172000C0FE00007428FF1F30B51F488DB0FEF7C3
:101730002BFF05460FCD6C460FC40FCD0FC495E8A7
:101740000F0084E80F001948FEF7A4FE02281AD003
:101750001748FEF79FFE02281DD01448FEF79AFE98
:1017600002281348F9D0FEF795FE02281148F4D05C
:10177000FEF790FE02281048EFD0FEF78BFE0228FD
:10178000EBD00DB030BD0023694601220648099315
:10179000FEF762FFE1E7012369461A460248099312
:1017A000FEF75AFFD9E700BFCC11FF1FE022FF1F51
:1017B0007023FF1F5823FF1FFC22FF1F70B58CB042
:1017C00008A800F02DF95A4A5A4910685A4C5B4E45
:1017D0000B783BB123789B0704D0136835685B1BFB
:1017E000182B04D813681B1AB3F57A7FF0D9544D1F
:1017F00010242E19E4B22046002104F03BFD2046BF
:10180000012104F04BFDB54202D055F8044FF1E739
:1018100001210D2004F042FDFFF786FF08A80722F2
:101820004FF40D7100F0E6F940F2B672454908A890
:1018300000F0FEF840F2F112434908A800F006F962
:1018400008AA5E21414800F09FFA4FF4EB7240492C
:101850003E4800F0EFFA08A80B2240F2551100F0C4
:10186000C9F940F259723B4908A800F0E1F840F28A
:10187000D912394908A800F0E9F808AA2B213748FD
:1018800000F082FAD7223649344800F0D3FA08A88B
:101890001522CA2100F0AEF940F64902314908A8E4
:1018A00000F0C6F840F222222F4908A800F0CEF836
:1018B00008AA0F212D4800F067FA4B222C492B482B
:1018C00000F0B8FA2B48FEF75FFE416A2A48FEF79F
:1018D000EBFF00230793012604250524062007219A
:1018E00002220323039002910192009314221523F4
:1018F00013210696059504941F48FEF7D7FE1D4850
:10190000FEF742FE81681C48FEF79CFF1948FEF76F
:101910003BFE90F820101848FEF79EFF1648FEF791
:101920007DFFFFF78BFE08A800F05EF90CB070BDDC
:101930006C27FF1F5028FF1F6828FF1F302CFF1F38
:1019400084070100DCFE000044F60000BC22FF1FFB
:1019500040FC00003010010064FA00001423FF1F57
:10196000940601009807010040F800007822FF1F4C
:10197000E40F0100CC11FF1F0012FF1F2DE9F843F7
:10198000DFF894901B4C1C4DDFF890801B4F1C4ED1
:10199000484600F0E5F922462946484609F072FA21
:1019A000404600F0DDF922462946404609F06AFA31
:1019B000384600F0D5F922462946384609F062FA41
:1019C0001E211048FEF752FD1C210F48FEF74EFD68
:1019D0001D210E48FEF74AFD1B210D48FEF746FD6E
:1019E000304601F027FE224630460A49BDE8F8435A
:1019F00009F048BA3007FF1F711D00001423FF1FB4
:101A00005822FF1FE022FF1F5823FF1F7023FF1FD4
:101A1000FC22FF1F513600007822FF1FBC22FF1F4F
:101A2000002202604260028142818281C28170474D
:101A300010B54389848903FB04F39A4201D0002046
:101A400010BD006804F090F9002010BD10B5438966
:101A5000C48903FB04F39A4208D01621064805F016
:101A600021FB064805F09CFC002010BD406804F0F6
:101A70007BF9002010BD00BF8C1701007428FF1FE8
:101A8000002917DB002A15DB30B40489A14210DAE3
:101A90004489A2420DDA84890568481002FB0402D9
:101AA000C907A85C07D500F00F0040EA0310C0B2D8
:101AB000A85430BC704703F00F0320F00F00184308
:101AC000A854F6E7002915DB002A13DB03899942A5
:101AD00010DA43899A420DDA10B4838904684810F9
:101AE00002FB0342CB07105C06D400F00F005DF848
:101AF000044B70470020704700095DF8044B7047A5
:101B0000002918DB002A16DB30B40489A14211DA5F
:101B10004489A2420EDAC4894568C81002FB040257
:101B2000A85C4BB101F00701012303FA01F108435E
:101B3000C0B2A85430BC704701F00701012303FA7A
:101B400001F120EA0100A854F4E700BF00291BDBE3
:101B5000002A19DB0389994216DA43899A4213DA7B
:101B600010B4446894B1C389C81002FB034201F069
:101B70000701125C012303FA01F10A4214BF18465F
:101B800000205DF8044B7047012070470120F8E702
:101B9000008970474089704783894289006861F3F2
:101BA0001F1102FB03F209F01BBD00BF83894289AC
:101BB0000068002102FB03F209F012BDC3894289CB
:101BC0004068002102FB03F209F00ABD10B504468B
:101BD000006808B105F08CFC606818B1BDE81040E1
:101BE00005F086BC10BD00BF10B50446FFF7EEFF40
:101BF000204610BD70B50D4604461646FFF7E6FFB9
:101C0000AAB215F0070102F0010318BF012105EB8C
:101C1000D570002DB8BF073503EB600001EBE5057B
:101C200080B22281A081E581668106FB00F005F08B
:101C30005BFCE389206006FB03F005F055FCA389FB
:101C40006289606002FB03F20021206809F0C8FC91
:101C5000E3896289606802FB03F20021BDE87040FD
:101C600009F0BEBC38B50D464A8909890446FFF71C
:101C7000C1FF2968B9B1A089638910FB03F292B250
:101C800003FB00F39A4210D0696849B1E289638985
:101C900012FB03F292B22046FFF7D8FE204638BD71
:101CA0006160204638BD2160EEE7206804F05CF8F2
:101CB000EAE700BF70B582B00D460222064608462C
:101CC000694601F0D1FC022204460DEB02012846D0
:101CD00001F0CAFC0222002CA8BF002801A9284656
:101CE000ACBF0124002401F0BFFC02220028B4BFD5
:101CF000002404F001040DF10601284601F0B4FCB3
:101D00000028B4BF002404F0010414B9204602B036
:101D100070BDBDF80220BDF800103046FFF76AFF25
:101D20007389B289316812FB03F292B2284601F03E
:101D30009BFCBDF80630C443E40F002BE6D0F289CB
:101D40007389716812FB03F2284692B201F08CFC91
:101D50000028B4BF002404F00104204602B070BD86
:101D600010B50446FFF75CFE00232361204610BD3A
:101D700010B50446006908B105F0BAFB2046FFF72C
:101D800033FF204610BD00BF70B5044600690D4604
:101D9000164608B105F0ACFB31462046FFF762FF5E
:101DA000A58205EB850005F09FFB206170BD00BF9B
:101DB00030B50C46C3B005460021204601F05CFC5E
:101DC000022201A9204601F04FFC0DF1030101227E
:101DD000204601F049FC4FF48072002102A809F06E
:101DE000FFFB9DF8032002A9204601F03DFC2046A0
:101DF0000DF10601022201F037FC286908B105F057
:101E000077FBBDF8060000EB800005F06DFBBDF828
:101E10000620286102EB8202014692B2204601F0C0
:101E200023FC21462846FFF745FFBDF80630AB826C
:101E300043B030BD838A03EB83039A4210B50DD0C3
:101E400014460E21084805F02DF92146074805F0F3
:101E5000F7FA064805F0A4FA002010BD006903F067
:101E600083FF012010BD00BFA41701007428FF1FCD
:101E70002DE9F04F87B0074610469A4614468B4628
:101E800005920AF07DF8BB8A00931A465E1E431E37
:101E90004FF0000ECDF80CA09A46B6B2D645CDF85C
:101EA00008B00193BB4606EB860604F1FF39F44601
:101EB000174629DA19F8012F002F00F02481DBF8EA
:101EC000104094F80080424500F002812346A11999
:101ED00003E01878904200F0FC80994203F105037A
:101EE0001D46F6D1234603E01878904200F0ED80BD
:101EF000994203F105031C46F6D100230EF1010EB1
:101F0000D645C3EB0C0CD5DB019B059ADDF80CA084
:101F100023EAE3735F46D05C009BDDF808B0002B3A
:101F200000F0F38039690B78834200F0E9800B46BA
:101F30000E4403E01A78824200F0E2809E4203F1F0
:101F400005031946F6D1002338460CEB0304FFF7CE
:101F500021FE214602465846FFF74CFE002300931F
:101F600002930598059B03930AF00AF8009B8342AD
:101F700080F2A780039BBE8A1978002E00F0BB80F8
:101F80003A6992F800E0714500F0AD80741EA5B288
:101F900005EB85051544134603E01878884200F0E8
:101FA000A3809D4203F105039C46F6D100230493D0
:101FB000A4B204EB84041444002303E012F8050FD8
:101FC000884205D0B2F80100A24203449BB2F5D189
:101FD0000193019A0499029B02EB010838461946C5
:101FE000C2EB0109FFF7D6FD002585423FDA019BD0
:101FF000434536DA5346019CBA461F4615E0FFF7C3
:1020000061FD2A46034631465846FFF739FD214611
:102010002A465046FFF79AFD013403462A463146C8
:102020005846FFF76DFD444518D021462A465046D4
:1020300009EB0406002FE2D0009BFB5C2D2BDED1C8
:10204000002331465846FFF71BFD0134314601237A
:102050002A465846FFF754FD4445E6D13B465746CD
:102060009A463846FFF796FD01358542BFDB039A55
:10207000049C12F8011B0392029ABB8A2244104668
:102080009BB13C6922788A422AD0013B9AB202EB8A
:1020900082022346224402E01D788D4220D09A42DB
:1020A00003F105031C46F7D10023C31A0293009BDA
:1020B00005980133009309F063FF009B8342FFF60C
:1020C00059AF584607B0BDE8F08FB4F8033015E7B4
:1020D0002546B5F8013042459C44F6D0A11901E7E8
:1020E000B4F80330E1E79446BCF80130049371453D
:1020F00004D0741E5CE7019604966AE7002367E744
:10210000B1F8013020E73B46F8E6009B1CE700BF32
:1021100030B591B068460123174A184901F00EFC0A
:10212000684601F0C1FAF8B1002405E008A801F002
:10213000ADFA08A801F08CFA0122694608A801F05E
:102140007FFC08A801F0B0FAE5B201340028EDD117
:1021500008A801F07DFA684601F098FA684601F097
:1021600077FA284611B030BD0546684601F070FA8E
:10217000284611B030BD00BF88FE0000AC24FF1F10
:1021800030B5054683B00C46002101F075FA0DF11B
:1021900006012846022201F067FA0DF105012846E2
:1021A000012201F061FA9DF8052001320C2ACABF14
:1021B0000D22D3B213462146D8BF92B228468DF8DD
:1021C000053001F051FA9DF805000444002304F89D
:1021D000013C03B030BD00BF10B504461C30FFF712
:1021E0001FFC002323826382204610BD10B50446E5
:1021F0001C30FFF7F9FC204610BD00BF2DE9F04F61
:102200008FB00D460222804608460DF11E0101F0F6
:102210002BFA0222064608A9284601F025FA0222D6
:10222000002EA8BF00280DF122012846ACBF0126D0
:10223000002601F019FA0028B4BF002606F00106B6
:10224000002E00F08280BDF82220002A7DD008F107
:102250000803019308F10A03029308F10C030393A6
:1022600008F10E03049308F1140308F1020B08F1BE
:10227000040A08F106090593002702224146284670
:1022800001F0F2F9022204465946284601F0ECF921
:102290000222002CA8BF002851462846ACBF0124CA
:1022A000002401F0E1F902220028B4BF002404F068
:1022B00001044946284601F0D7F902220028B4BF9C
:1022C000002404F001040199284601F0CDF902220E
:1022D0000028B4BF002404F001040299284601F04C
:1022E000C3F902220028B4BF002404F001040399BA
:1022F000284601F0B9F902220028B4BF002404F0F6
:1023000001040499284601F0AFF901220028B4BF66
:10231000002404F001040599284601F0A5F91322D0
:102320000028B4BF002404F0010409A9284601F0E4
:102330009BF9BDF8222001370028B4BF002004F02B
:102340000100BA4206EA000697DCB8F80010B8F8B7
:102350000A20BDF82000A8F81000003118BF0121A4
:10236000003218BF012200243046A8F81610A8F841
:102370001820A8F812400FB0BDE8F08F428A038AF7
:102380009A4201D000207047B0F91800032803D00A
:10239000B0FA80F04009704701207047B0F916305C
:1023A00010B50446012B408A228A1BD003238242A7
:1023B000E3821BD0904225D3B4F91830022B05D00C
:1023C000002010BD02229342228317D0E389012B03
:1023D000F6D11C342046FFF7E9FB2046FFF7EEFB61
:1023E000012010BD02239042E38213D1B4F91820DA
:1023F000012AE7D00322022B2283E1D1A388012BFB
:10240000DAD1E6E704F11C00FFF754FC638A0133DC
:10241000638210BDA388012BCCD1DAE71C30704752
:10242000B0F91630022B06D0B0F91830022B0CBFD1
:102430004089C08870470088704700BFB0F91630E7
:10244000022B07D0038B023B9BB2012B94BF8089E8
:102450000089704740887047007D70474368002BB3
:1024600010B5044603DD806808B105F041F8204648
:1024700010BD00BF4368002B10B5044603DD806823
:1024800008B105F035F8204610BD00BF4368002BA9
:1024900010B5044603DD806808B105F029F8204630
:1024A00010BD00BF4368002B10B5044603DD8068F3
:1024B00008B105F01DF8204610BD00BF4368002B91
:1024C00010B5044603DD806808B105F011F8204618
:1024D00010BD00BF4368002B10B5044603DD8068C3
:1024E00008B105F005F8204610BD00BF4368002B79
:1024F00010B5044603DD806808B104F0F9FF2046FA
:1025000010BD00BFC1B20148FEF7A6B90012FF1FFF
:102510002DE9F0438BB0054606A80E46FFF780FA7A
:1025200000F0E6FF09228046802106A8FFF762FB43
:10253000012106A8FFF730FB06A8FFF729FB81461B
:1025400006A8FFF727FB00242A4FCDF80090019042
:1025500006A928462346224603940294FEF7DEFB92
:102560003246234606A93846FFF782FC06A8FFF745
:102570000FFB814606A8FFF70DFB012623462246E6
:1025800006A9CDF800900190039628460296FEF722
:10259000C5FB404603F090FA8146404603F0AEFA90
:1025A0004A460346144904A809F06EFA234604AAD1
:1025B00006A93846FFF75CFC06A8FFF7E9FA0746CC
:1025C00006A8FFF7E7FA804606A8FFF7E1FAC0F190
:1025D0008000029023462846224606A903968DE8ED
:1025E0008001FEF79BFB06A8FFF7FEFA0BB0BDE8E3
:1025F000F08300BFBC22FF1F64FE00002DE9F04104
:1026000088B0044604A80F46FFF70AFA092204A876
:102610001C21FFF7EFFA012104A8FFF7BDFA04A877
:10262000FFF7B6FA064604A8FFF7B4FA1725002309
:10263000022204A9009601900395204602921A46B0
:10264000FEF76CFB04A8FFF7A3FA064604A8FFF701
:10265000A1FA0023222204A90096019003952046A6
:1026600002921A46FEF75AFB04A8FFF791FA0646B3
:1026700004A8FFF78FFA0023422204A900960190D4
:102680000395204602921A46FEF748FB04A8FFF77E
:102690007FFA804604A8FFF77DFA3B4E039500239E
:1026A00062220190CDF8008004A9204602921A46C9
:1026B000FEF734FB3A6804A900233046FFF7D8FB45
:1026C00004A8FFF765FA804604A8FFF763FA182507
:1026D00000230422CDF80080019004A92046029234
:1026E00003951A46FEF71AFB7A6804A900233046C0
:1026F000FFF7BEFB04A8FFF74BFA804604A8FFF7DC
:1027000049FA00232422CDF80080019004A9204634
:10271000029203951A46FEF701FBBA6804A900234A
:102720003046FFF7A5FB04A8FFF732FA804604A85D
:10273000FFF730FA00234422019004A920460292B8
:10274000CDF800801A460395FEF7E8FAFA6804A966
:1027500000233046FFF78CFB04A8FFF719FA064662
:1027600004A8FFF717FA00236422019004A9204669
:10277000029203951A460096FEF7D0FA04A8FFF7D6
:1027800033FA08B0BDE8F081BC22FF1F2DE9F04FFD
:1027900089B0054604A80C4617469B46FFF740F94A
:1027A0006248FDF781FE82466148FDF77DFE814665
:1027B0006048FDF779FE80465F48FDF775FE0646E6
:1027C000002F40F08B80B9F1010F5C4F00F08E803C
:1027D000B8F1010F00F09D80012E00F09680BAF153
:1027E000010F4FF0FF3618BF00262168DFF84C813B
:1027F0002846FFF78DFE3B68002B1ADD0023504A68
:10280000504804A9FFF734FB04A8FFF7C1F981463B
:1028100004A8FFF7BFF900230B2201900392029353
:102820001A46CDF8009004A92846FEF777FAD8F8A2
:1028300000306268013A9A4220DD0023424A414852
:1028400004A9FFF715FB04A8FFF7A2F9814604A825
:10285000FFF7A0F9804604A8FFF79AF900230B229E
:10286000C0F1800002900392CDF800901A46CDF896
:10287000048004A92846FEF751FA3B68A268314853
:1028800052F8232004A90023FFF7F2FA04A8FFF767
:102890007FF9804604A8FFF77DF9074604A8FFF7F3
:1028A00077F9C0F1800000EBD070002342100B21BB
:1028B000029203911A4604A92846CDF80080019798
:1028C000FEF72CFA04F10C012846FFF797FE04A846
:1028D000FFF78AF9304609B0BDE8F08F174FDBF8F3
:1028E00000303B60B9F1010F7FF472AF6368386864
:1028F000124A013B83427FF76BAF129B013010609D
:10290000002B3FF465AF984762E73B68CBF8003097
:102910006BE73868094B00287FF75EAF0138186015
:10292000129B002B3FF458AF984755E7E022FF1F5A
:102930005823FF1F7023FF1FFC22FF1FCC23FF1F04
:10294000D41701001423FF1FD81701002DE9F04709
:102950008CB0054604A88946FFF762F8684B0FCB98
:1029600008AE86E80F006748FDF79EFD07466648FB
:10297000FDF79AFD80466548FDF796FD04466448DC
:10298000FDF792FD8246B9F1000F40F08580012FDE
:10299000DFF88C9100F0898028F00208B8F1010F6F
:1029A0004FF0010700F08E8024F00204012C00F0AB
:1029B0009A80BAF1010F04D1564BD9F800209A60E1
:1029C000002728465449FFF7A3FD082204A8442104
:1029D000FFF710F9052104A8FFF7DEF804A8FFF7B8
:1029E000D7F8044604A8FFF7D5F800230C211E22CF
:1029F000009401900391029204A91A462846FEF71A
:102A00008DF9062204A84221FFF7F4F8002104A85A
:102A1000FFF7C2F804A8FFF7BBF8044604A8FFF7C5
:102A2000B9F800230D211F22009401900391029216
:102A300004A91A462846FEF771F9042204A8402189
:102A4000FFF7D8F80F2104A8FFF7A6F804A8FFF7AE
:102A50009FF8D9F800400028B8BF3F3083110134F7
:102A600004A803FB04F4FFF795F800230E212022AD
:102A700001900391029204A91A4628460094FEF799
:102A80004DF931462846FFF7B9FD04A8FFF7ACF829
:102A900038460CB0BDE8F0871E4BDFF884909B6889
:102AA000C9F80030012F7FF477AF1A4B1B489968A3
:102AB00028F00208FDF7C6FEB8F1010F4FF000073D
:102AC0007FF472AFD9F80010154A3E293FF76CAF7A
:102AD0004B1C19461148136024F00204FDF7B2FEA6
:102AE000012C7FF466AFD9F800100D4A00297FF75A
:102AF00060AF4B1E194609481360FDF7A3FE58E767
:102B0000B4170100E022FF1F5823FF1F7023FF1F8F
:102B1000FC22FF1F0C24FF1FDC1701000012FF1F07
:102B2000D023FF1F2DE9F04F93B007460AA8059167
:102B30001546FEF775FF744B0FCB0EAC84E80F0003
:102B40007248FDF7B1FC80467148FDF7ADFC824646
:102B50007048FDF7A9FC81466F48FDF7A5FC834648
:102B6000002D40F09780B8F1010F4FF0FF3818BFEB
:102B70004FF00008BAF1010F684E67D0BAF1030FA9
:102B800064D0B9F1010F664D53D0B9F1030F50D0A5
:102B9000BBF1010F00F0A48062493846FFF7B8FC92
:102BA000059B002B41D1DFF89491DFF894A16B785D
:102BB000AA785D4907A808F067FF33685B48002BD7
:102BC0000CBF4B46534607AA0AA9FFF751F90AA8BA
:102BD000FEF7DEFF81460AA8FEF7DCFF05460AA8DD
:102BE000FEF7D6FFC0F1800000EBD070002340104C
:102BF0000B220290019503920AA91A463846CDF895
:102C00000090FEF78BF84A4A35684A4B2146002D62
:102C100008BF134638461193FFF7F0FC0AA8FEF7E9
:102C2000E3FF404613B0BDE8F08FDFF81891CA46C5
:102C3000BDE73368D3B9AB78394A013BDBB2172B18
:102C40004BD89370BBF1010FA6D14CE03368002B39
:102C500037D0334D6B780133DBB23B2B46D8B9F11B
:102C6000010F6B7002D0B9F1030F91D16B782C4A30
:102C7000013BDBB23B2B3ED85370BBF1010F8BD134
:102C8000002327482B7002F047FF2B4B4FF0010821
:102C9000186081E7284A22491068204E02F024FE7D
:102CA000B8F1010F4FF000024FF0FF3818BF4FF09E
:102CB0000008BAF1010F326003D0BAF1030F7FF4BC
:102CC00060AF174DAB780133DBB2172B16D9002359
:102CD000B9F1010FAB707FF458AF1723AB70B1E7B8
:102CE0003368002BCCD10123336055E70023B9F1C1
:102CF000010F6B70B7D13B236B70BEE7B9F1010FC9
:102D0000AB707FF442AF96E7C4170100E022FF1FCB
:102D10005823FF1F7023FF1FFC22FF1F8C23FF1F60
:102D20009C24FF1F101801001C1801001423FF1F12
:102D300000180100081801007C24FF1FE81701009B
:102D4000F0170100F81701002DE9F04FADF6540D12
:102D5000044612A8FDF78CFF002C64D1A34CA44DAF
:102D60002B78A34E002B37D12368082B25D8DFE81A
:102D700013F003019A0180018B011E010900280153
:102D80007501F0009B4F9C4E39680022334600923B
:102D900012A8FFF7FBFC0446002842D001280CD102
:102DA0003B6832689B68954853F8221009F076F822
:102DB000224693499348FDF74FFC01242C700021D3
:102DC0009148FDF761FD12A98F48FDF74DFD2046A2
:102DD0000DF6540DBDE8F08F8C4FDFF810823A7875
:102DE0008B4900244346009412A8FFF7CFFC3C70A7
:102DF000B8B10130E3D0D8F80030347001223A7015
:102E0000082BDAD8DFE813F08701B001A60109002A
:102E1000CF01C401BA019C019201012112A8FFF760
:102E200095FD0124CBE77748754C724EDFF8C891C9
:102E3000FDF7AAFB05460FCD0FC40FCD0FC495E8D3
:102E40000F00356884E80F000023C9F800304DB149
:102E50006B68002B03DDA86808B104F049FB284625
:102E600004F044FBFFF754F96A4C8246206818B11D
:102E700004F03EFB002323600FFA8AF808EB4800B9
:102E800008EB800004F030FB01232060624A6349B4
:102E900002A800F053FD02A800F006FC034690B320
:102EA0000025C9F80050BAF1000F00F02F8101276A
:102EB0000CE0C9F80070BB460AA800F0C9FBDA456F
:102EC00007F1010705F10D0540F3F880012202A981
:102ED0000AA800F0B5FD0AA800F0E6FB03460028AA
:102EE00000F00F8121680AA82944FFF749F90AA8D0
:102EF00000F0CCFB21684148294408F065FE002819
:102F0000D7D0BB46D8E71C20C9F8003004F0EAFA55
:102F10000446042004F0E8FA414B424A346001219F
:102F20002360A0606160234602603F4D3F4A4048F5
:102F300040492E4CDD601A612D4D344A586199612B
:102F400002A80123002121602B70137000F080FB88
:102F500006E700220092384B384912A8FFF716FC0A
:102F600000283FF45EAF01287FF427AF01222449F7
:102F70002448FDF771FB20E7314B32491B680A9367
:102F80000A9BA1FB03310022C1F3401112A8FFF7F5
:102F9000C9FD00283FF445AF01287FF40EAF2A4C4D
:102FA000206802F09BFE206803F01EF905E700226E
:102FB0000092264B264912A8FFF7E8FB0028D2D141
:102FC0002FE70F4C234B0093002204F120032249EA
:102FD00012A8FFF7DBFB00283FF423AF0128C5D080
:102FE00094F820100848FDF737FCE6E6A824FF1FF8
:102FF000A324FF1FAC23FF1F3C24FF1F1C24FF1F23
:103000000C24FF1FCC11FF1F0012FF1FA424FF1F61
:103010009023FF1F4024FF1F88FE0000AC24FF1FE9
:10302000281801002CF60000341801003C1801009B
:1030300000180100081801003824FF1FD423FF1FC7
:103040006C27FF1FD34D62107C24FF1F1824FF1F25
:103050006024FF1F052500008024FF1F002200922E
:10306000564B574912A8FFF791FB00287FF47BAF1E
:10307000D7E600220092534B534912A8FFF786FB74
:1030800000287FF470AFCCE6002112A8FFF75EFCA9
:1030900000287FF4C6AE01224C494D480124FDF7BB
:1030A000DBFA2C708BE600220092484B494912A8AB
:1030B000FFF76CFB00287FF456AFB2E602A800F0E1
:1030C000E5FA1C2004F00EFA0AF101050746A800F3
:1030D00004F00AFA404A414B7D603A603760B860BC
:1030E0004FEA880503600021042201E09868043259
:1030F00023680B448350954201F10D013368F5D1EB
:1031000013E70AA8C9F8003000F0A2FA02A800F0FC
:10311000BDFA1C20FAE600F0EBF9314B01221860F1
:10312000002112A8FFF7FEFC012448E600230093CB
:103130002C492D4B012212A8FFF728FB01243EE663
:10314000002300931E491D4B012212A8FFF71EFB0E
:10315000012434E6002300931B491A4B012212A8D4
:10316000FFF714FB01242AE6002300931949174BAB
:10317000012212A8FFF70AFB012420E60023009396
:103180001A491B4B012212A8FFF700FB012416E687
:10319000184A194B11680022009212A80122FFF769
:1031A000F5FA01240BE6002300931449144B012285
:1031B00012A8FFF7EBFA012401E600BF3424FF1F39
:1031C000F023FF1F1024FF1F4424FF1F0C24FF1FA8
:1031D000CC11FF1FB023FF1F281801002CF60000A0
:1031E0007C24FF1FD423FF1F3824FF1F8024FF1FD0
:1031F0002C24FF1FAC23FF1F3C24FF1F6024FF1F54
:103200001824FF1F2DE9F84F242004F06DF9034620
:10321000814D824CDFF884829D618149814DDFF8C8
:1032200080B2DFF880A2DFF880921960DD617E480D
:103230007E4A7F4DDFF874C27E4F7F4EDFF870E22A
:10324000D86009215A61A36042466160C3F804B0A6
:103250007A49C3F808A0C3F810901D622046784B45
:10326000C4F800C0C4F818E06361E760266107F0A5
:1032700009FE082004F038F9724B734CC3F800B013
:1032800086464FF0020B6E49C3F808E0DF601E610E
:103290005961C3F804B09C6118466C4BCEF80030FD
:1032A0006B4BCEF8043042466A49654D07F0EAFDA3
:1032B0000C2004F019F903466748684A68491A6007
:1032C0004FF0030EC0F804E0DFF8E8E15960424631
:1032D000C3F808E083606349C0F800A0C7600661D6
:1032E0004561846107F0CEFD1C2004F0FDF85E4BC3
:1032F000DFF8C4C1DFF8C4E1C3F8009001465B48C1
:103300000860C1F804C0C1F808E0DFF8B4C1DFF814
:10331000B4E1574A574899604FF00709C1F814C003
:10332000C1F818E0C3F80490CA6008614246184624
:103330005149DF601E615D619C6107F0A3FD1C20A7
:1033400004F0D2F84D4ADFF880A1DFF880C1DFF841
:1033500080E1C2F8049003464949C3F800A0C3F8CD
:1033600004C02D48DFF86CC1DFF86C91DFF86CA168
:1033700093609960C3F80C90C3F810E0C3F814A0F0
:10338000C3F818C01060D7601661556194613D495B
:10339000DFF84CA1DFF84C911046424607F072FD71
:1033A000142004F0A1F8034637481E4ADFF838E13C
:1033B000DFF838C13549026005221960C3F804A05E
:1033C000C3F80890C3F810E083603149C3F80CC01B
:1033D00042604246C76006614561846107F052FD64
:1033E000082004F081F886462A4B184A184D0260DE
:1033F000CEF804500E4D1D60114DC3F804B0424686
:103400001846C3F808E0DF601E615D619C612249D7
:10341000BDE8F84F07F036BD6C1801009023FF1F80
:103420001018010078180100DC17010028180100AD
:1034300084180100341801003C180100ED2400003C
:1034400000180100B023FF1F0818010094180100A4
:1034500098180100D52400004424FF1F9C18010087
:10346000A4180100BD2400006024FF1FBC18010047
:10347000E0180100EC180100A52400008024FF1FC3
:103480001C1901008D240000F023FF1F44190100C6
:1034900075240000D423FF1F5D2400003007FF1FA8
:1034A0005018010054180100601801004418010070
:1034B0008C180100AC180100C8180100D4180100D4
:1034C000F818010004190100101901001419010075
:1034D0002C1901003C1901002419010034190100C4
:1034E0004C19010054190100681901005C19010010
:1034F00010B502F08FFB04460448FDF745F8036859
:10350000012B08BF04F56164204610BDCC11FF1FDC
:1035100010B582B002AB026803F8011D5468194669
:103520000122A04702B010BDC06938B18369C068EC
:1035300047F6FF72181A904228BF1046704700BF26
:10354000C36910B5044643B10020187192B2E06916
:1035500001F0C6FDE3691B791BB101232371002033
:1035600010BD10BDC06978B100B583B001220DF166
:10357000070101F065FB01280CBF9DF807004FF023
:10358000FF3003B05DF804FB4FF0FF30704700BF21
:10359000C369C3B110B582B00446012218460DF1CB
:1035A000070101F04DFB012803D04FF0FF3002B0BE
:1035B00010BDE0699DF80740C168013901F01EFCAB
:1035C000204602B010BD1846704700BFC06908B160
:1035D00001F046BC704700BF2DE9F04105464FF4AD
:1035E0007A731348AB60002328602B712B7324205F
:1035F0000C46904607F080FCE861B0B1064604F145
:10360000200E20686168A268E36837460FC710344F
:1036100074453E46F5D12068386041460C2205F1DC
:103620000D0008F01BFD00236B762846BDE8F081F5
:103630009C1901004FF47A720449826000220160F3
:1036400002710273C2614273704700BF9C1901008E
:10365000704700BF0D307047C06920B180790128E4
:1036600094BF002001207047C06918B108B501F06F
:10367000E7FA08BD704700BFC06930B108B501F076
:10368000BDFB003018BF012008BD7047C36953B1AE
:1036900010B50446184601F041FAE06907F034FC21
:1036A0000023E36110BD7047C06918B18079003014
:1036B00018BF0120704700BF30B58BB000240A4608
:1036C0000A4D8DF808400146012301A88DF80A40F3
:1036D000019501F0F9FCA04218BF012402D001A815
:1036E00001F01CFA20460BB030BD00BFC01901002C
:1036F000F0B50E68835D2F2B08BF0136841902F1E7
:10370000FF3E002523782F2B274604F1010408D023
:103710003BB101350C2D06F101060EF8013FF1D148
:103720008719002353553B782F2B04BF0136871987
:103730000E603878003018BF0120F0BD2DE9F04F41
:1037400099B08846264D069500218DF81C108346B9
:103750009246994644468DF81E108DF840108DF81B
:10376000421001910F9506AE05E001F0D7F9FDB1C9
:10377000234634461E4602AA01A95846FFF7B8FF61
:1037800080F00102D2B24B4602A905462046D0473E
:1037900021460746012302AA70B13046ADB101F0BF
:1037A00093FC444505462046DFD10DB10FACDFE761
:1037B000002019B0BDE8F08F4445F9D0204601F053
:1037C000ADF9384619B0BDE8F08F444506D0204623
:1037D00001F0A4F9012019B0BDE8F08F0120E8E75D
:1037E000C0190100FE2938B5054617D00A46012147
:1037F00000F07AFE03460BB9002038BD2C1D204690
:103800000122294601F07CFF98B1214605F12C00E8
:1038100001F0EEF9003018BF012038BD017000F052
:103820004FFA044600F03AFAB4FA84F35B09A87040
:10383000E1E702462946204601F062FF0028E4D174
:10384000002038BD2DE9F04F99B04FF00008DFF8A7
:10385000E8A08DF81C808146043106A893460193A8
:103860008DF81E808DF840808DF84280CDF818A02C
:10387000CDF83CA001F0BCF906AE5D460FAF2F219C
:10388000284608F027F9441BE4B2294608B32B78F0
:103890002F2B02A81BD00C2C28BF0C24224608F08A
:1038A000DDFB18AB2344384603F8588C01F036F999
:1038B000012302AA3146384601F006FC88B330469F
:1038C00001F02CF9334625443E461F46D7E7013523
:1038D000D5E7019831797279B379B468377DCBEB4C
:1038E00005050560F068356989F8041089F8052038
:1038F000B16989F80630F269336AC9F80C004846A4
:10390000C9F800A0C9F80840C9F8105089F8147027
:10391000C9F81810C9F81C20C9F8203019B0BDE842
:10392000F08F89F8040089F806004846C9F800A01D
:1039300019B0BDE8F08F00BFC0190100F0B59DB00F
:1039400005461F4601A86B461446FFF77BFF009A09
:10395000A35C1444002B42D09DF80A202F4E0A96F7
:1039600000238DF82C308DF82E30002A31D00AA893
:103970003B46224601A901F0A7FB50B301A801F084
:10398000CDF817F0060F43D19DF82C700C9B9DF8D5
:103990002DE0139622469DF82E408DF850708DF83C
:1039A000524015930D990E989DF83C70109E119CF5
:1039B000129B8DF851E01691179013A928468DF8A7
:1039C000607019961A941B93FFF706FE28461DB0E7
:1039D000F0BD2846FFF72EFE28461DB0F0BD9DF82D
:1039E00008700E4E9DF809409DF80A30039A8DF834
:1039F000507013968DF851408DF8523015920499FD
:103A000005989DF81870079E089C099B044AD2E708
:103A10000AA8109901F0F2F9B6E700BFC019010039
:103A2000B419010010B40C46002300F12C01034A24
:103A300020465DF8044BFFF781BE00BFB936000099
:103A4000F0B505469FB00C46164604A9E06901F0A2
:103A500093F9002845DD9DF81030002B41D0E52B6F
:103A6000F3D02E2BF1D09DF81B3003F0080303F0A8
:103A7000FF02002BE9D104A869461D4F8DF83420C0
:103A80008DF836200C9701F059F833466A46E16903
:103A90000CA801F019FB20B39DF835609DF8364065
:103AA0000E9B0F9910989DF834E015978DF859608A
:103AB0009DF84470129E8DF85A401793139C149BE6
:103AC000189119906A4615A928468DF858E08DF886
:103AD00068701B961C941D93FFF77EFD28461FB04F
:103AE000F0BD2846FFF7A6FD28461FB0F0BD00BF79
:103AF000C019010010B50446FFF7AEFD18B1E36927
:103B000000229A60DA6010BD064B074ADA62022191
:103B1000002259609A7083F8242083F8302083F8BB
:103B200032207047AC24FF1FC019010010B4114CA3
:103B3000114B226811491340184322F0080240F447
:103B40006020226020600B681C0706D40C4B01E04B
:103B5000013B02D00A681207FAD5064B094A5DF804
:103B6000044B40F008001860136843F4801313609E
:103B7000704700BF2C100B400700F0FF24100B40D3
:103B8000FFFF0F0030100B402149224A0B6843F021
:103B900080030B6011461368DB07FCD40B689B079E
:103BA000F9D41D4B30B44FF08072194D186000E00D
:103BB000A2B12968194B164C0B40013A002BF7D0E3
:103BC00062B1012B0AD1236813F0800F23680FD054
:103BD00043F001132360032030BC70470C4A136884
:103BE00043F4702343F001031360012030BC70479D
:103BF00013F4803305D0236843F0011323600520BC
:103C0000F4E7226842F0010218462260EEE700BFA6
:103C100030100B4024100B400C100B4001000E0024
:103C200070B50D4D0D480E4E00232B60FFF7ACFF15
:103C30006324034606E04BB92B60FFF7A5FF013C68
:103C4000034605D0326805485207F4D4184670BDC3
:103C5000002808BF052070BD08100B400000DB0CD9
:103C600024100B4070B5094C00230546236008481A
:103C7000FFF78AFF00B170BD064E07483368256024
:103C8000FFF782FF0028F6D1336870BD08100B40A3
:103C900000001A3710100B4000000229074B1A7859
:103CA0004AB99A782AB15B78002B0CBF0220032016
:103CB0007047012070470020704700BF0025FF1F9C
:103CC0002DE9F047664D674E2B68674F6749684C92
:103CD0006848694ADFF8C4E143F400332B60336875
:103CE00043F4005333603B6843F002033B600B68CE
:103CF00043F002030B60236805F59F4506F59F46D8
:103D000007F59F4701F5D12123F00103236001F25C
:103D1000EC7100235835543654370360574813600C
:103D20002B600A4633603B60CEF8003008601368B1
:103D300013F08073FBD1524C524A534853492360CD
:103D40004FF481354FF01013282405600C604FF4B8
:103D500087501360FFF7EAFE4D4A13689C07FCD1B9
:103D6000454EDFF810E14B4C4B4A4C494C4F4D4D02
:103D70004D4840F24343CEF8003033604FF488663C
:103D8000266013604FF6FF76484C3B6002F5C82270
:103D90000B6020322E604FF4FA710460136843F018
:103DA0000063136013681801FCD40139F6D13D4A51
:103DB0003748136843F0800313600368DA0308D4BC
:103DC0003B4B022059709970187059609960BDE89A
:103DD000F087374C374E21706170A1700846316012
:103DE0006160A160FFF7D0FE68B9334D33482B689E
:103DF0004FF4D5733360FFF7C7FE40B92B682B68CB
:103E0000B3F5D57F29D001202070BDE8F0870528C3
:103E1000F9D10020FFF726FF0028F4D1264B1A68BD
:103E200012F4401F58D06278254FDFF89880002A9E
:103E300005461E4608BF4FF4401704E03268002ACA
:103E400042DB454546D03846FFF70CFF01351A4B9B
:103E50000028F3D00120BDE8F08701236370D8E784
:103E600030800440388004403C800440408004405E
:103E700000D0004000D0044004D004400080000185
:103E8000C0100B4044100B4004100B4028100B4096
:103E900024100B4008D004400CD0044014D004403F
:103EA00010D0044030100B4034100B40BB007F1189
:103EB0000025FF1F08100B4010100B4000001A08CF
:103EC00000003040A0860100544A954202D01B6891
:103ED0005B0001D400236370514E524800233360CD
:103EE000FFF752FE034600288DD14F4D4F482A68F8
:103EF0003360FFF749FE002885D12B682B684C48BA
:103F00004C4D1B0C1B0433606360FFF73DFE002823
:103F10007FF479AF484B49491A68120EEA700A6873
:103F200012F4400F6FD1196845481B680268006899
:103F30009B0203F4406343EA9253C0F3C2105A1C3D
:103F4000C1F30321831C093902FA03F38B40AB60F0
:103F5000334E636833603B48364FFFF715FE002849
:103F60007FF451AF304D38482B684FF40073336005
:103F7000FFF70AFE00287FF446AF7B682A683348C3
:103F80003360FFF701FE00287FF43DAF02232A686B
:103F90002F483360FFF7F8FD00287FF434AF2D4B36
:103FA0002A681A68DFF8B4A0DFF8B490DFF8B480AC
:103FB000294C22F006021A601A68A6F5C726A6F256
:103FC000FC76A5F5C82542F002021A60CAF8000086
:103FD000C9F80000C8F800003060286020604FF485
:103FE0009870FFF7A3FD40F243434FF48862CAF88C
:103FF0000030C9F80030C8F8002033602B6023601F
:104000003878BDE8F08701220D4BAA701B68C3F316
:10401000152313449B02AB609AE700BFA086010002
:1040200008100B400000090210100B4000001A039A
:10403000000009090025FF1F18100B401C100B4041
:1040400014100B4000001B0700001A1000001A3764
:1040500000001A0628100B4014D0044000D0044081
:1040600004D0044008D00440F8B5384B1A780AB19F
:104070000320F8BD5B78064603B94902344D354C40
:10408000354B36484FF6FF774FF481322F60216071
:104090001A60FFF779FD0028EBD1314B31491B68DD
:1040A0001C3406F1400206F510702B68284F43F0CF
:1040B000200613F4E00F2E603ED123681E05FCD5C8
:1040C0000B6842F8403C0B6842F83C3C0B6842F8F5
:1040D000383C0B6842F8343C0B6842F8303C0B68C3
:1040E00042F82C3C0B6842F8283C0B6842F8243C10
:1040F0000B6842F8203C0B6842F81C3C0B6842F805
:10410000183C0B6842F8143C0B6842F8103C0B68F2
:1041100042F80C3C0B6842F8083C0B6842F8043C3F
:1041200040328242C1D1002009490B68084A9B07EE
:10413000FBD50D4B1360F8BD43F4E00343F02003BF
:104140003B60FFF76DFD0120EEE700BF0025FF1F7C
:1041500030100B4008100B4004100B4010003A11B7
:1041600010100B4020100B4022000001F8B52B4B23
:104170001A780AB10320F8BD5B78044603B94902F6
:10418000274D284E284B29484FF6FF774FF48132B0
:104190002F6031601A60FFF7F7FC0028EBD1244B49
:1041A00024491B682E4604F500772B681C4AD80664
:1041B000FBD5336813F4E00F1AD104F1400254F830
:1041C000043B0B60A242FAD12B68DFF854E043F0C5
:1041D00010032B602B6813F4E00013D19742E4D155
:1041E0000F490B680E4A9B07FBD5134B1360F8BDB4
:1041F000136843F4E00343F010031360FFF710FD6E
:104200000120EDE7DEF8003043F4E00343F0100353
:10421000CEF80030FFF704FD0120E1E70025FF1F85
:1042200030100B4008100B4004100B4000003A18EF
:1042300010100B4020100B401200000105281DD863
:10424000DFE800F003030D1217080F4B0F4A1A6046
:1042500001F0D8BA0C4B0E4A1A6001F0D3BA0A4BDF
:104260000C4A1A6001F0CEBA074B0B4A1A6001F0F3
:10427000C9BA054B094A1A6001F0C4BA024B084A90
:104280001A6001F0BFBA00BF1025FF1F000001B87F
:1042900004300038011000380320003801000238D3
:1042A0000650013808B50121007801F0E3FF114BF9
:1042B0001A7802B908BD104A127800211970002A34
:1042C000F8D0D30703D50D490D4B09681960900745
:1042D00003D50A490B4B49681960510703D50749B3
:1042E000094B896819601307E4D5044A074BD26863
:1042F0001A6008BD1425FF1F4827FF1F3827FF1F1E
:1043000000E100E004E100E008E100E00CE100E091
:10431000254B1A781AB10078002101F0ABBF70B4B8
:104320002249234A0C78126801251D70002C2AD0DE
:1043300072B60B78DD0707D51E4C1F492668096841
:104340001E4D3140296021609C0707D51C4C1A493D
:1043500026684968194D314021606960590707D5C1
:10436000184C154926688968144D31402160A960B0
:104370001B0707D51449104B0D68DB680F4C2B4009
:104380000B60E36062B6114BD968914207D0104CC4
:104390001C601049DA6042F080441C6119600078AA
:1043A000002170BC01F066BF1425FF1F4827FF1FC6
:1043B0001025FF1F80E100E02827FF1F3827FF1F7F
:1043C00084E100E088E100E08CE100E000C0024010
:1043D00001401F0000001F80F0B4134C134A2368F3
:1043E00082B01746009300984FF0004680B2FF2538
:1043F000136843F480631360D6625563D36A002B5D
:10440000FCDABB6BDBB2FF2B0AD023680193019B64
:104410009BB21B1A8B42EBDB002002B0F0BC704752
:10442000012002B0F0BC70476C27FF1F00C00240A3
:10443000F8B50D464FF4967116460446FFF7CCFFCB
:10444000284B1A684FF0004042F4806245F040016A
:104450001A60D8621A465963D36A002BFCDA2149E4
:1044600018204FF000470A6826FA00F342F48062F1
:10447000DBB20A60CF624B63CB6A002BFCDA0838F0
:1044800010F1080FEFD155B3082D0CBF8721FF2184
:10449000144B1A684FF0004042F480621A60D862F0
:1044A0001A465963D36A002BFCDA0E4A00271646D7
:1044B0004FF00045FF21136843F480631360D56219
:1044C0005163D36A002BFCDAB36BD8B21B06607061
:1044D00000D4F8BD0137B7F5807FECD1F8BD952148
:1044E000D6E700BF00C002402DE9F04300239E4FF5
:1044F000027085B083703B6801930546884610467C
:104500000121019E01F0B6FE2878012101F0C6FECE
:104510002878012101F0AEFE944A136843F48053D9
:1045200013600620FFF78AFE914B924A93F800E051
:104530001268B6B2BEF1000F31D072B61978C80752
:104540000BD58D4C8D48D4F800C00068DFF844E2EC
:104550000CEA0000CEF8000020608C070BD5884CD8
:104560008648D4F800C04068DFF828E20CEA000072
:104570002060CEF8040048070BD5824C7F48D4F861
:1045800000C08068DFF80CE20CEA00002060CEF882
:104590000800090700F1A68062B693F800E07A4BA4
:1045A000D968914207D0794818607949DA6042F0B9
:1045B000804018611960744A0A244FF00040FF21BE
:1045C000136843F480631360D0625163D36A002B95
:1045D000FCDA013C14F0FF04F2D1BEF1000F1BD055
:1045E0001EF0010F03D06B4A6B4B12681A601EF06D
:1045F000020F03D0674A694B52681A601EF0040F1D
:1046000003D0644A664B92681A601EF0080F03D00C
:10461000604A644BD2681A602846FFF779FE07E0CB
:104620003B680293029B9B1B9BB2B3F5FA6F52D877
:10463000002211462846FFF7FBFE012881466870DC
:10464000EED14FF4D57208212846FFF7F1FE43075B
:1046500027D585F802904FF0000907E03B680393E7
:10466000039B9B1B9BB2B3F5FA6F34D80022372112
:104670002846FFF7DDFE4A4629212846FFF7D8FEE7
:1046800068700028EAD1AB78022B3BD02846FFF7B0
:1046900009FE4046FFF7D2FD0124204605B0BDE8E3
:1046A000F083394A042194464FF0004EFF201368EE
:1046B00043F480631360C2F82CE05063D36A002B8C
:1046C000FCDADCF838300139DBB211F0FF016B7035
:1046D000EDD1AA2B11D02846FFF7E4FD204605B006
:1046E000BDE8F08330482549D0F800E0C968294C7E
:1046F0000EEA01010160E1604EE70223AB704FF06A
:104700008049B3E702463A212846FFF791FE002888
:10471000E1D11D4B1A684FF0004442F48062FF2043
:104720001A601946DC625863CB6A174A002BFBDA21
:10473000936B154A03F0C003C02B04BF0323AB7077
:10474000032116464FF00044FF20136843F48063B2
:104750001360D4625063D36A002BFCDA013911F084
:10476000FF01B36BF1D191E76C27FF1F3C80044040
:104770004827FF1F1025FF1F80E100E02827FF1FAB
:1047800084E100E088E100E000C0024001401F0039
:1047900000001F803827FF1F00E100E004E100E077
:1047A00008E100E00CE100E08CE100E0F0B4164C20
:1047B000164A236882B01746009300994FF00046CE
:1047C00089B2FF25136843F480631360D662556392
:1047D000D36A002BFCDABB6BDBB2FF2B43700BD12F
:1047E00023680193019B9BB25B1AB3F5967FE9DDC9
:1047F000002002B0F0BC7047A3F1FE00B0FA80F0D8
:10480000400902B0F0BC70476C27FF1F00C0024097
:10481000F8B58378032B0E46044618BF4E021546A2
:10482000FFF776FD324611212046FFF701FE18B949
:104830002046FFF7BBFF20B92046FFF733FD0020DD
:10484000F8BD204B2049214A1A608E4659631A460A
:1048500059631E46596305F5FD70A91C05F5FE77E1
:10486000D36A13F0F00FFBD0C6F834E0B36B01F855
:10487000013C1B1201F8023C02318F42F0D105F5D8
:104880000075A8420DD20F4A1646D36A13F0F00FF6
:10489000FBD0B36B191200F8021BA84200F8013CD0
:1048A000F3D3084B0949084A196019465A63CB6A81
:1048B000044A13F0F00FFAD02046936BFFF7F2FC96
:1048C0000120F8BD00C00240FFFF009000041F80DF
:1048D000F0B4314E33684FF0004743F480633360E7
:1048E0003D46F762344671633346511C02F201279C
:1048F000E26A002AFCDA1A6811F8016C42F480625C
:104900001A60DD625E63E26A002AFCDA1A6811F856
:10491000026B42F480628F421A60DD625E63E7D10F
:104920001D49CA6A1C4B002AFBDA1A684FF0004581
:1049300042F48062FF241A601946DD625C63CB6A30
:10494000154A002BFBDA13684FF0004543F48063EF
:10495000FF2413601146D5625463CB6A0E4A002BC4
:10496000FBDA13684FF0004543F48063FF241360C3
:104970001146D5625463CB6A074A002BFBDA936B6E
:10498000DBB203F01F024370A2F10500B0FA80F021
:104990004009F0BC704700BF00C0024070B504463B
:1049A00071B18378032B0D4618BF4D021646FFF7F1
:1049B000AFFC2A4618212046FFF73AFD054620B1F4
:1049C0002046FFF76FFC002070BD3246FE212046D6
:1049D000FFF77EFF0028F3D04FF416712046FFF753
:1049E000FBFC0028ECD02A460D212046FFF720FDD5
:1049F0000028E5D10B4B1A684FF0004542F4806265
:104A0000FF201A601946DD625863CB6A054A002B05
:104A1000FBDA936B13F0FF0FD2D12046FFF742FC75
:104A2000012070BD00C00240014B024A1A6070476D
:104A30001025FF1F0320003838B590F90530002BF2
:104A400003DBBDE8384000F06FBC0446012100697B
:104A500000F0AAFCF8B1257D104B13EB45151AD0D8
:104A6000A3790F4A012B9CBFA369EB61E36912682C
:104A70006B831B0CAB8232B105F1160105F11800F6
:104A800090472B8B6B82637903F07F036371BDE8E2
:104A9000384000F049BC002038BD00BF2425FF1F6E
:104AA0001825FF1F10B500F1080204460121006A15
:104AB00000F06EFD50B1E3693BB96379A268E26131
:104AC00063F07F036371012010BD012010BD00BFA2
:104AD00070B50646FFF7E6FF98B1326AB568117CFB
:104AE00053691479023D8D40013B74B11D4402E0CD
:104AF00014F0FF0407D0601900F0C6FC013C002848
:104B0000F6D1002070BD336A197CB0694FF4007291
:104B100002FA01F30344B361012070BD82790AB93E
:104B20000020704710B50446FFF786FF18B1002338
:104B3000A371012010BD002010BD00BF002270B481
:104B4000013814462E2610F8013F202B04D0082AE5
:104B500009D0651C0B55ECB201320B2AF3D10023AE
:104B60000B5570BC70470E550134E4B20378F0E782
:104B700070B44B1E01F10A04202203F8012FA34256
:104B8000FBD101380025072610F8014F2CB32E2C3D
:104B90001ED0164A01E09C4217D012F8013B002BB0
:104BA000F9D1AE421FD3A4F121025D2A1BD8A4F192
:104BB0006102192A05F1010398BF203C0D44DBB2C4
:104BC00098BFE4B22C701D46DEE7002070BC704731
:104BD0000A2EFAD008250A26D6E70B78B3F1200072
:104BE00018BF0120F2E71846F0E700BFC81901001E
:104BF00038B583793BB991F82020102A0D46044638
:104C000003D0202A10D0002038BD022282714A8CA5
:104C1000C361530183610023012060712375256204
:104C2000A360E360236138BD03238371496AC161D6
:104C300000F11802284600F07BFC0028EBD1E2E7E7
:104C40002DE9F04F8B4683B08179019219B14379F8
:104C5000DA07064604D44FF0FF3003B0BDE8F08F0A
:104C60008369C26801989B1A984277D8019B002BF0
:104C700077D002291D46DFF8F8903C4FDFF8F4802A
:104C8000C2F3080A45D0306A0479013C04EA522490
:104C9000E4B2BAF1000F58D1002C56D1002A4CD101
:104CA000F269B260416990F810E0023A02FA0EF03F
:104CB0000C440119CAF500747279A542CCBFA4B2A4
:104CC0002C4653062AD4B4F5007F27D0084600218D
:104CD00000F06AFB0028BED00AEB090E0EEB0400C0
:104CE00086450BD00BF1FF32734613F8011B02F817
:104CF000011F9842F9D1CEEB00008344F2682D1BCE
:104D00002244ADB2F26065B3B1790229C2F3080A58
:104D1000B9D1316A496A01EB5221CBE73A68914235
:104D2000D4D0D8F800000378FE2B10D05A46FFF7F5
:104D30006FFD00288FD0A344E0E706F10802B168B8
:104D400000F0BEFB002886D0306AB268AAE7584659
:104D5000FFF78AF9B0FA80F04009EAE79BB20193C5
:104D600084E7BDF9040003B0BDE8F08F3807FF1FEA
:104D70002425FF1F2025FF1F38B58379012B16D965
:104D8000C368DA060C46054611D120222146284682
:104D9000FFF756FF40B220280CD1237863B1E52BF2
:104DA000F3D02E2BF1D0E37A1B07EED438BD4FF0B1
:104DB000FF3038BDC01738BD184638BD8379012B88
:104DC00017D930B5C36883B001220DF1070104463D
:104DD000C3F34315FFF734FF012802D0002003B0CE
:104DE00030BDE36804481F3300EB4510E36003B0B7
:104DF00030BD0020704700BF2425FF1FF8B5837920
:104E000013B182698A4201D20020F8BD022B0F46FD
:104E100005461AD007B32B6AE9681C7C4A1E04F1C8
:104E200009037C1EDA40DC40A24211D9EB69AB6079
:104E300005F1080606E0A968286A00F041FB013C7C
:104E40000028E1D03246002CF5D1EF600120F8BDFA
:104E50000029EBD0A41AEBE7AF60EF600120F8BDAA
:104E600083790BB1FFF7E8BD184670478379012BB2
:104E700001D000207047F0B54579AC0783B00246F9
:104E80001CD585698D420C4618D3D5B12546D66808
:104E90001446FFF7B3FF88B1B5B9E169206A00F0A5
:104EA00001FC58B1E56122E000F0FCFB30B16FF08D
:104EB0007042A168206A00F0E3FBC0B9002003B093
:104EC000F0BD184603B0F0BD01AAA168206A00F049
:104ED000F7FA0028F2D0206A0F4B90F82070019961
:104EE0004FF6F872102F08BF13469942DCD363794E
:104EF000A279A56163F07F036371002ADED02046AA
:104F0000FFF79AFD0028D9D0B5422946204628BF90
:104F10003146FFF773FFD2E7F8FFFF0F70B51D4B67
:104F200003EB4116F37A13F0110F02D012F0420F87
:104F30001ED1194B01751B680361738BB18A43EA5B
:104F40000141C161F37A13F01803154604460DD1EF
:104F5000F36983610123837105F00F0300216371FD
:104F60006B06A160E1600FD4012070BD102B01D051
:104F7000002070BD00F11802006A00F0D9FA002884
:104F8000F6D00423A371E7E72046BDE87040FFF7A1
:104F90006DBF00BF2425FF1F3807FF1F2DE9F04715
:104FA00084B001AF06460C46104639469946FFF7D5
:104FB000DFFD78B30022216A316213461546A260F4
:104FC000E260DFF8008108E0E52B1CD001460B22EF
:104FD000384606F06FFA88B3E368A2699A421DD991
:104FE0002046C3F3431AFFF7E9FE98B10378002B7C
:104FF000EAD15DB9D8F8003086F814A0336103789F
:1050000023B10125E8E7002DFBD1F3E709F01203F6
:10501000122B1DD0002004B0BDE8F08709F0120368
:10502000122BF7D1A5B9A379022BF3D02046FFF7B5
:105030004FFD0028EED0214C357514E009F0300307
:10504000302BE7D04A4651463046FFF767FFE2E78C
:105050000121306900F0A8F90028DBD0347D174B1E
:1050600013EB4414D6D020220021204606F0B8FAD3
:1050700097E80700234603C3114923F8022B0D6864
:10508000120C1A709DB104F10E0104F11000A84732
:10509000238AE28963822383E28200F045F90028B3
:1050A000B8D04A46317D3046FFF738FFB3E742F6C5
:1050B00021034FF400622382E281EBE72425FF1FE6
:1050C0001825FF1F3807FF1F10B484791CB100207A
:1050D0005DF8044B70475DF8044BFFF75FBF00BFFE
:1050E0002DE9F04F8B46817985B0012980460192E8
:1050F00006D0012388F80430002005B0BDE8F08F09
:1051000042799107F5D553070AD5D8F80C40D8F85D
:1051100018108C4200F0CF80FFF770FE0028E8D016
:10512000019BD8F80C40002B4ED0DFF8DC91DFF863
:10513000DCA1019FD8F820000579013D05EA54253E
:1051400015F0FF05C4F308044BD1002C49D1D8F861
:105150000810002940F08980D8F81C20002A00F0AF
:105160009880C8F80820C4F50076B6B2BE423FD891
:1051700090F810E04169023A02FA0EF20D44B6F5D9
:10518000007F15443BD1DAF80020954204BF4FF070
:10519000FF32CAF80020584A10680278FE2A2946D1
:1051A00000F082805A46FFF7F9FB0028A1D00BF5EA
:1051B000007B4FF40074D8F80C20BF1B1444BFB21E
:1051C000C8F80C40002FB5D1D8F81830A34277D2D8
:1051D00098F80520C8F8184042F0800288F80520A9
:1051E00079E0C4F50076B6B2BE42D8F80820BFD93F
:1051F000067C4169023AB2400D4415443E462CB942
:10520000D8F80C10D8F8182091421BD2284601215A
:1052100000F0CAF800283FF46CAF4C4404EB060ED3
:10522000744520D00BF1FF31621E0EF1FF3511F8ED
:10523000010F02F8010F9542F9D1C4EB0E0EF344B1
:105240003446B8E700F070F800283FF452AF2B491D
:10525000CAF800500A784C4404EB060E42F00102F2
:1052600074450A70DED13446A5E703AA00F028F998
:1052700000283FF442AFD8F82000214B90F820607E
:10528000039A4FF6F871102E18BF19468A42FFF4A0
:1052900068AF4046FFF706FC00283FF42AAFD8F875
:1052A0002000D8F808205EE75846FEF75FFFB0FA06
:1052B00080F0400979E7019B002B7FF436AF0AE0CC
:1052C000104B98F805201B682BB1019B1BB142F0D5
:1052D000800288F8052012070AD598F80630002BBE
:1052E0003FF407AF4046FFF7A7FB00283FF401AFAC
:1052F000019805B0BDE8F08F2025FF1F2427FF1F70
:10530000F8FFFF0F1825FF1F2425FF1F3807FF1F79
:1053100000B583B002AB012203F8011D1946FFF767
:10532000DFFE03B05DF804FB70B51A4C23780BB9AF
:10533000012070BD184D194B286819680378FE2BA1
:1053400017D0174AFFF72AFB88B1164E316819B9F2
:1053500000232370012070BD28680378FE2B0FD036
:105360000F4AFFF71BFB10B100233360F0E700206A
:1053700070BD0B48FEF7FAFEB0FA80F04009E3E793
:105380000748FEF7F3FEB0FA80F040090028EBD1A1
:10539000EDE700BF2427FF1F2025FF1F3807FF1F51
:1053A0002425FF1F1C25FF1F70B5124D2B6883425B
:1053B0000E4611D00446FFF7B7FF08B9002070BDB4
:1053C0000D4B18680378FE2B0CD00C4A2146FFF7D2
:1053D0001FFA0028F2D02C60094B1978314319705C
:1053E000012070BD21460548FEF73EFEB0FA80F070
:1053F0004009EEE73807FF1F2025FF1F2425FF1F68
:105400002427FF1FF8B590F82030C469102B1A4BE1
:1054100005460E4617461B6816D004EBD1149C4275
:1054200016D106F07F06154A42F826701449287EE8
:105430000A78012842F001020A7018D9A968114AB5
:105440000B4413600120F8BD04EB11249C4208D0EA
:1054500000212046FFF7A8FF50B195F82030102B0F
:1054600007D1F6B2054A234622F81670DEE701207E
:10547000F8BD2346D5E700BF3807FF1F2425FF1FCF
:105480002427FF1F1C25FF1F10B50446FFF74CFF04
:1054900078B1084B002103F5007203F8011F934215
:1054A000FBD1054A054913780C6043F001031370E2
:1054B000012010BD2325FF1F2427FF1F3807FF1FD2
:1054C000C36801338B4218D370B590F82030102B8D
:1054D000154B044616460D46C0691B680FD000EBFD
:1054E000D11098420FD105F07F01104B53F82130B5
:1054F00023F070433360012070BD0020704700EB43
:105500001120984207D00021FFF74EFF50B194F8C8
:105510002030102BE7D1E9B2044B33F8113033605F
:10552000012070BD002070BD3807FF1F2425FF1F1C
:105530002DE9F04782B002ADDFF8508045F8041D38
:10554000044691464FF0000A4FF400774FF6F87684
:105550000CE094F82030227C0199102B14BF4346B4
:10556000334607FA02F29942924408D22A4620466C
:10557000FFF7A6FF0028ECD102B0BDE8F0870120BC
:10558000C9F800A002B0BDE8F08700BFF8FFFF0F28
:105590002DE9F04F176883B06FB301374FF0000A61
:1055A000C36803F1010813B38B46064691463C4697
:1055B000002505E01C461F46F3680135AB4216D9AD
:1055C000A04538BF0224214601AA304638BF2746ED
:1055D000FFF776FF631CD91B48B1019A002AE9D175
:1055E0008B4510D01C46F3680135AB42E8D800204B
:1055F00003B0BDE8F08FA1F1010ABAFA8AFA076890
:105600004FEA5A1ACCE7012CF1D9F36801339C42D6
:10561000EDD86FF0704221463046FFF7F3FE0028C8
:10562000E5D0A74214D2013C012CE0D9F368013344
:105630009C42DCD8621C21463046FFF7E3FE00287E
:10564000D5D0A74204F1FF3402D0012CEED1CEE731
:10565000D9F8001059B10129C9D9F3680133994229
:10566000C5D83A463046FFF7CDFE0028BFD0C9F86E
:105670000070BAF1000F01D0013737600120B7E7A1
:1056800001290CD9C3680133994210B403D85DF8DD
:10569000044BFFF7B7BE00205DF8044B70470020B5
:1056A000704700BFF0B5022383B00546134F036077
:1056B0000C464FF6F8760FE0EB6801339C4216D8A3
:1056C000FFF7A0FE98B195F82030019C102B0CBF7D
:1056D00033463B469C420DD201AA21462846FFF79D
:1056E000EFFE2146002210B1012C2846E4D800200C
:1056F00003B0F0BD012003B0F0BD00BFF8FFFF0F05
:10570000F8B53E4B054619601446DAB1042A01D9B2
:105710000020F8BD00210846FFF746FE0028F7D01C
:10572000374B03EB041292F8AE215206F0D11B3432
:1057300003EB0414D4F80A30632BE9D9D4F80640FB
:10574000002CE5D000212046FFF72EFE0028DFD0F8
:105750002B4AB2F80B30B3F5007FD9D1117C002968
:10576000D6D0D389002BD3D0567B002ED0D00023A7
:1057700029762E712B74012703E009290B46297421
:10578000C6D007FA03F0B04203F10101F5D1D68A81
:105790001B4906B94E6AB2F80EE0AE60A644C5F8E1
:1057A0001CE0B2F81110177C6984480106FB07E67B
:1057B00000F2FF1006EB60206E626861B2F8131011
:1057C0000F4E01B9316A241A0C4424FA03F340F64F
:1057D000F4718B42EB600BD94FF6F4718B4285BFAD
:1057E000D36A6B621023202385F820300120F8BD96
:1057F0000C2385F820300120F8BD00BF2025FF1FB5
:105800002425FF1F2849294B0A682948F0B442F48F
:105810008052284F284E294D294C0A601F60DE60B7
:105820001D611C60037813F003022DD0012A17D0EC
:10583000244A4FF40071116013F00C0217D0042AAF
:1058400027D1214A4FF40071116013F0300315D0B5
:10585000102B23D11D4B4FF400721A60F0BC70471F
:105860001B4A4FF40071116013F00C02E7D1194A82
:105870004FF4007113F030031160E9D1164B4FF46F
:1058800010721A60F0BC7047144A4FF41071116026
:10589000D2E7134A4FF400711160D6E7114B4FF471
:1058A00000721A60F0BC70473C80044000C00240A7
:1058B0007028FF1F01401F00011000380110007800
:1058C00000001F80409004400CC0044004C004400D
:1058D00008C004401CB0044014B0044018B0044098
:1058E000449004403C900440664A674B2DE9F04FD9
:1058F000664EDFF8A8A1664CDFF89881A2FB005243
:10590000170C07F1040EA3FB0025A6FB00626D092E
:10591000AEFB0AABD20AA3FB0563A4FB0264CBEB8C
:105920000E060BEB56065B09B6082409C6EBC60645
:10593000C3EB0313A5EB830304EB4404C5EB05158C
:10594000C6EB0E06A0EB8500A2EBC40201360025D3
:105950008A7008704B70CE702A4640F26D1A4FF074
:10596000640C4FF4C8790EE0CBEBE01009FB10306B
:1059700084BB002814BF50464FF4B77002449742CE
:1059800005F1010514D3EEB206F2B27388FB0340B1
:105990004FEAE37BCBEB601413F0030E0CFB1434E3
:1059A000E2D040F26D100244974205F10105EAD2BF
:1059B0008E71BEF1000F10D136484FEAE37B80FBB9
:1059C0000340CBEB6014642505FB143484B34FF41F
:1059D000B77506E04FF4B770D0E740F26D154FEAA7
:1059E000E37B2C4C2C4884FB0364CBEB641C521BE4
:1059F000CBEBE41B64254FF4C87404FB1B3B05FB95
:105A00001C3CBA1A0124002302E00134E4B2013341
:105A1000012BDEB220D01D5C954216D80C2CA2EBD7
:105A20000502F2D10D2601320A714E71BDE8F08FE8
:105A3000CBEBE0104FF4C87404FB1030002840F2A8
:105A40006D1508BF4FF4B775CBE70136F6B20132DA
:105A50000A714E71BDE8F08FBEF1000F0BD1BCF1A1
:105A6000000F0AD1BBF1000F14BF1C251D25AA424F
:105A700005D3521BC9E71C25F9E71D25F7E70226C8
:105A8000D1E700BF07452EC289888888C5B3A29197
:105A9000ABAAAAAA1F85EB51D81901002549922467
:105AA00010B503490446FFF71FFF024B1C6010BDF1
:105AB0005027FF1F4C27FF1F08B5044B1B68984257
:105AC00001D0FFF7EDFF024B987808BD4C27FF1F70
:105AD0005027FF1F08B5074B1B68984201D0FFF7FE
