:1000000000000320D1010000F1680000B568000085
:10001000B5680000B5680000B5680000B56800006C
:10002000B5680000B5680000B5680000F168000020
:10003000F1680000B5680000F1680000A5680000E4
:10004000F1680000F1680000F1680000F16800004C
:10005000F1680000F1680000F1680000F16800003C
:10006000F1680000F1680000F1680000F16800002C
:10007000F1680000F1680000F1680000F16800001C
:10008000F1680000F1680000F1680000F16800000C
:10009000F1680000F1680000F1680000F1680000FC
:1000A000F1680000F1680000F1680000F1680000EC
:1000B000F1680000F1680000F16800003D84000074
:1000C000F1680000C18B0000F16800004991000058
:1000D000F168000075970000F1680000F168000009
:1000E000F1680000F1680000F1680000F1680000AC
:1000F000F1680000F1680000F1680000F16800009C
:10010000517A0000697A0000817A0000997A000033
:10011000F1680000B56E0000F1680000F1680000B1
:10012000F1680000F1680000F1680000F16800006B
:10013000F1680000F1680000F1680000F16800005B
:10014000F1680000F1680000C59C0000F168000043
:10015000F1680000F1680000F1680000F16800003B
:10016000F1680000F1680000F1680000F16800002B
:10017000F1680000F1680000F1680000F16800001B
:10018000F1680000F1680000F1680000F16800000B
:10019000F1680000F168000025A30000F16800008C
:1001A000F1680000F1680000F1680000F1680000EB
:1001B000F1680000F1680000F1680000F1680000DB
:1001C000F1680000F1680000F1680000F1680000CB
:1001D0005C4B4CF2205210B51A804DF628121A8052
:1001E00000BF00BF06F088FB574B4FF030621A602B
:1001F000564A9A60564ADA60564B4FF470021A60BB
:10020000554B564A1A60564B1A6812F4807204D144
:1002100054490A604FF4A8521A60534B1A781107D8
:1002200003D51A7842F008021A70504B504C5148CE
:10023000AA221A70504A00239918A14203D21958D1
:1002400099500433F8E74D4B4D4900228B4202D2BE
:1002500043F8042BFAE74B484B4900235A581A50ED
:100260000433B3F5E87FF9D1484B494A802103F8BC
:10027000011B9342FBD1474B424A1A60464B8A22EC
:100280001A70A3F5805324225A70A0221A709A790A
:100290009207FCD59A79D406FCD4404B9A7902F0A7
:1002A0000C02082AFAD13E4B60221A7002331A78E7
:1002B000802AFCD1394B00221A7145225A719A7951
:1002C0009006FCD59979354A4906FBD5354B364918
:1002D00019600D21596020231370937903F00C03EA
:1002E0000C2BFAD1314B324A1A60324B324A1A6027
:1002F00000225A60072243F8042C304AC3F80C2D20
:1003000062B606F05DFC174B1B68DA0705D52C4872
:1003100006F06EFB2B4B2C4A1A602C4B1B785B06AD
:1003200009D5284C284A2368934204D1244806F072
:100330005FFB002323600BF003F906F0E3FA07F0FC
:1003400021FCFEE70E20054030800440823F04007F
:100350000100002B88ED00E0002008E0030000858C
:1003600010D0034014D0034002D0074000E0074003
:10037000AC10FF1F102B01006007FF1FAC10FF1F08
:10038000502BFF1F0002FF1F0000000000E400E0F0
:1003900064E400E008ED00E0005006400040064044
:1003A00001E007404480044000000502048004404E
:1003B000C010050014E000E03F9002000000202083
:1003C000F5A714591CE00340A5C3945A00F0074058
:1003D000FFFFFFFFFFFFFFFFFFFFFFFFFFFFFFFF2D
:1003E000FFFFFFFFFFFFFFFFFFFFFFFFFFFFFFFF1D
:1003F000FFFFFFFFFFFFFFFFFFFFFFFFFFFFFFFF0D
:10040000FFFFFFFFFFFFFFFFFFFFFFFFDEF9FFFF23
:1004100010B5054C237833B9044B13B10448AFF33E
:1004200000800123237010BDAC10FF1F00000000EE
:10043000082B010008B5064B1BB106480649AFF36F
:1004400000800648036813B1054B03B1984708BD07
:1004500000000000082B0100B010FF1FAC10FF1FB0
:100460000000000038B505460C46C8B2022106F06F
:100470002DFB2C6038BD00BF10B50446FFF7F2FF1E
:100480000A2363604FF47A73A3600023237501236A
:100490002361204610BD00BF08B5007806F008FBB8
:1004A000002814BF0020022008BD00BF30B583B073
:1004B0000446164B1B680093009D007806F0F8FA7E
:1004C000E0B92369012B05D1104B1B680193019BF7
:1004D000E36010E0E0682D1A63689D420AD9237D2D
:1004E0002BB1A068854294BF0220032003E00120C5
:1004F000207500E000200023236104E00020E0607C
:1005000020750123236103B030BD00BF9426FF1F77
:100510002DE9F0410C460E46CF18C1EB0208A01B96
:10052000BC4209D0B4F5805F06DA204606F07EF9B9
:1005300008F804000134F2E7BDE8F08110B5044684
:10054000002102460423FFF7E3FF014623680C2B3A
:1005500006D12046221D3C23FFF7DAFF012010BD03
:10056000002010BD10B5044603680C2B01D0FFF726
:10057000E5FF201D10BD00BFF8B50C460D46CE1896
:10058000571A601BB44208D0B4F5805F05DA2046E4
:10059000395D06F061F90134F3E7F8BD10B50446A2
:1005A0000C230360002102460423FFF7E5FF014608
:1005B0002046221D3C23FFF7DFFF012010BD00BFB6
:1005C00038B50446002140F8041B3C220BF020FB08
:1005D0002046FFF7B3FFB8B900236360A3600A2287
:1005E000E260236104F11405084A03CA606169608E
:1005F00012782A726362A362E36223636363A36374
:10060000E3632046FFF7CAFF204638BD9000010093
:10061000F8B506461746041D0D460FCD0FC40FCD85
:100620000FC40FCD0FC495E8070084E807001FB181
:100630003046FFF7B3FFF8BD0120F8BD08B506F05E
:10064000ADF808BD30B4034641F20C014418002255
:10065000425000F58051086000F5006541F2040148
:10066000455041F20801585041F21401425041F204
:100670001801425041F22801425441F21C014250FB
:1006800000F581531A70C823237130BC704700BF36
:100690002DE9F04F89B004460591069207935FFA61
:1006A00081FB5846012106F011FA069AD2B2019256
:1006B0001046012106F00AFA079BDBB202931846A6
:1006C000012106F003FA129AD2B2039210460121D8
:1006D00006F0FCF9139B5FFA83FA5046012106F0FD
:1006E000F5F9149A5FFA82F94846012106F0EEF90D
:1006F000159B5FFA83F84046012106F0E7F9169A48
:10070000D7B23846012106F0E1F9179BDEB2304638
:10071000012106F0DBF9189AD5B22846012106F02E
:10072000D5F9199BDBB204931846012106F0CEF9E6
:100730005846002106F098F90198002106F094F936
:100740000298002106F090F90398002106F08CF938
:100750005046002106F088F94846002106F084F949
:100760004046002106F080F93846002106F07CF969
:100770003046002106F078F92846002106F074F989
:100780000498002106F070F941F22C03059AE2501A
:1007900041F23003069AE25041F23403079AE250E4
:1007A00041F23803129AE25041F23C03139AE250AC
:1007B00004F58253149A1A6041F24403159AE250E8
:1007C00041F24803169AE25041F24C03179AE25064
:1007D00041F25003189AE25041F25403199AE25040
:1007E00009B0BDE8F08F00BF08B5012241F228032F
:1007F000C25400F580500C300249372207F0C8F887
:1008000008BD00BF2D100000002241F22803C25491
:10081000704700BF3F299DBF41F21C03C15001201A
:100820000020704702299DBF00F581500170012012
:100830000020704738B5044641F2040540594FF492
:10084000006205F009FF04F58053196862591A60C7
:10085000615138BD41F20803C25841F20403C35844
:100860009A4205D138221346013B7FF4FDAFFAE7E7
:100870000120704741F22403C15070472DE9F00F69
:1008800088B0824641F20803C35841F218028258E8
:1008900041F21401415801208840C0B20490102058
:1008A00000FA01F1C9B203910AF5815109780131C9
:1008B00041F30005EDB241F34001CCB203EB8217E6
:1008C000013F03EB821303F2FF3600210AF580504B
:1008D0001C3006900AF582521432C54B0AF581503D
:1008E0000C3007900AF58150103005900AF58150C0
:1008F000143002900AF58150183000900698006874
:10090000884240F06581079890F800C053F83CC0D9
:100910004FF001088CF8808097F80180049800EA75
:10092000080896F801C000EA0C0CD2F800905FFAB3
:1009300089F953F839904FF0010B89F800B1059807
:10094000D0F8009018EA050F5FFA89F953F839904A
:1009500012BF89F880B04FF0010B89F800B10298FE
:10096000D0F800901CEA050F5FFA89F953F8399026
:100970004FF0010B14BF89F880B089F800B10098DE
:10098000D0F8009018EA040F5FFA89F953F839801B
:100990004FF0010914BF88F8809088F8009141F267
:1009A0003C085AF808801CEA040F5FFA88F853F8EC
:1009B00038C04FF0010814BF8CF880808CF800819B
:1009C00092F800C053F83CC04FF001098CF88090B9
:1009D00017F8018F039800EA080816F801CF00EA1B
:1009E0000C0C92F800B053F83BB08BF800910598CE
:1009F000D0F8009018EA050F5FFA89F953F839909A
:100A00004FF0010B14BF89F880B089F800B102984B
:100A1000D0F800901CEA050F5FFA89F953F8399075
:100A20004FF0010B14BF89F880B089F800B100982D
:100A3000D0F8009018EA040F5FFA89F953F839806A
:100A40004FF0010914BF88F8809088F8009141F2B6
:100A50003C085AF808801CEA040F5FFA88F853F83B
:100A600038C04FF0010814BF8CF880808CF80081EA
:100A700092F800C053F83CC04FF001088CF8808019
:100A8000414440297FF43AAF41F250031AF8032061
:100A9000574B53F8323083F880800AF582531A6836
:100AA00041F218035AF8033013F0010FD2B2504B41
:100AB00053F8323019BF424683F88020012283F870
:100AC000002141F244035AF8032041F218035AF876
:100AD000033013F0020FD2B2454B53F832304FF0CF
:100AE000010214BF83F8802083F8002141F24803FB
:100AF0005AF8032041F218035AF8033013F0040F98
:100B0000D2B23B4B53F832304FF0010214BF83F89E
:100B1000802083F8002141F24C035AF8032041F26F
:100B200018035AF8033013F0080FD2B2304B53F8C1
:100B300032304FF0010214BF83F8802083F8002187
:100B40002B4A41F250031AF8033052F833100123B4
:100B500081F8003141F22C011AF8011052F83120CD
:100B600082F8003141F214035AF80330022B06D008
:100B7000032B06D0012B0CBF0220012002E01E2017
:100B800000E02D2041F218025AF802200132102A0A
:100B900004D041F218034AF8032025E0002141F275
:100BA00018024AF802100133042B04D041F2140257
:100BB0004AF8023018E0002241F214034AF80320F8
:100BC0000AF580531A6841F208034AF803200BE043
:100BD00097F80180049800EA080896F801C000EA36
:100BE0000C0CD2F80090A2E608B0BDE8F00F7047F8
:100BF000742401002DE9F00F88B0824641F2080309
:100C0000C35841F21802825841F2140141580120A0
:100C10008840C0B20590102000FA01F1C9B20491D9
:100C20000AF581510978013141F30005EDB241F334
:100C30004001CCB203EB8217013F03EB821303F2B6
:100C4000FF3600210AF580501C300AF5825214321A
:100C5000D84B0AF5815C0CF10C0CCDF81CC00AF5E0
:100C6000815C0CF1100CCDF818C00AF5815C0CF118
:100C7000140CCDF808C00AF5815C0CF1180CCDF805
:100C80000CC0019001980068884240F07981079873
:100C900090F800C053F83CC04FF001088CF88080F9
:100CA00097F801C0059810EA0C0F14BF4FF0000828
:100CB0004FF0010896F801C010EA0C0F14BF4FF076
:100CC000000C4FF0010CD2F800905FFA89F953F84C
:100CD00039904FF0010B89F800B10698D0F80090D8
:100CE00018EA050F5FFA89F953F8399012BF89F8AD
:100CF00080B04FF0010B89F800B10298D0F8009055
:100D00001CEA050F5FFA89F953F839904FF0010B8F
:100D100014BF89F880B089F800B10398D0F800902A
:100D200018EA040F5FFA89F953F839804FF0010986
:100D300014BF88F8809088F8009141F23C085AF876
:100D400008801CEA040F5FFA88F853F838C04FF0A7
:100D5000010814BF8CF880808CF8008192F800C0E4
:100D600053F83CC04FF001098CF8809017F801CF80
:100D7000049810EA0C0F14BF4FF000084FF0010860
:100D800016F801CF10EA0C0F14BF4FF0000C4FF013
:100D9000010C92F800B053F83BB08BF80091069824
:100DA000D0F8009018EA050F5FFA89F953F83990E6
:100DB0004FF0010B14BF89F880B089F800B1029898
:100DC000D0F800901CEA050F5FFA89F953F83990C2
:100DD0004FF0010B14BF89F880B089F800B1039877
:100DE000D0F8009018EA040F5FFA89F953F83980B7
:100DF0004FF0010914BF88F8809088F8009141F203
:100E00003C085AF808801CEA040F5FFA88F853F887
:100E100038C04FF0010814BF8CF880808CF8008136
:100E200092F800C053F83CC04FF001088CF8808065
:100E3000414440297FF426AF41F250031AF80320C1
:100E40005C4B53F8323083F880800AF582531A687D
:100E500041F218035AF8033013F0010FD2B2554B88
:100E600053F8323019BF424683F88020012283F8BC
:100E7000002141F244035AF8032041F218035AF8C2
:100E8000033013F0020FD2B24A4B53F832304FF016
:100E9000010214BF83F8802083F8002141F2480347
:100EA0005AF8032041F218035AF8033013F0040FE4
:100EB000D2B2404B53F832304FF0010214BF83F8E6
:100EC000802083F8002141F24C035AF8032041F2BC
:100ED00018035AF8033013F0080FD2B2354B53F809
:100EE00032304FF0010214BF83F8802083F80021D4
:100EF000304A41F250031AF8033052F833100123FC
:100F000081F8003141F22C011AF8011052F8312019
:100F100082F8003141F214035AF80330022B06D054
:100F2000032B06D0012B0CBF0220012002E01E2063
:100F300000E02D2041F218025AF802200132102A56
:100F400004D041F218034AF803202FE0002141F2B7
:100F500018024AF802100133042B04D041F21402A3
:100F60004AF8023022E0002241F214034AF803203A
:100F70000AF580531A6841F208034AF8032015E085
:100F800097F801C0059810EA0C0F14BF4FF0000845
:100F90004FF0010896F801C010EA0C0F14BF4FF093
:100FA000000C4FF0010CD2F800908EE608B0BDE8BE
:100FB000F00F70477424010038B5044600F58055E1
:100FC0000C35284606F02EFD41F22403E3581BB9E8
:100FD0002046FFF753FC02E02046FFF70BFE41F2EC
:100FE0002803E35C13F0FF0F10D0002817DB421E2C
:100FF0000B4B9A4213D8C0EBC000C200013A232A1F
:101000000DD92846074906F0C3FC38BD41F22C0330
:10101000E25C054B53F83230012283F8802038BD62
:10102000274992042D1000007424010008B50248DD
:10103000FFF7C2FF08BD00BF5C11FF1F08B561F3D9
:101040001F114FF400620AF0E3FD08BD10B504461D
:101050008023C0F800382023C0F804380021FFF7AF
:10106000EDFF204610BD00BF00290CDB002A0CDB81
:10107000D0F8003899420ADAD0F804088242ACBFAE
:10108000002001207047002070470020704700209A
:10109000704700BF70B505460C461646FFF7E4FFE3
:1010A00060B104EBD473B60106EB6306A85D14F0DF
:1010B000010F14BF000900F00F0070BD002070BDCB
:1010C000F8B505460C4616461F46FFF7CDFFA0B102
:1010D00007F00F0704EBD472521002EB8613EB5C9F
:1010E00014F0010F19BF03F00F0343EA071703F0D1
:1010F000F0031F4302EB8616AF55F8BD2DE9F04F04
:1011000085B00746894601930E9BD31802939A42F5
:1011100035DA9046109B9B1A0393119B019AC2EB00
:10112000030B21E00BEB040548464146224601F043
:101130009FF830B1384631462A46FFF7ABFF0346E9
:1011400005E048464146224601F046F80346384647
:1011500031462A46FFF7B4FF01345445E2DB08F17B
:101160000108029B98450ADA039E4644DDF804A074
:101170000F9A9244019B5345F1DA1C46D2E705B021
:10118000BDE8F08F10B5054C2046FE2103F030F885
:101190002046034903F058F910BD00BFD423FF1FB8
:1011A000680801002DE9F047ADF6881DA04B1B68CB
:1011B00013F0010F0FD19E4805F0AEFB58B19D4CC6
:1011C000204602F007FF9A4805F0ACFB20469A49FA
:1011D0009A4A0AF0A5F99A4B1B6813F0010F0FD138
:1011E000974805F099FB58B1964C204601F072FBE8
:1011F000934805F097FB20469349904A0AF090F9EE
:10120000924B1B6813F0010F0CD1904805F084FB42
:1012100040B18F4B1B680493049A8E4B1A608B4825
:1012200005F080FB58A8FFF711FF08A800F04AFF5F
:101230000CA800F047FF864B1B680593059D02F044
:1012400023FE04468448FFF78DF94668D0F80C90D9
:10125000D0F82880C76A814B1B8843B9FFF792FFFB
:1012600008B102F021FE7D4B1B88002B79D071481C
:1012700002F012FF002874D108F1FF38B8F1030F13
:101280000ED8DFE818F044034603040006000A23E2
:1012900040E314233EE37248724903F0D5F8A0B945
:1012A000714B1B886D4A1288B3FBF2F102FB1133BC
:1012B0009BB203EB430203EB82036C4A126818A84B
:1012C0006B491A440BF0A0F90BE00DF1600EDFF84A
:1012D00094C1BCE80F00AEE80F00DCF80030AEF8B7
:1012E00000305F4818A903F0AFF830B30DF668106E
:1012F0005B4918AA012303F029F84E4B9DF86C298D
:101300001A71DDF870299A609DF874291A730DF628
:10131000881252F813CDD2F804E09068C3F80DC0DB
:10132000C3F811E0C3F81500127B5A76DDF8842962
:10133000DA610DF6681002F05BFE3E4802F0ACFE8A
:1013400040B140483B4901F0D7FA30B90022434B45
:101350001A8002E00022414B1A80434B1A88013266
:101360001A80444BA3FB052313F0200F06D10D2058
:10137000012105F079FBDFF81C8105E00D2000213B
:1013800005F072FBDFF81081012E0FD0022E25D060
:10139000204605F01DF80646204605F02FF80346C6
:1013A00010A8354932460BF02FF938E0204605F0F9
:1013B00017F8324B324A0928D4BF92469A46204643
:1013C00005F00EF80646204605F018F8009010A823
:1013D0002C49524633460BF017F920E0204604F022
:1013E000FFFF264B264A0928D4BF92469A4620463C
:1013F00004F0F6FF0646204605F000F8044605F026
:10140000FBF8214B214A00280CBF104618460094D7
:10141000019010A81E49524633460BF0F5F809F129
:10142000FF32052A3AD8DFE802F0493C3F424547FF
:101430005811FF1F2811FF1FF13F00006007FF1F19
:101440004811FF1FE410FF1FE92800002411FF1FAF
:101450009426FF1F1C11FF1F1822FF1F2011FF1FC2
:10146000D423FF1F880801004C11FF1F1411FF1F18
:101470009C080100D34D6210A8080100042401005B
:1014800080080100B4080100840801002423010041
:10149000C0080100700801007808010041F288339B
:1014A0000EE043F698230BE047F2305308E04EF687
:1014B000602305E0AA4B03E0AA4B01E042F210735F
:1014C000A94A128822B1A94A1268AA1A93425ED97F
:1014D000A74B18680CA910AA434601F0ABF858A80E
:1014E0000021FFF7ABFD0CA800F01CFE06460CA87F
:1014F00000F01AFE05460CA800F014FE04460CA8E5
:1015000000F012FE00960195C4F17F0303EBD37344
:101510005B100293C0F11F0000EBD07040100390ED
:1015200058A80CA900221346FFF7E8FD2FB314A812
:1015300000F0C8FD18A88F498F4B1A680BF064F8AB
:101540008E4814A918AA002301F074F814A800F01A
:1015500003FE14A800F0E6FD044614A800F0E4FD24
:101560000094019000230293039358A814A91A46EB
:10157000FFF7C4FD14A800F0AFFE814C2046002107
:10158000FFF768F9204658A9FFF754F9B8E17D48FC
:1015900002F082FD002800F0B1817B4B1C682C1BFF
:1015A0007A4801F0E7FA84422CD9794B1B682BB9B1
:1015B000784B1B680693069A754B1A60734801F0C6
:1015C00083FA88B9704B1B6813B96F4B1D6006E036
:1015D0006E4801F0CFFA6C4B1A68104418606B48E3
:1015E000684901F083FA0DE06A4B1B68079307997D
:1015F000674B1A688A1A60490A6000221A606148BB
:1016000002F03EFD5F4802F047FD002800F07081C7
:101610005E4801F0CBFA0138052804D8DFE800F075
:101620001B35506B85BE524B18680CA910AA434657
:1016300001F000F80CA800F075FDC0F17F0000EB90
:10164000D07046100CA800F06FFDC0F11F0000EB39
:10165000D0704510BBE000238DF845304E480CA9F2
:1016600010AA434600F0E6FF0CA800F05BFDC0F1B5
:101670002A0000EBD07046100CA800F055FDC0F118
:101680001F0000EBD0704510A1E000238DF845301D
:1016900041480CA910AA434600F0CCFF0CA800F06A
:1016A00041FDC0F12A0000EBD07046102B360CA88B
:1016B00000F03AFDC0F11F0000EBD070451086E04D
:1016C00000238DF8453034480CA910AA434600F099
:1016D000B1FF0CA800F026FDC0F12A0000EBD0708D
:1016E000461057360CA800F01FFDC0F11F0000EB9C
:1016F000D07045106BE000238DF8453026480CA9CA
:1017000010AA434600F096FF0CA800F00BFDC0F1B4
:10171000400000EBD07046100CA800F005FDC0F1B1
:101720001F0000EBD070451051E000238DF84530CC
:1017300019480CA910AA434600F07CFF0CA800F041
:10174000F1FCC0F1400000EBD070461040360CA810
:1017500000F0EAFCC0F11F0000EBD070451036E04D
:10176000C0D40100E09304002011FF1F1C11FF1FD3
:101770001811FF1FCC0801005411FF1FE421FF1FA7
:101780005C11FF1F2811FF1F5011FF1FE410FF1FE6
:10179000E010FF1F9426FF1F7022FF1F00238DF80B
:1017A000453064480CA910AA434600F043FF624C40
:1017B000204601F0FDF905460CA800F0B3FC00EB53
:1017C000D070A5EB6006204601F0F4F905465A4CAE
:1017D000204601F0CDF9014608A800F0B1FD58A857
:1017E0000021FFF72BFC204601F0D2F910BB0CA81A
:1017F00000F098FC04460CA800F096FC00940190C0
:101800000296039558A80CA900221346FFF776FC10
:1018100008A800F087FC044608A800F085FC0094A6
:10182000019000230293039358A808A91A46FFF7D2
:1018300065FC23E008A800F075FC044608A800F049
:1018400073FC0094019000240294039458A808A902
:1018500022462346FFF752FC0CA800F063FC8046AA
:101860000CA800F061FCCDF8008001900296039571
:1018700058A80CA922462346FFF740FC002F2DD084
:1018800018A800F01FFC2D4802F0B8FB014614A870
:101890000BF068F814A82E210AF0DCFE08B1002233
:1018A0000270274818A914AA002300F0C3FE18A844
:1018B00000F052FC18A800F035FC044618A800F00F
:1018C00033FC0094019000230293039358A818A9B5
:1018D0001A46FFF713FC18A800F0FEFC194C20462E
:1018E0000021FEF7B7FF204658A9FEF7A3FF07E047
:1018F000154B1D600022154B1A6001E0124B1D6054
:101900000CA800F0E9FC08A800F0E6FC0DE00223BA
:1019100000E005230E4A1288B2FBF3F103FB11230A
:101920009BB2002B7FF4BCACB5E40DF6881DBDE87E
:10193000F08700BF7022FF1FE410FF1F2811FF1F58
:10194000E421FF1F5C11FF1F1C11FF1F5011FF1F1F
:101950004C11FF1FF0B599B068464349434A012333
:1019600002F0F4FC684602F097FB002876D0404B6A
:10197000186830B109F014FE00233E4A13803C4A37
:101980001360684602F0CAFD3B4E394C394D08A839
:1019900002F020FB10A86946012202F061FD9DF8CB
:1019A00044308DF82430129B0A939DF84C308DF80A
:1019B0002C3018AB53F8130D59689A68CDF82D00E8
:1019C000CDF83110CDF835201B7B8DF83930179BC1
:1019D0000F9310A802F00CFB08A802F05DFB002892
:1019E00036D008A802F00AFB31460AF0ADFE10B36B
:1019F000206830B901232B800D2009F0C9FD20603B
:101A00000AE02B8801339BB22B8003EB430103EBED
:101A100081010AF0F9FB20602B8803EB430703EBFD
:101A200087070D3F2268174408A802F0E7FA01462D
:101A300038460AF097FF08A802F022FB20682988A0
:101A40000D220E4B0AF032F908A802F0D1FA9EE7F7
:101A500008A802F0CDFA684602F012FB684602F0D0
:101A6000C7FA19B0F0BD00BFD423FF1F68080100FA
:101A70001411FF1F2011FF1FD008010049C70000EB
:101A800010B594B03748384902F0DEFC002864D025
:101A9000364B1C6844B1204600F06CFE204606F030
:101AA00081F80022314B1A603148FEF75BFD10309F
:101AB00030490AF049FE00284BD004A829492A4A97
:101AC000012302F043FC04A802F0E6FA002839D012
:101AD000274C0CA804A9012202F0C2FC0CA802F0B9
:101AE000DBFAF8B10CA8694600F0FAFC2046FEF7D4
:101AF00039FD103069460AF027FE60B9182006F05B
:101B000049F8044600F092FC184B1C6020460CA9D2
:101B100000F04CFE06E00CA802F0B2FA0CA802F0AD
:101B200067FAD6E70CA802F063FA104B1B6813B1F2
:101B3000114A136002E0114A0F4B1A6004A802F028
:101B40009FFA02E00D4A0C4B1A6004A802F050FA0A
:101B500006E00A4A084B1A6002E0084A064B1A607F
:101B600014B010BDD423FF1FDC0801001011FF1FAB
:101B70001822FF1F900001001811FF1FC810FF1F3F
:101B8000F8B502F081F905466748FEF7EBFC846B77
:101B9000664B1B78A3B1284604F01AFC0646204683
:101BA00004F016FC86420BD1284604F027FC0646BA
:101BB000204604F023FC864202D100225B4B1A70BF
:101BC0005B4B1B68013B032B00F2A780DFE803F0AF
:101BD0004D02586A5748FEF769FC032806D10322D4
:101BE000534B1A605448FEF70FFE99E05348FEF736
:101BF0005DFC012804D14E4B186001F003FC8FE01E
:101C00004948FEF7AFFC466B484B1B7853BB204658
:101C100004F0DEFB0746304604F0DAFB874208D1C9
:101C2000204604F0EBFB0446304604F0E7FB844218
:101C300018D0284604F0CCFB0446304604F0C8FB1C
:101C400084420FD1284604F0D9FB0446304604F004
:101C5000D5FB844206D10422354B1A603648FEF784
:101C6000D3FD5DE0FFF79EFA5AE0002001F0CAFBC9
:101C7000002855D102222E4B1A60FFF701FF4FE0DA
:101C80002C48FEF713FC01284AD12A4C2046FEF7C7
:101C90000DFC0028FAD10222254B1A602648FEF7D7
:101CA000A3FD3DE002F0F0F805461F48FEF75AFCA0
:101CB000846B2248FEF7FAFB01280ED02048FEF77D
:101CC000F5FB012809D01F48FEF7F0FB012804D0DE
:101CD0001848FEF7EBFB012803D10122134B1A70C1
:101CE00014E0124B1B788BB9284604F071FB0646B2
:101CF000204604F06DFB864212D1284604F07EFB9C
:101D00000546204604F07AFB854209D10222084BA1
:101D10001A600948FEF768FD02E00222044B1A60CF
:101D20000A2004F037FFF8BD1822FF1FFC21FF1F17
:101D30006407FF1FCC21FF1F5C11FF1F5822FF1FEC
:101D40000022FF1FB421FF1FF0B5ADF64C0D10A807
:101D5000FFF77CF907A800F0B5F9374B1B6805932E
:101D6000059D0BA83549364A0AF04EFC354807A9AF
:101D70000BAA002300F05EFC07A800F0D3F9074689
:101D800007A800F0D1F9064607A800F0CBF90446F1
:101D900007A800F0C9F900970196C4F1800303EB8E
:101DA000D3735B100293C0F1200000EBD0704010A1
:101DB000039010A807A900221346FFF79FF9224CB1
:101DC00020460021FEF746FD204610A9FEF732FD11
:101DD0001E4804F023FC3C2004F030FC642004F096
:101DE000D9FE04F013FC0228194C23685B682046D6
:101DF00014BF184918491B229847204605F06CFE6D
:101E0000002004F005FEFFF7BDF908B1FFF7A2FDC1
:101E1000FFF736FE084B1B6806930698401BB0F58B
:101E2000FA6F03D2C0F5FA6004F0B4FE07A800F020
:101E300053FA0DF64C0DF0BD9426FF1FE408010087
:101E4000F0080100E421FF1F5C11FF1FB93E0000F4
:101E50008C27FF1FF80801001409010070B590B02D
:101E60001F48FEF77FFB01AC05460FCD0FC40FCD19
:101E70000FC40FCD0FC495E8070084E80700194888
:101E8000FEF70AFB022807D100230A93144801A990
:101E90000122FEF7BDFB0AE01348FEF7FDFA022817
:101EA00005D101220A920E4801A9FEF7B1FB0D4CA3
:101EB0000D4D0E4E2046FEF7EFFA0228FAD02846C6
:101EC000FEF7EAFA0228F5D03046FEF7E5FA0228D6
:101ED000F0D00748FEF7E0FA0228EBD010B070BD52
:101EE0001822FF1F5822FF1FB421FF1F0022FF1FCF
:101EF000CC21FF1F2DE9F0418CB008A800F0E2F8DA
:101F0000584B1C1F03F110080027012654F8045FEA
:101F1000EDB22846394604F0A7FD2846314604F0C4
:101F2000D5FD4445F2D10D20012104F0CFFD4E4DE9
:101F30002846FEF717FB006B003018BF012001F0A8
:101F400077FFFFF78BFF08A84FF40D71072200F011
:101F5000C9F908A8454940F2B67200F0BBF808A8D4
:101F6000434940F2F11200F0C1F8424C20465E2194
:101F700008AA00F009FC20463F494FF4EB7200F03C
:101F80005DFA08A840F255110B2200F0ABF908A841
:101F90003A4940F2597200F09DF808A8384940F2D9
:101FA000D91200F0A3F8374C20462B2108AA00F0E4
:101FB000EBFB20463449D72200F040FA08A8CA219A
:101FC000152200F08FF908A8304940F6490200F0C8
:101FD00081F808A82E4940F2222200F087F82D4C03
:101FE00020460F2108AA00F0CFFB20462A494B22A9
:101FF00000F024FA2846FEF7B5FA284C416A20463C
:10200000FEF738FC03230093022301930723029376
:1020100006230393052304930423059301230693C6
:10202000002307932046132114221523FEF730FBCB
:102030002846FEF797FA81682046FEF7EBFB284614
:10204000FEF790FA90F820102046FEF7EBFB2046B2
:10205000FEF7CAFBFFF778FE08A800F03DF90CB0C8
:10206000BDE8F081C01101001822FF1F30090100F6
:102070009C000100E421FF1F6C0401006C1A0100A8
:10208000900201007022FF1FE8100100D41101002E
:1020900044060100C810FF1F201A01005C11FF1F39
:1020A00010B5054C204600F0C1F920460349044A0A
:1020B00009F036FA10BD00BFC810FF1F75270000D9
:1020C0006007FF1F0022026042600281428182811C
:1020D000C281704710B58389448904FB03F39A4297
:1020E00002D1006804F0B8FA002010BD10B5C38911
:1020F000448904FB03F39A420AD0084C23685B68C6
:102100002046074916229847204605F0E5FC02E0E4
:10211000406804F0A1FA002010BD00BF8C27FF1F0B
:10212000C8210100008970474089704708B583893C
:102130004289006861F31F1102FB03F209F068FD98
:1021400008BD00BF08B5838942890068002102FBF1
:1021500003F209F05DFD08BD08B5C38942894068F6
:10216000002102FB03F209F053FD08BD00290ADB40
:10217000002A0ADB0389994209DA40898242ACBF0E
:102180000020012070470020704700207047002089
:10219000704700BFF8B505460C4617461E46FFF7C8
:1021A000E5FFB8B104EBD472AB8907FB03F707EB8B
:1021B000620229688B5C14F0010F05D003F00F0355
:1021C00043EA0616F6B204E023F00F0306F00F060A
:1021D0001E438E54F8BD00BF70B505460C4616462A
:1021E000FFF7C4FF78B104EBD472AB8906FB03F6AA
:1021F0002B6803EB6203985D14F0010F14BF000914
:1022000000F00F0070BD002070BD00BFF8B505469E
:102210000C4617461E46FFF7A9FF28B32346002C9D
:10222000B8BFE31DEA8907FB02F202EBE30269682B
:102230008B5C66B10D48044003D5013C64F0070493
:102240000134012000FA04F41C43E4B20BE0074817
:10225000044003D5013C64F007040134012000FA76
:1022600004F423EA04048C54F8BD00BF0700008086
:1022700070B505460C461646FFF778FFD0B16B687F
:10228000D3B12246002CB8BFE21DE98906FB01F656
:1022900003EBE20309490C4003D5013C64F0070459
:1022A0000134012202FA04F49B5D23420CBF00209A
:1022B000012070BD012070BD012070BD07000080AD
:1022C00010B50446006808B105F070FC606808B1FC
:1022D00005F06CFC10BD00BF10B50446FFF7F0FF21
:1022E000204610BD70B504460D461646FFF7E8FFC0
:1022F00005F0010305EBD57003EB600080B2A0810F
:1023000015F0070318BF01232A46002DB8BFEA1DA8
:1023100003EBE203E3812581668106FB00F005F013
:102320003DFC2060E08906FB00F005F037FC6060B2
:102330002046FFF707FF2046FFF70EFF70BD00BFE6
:1023400038B504460D4609896A89FFF7CBFF29682D
:1023500011B90023236007E06389A28902FB03F21D
:10236000204692B2FFF7B6FE696811B90023636098
:1023700007E06389E28902FB03F2204692B2FFF78D
:10238000B5FE204638BD00BF70B582B006460C468B
:1023900008466946022201F03DFE054620460DF141
:1023A0000201022201F036FE0028A8BF002DB4BFB2
:1023B00000250125204601A9022201F02BFE00285C
:1023C000B4BF002505F0010520460DF106010222EB
:1023D00001F020FE0028B4BF002505F0010515B36B
:1023E0003046BDF80010BDF80220FFF77BFF73896F
:1023F000B28902FB03F22046316892B201F00AFE74
:10240000C543ED0FBDF806306BB17389F28902FB4D
:1024100003F22046716892B201F0FCFD0028B4BFBF
:10242000002505F00105284602B070BD10B5044630
:10243000FFF748FE00232361204610BD38B515463E
:10244000838A03EB83039A420FD00A4C23685B68AC
:10245000204609490E2298472046294605F088FB68
:10246000204605F039FB002038BD006904F0F4F87F
:10247000012038BD8C27FF1FE021010070B590B00E
:1024800068461549154A012301F060FF684601F0CE
:1024900003FED0B100240126E5B208A86946324601
:1024A00001F0DEFF08A801F0F7FD013430B108A803
:1024B00001F0E6FD08A801F09BFDEDE708A801F09A
:1024C00097FD684601F0DCFD00E00025684601F05C
:1024D0008FFD284610B070BDD423FF1FDC0801001B
:1024E00030B583B004460D46002101F09BFD204627
:1024F0000DF10601022201F08DFD20460DF10501CE
:10250000012201F087FD9DF8052001320D2AA8BFA8
:102510000D22D2B28DF805202046294601F07AFD21
:102520009DF805000544002305F8013C03B030BDCB
:1025300010B4828AB2B1006903788B4208D104E0FA
:10254000184613F8052B8A4208D1B0F801000AE0BA
:10255000431D013A94B204EB84041C44A342EFD11E
:10256000002000E000205DF8044B704730B4848AFE
:10257000BCB1026913788B4215D0531D013CA5B242
:1025800005EB85051D44002004E01A4613F8054BB1
:102590008C4209D0B2F80120104480B2AB42F4D191
:1025A00002E0002000E0002030BC704710B4828AB6
:1025B000B2B1006903788B4208D104E0184613F8E1
:1025C000052B8A4208D1B0F803000AE0431D013A06
:1025D00094B204EB84041C44A342EFD1002000E039
:1025E00000205DF8044B70472DE9F8430746884604
:1025F00008460AF015FA00F1FF39002426460CE0DF
:1026000018F8045038462946FFF792FF064438462A
:102610002946FFF7CBFF361A01344C45F0DB29EA97
:10262000E979384618F80910FFF782FF3044BDE811
:10263000F88300BF2DE9F04F8BB006908B460792D0
:102640001F461146FFF7D0FF0446DDF818904846B4
:10265000FFF76AFD024658462146FFF743FE002277
:1026600005929246089275E0059B0093079AD45C08
:1026700006982146FFF75CFF0990804606982146A0
:10268000FFF774FF029000268044089B0393049098
:1026900045E097B1009ABB5C2D2B0ED158462146E0
:1026A00032460023FFF776FDA24533DC584621462B
:1026B00032460123FFF7AAFD2CE048462946324660
:1026C000FFF78AFD0346584621463246FFF762FD72
:1026D000A24514DD484629463246FFF7C9FD019060
:1026E000584621463246FFF7C3FD019A00EA02032D
:1026F000584621463246DBB2FFF788FD0AE04846DD
:1027000029463246FFF7B4FD034658462146324675
:10271000FFF77CFD013501344545BADB01364846FB
:10272000FFF702FD864205DA029B4345F6DA039C79
:10273000049DAEE7DDF820A0099A92440698079A16
:10274000009BD15CFFF732FFC0EB0A000890059BAD
:102750000133059307980AF063F9059A824283DBF7
:1027600058460BB0BDE8F08F08B5006908B105F018
:102770001DFA08BD10B50446FFF7F6FF2046FFF727
:10278000ABFD204610BD00BF70B504460D46164691
:10279000FFF7EAFF20463146FFF7D2FDA58205EBA1
:1027A000850005F0FBF9206170BD00BF30B5C3B0F6
:1027B00005460C460846002101F034FC204601A9DC
:1027C000022201F027FC20460DF10301012201F055
:1027D00021FC02A800214FF4807209F019FA20466A
:1027E00002A99DF8032001F015FC20460DF1060119
:1027F000022201F00FFC2846FFF7B6FFBDF80600E5
:1028000000EB800005F0CAF901462861BDF80620FA
:1028100002EB8202204692B201F0FCFB28462146E0
:10282000FFF7B2FDBDF80630AB8243B030BD00BF4C
:1028300010B5044600F580500C3005F0F3F8204642
:1028400010BD00BF70B5184D2846FDF7FBFE174CB4
:1028500028461749224608F063FE1648FDF7B0FEE9
:1028600015481E21FDF708FE14481C21FDF704FE43
:1028700013481D21FDF700FE12481B21FDF7FCFD4A
:10288000114E3046FFF7D2FD104D30462946224604
:1028900008F046FE0E4E3046FFF7C8FD304629468A
:1028A000224608F03DFE70BD5C11FF1F6007FF1F50
:1028B000312800001822FF1F5822FF1F0022FF1F8F
:1028C000B421FF1FCC21FF1FE421FF1F752700004B
:1028D0007022FF1F10B504461C30FFF7F3FB0023E6
:1028E00023826382204610BD10B504461C30FFF7DA
:1028F000F3FC204610BD00BF2DE9F04F93B0834696
:102900000E4608460DF12E01022201F083FB04461B
:1029100030460CA9022201F07DFB0028A8BF002C44
:10292000B4BF0024012430460DF13201022201F02F
:1029300071FB0028B4BF002404F001040094002CB3
:1029400000F0A980BDF83230002B00F0A4804FF0D9
:10295000000902250BEB050208920BF10403099311
:10296000304659462A4601F055FB019030460899F9
:102970002A4601F04FFB8246304609992A4601F06B
:1029800049FB029030460BF106012A4601F042FB5A
:10299000039030460BF108012A4601F03BFB0490FE
:1029A00030460BF10A012A4601F034FB059030460F
:1029B0000BF10C012A4601F02DFB069030460BF17D
:1029C0000E012A4601F026FB079030460BF1140158
:1029D000012201F01FFB804630460BF11501012258
:1029E00001F018FB074630460BF11601012201F0F9
:1029F00011FB044630460DA9112201F00BFB019A90
:102A0000BAF1000FA8BF002AB4BF00230123029A25
:102A1000002AB4BF002303F00103039A002AB4BFC5
:102A2000002303F00103049A002AB4BF002303F03B
:102A30000103059A002AB4BF002303F00103069A9C
:102A4000002AB4BF002303F00103079A002AB4BF91
:102A5000002303F00103B8F1000FB4BF4FF00008EA
:102A600003F00108002FB4BF002708F00107002C75
:102A7000B4BF002407F001040028B4BF002004F014
:102A80000100009B0340009309F10109BDF83230B9
:102A90004B453FF765AFBBF80030003318BF01234B
:102AA000ABF81830BBF80A30003318BF0123ABF87D
:102AB0001A30BDF83030ABF810300023ABF81230CC
:102AC000009813B0BDE8F08F428A038A9A4208D179
:102AD000408B03B2032B06D0D3F1010038BF002096
:102AE0007047002070470120704700BF10B50446B2
:102AF000B0F91830012B0CBF022303230383428A51
:102B0000038A9A4206D1B0F91A0001280CBF0220AC
:102B100003206083B4F9180002280BD1A088012893
:102B200008D11C342046FFF70DFB2046FFF714FBAD
:102B3000012010BD9A4207D204F11C00FFF724FCCB
:102B4000638A0133638210BDB4F91A30022B0BD1B2
:102B5000E389012B0AD11C342046FFF7F3FA204603
:102B6000FFF7FAFA012010BD002010BD002010BDB3
:102B70001C307047B0F91830022B01D10088704723
:102B8000B0F91A30022B0CBF4089C088704700BFD3
:102B9000B0F91830022B01D140887047438B023BBB
:102BA0009BB2012B94BF808900897047007D7047DC
:102BB000407D7047807D704710B504464368002B08
:102BC00003DD806808B104F0F1FF204610BD00BFAE
:102BD00010B504464368002B03DD806808B104F09B
:102BE000E5FF204610BD00BF10B504464368002B2A
:102BF00003DD806808B104F0D9FF204610BD00BF96
:102C000010B504464368002B03DD806808B104F06A
:102C1000CDFF204610BD00BF10B504464368002B11
:102C200003DD806808B104F0C1FF204610BD00BF7D
:102C300010B504464368002B03DD806808B104F03A
:102C4000B5FF204610BD00BF10B504464368002BF9
:102C500003DD806808B104F0A9FF204610BD00BF65
:102C600010B504464368002B03DD806808B104F00A
:102C70009DFF204610BD00BF08B5C1B20148FDF759
:102C8000D1FD08BD5C11FF1F2DE9F04188B004465D
:102C90000E4604A8FFF716FA04A81C210922FFF724
:102CA00021FB04A80121FFF741FA04A8FFF73AFA33
:102CB000054604A8FFF738FA009501900223029315
:102CC00017250395204604A900221346FEF716FA9D
:102CD00004A8FFF727FA074604A8FFF725FA00978C
:102CE0000190222302930395204604A90022134653
:102CF000FEF704FA04A8FFF715FA074604A8FFF741
:102D000013FA00970190422302930395204604A9E9
:102D100000221346FEF7F2F904A8FFF703FA07466C
:102D200004A8FFF701FA009701906223029303952C
:102D3000204604A900221346FEF7E0F9344F384636
:102D400004A932680023FFF775FC04A8FFF7EAF92D
:102D5000054604A8FFF7E8F90095019004230293C3
:102D600018250395204604A900221346FEF7C6F94C
:102D7000384604A972680023FFF75CFC04A8FFF73B
:102D8000D1F9804604A8FFF7CFF9CDF80080019073
:102D9000242302930395204604A900221346FEF73C
:102DA000ADF9384604A9B2680023FFF743FC04A834
:102DB000FFF7B8F9804604A8FFF7B6F9CDF8008010
:102DC0000190442302930395204604A90022134650
:102DD000FEF794F9384604A9F2680023FFF72AFCAD
:102DE00004A8FFF79FF9064604A8FFF79DF900968F
:102DF0000190642302930395204604A90022134600
:102E0000FEF77CF904A8FFF767FA08B0BDE8F08187
:102E1000E421FF1F2DE9F0438BB005460E4606A8BE
:102E2000FFF750F901F030F8804606A8802109220A
:102E3000FFF758FA06A80121FFF778F906A8FFF76F
:102E400071F9044606A8FFF76FF900940190002479
:102E500002940394284606A922462346FEF74EF91B
:102E6000244F384606A932462346FFF7E3FB06A85F
:102E7000FFF758F9064606A8FFF756F900960190A5
:102E8000012602960396284606A922462346FEF707
:102E900035F9404603F09CFA8146404603F0AEFA0D
:102EA000034604A814494A4609F0AEFB384606A971
:102EB00004AA2346FFF7BEFB06A8FFF733F98046B6
:102EC00006A8FFF731F9074606A8FFF72BF9CDF85A
:102ED00000800197C0F1800002900396284606A961
:102EE00022462346FEF70AF906A8FFF7F5F90BB0CC
:102EF000BDE8F083E421FF1FA80801002DE9F04F91
:102F000091B00546884616461F4608A8FFF7DAF82E
:102F1000614C94E80F0010AC04E90F005F48FDF726
:102F2000C5FA83465E48FDF7C1FA82465D48FDF763
:102F3000BDFA81465C48FDF7B9FA04463FB11A9BD9
:102F400018685A4903F070F90022594B1A60BBF116
:102F5000010F14BF00276FF000072AF0020ABAF130
:102F6000010F1BD1524B1B6863B9504B9B78013347
:102F7000DBB2172B02D84D4A93700FE000224B4B67
:102F80009A700BE0494B5B780133DBB23B2B02D8E4
:102F9000464A537002E00022444B5A7029F002095D
:102FA000B9F1010F1BD1424B1B6863B93F4B9B78B2
:102FB000013BDBB2172B02D83C4A93700FE017227B
:102FC0003A4B9A700BE0394B5B78013BDBB23B2B01
:102FD00002D8364A537002E03B22344B5A70012C1F
:102FE0000ED1334B1B681BB90122314B1A6007E02D
:102FF0002E480023037003F015FA1A9C2060012765
:1030000028464146FFF706FF1EB92A4EDFF8BC806E
:1030100001E0294EB046254C05A82849A2786378DE
:1030200009F0F2FA224B1B68254808A905AA002BD3
:1030300014BF43463346FFF7FDFA08A8FFF772F8BE
:10304000064608A8FFF770F8044608A8FFF76AF8D4
:1030500000960194C0F1800000EBD0735B100293E6
:103060000B230393284608A900221346FEF746F8CF
:103070000F4B1968134A144B002908BF13460F93CE
:1030800028460CA9FFF700FE08A8FFF725F93846E7
:1030900011B0BDE8F08F00BFF02101005822FF1FE2
:1030A0000022FF1FB421FF1FCC21FF1F8023FF1F21
:1030B0005C23FF1F182201001022010038220100AA
:1030C0007022FF1F2822010030220100202201006F
:1030D0002DE9F04F89B005460C4616469A4604A8DD
:1030E000FEF7F0FF5A48FDF7E1F983465948FDF72E
:1030F000DDF981465848FDF7D9F980465748FDF774
:10310000D5F907461EB1DAF80030554A1360B9F117
:10311000010F0BD1524B18686368013B834205DDF8
:1031200001304F4B1860129B03B19847B8F1010F63
:1031300008D14B4B1868002804DD01381860129B39
:1031400003B19847012F06D0BBF1010F14BF002631
:103150006FF0000604E0424B1B68CAF800300126FD
:1031600028462168FFF756FE3D4B1B68002B17DDF4
:103170003C4804A93C4A0023FFF75CFA04A8FEF788
:10318000D1FF074604A8FEF7CFFF00970190002368
:1031900002930B220392284604A91A46FDF7AEFFBC
:1031A0006368013B2E4A126893421EDD2D4804A934
:1031B0002E4A0023FFF73EFA04A8FEF7B3FF80462D
:1031C00004A8FEF7B1FF074604A8FEF7ABFFCDF851
:1031D00000800197C0F1800002900B2303932846E2
:1031E00004A900221346FDF789FF1D4B1A68A36846
:1031F0001C4804A953F822200023FFF71BFA04A857
:10320000FEF790FF804604A8FEF78EFF074604A84D
:10321000FEF788FFCDF800800197C0F1800000EB39
:10322000D0735B1002930B230393284604A900225A
:103230001346FDF763FF284604F10C01FFF724FD58
:1032400004A8FFF749F8304609B0BDE8F08F00BF89
:103250005822FF1F0022FF1FB421FF1FCC21FF1F98
:10326000C422FF1F7022FF1F4422010048220100D8
:103270002DE9F0478CB004468A46164604A8FEF7AE
:1032800021FF584B0FCB0CAD05E90F005648FDF759
:103290000DF905465548FDF709F981465448FDF7F3
:1032A00005F980465348FDF701F90746BAF1000FCA
:1032B00002D03368504A1360012D05D14F48316860
:1032C000FDF7A8FA002500E0012529F00209B9F16F
:1032D000010F08D1484B19683E2904DC01311960FF
:1032E0004648FDF797FA28F00208B8F1010F08D117
:1032F000414B1968002904DD013919603F48FDF789
:1033000089FA012F03D13C4B1B683360002520460E
:103310003B49FFF77FFD04A844210822FEF7E2FFA6
:1033200004A80521FEF702FF04A8FEF7FBFE0646EF
:1033300004A8FEF7F9FE009601901E2302930C23C9
:103340000393204604A900221346FDF7D7FE04A8E4
:1033500042210622FEF7C6FF04A80021FEF7E6FE82
:1033600004A8FEF7DFFE064604A8FEF7DDFE009681
:1033700001901F2302930D230393204604A90022EA
:103380001346FDF7BBFE04A840210422FEF7AAFF66
:1033900004A80F21FEF7CAFE04A8FEF7C3FE00280A
:1033A000B8BF3F308311144A166806FB033604A8E1
:1033B000FEF7BAFE00960190202302930E2303939A
:1033C000204604A900221346FDF798FE204608A9CE
:1033D000FFF75AFC04A8FEF77FFF28460CB0BDE8B3
:1033E000F08700BF002201005822FF1F0022FF1FAC
:1033F000B421FF1FCC21FF1FC822FF1F5C11FF1F3C
:103400004C2201002DE9F043ADF65C0D044614A8F2
:10341000FDF71CFE002C00F0CF809D48FDF7A2F8C0
:103420009C4C05460FCD0FC40FCD0FC40FCD0FC45C
:1034300095E8070084E807000022974B1A60974B35
:103440001C68002C00F03E836368934203DDA06893
:1034500008B104F0ABFB204604F0A4FBFFF70EF824
:1034600081468F4B186820B104F0A0FB00228C4BE2
:103470001A60B9F11C6F9ABF09EB490009EB800093
:103480004FF0FF3004F08AFB854B186004A8854993
:10349000854A012300F05AFF04A800F0FDFD002832
:1034A0004CD000227C4B1A60914536DD09F10108B1
:1034B000144601257A4E7D4F0CA804A9012200F084
:1034C000CFFF0CA800F0E8FD80B131680CA82144C2
:1034D000FFF706F80CA800F0D3FD31683846214408
:1034E00009F032F990B96C4B1D600FE000266A4B71
:1034F0001E600CA800F07CFD04A800F0C1FD1C209B
:1035000004F048FB04460120054620E00CA800F02A
:103510006FFD01350D344545CED104A800F0B0FD56
:103520001C2004F037FB04464E4609F101052846ED
:10353000B5F1FE5F0BD94FF0FF3009E00026564B86
:103540001E601C2004F026FB044601200546800076
:1035500004F024FBA0606560504B1C60544A22605C
:103560001B689B68534A1A60002E10DD06EB460369
:1035700006EB830600230422484D494C29688868DD
:1035800021681944815004320D33B342F6D1434BC4
:103590001B68494ADA60494A1A61494A5A61494AEC
:1035A0009A610022484B1A600123484A1370484A26
:1035B000137004A800F01CFD444B1B78002B00F096
:1035C000DA80434C22780025009514A841493E4BEF
:1035D000FFF77EFD2570002800F05882B0F1FF3F14
:1035E00000F0568201222270384B1D70364B1B684A
:1035F0000B2B00F2BC80DFE803F00618222C3844C5
:103600007D87929CA6B000F03FFC334B18602E4A99
:103610001168304A926852F82110009314A80022D1
:103620000123FFF76BFC012555E20023009314A84A
:103630002A490122174BFFF74BFD01254BE20023DE
:10364000009314A826490122264BFFF741FD0125CE
:1036500041E2204B9B68D968234B009314A80022B9
:103660000123FFF74BFC012535E21A4B9B681969D2
:103670001E4B009314A800220123FFF73FFC0125F5
:1036800029E214A801211A4AFFF7F2FD012522E2DE
:103690001822FF1FE822FF1FA423FF1FC022FF1FC5
:1036A0006023FF1FD423FF1FDC080100F822FF1F47
:1036B0005822010090000100642201006C220100E8
:1036C0002822010030220100D023FF1FCC23FF1F3E
:1036D000C423FF1F4023FF1FC823FF1F8822FF1F93
:1036E0006423FF1FEC22FF1F1C23FF1F2023FF1F4B
:1036F000F022FF1F0023009314A8A4490122A44B29
:10370000FFF7E6FC0125E6E1A24B196800230093D0
:1037100014A80122A04BFFF7DBFC0125DBE100230D
:10372000009314A89D4901229D4BFFF7D1FC012570
:10373000D1E10023009314A89A4901229A4BFFF784
:10374000C7FC0125C7E10023009314A89749012273
:10375000974BFFF7BDFC0125BDE10023009314A8A2
:1037600094490122944BFFF7B3FC0125B3E10125F5
:10377000924B1D70AFE1924B1B680B2B00F28281C4
:10378000DFE813F00C002E00430058007B009E0081
:10379000AF00C400E6003E0159016D01894B9B68F2
:1037A0001968894B1B680393039A884BA3FB020299
:1037B000874B009314A8C2F340120023FFF79EFB2F
:1037C000002800F06781012806D1814C206802F0B2
:1037D000A5FE206803F00CF90125784B1D707AE1F5
:1037E0000022009214A87B497B4BFFF771FC002854
:1037F00000F05281012804D1784877490122FCF772
:1038000007FF01256D4B1D7065E10022009214A891
:103810007349744BFFF75CFC002800F03F810128DE
:1038200004D16E486C490122FCF7F2FE0125634B7E
:103830001D7050E1634B9B68D968634B1B68049310
:10384000049A624BA3FB0202674B009314A8C2F3D5
:1038500040120023FFF752FB002800F021810128CD
:1038600007D15E485C490122FCF7D2FE00225F4B83
:103870001A700125514B1D702DE1524B9B6819693F
:10388000514B1B680C930C9A504BA3FB0202584BF4
:10389000009314A8C2F340120023FFF72FFB002867
:1038A00000F00081012807D14C484B490122FCF768
:1038B000AFFE00224D4B1A700125404B1D700AE1EE
:1038C00014A800214B4AFFF7D3FC002840F0EC80FD
:1038D000424841490122FCF79BFE0125374B1D70F0
:1038E000F9E00022009214A82849294BFFF7F0FBC9
:1038F000002800F0DB80012804D138483649012235
:10390000FCF786FE01252D4B1D70E4E0214B196864
:103910000022009214A8204BFFF7DAFB002800F0E9
:10392000C780012810D12C4C1A4B1B681A4A126808
:103930009B6804F1100053F8221009F013F827488F
:1039400021460122FCF764FE01251C4B1D70C2E0DC
:10395000294B009314A811490022114BFFF7B8FB23
:10396000002800F0A780012805D11C481A4901222F
:10397000FCF74EFE05E02148174B93F82010FCF7AA
:1039800051FF01250D4B1D70A5E000BF8823FF1FCF
:10399000F422FF1FC022FF1FA423FF1FA823FF1F25
:1039A0000823FF1F2423FF1F1823FF1FA422FF1F2C
:1039B0001023FF1FCC22FF1F1423FF1FCC23FF1F48
:1039C000D023FF1F4023FF1F9426FF1FD34D6210FB
:1039D000C823FF1F8822FF1FE822FF1F1822FF1F96
:1039E0006423FF1FEC22FF1F1C23FF1FFC21FF1F6E
:1039F0002023FF1FF022FF1F792C00005C11FF1F06
:103A00000022009214A83B493B4BFFF761FB0028C2
:103A100052D001280BD1394C206B003018BF012047
:103A200000F006FA364821460122FCF7F1FD012597
:103A3000344B1D704FE00022009214A83249334BE2
:103A4000FFF746FB002839D0012804D12C482B4928
:103A50000122FCF7DDFD01252A4B1D703BE0002211
:103A6000009214A82A492B4BFFF732FB40B30128E0
:103A700004D1234821490122FCF7CAFD0125214B2D
:103A80001D7028E001251F4B1D7024E0012522E058
:103A9000002520E001251EE001251CE001251AE09B
:103AA000012518E0012516E0012514E0012512E0AA
:103AB000012510E001250EE001250CE001250AE0BA
:103AC000012508E0FEF7DAFC8146134B1868002850
:103AD0007FF4CAACCDE4114C20460021FCF7BAFEBD
:103AE000204614A9FCF7A6FE28460DF65C0DBDE89D
:103AF000F08300BF2423FF1F1823FF1FE822FF1FAE
:103B00001822FF1FCC23FF1FA422FF1F1023FF1F1B
:103B1000CC22FF1F1423FF1F6023FF1F5C11FF1F18
:103B20002DE9F84F302004F039F8834B98604FF0BE
:103B30000C0BC3F804B0814A1A60814A02609A688B
:103B4000804F57609A68DFF8E0A2C2F808A09A6830
:103B50007D49D1607D4911617D4951617D49916106
:103B60007D49D1617D4911627D4951627D499162F2
:103B70007D49D1627D4ADA607D4E1E617D4D5D6179
:103B80007D4A9A617D4C18467D49224607F0C8FC63
:103B9000082004F003F87B4B98604FF00209C3F84B
:103BA00004901F60784A02609A6878495160DFF893
:103BB0007C82C3F80C801E615D61754F9F61184661
:103BC0007449224607F0ACFC584603F0E7FF724BFD
:103BD000986003225A60C3F800A0704A02609A6895
:103BE0006F4951609A686F499160C3F80C801E61FB
:103BF0005D619F6118466C49224607F091FC1C20CC
:103C000003F0CCFF694B98604FF0070AC3F804A09B
:103C1000504A1A60664A02609A68664951609A681A
:103C2000654991609A686549D16065491161654946
:103C3000516165499161C3F80C801E615D619F61AE
:103C400018466249224607F06BFC1C2003F0A6FFD1
:103C50005F4B9860C3F804A0404919605D4A026058
:103C60009A685D4951609A685C4991609A685C49BC
:103C7000D1605C4911615C4951615C499161C3F853
:103C80000C801E615D619F6118465949224607F00C
:103C900047FC082003F082FF564B9860C3F804905D
:103CA0002F4A1A60544A02609A6854495160C3F816
:103CB0000C801E615D619F6118465149224607F0E4
:103CC0002FFC142003F06AFF4E4B986005225A60C7
:103CD000244919604C4A02609A684C4951609A68BC
:103CE0004B4991609A684B49D1604B491161C3F8C7
:103CF0000C801E615D619F6118464849224607F0AD
:103D00000FFC082003F04AFF454B9860C3F804906D
:103D1000154A1A601C4901609A681C495160C3F831
:103D20000C801E615D619F6118463E49224607F086
:103D3000F7FBBDE8F88F00BF4023FF1F742201008E
:103D4000802201008C2201009C220100A822010097
:103D50004C220100B422010058220100C0220100BF
:103D6000CC220100DC220100E8220100F022010047
:103D70006C22010028220100F82201006007FF1FC9
:103D8000612C00008822FF1F002301000423010092
:103D900030220100492C00006423FF1F082301008A
:103DA0001023010018230100312C00008823FF1F7D
:103DB0002823010034230100402301004C2301008B
:103DC000582301006423010070230100192C000016
:103DD000A823FF1F7C23010080230100882301000A
:103DE0009023010098230100A0230100A8230100D3
:103DF000012C00002423FF1FB0230100B823010081
:103E0000E92B0000A422FF1FC0230100C8230100EA
:103E1000D0230100D8230100E4230100D12B0000AE
:103E2000CC22FF1FB92B0000902201006422010068
:103E300008B580B110481B21FCF714FB0F481D2169
:103E4000FCF710FB0E481C21FCF70CFB0D481E2153
:103E5000FCF708FB08BD08481E21FCF703FB0748D8
:103E60001C21FCF7FFFA06481D21FCF7FBFA054868
:103E70001B21FCF7F7FA08BD5822FF1F0022FF1F85
:103E8000B421FF1FCC21FF1F10B502F067FB0446D1
:103E90000448FCF767FB0368012B08BF04F5616465
:103EA000204610BD1822FF1F014A024B1A607047BE
:103EB0000400FA050CED00E008B502F093FD08BD22
:103EC00010B582B002AB03F8011D026854681946B0
:103ED0000122A04702B010BD10B50446C3691BB94A
:103EE00001230371002010BD00201871E06992B217
:103EF00001F0B4FDE3691B7913B1012323710020A4
:103F000010BD00BF00B583B0C06960B10DF10701FD
:103F1000012201F009FB01280CBF9DF807004FF6B4
:103F2000FF7000B201E04FF0FF3003B05DF804FB1A
:103F300030B583B00446C06978B10DF107010122A4
:103F400001F0F2FA01280AD19DF80750E069C16832
:103F5000013901F0D7FB284603E0002001E04FF0D3
:103F6000FF3003B030BD00BF08B5C06908B101F033
:103F700001FC08BD2DE9F04104460E4690460023A1
:103F800003714FF47A7282600373114B0360242033
:103F900007F0FEFAE061B8B13546074606F1200E9B
:103FA0003E4628686968AA68EB680FC61035374630
:103FB0007545F5D12868306004F10D0041460C22AA
:103FC00008F05EFD002363762046BDE8F08100BF67
:103FD00018240100002202714FF47A71816002738B
:103FE00002490160C2614273704700BF182401009A
:103FF000014B0360704700BF182401000D3070476B
:10400000C3692BB19879012894BF00200120704723
:104010000020704708B5C06910B101F085FA08BDED
:10402000002008BD08B5C06928B101F06BFB003065
:1040300018BF012008BD002008BD00BFC3690BB137
:10404000D86870474FF0FF30704700BFC3690BB1AD
:10405000986970470020704738B50446C36963B15A
:10406000FFF7F4FF05462046FFF7E8FF281A47F65A
:10407000FF73984228BF184638BD002038BD00BFE6
:1040800010B50446C06930B101F0A0FBE06907F04B
:1040900087FA0023E36110BDC36923B1987900302A
:1040A00018BF012070470020704700BF10B58AB0CC
:1040B00004460A4600238DF80830094901918DF81D
:1040C0000A3001A82146012301F032FC041C18BF6C
:1040D000012414B101A801F079FB20460AB010BDFB
:1040E00040240100F0B40C68035D2F2B1CD1013477
:1040F0001AE0002563B11EE00135013407F8013FE5
:104100000C2D05D016F8013F2F2B01D0002BF3D139
:1041100000235355035D2F2B08BF01340C60005D55
:10412000003018BF01200BE00619035D2F2B08BFDC
:104130000025EDD0DDE70134137017460125E1E7D6
:10414000F0BC70472DE9F04F99B082460F4691467A
:10415000984600238DF81C30244A06928DF81E30B4
:104160008DF840300F928DF8423001930C4606AE28
:104170004FF0010B03E00FAC234634461E46504679
:1041800001A902AAFFF7AEFF054680F00102204612
:1041900002A9D2B24346C84730B9BC421CD020461F
:1041A00001F014FB00201EE07DB13046214602AA3A
:1041B0005B4601F0BDFB0546BC4211D0204601F034
:1041C00005FB002DD8D100200DE0BC4206D02046D2
:1041D00001F0FCFA012006E0002004E0012002E0EA
:1041E0000028C8D1002019B0BDE8F08F402401009C
:1041F00038B504460A46FE290CD1FE23037000F0B0
:10420000A3FA054600F08CFAA070D5F1010038BF82
:10421000002002E0012100F073FEA8B1251D284610
:104220002146012201F0F6FE28B928462146002247
:1042300001F0F0FE50B104F12C00294601F04AF9DA
:10424000003018BF012038BD002038BD002038BD27
:104250002DE9F04F99B081469346019300238DF8E4
:104260001C30394A06928DF81E308DF840300F927E
:104270008DF8423006A8043101F02CF95C460FAEEF
:1042800006AD4FF02F084FF0000A2CE023782F2BBB
:1042900001D1013427E03F1BFFB20C2F28BF0C27B0
:1042A00002A821463A4608F0EBFB18AB3B4403F862
:1042B00058AC304601F08AFA3046294602AA01235A
:1042C00001F036FB40B9002389F804301E4AC9F8D2
:1042D000002089F8063032E03C44284601F076FAA6
:1042E0002B4635461E462046414608F0B3F90746A0
:1042F0000028CBD1CBEB0404019B1C602B7989F8FF
:104300000430114BC9F800306B7989F80530AB796E
:1043100089F80630AB68C9F80830EB68C9F80C308A
:104320002B69C9F810302B7D89F81430AB69C9F8B6
:104330001830EB69C9F81C302B6AC9F820304846A0
:1043400019B0BDE8F08F00BF40240100F0B5A7B060
:10435000044615461F4602A801ABFFF779FF0199F5
:104360006E18695C19BB9DF80C308DF85430344BD5
:1043700014939DF80D308DF855309DF80E308DF862
:104380005630049B1693059B1793069B18939DF834
:104390001C308DF86430089B1A93099B1B930A9B71
:1043A0001C93204614A9274AFFF7E4FD45E00021AD
:1043B0008DF83010224B0B938DF832109DF80E3093
:1043C0001BB92046FFF706FE37E00BA802A93246CC
:1043D0003B4601F0ADFA18B92046FFF7FBFD2CE093
:1043E00002A801F0F3F917F0060F03D00BA81199FA
:1043F00001F088F99DF830308DF87830104B1D931E
:104400009DF831308DF879309DF832308DF87A3062
:104410000D9B1F930E9B20930F9B21939DF8403083
:104420008DF88830119B2393129B2493139B259323
:1044300020461DA93246FFF79DFD204627B0F0BD5E
:10444000402401003024010008B500F12C03084687
:104450001946024A0023FFF775FE08BDAD40000073
:10446000F0B59FB006460D46174649E09DF810404E
:104470001CB93046FFF7AEFD4BE0E52C40D02E2CAA
:104480003ED09DF81B1011F0080F39D100238DF894
:104490003430214A0C928DF8363004A8694600F079
:1044A000B9FF0CA8E9696A463B4601F041FA18B326
:1044B0009DF834308DF85830174B15939DF83530F2
:1044C0008DF859309DF836308DF85A300E9B179381
:1044D0000F9B1893109B19939DF844308DF868300A
:1044E000129B1B93139B1C93149B1D93304615A981
:1044F0006A46FFF73FFD0CE03046FFF76BFD08E032
:10450000E86904A901F0B6F80028AFDC3046FFF7EF
:1045100061FD30461FB0F0BD4024010010B50446D7
:10452000FFF76EFD18B1E36900229A60DA6010BDF2
:10453000064B00229A700221596083F8242083F8E8
:1045400030200349D96283F832207047D423FF1FFB
:104550004024010040F24343074A136004321360D1
:104560004FF4886104321160043213600432136026
:1045700004321360704700BF00D004400023064A95
:104580001360043213600432136004321360043287
:10459000136004321360704700D00440114B196857
:1045A00021F008021A60104A0A40104340F46022C9
:1045B0001A60083B1B6813F0080F07D10B4B0C491E
:1045C0000A6812F0080F01D1013BF9D140F46022D2
:1045D00042F00802034B1A6004331A6842F4801256
:1045E0001A6070472C100B400700F0FFFFFF0F0010
:1045F00024100B40224B1A6842F080021A60214AB4
:10460000136813F0010FFBD1136813F0020FF7D1F9
:104610001D4B18604FF0807319481C490268013B1C
:104620000A4002D1002BF9D102E00BB1012A08D0D7
:10463000134A136843F4702343F00103136001200D
:1046400070470F4B1B6813F0800F06D00C4B1A6895
:1046500042F001121A6003207047094B1B6813F4E3
:10466000803F06D0064B1A6842F001121A600520FE
:104670007047034B1A6842F001021A60002070472D
:1046800030100B4024100B400C100B4001000E00AA
:10469000F8B50022104B1A601048FFF7ABFF6324F7
:1046A0000F4D0D4F0D4E06E000233B603046FFF7E7
:1046B000A1FF013C06D02B6813F0040F08D000289E
:1046C000F2D0F8BD30B90CB10020F8BD0520F8BD1E
:1046D0000028F9D0F8BD00BF08100B400000DB0C2B
:1046E00024100B4010B504460022094B1A600948FB
:1046F000FFF780FF50B9084B1B68054B1C6007484B
:10470000FFF778FF18B9044A126810BD10BD10BD3C
:1047100008100B4000001A3710100B40000002294F
:10472000084B1B784BB9074B9B7843B1054B5B7823
:10473000002B14BF03200220704700207047012087
:10474000704700BF2824FF1FF8B5A24B1A6842F437
:1047500000321A6008331A6842F400521A600433B7
:104760001A6842F002021A6004331A6842F0020228
:104770001A60994B1A6822F001021A60FFF7FEFED8
:10478000964A974B1A601A46136813F0807FFBD144
:104790000022944B1A604FF48132BC3B1A602822ED
:1047A00024331A604FF010121C331A6041F2D0000B
:1047B000FFF7F4FE8C4A136813F0030FFBD1FFF7E9
:1047C000C9FE4FF6FF72894B1A60894A04331A609A
:1047D0004FF4FA71824A136843F000631360136860
:1047E00013F0006FFBD10139F5D1804B1A6842F00C
:1047F00080021A600C3B1B6813F4803F00F01E819E
:1048000025E17C4B1B684FF4D5727B4B1A607B48CB
:10481000FFF7F0FE20B111E00120794B1870F8BDD0
:10482000744B1A681B68B3F5D57F03D00120744B15
:104830001870F8BD0122724B5A7005E0052803D0AC
:1048400001206F4B1870F8BD0020FFF74BFF18B127
:1048500001206B4B1870F8BD664B1B6813F4401FAA
:104860001FD0674B5B78002B664F08BF4FF4401793
:104870000024604E644D01343846FFF733FF0028B2
:1048800040F0DA803368002BC0F2F080AC42F2D105
:1048900004E0584B1B6813F0804F02D10022584BA4
:1048A0005A700022544B1A605848FFF7A3FE48B9CB
:1048B000504B1B680022504B1A605548FFF79AFE78
:1048C00020B111E001204E4B1870F8BD494B1A6819
:1048D0001B681B0C1B044A4A5360474A13604D482F
:1048E000FFF788FE20B1C6E00120454B1870F8BDE7
:1048F000494B1A68120E424BDA70484B1B6813F48E
:10490000400F16D1444B1968186800F00300043BAF
:104910001A681B68920D42EA80220132C3F3C21367
:1049200002339A40C1F30323093B9A40344B9A6007
:1049300009E0334B01229A70394A1268C2F31522FA
:10494000013292029A602E4B5A682B4B1A603548FE
:10495000FFF750FE50B9274B1B684FF40072264BEF
:104960001A603148FFF746FE20B10FE00120244BCA
:104970001870F8BD1F4B1B68214B5A681E4B1A60FC
:104980002A48FFF737FE002879D103E001201C4BAD
:104990001870F8BD174B1B680222174B1A60244889
:1049A000FFF728FE00286AD1124B1B68214B1A68BA
:1049B00022F006021A601A6842F002021A60FFF73B
:1049C000DDFD4FF49870FFF7E9FDFFF7C3FD0C4BD9
:1049D0001878F8BD3080044000D00040008000010D
:1049E0002C100B40C0100B4024100B4030100B401B
:1049F000BB007F1110100B4008100B4000001A087C
:104A00002824FF1F00003040A0860100000009029A
:104A100000001A030000090918100B401C100B407D
:104A200014100B4000001B0700001A1000001A377A
:104A300000001A0628100B400120F8BD124B02207E
:104A4000187000225A605A709A709A60F8BD0E4B26
:104A50000020187058605870987098600B4B186060
:104A6000FFF7C8FD00283FF4CCAED5E6084B9C42CA
:104A70003FF614AF0DE70120034B1870F8BD01207D
:104A8000014B1870F8BD00BF2824FF1F08100B4011
:104A90009F86010070B50446364B1B78002B65D10C
:104AA000344B5B7803B949024FF6FF72324B1A6000
:104AB000283B19604FF48132043B1A602F48FFF7FE
:104AC00099FD002854D12E4B1B682B4A136843F0E4
:104AD0002001116013F4E00F12D007E02B6843F0BF
:104AE00020062E60403213F4E00F0FD043F4E003B1
:104AF00043F02003204A1360FFF7CAFD01202CE099
:104B0000224604F5E0701F4C1F491B4D236813F427
:104B1000006FFBD00B6813600B6853600B689360E9
:104B20000B68D3600B6813610B6853610B6893616A
:104B30000B68D3610B6813620B6853620B68936256
:104B40000B68D3620B6813630B6853630B68936342
:104B50000B68D3638242C1D10020074A136813F067
:104B6000020FFBD0094A044B1A6070BD032070BDD0
:104B700070BD00BF2824FF1F30100B4010003A11F9
:104B800010100B4024100B4020100B40220000019D
:104B900070B506462D4B1B78002B53D12B4B5B7801
:104BA00003B949024FF6FF72294B1A60283B19607E
:104BB0004FF48132043B1A602648FFF71BFD0028A2
:104BC00042D1254B1B6806F50070214D234C2B6804
:104BD00013F0100FFBD02B6813F4E00F0AD01C4A1F
:104BE000136843F4E00343F010031360FFF750FD34
:104BF00001201EE006F14001334653F8042B2260E9
:104C00008B42FAD140362B6843F010032B602B689F
:104C100013F4E00F0AD00E4A136843F4E00343F0A4
:104C200010031360FFF734FD012002E08642CED16D
:104C30000020074A136813F0020FFBD0084A044B08
:104C40001A6070BD032070BD70BD00BF2824FF1F17
:104C500030100B4000003A1810100B4020100B4091
:104C600012000001084B1A6842F480621A604FF08B
:104C70000042DA62FF225A631A46D36A002BFCDA3A
:104C8000014B986BC0B2704700C00240064B1A68D7
:104C900042F480621A604FF00042DA6258631A46AA
:104CA000D36A002BFCDA704700C0024008B5052823
:104CB0001CD8DFE800F003070B0F13170E4A0F4B49
:104CC0001A6016E00C4A0D4B1A6012E00C4A0B4BAE
:104CD0001A600EE00B4A094B1A600AE00A4A074BB9
:104CE0001A6006E0094A054B1A6002E0084A034BC5
:104CF0001A6001F029FA08BD000001B83824FF1F2E
:104D00000110003803200038010002380430003858
:104D10000650013808B50078012101F0A5FE164BB8
:104D20001B78002B27D00022134B1A70134B1B78D3
:104D30000BB313F0010F03D0114B1A68114B1A601B
:104D40000E4B1B7813F0020F03D00D4B5A680E4B1D
:104D50001A600A4B1B7813F0040F03D0084B9A68B3
:104D60000A4B1A60054B1B7813F0080F03D0044B55
:104D7000DA68074B1A6008BD3C24FF1F7026FF1F2E
:104D80006026FF1F00E100E004E100E008E100E030
:104D90000CE100E010B52A4B1B78002B4BD101220F
:104DA000274B1A70274B1A68274B1B78002B35D0DE
:104DB00072B6254B1B7813F0010F07D0234B1C68EC
:104DC000234909682140234C216019601E4B1B7840
:104DD00013F0020F07D0204B1C681D494968214081
:104DE0001C4C61601960184B1B7813F0040F07D03E
:104DF0001A4B1C68164989682140164CA16019603D
:104E0000114B1B7813F0080F07D0154B1C68104985
:104E1000C96821400F4CE160196062B6114BDB6834
:104E2000934208D00F4B10491960DA6042F080427B
:104E30001A610E4A1A600078002101F015FE10BDBB
:104E40003C24FF1F3824FF1F7026FF1F80E100E075
:104E50005026FF1F6026FF1F84E100E088E100E08C
:104E60008CE100E000C0024001401F0000001F80F4
:104E700070B582B00E460B4B1B680093009C094D29
:104E8000A4B2FFF7EFFEFF2807D02B680193019B28
:104E90009BB21B1BB342F4DB01E0012000E00020C9
:104EA00002B070BD9426FF1FF8B505460F461646A2
:104EB0004FF49671FFF7DCFF47F04000FFF7E6FE86
:104EC000182426FA04F0C0B2FFF7E0FE083C14F103
:104ED000080FF6D127B1082F0CBF8720FF2000E074
:104EE0009520FFF7D3FE0024FFF7BCFE687010F09A
:104EF000800F03D00134B4F5807FF5D1F8BD00BF39
:104F00002DE9F04F87B004460191002383700270B1
:104F1000884B1B680393039FBFB21046012101F029
:104F2000A3FD2078012101F0D1FD2078012101F0BD
:104F30009BFD814B1A6842F480521A600620FFF7ED
:104F4000B5FE7E4B1A687E4B1B78002B35D072B6AF
:104F50007B4B1B7813F0010F07D07A4B18687A4906
:104F600009680140794801601960754B1B7813F09E
:104F7000020F07D0764B186873494968014073489F
:104F8000416019606E4B1B7813F0040F07D0714B12
:104F900018686D49896801406C4881601960684BE8
:104FA0001B7813F0080F07D06B4B18686649C96867
:104FB00001406648C160196062B6684BDB68934285
:104FC00000F0A980654B66491960DA6042F08042C2
:104FD0001A61644A1A609EE02846FFF757FE013EB8
:104FE00016F0FF06F8D1564B1B780BB313F0010FE8
:104FF00003D0564B1A685C4B1A60514B1B7813F068
:10500000020F03D0514B5A68584B1A604C4B1B7817
:1050100013F0040F03D04D4B9A68554B1A60484B60
:105020001B7813F0080F03D0484BDA68514B1A6015
:105030002046FFF7AFFE4FF00008DFF8F89008E0D9
:10504000D9F800300493049BDB1B9BB2B3F5FA6FD5
:105050005DD8204641464246FFF726FF0546607070
:105060000128EDD1204608214FF4D572FFF71CFF2F
:1050700010F0040F04D00123A3704FF0000A0FE0DA
:105080004FF00408FFF7EEFD607008F1FF3313F0F6
:10509000FF08F7D1AA283AD10223A3704FF0804A23
:1050A0004FF037094FF00008DFF888B008E0DBF870
:1050B00000300593059BDB1B9BB2B3F5FA6F26D836
:1050C000204649464246FFF7EFFE20462921524638
:1050D000FFF7EAFE60700028E9D1A378022B0ED119
:1050E00020463A210022FFF7DFFE80B9FFF7BAFD24
:1050F00000F0C000C02811D10323A3700EE02046A9
:10510000FFF708FE0198FFF7D1FD2E460DE020467F
:10511000FFF700FE09E00A26FF255DE7FFF7A2FD85
:10512000FFF7A0FDFFF79EFDE9E7304607B0BDE8B9
:10513000F08F00BF9426FF1F3C8004403824FF1FDF
:105140007026FF1F80E100E05026FF1F6026FF1F32
:1051500084E100E088E100E08CE100E000C0024072
:1051600001401F0000001F8000E100E004E100E0BA
:1051700008E100E00CE100E070B582B004460E4B9F
:105180001B680093009D0C4EADB207E0336801939D
:10519000019B9BB25B1BB3F5967F09DCFFF762FDB9
:1051A0006070FF28F2D0FE2814BF0020012000E02C
:1051B000002002B070BD00BF9426FF1FF8B5044662
:1051C0000D4616468378032B18BF4D02FFF7E2FD0C
:1051D000204611212A46FFF767FE002847D12046C6
:1051E000FFF7CAFF002842D0234B244A1A60244A02
:1051F0005A635A635A6306F5FD7E764513D2B01C96
:1052000006F5FE771946CB6A13F0F00FFBD04A6320
:105210008B6BC3F3072500F8025C00F8013C0230F9
:10522000B842F0D100E0B64606F5007676450DD9D5
:105230007146114AD36A13F0F00FFBD0936BC3F39E
:10524000072008704B7002318E42F3D80A4B0B4A8C
:105250001A600B4A5A631A46D36A13F0F00FFBD058
:10526000054B9B6B2046FFF755FD0120F8BD2046FE
:10527000FFF750FD0020F8BD00C0024000041F8071
:10528000FFFF0090F8B506461E4B186840F480609A
:1052900018604FF00040D8625963114602F500775C
:1052A0000446DA6A002A08DBFBE7DA6A002A0DDB2B
:1052B000FBE7D36A002B15DBFBE708460A781D687D
:1052C00045F480651D60DC625A63EEE742781D6834
:1052D00045F480651D60DC625A630231B942E0D159
:1052E000084AE6E7FF20FFF7D1FCFF20FFF7CEFCDE
:1052F000FFF7B8FC707000F01F00052814BF0020F5
:105300000120F8BD00C0024070B5044616460D46A7
:1053100029B38378032B18BF4D02FFF73BFD2046CE
:1053200018212A46FFF7C0FDC8B92046FE213246A3
:10533000FFF7A8FF98B120464FF41671FFF798FDCC
:1053400068B120460D210022FFF7AEFD38B9FFF706
:1053500089FC20B92046FFF7DDFC012070BD204606
:10536000FFF7D8FC002070BD014A024B1A6070475D
:10537000032000383824FF1F10B50446006A0121BD
:1053800004F1080200F0BCFD034650B1E3693BB9EB
:10539000A368E361637963F07F036371012300E035
:1053A0000123184610BD00BF70B50646FFF7E4FFA5
:1053B0000346E0B1336AB268023A197C02FA01F599
:1053C0005A6915441C794CB1013D281900F0CEFCF6
:1053D000034660B1013C14F0FF04F6D1336A1B7C34
:1053E0004FF400729A40B3691344B3610123184625
:1053F00070BD00BF10B50446006900F087FC20B105
:10540000207D034B03EB401010BD002010BD00BFFA
:105410004C24FF1F70B400231A462E26C45C202C97
:1054200009D0DCB2082C02D1541C8E54E2B2541CB8
:10543000C55C8D54E2B201330B2BEFD100238B54AA
:1054400070BC70472DE9F00100232022CA540133BB
:105450000B2BFBD10138002507264FF008084FF031
:105460000A0C1B4F21E02E2C01D03A4606E00A2EF2
:1054700024D04546664618E0A34221D012F8013FE9
:10548000002BF9D1AE421DD3A4F12103DBB25D2B79
:105490001AD86B1CDBB20D44A4F16102D2B2192AF6
:1054A0009CBF203CE4B22C701D4610F8014F002C2C
:1054B000D9D10878203818BF012006E0002004E088
:1054C000002002E0002000E00020BDE8F00170476D
:1054D0004724010038B504460D4683790BBB91F88B
:1054E0002020102A07D1022383710023C3614B8C33
:1054F0005B0183610CE0202A14D103238371496A84
:10550000C161284604F1180200F086FC034648B148
:105510002562012363710022A260E260226122758C
:1055200000E00023184638BD2DE9F04F83B0044653
:10553000884601928379002B75D0437913F0010FCF
:1055400074D08269C368D11A0198884201D98BB29C
:105550000193019B002B63D01D46DFF80CA1DFF8FF
:105560000C91DFF80CB1E368C3F30807A279022AB3
:1055700004D1226A516A01EB53211BE0206A0679AB
:10558000013E06EA5326F6B25FB956B913B9E3698C
:10559000A36006E0224652F8081F00F007FC00282E
:1055A00047D0226AA368023B117C03FA01F15269D9
:1055B00011443144C7F500739D42C6BF1E46B6B2C2
:1055C0002E46637913F0400F02D1B6F5007F3AD131
:1055D000D9F8003099423DD135E04046FFF75AFAFC
:1055E000D0F1010038BF002002E04246FFF7E6FD9F
:1055F00010B3B0440DE05744B819874209D03B4678
:10560000424613F8011B02F8011B8342F9D1C71B64
:10561000B844E3683344E360AD1BADB2002DA2D1C2
:10562000019B98B20DE04FF6FF700AE04FF6FF7055
:1056300007E04FF6FF7004E04FF6FF7001E04FF611
:10564000FF7000B20CE00846002100F05FFB00286C
:10565000D1D1F4E7DBF800000378FE2BC5D1BCE71D
:1056600003B0BDE8F08F00BF4C24FF1F6807FF1F89
:105670004824FF1F70B505460C468379012B1CD9C1
:10568000C36813F01F0F1AD1202609E0237883B1D5
:10569000E52B05D02E2B03D0E37A13F0080F10D0A2
:1056A000284621463246FFF73FFFC0B243B2202BC7
:1056B000ECD040F3C011C8B204E0FF2002E0FF20AC
:1056C00000E0202040B270BD30B583B0044683793D
:1056D000012B0FD9C5680DF107010122FFF724FF47
:1056E000012809D1E3681F33E36005F4F070044B2F
:1056F000184402E0002000E0002003B030BD00BFED
:105700004C24FF1FF8B504460F4683797BB38269AA
:105710008A422BD3022B02D1E160012327E021B979
:1057200000238360C360012321E0C368026A157C03
:1057300009355A1EEA40013921FA05F5AA4200D876
:1057400013B9E369A3600AE0AD1A08E0206AA16812
:10575000324600F02BFB013D034610B907E004F18F
:105760000806002DF2D1E760012300E0002318466F
:10577000F8BD00BF38B50446807918B394F90530F8
:10578000002B1BDA20460121FFF734FE0546C0B18D
:10579000A379012B9CBFA369C361A38B4383E38BD4
:1057A0008382094B1B682BB1183005F1160198470D
:1057B0002B8B6B82637903F07F03637100F066FAD1
:1057C00038BD002038BD00BF4024FF1F10B504467F
:1057D000FFF7D0FF034610B10023A3710123184641
:1057E00010BD00BFF0B583B004460D468379012B90
:1057F0004ED1427902F0020202F0FF01002A49D0A4
:105800008269AA4248D3002A47D0C6682946FFF7D2
:1058100079FF0346002840D04DB9206AE16900F0C5
:10582000D3FB0346002838D00023E3611DE0206A43
:10583000A16801AA00F0BAFAA8B1206A019990F80B
:1058400020704FF6F872164B102F08BF134699427E
:105850000BD200F0B9FB30B1206AA1686FF0704242
:1058600000F006FB08B9002317E0A561637963F037
:105870007F0363712046FFF77DFF034668B1204632
:10588000B54234BF29463146FFF73CFF034604E0EA
:10589000002302E00B4600E00023184603B0F0BDF1
:1058A000F8FFFF0F38B5044615461F4B03EB4113B5
:1058B000DA7A12F0110F02D015F0420F2CD12175B7
:1058C0001A4A12682261998A0904E1615A8B1143CC
:1058D000E161D87A10F0180004D1DB69A3610123DB
:1058E000A3710AE0102819D1206A04F1180200F00F
:1058F00093FA0346A8B10423A37105F00F03637163
:105900000023A360E36015F0400F09D0204619463C
:10591000FFF768FF034604E0002302E0002300E0F5
:105920000123184638BD00BF4C24FF1F6807FF1F26
:105930002DE9F04F85B005460C469A468679002E33
:105940007FD1104601A9FFF77DFD00287BD0236A97
:105950002B620027A760E760DFF8FC904FF001089A
:1059600025E0C1F3431B2046FFF7AEFE01460028A9
:105970006AD003780BB1E52B09D12FB985F814B0A3
:10598000D9F800302B6147460B7883B913E001A8A2
:105990000B2206F0A9F850B90AF03003302B53D08F
:1059A000284659465246FFF77DFF06464CE0E1681F
:1059B000A3699942D5D30AF01203122B44D137B10F
:1059C00028460121FFF716FD044660B93CE0A379A3
:1059D000022B39D02046FFF7E7FC0646002833D0DB
:1059E00000232B751A4C20460021202206F010F9C6
:1059F00001AB03CB206061601A889B782281A3727F
:105A0000144B1B682BB104F1100004F10E019847F0
:105A100007E021232374282363740023A37308233E
:105A2000E373238A63822383E389E38200F02EF900
:105A3000064648B12846297D5246FFF733FF064601
:105A400002E0002600E00646304605B0BDE8F08FD3
:105A50004C24FF1F4024FF1F6807FF1F2DE9F04F54
:105A600085B00446884601928379012B40F0CB80B3
:105A7000437913F0020F00F0C68013F0040F08D032
:105A80008169C3688B4204D0FFF73CFE002800F018
:105A9000BA80019A002A00F099801646DFF8CCA15E
:105AA000DFF8CCB1206AE76890F8049009F1FF397B
:105AB00009EA5729C7F3080719F0FF092AD1002F6F
:105AC00040F0A580A16851B9E36933B92046FFF7DA
:105AD00053FC002840F0AC8095E0A360A8E003AA46
