:1000000000000320D1010000019A0000B99900000E
:10001000B9990000B9990000B9990000B999000098
:10002000B9990000B9990000B9990000019A00003F
:10003000019A0000B999000035AA000039AA000011
:10004000019A0000019A0000019A0000019A000044
:10005000019A0000019A0000019A0000019A000034
:10006000019A0000019A0000019A0000019A000024
:10007000019A0000019A0000019A0000019A000014
:10008000019A0000019A0000019A0000019A000004
:10009000019A0000019A0000019A0000019A0000F4
:1000A000019A0000019A0000019A0000019A0000E4
:1000B000019A0000019A0000019A0000019A0000D4
:1000C000019A0000019A0000019A0000019A0000C4
:1000D000019A0000019A0000019A0000019A0000B4
:1000E000019A0000019A0000019A0000019A0000A4
:1000F000019A0000019A0000019A0000019A000094
:1001000025AB000039AB00004DAB000061AB000037
:10011000019A0000C99F0000019A0000019A0000A6
:10012000019A0000019A0000019A0000019A000063
:10013000019A0000019A0000019A0000019A000053
:10014000019A0000019A0000019A0000019A000043
:10015000019A0000019A0000019A0000019A000033
:10016000019A0000019A0000019A0000019A000023
:10017000019A0000019A0000019A0000019A000013
:10018000019A0000019A0000019A0000019A000003
:10019000019A0000019A0000019A0000019A0000F3
:1001A000019A0000019A0000019A0000019A0000E3
:1001B000019A0000019A0000019A0000019A0000D3
:1001C000019A0000019A0000019A0000019A0000C3
:1001D0005C4B4CF2205210B51A804DF628121A8052
:1001E00000BF00BF09F010FC574B4FF030621A609F
:1001F000564A9A60564ADA60564B4FF470021A60BB
:10020000554B564A1A60564B1A78110703D51A787F
:1002100042F008021A70534B5349AA221A70534AEB
:10022000534B8B4204D252F8040F43F8040BF8E707
:10023000504B514900228B4202D243F8042BFAE77B
:100240004E494F4A002352F8230041F8230001335E
:10025000742BF8D14B4B4C4A802103F8011B93427D
:10026000FBD14A4B454A1A60494B8A221A70A3F5C2
:10027000805324225A70A0221A709A799207FCD5D2
:100280009A79D406FCD4434A937903F00C03082BE3
:10029000FAD1414B60221A7002331A78802AFCD1BD
:1002A0003C4B01221A715D225A719A799006FCD555
:1002B0009979384A4906FBD5384B394919600021EC
:1002C000596020231370937903F00C030C2BFAD19F
:1002D000344B354A1A60354A354C136813F4807331
:1002E00003D123604FF4A8531360324B324A1A6093
:1002F00000225A60072243F8042C304AC3F80C2D20
:1003000062B609F025FD2368DA0705D52C4809F007
:1003100047FC2C4B2C4A1A602C4B1B785B0609D5EA
:10032000284C294B22689A4204D1254809F038FC10
:100330000023236009F06EFB0BF07CFB0AF05CFCF1
:10034000FEE700BF0E20054030800440823F0400DD
:100350000100002B88ED00E0002008E0030000858C
:1003600002D0074000E00740B011FF1F542E0100EB
:100370003007FF1FB011FF1F3837FF1F0002FF1F9C
:100380000000000000E400E064E400E008ED00E0AC
:10039000005006400040064001E007404480044011
:1003A0000000060204800440C010070010D0034083
:1003B00014D0034014E000E01FBF02000000202022
:1003C0008348C4621CE00340A5C3945A00F0074070
:1003D000FFFFFFFFFFFFFFFFFFFFFFFFFFFFFFFF2D
:1003E000FFFFFFFFFFFFFFFFFFFFFFFFFFFFFFFF1D
:1003F000FFFFFFFFFFFFFFFFFFFFFFFFFFFFFFFF0D
:10040000FFFFFFFFFFFFFFFFFFFFFFFFDEF9FFFF23
:1004100010B5054C237833B9044B13B10448AFF33E
:1004200000800123237010BDB011FF1F00000000E9
:10043000502E0100084B10B51BB108490848AFF316
:1004400000800848036803B910BD074B002BFBD0A0
:10045000BDE81040184700BF00000000B411FF1FA6
:10046000502E0100B011FF1F0000000038B50D46EE
:1004700004460221E8B209F0EFFB0A204FF47A713A
:100480000022012360602560A1602275236120465F
:1004900038BD00BF38B505460C46C8B2022109F088
:1004A000DBFB2C6038BD00BF08B5007809F0C6FB47
:1004B00000280CBF0220002008BD00BF70B5184EF8
:1004C00082B03368009304460078009D09F0B6FBC3
:1004D00090B92369012B16D0E2686368AD1A9D427A
:1004E00006D9237DB3B1A3689D428CBF03200220AF
:1004F0000023236102B070BD00200123E06020755D
:10050000236102B070BD33680193019BE360002357
:100510002361EFE70120002320752361EAE700BF94
:10052000B835FF1F054B064819780131C9B20629B5
:1005300088BF0021197000F04DBA00BFCC11FF1F19
:100540009412FF1F002280210172426002707047E6
:1005500003788B420DD0072901700BD010B50446EB
:1005600004300AF0BDFA21780548BDE8104000F0DB
:1005700031BA70470430034A03490AF067BA00BF32
:100580009412FF1FFFA393D625050000806C7047CF
:10059000406C7047ABB1B1F5805F12DA2DE9F041E4
:1005A0001D460F46561EC1F580580024E01909F07B
:1005B000BBF90134A54206F8010F04D12846BDE875
:1005C000F081002070474445F0D12046BDE8F0811D
:1005D000ABB1B1F5805F12DA2DE9F0411D460F464F
:1005E000561EC1F580580024E01916F8011F013489
:1005F00009F0B4F9A54204D12846BDE8F0810020F5
:1006000070474445F0D12046BDE8F0810D2170B51A
:1006100006460160002009F0A1F935460124204674
:1006200015F8011F013409F099F9042CF7D121467E
:100630004023321D3046FFF7CBFF012070BD00BFC5
:10064000036B013B032B17D8DFE803F013100D02F7
:10065000142383644369013B052B26D8DFE803F0AC
:10066000211D1915120F0A238364F3E70523836400
:10067000F0E702238364EDE700238364EAE70D4B90
:10068000436470470C4B436470474EF660234364E9
:10069000704747F230534364704743F698234364EE
:1006A000704742F210734364704741F288334364E9
:1006B000704700BFE0930400C0D40100F8B50D46B8
:1006C000064617460FCD341D0FC40FCD0FC40FCDF6
:1006D0000FC495E80F0084E80F002FB930460121C0
:1006E000FFF7AEFF0846F8BD3046FFF78FFF014623
:1006F0003046FFF7A5FF0846F8BD00BF70B50646B7
:10070000002009F011F9354630700124204609F027
:100710000BF90134042C05F8010FF7D133680D2BC8
:1007200001D0002070BD21464023321D3046FFF726
:1007300031FF3046FFF784FF012070BD03680D2BA9
:1007400010B5044601D0FFF7D9FF201D10BD00BF32
:10075000002138B54022044640F8041B0BF056FD3A
:100760002046FFF7CBFFC8B90A2305466060A060AA
:10077000E060606123610922094904F1180008F072
:1007800025FE2046A562E56225636563A563E563F2
:100790002564FFF755FF2046FFF738FF204638BD98
:1007A0001804010009F076B8F0B442F20C0100F52B
:1007B0000057002242F2040642F208050346425066
:1007C0004418386042F2140100F58057875158519F
:1007D00042F2180742F21C0642F220054250C8219C
:1007E000C251825142552171F0BC70472DE9F04F42
:1007F00089B0144601919DF8042002948346079223
:1008000010469DF808201D460121144609F024FADF
:1008100003959DF80C20049420460121154609F00B
:100820001BFA9DF84820059528460121164609F037
:1008300013FA9DF84CA006963046012109F00CFAF7
:100840009DF858905046012109F006FA9DF85C8009
:100850004846012109F000FA9DF8607040460121E8
:1008600009F0FAF99DF864603846012109F0F4F9BD
:100870009DF868503046012109F0EEF99DF86C4072
:100880002846012109F0E8F92046012109F0E4F9A0
:10089000079A0021104609F0CBF90498002109F0CD
:1008A000C7F90598002109F0C3F90698002109F05D
:1008B000BFF95046002109F0BBF94846002109F074
:1008C000B7F94046002109F0B3F93846002109F094
:1008D000AFF93046002109F0ABF92846002109F0B4
:1008E000A7F942F2280A2046002109F0A1F942F2B4
:1008F0002C09019B4BF80A3042F23008029B4BF85E
:10090000093042F2340C039B4BF8083042F2380EA7
:10091000129B4BF80C3042F23C07139B4BF80E3005
:100920000BF50156149B4BF8073042F24405159B1A
:10093000336042F24804169B4BF8053042F24C00FB
:10094000179B4BF8043042F25001189B4BF80030D3
:1009500042F25402199B4BF801301A9B4BF80230BB
:100960001B9B42F258024BF8023009B0BDE8F08FF1
:1009700042F22403064AC158064B00F500500129F3
:100980000CBF114619460C303B220AF05FB800BF7D
:1009900015110000790D000010B5044600F5005057
:1009A0000C300AF09DF842F22802044BA25C53F886
:1009B0003230012283F8802010BD00BF40290100A1
:1009C0003F299BBF42F21C0201230023815018469D
:1009D000704700BF07299BBF42F22002012300237A
:1009E00081541846704700BF38B542F204050446EA
:1009F0004FF48052405908F0E9FC04F50053615966
:100A00001A681960625138BD42F22403C150704720
:100A10002DE9F04F8BB0054642F21801059042F2E5
:100A2000080242F220002C46AA58285C6D58214644
:100A300001F5005942F2140301F5015E4946E658FA
:100A4000BA4C02EBC51CCA460A46013065460AF19B
:100A5000300A3832012340F30007C84640F3400013
:100A600003FA06F605F60205CDF804A0039201F19B
:100A7000340A01F128020492FFB2C0B20CF1020C58
:100A8000F6B209F11C090EF1180E08F12C08CDF888
:100A900008A000220095A9E0DEF800B000991CF83B
:100AA00002AC11F8021CA14D5FFA8BFB06EA0A0AA0
:100AB00054F83BB08BF80031D8F800B05FFA8BFBEC
:100AC0001AEA070F55F83BB0019D14BF8BF8803030
:100AD0008BF80031D5F800B0029D5FFA8BFB3140F6
:100AE00054F83BB0394214BF8BF880308BF800319A
:100AF000D5F800B0039D5FFA8BFB10EA0A0F54F89B
:100B00003BA014BF8AF880308AF80031D5F800A0E5
:100B10005FFA8AFA084254F83A1014BF81F880301C
:100B200081F800319EF8001054F8311081F88030BF
:100B3000D9F8001002F1010A514563D0DEF800B087
:100B400000991CF801AC11F8011C784D5FFA8BFB81
:100B500006EA0A0A54F83BB08BF80031D8F800B026
:100B60005FFA8BFB1AEA070F55F83BB0019D14BFE3
:100B70008BF880308BF80031D5F800B0029D5FFA19
:100B80008BFB314054F83BB0394214BF8BF88030B6
:100B90008BF80031D5F800B0039D5FFA8BFB10EAAB
:100BA0000A0F54F83BA014BF8AF880308AF800314D
:100BB000D5F800A0009D5FFA8AFA084254F83A106E
:100BC000DFF868A114BF81F8803081F800319EF809
:100BD0000010023254F831100235802A81F880303A
:100BE0000CF1020C00954FF0010113D0D9F8001060
:100BF00091427FF451AF0499097854F8311081F88B
:100C0000803049E70499494D097855F8311081F849
:100C1000803093E7059D0598059F42F2540242F209
:100C20001803AA5C5AF8322082F88010EA5842F27F
:100C30004403D607EB58DBB242F218025AF83330BD
:100C40004CBF83F8801083F8001142F248038258A9
:100C5000C3580598DBB212F0020F54F833304FF04E
:100C6000010214BF83F8802083F8002142F24C0374
:100C700042F21802C35882580598DBB212F0040FF2
:100C800054F833304FF0010214BF83F8802083F80A
:100C9000002142F2500342F21802C3588258DBB2DC
:100CA00012F0080F54F833304FF0010214BF83F8EC
:100CB000802083F8002142F254021D4BBA5C42F2BC
:100CC000280654F83220012582F800510FCBBE5D72
:100CD00054F8366086F800510AAD05E90F0042F27B
:100CE000140442F218013A597B5805EB8200013393
:100CF000DD0650F8100C14D5059D013200236B5011
:100D000051070AD5059E06F5005142F2080209680E
:100D10003351B1500BB0BDE8F08F2A510BB0BDE894
:100D2000F08F7B500BB0BDE8F08F00BF4029010071
:100D30002404010038B500F500540C340546204663
:100D400009F0CEFE2846FFF763FE002803DB084BC0
:100D5000421E9A4200D938BDC0EB00108200013A11
:100D6000232AF8D920460349BDE8384009F06EBE71
:100D700047444404790D000008B572B60248FFF7F5
:100D8000D9FF62B608BD00BF9412FF1F2DE9F04FD6
:100D90008BB00746059042F2080242F2180042F278
:100DA000140342F2200107F50059BA583858FD588B
:100DB000795CC54C07F5015E4F4602EBC01CCA4684
:100DC0003A46013160460AF1300A3832012341F3D4
:100DD0000006C84641F3400103FA05F500F602009B
:100DE000CDF80CA0029207F1340A07F12802049210
:100DF000F6B2C9B20CF1020CEDB209F11C090EF108
:100E0000180E08F12C08CDF804A000220090BBE0D9
:100E1000DEF800B000981CF802AC10F8027CAA487A
:100E20005FFA8BFB15EA0A0F54F83BB08BF80031E0
:100E3000D8F800B05FFA8BFB08BF4FF0010A50F8FA
:100E40003BB0039818BF4FF0000A3D420CBF01278A
:100E500000271AEA060F14BF8BF880308BF8003198
:100E6000D0F800B001985FFA8BFB374254F83BB0E2
:100E700014BF8BF880308BF80031D0F800B00298A6
:100E80005FFA8BFB11EA0A0F54F83BA014BF8AF8F3
:100E900080308AF80031D0F800A05FFA8AFA39422F
:100EA00054F83A7014BF87F8803087F800319EF804
:100EB000007054F8377087F88030D9F8007002F16C
:100EC000010A57456CD0DEF800B000981CF801AC60
:100ED00010F8017C7C485FFA8BFB15EA0A0F54F886
:100EE0003BB08BF80031D8F800B05FFA8BFB08BF3D
:100EF0004FF0010A50F83BB0039818BF4FF0000ABA
:100F00003D420CBF012700271AEA060F14BF8BF8D9
:100F100080308BF80031D0F800B001985FFA8BFB7D
:100F2000374254F83BB014BF8BF880308BF8003157
:100F3000D0F800B002985FFA8BFB11EA0A0F54F860
:100F40003BA014BF8AF880308AF80031D0F800A0A6
:100F500000985FFA8AFA394254F83A70DFF868A1CB
:100F600014BF87F8803087F800319EF80070023295
:100F700054F837700230802A87F880300CF1020C68
:100F800000904FF0010713D0D9F8007097427FF41A
:100F90003FAF0498077854F8377087F8803037E708
:100FA00004980778484850F8377087F880308AE707
:100FB000059842F2540242F21803825C5AF8322039
:100FC00082F88070C25842F24403D607C35805988D
:100FD000DBB242F218025AF833304CBF83F880700B
:100FE00083F8007142F248038258C3580598059F60
:100FF000DBB212F0020F54F833304FF0010214BF8D
:1010000083F8802083F8002142F24C0342F2180258
:10101000C35882580598DBB212F0040F54F83330ED
:101020004FF0010214BF83F8802083F8002142F2C0
:10103000500342F21802C3588258DBB212F0080F74
:1010400054F833304FF0010214BF83F8802083F846
:10105000002142F254021D4BBA5C42F2280654F8B9
:101060003220012582F800510FCBBE5D54F8366066
:1010700086F800510AAD05E90F0042F2140442F26D
:1010800018013A597B5805EB82000133DD0650F810
:10109000100C14D5059D013200236B5051070AD561
:1010A000059E06F5005142F2080209683351B1501D
:1010B0000BB0BDE8F08F2A510BB0BDE8F08F7B502C
:1010C0000BB0BDE8F08F00BF4029010024040100EF
:1010D00038B500F500540C340546204609F000FDF3
:1010E0002846FFF753FE002803DB084B421E9A42B6
:1010F00000D938BDC0EB00108200013A232AF8D98C
:1011000020460349BDE8384009F0A0BC47444404E8
:101110001511000008B572B60248FFF7D9FF62B694
:1011200008BD00BF9412FF1F38B500F5805241F290
:1011300004038025202115600446C1504FF48052DD
:1011400000210BF063F8204638BD00BF01F00F010D
:101150004FF480520BF05AB82DE9F04F83B00C9C3D
:1011600002EB04094A4530DA154698460F9A0E9B61
:1011700003EBC21AC5EB0A0301930D9B83460E468F
:1011800008EB030747451DDD019BEB180BEB030A3A
:10119000444606E001349AF800000AF8800BA742A2
:1011A00010D022462946304601F0B4F90028F1D18A
:1011B00022462946304601F075F90134A7420AF863
:1011C000800BEED101354D45DCD103B0BDE8F08F89
:1011D000002070474FF0FF30704700BF10B5044B40
:1011E000044640F8103B05F057FF204610BD00BFF5
:1011F0003C040100836C13B1184605F09FB8C06C25
:1012000008B104F08DB87047836C13B1184604F030
:101210005BBFC06C08B103F079BC4FF0FF30704782
:10122000826C62B1137803F0080303F0FF0003B38C
:10123000D3695069181A48BF6FF000407047C16CFD
:10124000C1B191F8313003F0080303F0FF0083B11E
:10125000D1E90423D1E90001101A30B463EB010194
:1012600000256FF000448D4208BF844200D2204622
:1012700030BC70470846704700B5836C83B063B1DB
:10128000184601220DF1070104F04EFE01280CD191
:101290009DF8070003B05DF804FBC06C28B1012283
:1012A0000DF1070103F05EFBF0E74FF0FF30F1E7CF
:1012B00000B5836C83B08DF8071043B11846012246
:1012C0000DF1070105F040F803B05DF804FBC06CB8
:1012D0000028F9D001220DF1070104F037F903B01D
:1012E0005DF804FB836C13B1184605F02DB8C06C93
:1012F00008B104F02BB97047F0B5334E34688FB0A5
:1013000014B3D4F8805475B10024294623462F4ADB
:101310008DF8004068468DF801408DF8024004F0D9
:10132000F5FD0FB0F0BDD4F8841400293FD02B4652
:10133000264A8DF8315068468DF832508DF833507A
:1013400003F0DEFE0FB0F0BD40F2B44009F05CFCEB
:1013500005461F4BDFF880E0C5F8903400F5926732
:10136000012229231B48C5F880442146C5F884443E
:1013700085F8984485F8994485F8B244C5F89C04EA
:10138000C5F8A4E485F8AD2485F8AF343846356057
:1013900007F05CF83846C5F88C7406F0FFFB04468D
:1013A00028B9D5F88C14284605F02CFF10B9002078
:1013B0000FB0F0BD3368D3F88054002DA5D1D3F819
:1013C00084140029B3D1F2E7C433FF1F5C0C010081
:1013D0008C280100342801000320003810B5064C89
:1013E000206828B140F2B44109F014FC00232360C6
:1013F000BDE81040FFF780BFC433FF1F2DE9F04F59
:10140000A54D2B68ADF58D5D13F0010487B000F09C
:101410001481A24C2368D90740F1FD80A04C2368B9
:10142000DA0740F1EE80DFF8D8920EAD6CA8FFF736
:101430007BFE0CA800F0F0FF10A800F0EDFFD9F83B
:10144000003045F8103C55F8108C03F0A1F9044623
:101450009448FFF773F9944B026B1B88D0F804B0E3
:10146000049223B1914EB36C002B00F0F681904BA7
:10147000A3FB08239B0655BF8E4B8F4BDFF884A23E
:10148000DFF884A22022BBF1010F1A60204600F091
:10149000A180BBF1020F37D007F046FE064620467A
:1014A00007F064FE14AC03463246204683490BF035
:1014B000CFFB7D4B1B88002B4BD0DFF850B280490F
:1014C000DBF800200968C2EB08028A4241D37D4F55
:1014D0003A68002A00F0CA807B4D2A68002A40F052
:1014E000D1807A4801F058FE002840F011812A6826
:1014F000754E002A40F00283C6F800806B4973489D
:101500000E4601F059FE0DE107F01CFE704A714BCA
:101510000928CCBF93469B46204607F013FE06469B
:10152000204607F023FE044607F0FCFE6A4B6B4A98
:101530000094002814BF1846104614AC334601909E
:101540005A46204666490BF083FB574B1B88002BFD
:10155000B3D1644922465346086810A901F064FAE1
:1015600000216CA8FFF7F2FD10A800F0F5FF064679
:1015700010A800F0F3FF054610A800F0EDFF0446A8
:1015800010A800F0EBFFC4F17F03C0F11F0003EBD4
:10159000D37300EBD0705A104010002303900292D6
:1015A00000961A46019510A96CA8FFF7D5FD049B7B
:1015B000002B40F0AA816CA94B48FFF715FA10A840
:1015C00000F0F8FF0CA800F0F5FF0DF58D5D07B0F9
:1015D000BDE8F08F07F0B6FD3E4E3D4B0928C8BF71
:1015E0001E46204607F0AEFD8346204607F0BEFDAE
:1015F00014AC009032465B4620463C490BF028FB79
:1016000057E7204608F01EFADFF8F490002840F073
:1016100023820EAD0AE7204608F014FA00283FF4B2
:10162000FDAE2A4801F0FAFB204608F011FA304AD4
:101630003049264809F0D0FBF0E6284608F002FAC7
:1016400000283FF4E6AE194E2B4B34714FF47A72FA
:101650002846B2603473B464F464336008F0F8F977
:101660003046234A254909F0B7FBD2E6D9F80020D5
:1016700045F80C2C55F80C2C134D3A602A68002ABA
:101680003FF42FAF1148C2EB080601F0D7FD8642A8
:101690003FF627AF054E45E09012FF1F8012FF1F57
:1016A0002C12FF1F6033FF1F4633FF1F3012FF1F36
:1016B000D34D621084F00F4088F00F409C0C010065
:1016C0008412FF1FE811FF1F8812FF1FEC11FF1F7C
:1016D00078260100740C0100780C010064270100D9
:1016E000B40C01002412FF1F9412FF1FA80C01006C
:1016F0003007FF1F312E000060040100DD110000E3
:10170000B835FF1F640C01006C0C01002812FF1F8C
:10171000A34EB26C002A00F0F881A24805F0BCFC90
:10172000FFF75CFEB26C9E49002A00F0A2819E4841
:1017300001F0A0FD012840F077810020224610A989
:1017400053466071994801F06FF9974801F094FD94
:10175000044610A800F000FF00EBD0739248A4EB01
:10176000630401F08BFD054610A800F0F7FE00EBC6
:10177000D070A5EB60058C4801F05EFD01460CA819
:1017800000F056FF884801F067FD0746002840F04A
:10179000258110A800F0E0FE804610A800F0DEFED3
:1017A0003B463A4610A9019002946CA8CDF80080FF
:1017B0000395FFF7D1FC0CA800F0CEFE04460CA860
:1017C00000F0CCFE00940190039702973B463A4606
:1017D0000CA96CA8FFF7C0FC049B002B3FF4EBAEF8
:1017E000B36C6F4A002B00F0D1810DF1B00A504666
:1017F00000F012FE0023B06C8DF8603018AB684A20
:101800000493002800F096810D22049904F0E6FE6E
:101810002E2104980BF042FA08B100230370049AB9
:1018200063485146002301F0FFF8504600F0AAFE3D
:10183000504600F091FE0446504600F08FFE002313
:10184000019000946CA8039302931A465146FFF747
:1018500083FC504600F0AEFEADE6F36C1F46002B55
:101860007FF405AE5348FEF791FE82465148FEF7DD
:101870008FFE514B1860514B0593BAF1000F6BD19D
:101880004F4B06930DF1B00A049B002B73D14D4BC7
:101890004D4A10881A68079209F0AAF9079A4B492D
:1018A00000EB400300EB8300024450460BF0D0F9FC
:1018B000069B5246196818A8002305F007FD384B0F
:1018C0009DF864101A9A9DF86CE031710DF1700A60
:1018D000514603F11000B26086F80CE005F0F0FB11
:1018E0003B4B1893504605F0D7FBB36C002B00F030
:1018F00011812B492C4801F0A3FA002800F0138134
:10190000059A138801331380B1E518A800F084FD0F
:10191000304B31491A682CA80BF09AF92CAA18A957
:101920000023234801F080F818A800F02BFE18A827
:1019300000F012FE044618A800F010FE00230190EB
:1019400000946CA818A9039302931A46FFF704FCAD
:1019500018A800F02FFE2EE6188890FBFAF30AFB79
:1019600013000028164B069340F3ED80049B0DF105
:10197000B00A002B8BD0059B1A88134B1B88B2FB37
:10198000F3F103FB11230F4A104912689BB203EBDA
:10199000430003EB80031A4450460BF059F987E7E4
:1019A0003012FF1F4012FF1FEC11FF1FC833FF1F33
:1019B0002033FF1F6033FF1F8412FF1F2012FF1F01
:1019C000C433FF1F1C12FF1F4633FF1F900C010082
:1019D0003C0401008C12FF1FC00C01000CA800F099
:1019E000BBFD80460CA800F0B9FD00273B463A46F7
:1019F0000CA9CDF80080019003976CA80297FFF71F
:101A0000ABFB10A800F0A8FD804610A800F0A6FDD2
:101A1000CDF800800190039502943B463A4610A908
:101A20006CA8FFF799FBD7E664492246534608683D
:101A300010A900F0F9FF10A800F08EFDC0F17F00A2
:101A400000EBD07410A800F089FDC0F11F0000EB7E
:101A5000D070641045108EE60EADD9F80020584BBA
:101A600045F8142C55F8142C1A60204607F0F0FFA6
:101A7000DCE4CB6C0593002B7FF459AED9F8002041
:101A80002C9239682C9E059B4C4ADFF848E12B606C
:101A9000059D10683D6053462246741A10A9CEF881
:101AA0000040CBF8008000F0BFFF29466CA8FFF78C
:101AB0004DFB10A800F050FD064610A800F04EFDAA
:101AC0002F46054610A800F047FD044610A800F078
:101AD00045FDC4F17F03C0F11F0000EBD07003EBA4
:101AE000D37340105B1003900293009601953B4620
:101AF0003A4610A96CA8FFF72FFB5CE5314801F0CE
:101B00009DFB326810443060F8E4F26C002A7FF4E8
:101B100004AE05E62C4BDB6C002B7FF4EAAE2948C3
:101B200001F01EFBECE6274801F01AFB274805F000
:101B3000B3FAE5E6D06C00283FF46AAE0D220499B2
:101B400002F042FE64E61B68D3F880E4BEF1000FA9
:101B500021D00DF1B00A71463B4650461C4A8DF823
:101B6000B0708AF801708AF8027004F0CFF900288A
:101B70003FF48AAEDFF858C0BCE80F00D646AEE8A6
:101B80000F00DCF80030AEF8003091E6D36C002B8B
:101B90007FF42BAE0FE5D3F884140DF1B00A0029C1
:101BA0003FF472AE73465046094A8AF831E08AF82B
:101BB00032E08AF833E003F0A3FAD8E72412FF1FDB
:101BC0002812FF1FEC11FF1F3012FF1F4012FF1FD2
:101BD0007C0C01008C12FF1F2DE9F0434B4B4C4A4B
:101BE0001968AFB0002306A805F070FB494B189A9E
:101BF0001A934FF47A7100238DF86C308DF874309D
:101C00002C932D931C91002A7AD0DFF81C81D8F8F0
:101C1000000030B109F03EFF3F4A00231380C8F8AE
:101C200000300AAE1EAD002231462846DFF8F8909B
:101C3000394F05F0B5FA002835D02C9800238DF8DF
:101C40000830002844D002AC21460D2204F0C6FC26
:101C5000F8B1324920460BF097F8D0B1D8F80030EF
:101C6000002B3ED03A88013292B202EB4201184674
:101C700002EB81013A800AF0E1FD3B88C9F80000DF
:101C800003EB430203EB82030D3B214618440BF0A8
:101C9000E5F9284605F000FA00223146284605F00D
:101CA0007FFA0028C9D1D8F8000010B11A4B198862
:101CB00009BB304605F0F0F9194C1A94284605F096
:101CC000EBF93046069405F0E7F92FB0BDE8F08354
:101CD0002D980028DDD002AC21460D2202F074FDC3
:101CE000B6E701220D2001933A8009F0CBFE019B5B
:101CF000C9F80000C9E70B4B0D220AF0D9FAD8E762
:101D0000199B002B81D10AAE1EADD5E7C433FF1F4E
:101D10005C0C0100600401004633FF1FC40C01008D
:101D20003C04010089CD00001C12FF1FF0B54D4F8F
:101D30003B68D3F88044ADB03CB3002518AE2146D3
:101D40002B463046484A8DF860508DF861508DF82A
:101D5000625004F0DBF898B1444D2C6844B1204641
:101D600000F03EFD2046182108F054FF00232B60B0
:101D70003F48FEF7E3FC3F4914300BF005F8A8B9E3
:101D80003D4B3E4A1A602DB0F0BDD3F884140029B3
:101D9000F6D018AE23463046334A8DF891408DF880
:101DA00092408DF8934003F0ABF9D4E700233968F3
:101DB0002D4A04A805F08AFA169B002B44D0002374
:101DC0004FF47A712E4A8DF864308DF86C302A9376
:101DD0002B931A91189208AC0DE0304600F05AFF90
:101DE0002348FEF7ABFC694614300AF0CDFFE0B1A2
:101DF0001CA805F051F9214600221CA805F0D0F9D5
:101E000069460028E9D12B683BB31B4A1360204682
:101E100005F042F91B4D18951CA805F03DF9204628
:101E2000049505F039F92DB0F0BD182008F0ECFE4E
:101E3000074600F0CDFC384631462F6000F0F0FC3C
:101E40001CA805F029F9DEE7179B002BB7D10A4B38
:101E50000A4A1A6008AC0B4DE1E7074B074A1A60C3
:101E6000D5E700BFC433FF1FD00C01001812FF1FBD
:101E70006033FF1F180401002412FF1FD011FF1F41
:101E8000600401003C0401002DE9F04102F080FCF7
:101E9000604C07466048FEF751FC2378C66B002B68
:101EA00069D15E4D2B68013B032B79D8DFE803F045
:101EB0005844330202F06CFC07465748FEF73EFCDC
:101EC000C66B5748FEF7FAFA01286DD05548FEF761
:101ED000F5FA012868D05448FEF7F0FA012863D0DB
:101EE0005248FEF7EBFA01285ED02378EBB938466A
:101EF00007F01AF90446304607F016F9844208D173
:101F0000384607F033F90446304607F02FF984428B
:101F10000BD0BDE8F0814548FEF7D0FA0128F8D192
:101F20004248FEF7CBFA0028FAD102232B60404842
:101F3000BDE8F041FEF71CBD3C48FEF7BFFA0328A0
:101F4000034651D03648FEF7B9FA012852D032483C
:101F5000FEF7F4FB237853B3BDE8F041FFF74EBA28
:101F6000002001F003FF0028D3D102232B60BDE83D
:101F7000F041FFF7DBBE384607F0D6F8054630469D
:101F800007F0D2F885428CD1384607F0EFF80546C5
:101F9000304607F0EBF8854283D10023237080E7B9
:101FA00002232B60BDE8F08101232370BDE7846B21
:101FB000304607F0B9F88046204607F0B5F880456E
:101FC0001DD0384607F0B0F80646204607F0ACF8BA
:101FD0008642C1D1384607F0C9F80646204607F0C8
:101FE000C5F88642B8D104232B601148BDE8F04102
:101FF000FEF7D2BC2860BDE8F04101F0B7BE304624
:1020000007F0B4F80646204607F0B0F88642D8D16B
:10201000A2E700BF4433FF1F6033FF1F3407FF1FD9
:10202000AC33FF1F4833FF1FF032FF1F0833FF1F81
:102030009412FF1F30B51B4891B0FEF77FFB054699
:102040000FCD6C460FC40FCD0FC40FCD0FC495E854
:102050000F0084E80F001448FEF726FA022810D07B
:102060001248FEF721FA022813D00F48FEF71CFA97
:1020700002280E48F9D0FEF717FA0228F5D011B061
:1020800030BD00236946012206480A93FEF716FB7D
:10209000EBE7012369461A4602480A93FEF70EFB56
:1020A000E3E700BF6033FF1FAC33FF1FF032FF1FB9
:1020B00000B5ADF5805D83B06846FFF735F811488F
:1020C000FEF7F2F9022804D00DF5805D03B05DF84B
:1020D00004FB0F216846FFF739F869460A48FEF706
:1020E00083FC0848FEF7E0F90228FAD00548FEF71D
:1020F000E5F90128E8D00348FEF7E0F90128F5D119
:10210000E2E700BF0833FF1F9412FF1FF0B5ADF5E3
:10211000825D83B00BAB10A80593334DFFF704F835
:1021200007A800F079F90598304A31490AF090FD86
:10213000059A07A90023284600F076FC07A800F0BE
:102140000BFA074607A800F009FA064607A800F0B0
:1021500003FA044607A800F001FAC4F1800303EB78
:10216000D3735A10C0F10F00002307A90292039005
:102170001A4610A800970196FEF7EEFF1D48FEF7DD
:10218000DDFA1D4B826A1D4905980AF061FD059A2A
:1021900007A90023284600F047FC07A800F0DCF957
:1021A000054607A800F0DAF9044607A800F0D4F9BC
:1021B000C0F1800000EBD07000234010112202908B
:1021C00007A910A8039200951A460194FEF7C4FFD0
:1021D00010A90B48FEF708FC07A800F0EBF90DF575
:1021E000825D03B0F0BD00BF2033FF1FD80C01009B
:1021F000E00C01006033FF1FEC0C0100F40C010047
:102200009412FF1F70B58EB00AA800F005F9684D52
:10221000202007F0C1FA08F0E5FC05F118060224B9
:1022200001E055F8044FE4B22046042107F014FD04
:102230002046002107F0FCFCB542F2D101210D201F
:1022400007F00AFD5B48FEF779FA406B003018BFD3
:10225000012002F06FFAFFF7EDFE07224FF40D7137
:102260000AA800F0ADF940F2B67253490AA800F08E
:10227000DBF840F2F11251490AA800F0E3F80AAA8B
:102280005E214F4800F0B8FA4FF4EB724D494C48CC
:1022900000F044FB0B224FF4B1710AA800F090F952
:1022A00040F29B7248490AA800F0BEF840F2EF12D3
:1022B00046490AA800F0C6F80AAA2D21444800F0B1
:1022C0009BFAE1224349424800F028FB1522CA212B
:1022D0000AA800F075F940F649023F490AA800F043
:1022E000A3F840F222223D490AA800F0ABF80AAA5E
:1022F0000F213B4800F080FA4B223A49384800F061
:102300000DFB2C48FEF71AFA816A3748FEF77CFB72
:10231000002101220423172009910892162112227C
:1023200007930526112306250724039002910192A5
:102330001321142200932C48069615230595049426
:10234000FEF754FA1B48FEF7F9F9C1682648FEF774
:1023500037FB1848FEF7F2F990F824102348FEF7EF
:10236000F7F82148FEF704FBFFF7D0FE204807F0FE
:102370000FF83C2007F01AF8642007F097FC0D488E
:10238000FEF7DCF9806807F01DFCFEF7B5FF08B129
:10239000FFF722FCFFF7CAFC4FF4FA6007F086FC57
:1023A000FFF786FE0AA800F005F90EB070BD00BF69
:1023B000A01501006033FF1F040D01007C04010023
:1023C0002033FF1F60080100541E01007006010049
:1023D000C833FF1FBC140100BC150100380A0100FE
:1023E000D011FF1F081E01009412FF1F3833FF1F7A
:1023F000B147000010B5054C204600F0E9F9204631
:10240000034A0449BDE8104008F0E6BCD011FF1FA4
:102410003007FF1FE12700000022026042600281B6
:1024200042818281C281704710B54389848903FB50
:1024300004F39A4201D0002010BD006806F0C6FFE8
:10244000002010BD10B54389C48903FB04F39A42F0
:1024500001D0002010BD406806F0B8FF002010BD7C
:10246000002917DB002A15DB30B40489A14210DAF9
:102470004489A2420DDA84890568481002FB0402EF
:10248000C907A85C07D500F00F0040EA0310C0B2EE
:10249000A85430BC704703F00F0320F00F0018431E
:1024A000A854F6E710B48489006801EBD17302FBED
:1024B00004025B105DF8044BD05CCB074CBF0009F5
:1024C00000F00F00704700BF002918DB002A16DB60
:1024D00030B40489A14211DA4489A2420EDAC489D7
:1024E0004568C81002FB0402A85C4BB101F007016B
:1024F000012303FA01F10843C0B2A85430BC70476D
:1025000001F00701012303FA01F120EA0100A854B8
:10251000F4E700BF00291BDB002A19DB038999427D
:1025200016DA43899A4213DA10B4446894B1C38925
:10253000C81002FB034201F00701125C012303FAF9
:1025400001F10A4214BF184600205DF8044B7047A1
:10255000012070470120F8E70089704740897047E3
:1025600083894289006861F31F1102FB03F209F0BD
:102570004DBE00BF838942890068002102FB03F23F
:1025800009F044BEC38942894068002102FB03F27E
:1025900009F03CBE10B50446006818B108F038FBDD
:1025A00000232360606820B108F032FB00236360E1
:1025B00010BD10BD10B50446FFF7ECFF204610BD5E
:1025C00070B50D4604461646FFF7E4FFAAB215F0B3
:1025D000070102F0010318BF012105EBD570002DA2
:1025E000B8BF073503EB600001EBE50580B222813F
:1025F000A081E581668106FB00F008F007FBE38916
:10260000206006FB03F008F001FBA389628960608B
:1026100002FB03F20021206809F0F8FDE3896289DA
:10262000606802FB03F20021BDE8704009F0EEBDD6
:1026300038B50D464A8909890446FFF7C1FF296864
:10264000D1B1A089638910FB03F292B203FB00F3BE
:102650009A4222D06968C1B1E089638910FB03F214
:1026600092B203FB00F39A4201D0204638BD606865
:1026700006F0ACFE204638BD206808B108F0C8FA64
:102680006968002323600029E6D1606808B108F07A
:10269000BFFA00236360204638BD206806F096FE2E
:1026A000D8E700BF70B50646886C82B00D4600289A
:1026B00056D00222694603F037FCAB6CC443E40FEA
:1026C000002B59D0022218460DEB020103F02CFC1E
:1026D000AB6C0028B4BF002404F00104002B5DD0D3
:1026E0001846022201A903F01FFCAB6C0028B4BFFE
:1026F000002404F00104002B47D0184602220DF1FB
:10270000060103F011FC002826DB2CB3BDF80220E3
:10271000BDF800103046FFF753FFB2897389A86CEB
:10272000316803FB02F2002840D003F0FDFBBDF846
:102730000630C443E40F83B1F2897389A86C7168D1
:1027400003FB02F2002837D003F0EEFB0028B4BFF1
:10275000002404F0010400E00024204602B070BD13
:10276000C86C0028F8D00222694602F0FBF8AB6C76
:10277000C443E40F002BA5D1E86C0028ECD0022262
:102780000DEB020102F0EEF8A2E7E86C0028E3D0BE
:1027900002220DF1060102F0E5F8B4E7E86C00282A
:1027A000DAD0022201A902F0DDF89EE7E86C0028E9
:1027B000D2D002F0D7F8BAE7E86C0028CCD002F00B
:1027C000D1F80028B4BF002404F00104C5E700BF1D
:1027D00010B50446FFF720FE00232361204610BDFC
:1027E00010B50446006908B108F012FA2046FFF758
:1027F000E1FE204610BD00BF70B5044600690D46DD
:10280000164608B108F004FA31462046FFF710FFDB
:10281000A58205EB850008F0F9F9206170BD00BFC5
:1028200070B50546886CC2B00C4600286CD00021FB
:1028300003F080FCA06C00285FD0022201A903F005
:1028400073FBA06C00284ED00DF103063146012227
:1028500003F06AFB4FF4807202A8002109F0D6FC55
:10286000A06C327820B302A903F05EFBA06C50B3D9
:102870000DF106063146022203F056FB286908B125
:1028800008F0C6F9308800EB800008F0BFF9286135
:1028900001463288A06C02EB8202F0B103F044FBE7
:1028A00021462846FFF7FEFE3388AB8242B070BD5A
:1028B000E06C0DF106060028E0D002A902F052F803
:1028C000A06C0028D4D1E06C0DF106060028D5D00C
:1028D0003146022202F046F8D0E7E06C0028DFD053
:1028E00002F040F8DCE7E06C0DF103060028B1D0FF
:1028F0003146012202F036F8ACE7E06C58B1022212
:1029000001A902F02FF89CE7C86C20B10022002337
:1029100002F014F98EE70DF103069BE708B5838AF0
:1029200003EB83039A4201D0002008BD006906F042
:102930004DFD012008BD00BF2DE9F04F83B080465A
:1029400008460C4601910AF0FBFBB8F814B00027CA
:102950000BF1FF3C01381FFA8CFC87420CEB8C0C0E
:1029600004F1FF3ABE465E4625DA1AF8012F002E22
:1029700055D0D8F8105095F800B05A453AD02B46AB
:1029800005EB0C0102E01C78944234D0994203F12B
:1029900005039946F7D12B4602E01C78944224D0D7
:1029A0008B4203F105031D46F7D10023013787420F
:1029B000C3EB0E0ED9DB20EAE070019B185C86B3F6
:1029C000D8F810100B78834221D00B468C4402E0DB
:1029D0001A7882421BD0634503F105031946F7D1EB
:1029E0000020704403B0BDE8F08FEB782A7943EA09
:1029F0000223DBE7A94699F8013099F802105A45FD
:102A000043EA01239E44F0D005EB0C01C3E74B7869
:102A1000887843EA0020704403B0BDE8F08F334665
:102A2000C4E73046F7E700BF2DE9F04F87B088468E
:102A300011469B4605920746FFF77EFF044638463F
:102A4000FFF78CFD214602464046FFF7B9FD002303
:102A5000009399460393059C20460AF071FB009A67
:102A6000824280F2C880B7F814E0A15CBEF1000F8A
:102A700000F0C8803B6993F800C0614500F0B08069
:102A80000EF1FF34A5B205EB85051D441A4603E09F
:102A90001078884200F0A580954202F105021646A2
:102AA000F6D100220492A4B204EB84041C44002258
:102AB00003E013F8050F884207D058789D7840EA64
:102AC00005200244A34292B2F3D10292029B049ADF
:102AD000384603EB020AFFF741FD0026864248DA3A
:102AE000029B9A453FDD039C029D14E0FFF712FD17
:102AF0003246019021464046FFF70CFD019B034002
:102B0000DBB2324621464046FFF7DEFC0135554533
:102B100004F1010427D0294632463846BBF1000FA4
:102B200004D0009B1BF803302D2B46D0FFF7BAFCD6
:102B30003246034621464046FFF792FCA145324605
:102B400029463846D2DC294632463846FFF7E2FCB1
:102B500001350346214632464046FFF7B5FC554550
:102B600004F10104D7D13846FFF7F8FC013686425C
:102B7000B6DB059A00990498515C039ABB8A02441B
:102B800091469BB1386902788A4224D0013B9AB2BF
:102B900002EB82020346024402E01C788C421AD007
:102BA000934203F105031846F7D10023C3EB090351
:102BB0000393009B013300934DE7002321464046D9
:102BC000FFF74EFCA145A1DC0123324621464046D9
:102BD000FFF77AFC9AE7C378027943EA0223E5E734
:102BE0001E46B0787278614542EA0022049206D00F
:102BF0000EF1FF3457E7404607B0BDE8F08F0023E1
:102C0000029363E7CDF808E0CDF810E05EE700BF7F
:102C100070B51C4B1C4A1968A8B00023684604F024
:102C200055FB129B43B300244FF47A72174B8DF877
:102C300054408DF85C40269427941692149304AD6A
:102C400002E018A804F028FA0022294618A804F087
:102C5000A7FAE6B201340028F3D1284604F01CFAA2
:102C60000B4C149418A804F017FA2846009404F0AA
:102C700013FA304628B070BD139E002ED3D104AD98
:102C8000034CF2E7C433FF1FD00C010060040100C5
:102C90003C04010030B50446806C83B00D4600282A
:102CA00047D0002103F046FAA06C002837D002225A
:102CB0000DF1060103F038F9A06C28B301220DF1E3
:102CC000050103F031F9A06C9DF8052001320C2AB2
:102CD000CABF0D22D3B213468DF8053058B129462C
:102CE00003F022F99DF805301D440022184605F82E
:102CF000012C03B030BDE06C0028F5D0294601F06E
:102D000031FE9DF80530EFE7E36C002BDCD0184670
:102D100001220DF1050101F025FEA06CD4E7E36C62
:102D2000002BD1D0184602220DF1060101F01AFE47
:102D3000C2E7E36C002BC7D018460022002301F045
:102D4000FDFEB1E710B50446043007F0C9FE204689
:102D500010BD00BF10B5044600F500500C3007F060
:102D6000BFFE204610BD00BF2DE9F843DFF8A49058
:102D70001D4CDFF8A4801D4F1D4E1E4D4846FDF72B
:102D800013FD22461C49484608F026F84046FDF748
:102D9000D9FB22461949404608F01EF81848FDF7AD
:102DA000D7FC1E211748FDF761FB1C211648FDF7D3
:102DB0005DFB1D211548FDF759FB1B211448FDF74C
:102DC00055FB3846FFF704FD22463146384608F0E9
:102DD00003F82846FFF7FCFC224631462846BDE8AA
:102DE000F84307F0F9BF00BF3007FF1F2033FF1F74
:102DF000E1270000C833FF1F552D0000452D0000BE
:102E00006033FF1FAC33FF1F4833FF1FF032FF1F3B
:102E10000833FF1F9412FF1F3833FF1F10B50446FD
:102E20001C30FFF7F9FA002323826382204610BD8D
:102E300010B504461C30FFF7BDFB204610BD00BF97
:102E40002DE9F0470646886C88B00D46002800F052
:102E50005B8102220DF1060103F066F8AB6CC443FE
:102E6000E40F002B00F05E811846022202A903F055
:102E70005BF8AB6C0028B4BF002404F00104002B05
:102E800000F05881184602220DF10A0103F04CF8B7
:102E90000028B4BF4FF0000804F00108B8F1000F9B
:102EA00000F0D880BDF80A30002B00F0C080444606
:102EB000002706F1020A06F10409AAE002223146BF
:102EC00003F032F8AB6C0028B4BF002404F0010416
:102ED000002B00F0128118460222514603F024F81C
:102EE000AB6C0028B4BF002404F00104002B00F0F8
:102EF000FD8018460222494603F016F8AB6C002804
:102F0000B4BF002404F00104B11D002B00F0E880E0
:102F10001846022203F008F8AB6C0028B4BF002466
:102F200004F0010406F10801002B00F0D2801846DD
:102F3000022202F0F9FFAB6C0028B4BF002404F0B9
:102F4000010406F10A01002B00F0BC8018460222A1
:102F500002F0EAFFAB6C0028B4BF002404F00104C7
:102F600006F10C01002B00F0A6801846022202F0A8
:102F7000DBFFAB6C0028B4BF002404F0010406F1B1
:102F80000E01002B00F090801846022202F0CCFFC8
:102F9000AB6C0028B4BF002404F0010406F1140156
:102FA000002B7AD01846012202F0BEFFAB6C00283D
:102FB000B4BF002404F0010406F11501002B65D014
:102FC0001846012202F0B0FFAB6C0028B4BF002409
:102FD00004F0010406F11601002B50D0184601221E
:102FE00002F0A2FFAB6C0028B4BF002404F001047F
:102FF000002B35D01846112203A902F095FFBDF829
:103000000A300028B4BF002404F001040137BB4299
:103010000CDDA86C00287FF451AFE86C002800F0AC
:1030200094800222314601F09DFC4BE794B1328836
:103030007389BDF808103182003218BF01220033B5
:1030400018BF01230021404632837383718208B088
:10305000BDE8F0874FF00008404608B0BDE8F087B3
:10306000E86C002873D0112203A901F07BFCBDF8A5
:103070000A300028B4BF002404F00104C6E7E86C5D
:10308000002868D0012201F06DFCABE7E86C002855
:1030900059D0012201F066FC96E7E86C002852D076
:1030A000012201F05FFC81E7E86C00284BD002228E
:1030B00001F058FC6CE7E86C002844D0022201F0D3
:1030C00051FC56E7E86C00283DD0022201F04AFC92
:1030D00040E7E86C002836D0022201F043FC2AE7E2
:1030E000E86C80B3022201F03DFC15E7E86C50B3B8
:1030F0000222494601F036FC00E7E86C18B30222D0
:10310000514601F02FFCEBE6C86C0028A2D0022249
:103110000DF1060101F026FCAB6CC443E40F002B5B
:103120007FF4A2AEE86C002894D0022202A901F03C
:1031300019FC9EE6E86C00288CD002220DF10A01F1
:1031400001F010FCA4E6BDF80A3000245EE7044656
:10315000BDF80A305AE7BDF80A30044656E700BF0A
:1031600010B50346002200F11C0420461A805A8044
:103170009A80DA801A815A819A81DA811A755A7591
:103180009A751A835A831A825A82FFF7F3F92046F6
:10319000BDE81040FFF7F6B9428A038A9A4201D08F
:1031A00000207047B0F91A00032803D0B0FA80F06D
:1031B0004009704701207047B0F9183010B5044637
:1031C000012B408A228A1BD00323824223831BD0F7
:1031D000904225D3B4F91A30022B05D0002010BD3F
:1031E00002229342628317D0E389012BF6D11C346B
:1031F0002046FFF7BFF92046FFF7C4F9012010BDB4
:1032000002239042238313D1B4F91A20012AE7D074
:103210000322022B6283E1D1A388012BDAD1E6E7F6
:1032200004F11C00FFF73EFA638A0133638210BD8C
:10323000A388012BCCD1DAE71C307047B0F91830E5
:10324000022B06D0B0F91A30022B0CBF4089C0887F
:1032500070470088704700BFB0F91830022B07D0C4
:10326000438B023B9BB2012B94BF8089008970473E
:1032700040887047007D7047407D7047807D704773
:103280004368002B10B5044603DD806808B107F0E1
:10329000BFFC204610BD00BF4368002B10B504469C
:1032A00003DD806808B107F0B3FC204610BD00BF05
:1032B0004368002B10B5044603DD806808B107F0B1
:1032C000A7FC204610BD00BF4368002B10B5044684
:1032D00003DD806808B107F09BFC204610BD00BFED
:1032E0004368002B10B5044603DD806808B107F081
:1032F0008FFC204610BD00BF4368002B10B504466C
:1033000003DD806808B107F083FC204610BD00BFD4
:103310004368002B10B5044603DD806808B107F050
:1033200077FC204610BD00BF4368002B10B5044653
:1033300003DD806808B107F06BFC204610BD00BFBC
:10334000C1B20148FDF704B93833FF1F2DE9F0433E
:103350008BB0054606A80E46FFF75EF801F018FA96
:1033600009228046802106A8FFF72AF9012106A834
:10337000FFF7F6F806A8FFF7EFF8814606A8FFF773
:10338000EDF800242A4FCDF80090019006A92846B8
:103390002346224603940294FDF7DEFE324623467E
:1033A00006A93846FFF740FB06A8FFF7D5F8814687
:1033B00006A8FFF7D3F801262346224606A9CDF832
:1033C00000900190039628460296FDF7C5FE404600
:1033D00005F0AAFE8146404605F0C8FE4A4603466F
:1033E000144904A809F034FC234604AA06A9384667
:1033F000FFF71AFB06A8FFF7AFF8074606A8FFF786
:10340000ADF8804606A8FFF7A7F8C0F1800002904B
:1034100023462846224606A903968DE88001FDF73B
:103420009BFE06A8FFF7C6F80BB0BDE8F08300BF0F
:103430002033FF1F9C0C01002DE9F04389B00446A6
:1034400004A80F46FEF7E8FF092204A81C21FFF795
:10345000B7F8012104A8FFF783F804A8FFF77CF868
:10346000064604A8FFF77AF817250023022204A9CC
:10347000009601900395204602921A46FDF76CFED5
:1034800004A8FFF769F8064604A8FFF767F80023C9
:10349000222204A9009601900395204602921A4622
:1034A000FDF75AFE04A8FFF757F8064604A8FFF7F1
:1034B00055F80023422204A9009601900395204666
:1034C00002921A46FDF748FE04A8FFF745F8804629
:1034D00004A8FFF743F84F4E0395002362220190A2
:1034E000CDF8008004A9204602921A46FDF734FE6A
:1034F0003A6804A900233046FFF796FA04A8FFF7BC
:103500002BF8814604A8FFF729F8804604A8FFF7A6
:1035100023F8C0F11C0000EBD070401018250023E8
:103520000230CDF800900290CDF8048004A9204626
:103530001A460395FDF710FE7A6804A90023304669
:10354000FFF772FA04A8FFF707F8814604A8FFF70F
:1035500005F8804604A8FEF7FFFFC0F11C0000EB51
:10356000D070401000232230CDF800900290CDF8AA
:10357000048004A920461A460395FDF7EDFDBA68BC
:1035800004A900233046FFF74FFA04A8FEF7E4FF32
:10359000814604A8FEF7E2FF804604A8FEF7DCFFA0
:1035A000C0F11C0000EBD0704010002342300290AC
:1035B00004A920461A46CDF800900395CDF8048062
:1035C000FDF7CAFDFA6804A900233046FFF72CFA7C
:1035D00004A8FEF7C1FF064604A8FEF7BFFF074692
:1035E00004A8FEF7B9FFC0F11C0000EBD07040103A
:1035F00000236230029004A920461A4603958DE804
:10360000C000FDF7A9FD04A8FEF7D4FF09B0BDE88E
:10361000F08300BF2033FF1F2DE9F04F89B005462E
:1036200004A80C4617469B46FEF7F6FE6248FCF7D8
:1036300045FF82466148FCF741FF81466048FCF740
:103640003DFF80465F48FCF739FF0646002F40F0FB
:103650008B80B9F1010F5C4F00F08E80B8F1010F43
:1036600000F09D80012E00F09680BAF1010F4FF01E
:10367000FF3618BF00262168DFF84C812846FFF787
:1036800065FE3B68002B1ADD0023504A504804A910
:10369000FFF7CAF904A8FEF75FFF814604A8FEF70A
:1036A0005DFF00230B220190039202931A46CDF88E
:1036B000009004A92846FDF74FFDD8F80030626855
:1036C000013A9A4220DD0023424A414804A9FFF70B
:1036D000ABF904A8FEF740FF814604A8FEF73EFFC1
:1036E000804604A8FEF738FF00230B22C0F18000BB
:1036F00002900392CDF800901A46CDF8048004A9F8
:103700002846FDF729FD3B68A268314852F823207E
:1037100004A90023FFF788F904A8FEF71DFF8046DF
:1037200004A8FEF71BFF074604A8FEF715FFC0F12B
:10373000800000EBD070002342100B210292039115
:103740001A4604A92846CDF800800197FDF704FD2C
:1037500004F10C012846FFF76FFE04A8FEF72AFFCC
:10376000304609B0BDE8F08F174FDBF800303B6002
:10377000B9F1010F7FF472AF63683868124A013BF8
:1037800083427FF76BAF129B01301060002B3FF438
:1037900065AF984762E73B68CBF800306BE7386865
:1037A000094B00287FF75EAF01381860129B002B91
:1037B0003FF458AF984755E7AC33FF1F4833FF1F1E
:1037C000F032FF1F0833FF1F1C34FF1F9426010037
:1037D000C833FF1F202601002DE9F0478CB00546B5
:1037E00004A88946FEF718FE684B0FCB08AE86E8A2
:1037F0000F006748FCF762FE07466648FCF75EFE6E
:1038000080466548FCF75AFE04466448FCF756FEBD
:103810008246B9F1000F40F08580012FDFF88C91CE
:1038200000F0898028F00208B8F1010F4FF001077D
:1038300000F08E8024F00204012C00F09A80BAF18E
:10384000010F04D1564BD9F80020DA600027284632
:103850005449FFF77BFD082204A84421FEF7B0FE7F
:10386000052104A8FEF77CFE04A8FEF775FE0446B9
:1038700004A8FEF773FE00230C211E220094019081
:103880000391029204A91A462846FDF765FC062218
:1038900004A84221FEF794FE002104A8FEF760FE72
:1038A00004A8FEF759FE044604A8FEF757FE0023BD
:1038B0000D211F22009401900391029204A91A463F
:1038C0002846FDF749FC042204A84021FEF778FEB3
:1038D0000F2104A8FEF744FE04A8FEF73DFED9F828
:1038E00000400028B8BF3F308311013404A803FB17
:1038F00004F4FEF733FE00230E21202201900391F1
:10390000029204A91A4628460094FDF725FC314688
:103910002846FFF791FD04A8FEF74CFE38460CB090
:10392000BDE8F0871E4BDFF88490DB68C9F80030F3
:10393000012F7FF477AF1A4B1B48D96828F0020893
:10394000FDF73EF8B8F1010F4FF000077FF472AFBA
:10395000D9F80010154A3E293FF76CAF4B1C1946A9
:103960001148136024F00204FDF72AF8012C7FF4BB
:1039700066AFD9F800100D4A00297FF760AF4B1EE3
:10398000194609481360FDF71BF858E7F0250100B8
:10399000AC33FF1F4833FF1FF032FF1F0833FF1FF8
:1039A0006034FF1F242601009412FF1F2034FF1FE4
:1039B0002DE9F04F93B007460AA8894692461D4666
:1039C000FEF72AFD794B0FCB0EAC84E80F00784848
:1039D000FCF774FD06467748FCF770FD8046764894
:1039E000FCF76CFD83467548FCF768FD0346002D27
:1039F00040F09B80012E4FF0FF3618BF0026B8F133
:103A0000010F6F4D6AD0B8F1030F67D0BBF1010F02
:103A1000DFF8C08155D0BBF1030F52D0012B00F06D
:103A2000AE8049463846FFF791FCBAF1000F44D109
:103A3000DFF8A491DFF8A4A198F8013098F80220EB
:103A4000604907A809F004F92B685F48002B0CBFF8
:103A50004B46534607AA0AA9FEF7E6FF0AA8FEF757
:103A60007BFD81460AA8FEF779FD80460AA8FEF78D
:103A700073FDC0F1800000EBD070002340100B22DA
:103A8000029003920AA91A463846CDF80090CDF864
:103A90000480FDF761FB4D4A2D684D4B2146002DFA
:103AA00008BF134638461193FFF7C6FC0AA8FEF775
:103AB00081FD304613B0BDE8F08FDFF82491CA468F
:103AC000BAE72A68EAB998F802204249013AD2B224
:103AD000172A50D88A70012BA3D153E02A68002AF4
:103AE0003AD0DFF8F08098F801200132D2B23B2AB8
:103AF0004BD8BBF1010F88F8012002D0BBF1030FB6
:103B00008CD198F801203349013AD2B23B2A42D8ED
:103B10004A70012B85D100232E4888F8003005F02B
:103B200033FB1C9B012618607BE71C9B05902949F1
:103B30001868234D05F014FA012E4FF000024FF0E3
:103B4000FF3618BF0026B8F1010F2A60059B03D08D
:103B5000B8F1030F7FF45AAFDFF8788098F80220AD
:103B60000132D2B2172A1AD90022BBF1010F88F80C
:103B700002207FF450AF172288F80220ABE72B68B1
:103B8000002BC8D101232B604BE70022BBF1010FB2
:103B900088F80120B2D13B2288F80120B9E7BBF1B7
:103BA000010F88F802207FF436AF8CE70026010071
:103BB000AC33FF1F4833FF1FF032FF1F0833FF1FD6
:103BC000A034FF1F58260100C833FF1F48260100FC
:103BD00050260100E034FF1F302601003826010086
:103BE000402601002DE9F04F91B0064608A8154681
:103BF0000F46FEF711FC504A0FCA0CAC84E80F00C8
:103C00004E48FCF75BFC83464D48FCF757FC80466A
:103C10004C48FCF753FC82464B48FCF74FFC002D08
:103C200051D128F00208B8F1010FDFF8389155D0D2
:103C3000BAF1010F5DD0BAF1030F5AD0012862D05A
:103C4000BBF1010F4FF0FF3518BF002530463F494B
:103C5000FFF77CFB3E4B3F48D9F800203E49002F40
:103C60000CBF1F46074605A808F0F2FF3B4605AA11
:103C700008A93A48FEF7D8FE08A8FEF76DFC804672
:103C800008A8FEF76BFC074608A8FEF765FCC0F124
:103C9000800000EBD070002342100B2102920391B0
:103CA0001A4608A93046CDF800800197FDF754FA6E
:103CB00021463046FFF7C0FB08A8FEF77BFC2846EC
:103CC00011B0BDE8F08F264BDFF898909B68C9F8DB
:103CD000003028F00208B8F1010FA9D1D9F800305E
:103CE000204A0133B3F57A7F13DABAF1010F13607A
:103CF000A1D1D9F800301C4A1A49013B934213DA8A
:103D000001280A609CD1164BD9F800209A6005461C
:103D10009CE7BAF1010F0AD040F2E733BAF1030F82
:103D200013608BD140F2E633C9F8003086E740F2E9
:103D3000E633136082E700BF10260100AC33FF1F9B
:103D40004833FF1FF032FF1F0833FF1F7C2601009E
:103D500070260100642601008C260100C833FF1F75
:103D60006034FF1FC034FF1F19FCFFFF2DE9F04F27
:103D7000ADF5865D81B004462EA8FDF7D5F9002C7F
:103D80006CD1A74EA74D2B78A64F002B31D13368AD
:103D90000C2B22D8DFE813F0E4000A0182018C0129
:103DA000A901CA01D501E401EF010D001D0178014F
:103DB00039019D4C9D4B0093002204F124039C4942
:103DC0002EA8FFF729FC002846D0012800F0FB8030
:103DD00094F824109748FCF7BBFB01242C702EA903
:103DE0009548FCF701FE20460DF5865D01B0BDE863
:103DF000F08FDFF88882DFF8289298F800208F494A
:103E000000244B4600942EA8FFF706FC88F80040DB
:103E100010B30130E3D0D9F800303C70012288F8AB
:103E200000200C2BD9D8DFE813F0BF02730269021F
:103E300063025E020D0058024E02430239022F0255
:103E400025021B027D4A7E4B926851690093002235
:103E500001232EA8FFF7ACFD0124C0E77948724C7E
:103E6000DFF81C92FCF76AFC05460FCD0FC40FCD9E
:103E70000FC40FCD0FC495E80F0084E80F00724AFD
:103E800000231360D9F8004054B16368002B03DDB0
:103E9000A06808B106F0BCFE20461C2106F0BAFE60
:103EA000FEF7B6FE694D8246286818B106F0B0FEEE
:103EB00000232B600FFA8AF303EB430003EB80002F
:103EC000039306F0A3FE624B28601968614A002341
:103ED00006A803F0FBF9189B002B00F06F825A4BE9
:103EE00000241C60BAF1000F00F0828226460127F0
:103EF000DFF890B10EE0544BB8461F601EA8CDF815
:103F000068B003F0C9F8C24507F1010704F10D04D8
:103F100040F34F814FF47A730DF178081C934046BB
:103F20004D4B8DF86C6000220AA98DF874602C96B8
:103F30002D961A9303F034F9002800F07481296853
:103F40001AA82144FEF7A6FE404603F0A5F829680A
:103F50004248214408F018FF0028CCD0B846CDE7ED
:103F60003F4B364A1B6804939168049B3D4A3E4C84
:103F700009680094A2FB0332C2F3401200232EA86A
:103F8000FFF716FD00283FF467AF01287FF425AF47
:103F9000254B20681B68012B04BFA0F561602060E1
:103FA00005F0D4F9206805F0FBFD16E70022009229
:103FB0001D4B2E492EA8FFF72FFB00283FF44CAFD6
:103FC00001287FF40AAF012217491E48FCF776FB4F
:103FD00003E7154E2649002206F1340300922EA86D
:103FE000FFF71AFB044600283FF436AF01287FF4A0
:103FF000F4AE706B003018BF012000F09BFB22462E
:1040000031461048FCF75AFBE7E600220092194BB4
:1040100019492EA8FFF700FB0028D1D11CE700BFEB
:104020003035FF1F2C35FF1F6034FF1F4133000068
:104030000835FF1F3833FF1F9412FF1FFC33FF1F8B
:104040009C34FF1F6033FF1F0435FF1F4034FF1FE8
:10405000C433FF1FD00C0100600401007434FF1F43
:10406000B835FF1FD34D62102835FF1FE033FF1F07
:104070004434FF1F9034FF1F2434FF1F2435FF1FDB
:104080001834FF1F3C04010000220092A54BA649F2
:104090002EA8FFF7C1FA002892D1DDE60022009297
:1040A000A24BA3492EA8FFF7B7FA002888D1D3E680
:1040B000A04BA1491B680593059BA1FB033100227E
:1040C000C1F340112EA8FFF78DFD024600283FF4F2
:1040D000C3AE01287FF481AE984C99482146FCF785
:1040E000EDFAA06805F06EFD77E6964A914B92686E
:1040F0001B681169069394488F4A069B0090A2FBA7
:104100000332C2F3401200232EA8FFF751FC00280F
:104110003FF4A2AE01287FF460AE012287498848AF
:10412000FCF7CCFA894B00221A7056E6854A814B7F
:1041300092681B68516986481A937F4A00901A9BBF
:10414000DDE700212EA8FFF747FB00287FF484AEAF
:1041500001227A497A480124FCF7B0FA2C703EE635
:10416000002200927B4B7C492EA8FFF755FA0028CD
:104170007FF426AF70E6794F794E396800223346D6
:1041800000922EA8FFF748FA044600283FF464AED8
:1041900001287FF422AE3B6832689B68714853F86F
:1041A000221008F05BFF224664496548FCF786FA56
:1041B00013E60AA802F070FF1C2006F025FD0AF1A4
:1041C00001040646A00006F021FD0399664A674BEC
:1041D000746032608C00C9F80060B0600360002138
:1041E000042201E0986804322B680B448350944207
:1041F00001F10D01D9F80030F4D15D4A5A615D4CEE
:104200005D485E495E4E5F4D5F4ADC6018619961B2
:104210000AA801230021CDF818B031602B7013706B
:1042200002F03AFFAFE54E4ACDF868B0034640468B
:10423000136002F031FF0AA802F02EFF1C2006F0E6
:10424000E3FC0446042006F0E1FC474B474A2360A8
:104250000121C9F80040A060616023460260CCE7FC
:104260000023009349494A4B01222EA8FFF7D4F9B5
:104270000124B4E5002300932B492A4B01222EA8E8
:10428000FFF7CAF90124AAE5002300934149424BF4
:1042900001222EA8FFF7C0F90124A0E50023009316
:1042A0003E493F4B01222EA8FFF7B6F9012496E5BF
:1042B0002A4A2B4B1168002200922EA80122FFF7F8
:1042C000ABF901248BE5002300932349214B012204
:1042D0002EA8FFF7A1F9012481E501212EA8FFF7FF
:1042E0007BFA01247BE5174A174B92681169ADE50B
:1042F000012200212EA8FFF775FCADE500230093F5
:104300000B490A4B01222EA8FFF786F9012466E526
:10431000002300932349094B01222EA8FFF77CF9C3
:1043200001245CE58C34FF1FA434FF1F6434FF1F9D
:10433000C434FF1FB835FF1FD34D62106034FF1F18
:104340006033FF1FFC33FF1F9834FF1F4433FF1FF0
:104350009C34FF1F7034FF1FE834FF1F1834FF1F09
:104360000435FF1F7434FF1F982601001804010054
:1043700048260100A4260100AC26010050260100B9
:104380003035FF1F2C35FF1F2435FF1F2434FF1F3E
:104390009034FF1F4434FF1F9434FF1F0835FF1F64
:1043A0008434FF1FE033FF1F00F0F2F9124B316835
:1043B0009A68124B52F82110186047E5199B002BA0
:1043C0007FF48DAD0E4ADFF844B013601C2006F078
:1043D0001BFC0446042006F019FC0A4B0A4A236021
:1043E0000121C9F80040A06061602346026004E733
:1043F000DFF818B01FE700BFFC33FF1F2835FF1F91
:104400000435FF1F98260100180401003C04010038
:104410002DE9F84F342006F0F9FB03468A4C9C61E5
:104420008A4CDC618A4C5C628A4C8B4F8B4E9C625E
:104430008B498C4CDFF8AC92DFF8AC821960DC62FF
:104440008948DFF8A8B2894D894A8A4CDFF8A0C2B2
:10445000DFF8A0E2D8600D21C3F810B05D611A62E8
:10446000854DBB6032467960C3F804908349C3F838
:1044700008801C63DFF880A2814BC7F80CC0384667
:10448000C7F818E07B61C7F800A03D6106F0A4FC06
:10449000082006F0BBFB7B4B794C5C6101467A4CF3
:1044A0000C604FF0020B794CDFF850A2784F996006
:1044B0003246C3F804B018464C607649C3F8009001
:1044C0001D61C3F80CA09F6106F086FC0C2006F06D
:1044D0009DFB714BDFF828E2C3F8008001464FF0E6
:1044E00003086E4A6E48664C9960C1F808E0C3F84C
:1044F00004800A604860324618466A49C3F80CA036
:104500001D615C619F6106F067FC1C2006F07EFB6C
:10451000034665484D49DFF8ECE101600721C3F827
:1045200000E0624A4160DFF8E0E161495A60996069
:10453000C3F80CE05F4ADFF8D4E15F491A615961C2
:104540003246C3F818E083605C49C0F80CA00561EE
:104550004461876106F040FC0C2006F057FBDFF851
:10456000B0915749DFF8ACC1DFF8ACE1384AC1F887
:104570000480034683E800528B600A60C1F80CA0F7
:1045800032460D614C618F6108464E49DFF88C81DF
:10459000DFF88C9106F020FC082006F037FB4A4B30
:1045A000DFF880C12B4A1A6086468EE80011324639
:1045B000C3F808E0C3F804B04449C3F80CA0184697
:1045C0001D615C619F6106F007FC142006F01EFB74
:1045D00003463F48234A44613E4CDFF84CE1DFF894
:1045E0004CC1DFF84C810260052283E81002C3F859
:1045F0000880C3F810E038498360C3F80CC04260FB
:104600003246C0F80CA00561876106F0E5FB082082
:1046100006F0FCFA8646314B1B4A1C4C0260CEF871
:104620000440144C1C60164CC3F804B032461846C3
:10463000C3F808E0C3F80CA01D615C619F612849C4
:10464000BDE8F84F06F0C8BB24260100F42601009F
:10465000002701000C270100FC33FF1F3007FF1F5C
:10466000C02601001C2701007C260100E82601006D
:104670009826010028270100AC26010029330000FC
:1046800048260100E033FF1F4027010044270100B6
:104690005026010011330000C434FF1F48270100D9
:1046A00050270100F9320000E834FF1F7427010091
:1046B0008027010098270100A4270100E1320000B3
:1046C0000835FF1FC93200004434FF1FB13200001B
:1046D000A434FF1FE0270100993200002434FF1F9B
:1046E00081320000CC260100D0260100DC2601002A
:1046F0003027010038270100B4260100A42601005C
:1047000058270100682701008C270100B02701000D
:10471000BC270100C0270100C8270100D0270100E5
:10472000E8270100D827010004280100F82701002C
:10473000F027010008B588B91E211148FBF7AAFE31
:104740001C211048FBF7A6FE1D210F48FBF7A2FE17
:104750001B210E48BDE80840FBF79CBE1B21084802
:10476000FBF798FE1D210748FBF794FE1C21064825
:10477000FBF790FE1E210548BDE80840FBF78ABE06
:10478000AC33FF1F4833FF1FF032FF1F0833FF1FFA
:1047900010B504F077FD04460448FBF7CFFF03682B
:1047A000012B08BF04F56164204610BD6033FF1F74
:1047B00005F0F0B910B5044600F0B2FD002384F80E
:1047C000313084F8333010BD2DE9F04300F124037B
:1047D00081460F46154693E8070085B099F83130B9
:1047E00001AE86E80700002B3ED099F83030012B4F
:1047F0003FD94FF001080024B8F1010F14BF202267
:1048000040223146D9F8200001F0E8F801282BD1E8
:1048100000223146D9F8200001F0C6F820B3037811
:10482000C12B21D1391904F10F0E00E0144630F8E4
:10483000023F621C93B1AA4210D27E2B94BFDBB21E
:104840003F23724501F8013BF0D108F1010899F8C6
:1048500030305FFA88F843451446CDD8002320460F
:104860003B5505B0BDE8F0830020387005B0BDE8C9
:10487000F0830024F2E700BF90F831200AB1002055
:10488000704738B504460D461146382207F0BEFC85
:104890004023012084F8313084F83300256238BD8C
:1048A000F0B50878202803D111F8010F2028FBD09B
:1048B00051600878002851D02F282BD05C2820D0B8
:1048C000A0F12204E4B21D2C1DD9DFF894E04E1CA7
:1048D00000247C28A0F12005374612D05E2D10D888
:1048E00016F8010BA0F12205EDB2013478B32F28A0
:1048F00011D05C282EFA05F703D01D2DE9D8FD074D
:10490000E7D50020F0BD164D25FA04F4E607DCD506
:104910000020F0BD00240F193E4625462F2002E05E
:1049200016F8010F01352028FAD02F28F8D0294495
:10493000196044B1394611F8013D2E2B01D0202BCE
:1049400008D1013CF7D1204610600120F0BD1F6066
:104950000F19EFE7FF2CF6DD0020F0BD1960F3E73B
:10496000010100352DE9F04F90F83330DE0783B0B8
:1049700004465AD55D060E46934640F1B880D4E908
:104980000001D4E9042310EB0B0841F100094B4569
:1049900008BF4245C0F0B180BBF1000F6ED0A14608
:1049A000F9E806015D46276AD7F838340340C3F3B7
:1049B000080A002B68D150EA010275D194F8312021
:1049C00051064CBFD7F83424E269A261D7F82C0411
:1049D00097F845E45B0A023A191802FA0EF21144FC
:1049E000BAF1000F2CD1B5F5007F29D3D7F81C22DE
:1049F000914225D0B5F5806F5DD34FF0010808FADC
:104A00000EF8C3EB08034FEA5528984528BF98468F
:104A100091423BD808EB01039A4237D207F5047064
:104A2000019104F095F9019980BB94F832304FF070
:104A3000FF3043F0020384F8323003B0BDE8F08F5A
:104A400007F50470002204F053F90028EDD0CAF5F0
:104A50000078A84528BFA84600EB0A014246304628
:104A600004F0B4FC42460023D4E900018018594107
:104A7000B5EB08054644C4E9000194D10025C5EB17
:104A80000B0003B0BDE8F08FA2699FE7D7F81402CE
:104A9000036832461F694346B8470028C5D04FEA2D
:104AA000482842460023DFE794F83320520610D509
:104AB000A269013289E7D7F8140203683246DB683D
:104AC00098470028B1D04FF4007200234FF40078CB
:104AD000CAE738464A46A169019300F0ABFF40B2ED
:104AE0000028A2DB0CD0276AA269019B6EE790F830
:104AF000313018073FF543AF4EE7C0EB020B4BE7F1
:104B000094F8313013F0500FB9D18EE7F0B583B07F
:104B100001220DF107010446D0E900678569FFF71E
:104B200021FF012808BF9DF80700A56118BF4FF0BD
:104B3000FF30C4E9006703B0F0BD00BF2DE9F04FBE
:104B400090F831E0856983B00446BEF1000F1BD0B8
:104B5000D0E90001994208BF904216461F463BD05B
:104B600056EA070307D10023A3610120C4E90067C7
:104B700003B0BDE8F08F1EF0080F0AD0D4E904237B
:104B8000BB4208BFB24204D2A561002003B0BDE819
:104B9000F08F236A019393F845C494F833A00CF185
:104BA000090C5FFA8CFC16F1FF3247F1FF33CCF1B0
:104BB000200803FA08FB22FA0CF242EA0B02ACF1DD
:104BC000200B23FA0BF31AF0400F42EA030205D040
:104BD000E3691A44A261C8E70120D7E710F1FF3961
:104BE00041F1FF3A29FA0CFC0AFA08F84CEA080CE1
:104BF0002AFA0BFB4CEA0B0C6245534617D21EF007
:104C0000400F16BF019BE369D3F83434A36190468B
:104C100004F118094A46B8F1000FA6D0A169206A2C
:104C200000F008FF08F1FF380028F3D1ACE750EAA4
:104C30000103E4D0CCEB0202E9E700BF2DE9F04F1D
:104C40000E4693B090F831100092054629B99A4665
:104C500096F8313013F0500F07D1002085F831005D
:104C600085F8330013B0BDE8F08F1C9B03F00303FD
:104C7000012B06D0022B00F00981002BEDD101237E
:104C800000E002231C9A02F0080213430193009BE8
:104C9000002B00F0FD8018460022514600F0CEFFA8
:104CA00096F8313002904BB1D6E90023134305D07A
:104CB00000220023C6E900230021B161B84A0AF1AD
:104CC0000E0382FB03121A44DB17C3EBE203DBB2D1
:104CD0004FF00009039302335FFA83FB4C464F46C3
:104CE00020220AA93046FFF73DFE00283DD02028AB
:104CF000B3D19DF828301A0666D4002C61D13268F1
:104D0000B1690791203A08920134E4B26BB3C02B29
:104D100000F09380C12B62D0852BE1D13822002195
:104D2000284607F073FA9DF82C309DF8292085F865
:104D30003020D80603F0370258BF42F0080285F849
:104D400031203368316AB2696A62203B2962AB6202
:104D500096F83330C3F3801385F82C3020220AA94B
:104D60003046FFF7FFFD0028C1D11C9B99057FF558
:104D700074AF019B9A077FF570AF009B002B3FF447
:104D80006CAF5C450CD386E020287FF466AF24B975
:104D90003268B1690791203A0892DCB2A3457AD90A
:104DA00020220AA93046FFF7DDFD631C0028EBD165
:104DB0003046B76900F0E4FA00283FF44EAFB7611F
:104DC000ECE75C45A2D29FE7B9F1000F9FD15C45AB
:104DD00038BF0024852B83D14FF001099EE7C7EB34
:104DE0000A085FFA88F8B8F10F0F28BF4FF00F08D4
:104DF00043463A4600990AA800F0F4FE00283CD049
:104E00004744FFB2BA457FF46BAF1C9B1B053FF5CF
:104E100024AF1C9B13F4884F40F0A08095F83330EA
:104E20009F0700F19B801C9B5B053FF516AF1C9B09
:104E3000580400F1B780012014E79DF82930019A49
:104E400085F83320990703D542F0400385F83330C5
:104E5000DDE90C23DDE91001C5E904230F9BEB61BB
:104E6000009BC5E90201002BCFD09DF82B305345A4
:104E700005D04FF000094F4632E7814630E7BDF8D4
:104E80002C30029A9342F4D1002729E70323F9E654
:104E9000009B029312E796F833303822C3F3801355
:104EA000002128460DF11C088DF8243007F0AEF9DA
:104EB000039C336ACDF80CA098E8070004F10109BF
:104EC000082485F831400AF11E0705F12404DDF8B5
:104ED00000A02B625FFA89F984E80700FFB2002680
:104EE00018460122414600F05FFD044600283FF4C9
:104EF000B4AE90F90030002BFFF6AFAE20220021B7
:104F000007F084F9002E66D0012E54D0C6EB0613AC
:104F10000F2FA3F11E034FF0C102394628BF0F2106
:104F2000DBB2227051B1023409B204EB41015344A7
:104F300013F8012B24F8022BA142F9D10136F6B265
:104F4000B34529D920224146286A00F047FD0128AF
:104F50007FF483AE0F3FFFB2286AC2E795F8313085
:104F600013F0110F7FF479AE1C9B5E057FF55FAFE8
:104F700095F833309C077FF570AE00220023284659
:104F8000FFF7DCFD00283FF468AE284600F06CFA1D
:104F900000283FF462AE4EE7284600F0C1F961E612
:104FA00089888888D5E904232846FFF7C7FD0028AB
:104FB0007FF441AF51E6C0232370019B032263F0CD
:104FC0003F03627085F833309DF80C30E370BDF814
:104FD0000830A380B2E7852323700E4B85F830900C
:104FE00084F801901B687BB10DF117020DF11A01D5
:104FF00006A89847BDF81810BDF81A209DF817307C
:1050000061812281237599E745F221436381E38120
:10501000638293E78C35FF1F2DE9F041044694B07D
:1050200094F83150039200208DF849008DF84A0021
:105030008DF84B0035B9984691F8313013F0500F88
:105040000F4603D1002014B0BDE8F08113782F2B58
:10505000154626D000261AE0039B1B782046002B1D
:1050600034D0059A9DF810300096FFF7E7FD342202
:1050700021460028E6D006A804F0A8F9204600F052
:105080004FF9039D84F8316084F8336006AF2946F8
:1050900003AB04AA2046FFF703FC39460028DBD106
:1050A000D0E70135039529782F29FAD0D1B13822DC
:1050B00006A800213E6A07F0A9F84022012306AFA6
:1050C0000E968DF849208DF84B30C3E79DF81030CF
:1050D000059ACDF8008039462046FFF7AFFD14B0A1
:1050E000BDE8F081382220463D6A07F08FF8402362
:1050F0000120256284F8313084F83300A3E700BF33
:1051000019B101F58961FFF787BF0846704700BFF5
:1051100090F8313053B930B591F8314014F0500463
:1051200083B00D4604D1204603B030BD0020704747
:10513000D5E90045002504F01F042C4302D0184691
:1051400003B030BD00921A46FFF778FD03B030BDC2
:105150008169F8B50446006A01B10131012200F00D
:1051600057FB012806462FD9012301461A46206A1B
:1051700000F0A8FB074638B3A06994F8333030B389
:105180005A0613D5421C964225D023F0400284F8DB
:105190003320E36905E0206A00F056FCA0B1A06965
:1051A0002B465D1C834219462A46F4D34FF0FF324A
:1051B0003146206A00F048FC30B1A16959B132464D
:1051C000206A00F041FC30B900273846F8BD43F0B2
:1051D000400384F83330A6613846F8BD2DE9F04F1E
:1051E00000F1240B06469BE8070087B00DF10C0880
:1051F00088E807000027BA463C4600224146306A4C
:1052000000F0D2FB5FFA87F9054630B10378C02B76
:1052100051D0C12B4DD0852B09D096F8323043F0B8
:10522000010386F83230002007B0BDE8F08F3B4B19
:1052300096F831201B6890F801A002F037028280B6
:1052400083B10DF107020DF10A0102A89847BDF8DC
:105250000A20BDF808309DF807106975AA812A82D6
:10526000EB816B82326A92F8103243F0010382F8CC
:105270001032287800216A5CE30343EA540412FAEE
:1052800084F40129A4B201F101010DD01F29F2D942
:10529000CA4526D020224146306A00F09FFB0128F3
:1052A00007F10107A9D0B8E785280CBF0421022126
:1052B000E1E71846DEE796F8333013F0400F437805
:1052C00014BF43F0020323F002034370D6E9042322
:1052D000C0E90223D6E90223F1694161C0E906234E
:1052E000C0E759460122306A00F05EFB002894D0E6
:1052F000356A4480284603F02BFD00288DD005F543
:10530000047003F025FD002887D0D5F84004036819
:105310009B699847002880D086E700BF8C35FF1F27
:1053200090F8312092B138B590F8332011060FD49F
:10533000056A0446284603F00BFD88B994F832301C
:1053400043F0010384F83230002038BD012070475B
:1053500002F07F0280F83320BDE83840FFF73EBFFF
:1053600005F5047003F0F4FC0028E7D0D5F84004FC
:1053700003689B6998470028E0D0012038BD00BF32
:105380002DE9F04190F831305906044660D4806828
:10539000236AD3F83C341844B0F1806F02D3002064
:1053A000BDE8F0812046FFF7D3FE0028F7D0266A3B
:1053B00096F81032DA074FD44FF0FF33002506F588
:1053C0000878C6F81C3286F8105229464FF400724D
:1053D000404606F01BFF226AA36992F84504D2F802
:1053E0002C14023B834001265F1816FA00F310D0FC
:1053F000D2F8400403687919DB69424698470135C1
:105400000028CCD0226A92F8453406FA03F3AB4266
:10541000EED894F831305B0615D494F8333063F04D
:105420007F0384F83330D2F83C64D4E90223D4E912
:10543000040192194FF000077B4180197941C4E9BA
:105440000223C4E904012046BDE8F041FFF768BF2C
:10545000006A00F0BBFB9BE706F5047003F078FCE4
:105460000028A9D19BE700BF90F833309A0718D5E0
:10547000F0B5C56983B08DB103F04003044603F075
:10548000FF0083B9A169002941D10195E161294655
:10549000206A00F0EBFA30BB002000E0012003B0EE
:1054A000F0BD00207047206AA16990F84534D4E926
:1054B00002670933DBB216F1FF36C3F1200E47F164
:1054C000FF3726FA03F207FA0EFE203B42EA0E02ED
:1054D00027FA03F31A430132B1B1013D6D1A0131CC
:1054E0002A4401910ABBD4E9000194F8333063F0F7
:1054F0007F03C4E90201C4E9040184F83330204683
:10550000FFF70EFF03B0F0BD0195E161EAE702AAE3
:1055100042F8040D206A00F08DFA40B20028BBDB8F
:105520000AD1019D002DDED0B1E70023019900F0E2
:10553000C9F90028D7D1AFE74FF0FF32A169206A3F
:1055400000F082FA0028ECD1A6E700BF2DE9F04F69
:1055500090F8333083B09D07044600920AD494F843
:10556000323043F0010384F832304FF0FF3003B0A3
:10557000BDE8F08F1A07894600F10181009B002BDE
:1055800000F011812146F1E80623DDF80080019149
:105590004FF0010BCA46206AD0F838541540C5F3C5
:1055A000080945BBA169002900F0AE8094F83330AA
:1055B0005B0640F1CD80D4E9026790F84524E369A9
:1055C0000932D2B216F1FF3647F1FF37C2F1200E91
:1055D000D64007FA0EFE203A46EA0E0627FA02F2F5
:1055E000164333449942C0F0A6802046FFF7B0FD31
:1055F0000028B4D0206AA669D0F82C7490F845E44D
:105600006D0A023EE91906FA0EF63144B9F1000FAF
:1056100073D1B8F5007F4DD2D4E90423D4E90067F3
:10562000B8F5007F454628BF4FF400759F4208BF7C
:10563000964234BF0122052200F5047003F058FBA6
:1056400000288CD048442A465146A94403F0BEFEA7
:10565000B9F5007F00F08A8028460021D4E90023B4
:10566000D4E9046712184B419F4208BF9642AA44EE
:10567000C5EB0808C4E9002307D294F83310C4E945
:10568000042361F07F0184F83310B8F1000F82D158
:10569000D4E90201994208BF904278D3434B1B687A
:1056A000002B7ED094F83330009863F07F0384F8A9
:1056B00033305CE7B8F5806F2AD30BFA0EF35D1B2D
:1056C000D0F81C224FEA5823AB4228BF2B46914208
:1056D0004FEA432508D8CE18B24205D24FF0FF3228
:1056E00080F81092C0F81C22D0F8140206685246C6
:1056F000366AB0470028AFD131E7C9F50075454596
:1057000028BF4546012297E7E669BEB1A66173E767
:10571000D0F81C32994222D0D0F8140203685246C5
:10572000DB69984700283FF41AAF4FF4007000215E
:105730004FF4007592E74E1CA6615DE72046FFF727
:1057400007FD00283FF40BAFA669E661206A53E726
:10575000019A00F06FF900287FF44CAF45E74FF055
:10576000FF3380F81092C0F81C32D5E7206A00F5AC
:10577000047003F0EDFA00287FF46EAFEFE6D0E995
:105780000423FFF7DBF900283FF4E9AEF6E694F8CE
:105790003310009861F07F01C4E9022384F83310CC
:1057A000E5E60098E3E6D4E9002371E78C35FF1FB6
:1057B00038B50C46D0F82414154601EBD41100F589
:1057C0000470002203F094FA40B1A400C4F308046A
:1057D00003595A1C04D02B60012038BDFF2038BD6E
:1057E000002038BD38B50C46D0F82414154601EB1E
:1057F000D41100F50470012203F07AFA034628B1AF
:10580000A400C4F3080401201D5138BD38BD00BFF9
:105810002DE9F84F804691468B46002944D08F1ED3
:10582000D8F830349F423BD207F00705012303FA32
:1058300005F5EDB2C7F3C80A3E463C46D8F82C142D
:10584000002201EB1431404603F052FAC0B110F8C7
:105850000A100AE04A452AD0A74210D0D8F83024CE
:10586000944217D213F0FF050CD001340D424FEAD9
:105870004503A4EB0602EDD0A7422646EED1012057
:10588000BDE8F88F0AF1010ABAF5007F4FF0010573
:10589000DDD101E0002634464FF0000A0125CDE7B6
:1058A0000027BA460125C7E7D0F82074B8E7BBF156
:1058B000000F04D1B9F1010F08BFC8F82064B01C73
:1058C000BDE8F88F2DE9F04702398046D0F8300462
:1058D00015468A18824238D89A46D8F82034BAF148
:1058E000000F35D1994238BFC8F8201401F00704E1
:1058F0000122D8F82C3402FA04F4E4B203EB113993
:10590000C1F3C806012249464046914403F0F0F92C
:10591000D8B1871900F5007017F8012B224214BF87
:1059200001260026564582EA04024FEA44040CD0C0
:10593000013D07F8012C15D014F0FF04EED1B84258
:1059400026464FF00104E7D1DCE70020BDE8F087F0
:105950009942CBD89A42C9D9824228BF0022C8F8BE
:105960002024C3E70120BDE8F08700BF70B582B0F6
:1059700002AE054646F8041D0024D5F830340199DE
:105980000133994202D9002002B070BD3246284648
:10599000FFF70EFF40B20028F5DB04F10104ECD163
:1059A000204602B070BD00BFF8B50E4696E828004C
:1059B000D0F83814D0F82C4490F845742940023BB4
:1059C00004EB5121BB40194400F5047003F090F939
:1059D00018B17368C3F308031844F8BD70B54C6878
:1059E0000D46A318D0F838146B6090F845340C407D
:1059F00009332244DBB222FA03F406463CB12B7A87
:105A00003BB12B6801332B60013C002CF7D1012006
:105A100070BDD6F8303429680133994202D94FF06D
:105A2000FF3070BD2A463046FFF7C2FE40B2012863
:105A3000EAD070BDD0F8303401338B4201D2FF2060
:105A40007047FFF7B5BE00BF01290DD9D0F830343B
:105A50000133994210B403D900205DF8044B70471C
:105A60005DF8044BFFF7BEBE00207047F0B50C4652
:105A700083B005460E46D5F8303401339C4202D936
:105A8000002003B0F0BD01AA21462846FFF790FE92
:105A900047B2002FF4DB012CF2D9D5F830340133B2
:105AA0009C42EDD8002221462846FFF79BFE0028A5
:105AB000E6D0019B01349C420BD1002FDBD13B4649
:105AC000A21B31462846FFF7FDFE0028D8D003B0C0
:105AD000F0BDA21B314600232846FFF7F3FE002845
